{
	"Main.sol": {
		"Main": {
			"abi": [
				{
					"inputs": [
						{
							"internalType": "uint8",
							"name": "_numberOfUser",
							"type": "uint8"
						}
					],
					"stateMutability": "nonpayable",
					"type": "constructor"
				},
				{
					"anonymous": false,
					"inputs": [
						{
							"indexed": false,
							"internalType": "address",
							"name": "_account",
							"type": "address"
						},
						{
							"indexed": false,
							"internalType": "string",
							"name": "msg",
							"type": "string"
						}
					],
					"name": "AddParticipant",
					"type": "event"
				},
				{
					"anonymous": false,
					"inputs": [
						{
							"indexed": false,
							"internalType": "address",
							"name": "_account",
							"type": "address"
						},
						{
							"indexed": false,
							"internalType": "string",
							"name": "_fullName",
							"type": "string"
						},
						{
							"indexed": false,
							"internalType": "string",
							"name": "_email",
							"type": "string"
						}
					],
					"name": "UpdateParticipant",
					"type": "event"
				},
				{
					"inputs": [
						{
							"internalType": "address",
							"name": "_account",
							"type": "address"
						}
					],
					"name": "addParticipant",
					"outputs": [],
					"stateMutability": "nonpayable",
					"type": "function"
				},
				{
					"inputs": [
						{
							"internalType": "address",
							"name": "session",
							"type": "address"
						}
					],
					"name": "addSession",
					"outputs": [],
					"stateMutability": "nonpayable",
					"type": "function"
				},
				{
					"inputs": [],
					"name": "admin",
					"outputs": [
						{
							"internalType": "address",
							"name": "",
							"type": "address"
						}
					],
					"stateMutability": "view",
					"type": "function"
				},
				{
					"inputs": [],
					"name": "getAllParticipants",
					"outputs": [
						{
							"components": [
								{
									"internalType": "address",
									"name": "account",
									"type": "address"
								},
								{
									"internalType": "string",
									"name": "fullName",
									"type": "string"
								},
								{
									"internalType": "string",
									"name": "email",
									"type": "string"
								},
								{
									"internalType": "uint256",
									"name": "numberOfSession",
									"type": "uint256"
								},
								{
									"internalType": "uint8",
									"name": "deviation",
									"type": "uint8"
								}
							],
							"internalType": "struct IParticipant[]",
							"name": "",
							"type": "tuple[]"
						}
					],
					"stateMutability": "view",
					"type": "function"
				},
				{
					"inputs": [
						{
							"internalType": "address",
							"name": "_account",
							"type": "address"
						}
					],
					"name": "getParticipant",
					"outputs": [
						{
							"components": [
								{
									"internalType": "address",
									"name": "account",
									"type": "address"
								},
								{
									"internalType": "string",
									"name": "fullName",
									"type": "string"
								},
								{
									"internalType": "string",
									"name": "email",
									"type": "string"
								},
								{
									"internalType": "uint256",
									"name": "numberOfSession",
									"type": "uint256"
								},
								{
									"internalType": "uint8",
									"name": "deviation",
									"type": "uint8"
								}
							],
							"internalType": "struct IParticipant",
							"name": "",
							"type": "tuple"
						}
					],
					"stateMutability": "view",
					"type": "function"
				},
				{
					"inputs": [
						{
							"internalType": "address",
							"name": "",
							"type": "address"
						}
					],
					"name": "participants",
					"outputs": [
						{
							"internalType": "address",
							"name": "account",
							"type": "address"
						},
						{
							"internalType": "string",
							"name": "fullName",
							"type": "string"
						},
						{
							"internalType": "string",
							"name": "email",
							"type": "string"
						},
						{
							"internalType": "uint256",
							"name": "numberOfSession",
							"type": "uint256"
						},
						{
							"internalType": "uint8",
							"name": "deviation",
							"type": "uint8"
						}
					],
					"stateMutability": "view",
					"type": "function"
				},
				{
					"inputs": [
						{
							"internalType": "uint256",
							"name": "",
							"type": "uint256"
						}
					],
					"name": "sessions",
					"outputs": [
						{
							"internalType": "address",
							"name": "",
							"type": "address"
						}
					],
					"stateMutability": "view",
					"type": "function"
				},
				{
					"inputs": [
						{
							"internalType": "address",
							"name": "_account",
							"type": "address"
						},
						{
							"internalType": "string",
							"name": "_fullName",
							"type": "string"
						},
						{
							"internalType": "string",
							"name": "_email",
							"type": "string"
						}
					],
					"name": "updateParticipant",
					"outputs": [],
					"stateMutability": "nonpayable",
					"type": "function"
				}
			],
			"devdoc": {
				"kind": "dev",
				"methods": {},
				"version": 1
			},
			"evm": {
				"assembly": "    /* \"Main.sol\":117:2927  contract Main is IMain {... */\n  mstore(0x40, 0x80)\n    /* \"Main.sol\":641:780  constructor(uint8 _numberOfUser) {... */\n  callvalue\n  dup1\n  iszero\n  tag_1\n  jumpi\n  0x00\n  dup1\n  revert\ntag_1:\n  pop\n  mload(0x40)\n  sub(codesize, bytecodeSize)\n  dup1\n  bytecodeSize\n  dup4\n  codecopy\n  dup2\n  add\n  0x40\n  dup2\n  swap1\n  mstore\n  tag_2\n  swap2\n  tag_3\n  jump\t// in\ntag_2:\n    /* \"Main.sol\":684:689  admin */\n  0x00\n    /* \"Main.sol\":684:702  admin = msg.sender */\n  dup1\n  sload\n    /* \"Main.sol\":712:731  numberOfParticipant */\n  0x04\n    /* \"Main.sol\":712:735  numberOfParticipant = 0 */\n  dup1\n  sload\n  not(0xff)\n  and\n  swap1\n  sstore\n  not(sub(shl(0xa8, 0x01), 0x01))\n    /* \"Main.sol\":745:773  numberOfUser = _numberOfUser */\n  and\n    /* \"Main.sol\":692:702  msg.sender */\n  caller\n  not(shl(0xa0, 0xff))\n    /* \"Main.sol\":745:773  numberOfUser = _numberOfUser */\n  and\n  or\n  shl(0xa0, 0x01)\n    /* \"Main.sol\":712:735  numberOfParticipant = 0 */\n  0xff\n    /* \"Main.sol\":745:773  numberOfUser = _numberOfUser */\n  swap4\n  swap1\n  swap4\n  and\n  swap3\n  swap1\n  swap3\n  mul\n  swap2\n  swap1\n  swap2\n  or\n  swap1\n  sstore\n    /* \"Main.sol\":117:2927  contract Main is IMain {... */\n  jump(tag_7)\n    /* \"#utility.yul\":14:287   */\ntag_3:\n    /* \"#utility.yul\":82:88   */\n  0x00\n    /* \"#utility.yul\":135:137   */\n  0x20\n    /* \"#utility.yul\":123:132   */\n  dup3\n    /* \"#utility.yul\":114:121   */\n  dup5\n    /* \"#utility.yul\":110:133   */\n  sub\n    /* \"#utility.yul\":106:138   */\n  slt\n    /* \"#utility.yul\":103:155   */\n  iszero\n  tag_9\n  jumpi\n    /* \"#utility.yul\":151:152   */\n  0x00\n    /* \"#utility.yul\":148:149   */\n  dup1\n    /* \"#utility.yul\":141:153   */\n  revert\n    /* \"#utility.yul\":103:155   */\ntag_9:\n    /* \"#utility.yul\":183:192   */\n  dup2\n    /* \"#utility.yul\":177:193   */\n  mload\n    /* \"#utility.yul\":233:237   */\n  0xff\n    /* \"#utility.yul\":226:231   */\n  dup2\n    /* \"#utility.yul\":222:238   */\n  and\n    /* \"#utility.yul\":215:220   */\n  dup2\n    /* \"#utility.yul\":212:239   */\n  eq\n    /* \"#utility.yul\":202:257   */\n  tag_10\n  jumpi\n    /* \"#utility.yul\":253:254   */\n  0x00\n    /* \"#utility.yul\":250:251   */\n  dup1\n    /* \"#utility.yul\":243:255   */\n  revert\n    /* \"#utility.yul\":202:257   */\ntag_10:\n    /* \"#utility.yul\":276:281   */\n  swap4\n    /* \"#utility.yul\":14:287   */\n  swap3\n  pop\n  pop\n  pop\n  jump\t// out\ntag_7:\n    /* \"Main.sol\":117:2927  contract Main is IMain {... */\n  dataSize(sub_0)\n  dup1\n  dataOffset(sub_0)\n  0x00\n  codecopy\n  0x00\n  return\nstop\n\nsub_0: assembly {\n        /* \"Main.sol\":117:2927  contract Main is IMain {... */\n      mstore(0x40, 0x80)\n      callvalue\n      dup1\n      iszero\n      tag_1\n      jumpi\n      0x00\n      dup1\n      revert\n    tag_1:\n      pop\n      jumpi(tag_2, lt(calldatasize, 0x04))\n      shr(0xe0, calldataload(0x00))\n      dup1\n      0xb4007700\n      gt\n      tag_11\n      jumpi\n      dup1\n      0xb4007700\n      eq\n      tag_7\n      jumpi\n      dup1\n      0xdfafe10f\n      eq\n      tag_8\n      jumpi\n      dup1\n      0xf390dd86\n      eq\n      tag_9\n      jumpi\n      dup1\n      0xf851a440\n      eq\n      tag_10\n      jumpi\n      0x00\n      dup1\n      revert\n    tag_11:\n      dup1\n      0x09e69ede\n      eq\n      tag_3\n      jumpi\n      dup1\n      0x195ec9ee\n      eq\n      tag_4\n      jumpi\n      dup1\n      0x7143059f\n      eq\n      tag_5\n      jumpi\n      dup1\n      0x83c4b7a3\n      eq\n      tag_6\n      jumpi\n    tag_2:\n      0x00\n      dup1\n      revert\n        /* \"Main.sol\":486:538  mapping(address => IParticipant) public participants */\n    tag_3:\n      tag_12\n      tag_13\n      calldatasize\n      0x04\n      tag_14\n      jump\t// in\n    tag_13:\n      tag_15\n      jump\t// in\n    tag_12:\n      mload(0x40)\n      tag_16\n      swap6\n      swap5\n      swap4\n      swap3\n      swap2\n      swap1\n      tag_17\n      jump\t// in\n    tag_16:\n      mload(0x40)\n      dup1\n      swap2\n      sub\n      swap1\n      return\n        /* \"Main.sol\":2034:2367  function getAllParticipants() public view returns (IParticipant[] memory) {... */\n    tag_4:\n      tag_18\n      tag_19\n      jump\t// in\n    tag_18:\n      mload(0x40)\n      tag_16\n      swap2\n      swap1\n      tag_21\n      jump\t// in\n        /* \"Main.sol\":1869:1999  function getParticipant(address _account) public view returns (IParticipant memory) {... */\n    tag_5:\n      tag_22\n      tag_23\n      calldatasize\n      0x04\n      tag_14\n      jump\t// in\n    tag_23:\n      tag_24\n      jump\t// in\n    tag_22:\n      mload(0x40)\n      tag_16\n      swap2\n      swap1\n      tag_26\n      jump\t// in\n        /* \"Main.sol\":455:480  address[] public sessions */\n    tag_6:\n      tag_27\n      tag_28\n      calldatasize\n      0x04\n      tag_29\n      jump\t// in\n    tag_28:\n      tag_30\n      jump\t// in\n    tag_27:\n      mload(0x40)\n      sub(shl(0xa0, 0x01), 0x01)\n        /* \"#utility.yul\":3532:3564   */\n      swap1\n      swap2\n      and\n        /* \"#utility.yul\":3514:3565   */\n      dup2\n      mstore\n        /* \"#utility.yul\":3502:3504   */\n      0x20\n        /* \"#utility.yul\":3487:3505   */\n      add\n        /* \"Main.sol\":455:480  address[] public sessions */\n      tag_16\n        /* \"#utility.yul\":3368:3571   */\n      jump\n        /* \"Main.sol\":1551:1828  function updateParticipant(address _account, string memory _fullName, string memory _email) public onlyAdmin {... */\n    tag_7:\n      tag_33\n      tag_34\n      calldatasize\n      0x04\n      tag_35\n      jump\t// in\n    tag_34:\n      tag_36\n      jump\t// in\n    tag_33:\n      stop\n        /* \"Main.sol\":1195:1518  function addParticipant(address _account) public onlyAdmin onlyInNumberOfRangeParticipant {... */\n    tag_8:\n      tag_33\n      tag_38\n      calldatasize\n      0x04\n      tag_14\n      jump\t// in\n    tag_38:\n      tag_39\n      jump\t// in\n        /* \"Main.sol\":874:1141  function addSession(address session) public onlyAdmin {... */\n    tag_9:\n      tag_33\n      tag_41\n      calldatasize\n      0x04\n      tag_14\n      jump\t// in\n    tag_41:\n      tag_42\n      jump\t// in\n        /* \"Main.sol\":373:393  address public admin */\n    tag_10:\n      sload(0x00)\n      tag_27\n      swap1\n      sub(shl(0xa0, 0x01), 0x01)\n      and\n      dup2\n      jump\n        /* \"Main.sol\":486:538  mapping(address => IParticipant) public participants */\n    tag_15:\n      mstore(0x20, 0x02)\n      0x00\n      swap1\n      dup2\n      mstore\n      0x40\n      swap1\n      keccak256\n      dup1\n      sload\n      0x01\n      dup3\n      add\n      dup1\n      sload\n      sub(shl(0xa0, 0x01), 0x01)\n      swap1\n      swap3\n      and\n      swap3\n      swap2\n      tag_46\n      swap1\n      tag_47\n      jump\t// in\n    tag_46:\n      dup1\n      0x1f\n      add\n      0x20\n      dup1\n      swap2\n      div\n      mul\n      0x20\n      add\n      mload(0x40)\n      swap1\n      dup2\n      add\n      0x40\n      mstore\n      dup1\n      swap3\n      swap2\n      swap1\n      dup2\n      dup2\n      mstore\n      0x20\n      add\n      dup3\n      dup1\n      sload\n      tag_48\n      swap1\n      tag_47\n      jump\t// in\n    tag_48:\n      dup1\n      iszero\n      tag_49\n      jumpi\n      dup1\n      0x1f\n      lt\n      tag_50\n      jumpi\n      0x0100\n      dup1\n      dup4\n      sload\n      div\n      mul\n      dup4\n      mstore\n      swap2\n      0x20\n      add\n      swap2\n      jump(tag_49)\n    tag_50:\n      dup3\n      add\n      swap2\n      swap1\n      0x00\n      mstore\n      keccak256(0x00, 0x20)\n      swap1\n    tag_51:\n      dup2\n      sload\n      dup2\n      mstore\n      swap1\n      0x01\n      add\n      swap1\n      0x20\n      add\n      dup1\n      dup4\n      gt\n      tag_51\n      jumpi\n      dup3\n      swap1\n      sub\n      0x1f\n      and\n      dup3\n      add\n      swap2\n    tag_49:\n      pop\n      pop\n      pop\n      pop\n      pop\n      swap1\n      dup1\n      0x02\n      add\n      dup1\n      sload\n      tag_52\n      swap1\n      tag_47\n      jump\t// in\n    tag_52:\n      dup1\n      0x1f\n      add\n      0x20\n      dup1\n      swap2\n      div\n      mul\n      0x20\n      add\n      mload(0x40)\n      swap1\n      dup2\n      add\n      0x40\n      mstore\n      dup1\n      swap3\n      swap2\n      swap1\n      dup2\n      dup2\n      mstore\n      0x20\n      add\n      dup3\n      dup1\n      sload\n      tag_53\n      swap1\n      tag_47\n      jump\t// in\n    tag_53:\n      dup1\n      iszero\n      tag_54\n      jumpi\n      dup1\n      0x1f\n      lt\n      tag_55\n      jumpi\n      0x0100\n      dup1\n      dup4\n      sload\n      div\n      mul\n      dup4\n      mstore\n      swap2\n      0x20\n      add\n      swap2\n      jump(tag_54)\n    tag_55:\n      dup3\n      add\n      swap2\n      swap1\n      0x00\n      mstore\n      keccak256(0x00, 0x20)\n      swap1\n    tag_56:\n      dup2\n      sload\n      dup2\n      mstore\n      swap1\n      0x01\n      add\n      swap1\n      0x20\n      add\n      dup1\n      dup4\n      gt\n      tag_56\n      jumpi\n      dup3\n      swap1\n      sub\n      0x1f\n      and\n      dup3\n      add\n      swap2\n    tag_54:\n      pop\n      pop\n      pop\n      pop\n      0x03\n      dup4\n      add\n      sload\n      0x04\n      swap1\n      swap4\n      add\n      sload\n      swap2\n      swap3\n      swap2\n      0xff\n      and\n      swap1\n      pop\n      dup6\n      jump\t// out\n        /* \"Main.sol\":2034:2367  function getAllParticipants() public view returns (IParticipant[] memory) {... */\n    tag_19:\n        /* \"Main.sol\":2175:2194  numberOfParticipant */\n      sload(0x04)\n        /* \"Main.sol\":2085:2106  IParticipant[] memory */\n      0x60\n      swap1\n        /* \"Main.sol\":2118:2153  IParticipant[] memory _participants */\n      0x00\n      swap1\n        /* \"Main.sol\":2175:2194  numberOfParticipant */\n      0xff\n      and\n        /* \"Main.sol\":2156:2195  new IParticipant[](numberOfParticipant) */\n      0xffffffffffffffff\n      dup2\n      gt\n      iszero\n      tag_59\n      jumpi\n      tag_59\n      tag_60\n      jump\t// in\n    tag_59:\n      mload(0x40)\n      swap1\n      dup1\n      dup3\n      mstore\n      dup1\n      0x20\n      mul\n      0x20\n      add\n      dup3\n      add\n      0x40\n      mstore\n      dup1\n      iszero\n      tag_61\n      jumpi\n      dup2\n      0x20\n      add\n    tag_62:\n      tag_63\n      tag_64\n      jump\t// in\n    tag_63:\n      dup2\n      mstore\n      0x20\n      add\n      swap1\n      0x01\n      swap1\n      sub\n      swap1\n      dup2\n      tag_62\n      jumpi\n      swap1\n      pop\n    tag_61:\n      pop\n        /* \"Main.sol\":2118:2195  IParticipant[] memory _participants = new IParticipant[](numberOfParticipant) */\n      swap1\n      pop\n        /* \"Main.sol\":2211:2218  uint8 i */\n      0x00\n        /* \"Main.sol\":2206:2330  for (uint8 i = 0; i < numberOfParticipant; i++) {... */\n    tag_65:\n        /* \"Main.sol\":2228:2247  numberOfParticipant */\n      sload(0x04)\n      0xff\n      swap1\n      dup2\n      and\n        /* \"Main.sol\":2224:2247  i < numberOfParticipant */\n      swap1\n      dup3\n      and\n      lt\n        /* \"Main.sol\":2206:2330  for (uint8 i = 0; i < numberOfParticipant; i++) {... */\n      iszero\n      tag_66\n      jumpi\n        /* \"Main.sol\":2300:2318  mapParticipants[i] */\n      0xff\n      dup2\n      and\n        /* \"Main.sol\":2287:2319  participants[mapParticipants[i]] */\n      0x00\n        /* \"Main.sol\":2300:2318  mapParticipants[i] */\n      swap1\n      dup2\n      mstore\n        /* \"Main.sol\":2300:2315  mapParticipants */\n      0x03\n        /* \"Main.sol\":2300:2318  mapParticipants[i] */\n      0x20\n      swap1\n      dup2\n      mstore\n      0x40\n      dup1\n      dup4\n      keccak256\n      sload\n      sub(shl(0xa0, 0x01), 0x01)\n      swap1\n      dup2\n      and\n        /* \"Main.sol\":2287:2319  participants[mapParticipants[i]] */\n      dup5\n      mstore\n        /* \"Main.sol\":2287:2299  participants */\n      0x02\n        /* \"Main.sol\":2287:2319  participants[mapParticipants[i]] */\n      dup4\n      mstore\n      swap3\n      dup2\n      swap1\n      keccak256\n        /* \"Main.sol\":2268:2319  _participants[i] = participants[mapParticipants[i]] */\n      dup2\n      mload\n      0xa0\n      dup2\n      add\n      swap1\n      swap3\n      mstore\n      dup1\n      sload\n      swap1\n      swap4\n      and\n      dup2\n      mstore\n        /* \"Main.sol\":2300:2318  mapParticipants[i] */\n      0x01\n        /* \"Main.sol\":2268:2319  _participants[i] = participants[mapParticipants[i]] */\n      dup4\n      add\n      dup1\n      sload\n      swap2\n      swap4\n        /* \"Main.sol\":2287:2319  participants[mapParticipants[i]] */\n      swap3\n        /* \"Main.sol\":2268:2319  _participants[i] = participants[mapParticipants[i]] */\n      dup5\n      add\n      swap2\n      tag_68\n      swap1\n      tag_47\n      jump\t// in\n    tag_68:\n      dup1\n      0x1f\n      add\n      0x20\n      dup1\n      swap2\n      div\n      mul\n      0x20\n      add\n      mload(0x40)\n      swap1\n      dup2\n      add\n      0x40\n      mstore\n      dup1\n      swap3\n      swap2\n      swap1\n      dup2\n      dup2\n      mstore\n      0x20\n      add\n      dup3\n      dup1\n      sload\n      tag_69\n      swap1\n      tag_47\n      jump\t// in\n    tag_69:\n      dup1\n      iszero\n      tag_70\n      jumpi\n      dup1\n      0x1f\n      lt\n      tag_71\n      jumpi\n      0x0100\n      dup1\n      dup4\n      sload\n      div\n      mul\n      dup4\n      mstore\n      swap2\n      0x20\n      add\n      swap2\n      jump(tag_70)\n    tag_71:\n      dup3\n      add\n      swap2\n      swap1\n      0x00\n      mstore\n      keccak256(0x00, 0x20)\n      swap1\n    tag_72:\n      dup2\n      sload\n      dup2\n      mstore\n      swap1\n      0x01\n      add\n      swap1\n      0x20\n      add\n      dup1\n      dup4\n      gt\n      tag_72\n      jumpi\n      dup3\n      swap1\n      sub\n      0x1f\n      and\n      dup3\n      add\n      swap2\n    tag_70:\n      pop\n      pop\n      pop\n      pop\n      pop\n      dup2\n      mstore\n      0x20\n      add\n      0x02\n      dup3\n      add\n      dup1\n      sload\n      tag_73\n      swap1\n      tag_47\n      jump\t// in\n    tag_73:\n      dup1\n      0x1f\n      add\n      0x20\n      dup1\n      swap2\n      div\n      mul\n      0x20\n      add\n      mload(0x40)\n      swap1\n      dup2\n      add\n      0x40\n      mstore\n      dup1\n      swap3\n      swap2\n      swap1\n      dup2\n      dup2\n      mstore\n      0x20\n      add\n      dup3\n      dup1\n      sload\n      tag_74\n      swap1\n      tag_47\n      jump\t// in\n    tag_74:\n      dup1\n      iszero\n      tag_75\n      jumpi\n      dup1\n      0x1f\n      lt\n      tag_76\n      jumpi\n      0x0100\n      dup1\n      dup4\n      sload\n      div\n      mul\n      dup4\n      mstore\n      swap2\n      0x20\n      add\n      swap2\n      jump(tag_75)\n    tag_76:\n      dup3\n      add\n      swap2\n      swap1\n      0x00\n      mstore\n      keccak256(0x00, 0x20)\n      swap1\n    tag_77:\n      dup2\n      sload\n      dup2\n      mstore\n      swap1\n      0x01\n      add\n      swap1\n      0x20\n      add\n      dup1\n      dup4\n      gt\n      tag_77\n      jumpi\n      dup3\n      swap1\n      sub\n      0x1f\n      and\n      dup3\n      add\n      swap2\n    tag_75:\n      pop\n      pop\n      pop\n      swap2\n      dup4\n      mstore\n      pop\n      pop\n      0x03\n      dup3\n      add\n      sload\n      0x20\n      dup3\n      add\n      mstore\n      0x04\n      swap1\n      swap2\n      add\n      sload\n      0xff\n      swap1\n      dup2\n      and\n      0x40\n      swap1\n      swap3\n      add\n      swap2\n      swap1\n      swap2\n      mstore\n        /* \"Main.sol\":2268:2284  _participants[i] */\n      dup4\n      mload\n        /* \"Main.sol\":2268:2281  _participants */\n      dup5\n      swap2\n        /* \"Main.sol\":2268:2284  _participants[i] */\n      dup5\n      and\n      swap1\n      dup2\n      lt\n      tag_79\n      jumpi\n      tag_79\n      tag_80\n      jump\t// in\n    tag_79:\n      0x20\n      mul\n      0x20\n      add\n      add\n        /* \"Main.sol\":2268:2319  _participants[i] = participants[mapParticipants[i]] */\n      dup2\n      swap1\n      mstore\n      pop\n        /* \"Main.sol\":2249:2252  i++ */\n      dup1\n      dup1\n      tag_81\n      swap1\n      tag_82\n      jump\t// in\n    tag_81:\n      swap2\n      pop\n      pop\n        /* \"Main.sol\":2206:2330  for (uint8 i = 0; i < numberOfParticipant; i++) {... */\n      jump(tag_65)\n    tag_66:\n      pop\n        /* \"Main.sol\":2347:2360  _participants */\n      swap2\n        /* \"Main.sol\":2034:2367  function getAllParticipants() public view returns (IParticipant[] memory) {... */\n      swap1\n      pop\n      jump\t// out\n        /* \"Main.sol\":1869:1999  function getParticipant(address _account) public view returns (IParticipant memory) {... */\n    tag_24:\n        /* \"Main.sol\":1932:1951  IParticipant memory */\n      tag_83\n      tag_64\n      jump\t// in\n    tag_83:\n      sub(shl(0xa0, 0x01), 0x01)\n        /* \"Main.sol\":1970:1992  participants[_account] */\n      dup1\n      dup4\n      and\n      0x00\n      swap1\n      dup2\n      mstore\n        /* \"Main.sol\":1970:1982  participants */\n      0x02\n        /* \"Main.sol\":1970:1992  participants[_account] */\n      0x20\n      swap1\n      dup2\n      mstore\n      0x40\n      swap2\n      dup3\n      swap1\n      keccak256\n        /* \"Main.sol\":1963:1992  return participants[_account] */\n      dup3\n      mload\n      0xa0\n      dup2\n      add\n      swap1\n      swap4\n      mstore\n      dup1\n      sload\n      swap1\n      swap4\n      and\n      dup3\n      mstore\n      0x01\n      dup4\n      add\n      dup1\n      sload\n      swap3\n      swap4\n        /* \"Main.sol\":1970:1992  participants[_account] */\n      swap3\n        /* \"Main.sol\":1963:1992  return participants[_account] */\n      swap2\n      dup5\n      add\n      swap2\n      tag_85\n      swap1\n      tag_47\n      jump\t// in\n    tag_85:\n      dup1\n      0x1f\n      add\n      0x20\n      dup1\n      swap2\n      div\n      mul\n      0x20\n      add\n      mload(0x40)\n      swap1\n      dup2\n      add\n      0x40\n      mstore\n      dup1\n      swap3\n      swap2\n      swap1\n      dup2\n      dup2\n      mstore\n      0x20\n      add\n      dup3\n      dup1\n      sload\n      tag_86\n      swap1\n      tag_47\n      jump\t// in\n    tag_86:\n      dup1\n      iszero\n      tag_87\n      jumpi\n      dup1\n      0x1f\n      lt\n      tag_88\n      jumpi\n      0x0100\n      dup1\n      dup4\n      sload\n      div\n      mul\n      dup4\n      mstore\n      swap2\n      0x20\n      add\n      swap2\n      jump(tag_87)\n    tag_88:\n      dup3\n      add\n      swap2\n      swap1\n      0x00\n      mstore\n      keccak256(0x00, 0x20)\n      swap1\n    tag_89:\n      dup2\n      sload\n      dup2\n      mstore\n      swap1\n      0x01\n      add\n      swap1\n      0x20\n      add\n      dup1\n      dup4\n      gt\n      tag_89\n      jumpi\n      dup3\n      swap1\n      sub\n      0x1f\n      and\n      dup3\n      add\n      swap2\n    tag_87:\n      pop\n      pop\n      pop\n      pop\n      pop\n      dup2\n      mstore\n      0x20\n      add\n      0x02\n      dup3\n      add\n      dup1\n      sload\n      tag_90\n      swap1\n      tag_47\n      jump\t// in\n    tag_90:\n      dup1\n      0x1f\n      add\n      0x20\n      dup1\n      swap2\n      div\n      mul\n      0x20\n      add\n      mload(0x40)\n      swap1\n      dup2\n      add\n      0x40\n      mstore\n      dup1\n      swap3\n      swap2\n      swap1\n      dup2\n      dup2\n      mstore\n      0x20\n      add\n      dup3\n      dup1\n      sload\n      tag_91\n      swap1\n      tag_47\n      jump\t// in\n    tag_91:\n      dup1\n      iszero\n      tag_92\n      jumpi\n      dup1\n      0x1f\n      lt\n      tag_93\n      jumpi\n      0x0100\n      dup1\n      dup4\n      sload\n      div\n      mul\n      dup4\n      mstore\n      swap2\n      0x20\n      add\n      swap2\n      jump(tag_92)\n    tag_93:\n      dup3\n      add\n      swap2\n      swap1\n      0x00\n      mstore\n      keccak256(0x00, 0x20)\n      swap1\n    tag_94:\n      dup2\n      sload\n      dup2\n      mstore\n      swap1\n      0x01\n      add\n      swap1\n      0x20\n      add\n      dup1\n      dup4\n      gt\n      tag_94\n      jumpi\n      dup3\n      swap1\n      sub\n      0x1f\n      and\n      dup3\n      add\n      swap2\n    tag_92:\n      pop\n      pop\n      pop\n      swap2\n      dup4\n      mstore\n      pop\n      pop\n      0x03\n      dup3\n      add\n      sload\n      0x20\n      dup3\n      add\n      mstore\n      0x04\n      swap1\n      swap2\n      add\n      sload\n      0xff\n      and\n      0x40\n      swap1\n      swap2\n      add\n      mstore\n      swap3\n        /* \"Main.sol\":1869:1999  function getParticipant(address _account) public view returns (IParticipant memory) {... */\n      swap2\n      pop\n      pop\n      jump\t// out\n        /* \"Main.sol\":455:480  address[] public sessions */\n    tag_30:\n      0x01\n      dup2\n      dup2\n      sload\n      dup2\n      lt\n      tag_95\n      jumpi\n      0x00\n      dup1\n      revert\n    tag_95:\n      0x00\n      swap2\n      dup3\n      mstore\n      0x20\n      swap1\n      swap2\n      keccak256\n      add\n      sload\n      sub(shl(0xa0, 0x01), 0x01)\n      and\n      swap1\n      pop\n      dup2\n      jump\t// out\n        /* \"Main.sol\":1551:1828  function updateParticipant(address _account, string memory _fullName, string memory _email) public onlyAdmin {... */\n    tag_36:\n        /* \"Main.sol\":2463:2468  admin */\n      and(sub(shl(0xa0, 0x01), 0x01), sload(0x00))\n        /* \"Main.sol\":2449:2459  msg.sender */\n      caller\n        /* \"Main.sol\":2449:2468  msg.sender == admin */\n      eq\n        /* \"Main.sol\":2441:2507  require(msg.sender == admin, \"Only admin can call this function!\") */\n      tag_98\n      jumpi\n      mload(0x40)\n      shl(0xe5, 0x461bcd)\n      dup2\n      mstore\n      0x04\n      add\n      tag_99\n      swap1\n      tag_100\n      jump\t// in\n    tag_99:\n      mload(0x40)\n      dup1\n      swap2\n      sub\n      swap1\n      revert\n    tag_98:\n      sub(shl(0xa0, 0x01), 0x01)\n        /* \"Main.sol\":1670:1692  participants[_account] */\n      dup4\n      and\n      0x00\n      swap1\n      dup2\n      mstore\n        /* \"Main.sol\":1670:1682  participants */\n      0x02\n        /* \"Main.sol\":1670:1692  participants[_account] */\n      0x20\n      mstore\n      0x40\n      swap1\n      keccak256\n        /* \"Main.sol\":1670:1701  participants[_account].fullName */\n      0x01\n      add\n        /* \"Main.sol\":1670:1713  participants[_account].fullName = _fullName */\n      tag_102\n        /* \"Main.sol\":1704:1713  _fullName */\n      dup4\n        /* \"Main.sol\":1670:1701  participants[_account].fullName */\n      dup3\n        /* \"Main.sol\":1670:1713  participants[_account].fullName = _fullName */\n      tag_103\n      jump\t// in\n    tag_102:\n      pop\n      sub(shl(0xa0, 0x01), 0x01)\n        /* \"Main.sol\":1723:1745  participants[_account] */\n      dup4\n      and\n      0x00\n      swap1\n      dup2\n      mstore\n        /* \"Main.sol\":1723:1735  participants */\n      0x02\n        /* \"Main.sol\":1723:1745  participants[_account] */\n      0x20\n      dup2\n      swap1\n      mstore\n      0x40\n      swap1\n      swap2\n      keccak256\n        /* \"Main.sol\":1723:1751  participants[_account].email */\n      add\n        /* \"Main.sol\":1723:1760  participants[_account].email = _email */\n      tag_104\n        /* \"Main.sol\":1754:1760  _email */\n      dup3\n        /* \"Main.sol\":1723:1751  participants[_account].email */\n      dup3\n        /* \"Main.sol\":1723:1760  participants[_account].email = _email */\n      tag_103\n      jump\t// in\n    tag_104:\n      pop\n        /* \"Main.sol\":1775:1821  UpdateParticipant(_account, _fullName, _email) */\n      0x3bc63a1a560da32e0aab62ddb386a3bbfb7ac6d4531d5dd65fb1505a16a784b4\n        /* \"Main.sol\":1793:1801  _account */\n      dup4\n        /* \"Main.sol\":1803:1812  _fullName */\n      dup4\n        /* \"Main.sol\":1814:1820  _email */\n      dup4\n        /* \"Main.sol\":1775:1821  UpdateParticipant(_account, _fullName, _email) */\n      mload(0x40)\n      tag_105\n      swap4\n      swap3\n      swap2\n      swap1\n      tag_106\n      jump\t// in\n    tag_105:\n      mload(0x40)\n      dup1\n      swap2\n      sub\n      swap1\n      log1\n        /* \"Main.sol\":1551:1828  function updateParticipant(address _account, string memory _fullName, string memory _email) public onlyAdmin {... */\n      pop\n      pop\n      pop\n      jump\t// out\n        /* \"Main.sol\":1195:1518  function addParticipant(address _account) public onlyAdmin onlyInNumberOfRangeParticipant {... */\n    tag_39:\n        /* \"Main.sol\":2463:2468  admin */\n      and(sub(shl(0xa0, 0x01), 0x01), sload(0x00))\n        /* \"Main.sol\":2449:2459  msg.sender */\n      caller\n        /* \"Main.sol\":2449:2468  msg.sender == admin */\n      eq\n        /* \"Main.sol\":2441:2507  require(msg.sender == admin, \"Only admin can call this function!\") */\n      tag_108\n      jumpi\n      mload(0x40)\n      shl(0xe5, 0x461bcd)\n      dup2\n      mstore\n      0x04\n      add\n      tag_99\n      swap1\n      tag_100\n      jump\t// in\n    tag_108:\n        /* \"Main.sol\":2670:2682  numberOfUser */\n      sload(0x00)\n        /* \"Main.sol\":2648:2667  numberOfParticipant */\n      sload(0x04)\n        /* \"Main.sol\":2670:2682  numberOfUser */\n      0xff\n      shl(0xa0, 0x01)\n      swap1\n      swap3\n      div\n      dup3\n      and\n        /* \"Main.sol\":2648:2667  numberOfParticipant */\n      swap2\n      and\n        /* \"Main.sol\":2648:2682  numberOfParticipant < numberOfUser */\n      lt\n        /* \"Main.sol\":2640:2708  require(numberOfParticipant < numberOfUser, \"Only create 10 users!\") */\n      tag_111\n      jumpi\n      mload(0x40)\n      shl(0xe5, 0x461bcd)\n      dup2\n      mstore\n        /* \"#utility.yul\":9142:9144   */\n      0x20\n        /* \"Main.sol\":2640:2708  require(numberOfParticipant < numberOfUser, \"Only create 10 users!\") */\n      0x04\n      dup3\n      add\n        /* \"#utility.yul\":9124:9145   */\n      mstore\n        /* \"#utility.yul\":9181:9183   */\n      0x15\n        /* \"#utility.yul\":9161:9179   */\n      0x24\n      dup3\n      add\n        /* \"#utility.yul\":9154:9184   */\n      mstore\n      shl(0x58, 0x4f6e6c792063726561746520313020757365727321)\n        /* \"#utility.yul\":9200:9218   */\n      0x44\n      dup3\n      add\n        /* \"#utility.yul\":9193:9244   */\n      mstore\n        /* \"#utility.yul\":9261:9279   */\n      0x64\n      add\n        /* \"Main.sol\":2640:2708  require(numberOfParticipant < numberOfUser, \"Only create 10 users!\") */\n      tag_99\n        /* \"#utility.yul\":8940:9285   */\n      jump\n        /* \"Main.sol\":2640:2708  require(numberOfParticipant < numberOfUser, \"Only create 10 users!\") */\n    tag_111:\n        /* \"Main.sol\":1320:1356  IParticipant(_account, \"\", \"\", 0, 0) */\n      0x40\n      dup1\n      mload\n      0xa0\n      dup2\n      add\n      dup3\n      mstore\n      sub(shl(0xa0, 0x01), 0x01)\n      dup4\n      dup2\n      and\n      dup1\n      dup4\n      mstore\n      dup4\n      mload\n      0x20\n      dup1\n      dup3\n      add\n      dup7\n      mstore\n      0x00\n      dup1\n      dup4\n      mstore\n      dup2\n      dup7\n      add\n      swap3\n      dup4\n      mstore\n      dup7\n      mload\n      dup1\n      dup4\n      add\n      dup9\n      mstore\n      dup2\n      dup2\n      mstore\n      dup7\n      dup9\n      add\n      mstore\n      0x60\n      dup7\n      add\n      dup2\n      swap1\n      mstore\n      0x80\n      dup7\n      add\n      dup2\n      swap1\n      mstore\n        /* \"Main.sol\":1295:1317  participants[_account] */\n      swap3\n      dup4\n      mstore\n        /* \"Main.sol\":1295:1307  participants */\n      0x02\n        /* \"Main.sol\":1295:1317  participants[_account] */\n      swap1\n      mstore\n      swap4\n      swap1\n      keccak256\n        /* \"Main.sol\":1295:1356  participants[_account] = IParticipant(_account, \"\", \"\", 0, 0) */\n      dup3\n      mload\n      dup2\n      sload\n      not(sub(shl(0xa0, 0x01), 0x01))\n      and\n      swap3\n      and\n      swap2\n      swap1\n      swap2\n      or\n      dup2\n      sstore\n      swap2\n      mload\n        /* \"Main.sol\":1320:1356  IParticipant(_account, \"\", \"\", 0, 0) */\n      swap1\n      swap2\n        /* \"Main.sol\":1295:1317  participants[_account] */\n      swap1\n      0x01\n        /* \"Main.sol\":1295:1356  participants[_account] = IParticipant(_account, \"\", \"\", 0, 0) */\n      dup3\n      add\n      swap1\n      tag_115\n      swap1\n      dup3\n      tag_103\n      jump\t// in\n    tag_115:\n      pop\n      0x40\n      dup3\n      add\n      mload\n      0x02\n      dup3\n      add\n      swap1\n      tag_116\n      swap1\n      dup3\n      tag_103\n      jump\t// in\n    tag_116:\n      pop\n      0x60\n      dup3\n      add\n      mload\n      0x03\n      dup3\n      dup2\n      add\n      swap2\n      swap1\n      swap2\n      sstore\n      0x80\n      swap1\n      swap3\n      add\n      mload\n      0x04\n      swap2\n      dup3\n      add\n      dup1\n      sload\n      not(0xff)\n      and\n      0xff\n      swap3\n      dup4\n      and\n      or\n      swap1\n      sstore\n        /* \"Main.sol\":1382:1401  numberOfParticipant */\n      dup2\n      sload\n      dup2\n      and\n      0x00\n        /* \"Main.sol\":1366:1402  mapParticipants[numberOfParticipant] */\n      swap1\n      dup2\n      mstore\n      0x20\n      swap4\n      swap1\n      swap4\n      mstore\n      0x40\n      dup4\n      keccak256\n        /* \"Main.sol\":1366:1413  mapParticipants[numberOfParticipant] = _account */\n      dup1\n      sload\n      not(sub(shl(0xa0, 0x01), 0x01))\n      and\n      sub(shl(0xa0, 0x01), 0x01)\n      dup7\n      and\n      or\n      swap1\n      sstore\n        /* \"Main.sol\":1423:1444  numberOfParticipant++ */\n      dup2\n      sload\n      and\n      swap2\n      tag_117\n      dup4\n      tag_82\n      jump\t// in\n    tag_117:\n      swap2\n      swap1\n      0x0100\n      exp\n      dup2\n      sload\n      dup2\n      0xff\n      mul\n      not\n      and\n      swap1\n      dup4\n      0xff\n      and\n      mul\n      or\n      swap1\n      sstore\n      pop\n      pop\n        /* \"Main.sol\":1459:1511  AddParticipant(_account, \"Add participant success!\") */\n      0x7a274ad5ebae6fdc80650d34a4e01c874e099afaca3b6e8c896edc5b9126651b\n        /* \"Main.sol\":1474:1482  _account */\n      dup2\n        /* \"Main.sol\":1459:1511  AddParticipant(_account, \"Add participant success!\") */\n      mload(0x40)\n      tag_118\n      swap2\n      swap1\n      sub(shl(0xa0, 0x01), 0x01)\n        /* \"#utility.yul\":9520:9552   */\n      swap2\n      swap1\n      swap2\n      and\n        /* \"#utility.yul\":9502:9553   */\n      dup2\n      mstore\n        /* \"#utility.yul\":9589:9591   */\n      0x40\n        /* \"#utility.yul\":9584:9586   */\n      0x20\n        /* \"#utility.yul\":9569:9587   */\n      dup3\n      add\n        /* \"#utility.yul\":9562:9592   */\n      dup2\n      swap1\n      mstore\n        /* \"#utility.yul\":9628:9630   */\n      0x18\n        /* \"#utility.yul\":9608:9626   */\n      swap1\n      dup3\n      add\n        /* \"#utility.yul\":9601:9631   */\n      mstore\n        /* \"#utility.yul\":9667:9693   */\n      0x416464207061727469636970616e742073756363657373210000000000000000\n        /* \"#utility.yul\":9662:9664   */\n      0x60\n        /* \"#utility.yul\":9647:9665   */\n      dup3\n      add\n        /* \"#utility.yul\":9640:9694   */\n      mstore\n        /* \"#utility.yul\":9726:9729   */\n      0x80\n        /* \"#utility.yul\":9711:9730   */\n      add\n      swap1\n        /* \"#utility.yul\":9290:9736   */\n      jump\n        /* \"Main.sol\":1459:1511  AddParticipant(_account, \"Add participant success!\") */\n    tag_118:\n      mload(0x40)\n      dup1\n      swap2\n      sub\n      swap1\n      log1\n        /* \"Main.sol\":1195:1518  function addParticipant(address _account) public onlyAdmin onlyInNumberOfRangeParticipant {... */\n      pop\n      jump\t// out\n        /* \"Main.sol\":874:1141  function addSession(address session) public onlyAdmin {... */\n    tag_42:\n        /* \"Main.sol\":2463:2468  admin */\n      and(sub(shl(0xa0, 0x01), 0x01), sload(0x00))\n        /* \"Main.sol\":2449:2459  msg.sender */\n      caller\n        /* \"Main.sol\":2449:2468  msg.sender == admin */\n      eq\n        /* \"Main.sol\":2441:2507  require(msg.sender == admin, \"Only admin can call this function!\") */\n      tag_121\n      jumpi\n      mload(0x40)\n      shl(0xe5, 0x461bcd)\n      dup2\n      mstore\n      0x04\n      add\n      tag_99\n      swap1\n      tag_100\n      jump\t// in\n    tag_121:\n        /* \"Main.sol\":1100:1108  sessions */\n      0x01\n        /* \"Main.sol\":1100:1134  sessions.push(address(newSession)) */\n      dup1\n      sload\n      dup1\n      dup3\n      add\n      dup3\n      sstore\n      0x00\n      swap2\n      swap1\n      swap2\n      mstore\n      0xb10e2d527612073b26eecdfd717e6a320cf44b4afac2b0732d9fcbe2b7fa0cf6\n      add\n      dup1\n      sload\n      not(sub(shl(0xa0, 0x01), 0x01))\n      and\n      sub(shl(0xa0, 0x01), 0x01)\n      swap3\n      swap1\n      swap3\n      and\n      swap2\n      swap1\n      swap2\n      or\n      swap1\n      sstore\n        /* \"Main.sol\":874:1141  function addSession(address session) public onlyAdmin {... */\n      jump\t// out\n    tag_64:\n      mload(0x40)\n      dup1\n      0xa0\n      add\n      0x40\n      mstore\n      dup1\n      and(sub(shl(0xa0, 0x01), 0x01), 0x00)\n      dup2\n      mstore\n      0x20\n      add\n      0x60\n      dup2\n      mstore\n      0x20\n      add\n      0x60\n      dup2\n      mstore\n      0x20\n      add\n      0x00\n      dup2\n      mstore\n      0x20\n      add\n      and(0xff, 0x00)\n      dup2\n      mstore\n      pop\n      swap1\n      jump\t// out\n        /* \"#utility.yul\":14:187   */\n    tag_125:\n        /* \"#utility.yul\":82:102   */\n      dup1\n      calldataload\n      sub(shl(0xa0, 0x01), 0x01)\n        /* \"#utility.yul\":131:162   */\n      dup2\n      and\n        /* \"#utility.yul\":121:163   */\n      dup2\n      eq\n        /* \"#utility.yul\":111:181   */\n      tag_134\n      jumpi\n        /* \"#utility.yul\":177:178   */\n      0x00\n        /* \"#utility.yul\":174:175   */\n      dup1\n        /* \"#utility.yul\":167:179   */\n      revert\n        /* \"#utility.yul\":111:181   */\n    tag_134:\n        /* \"#utility.yul\":14:187   */\n      swap2\n      swap1\n      pop\n      jump\t// out\n        /* \"#utility.yul\":192:378   */\n    tag_14:\n        /* \"#utility.yul\":251:257   */\n      0x00\n        /* \"#utility.yul\":304:306   */\n      0x20\n        /* \"#utility.yul\":292:301   */\n      dup3\n        /* \"#utility.yul\":283:290   */\n      dup5\n        /* \"#utility.yul\":279:302   */\n      sub\n        /* \"#utility.yul\":275:307   */\n      slt\n        /* \"#utility.yul\":272:324   */\n      iszero\n      tag_136\n      jumpi\n        /* \"#utility.yul\":320:321   */\n      0x00\n        /* \"#utility.yul\":317:318   */\n      dup1\n        /* \"#utility.yul\":310:322   */\n      revert\n        /* \"#utility.yul\":272:324   */\n    tag_136:\n        /* \"#utility.yul\":343:372   */\n      tag_137\n        /* \"#utility.yul\":362:371   */\n      dup3\n        /* \"#utility.yul\":343:372   */\n      tag_125\n      jump\t// in\n    tag_137:\n        /* \"#utility.yul\":333:372   */\n      swap4\n        /* \"#utility.yul\":192:378   */\n      swap3\n      pop\n      pop\n      pop\n      jump\t// out\n        /* \"#utility.yul\":383:806   */\n    tag_126:\n        /* \"#utility.yul\":425:428   */\n      0x00\n        /* \"#utility.yul\":463:468   */\n      dup2\n        /* \"#utility.yul\":457:469   */\n      mload\n        /* \"#utility.yul\":490:496   */\n      dup1\n        /* \"#utility.yul\":485:488   */\n      dup5\n        /* \"#utility.yul\":478:497   */\n      mstore\n        /* \"#utility.yul\":515:516   */\n      0x00\n        /* \"#utility.yul\":525:687   */\n    tag_139:\n        /* \"#utility.yul\":539:545   */\n      dup2\n        /* \"#utility.yul\":536:537   */\n      dup2\n        /* \"#utility.yul\":533:546   */\n      lt\n        /* \"#utility.yul\":525:687   */\n      iszero\n      tag_141\n      jumpi\n        /* \"#utility.yul\":601:605   */\n      0x20\n        /* \"#utility.yul\":657:670   */\n      dup2\n      dup6\n      add\n        /* \"#utility.yul\":653:675   */\n      dup2\n      add\n        /* \"#utility.yul\":647:676   */\n      mload\n        /* \"#utility.yul\":629:640   */\n      dup7\n      dup4\n      add\n        /* \"#utility.yul\":625:645   */\n      dup3\n      add\n        /* \"#utility.yul\":618:677   */\n      mstore\n        /* \"#utility.yul\":554:566   */\n      add\n        /* \"#utility.yul\":525:687   */\n      jump(tag_139)\n    tag_141:\n        /* \"#utility.yul\":529:532   */\n      pop\n        /* \"#utility.yul\":732:733   */\n      0x00\n        /* \"#utility.yul\":725:729   */\n      0x20\n        /* \"#utility.yul\":716:722   */\n      dup3\n        /* \"#utility.yul\":711:714   */\n      dup7\n        /* \"#utility.yul\":707:723   */\n      add\n        /* \"#utility.yul\":703:730   */\n      add\n        /* \"#utility.yul\":696:734   */\n      mstore\n        /* \"#utility.yul\":795:799   */\n      0x20\n        /* \"#utility.yul\":788:790   */\n      0x1f\n        /* \"#utility.yul\":784:791   */\n      not\n        /* \"#utility.yul\":779:781   */\n      0x1f\n        /* \"#utility.yul\":771:777   */\n      dup4\n        /* \"#utility.yul\":767:782   */\n      add\n        /* \"#utility.yul\":763:792   */\n      and\n        /* \"#utility.yul\":758:761   */\n      dup6\n        /* \"#utility.yul\":754:793   */\n      add\n        /* \"#utility.yul\":750:800   */\n      add\n        /* \"#utility.yul\":743:800   */\n      swap2\n      pop\n      pop\n        /* \"#utility.yul\":383:806   */\n      swap3\n      swap2\n      pop\n      pop\n      jump\t// out\n        /* \"#utility.yul\":811:1443   */\n    tag_17:\n      sub(shl(0xa0, 0x01), 0x01)\n        /* \"#utility.yul\":1088:1120   */\n      dup7\n      and\n        /* \"#utility.yul\":1070:1121   */\n      dup2\n      mstore\n        /* \"#utility.yul\":1108:1111   */\n      0xa0\n        /* \"#utility.yul\":1152:1154   */\n      0x20\n        /* \"#utility.yul\":1137:1155   */\n      dup3\n      add\n        /* \"#utility.yul\":1130:1161   */\n      dup2\n      swap1\n      mstore\n      0x00\n      swap1\n        /* \"#utility.yul\":1184:1230   */\n      tag_143\n      swap1\n        /* \"#utility.yul\":1210:1229   */\n      dup4\n      add\n        /* \"#utility.yul\":1202:1208   */\n      dup8\n        /* \"#utility.yul\":1184:1230   */\n      tag_126\n      jump\t// in\n    tag_143:\n        /* \"#utility.yul\":1278:1287   */\n      dup3\n        /* \"#utility.yul\":1270:1276   */\n      dup2\n        /* \"#utility.yul\":1266:1288   */\n      sub\n        /* \"#utility.yul\":1261:1263   */\n      0x40\n        /* \"#utility.yul\":1250:1259   */\n      dup5\n        /* \"#utility.yul\":1246:1264   */\n      add\n        /* \"#utility.yul\":1239:1289   */\n      mstore\n        /* \"#utility.yul\":1306:1339   */\n      tag_144\n        /* \"#utility.yul\":1332:1338   */\n      dup2\n        /* \"#utility.yul\":1324:1330   */\n      dup8\n        /* \"#utility.yul\":1306:1339   */\n      tag_126\n      jump\t// in\n    tag_144:\n        /* \"#utility.yul\":1298:1339   */\n      swap2\n      pop\n      pop\n        /* \"#utility.yul\":1375:1381   */\n      dup4\n        /* \"#utility.yul\":1370:1372   */\n      0x60\n        /* \"#utility.yul\":1359:1368   */\n      dup4\n        /* \"#utility.yul\":1355:1373   */\n      add\n        /* \"#utility.yul\":1348:1382   */\n      mstore\n        /* \"#utility.yul\":1431:1435   */\n      0xff\n        /* \"#utility.yul\":1423:1429   */\n      dup4\n        /* \"#utility.yul\":1419:1436   */\n      and\n        /* \"#utility.yul\":1413:1416   */\n      0x80\n        /* \"#utility.yul\":1402:1411   */\n      dup4\n        /* \"#utility.yul\":1398:1417   */\n      add\n        /* \"#utility.yul\":1391:1437   */\n      mstore\n        /* \"#utility.yul\":811:1443   */\n      swap7\n      swap6\n      pop\n      pop\n      pop\n      pop\n      pop\n      pop\n      jump\t// out\n        /* \"#utility.yul\":1448:2043   */\n    tag_127:\n        /* \"#utility.yul\":1568:1569   */\n      0x01\n        /* \"#utility.yul\":1564:1565   */\n      dup1\n        /* \"#utility.yul\":1559:1562   */\n      0xa0\n        /* \"#utility.yul\":1555:1566   */\n      shl\n        /* \"#utility.yul\":1551:1570   */\n      sub\n        /* \"#utility.yul\":1543:1548   */\n      dup2\n        /* \"#utility.yul\":1537:1549   */\n      mload\n        /* \"#utility.yul\":1533:1571   */\n      and\n        /* \"#utility.yul\":1528:1531   */\n      dup3\n        /* \"#utility.yul\":1521:1572   */\n      mstore\n        /* \"#utility.yul\":1503:1506   */\n      0x00\n        /* \"#utility.yul\":1618:1622   */\n      0x20\n        /* \"#utility.yul\":1611:1616   */\n      dup3\n        /* \"#utility.yul\":1607:1623   */\n      add\n        /* \"#utility.yul\":1601:1624   */\n      mload\n        /* \"#utility.yul\":1656:1660   */\n      0xa0\n        /* \"#utility.yul\":1649:1653   */\n      0x20\n        /* \"#utility.yul\":1644:1647   */\n      dup6\n        /* \"#utility.yul\":1640:1654   */\n      add\n        /* \"#utility.yul\":1633:1661   */\n      mstore\n        /* \"#utility.yul\":1682:1729   */\n      tag_146\n        /* \"#utility.yul\":1723:1727   */\n      0xa0\n        /* \"#utility.yul\":1718:1721   */\n      dup6\n        /* \"#utility.yul\":1714:1728   */\n      add\n        /* \"#utility.yul\":1700:1712   */\n      dup3\n        /* \"#utility.yul\":1682:1729   */\n      tag_126\n      jump\t// in\n    tag_146:\n        /* \"#utility.yul\":1670:1729   */\n      swap1\n      pop\n        /* \"#utility.yul\":1777:1781   */\n      0x40\n        /* \"#utility.yul\":1770:1775   */\n      dup4\n        /* \"#utility.yul\":1766:1782   */\n      add\n        /* \"#utility.yul\":1760:1783   */\n      mload\n        /* \"#utility.yul\":1825:1828   */\n      dup5\n        /* \"#utility.yul\":1819:1823   */\n      dup3\n        /* \"#utility.yul\":1815:1829   */\n      sub\n        /* \"#utility.yul\":1808:1812   */\n      0x40\n        /* \"#utility.yul\":1803:1806   */\n      dup7\n        /* \"#utility.yul\":1799:1813   */\n      add\n        /* \"#utility.yul\":1792:1830   */\n      mstore\n        /* \"#utility.yul\":1853:1892   */\n      tag_147\n        /* \"#utility.yul\":1887:1891   */\n      dup3\n        /* \"#utility.yul\":1871:1885   */\n      dup3\n        /* \"#utility.yul\":1853:1892   */\n      tag_126\n      jump\t// in\n    tag_147:\n        /* \"#utility.yul\":1839:1892   */\n      swap2\n      pop\n      pop\n        /* \"#utility.yul\":1941:1945   */\n      0x60\n        /* \"#utility.yul\":1934:1939   */\n      dup4\n        /* \"#utility.yul\":1930:1946   */\n      add\n        /* \"#utility.yul\":1924:1947   */\n      mload\n        /* \"#utility.yul\":1917:1921   */\n      0x60\n        /* \"#utility.yul\":1912:1915   */\n      dup6\n        /* \"#utility.yul\":1908:1922   */\n      add\n        /* \"#utility.yul\":1901:1948   */\n      mstore\n        /* \"#utility.yul\":2009:2013   */\n      0xff\n        /* \"#utility.yul\":2001:2005   */\n      0x80\n        /* \"#utility.yul\":1994:1999   */\n      dup5\n        /* \"#utility.yul\":1990:2006   */\n      add\n        /* \"#utility.yul\":1984:2007   */\n      mload\n        /* \"#utility.yul\":1980:2014   */\n      and\n        /* \"#utility.yul\":1973:1977   */\n      0x80\n        /* \"#utility.yul\":1968:1971   */\n      dup6\n        /* \"#utility.yul\":1964:1978   */\n      add\n        /* \"#utility.yul\":1957:2015   */\n      mstore\n        /* \"#utility.yul\":2031:2037   */\n      dup1\n        /* \"#utility.yul\":2024:2037   */\n      swap2\n      pop\n      pop\n        /* \"#utility.yul\":1448:2043   */\n      swap3\n      swap2\n      pop\n      pop\n      jump\t// out\n        /* \"#utility.yul\":2048:2902   */\n    tag_21:\n        /* \"#utility.yul\":2248:2252   */\n      0x00\n        /* \"#utility.yul\":2277:2279   */\n      0x20\n        /* \"#utility.yul\":2317:2319   */\n      dup1\n        /* \"#utility.yul\":2306:2315   */\n      dup4\n        /* \"#utility.yul\":2302:2320   */\n      add\n        /* \"#utility.yul\":2347:2349   */\n      dup2\n        /* \"#utility.yul\":2336:2345   */\n      dup5\n        /* \"#utility.yul\":2329:2350   */\n      mstore\n        /* \"#utility.yul\":2370:2376   */\n      dup1\n        /* \"#utility.yul\":2405:2411   */\n      dup6\n        /* \"#utility.yul\":2399:2412   */\n      mload\n        /* \"#utility.yul\":2436:2442   */\n      dup1\n        /* \"#utility.yul\":2428:2434   */\n      dup4\n        /* \"#utility.yul\":2421:2443   */\n      mstore\n        /* \"#utility.yul\":2474:2476   */\n      0x40\n        /* \"#utility.yul\":2463:2472   */\n      dup7\n        /* \"#utility.yul\":2459:2477   */\n      add\n        /* \"#utility.yul\":2452:2477   */\n      swap2\n      pop\n        /* \"#utility.yul\":2536:2538   */\n      0x40\n        /* \"#utility.yul\":2526:2532   */\n      dup2\n        /* \"#utility.yul\":2523:2524   */\n      0x05\n        /* \"#utility.yul\":2519:2533   */\n      shl\n        /* \"#utility.yul\":2508:2517   */\n      dup8\n        /* \"#utility.yul\":2504:2534   */\n      add\n        /* \"#utility.yul\":2500:2539   */\n      add\n        /* \"#utility.yul\":2486:2539   */\n      swap3\n      pop\n        /* \"#utility.yul\":2574:2576   */\n      dup4\n        /* \"#utility.yul\":2566:2572   */\n      dup8\n        /* \"#utility.yul\":2562:2577   */\n      add\n        /* \"#utility.yul\":2595:2596   */\n      0x00\n        /* \"#utility.yul\":2605:2873   */\n    tag_149:\n        /* \"#utility.yul\":2619:2625   */\n      dup3\n        /* \"#utility.yul\":2616:2617   */\n      dup2\n        /* \"#utility.yul\":2613:2626   */\n      lt\n        /* \"#utility.yul\":2605:2873   */\n      iszero\n      tag_151\n      jumpi\n        /* \"#utility.yul\":2712:2714   */\n      0x3f\n        /* \"#utility.yul\":2708:2715   */\n      not\n        /* \"#utility.yul\":2696:2705   */\n      dup9\n        /* \"#utility.yul\":2688:2694   */\n      dup7\n        /* \"#utility.yul\":2684:2706   */\n      sub\n        /* \"#utility.yul\":2680:2716   */\n      add\n        /* \"#utility.yul\":2675:2678   */\n      dup5\n        /* \"#utility.yul\":2668:2717   */\n      mstore\n        /* \"#utility.yul\":2740:2793   */\n      tag_152\n        /* \"#utility.yul\":2786:2792   */\n      dup6\n        /* \"#utility.yul\":2777:2783   */\n      dup4\n        /* \"#utility.yul\":2771:2784   */\n      mload\n        /* \"#utility.yul\":2740:2793   */\n      tag_127\n      jump\t// in\n    tag_152:\n        /* \"#utility.yul\":2730:2793   */\n      swap5\n      pop\n        /* \"#utility.yul\":2851:2863   */\n      swap3\n      dup6\n      add\n      swap3\n        /* \"#utility.yul\":2816:2831   */\n      swap1\n      dup6\n      add\n      swap1\n        /* \"#utility.yul\":2641:2642   */\n      0x01\n        /* \"#utility.yul\":2634:2643   */\n      add\n        /* \"#utility.yul\":2605:2873   */\n      jump(tag_149)\n    tag_151:\n      pop\n        /* \"#utility.yul\":2890:2896   */\n      swap3\n      swap8\n        /* \"#utility.yul\":2048:2902   */\n      swap7\n      pop\n      pop\n      pop\n      pop\n      pop\n      pop\n      pop\n      jump\t// out\n        /* \"#utility.yul\":2907:3178   */\n    tag_26:\n        /* \"#utility.yul\":3094:3096   */\n      0x20\n        /* \"#utility.yul\":3083:3092   */\n      dup2\n        /* \"#utility.yul\":3076:3097   */\n      mstore\n        /* \"#utility.yul\":3057:3061   */\n      0x00\n        /* \"#utility.yul\":3114:3172   */\n      tag_137\n        /* \"#utility.yul\":3168:3170   */\n      0x20\n        /* \"#utility.yul\":3157:3166   */\n      dup4\n        /* \"#utility.yul\":3153:3171   */\n      add\n        /* \"#utility.yul\":3145:3151   */\n      dup5\n        /* \"#utility.yul\":3114:3172   */\n      tag_127\n      jump\t// in\n        /* \"#utility.yul\":3183:3363   */\n    tag_29:\n        /* \"#utility.yul\":3242:3248   */\n      0x00\n        /* \"#utility.yul\":3295:3297   */\n      0x20\n        /* \"#utility.yul\":3283:3292   */\n      dup3\n        /* \"#utility.yul\":3274:3281   */\n      dup5\n        /* \"#utility.yul\":3270:3293   */\n      sub\n        /* \"#utility.yul\":3266:3298   */\n      slt\n        /* \"#utility.yul\":3263:3315   */\n      iszero\n      tag_156\n      jumpi\n        /* \"#utility.yul\":3311:3312   */\n      0x00\n        /* \"#utility.yul\":3308:3309   */\n      dup1\n        /* \"#utility.yul\":3301:3313   */\n      revert\n        /* \"#utility.yul\":3263:3315   */\n    tag_156:\n      pop\n        /* \"#utility.yul\":3334:3357   */\n      calldataload\n      swap2\n        /* \"#utility.yul\":3183:3363   */\n      swap1\n      pop\n      jump\t// out\n        /* \"#utility.yul\":3576:3703   */\n    tag_60:\n        /* \"#utility.yul\":3637:3647   */\n      0x4e487b71\n        /* \"#utility.yul\":3632:3635   */\n      0xe0\n        /* \"#utility.yul\":3628:3648   */\n      shl\n        /* \"#utility.yul\":3625:3626   */\n      0x00\n        /* \"#utility.yul\":3618:3649   */\n      mstore\n        /* \"#utility.yul\":3668:3672   */\n      0x41\n        /* \"#utility.yul\":3665:3666   */\n      0x04\n        /* \"#utility.yul\":3658:3673   */\n      mstore\n        /* \"#utility.yul\":3692:3696   */\n      0x24\n        /* \"#utility.yul\":3689:3690   */\n      0x00\n        /* \"#utility.yul\":3682:3697   */\n      revert\n        /* \"#utility.yul\":3708:4427   */\n    tag_128:\n        /* \"#utility.yul\":3751:3756   */\n      0x00\n        /* \"#utility.yul\":3804:3807   */\n      dup3\n        /* \"#utility.yul\":3797:3801   */\n      0x1f\n        /* \"#utility.yul\":3789:3795   */\n      dup4\n        /* \"#utility.yul\":3785:3802   */\n      add\n        /* \"#utility.yul\":3781:3808   */\n      slt\n        /* \"#utility.yul\":3771:3826   */\n      tag_160\n      jumpi\n        /* \"#utility.yul\":3822:3823   */\n      0x00\n        /* \"#utility.yul\":3819:3820   */\n      dup1\n        /* \"#utility.yul\":3812:3824   */\n      revert\n        /* \"#utility.yul\":3771:3826   */\n    tag_160:\n        /* \"#utility.yul\":3858:3864   */\n      dup2\n        /* \"#utility.yul\":3845:3865   */\n      calldataload\n        /* \"#utility.yul\":3884:3902   */\n      0xffffffffffffffff\n        /* \"#utility.yul\":3921:3923   */\n      dup1\n        /* \"#utility.yul\":3917:3919   */\n      dup3\n        /* \"#utility.yul\":3914:3924   */\n      gt\n        /* \"#utility.yul\":3911:3947   */\n      iszero\n      tag_162\n      jumpi\n        /* \"#utility.yul\":3927:3945   */\n      tag_162\n      tag_60\n      jump\t// in\n    tag_162:\n        /* \"#utility.yul\":4002:4004   */\n      0x40\n        /* \"#utility.yul\":3996:4005   */\n      mload\n        /* \"#utility.yul\":3970:3972   */\n      0x1f\n        /* \"#utility.yul\":4056:4069   */\n      dup4\n      add\n      not(0x1f)\n        /* \"#utility.yul\":4052:4074   */\n      swap1\n      dup2\n      and\n        /* \"#utility.yul\":4076:4078   */\n      0x3f\n        /* \"#utility.yul\":4048:4079   */\n      add\n        /* \"#utility.yul\":4044:4084   */\n      and\n        /* \"#utility.yul\":4032:4085   */\n      dup2\n      add\n      swap1\n        /* \"#utility.yul\":4100:4118   */\n      dup3\n      dup3\n      gt\n        /* \"#utility.yul\":4120:4142   */\n      dup2\n      dup4\n      lt\n        /* \"#utility.yul\":4097:4143   */\n      or\n        /* \"#utility.yul\":4094:4166   */\n      iszero\n      tag_164\n      jumpi\n        /* \"#utility.yul\":4146:4164   */\n      tag_164\n      tag_60\n      jump\t// in\n    tag_164:\n        /* \"#utility.yul\":4186:4196   */\n      dup2\n        /* \"#utility.yul\":4182:4184   */\n      0x40\n        /* \"#utility.yul\":4175:4197   */\n      mstore\n        /* \"#utility.yul\":4221:4223   */\n      dup4\n        /* \"#utility.yul\":4213:4219   */\n      dup2\n        /* \"#utility.yul\":4206:4224   */\n      mstore\n        /* \"#utility.yul\":4267:4270   */\n      dup7\n        /* \"#utility.yul\":4260:4264   */\n      0x20\n        /* \"#utility.yul\":4255:4257   */\n      dup6\n        /* \"#utility.yul\":4247:4253   */\n      dup9\n        /* \"#utility.yul\":4243:4258   */\n      add\n        /* \"#utility.yul\":4239:4265   */\n      add\n        /* \"#utility.yul\":4236:4271   */\n      gt\n        /* \"#utility.yul\":4233:4288   */\n      iszero\n      tag_165\n      jumpi\n        /* \"#utility.yul\":4284:4285   */\n      0x00\n        /* \"#utility.yul\":4281:4282   */\n      dup1\n        /* \"#utility.yul\":4274:4286   */\n      revert\n        /* \"#utility.yul\":4233:4288   */\n    tag_165:\n        /* \"#utility.yul\":4348:4350   */\n      dup4\n        /* \"#utility.yul\":4341:4345   */\n      0x20\n        /* \"#utility.yul\":4333:4339   */\n      dup8\n        /* \"#utility.yul\":4329:4346   */\n      add\n        /* \"#utility.yul\":4322:4326   */\n      0x20\n        /* \"#utility.yul\":4314:4320   */\n      dup4\n        /* \"#utility.yul\":4310:4327   */\n      add\n        /* \"#utility.yul\":4297:4351   */\n      calldatacopy\n        /* \"#utility.yul\":4395:4396   */\n      0x00\n        /* \"#utility.yul\":4388:4392   */\n      0x20\n        /* \"#utility.yul\":4383:4385   */\n      dup6\n        /* \"#utility.yul\":4375:4381   */\n      dup4\n        /* \"#utility.yul\":4371:4386   */\n      add\n        /* \"#utility.yul\":4367:4393   */\n      add\n        /* \"#utility.yul\":4360:4397   */\n      mstore\n        /* \"#utility.yul\":4415:4421   */\n      dup1\n        /* \"#utility.yul\":4406:4421   */\n      swap5\n      pop\n      pop\n      pop\n      pop\n      pop\n        /* \"#utility.yul\":3708:4427   */\n      swap3\n      swap2\n      pop\n      pop\n      jump\t// out\n        /* \"#utility.yul\":4432:5049   */\n    tag_35:\n        /* \"#utility.yul\":4529:4535   */\n      0x00\n        /* \"#utility.yul\":4537:4543   */\n      dup1\n        /* \"#utility.yul\":4545:4551   */\n      0x00\n        /* \"#utility.yul\":4598:4600   */\n      0x60\n        /* \"#utility.yul\":4586:4595   */\n      dup5\n        /* \"#utility.yul\":4577:4584   */\n      dup7\n        /* \"#utility.yul\":4573:4596   */\n      sub\n        /* \"#utility.yul\":4569:4601   */\n      slt\n        /* \"#utility.yul\":4566:4618   */\n      iszero\n      tag_167\n      jumpi\n        /* \"#utility.yul\":4614:4615   */\n      0x00\n        /* \"#utility.yul\":4611:4612   */\n      dup1\n        /* \"#utility.yul\":4604:4616   */\n      revert\n        /* \"#utility.yul\":4566:4618   */\n    tag_167:\n        /* \"#utility.yul\":4637:4666   */\n      tag_168\n        /* \"#utility.yul\":4656:4665   */\n      dup5\n        /* \"#utility.yul\":4637:4666   */\n      tag_125\n      jump\t// in\n    tag_168:\n        /* \"#utility.yul\":4627:4666   */\n      swap3\n      pop\n        /* \"#utility.yul\":4717:4719   */\n      0x20\n        /* \"#utility.yul\":4706:4715   */\n      dup5\n        /* \"#utility.yul\":4702:4720   */\n      add\n        /* \"#utility.yul\":4689:4721   */\n      calldataload\n        /* \"#utility.yul\":4740:4758   */\n      0xffffffffffffffff\n        /* \"#utility.yul\":4781:4783   */\n      dup1\n        /* \"#utility.yul\":4773:4779   */\n      dup3\n        /* \"#utility.yul\":4770:4784   */\n      gt\n        /* \"#utility.yul\":4767:4801   */\n      iszero\n      tag_169\n      jumpi\n        /* \"#utility.yul\":4797:4798   */\n      0x00\n        /* \"#utility.yul\":4794:4795   */\n      dup1\n        /* \"#utility.yul\":4787:4799   */\n      revert\n        /* \"#utility.yul\":4767:4801   */\n    tag_169:\n        /* \"#utility.yul\":4820:4870   */\n      tag_170\n        /* \"#utility.yul\":4862:4869   */\n      dup8\n        /* \"#utility.yul\":4853:4859   */\n      dup4\n        /* \"#utility.yul\":4842:4851   */\n      dup9\n        /* \"#utility.yul\":4838:4860   */\n      add\n        /* \"#utility.yul\":4820:4870   */\n      tag_128\n      jump\t// in\n    tag_170:\n        /* \"#utility.yul\":4810:4870   */\n      swap4\n      pop\n        /* \"#utility.yul\":4923:4925   */\n      0x40\n        /* \"#utility.yul\":4912:4921   */\n      dup7\n        /* \"#utility.yul\":4908:4926   */\n      add\n        /* \"#utility.yul\":4895:4927   */\n      calldataload\n        /* \"#utility.yul\":4879:4927   */\n      swap2\n      pop\n        /* \"#utility.yul\":4952:4954   */\n      dup1\n        /* \"#utility.yul\":4942:4950   */\n      dup3\n        /* \"#utility.yul\":4939:4955   */\n      gt\n        /* \"#utility.yul\":4936:4972   */\n      iszero\n      tag_171\n      jumpi\n        /* \"#utility.yul\":4968:4969   */\n      0x00\n        /* \"#utility.yul\":4965:4966   */\n      dup1\n        /* \"#utility.yul\":4958:4970   */\n      revert\n        /* \"#utility.yul\":4936:4972   */\n    tag_171:\n      pop\n        /* \"#utility.yul\":4991:5043   */\n      tag_172\n        /* \"#utility.yul\":5035:5042   */\n      dup7\n        /* \"#utility.yul\":5024:5032   */\n      dup3\n        /* \"#utility.yul\":5013:5022   */\n      dup8\n        /* \"#utility.yul\":5009:5033   */\n      add\n        /* \"#utility.yul\":4991:5043   */\n      tag_128\n      jump\t// in\n    tag_172:\n        /* \"#utility.yul\":4981:5043   */\n      swap2\n      pop\n      pop\n        /* \"#utility.yul\":4432:5049   */\n      swap3\n      pop\n      swap3\n      pop\n      swap3\n      jump\t// out\n        /* \"#utility.yul\":5054:5434   */\n    tag_47:\n        /* \"#utility.yul\":5133:5134   */\n      0x01\n        /* \"#utility.yul\":5129:5141   */\n      dup2\n      dup2\n      shr\n      swap1\n        /* \"#utility.yul\":5176:5188   */\n      dup3\n      and\n      dup1\n        /* \"#utility.yul\":5197:5258   */\n      tag_174\n      jumpi\n        /* \"#utility.yul\":5251:5255   */\n      0x7f\n        /* \"#utility.yul\":5243:5249   */\n      dup3\n        /* \"#utility.yul\":5239:5256   */\n      and\n        /* \"#utility.yul\":5229:5256   */\n      swap2\n      pop\n        /* \"#utility.yul\":5197:5258   */\n    tag_174:\n        /* \"#utility.yul\":5304:5306   */\n      0x20\n        /* \"#utility.yul\":5296:5302   */\n      dup3\n        /* \"#utility.yul\":5293:5307   */\n      lt\n        /* \"#utility.yul\":5273:5291   */\n      dup2\n        /* \"#utility.yul\":5270:5308   */\n      sub\n        /* \"#utility.yul\":5267:5428   */\n      tag_66\n      jumpi\n        /* \"#utility.yul\":5350:5360   */\n      0x4e487b71\n        /* \"#utility.yul\":5345:5348   */\n      0xe0\n        /* \"#utility.yul\":5341:5361   */\n      shl\n        /* \"#utility.yul\":5338:5339   */\n      0x00\n        /* \"#utility.yul\":5331:5362   */\n      mstore\n        /* \"#utility.yul\":5385:5389   */\n      0x22\n        /* \"#utility.yul\":5382:5383   */\n      0x04\n        /* \"#utility.yul\":5375:5390   */\n      mstore\n        /* \"#utility.yul\":5413:5417   */\n      0x24\n        /* \"#utility.yul\":5410:5411   */\n      0x00\n        /* \"#utility.yul\":5403:5418   */\n      revert\n        /* \"#utility.yul\":5439:5566   */\n    tag_80:\n        /* \"#utility.yul\":5500:5510   */\n      0x4e487b71\n        /* \"#utility.yul\":5495:5498   */\n      0xe0\n        /* \"#utility.yul\":5491:5511   */\n      shl\n        /* \"#utility.yul\":5488:5489   */\n      0x00\n        /* \"#utility.yul\":5481:5512   */\n      mstore\n        /* \"#utility.yul\":5531:5535   */\n      0x32\n        /* \"#utility.yul\":5528:5529   */\n      0x04\n        /* \"#utility.yul\":5521:5536   */\n      mstore\n        /* \"#utility.yul\":5555:5559   */\n      0x24\n        /* \"#utility.yul\":5552:5553   */\n      0x00\n        /* \"#utility.yul\":5545:5560   */\n      revert\n        /* \"#utility.yul\":5571:5843   */\n    tag_82:\n        /* \"#utility.yul\":5608:5611   */\n      0x00\n        /* \"#utility.yul\":5652:5656   */\n      0xff\n        /* \"#utility.yul\":5645:5650   */\n      dup3\n        /* \"#utility.yul\":5641:5657   */\n      and\n        /* \"#utility.yul\":5681:5685   */\n      0xff\n        /* \"#utility.yul\":5672:5679   */\n      dup2\n        /* \"#utility.yul\":5669:5686   */\n      sub\n        /* \"#utility.yul\":5666:5806   */\n      tag_178\n      jumpi\n        /* \"#utility.yul\":5728:5738   */\n      0x4e487b71\n        /* \"#utility.yul\":5723:5726   */\n      0xe0\n        /* \"#utility.yul\":5719:5739   */\n      shl\n        /* \"#utility.yul\":5716:5717   */\n      0x00\n        /* \"#utility.yul\":5709:5740   */\n      mstore\n        /* \"#utility.yul\":5763:5767   */\n      0x11\n        /* \"#utility.yul\":5760:5761   */\n      0x04\n        /* \"#utility.yul\":5753:5768   */\n      mstore\n        /* \"#utility.yul\":5791:5795   */\n      0x24\n        /* \"#utility.yul\":5788:5789   */\n      0x00\n        /* \"#utility.yul\":5781:5796   */\n      revert\n        /* \"#utility.yul\":5666:5806   */\n    tag_178:\n        /* \"#utility.yul\":5835:5836   */\n      0x01\n        /* \"#utility.yul\":5822:5837   */\n      add\n      swap3\n        /* \"#utility.yul\":5571:5843   */\n      swap2\n      pop\n      pop\n      jump\t// out\n        /* \"#utility.yul\":5848:6246   */\n    tag_100:\n        /* \"#utility.yul\":6050:6052   */\n      0x20\n        /* \"#utility.yul\":6032:6053   */\n      dup1\n      dup3\n      mstore\n        /* \"#utility.yul\":6089:6091   */\n      0x22\n        /* \"#utility.yul\":6069:6087   */\n      swap1\n      dup3\n      add\n        /* \"#utility.yul\":6062:6092   */\n      mstore\n        /* \"#utility.yul\":6128:6162   */\n      0x4f6e6c792061646d696e2063616e2063616c6c20746869732066756e6374696f\n        /* \"#utility.yul\":6123:6125   */\n      0x40\n        /* \"#utility.yul\":6108:6126   */\n      dup3\n      add\n        /* \"#utility.yul\":6101:6163   */\n      mstore\n      shl(0xf0, 0x6e21)\n        /* \"#utility.yul\":6194:6196   */\n      0x60\n        /* \"#utility.yul\":6179:6197   */\n      dup3\n      add\n        /* \"#utility.yul\":6172:6204   */\n      mstore\n        /* \"#utility.yul\":6236:6239   */\n      0x80\n        /* \"#utility.yul\":6221:6240   */\n      add\n      swap1\n        /* \"#utility.yul\":5848:6246   */\n      jump\t// out\n        /* \"#utility.yul\":6377:6922   */\n    tag_130:\n        /* \"#utility.yul\":6479:6481   */\n      0x1f\n        /* \"#utility.yul\":6474:6477   */\n      dup3\n        /* \"#utility.yul\":6471:6482   */\n      gt\n        /* \"#utility.yul\":6468:6916   */\n      iszero\n      tag_182\n      jumpi\n        /* \"#utility.yul\":6515:6516   */\n      0x00\n        /* \"#utility.yul\":6540:6545   */\n      dup2\n        /* \"#utility.yul\":6536:6538   */\n      dup2\n        /* \"#utility.yul\":6529:6546   */\n      mstore\n        /* \"#utility.yul\":6585:6589   */\n      0x20\n        /* \"#utility.yul\":6581:6583   */\n      dup2\n        /* \"#utility.yul\":6571:6590   */\n      keccak256\n        /* \"#utility.yul\":6655:6657   */\n      0x1f\n        /* \"#utility.yul\":6643:6653   */\n      dup6\n        /* \"#utility.yul\":6639:6658   */\n      add\n        /* \"#utility.yul\":6636:6637   */\n      0x05\n        /* \"#utility.yul\":6632:6659   */\n      shr\n        /* \"#utility.yul\":6626:6630   */\n      dup2\n        /* \"#utility.yul\":6622:6660   */\n      add\n        /* \"#utility.yul\":6691:6695   */\n      0x20\n        /* \"#utility.yul\":6679:6689   */\n      dup7\n        /* \"#utility.yul\":6676:6696   */\n      lt\n        /* \"#utility.yul\":6673:6720   */\n      iszero\n      tag_183\n      jumpi\n      pop\n        /* \"#utility.yul\":6714:6718   */\n      dup1\n        /* \"#utility.yul\":6673:6720   */\n    tag_183:\n        /* \"#utility.yul\":6769:6771   */\n      0x1f\n        /* \"#utility.yul\":6764:6767   */\n      dup6\n        /* \"#utility.yul\":6760:6772   */\n      add\n        /* \"#utility.yul\":6757:6758   */\n      0x05\n        /* \"#utility.yul\":6753:6773   */\n      shr\n        /* \"#utility.yul\":6747:6751   */\n      dup3\n        /* \"#utility.yul\":6743:6774   */\n      add\n        /* \"#utility.yul\":6733:6774   */\n      swap2\n      pop\n        /* \"#utility.yul\":6824:6906   */\n    tag_184:\n        /* \"#utility.yul\":6842:6844   */\n      dup2\n        /* \"#utility.yul\":6835:6840   */\n      dup2\n        /* \"#utility.yul\":6832:6845   */\n      lt\n        /* \"#utility.yul\":6824:6906   */\n      iszero\n      tag_186\n      jumpi\n        /* \"#utility.yul\":6887:6904   */\n      dup3\n      dup2\n      sstore\n        /* \"#utility.yul\":6868:6869   */\n      0x01\n        /* \"#utility.yul\":6857:6870   */\n      add\n        /* \"#utility.yul\":6824:6906   */\n      jump(tag_184)\n    tag_186:\n        /* \"#utility.yul\":6828:6831   */\n      pop\n      pop\n      pop\n        /* \"#utility.yul\":6468:6916   */\n    tag_182:\n        /* \"#utility.yul\":6377:6922   */\n      pop\n      pop\n      pop\n      jump\t// out\n        /* \"#utility.yul\":7098:8450   */\n    tag_103:\n        /* \"#utility.yul\":7224:7227   */\n      dup2\n        /* \"#utility.yul\":7218:7228   */\n      mload\n        /* \"#utility.yul\":7251:7269   */\n      0xffffffffffffffff\n        /* \"#utility.yul\":7243:7249   */\n      dup2\n        /* \"#utility.yul\":7240:7270   */\n      gt\n        /* \"#utility.yul\":7237:7293   */\n      iszero\n      tag_190\n      jumpi\n        /* \"#utility.yul\":7273:7291   */\n      tag_190\n      tag_60\n      jump\t// in\n    tag_190:\n        /* \"#utility.yul\":7302:7399   */\n      tag_191\n        /* \"#utility.yul\":7392:7398   */\n      dup2\n        /* \"#utility.yul\":7352:7390   */\n      tag_192\n        /* \"#utility.yul\":7384:7388   */\n      dup5\n        /* \"#utility.yul\":7378:7389   */\n      sload\n        /* \"#utility.yul\":7352:7390   */\n      tag_47\n      jump\t// in\n    tag_192:\n        /* \"#utility.yul\":7346:7350   */\n      dup5\n        /* \"#utility.yul\":7302:7399   */\n      tag_130\n      jump\t// in\n    tag_191:\n        /* \"#utility.yul\":7454:7458   */\n      0x20\n      dup1\n        /* \"#utility.yul\":7518:7520   */\n      0x1f\n        /* \"#utility.yul\":7507:7521   */\n      dup4\n      gt\n        /* \"#utility.yul\":7535:7536   */\n      0x01\n        /* \"#utility.yul\":7530:8193   */\n      dup2\n      eq\n      tag_194\n      jumpi\n        /* \"#utility.yul\":8237:8238   */\n      0x00\n        /* \"#utility.yul\":8254:8260   */\n      dup5\n        /* \"#utility.yul\":8251:8340   */\n      iszero\n      tag_195\n      jumpi\n      pop\n        /* \"#utility.yul\":8306:8325   */\n      dup6\n      dup4\n      add\n        /* \"#utility.yul\":8300:8326   */\n      mload\n        /* \"#utility.yul\":8251:8340   */\n    tag_195:\n      not(0x00)\n        /* \"#utility.yul\":7055:7056   */\n      0x03\n        /* \"#utility.yul\":7051:7062   */\n      dup7\n      swap1\n      shl\n        /* \"#utility.yul\":7047:7071   */\n      shr\n        /* \"#utility.yul\":7043:7072   */\n      not\n        /* \"#utility.yul\":7033:7073   */\n      and\n        /* \"#utility.yul\":7079:7080   */\n      0x01\n        /* \"#utility.yul\":7075:7086   */\n      dup6\n      swap1\n      shl\n        /* \"#utility.yul\":7030:7087   */\n      or\n        /* \"#utility.yul\":8353:8434   */\n      dup6\n      sstore\n        /* \"#utility.yul\":7500:8444   */\n      jump(tag_186)\n        /* \"#utility.yul\":7530:8193   */\n    tag_194:\n        /* \"#utility.yul\":6324:6325   */\n      0x00\n        /* \"#utility.yul\":6317:6331   */\n      dup6\n      dup2\n      mstore\n        /* \"#utility.yul\":6361:6365   */\n      0x20\n        /* \"#utility.yul\":6348:6366   */\n      dup2\n      keccak256\n      not(0x1f)\n        /* \"#utility.yul\":7566:7586   */\n      dup7\n      and\n      swap2\n        /* \"#utility.yul\":7684:7920   */\n    tag_198:\n        /* \"#utility.yul\":7698:7705   */\n      dup3\n        /* \"#utility.yul\":7695:7696   */\n      dup2\n        /* \"#utility.yul\":7692:7706   */\n      lt\n        /* \"#utility.yul\":7684:7920   */\n      iszero\n      tag_200\n      jumpi\n        /* \"#utility.yul\":7787:7806   */\n      dup9\n      dup7\n      add\n        /* \"#utility.yul\":7781:7807   */\n      mload\n        /* \"#utility.yul\":7766:7808   */\n      dup3\n      sstore\n        /* \"#utility.yul\":7879:7906   */\n      swap5\n      dup5\n      add\n      swap5\n        /* \"#utility.yul\":7847:7848   */\n      0x01\n        /* \"#utility.yul\":7835:7849   */\n      swap1\n      swap2\n      add\n      swap1\n        /* \"#utility.yul\":7714:7733   */\n      dup5\n      add\n        /* \"#utility.yul\":7684:7920   */\n      jump(tag_198)\n    tag_200:\n        /* \"#utility.yul\":7688:7691   */\n      pop\n        /* \"#utility.yul\":7948:7954   */\n      dup6\n        /* \"#utility.yul\":7939:7946   */\n      dup3\n        /* \"#utility.yul\":7936:7955   */\n      lt\n        /* \"#utility.yul\":7933:8134   */\n      iszero\n      tag_201\n      jumpi\n        /* \"#utility.yul\":8009:8028   */\n      dup8\n      dup6\n      add\n        /* \"#utility.yul\":8003:8029   */\n      mload\n      not(0x00)\n        /* \"#utility.yul\":8092:8093   */\n      0x03\n        /* \"#utility.yul\":8088:8102   */\n      dup9\n      swap1\n      shl\n        /* \"#utility.yul\":8104:8107   */\n      0xf8\n        /* \"#utility.yul\":8084:8108   */\n      and\n        /* \"#utility.yul\":8080:8117   */\n      shr\n        /* \"#utility.yul\":8076:8118   */\n      not\n        /* \"#utility.yul\":8061:8119   */\n      and\n        /* \"#utility.yul\":8046:8120   */\n      dup2\n      sstore\n        /* \"#utility.yul\":7933:8134   */\n    tag_201:\n      pop\n      pop\n      pop\n      pop\n      pop\n        /* \"#utility.yul\":8180:8181   */\n      0x01\n        /* \"#utility.yul\":8164:8178   */\n      swap1\n      dup2\n      shl\n        /* \"#utility.yul\":8160:8182   */\n      add\n        /* \"#utility.yul\":8147:8183   */\n      swap1\n      sstore\n      pop\n        /* \"#utility.yul\":7098:8450   */\n      jump\t// out\n        /* \"#utility.yul\":8455:8935   */\n    tag_106:\n      sub(shl(0xa0, 0x01), 0x01)\n        /* \"#utility.yul\":8680:8712   */\n      dup5\n      and\n        /* \"#utility.yul\":8662:8713   */\n      dup2\n      mstore\n        /* \"#utility.yul\":8749:8751   */\n      0x60\n        /* \"#utility.yul\":8744:8746   */\n      0x20\n        /* \"#utility.yul\":8729:8747   */\n      dup3\n      add\n        /* \"#utility.yul\":8722:8752   */\n      dup2\n      swap1\n      mstore\n      0x00\n      swap1\n        /* \"#utility.yul\":8775:8820   */\n      tag_203\n      swap1\n        /* \"#utility.yul\":8801:8819   */\n      dup4\n      add\n        /* \"#utility.yul\":8793:8799   */\n      dup6\n        /* \"#utility.yul\":8775:8820   */\n      tag_126\n      jump\t// in\n    tag_203:\n        /* \"#utility.yul\":8868:8877   */\n      dup3\n        /* \"#utility.yul\":8860:8866   */\n      dup2\n        /* \"#utility.yul\":8856:8878   */\n      sub\n        /* \"#utility.yul\":8851:8853   */\n      0x40\n        /* \"#utility.yul\":8840:8849   */\n      dup5\n        /* \"#utility.yul\":8836:8854   */\n      add\n        /* \"#utility.yul\":8829:8879   */\n      mstore\n        /* \"#utility.yul\":8896:8929   */\n      tag_204\n        /* \"#utility.yul\":8922:8928   */\n      dup2\n        /* \"#utility.yul\":8914:8920   */\n      dup6\n        /* \"#utility.yul\":8896:8929   */\n      tag_126\n      jump\t// in\n    tag_204:\n        /* \"#utility.yul\":8888:8929   */\n      swap7\n        /* \"#utility.yul\":8455:8935   */\n      swap6\n      pop\n      pop\n      pop\n      pop\n      pop\n      pop\n      jump\t// out\n\n    auxdata: 0xa2646970667358221220f80ca2815ba9049c2b76ec0f3f8490129b1b0c2cd198ada11edcb90ab077c4e064736f6c63430008140033\n}\n",
				"bytecode": {
					"linkReferences": {},
					"object": "608060405234801561000f575f80fd5b50604051610f7c380380610f7c83398101604081905261002e91610068565b5f80546004805460ff191690556001600160a81b0319163360ff60a01b191617600160a01b60ff939093169290920291909117905561008f565b5f60208284031215610078575f80fd5b815160ff81168114610088575f80fd5b9392505050565b610ee08061009c5f395ff3fe608060405234801561000f575f80fd5b5060043610610085575f3560e01c8063b400770011610058578063b400770014610116578063dfafe10f1461012b578063f390dd861461013e578063f851a44014610151575f80fd5b806309e69ede14610089578063195ec9ee146100b65780637143059f146100cb57806383c4b7a3146100eb575b5f80fd5b61009c610097366004610a03565b610163565b6040516100ad959493929190610a66565b60405180910390f35b6100be6102ab565b6040516100ad9190610b1a565b6100de6100d9366004610a03565b6104d2565b6040516100ad9190610b7a565b6100fe6100f9366004610b8c565b61064a565b6040516001600160a01b0390911681526020016100ad565b610129610124366004610c40565b610672565b005b610129610139366004610a03565b61072f565b61012961014c366004610a03565b610937565b5f546100fe906001600160a01b031681565b60026020525f9081526040902080546001820180546001600160a01b03909216929161018e90610caf565b80601f01602080910402602001604051908101604052809291908181526020018280546101ba90610caf565b80156102055780601f106101dc57610100808354040283529160200191610205565b820191905f5260205f20905b8154815290600101906020018083116101e857829003601f168201915b50505050509080600201805461021a90610caf565b80601f016020809104026020016040519081016040528092919081815260200182805461024690610caf565b80156102915780601f1061026857610100808354040283529160200191610291565b820191905f5260205f20905b81548152906001019060200180831161027457829003601f168201915b50505050600383015460049093015491929160ff16905085565b6004546060905f9060ff1667ffffffffffffffff8111156102ce576102ce610ba3565b60405190808252806020026020018201604052801561030757816020015b6102f46109b0565b8152602001906001900390816102ec5790505b5090505f5b60045460ff90811690821610156104cc5760ff81165f908152600360209081526040808320546001600160a01b0390811684526002835292819020815160a081019092528054909316815260018301805491939284019161036c90610caf565b80601f016020809104026020016040519081016040528092919081815260200182805461039890610caf565b80156103e35780601f106103ba576101008083540402835291602001916103e3565b820191905f5260205f20905b8154815290600101906020018083116103c657829003601f168201915b505050505081526020016002820180546103fc90610caf565b80601f016020809104026020016040519081016040528092919081815260200182805461042890610caf565b80156104735780601f1061044a57610100808354040283529160200191610473565b820191905f5260205f20905b81548152906001019060200180831161045657829003601f168201915b50505091835250506003820154602082015260049091015460ff9081166040909201919091528351849184169081106104ae576104ae610ce1565b602002602001018190525080806104c490610cf5565b91505061030c565b50919050565b6104da6109b0565b6001600160a01b038083165f90815260026020908152604091829020825160a08101909352805490931682526001830180549293929184019161051c90610caf565b80601f016020809104026020016040519081016040528092919081815260200182805461054890610caf565b80156105935780601f1061056a57610100808354040283529160200191610593565b820191905f5260205f20905b81548152906001019060200180831161057657829003601f168201915b505050505081526020016002820180546105ac90610caf565b80601f01602080910402602001604051908101604052809291908181526020018280546105d890610caf565b80156106235780601f106105fa57610100808354040283529160200191610623565b820191905f5260205f20905b81548152906001019060200180831161060657829003601f168201915b50505091835250506003820154602082015260049091015460ff1660409091015292915050565b60018181548110610659575f80fd5b5f918252602090912001546001600160a01b0316905081565b5f546001600160a01b031633146106a45760405162461bcd60e51b815260040161069b90610d1f565b60405180910390fd5b6001600160a01b0383165f9081526002602052604090206001016106c88382610daf565b506001600160a01b0383165f908152600260208190526040909120016106ee8282610daf565b507f3bc63a1a560da32e0aab62ddb386a3bbfb7ac6d4531d5dd65fb1505a16a784b483838360405161072293929190610e6b565b60405180910390a1505050565b5f546001600160a01b031633146107585760405162461bcd60e51b815260040161069b90610d1f565b5f5460045460ff600160a01b90920482169116106107b05760405162461bcd60e51b81526020600482015260156024820152744f6e6c79206372656174652031302075736572732160581b604482015260640161069b565b6040805160a0810182526001600160a01b038381168083528351602080820186525f8083528186019283528651808301885281815286880152606086018190526080860181905292835260029052939020825181546001600160a01b03191692169190911781559151909190600182019061082b9082610daf565b50604082015160028201906108409082610daf565b5060608201516003828101919091556080909201516004918201805460ff191660ff928316179055815481165f9081526020939093526040832080546001600160a01b0319166001600160a01b038616179055815416916108a083610cf5565b91906101000a81548160ff021916908360ff160217905550507f7a274ad5ebae6fdc80650d34a4e01c874e099afaca3b6e8c896edc5b9126651b8160405161092c91906001600160a01b039190911681526040602082018190526018908201527f416464207061727469636970616e742073756363657373210000000000000000606082015260800190565b60405180910390a150565b5f546001600160a01b031633146109605760405162461bcd60e51b815260040161069b90610d1f565b6001805480820182555f919091527fb10e2d527612073b26eecdfd717e6a320cf44b4afac2b0732d9fcbe2b7fa0cf60180546001600160a01b0319166001600160a01b0392909216919091179055565b6040518060a001604052805f6001600160a01b0316815260200160608152602001606081526020015f81526020015f60ff1681525090565b80356001600160a01b03811681146109fe575f80fd5b919050565b5f60208284031215610a13575f80fd5b610a1c826109e8565b9392505050565b5f81518084525f5b81811015610a4757602081850181015186830182015201610a2b565b505f602082860101526020601f19601f83011685010191505092915050565b6001600160a01b038616815260a0602082018190525f90610a8990830187610a23565b8281036040840152610a9b8187610a23565b91505083606083015260ff831660808301529695505050505050565b60018060a01b0381511682525f602082015160a06020850152610add60a0850182610a23565b905060408301518482036040860152610af68282610a23565b9150506060830151606085015260ff60808401511660808501528091505092915050565b5f602080830181845280855180835260408601915060408160051b87010192508387015f5b82811015610b6d57603f19888603018452610b5b858351610ab7565b94509285019290850190600101610b3f565b5092979650505050505050565b602081525f610a1c6020830184610ab7565b5f60208284031215610b9c575f80fd5b5035919050565b634e487b7160e01b5f52604160045260245ffd5b5f82601f830112610bc6575f80fd5b813567ffffffffffffffff80821115610be157610be1610ba3565b604051601f8301601f19908116603f01168101908282118183101715610c0957610c09610ba3565b81604052838152866020858801011115610c21575f80fd5b836020870160208301375f602085830101528094505050505092915050565b5f805f60608486031215610c52575f80fd5b610c5b846109e8565b9250602084013567ffffffffffffffff80821115610c77575f80fd5b610c8387838801610bb7565b93506040860135915080821115610c98575f80fd5b50610ca586828701610bb7565b9150509250925092565b600181811c90821680610cc357607f821691505b6020821081036104cc57634e487b7160e01b5f52602260045260245ffd5b634e487b7160e01b5f52603260045260245ffd5b5f60ff821660ff8103610d1657634e487b7160e01b5f52601160045260245ffd5b60010192915050565b60208082526022908201527f4f6e6c792061646d696e2063616e2063616c6c20746869732066756e6374696f6040820152616e2160f01b606082015260800190565b601f821115610daa575f81815260208120601f850160051c81016020861015610d875750805b601f850160051c820191505b81811015610da657828155600101610d93565b5050505b505050565b815167ffffffffffffffff811115610dc957610dc9610ba3565b610ddd81610dd78454610caf565b84610d61565b602080601f831160018114610e10575f8415610df95750858301515b5f19600386901b1c1916600185901b178555610da6565b5f85815260208120601f198616915b82811015610e3e57888601518255948401946001909101908401610e1f565b5085821015610e5b57878501515f19600388901b60f8161c191681555b5050505050600190811b01905550565b6001600160a01b03841681526060602082018190525f90610e8e90830185610a23565b8281036040840152610ea08185610a23565b969550505050505056fea2646970667358221220f80ca2815ba9049c2b76ec0f3f8490129b1b0c2cd198ada11edcb90ab077c4e064736f6c63430008140033",
					"opcodes": "PUSH1 0x80 PUSH1 0x40 MSTORE CALLVALUE DUP1 ISZERO PUSH2 0xF JUMPI PUSH0 DUP1 REVERT JUMPDEST POP PUSH1 0x40 MLOAD PUSH2 0xF7C CODESIZE SUB DUP1 PUSH2 0xF7C DUP4 CODECOPY DUP2 ADD PUSH1 0x40 DUP2 SWAP1 MSTORE PUSH2 0x2E SWAP2 PUSH2 0x68 JUMP JUMPDEST PUSH0 DUP1 SLOAD PUSH1 0x4 DUP1 SLOAD PUSH1 0xFF NOT AND SWAP1 SSTORE PUSH1 0x1 PUSH1 0x1 PUSH1 0xA8 SHL SUB NOT AND CALLER PUSH1 0xFF PUSH1 0xA0 SHL NOT AND OR PUSH1 0x1 PUSH1 0xA0 SHL PUSH1 0xFF SWAP4 SWAP1 SWAP4 AND SWAP3 SWAP1 SWAP3 MUL SWAP2 SWAP1 SWAP2 OR SWAP1 SSTORE PUSH2 0x8F JUMP JUMPDEST PUSH0 PUSH1 0x20 DUP3 DUP5 SUB SLT ISZERO PUSH2 0x78 JUMPI PUSH0 DUP1 REVERT JUMPDEST DUP2 MLOAD PUSH1 0xFF DUP2 AND DUP2 EQ PUSH2 0x88 JUMPI PUSH0 DUP1 REVERT JUMPDEST SWAP4 SWAP3 POP POP POP JUMP JUMPDEST PUSH2 0xEE0 DUP1 PUSH2 0x9C PUSH0 CODECOPY PUSH0 RETURN INVALID PUSH1 0x80 PUSH1 0x40 MSTORE CALLVALUE DUP1 ISZERO PUSH2 0xF JUMPI PUSH0 DUP1 REVERT JUMPDEST POP PUSH1 0x4 CALLDATASIZE LT PUSH2 0x85 JUMPI PUSH0 CALLDATALOAD PUSH1 0xE0 SHR DUP1 PUSH4 0xB4007700 GT PUSH2 0x58 JUMPI DUP1 PUSH4 0xB4007700 EQ PUSH2 0x116 JUMPI DUP1 PUSH4 0xDFAFE10F EQ PUSH2 0x12B JUMPI DUP1 PUSH4 0xF390DD86 EQ PUSH2 0x13E JUMPI DUP1 PUSH4 0xF851A440 EQ PUSH2 0x151 JUMPI PUSH0 DUP1 REVERT JUMPDEST DUP1 PUSH4 0x9E69EDE EQ PUSH2 0x89 JUMPI DUP1 PUSH4 0x195EC9EE EQ PUSH2 0xB6 JUMPI DUP1 PUSH4 0x7143059F EQ PUSH2 0xCB JUMPI DUP1 PUSH4 0x83C4B7A3 EQ PUSH2 0xEB JUMPI JUMPDEST PUSH0 DUP1 REVERT JUMPDEST PUSH2 0x9C PUSH2 0x97 CALLDATASIZE PUSH1 0x4 PUSH2 0xA03 JUMP JUMPDEST PUSH2 0x163 JUMP JUMPDEST PUSH1 0x40 MLOAD PUSH2 0xAD SWAP6 SWAP5 SWAP4 SWAP3 SWAP2 SWAP1 PUSH2 0xA66 JUMP JUMPDEST PUSH1 0x40 MLOAD DUP1 SWAP2 SUB SWAP1 RETURN JUMPDEST PUSH2 0xBE PUSH2 0x2AB JUMP JUMPDEST PUSH1 0x40 MLOAD PUSH2 0xAD SWAP2 SWAP1 PUSH2 0xB1A JUMP JUMPDEST PUSH2 0xDE PUSH2 0xD9 CALLDATASIZE PUSH1 0x4 PUSH2 0xA03 JUMP JUMPDEST PUSH2 0x4D2 JUMP JUMPDEST PUSH1 0x40 MLOAD PUSH2 0xAD SWAP2 SWAP1 PUSH2 0xB7A JUMP JUMPDEST PUSH2 0xFE PUSH2 0xF9 CALLDATASIZE PUSH1 0x4 PUSH2 0xB8C JUMP JUMPDEST PUSH2 0x64A JUMP JUMPDEST PUSH1 0x40 MLOAD PUSH1 0x1 PUSH1 0x1 PUSH1 0xA0 SHL SUB SWAP1 SWAP2 AND DUP2 MSTORE PUSH1 0x20 ADD PUSH2 0xAD JUMP JUMPDEST PUSH2 0x129 PUSH2 0x124 CALLDATASIZE PUSH1 0x4 PUSH2 0xC40 JUMP JUMPDEST PUSH2 0x672 JUMP JUMPDEST STOP JUMPDEST PUSH2 0x129 PUSH2 0x139 CALLDATASIZE PUSH1 0x4 PUSH2 0xA03 JUMP JUMPDEST PUSH2 0x72F JUMP JUMPDEST PUSH2 0x129 PUSH2 0x14C CALLDATASIZE PUSH1 0x4 PUSH2 0xA03 JUMP JUMPDEST PUSH2 0x937 JUMP JUMPDEST PUSH0 SLOAD PUSH2 0xFE SWAP1 PUSH1 0x1 PUSH1 0x1 PUSH1 0xA0 SHL SUB AND DUP2 JUMP JUMPDEST PUSH1 0x2 PUSH1 0x20 MSTORE PUSH0 SWAP1 DUP2 MSTORE PUSH1 0x40 SWAP1 KECCAK256 DUP1 SLOAD PUSH1 0x1 DUP3 ADD DUP1 SLOAD PUSH1 0x1 PUSH1 0x1 PUSH1 0xA0 SHL SUB SWAP1 SWAP3 AND SWAP3 SWAP2 PUSH2 0x18E SWAP1 PUSH2 0xCAF JUMP JUMPDEST DUP1 PUSH1 0x1F ADD PUSH1 0x20 DUP1 SWAP2 DIV MUL PUSH1 0x20 ADD PUSH1 0x40 MLOAD SWAP1 DUP2 ADD PUSH1 0x40 MSTORE DUP1 SWAP3 SWAP2 SWAP1 DUP2 DUP2 MSTORE PUSH1 0x20 ADD DUP3 DUP1 SLOAD PUSH2 0x1BA SWAP1 PUSH2 0xCAF JUMP JUMPDEST DUP1 ISZERO PUSH2 0x205 JUMPI DUP1 PUSH1 0x1F LT PUSH2 0x1DC JUMPI PUSH2 0x100 DUP1 DUP4 SLOAD DIV MUL DUP4 MSTORE SWAP2 PUSH1 0x20 ADD SWAP2 PUSH2 0x205 JUMP JUMPDEST DUP3 ADD SWAP2 SWAP1 PUSH0 MSTORE PUSH1 0x20 PUSH0 KECCAK256 SWAP1 JUMPDEST DUP2 SLOAD DUP2 MSTORE SWAP1 PUSH1 0x1 ADD SWAP1 PUSH1 0x20 ADD DUP1 DUP4 GT PUSH2 0x1E8 JUMPI DUP3 SWAP1 SUB PUSH1 0x1F AND DUP3 ADD SWAP2 JUMPDEST POP POP POP POP POP SWAP1 DUP1 PUSH1 0x2 ADD DUP1 SLOAD PUSH2 0x21A SWAP1 PUSH2 0xCAF JUMP JUMPDEST DUP1 PUSH1 0x1F ADD PUSH1 0x20 DUP1 SWAP2 DIV MUL PUSH1 0x20 ADD PUSH1 0x40 MLOAD SWAP1 DUP2 ADD PUSH1 0x40 MSTORE DUP1 SWAP3 SWAP2 SWAP1 DUP2 DUP2 MSTORE PUSH1 0x20 ADD DUP3 DUP1 SLOAD PUSH2 0x246 SWAP1 PUSH2 0xCAF JUMP JUMPDEST DUP1 ISZERO PUSH2 0x291 JUMPI DUP1 PUSH1 0x1F LT PUSH2 0x268 JUMPI PUSH2 0x100 DUP1 DUP4 SLOAD DIV MUL DUP4 MSTORE SWAP2 PUSH1 0x20 ADD SWAP2 PUSH2 0x291 JUMP JUMPDEST DUP3 ADD SWAP2 SWAP1 PUSH0 MSTORE PUSH1 0x20 PUSH0 KECCAK256 SWAP1 JUMPDEST DUP2 SLOAD DUP2 MSTORE SWAP1 PUSH1 0x1 ADD SWAP1 PUSH1 0x20 ADD DUP1 DUP4 GT PUSH2 0x274 JUMPI DUP3 SWAP1 SUB PUSH1 0x1F AND DUP3 ADD SWAP2 JUMPDEST POP POP POP POP PUSH1 0x3 DUP4 ADD SLOAD PUSH1 0x4 SWAP1 SWAP4 ADD SLOAD SWAP2 SWAP3 SWAP2 PUSH1 0xFF AND SWAP1 POP DUP6 JUMP JUMPDEST PUSH1 0x4 SLOAD PUSH1 0x60 SWAP1 PUSH0 SWAP1 PUSH1 0xFF AND PUSH8 0xFFFFFFFFFFFFFFFF DUP2 GT ISZERO PUSH2 0x2CE JUMPI PUSH2 0x2CE PUSH2 0xBA3 JUMP JUMPDEST PUSH1 0x40 MLOAD SWAP1 DUP1 DUP3 MSTORE DUP1 PUSH1 0x20 MUL PUSH1 0x20 ADD DUP3 ADD PUSH1 0x40 MSTORE DUP1 ISZERO PUSH2 0x307 JUMPI DUP2 PUSH1 0x20 ADD JUMPDEST PUSH2 0x2F4 PUSH2 0x9B0 JUMP JUMPDEST DUP2 MSTORE PUSH1 0x20 ADD SWAP1 PUSH1 0x1 SWAP1 SUB SWAP1 DUP2 PUSH2 0x2EC JUMPI SWAP1 POP JUMPDEST POP SWAP1 POP PUSH0 JUMPDEST PUSH1 0x4 SLOAD PUSH1 0xFF SWAP1 DUP2 AND SWAP1 DUP3 AND LT ISZERO PUSH2 0x4CC JUMPI PUSH1 0xFF DUP2 AND PUSH0 SWAP1 DUP2 MSTORE PUSH1 0x3 PUSH1 0x20 SWAP1 DUP2 MSTORE PUSH1 0x40 DUP1 DUP4 KECCAK256 SLOAD PUSH1 0x1 PUSH1 0x1 PUSH1 0xA0 SHL SUB SWAP1 DUP2 AND DUP5 MSTORE PUSH1 0x2 DUP4 MSTORE SWAP3 DUP2 SWAP1 KECCAK256 DUP2 MLOAD PUSH1 0xA0 DUP2 ADD SWAP1 SWAP3 MSTORE DUP1 SLOAD SWAP1 SWAP4 AND DUP2 MSTORE PUSH1 0x1 DUP4 ADD DUP1 SLOAD SWAP2 SWAP4 SWAP3 DUP5 ADD SWAP2 PUSH2 0x36C SWAP1 PUSH2 0xCAF JUMP JUMPDEST DUP1 PUSH1 0x1F ADD PUSH1 0x20 DUP1 SWAP2 DIV MUL PUSH1 0x20 ADD PUSH1 0x40 MLOAD SWAP1 DUP2 ADD PUSH1 0x40 MSTORE DUP1 SWAP3 SWAP2 SWAP1 DUP2 DUP2 MSTORE PUSH1 0x20 ADD DUP3 DUP1 SLOAD PUSH2 0x398 SWAP1 PUSH2 0xCAF JUMP JUMPDEST DUP1 ISZERO PUSH2 0x3E3 JUMPI DUP1 PUSH1 0x1F LT PUSH2 0x3BA JUMPI PUSH2 0x100 DUP1 DUP4 SLOAD DIV MUL DUP4 MSTORE SWAP2 PUSH1 0x20 ADD SWAP2 PUSH2 0x3E3 JUMP JUMPDEST DUP3 ADD SWAP2 SWAP1 PUSH0 MSTORE PUSH1 0x20 PUSH0 KECCAK256 SWAP1 JUMPDEST DUP2 SLOAD DUP2 MSTORE SWAP1 PUSH1 0x1 ADD SWAP1 PUSH1 0x20 ADD DUP1 DUP4 GT PUSH2 0x3C6 JUMPI DUP3 SWAP1 SUB PUSH1 0x1F AND DUP3 ADD SWAP2 JUMPDEST POP POP POP POP POP DUP2 MSTORE PUSH1 0x20 ADD PUSH1 0x2 DUP3 ADD DUP1 SLOAD PUSH2 0x3FC SWAP1 PUSH2 0xCAF JUMP JUMPDEST DUP1 PUSH1 0x1F ADD PUSH1 0x20 DUP1 SWAP2 DIV MUL PUSH1 0x20 ADD PUSH1 0x40 MLOAD SWAP1 DUP2 ADD PUSH1 0x40 MSTORE DUP1 SWAP3 SWAP2 SWAP1 DUP2 DUP2 MSTORE PUSH1 0x20 ADD DUP3 DUP1 SLOAD PUSH2 0x428 SWAP1 PUSH2 0xCAF JUMP JUMPDEST DUP1 ISZERO PUSH2 0x473 JUMPI DUP1 PUSH1 0x1F LT PUSH2 0x44A JUMPI PUSH2 0x100 DUP1 DUP4 SLOAD DIV MUL DUP4 MSTORE SWAP2 PUSH1 0x20 ADD SWAP2 PUSH2 0x473 JUMP JUMPDEST DUP3 ADD SWAP2 SWAP1 PUSH0 MSTORE PUSH1 0x20 PUSH0 KECCAK256 SWAP1 JUMPDEST DUP2 SLOAD DUP2 MSTORE SWAP1 PUSH1 0x1 ADD SWAP1 PUSH1 0x20 ADD DUP1 DUP4 GT PUSH2 0x456 JUMPI DUP3 SWAP1 SUB PUSH1 0x1F AND DUP3 ADD SWAP2 JUMPDEST POP POP POP SWAP2 DUP4 MSTORE POP POP PUSH1 0x3 DUP3 ADD SLOAD PUSH1 0x20 DUP3 ADD MSTORE PUSH1 0x4 SWAP1 SWAP2 ADD SLOAD PUSH1 0xFF SWAP1 DUP2 AND PUSH1 0x40 SWAP1 SWAP3 ADD SWAP2 SWAP1 SWAP2 MSTORE DUP4 MLOAD DUP5 SWAP2 DUP5 AND SWAP1 DUP2 LT PUSH2 0x4AE JUMPI PUSH2 0x4AE PUSH2 0xCE1 JUMP JUMPDEST PUSH1 0x20 MUL PUSH1 0x20 ADD ADD DUP2 SWAP1 MSTORE POP DUP1 DUP1 PUSH2 0x4C4 SWAP1 PUSH2 0xCF5 JUMP JUMPDEST SWAP2 POP POP PUSH2 0x30C JUMP JUMPDEST POP SWAP2 SWAP1 POP JUMP JUMPDEST PUSH2 0x4DA PUSH2 0x9B0 JUMP JUMPDEST PUSH1 0x1 PUSH1 0x1 PUSH1 0xA0 SHL SUB DUP1 DUP4 AND PUSH0 SWAP1 DUP2 MSTORE PUSH1 0x2 PUSH1 0x20 SWAP1 DUP2 MSTORE PUSH1 0x40 SWAP2 DUP3 SWAP1 KECCAK256 DUP3 MLOAD PUSH1 0xA0 DUP2 ADD SWAP1 SWAP4 MSTORE DUP1 SLOAD SWAP1 SWAP4 AND DUP3 MSTORE PUSH1 0x1 DUP4 ADD DUP1 SLOAD SWAP3 SWAP4 SWAP3 SWAP2 DUP5 ADD SWAP2 PUSH2 0x51C SWAP1 PUSH2 0xCAF JUMP JUMPDEST DUP1 PUSH1 0x1F ADD PUSH1 0x20 DUP1 SWAP2 DIV MUL PUSH1 0x20 ADD PUSH1 0x40 MLOAD SWAP1 DUP2 ADD PUSH1 0x40 MSTORE DUP1 SWAP3 SWAP2 SWAP1 DUP2 DUP2 MSTORE PUSH1 0x20 ADD DUP3 DUP1 SLOAD PUSH2 0x548 SWAP1 PUSH2 0xCAF JUMP JUMPDEST DUP1 ISZERO PUSH2 0x593 JUMPI DUP1 PUSH1 0x1F LT PUSH2 0x56A JUMPI PUSH2 0x100 DUP1 DUP4 SLOAD DIV MUL DUP4 MSTORE SWAP2 PUSH1 0x20 ADD SWAP2 PUSH2 0x593 JUMP JUMPDEST DUP3 ADD SWAP2 SWAP1 PUSH0 MSTORE PUSH1 0x20 PUSH0 KECCAK256 SWAP1 JUMPDEST DUP2 SLOAD DUP2 MSTORE SWAP1 PUSH1 0x1 ADD SWAP1 PUSH1 0x20 ADD DUP1 DUP4 GT PUSH2 0x576 JUMPI DUP3 SWAP1 SUB PUSH1 0x1F AND DUP3 ADD SWAP2 JUMPDEST POP POP POP POP POP DUP2 MSTORE PUSH1 0x20 ADD PUSH1 0x2 DUP3 ADD DUP1 SLOAD PUSH2 0x5AC SWAP1 PUSH2 0xCAF JUMP JUMPDEST DUP1 PUSH1 0x1F ADD PUSH1 0x20 DUP1 SWAP2 DIV MUL PUSH1 0x20 ADD PUSH1 0x40 MLOAD SWAP1 DUP2 ADD PUSH1 0x40 MSTORE DUP1 SWAP3 SWAP2 SWAP1 DUP2 DUP2 MSTORE PUSH1 0x20 ADD DUP3 DUP1 SLOAD PUSH2 0x5D8 SWAP1 PUSH2 0xCAF JUMP JUMPDEST DUP1 ISZERO PUSH2 0x623 JUMPI DUP1 PUSH1 0x1F LT PUSH2 0x5FA JUMPI PUSH2 0x100 DUP1 DUP4 SLOAD DIV MUL DUP4 MSTORE SWAP2 PUSH1 0x20 ADD SWAP2 PUSH2 0x623 JUMP JUMPDEST DUP3 ADD SWAP2 SWAP1 PUSH0 MSTORE PUSH1 0x20 PUSH0 KECCAK256 SWAP1 JUMPDEST DUP2 SLOAD DUP2 MSTORE SWAP1 PUSH1 0x1 ADD SWAP1 PUSH1 0x20 ADD DUP1 DUP4 GT PUSH2 0x606 JUMPI DUP3 SWAP1 SUB PUSH1 0x1F AND DUP3 ADD SWAP2 JUMPDEST POP POP POP SWAP2 DUP4 MSTORE POP POP PUSH1 0x3 DUP3 ADD SLOAD PUSH1 0x20 DUP3 ADD MSTORE PUSH1 0x4 SWAP1 SWAP2 ADD SLOAD PUSH1 0xFF AND PUSH1 0x40 SWAP1 SWAP2 ADD MSTORE SWAP3 SWAP2 POP POP JUMP JUMPDEST PUSH1 0x1 DUP2 DUP2 SLOAD DUP2 LT PUSH2 0x659 JUMPI PUSH0 DUP1 REVERT JUMPDEST PUSH0 SWAP2 DUP3 MSTORE PUSH1 0x20 SWAP1 SWAP2 KECCAK256 ADD SLOAD PUSH1 0x1 PUSH1 0x1 PUSH1 0xA0 SHL SUB AND SWAP1 POP DUP2 JUMP JUMPDEST PUSH0 SLOAD PUSH1 0x1 PUSH1 0x1 PUSH1 0xA0 SHL SUB AND CALLER EQ PUSH2 0x6A4 JUMPI PUSH1 0x40 MLOAD PUSH3 0x461BCD PUSH1 0xE5 SHL DUP2 MSTORE PUSH1 0x4 ADD PUSH2 0x69B SWAP1 PUSH2 0xD1F JUMP JUMPDEST PUSH1 0x40 MLOAD DUP1 SWAP2 SUB SWAP1 REVERT JUMPDEST PUSH1 0x1 PUSH1 0x1 PUSH1 0xA0 SHL SUB DUP4 AND PUSH0 SWAP1 DUP2 MSTORE PUSH1 0x2 PUSH1 0x20 MSTORE PUSH1 0x40 SWAP1 KECCAK256 PUSH1 0x1 ADD PUSH2 0x6C8 DUP4 DUP3 PUSH2 0xDAF JUMP JUMPDEST POP PUSH1 0x1 PUSH1 0x1 PUSH1 0xA0 SHL SUB DUP4 AND PUSH0 SWAP1 DUP2 MSTORE PUSH1 0x2 PUSH1 0x20 DUP2 SWAP1 MSTORE PUSH1 0x40 SWAP1 SWAP2 KECCAK256 ADD PUSH2 0x6EE DUP3 DUP3 PUSH2 0xDAF JUMP JUMPDEST POP PUSH32 0x3BC63A1A560DA32E0AAB62DDB386A3BBFB7AC6D4531D5DD65FB1505A16A784B4 DUP4 DUP4 DUP4 PUSH1 0x40 MLOAD PUSH2 0x722 SWAP4 SWAP3 SWAP2 SWAP1 PUSH2 0xE6B JUMP JUMPDEST PUSH1 0x40 MLOAD DUP1 SWAP2 SUB SWAP1 LOG1 POP POP POP JUMP JUMPDEST PUSH0 SLOAD PUSH1 0x1 PUSH1 0x1 PUSH1 0xA0 SHL SUB AND CALLER EQ PUSH2 0x758 JUMPI PUSH1 0x40 MLOAD PUSH3 0x461BCD PUSH1 0xE5 SHL DUP2 MSTORE PUSH1 0x4 ADD PUSH2 0x69B SWAP1 PUSH2 0xD1F JUMP JUMPDEST PUSH0 SLOAD PUSH1 0x4 SLOAD PUSH1 0xFF PUSH1 0x1 PUSH1 0xA0 SHL SWAP1 SWAP3 DIV DUP3 AND SWAP2 AND LT PUSH2 0x7B0 JUMPI PUSH1 0x40 MLOAD PUSH3 0x461BCD PUSH1 0xE5 SHL DUP2 MSTORE PUSH1 0x20 PUSH1 0x4 DUP3 ADD MSTORE PUSH1 0x15 PUSH1 0x24 DUP3 ADD MSTORE PUSH21 0x4F6E6C792063726561746520313020757365727321 PUSH1 0x58 SHL PUSH1 0x44 DUP3 ADD MSTORE PUSH1 0x64 ADD PUSH2 0x69B JUMP JUMPDEST PUSH1 0x40 DUP1 MLOAD PUSH1 0xA0 DUP2 ADD DUP3 MSTORE PUSH1 0x1 PUSH1 0x1 PUSH1 0xA0 SHL SUB DUP4 DUP2 AND DUP1 DUP4 MSTORE DUP4 MLOAD PUSH1 0x20 DUP1 DUP3 ADD DUP7 MSTORE PUSH0 DUP1 DUP4 MSTORE DUP2 DUP7 ADD SWAP3 DUP4 MSTORE DUP7 MLOAD DUP1 DUP4 ADD DUP9 MSTORE DUP2 DUP2 MSTORE DUP7 DUP9 ADD MSTORE PUSH1 0x60 DUP7 ADD DUP2 SWAP1 MSTORE PUSH1 0x80 DUP7 ADD DUP2 SWAP1 MSTORE SWAP3 DUP4 MSTORE PUSH1 0x2 SWAP1 MSTORE SWAP4 SWAP1 KECCAK256 DUP3 MLOAD DUP2 SLOAD PUSH1 0x1 PUSH1 0x1 PUSH1 0xA0 SHL SUB NOT AND SWAP3 AND SWAP2 SWAP1 SWAP2 OR DUP2 SSTORE SWAP2 MLOAD SWAP1 SWAP2 SWAP1 PUSH1 0x1 DUP3 ADD SWAP1 PUSH2 0x82B SWAP1 DUP3 PUSH2 0xDAF JUMP JUMPDEST POP PUSH1 0x40 DUP3 ADD MLOAD PUSH1 0x2 DUP3 ADD SWAP1 PUSH2 0x840 SWAP1 DUP3 PUSH2 0xDAF JUMP JUMPDEST POP PUSH1 0x60 DUP3 ADD MLOAD PUSH1 0x3 DUP3 DUP2 ADD SWAP2 SWAP1 SWAP2 SSTORE PUSH1 0x80 SWAP1 SWAP3 ADD MLOAD PUSH1 0x4 SWAP2 DUP3 ADD DUP1 SLOAD PUSH1 0xFF NOT AND PUSH1 0xFF SWAP3 DUP4 AND OR SWAP1 SSTORE DUP2 SLOAD DUP2 AND PUSH0 SWAP1 DUP2 MSTORE PUSH1 0x20 SWAP4 SWAP1 SWAP4 MSTORE PUSH1 0x40 DUP4 KECCAK256 DUP1 SLOAD PUSH1 0x1 PUSH1 0x1 PUSH1 0xA0 SHL SUB NOT AND PUSH1 0x1 PUSH1 0x1 PUSH1 0xA0 SHL SUB DUP7 AND OR SWAP1 SSTORE DUP2 SLOAD AND SWAP2 PUSH2 0x8A0 DUP4 PUSH2 0xCF5 JUMP JUMPDEST SWAP2 SWAP1 PUSH2 0x100 EXP DUP2 SLOAD DUP2 PUSH1 0xFF MUL NOT AND SWAP1 DUP4 PUSH1 0xFF AND MUL OR SWAP1 SSTORE POP POP PUSH32 0x7A274AD5EBAE6FDC80650D34A4E01C874E099AFACA3B6E8C896EDC5B9126651B DUP2 PUSH1 0x40 MLOAD PUSH2 0x92C SWAP2 SWAP1 PUSH1 0x1 PUSH1 0x1 PUSH1 0xA0 SHL SUB SWAP2 SWAP1 SWAP2 AND DUP2 MSTORE PUSH1 0x40 PUSH1 0x20 DUP3 ADD DUP2 SWAP1 MSTORE PUSH1 0x18 SWAP1 DUP3 ADD MSTORE PUSH32 0x416464207061727469636970616E742073756363657373210000000000000000 PUSH1 0x60 DUP3 ADD MSTORE PUSH1 0x80 ADD SWAP1 JUMP JUMPDEST PUSH1 0x40 MLOAD DUP1 SWAP2 SUB SWAP1 LOG1 POP JUMP JUMPDEST PUSH0 SLOAD PUSH1 0x1 PUSH1 0x1 PUSH1 0xA0 SHL SUB AND CALLER EQ PUSH2 0x960 JUMPI PUSH1 0x40 MLOAD PUSH3 0x461BCD PUSH1 0xE5 SHL DUP2 MSTORE PUSH1 0x4 ADD PUSH2 0x69B SWAP1 PUSH2 0xD1F JUMP JUMPDEST PUSH1 0x1 DUP1 SLOAD DUP1 DUP3 ADD DUP3 SSTORE PUSH0 SWAP2 SWAP1 SWAP2 MSTORE PUSH32 0xB10E2D527612073B26EECDFD717E6A320CF44B4AFAC2B0732D9FCBE2B7FA0CF6 ADD DUP1 SLOAD PUSH1 0x1 PUSH1 0x1 PUSH1 0xA0 SHL SUB NOT AND PUSH1 0x1 PUSH1 0x1 PUSH1 0xA0 SHL SUB SWAP3 SWAP1 SWAP3 AND SWAP2 SWAP1 SWAP2 OR SWAP1 SSTORE JUMP JUMPDEST PUSH1 0x40 MLOAD DUP1 PUSH1 0xA0 ADD PUSH1 0x40 MSTORE DUP1 PUSH0 PUSH1 0x1 PUSH1 0x1 PUSH1 0xA0 SHL SUB AND DUP2 MSTORE PUSH1 0x20 ADD PUSH1 0x60 DUP2 MSTORE PUSH1 0x20 ADD PUSH1 0x60 DUP2 MSTORE PUSH1 0x20 ADD PUSH0 DUP2 MSTORE PUSH1 0x20 ADD PUSH0 PUSH1 0xFF AND DUP2 MSTORE POP SWAP1 JUMP JUMPDEST DUP1 CALLDATALOAD PUSH1 0x1 PUSH1 0x1 PUSH1 0xA0 SHL SUB DUP2 AND DUP2 EQ PUSH2 0x9FE JUMPI PUSH0 DUP1 REVERT JUMPDEST SWAP2 SWAP1 POP JUMP JUMPDEST PUSH0 PUSH1 0x20 DUP3 DUP5 SUB SLT ISZERO PUSH2 0xA13 JUMPI PUSH0 DUP1 REVERT JUMPDEST PUSH2 0xA1C DUP3 PUSH2 0x9E8 JUMP JUMPDEST SWAP4 SWAP3 POP POP POP JUMP JUMPDEST PUSH0 DUP2 MLOAD DUP1 DUP5 MSTORE PUSH0 JUMPDEST DUP2 DUP2 LT ISZERO PUSH2 0xA47 JUMPI PUSH1 0x20 DUP2 DUP6 ADD DUP2 ADD MLOAD DUP7 DUP4 ADD DUP3 ADD MSTORE ADD PUSH2 0xA2B JUMP JUMPDEST POP PUSH0 PUSH1 0x20 DUP3 DUP7 ADD ADD MSTORE PUSH1 0x20 PUSH1 0x1F NOT PUSH1 0x1F DUP4 ADD AND DUP6 ADD ADD SWAP2 POP POP SWAP3 SWAP2 POP POP JUMP JUMPDEST PUSH1 0x1 PUSH1 0x1 PUSH1 0xA0 SHL SUB DUP7 AND DUP2 MSTORE PUSH1 0xA0 PUSH1 0x20 DUP3 ADD DUP2 SWAP1 MSTORE PUSH0 SWAP1 PUSH2 0xA89 SWAP1 DUP4 ADD DUP8 PUSH2 0xA23 JUMP JUMPDEST DUP3 DUP2 SUB PUSH1 0x40 DUP5 ADD MSTORE PUSH2 0xA9B DUP2 DUP8 PUSH2 0xA23 JUMP JUMPDEST SWAP2 POP POP DUP4 PUSH1 0x60 DUP4 ADD MSTORE PUSH1 0xFF DUP4 AND PUSH1 0x80 DUP4 ADD MSTORE SWAP7 SWAP6 POP POP POP POP POP POP JUMP JUMPDEST PUSH1 0x1 DUP1 PUSH1 0xA0 SHL SUB DUP2 MLOAD AND DUP3 MSTORE PUSH0 PUSH1 0x20 DUP3 ADD MLOAD PUSH1 0xA0 PUSH1 0x20 DUP6 ADD MSTORE PUSH2 0xADD PUSH1 0xA0 DUP6 ADD DUP3 PUSH2 0xA23 JUMP JUMPDEST SWAP1 POP PUSH1 0x40 DUP4 ADD MLOAD DUP5 DUP3 SUB PUSH1 0x40 DUP7 ADD MSTORE PUSH2 0xAF6 DUP3 DUP3 PUSH2 0xA23 JUMP JUMPDEST SWAP2 POP POP PUSH1 0x60 DUP4 ADD MLOAD PUSH1 0x60 DUP6 ADD MSTORE PUSH1 0xFF PUSH1 0x80 DUP5 ADD MLOAD AND PUSH1 0x80 DUP6 ADD MSTORE DUP1 SWAP2 POP POP SWAP3 SWAP2 POP POP JUMP JUMPDEST PUSH0 PUSH1 0x20 DUP1 DUP4 ADD DUP2 DUP5 MSTORE DUP1 DUP6 MLOAD DUP1 DUP4 MSTORE PUSH1 0x40 DUP7 ADD SWAP2 POP PUSH1 0x40 DUP2 PUSH1 0x5 SHL DUP8 ADD ADD SWAP3 POP DUP4 DUP8 ADD PUSH0 JUMPDEST DUP3 DUP2 LT ISZERO PUSH2 0xB6D JUMPI PUSH1 0x3F NOT DUP9 DUP7 SUB ADD DUP5 MSTORE PUSH2 0xB5B DUP6 DUP4 MLOAD PUSH2 0xAB7 JUMP JUMPDEST SWAP5 POP SWAP3 DUP6 ADD SWAP3 SWAP1 DUP6 ADD SWAP1 PUSH1 0x1 ADD PUSH2 0xB3F JUMP JUMPDEST POP SWAP3 SWAP8 SWAP7 POP POP POP POP POP POP POP JUMP JUMPDEST PUSH1 0x20 DUP2 MSTORE PUSH0 PUSH2 0xA1C PUSH1 0x20 DUP4 ADD DUP5 PUSH2 0xAB7 JUMP JUMPDEST PUSH0 PUSH1 0x20 DUP3 DUP5 SUB SLT ISZERO PUSH2 0xB9C JUMPI PUSH0 DUP1 REVERT JUMPDEST POP CALLDATALOAD SWAP2 SWAP1 POP JUMP JUMPDEST PUSH4 0x4E487B71 PUSH1 0xE0 SHL PUSH0 MSTORE PUSH1 0x41 PUSH1 0x4 MSTORE PUSH1 0x24 PUSH0 REVERT JUMPDEST PUSH0 DUP3 PUSH1 0x1F DUP4 ADD SLT PUSH2 0xBC6 JUMPI PUSH0 DUP1 REVERT JUMPDEST DUP2 CALLDATALOAD PUSH8 0xFFFFFFFFFFFFFFFF DUP1 DUP3 GT ISZERO PUSH2 0xBE1 JUMPI PUSH2 0xBE1 PUSH2 0xBA3 JUMP JUMPDEST PUSH1 0x40 MLOAD PUSH1 0x1F DUP4 ADD PUSH1 0x1F NOT SWAP1 DUP2 AND PUSH1 0x3F ADD AND DUP2 ADD SWAP1 DUP3 DUP3 GT DUP2 DUP4 LT OR ISZERO PUSH2 0xC09 JUMPI PUSH2 0xC09 PUSH2 0xBA3 JUMP JUMPDEST DUP2 PUSH1 0x40 MSTORE DUP4 DUP2 MSTORE DUP7 PUSH1 0x20 DUP6 DUP9 ADD ADD GT ISZERO PUSH2 0xC21 JUMPI PUSH0 DUP1 REVERT JUMPDEST DUP4 PUSH1 0x20 DUP8 ADD PUSH1 0x20 DUP4 ADD CALLDATACOPY PUSH0 PUSH1 0x20 DUP6 DUP4 ADD ADD MSTORE DUP1 SWAP5 POP POP POP POP POP SWAP3 SWAP2 POP POP JUMP JUMPDEST PUSH0 DUP1 PUSH0 PUSH1 0x60 DUP5 DUP7 SUB SLT ISZERO PUSH2 0xC52 JUMPI PUSH0 DUP1 REVERT JUMPDEST PUSH2 0xC5B DUP5 PUSH2 0x9E8 JUMP JUMPDEST SWAP3 POP PUSH1 0x20 DUP5 ADD CALLDATALOAD PUSH8 0xFFFFFFFFFFFFFFFF DUP1 DUP3 GT ISZERO PUSH2 0xC77 JUMPI PUSH0 DUP1 REVERT JUMPDEST PUSH2 0xC83 DUP8 DUP4 DUP9 ADD PUSH2 0xBB7 JUMP JUMPDEST SWAP4 POP PUSH1 0x40 DUP7 ADD CALLDATALOAD SWAP2 POP DUP1 DUP3 GT ISZERO PUSH2 0xC98 JUMPI PUSH0 DUP1 REVERT JUMPDEST POP PUSH2 0xCA5 DUP7 DUP3 DUP8 ADD PUSH2 0xBB7 JUMP JUMPDEST SWAP2 POP POP SWAP3 POP SWAP3 POP SWAP3 JUMP JUMPDEST PUSH1 0x1 DUP2 DUP2 SHR SWAP1 DUP3 AND DUP1 PUSH2 0xCC3 JUMPI PUSH1 0x7F DUP3 AND SWAP2 POP JUMPDEST PUSH1 0x20 DUP3 LT DUP2 SUB PUSH2 0x4CC JUMPI PUSH4 0x4E487B71 PUSH1 0xE0 SHL PUSH0 MSTORE PUSH1 0x22 PUSH1 0x4 MSTORE PUSH1 0x24 PUSH0 REVERT JUMPDEST PUSH4 0x4E487B71 PUSH1 0xE0 SHL PUSH0 MSTORE PUSH1 0x32 PUSH1 0x4 MSTORE PUSH1 0x24 PUSH0 REVERT JUMPDEST PUSH0 PUSH1 0xFF DUP3 AND PUSH1 0xFF DUP2 SUB PUSH2 0xD16 JUMPI PUSH4 0x4E487B71 PUSH1 0xE0 SHL PUSH0 MSTORE PUSH1 0x11 PUSH1 0x4 MSTORE PUSH1 0x24 PUSH0 REVERT JUMPDEST PUSH1 0x1 ADD SWAP3 SWAP2 POP POP JUMP JUMPDEST PUSH1 0x20 DUP1 DUP3 MSTORE PUSH1 0x22 SWAP1 DUP3 ADD MSTORE PUSH32 0x4F6E6C792061646D696E2063616E2063616C6C20746869732066756E6374696F PUSH1 0x40 DUP3 ADD MSTORE PUSH2 0x6E21 PUSH1 0xF0 SHL PUSH1 0x60 DUP3 ADD MSTORE PUSH1 0x80 ADD SWAP1 JUMP JUMPDEST PUSH1 0x1F DUP3 GT ISZERO PUSH2 0xDAA JUMPI PUSH0 DUP2 DUP2 MSTORE PUSH1 0x20 DUP2 KECCAK256 PUSH1 0x1F DUP6 ADD PUSH1 0x5 SHR DUP2 ADD PUSH1 0x20 DUP7 LT ISZERO PUSH2 0xD87 JUMPI POP DUP1 JUMPDEST PUSH1 0x1F DUP6 ADD PUSH1 0x5 SHR DUP3 ADD SWAP2 POP JUMPDEST DUP2 DUP2 LT ISZERO PUSH2 0xDA6 JUMPI DUP3 DUP2 SSTORE PUSH1 0x1 ADD PUSH2 0xD93 JUMP JUMPDEST POP POP POP JUMPDEST POP POP POP JUMP JUMPDEST DUP2 MLOAD PUSH8 0xFFFFFFFFFFFFFFFF DUP2 GT ISZERO PUSH2 0xDC9 JUMPI PUSH2 0xDC9 PUSH2 0xBA3 JUMP JUMPDEST PUSH2 0xDDD DUP2 PUSH2 0xDD7 DUP5 SLOAD PUSH2 0xCAF JUMP JUMPDEST DUP5 PUSH2 0xD61 JUMP JUMPDEST PUSH1 0x20 DUP1 PUSH1 0x1F DUP4 GT PUSH1 0x1 DUP2 EQ PUSH2 0xE10 JUMPI PUSH0 DUP5 ISZERO PUSH2 0xDF9 JUMPI POP DUP6 DUP4 ADD MLOAD JUMPDEST PUSH0 NOT PUSH1 0x3 DUP7 SWAP1 SHL SHR NOT AND PUSH1 0x1 DUP6 SWAP1 SHL OR DUP6 SSTORE PUSH2 0xDA6 JUMP JUMPDEST PUSH0 DUP6 DUP2 MSTORE PUSH1 0x20 DUP2 KECCAK256 PUSH1 0x1F NOT DUP7 AND SWAP2 JUMPDEST DUP3 DUP2 LT ISZERO PUSH2 0xE3E JUMPI DUP9 DUP7 ADD MLOAD DUP3 SSTORE SWAP5 DUP5 ADD SWAP5 PUSH1 0x1 SWAP1 SWAP2 ADD SWAP1 DUP5 ADD PUSH2 0xE1F JUMP JUMPDEST POP DUP6 DUP3 LT ISZERO PUSH2 0xE5B JUMPI DUP8 DUP6 ADD MLOAD PUSH0 NOT PUSH1 0x3 DUP9 SWAP1 SHL PUSH1 0xF8 AND SHR NOT AND DUP2 SSTORE JUMPDEST POP POP POP POP POP PUSH1 0x1 SWAP1 DUP2 SHL ADD SWAP1 SSTORE POP JUMP JUMPDEST PUSH1 0x1 PUSH1 0x1 PUSH1 0xA0 SHL SUB DUP5 AND DUP2 MSTORE PUSH1 0x60 PUSH1 0x20 DUP3 ADD DUP2 SWAP1 MSTORE PUSH0 SWAP1 PUSH2 0xE8E SWAP1 DUP4 ADD DUP6 PUSH2 0xA23 JUMP JUMPDEST DUP3 DUP2 SUB PUSH1 0x40 DUP5 ADD MSTORE PUSH2 0xEA0 DUP2 DUP6 PUSH2 0xA23 JUMP JUMPDEST SWAP7 SWAP6 POP POP POP POP POP POP JUMP INVALID LOG2 PUSH5 0x6970667358 0x22 SLT KECCAK256 0xF8 0xC LOG2 DUP2 JUMPDEST 0xA9 DIV SWAP13 0x2B PUSH23 0xEC0F3F8490129B1B0C2CD198ADA11EDCB90AB077C4E064 PUSH20 0x6F6C634300081400330000000000000000000000 "
				},
				"gasEstimates": {
					"creation": {
						"codeDepositCost": "761600",
						"executionCost": "infinite",
						"totalCost": "infinite"
					},
					"external": {
						"addParticipant(address)": "infinite",
						"addSession(address)": "50987",
						"admin()": "2401",
						"getAllParticipants()": "infinite",
						"getParticipant(address)": "infinite",
						"participants(address)": "infinite",
						"sessions(uint256)": "4678",
						"updateParticipant(address,string,string)": "infinite"
					}
				},
				"methodIdentifiers": {
					"addParticipant(address)": "dfafe10f",
					"addSession(address)": "f390dd86",
					"admin()": "f851a440",
					"getAllParticipants()": "195ec9ee",
					"getParticipant(address)": "7143059f",
					"participants(address)": "09e69ede",
					"sessions(uint256)": "83c4b7a3",
					"updateParticipant(address,string,string)": "b4007700"
				}
			},
			"storageLayout": {
				"storage": [
					{
						"astId": 7,
						"contract": "Main.sol:Main",
						"label": "admin",
						"offset": 0,
						"slot": "0",
						"type": "t_address"
					},
					{
						"astId": 9,
						"contract": "Main.sol:Main",
						"label": "numberOfUser",
						"offset": 20,
						"slot": "0",
						"type": "t_uint8"
					},
					{
						"astId": 12,
						"contract": "Main.sol:Main",
						"label": "sessions",
						"offset": 0,
						"slot": "1",
						"type": "t_array(t_address)dyn_storage"
					},
					{
						"astId": 17,
						"contract": "Main.sol:Main",
						"label": "participants",
						"offset": 0,
						"slot": "2",
						"type": "t_mapping(t_address,t_struct(IParticipant)282_storage)"
					},
					{
						"astId": 21,
						"contract": "Main.sol:Main",
						"label": "mapParticipants",
						"offset": 0,
						"slot": "3",
						"type": "t_mapping(t_uint256,t_address)"
					},
					{
						"astId": 23,
						"contract": "Main.sol:Main",
						"label": "numberOfParticipant",
						"offset": 0,
						"slot": "4",
						"type": "t_uint8"
					}
				],
				"types": {
					"t_address": {
						"encoding": "inplace",
						"label": "address",
						"numberOfBytes": "20"
					},
					"t_array(t_address)dyn_storage": {
						"base": "t_address",
						"encoding": "dynamic_array",
						"label": "address[]",
						"numberOfBytes": "32"
					},
					"t_mapping(t_address,t_struct(IParticipant)282_storage)": {
						"encoding": "mapping",
						"key": "t_address",
						"label": "mapping(address => struct IParticipant)",
						"numberOfBytes": "32",
						"value": "t_struct(IParticipant)282_storage"
					},
					"t_mapping(t_uint256,t_address)": {
						"encoding": "mapping",
						"key": "t_uint256",
						"label": "mapping(uint256 => address)",
						"numberOfBytes": "32",
						"value": "t_address"
					},
					"t_string_storage": {
						"encoding": "bytes",
						"label": "string",
						"numberOfBytes": "32"
					},
					"t_struct(IParticipant)282_storage": {
						"encoding": "inplace",
						"label": "struct IParticipant",
						"members": [
							{
								"astId": 273,
								"contract": "Main.sol:Main",
								"label": "account",
								"offset": 0,
								"slot": "0",
								"type": "t_address"
							},
							{
								"astId": 275,
								"contract": "Main.sol:Main",
								"label": "fullName",
								"offset": 0,
								"slot": "1",
								"type": "t_string_storage"
							},
							{
								"astId": 277,
								"contract": "Main.sol:Main",
								"label": "email",
								"offset": 0,
								"slot": "2",
								"type": "t_string_storage"
							},
							{
								"astId": 279,
								"contract": "Main.sol:Main",
								"label": "numberOfSession",
								"offset": 0,
								"slot": "3",
								"type": "t_uint256"
							},
							{
								"astId": 281,
								"contract": "Main.sol:Main",
								"label": "deviation",
								"offset": 0,
								"slot": "4",
								"type": "t_uint8"
							}
						],
						"numberOfBytes": "160"
					},
					"t_uint256": {
						"encoding": "inplace",
						"label": "uint256",
						"numberOfBytes": "32"
					},
					"t_uint8": {
						"encoding": "inplace",
						"label": "uint8",
						"numberOfBytes": "1"
					}
				}
			},
			"userdoc": {
				"kind": "user",
				"methods": {},
				"version": 1
			}
		}
	}
}