{
	"Session.sol": {
		"Session": {
			"abi": [
				{
					"inputs": [
						{
							"internalType": "address",
							"name": "_mainContract",
							"type": "address"
						},
						{
							"internalType": "string",
							"name": "_productName",
							"type": "string"
						},
						{
							"internalType": "string",
							"name": "_description",
							"type": "string"
						},
						{
							"internalType": "string[]",
							"name": "_images",
							"type": "string[]"
						}
					],
					"stateMutability": "nonpayable",
					"type": "constructor"
				},
				{
					"inputs": [
						{
							"internalType": "address",
							"name": "_sessionAddress",
							"type": "address"
						}
					],
					"name": "calculateSuggestPrice",
					"outputs": [
						{
							"internalType": "uint256",
							"name": "",
							"type": "uint256"
						}
					],
					"stateMutability": "view",
					"type": "function"
				},
				{
					"inputs": [],
					"name": "closeSession",
					"outputs": [],
					"stateMutability": "nonpayable",
					"type": "function"
				},
				{
					"inputs": [],
					"name": "getSessionDetail",
					"outputs": [
						{
							"internalType": "string",
							"name": "",
							"type": "string"
						},
						{
							"internalType": "string",
							"name": "",
							"type": "string"
						},
						{
							"internalType": "string[]",
							"name": "",
							"type": "string[]"
						},
						{
							"internalType": "uint256",
							"name": "",
							"type": "uint256"
						},
						{
							"internalType": "uint256",
							"name": "",
							"type": "uint256"
						},
						{
							"internalType": "uint8",
							"name": "",
							"type": "uint8"
						}
					],
					"stateMutability": "view",
					"type": "function"
				},
				{
					"inputs": [],
					"name": "mainContract",
					"outputs": [
						{
							"internalType": "address",
							"name": "",
							"type": "address"
						}
					],
					"stateMutability": "view",
					"type": "function"
				},
				{
					"inputs": [
						{
							"internalType": "address",
							"name": "_account",
							"type": "address"
						},
						{
							"internalType": "uint256",
							"name": "_price",
							"type": "uint256"
						}
					],
					"name": "pricing",
					"outputs": [],
					"stateMutability": "nonpayable",
					"type": "function"
				},
				{
					"inputs": [],
					"name": "startSession",
					"outputs": [],
					"stateMutability": "nonpayable",
					"type": "function"
				},
				{
					"inputs": [
						{
							"internalType": "string",
							"name": "_productName",
							"type": "string"
						},
						{
							"internalType": "string",
							"name": "_description",
							"type": "string"
						},
						{
							"internalType": "string[]",
							"name": "_images",
							"type": "string[]"
						}
					],
					"name": "updateSession",
					"outputs": [],
					"stateMutability": "nonpayable",
					"type": "function"
				}
			],
			"devdoc": {
				"kind": "dev",
				"methods": {},
				"version": 1
			},
			"evm": {
				"assembly": "    /* \"Session.sol\":285:4991  contract Session {... */\n  mstore(0x40, 0x80)\n    /* \"Session.sol\":941:1566  constructor(... */\n  callvalue\n  dup1\n  iszero\n  tag_1\n  jumpi\n  0x00\n  dup1\n  revert\ntag_1:\n  pop\n  mload(0x40)\n  sub(codesize, bytecodeSize)\n  dup1\n  bytecodeSize\n  dup4\n  codecopy\n  dup2\n  add\n  0x40\n  dup2\n  swap1\n  mstore\n  tag_2\n  swap2\n  tag_3\n  jump\t// in\ntag_2:\n    /* \"Session.sol\":1143:1155  mainContract */\n  0x00\n    /* \"Session.sol\":1143:1171  mainContract = _mainContract */\n  dup1\n  sload\n  sub(shl(0xa0, 0x01), 0x01)\n  dup7\n  and\n  not(sub(shl(0xa0, 0x01), 0x01))\n  swap2\n  dup3\n  and\n  dup2\n  or\n  swap1\n  swap3\n  sstore\n  0x01\n    /* \"Session.sol\":1181:1216  MainContract = IMain(_mainContract) */\n  dup1\n  sload\n  swap1\n  swap2\n  and\n  swap1\n  swap2\n  or\n  swap1\n  sstore\n    /* \"Session.sol\":1266:1277  productName */\n  0x02\n    /* \"Session.sol\":1266:1292  productName = _productName */\n  tag_6\n    /* \"Session.sol\":1280:1292  _productName */\n  dup5\n    /* \"Session.sol\":1266:1277  productName */\n  dup3\n    /* \"Session.sol\":1266:1292  productName = _productName */\n  tag_7\n  jump\t// in\ntag_6:\n  pop\n    /* \"Session.sol\":1302:1313  description */\n  0x03\n    /* \"Session.sol\":1302:1328  description = _description */\n  tag_8\n    /* \"Session.sol\":1316:1328  _description */\n  dup4\n    /* \"Session.sol\":1302:1313  description */\n  dup3\n    /* \"Session.sol\":1302:1328  description = _description */\n  tag_7\n  jump\t// in\ntag_8:\n  pop\n    /* \"Session.sol\":1338:1354  images = _images */\n  dup1\n  mload\n  tag_9\n  swap1\n    /* \"Session.sol\":1338:1344  images */\n  0x04\n  swap1\n    /* \"Session.sol\":1338:1354  images = _images */\n  0x20\n  dup5\n  add\n  swap1\n  tag_10\n  jump\t// in\ntag_9:\n  pop\n    /* \"Session.sol\":1379:1380  0 */\n  0x00\n    /* \"Session.sol\":1364:1376  suggestPrice */\n  0x05\n    /* \"Session.sol\":1364:1380  suggestPrice = 0 */\n  dup2\n  swap1\n  sstore\n    /* \"Session.sol\":1390:1400  finalPrice */\n  0x06\n    /* \"Session.sol\":1390:1404  finalPrice = 0 */\n  sstore\n    /* \"Session.sol\":1414:1420  status */\n  0x07\n    /* \"Session.sol\":1414:1445  status = SESSION_STATUS.CREATED */\n  dup1\n  sload\n  not(0xff)\n  and\n  swap1\n  sstore\n  0x01\n    /* \"Session.sol\":1521:1533  MainContract */\n  sload\n    /* \"Session.sol\":1521:1559  MainContract.addSession(address(this)) */\n  mload(0x40)\n  shl(0xe1, 0x79c86ec3)\n  dup2\n  mstore\n    /* \"Session.sol\":1553:1557  this */\n  address\n    /* \"Session.sol\":1521:1559  MainContract.addSession(address(this)) */\n  0x04\n  dup3\n  add\n    /* \"#utility.yul\":5697:5748   */\n  mstore\n  sub(shl(0xa0, 0x01), 0x01)\n    /* \"Session.sol\":1521:1533  MainContract */\n  swap1\n  swap2\n  and\n  swap1\n    /* \"Session.sol\":1521:1544  MainContract.addSession */\n  0xf390dd86\n  swap1\n    /* \"#utility.yul\":5670:5688   */\n  0x24\n  add\n    /* \"Session.sol\":1521:1559  MainContract.addSession(address(this)) */\n  0x00\n  mload(0x40)\n  dup1\n  dup4\n  sub\n  dup2\n  0x00\n  dup8\n  dup1\n  extcodesize\n  iszero\n  dup1\n  iszero\n  tag_16\n  jumpi\n  0x00\n  dup1\n  revert\ntag_16:\n  pop\n  gas\n  call\n  iszero\n  dup1\n  iszero\n  tag_18\n  jumpi\n  returndatasize\n  0x00\n  dup1\n  returndatacopy\n  revert(0x00, returndatasize)\ntag_18:\n  pop\n  pop\n  pop\n  pop\n    /* \"Session.sol\":941:1566  constructor(... */\n  pop\n  pop\n  pop\n  pop\n    /* \"Session.sol\":285:4991  contract Session {... */\n  jump(tag_44)\ntag_10:\n  dup3\n  dup1\n  sload\n  dup3\n  dup3\n  sstore\n  swap1\n  0x00\n  mstore\n  keccak256(0x00, 0x20)\n  swap1\n  dup2\n  add\n  swap3\n  dup3\n  iszero\n  tag_22\n  jumpi\n  swap2\n  0x20\n  mul\n  dup3\n  add\ntag_21:\n  dup3\n  dup2\n  gt\n  iszero\n  tag_22\n  jumpi\n  dup3\n  mload\n  dup3\n  swap1\n  tag_23\n  swap1\n  dup3\n  tag_7\n  jump\t// in\ntag_23:\n  pop\n  swap2\n  0x20\n  add\n  swap2\n  swap1\n  0x01\n  add\n  swap1\n  jump(tag_21)\ntag_22:\n  pop\n  tag_24\n  swap3\n  swap2\n  pop\n  tag_25\n  jump\t// in\ntag_24:\n  pop\n  swap1\n  jump\t// out\ntag_25:\n  dup1\n  dup3\n  gt\n  iszero\n  tag_24\n  jumpi\n  0x00\n  tag_28\n  dup3\n  dup3\n  tag_29\n  jump\t// in\ntag_28:\n  pop\n  0x01\n  add\n  jump(tag_25)\ntag_29:\n  pop\n  dup1\n  sload\n  tag_30\n  swap1\n  tag_31\n  jump\t// in\ntag_30:\n  0x00\n  dup3\n  sstore\n  dup1\n  0x1f\n  lt\n  tag_33\n  jumpi\n  pop\n  pop\n  jump\t// out\ntag_33:\n  0x1f\n  add\n  0x20\n  swap1\n  div\n  swap1\n  0x00\n  mstore\n  keccak256(0x00, 0x20)\n  swap1\n  dup2\n  add\n  swap1\n  tag_34\n  swap2\n  swap1\n  tag_35\n  jump\t// in\ntag_34:\n  pop\n  jump\t// out\ntag_35:\ntag_36:\n  dup1\n  dup3\n  gt\n  iszero\n  tag_24\n  jumpi\n  0x00\n  dup2\n  sstore\n  0x01\n  add\n  jump(tag_36)\n    /* \"#utility.yul\":14:141   */\ntag_38:\n    /* \"#utility.yul\":75:85   */\n  0x4e487b71\n    /* \"#utility.yul\":70:73   */\n  0xe0\n    /* \"#utility.yul\":66:86   */\n  shl\n    /* \"#utility.yul\":63:64   */\n  0x00\n    /* \"#utility.yul\":56:87   */\n  mstore\n    /* \"#utility.yul\":106:110   */\n  0x41\n    /* \"#utility.yul\":103:104   */\n  0x04\n    /* \"#utility.yul\":96:111   */\n  mstore\n    /* \"#utility.yul\":130:134   */\n  0x24\n    /* \"#utility.yul\":127:128   */\n  0x00\n    /* \"#utility.yul\":120:135   */\n  revert\n    /* \"#utility.yul\":146:421   */\ntag_39:\n    /* \"#utility.yul\":217:219   */\n  0x40\n    /* \"#utility.yul\":211:220   */\n  mload\n    /* \"#utility.yul\":282:284   */\n  0x1f\n    /* \"#utility.yul\":263:276   */\n  dup3\n  add\n  not(0x1f)\n    /* \"#utility.yul\":259:286   */\n  and\n    /* \"#utility.yul\":247:287   */\n  dup2\n  add\n  sub(shl(0x40, 0x01), 0x01)\n    /* \"#utility.yul\":302:336   */\n  dup2\n  gt\n    /* \"#utility.yul\":338:360   */\n  dup3\n  dup3\n  lt\n    /* \"#utility.yul\":299:361   */\n  or\n    /* \"#utility.yul\":296:384   */\n  iszero\n  tag_48\n  jumpi\n    /* \"#utility.yul\":364:382   */\n  tag_48\n  tag_38\n  jump\t// in\ntag_48:\n    /* \"#utility.yul\":400:402   */\n  0x40\n    /* \"#utility.yul\":393:415   */\n  mstore\n    /* \"#utility.yul\":146:421   */\n  swap2\n  swap1\n  pop\n  jump\t// out\n    /* \"#utility.yul\":426:1076   */\ntag_40:\n    /* \"#utility.yul\":480:485   */\n  0x00\n    /* \"#utility.yul\":533:536   */\n  dup3\n    /* \"#utility.yul\":526:530   */\n  0x1f\n    /* \"#utility.yul\":518:524   */\n  dup4\n    /* \"#utility.yul\":514:531   */\n  add\n    /* \"#utility.yul\":510:537   */\n  slt\n    /* \"#utility.yul\":500:555   */\n  tag_50\n  jumpi\n    /* \"#utility.yul\":551:552   */\n  0x00\n    /* \"#utility.yul\":548:549   */\n  dup1\n    /* \"#utility.yul\":541:553   */\n  revert\n    /* \"#utility.yul\":500:555   */\ntag_50:\n    /* \"#utility.yul\":574:587   */\n  dup2\n  mload\n  sub(shl(0x40, 0x01), 0x01)\n    /* \"#utility.yul\":599:625   */\n  dup2\n  gt\n    /* \"#utility.yul\":596:648   */\n  iszero\n  tag_52\n  jumpi\n    /* \"#utility.yul\":628:646   */\n  tag_52\n  tag_38\n  jump\t// in\ntag_52:\n    /* \"#utility.yul\":667:671   */\n  0x20\n    /* \"#utility.yul\":695:748   */\n  tag_53\n    /* \"#utility.yul\":738:740   */\n  0x1f\n    /* \"#utility.yul\":719:732   */\n  dup4\n  add\n  not(0x1f)\n    /* \"#utility.yul\":715:742   */\n  and\n    /* \"#utility.yul\":711:747   */\n  dup3\n  add\n    /* \"#utility.yul\":695:748   */\n  tag_39\n  jump\t// in\ntag_53:\n    /* \"#utility.yul\":773:775   */\n  dup3\n    /* \"#utility.yul\":764:771   */\n  dup2\n    /* \"#utility.yul\":757:776   */\n  mstore\n    /* \"#utility.yul\":817:820   */\n  dup6\n    /* \"#utility.yul\":812:814   */\n  dup3\n    /* \"#utility.yul\":807:809   */\n  dup5\n    /* \"#utility.yul\":799:805   */\n  dup8\n    /* \"#utility.yul\":795:810   */\n  add\n    /* \"#utility.yul\":791:815   */\n  add\n    /* \"#utility.yul\":788:821   */\n  gt\n    /* \"#utility.yul\":785:838   */\n  iszero\n  tag_54\n  jumpi\n    /* \"#utility.yul\":834:835   */\n  0x00\n    /* \"#utility.yul\":831:832   */\n  dup1\n    /* \"#utility.yul\":824:836   */\n  revert\n    /* \"#utility.yul\":785:838   */\ntag_54:\n    /* \"#utility.yul\":856:857   */\n  0x00\n    /* \"#utility.yul\":866:1000   */\ntag_55:\n    /* \"#utility.yul\":880:882   */\n  dup4\n    /* \"#utility.yul\":877:878   */\n  dup2\n    /* \"#utility.yul\":874:883   */\n  lt\n    /* \"#utility.yul\":866:1000   */\n  iszero\n  tag_57\n  jumpi\n    /* \"#utility.yul\":969:983   */\n  dup6\n  dup2\n  add\n    /* \"#utility.yul\":965:988   */\n  dup4\n  add\n    /* \"#utility.yul\":959:989   */\n  mload\n    /* \"#utility.yul\":937:952   */\n  dup3\n  dup3\n  add\n    /* \"#utility.yul\":933:957   */\n  dup5\n  add\n    /* \"#utility.yul\":926:990   */\n  mstore\n    /* \"#utility.yul\":891:901   */\n  dup3\n  add\n    /* \"#utility.yul\":866:1000   */\n  jump(tag_55)\ntag_57:\n  pop\n    /* \"#utility.yul\":1043:1044   */\n  0x00\n    /* \"#utility.yul\":1020:1036   */\n  swap3\n  dup2\n  add\n    /* \"#utility.yul\":1016:1041   */\n  swap1\n  swap2\n  add\n    /* \"#utility.yul\":1009:1045   */\n  swap2\n  swap1\n  swap2\n  mstore\n    /* \"#utility.yul\":1024:1031   */\n  swap4\n    /* \"#utility.yul\":426:1076   */\n  swap3\n  pop\n  pop\n  pop\n  jump\t// out\n    /* \"#utility.yul\":1081:2825   */\ntag_3:\n    /* \"#utility.yul\":1233:1239   */\n  0x00\n    /* \"#utility.yul\":1241:1247   */\n  dup1\n    /* \"#utility.yul\":1249:1255   */\n  0x00\n    /* \"#utility.yul\":1257:1263   */\n  dup1\n    /* \"#utility.yul\":1310:1313   */\n  0x80\n    /* \"#utility.yul\":1298:1307   */\n  dup6\n    /* \"#utility.yul\":1289:1296   */\n  dup8\n    /* \"#utility.yul\":1285:1308   */\n  sub\n    /* \"#utility.yul\":1281:1314   */\n  slt\n    /* \"#utility.yul\":1278:1331   */\n  iszero\n  tag_59\n  jumpi\n    /* \"#utility.yul\":1327:1328   */\n  0x00\n    /* \"#utility.yul\":1324:1325   */\n  dup1\n    /* \"#utility.yul\":1317:1329   */\n  revert\n    /* \"#utility.yul\":1278:1331   */\ntag_59:\n    /* \"#utility.yul\":1353:1369   */\n  dup5\n  mload\n  sub(shl(0xa0, 0x01), 0x01)\n    /* \"#utility.yul\":1398:1429   */\n  dup2\n  and\n    /* \"#utility.yul\":1388:1430   */\n  dup2\n  eq\n    /* \"#utility.yul\":1378:1448   */\n  tag_60\n  jumpi\n    /* \"#utility.yul\":1444:1445   */\n  0x00\n    /* \"#utility.yul\":1441:1442   */\n  dup1\n    /* \"#utility.yul\":1434:1446   */\n  revert\n    /* \"#utility.yul\":1378:1448   */\ntag_60:\n    /* \"#utility.yul\":1491:1493   */\n  0x20\n    /* \"#utility.yul\":1522:1540   */\n  dup7\n  dup2\n  add\n    /* \"#utility.yul\":1516:1541   */\n  mload\n    /* \"#utility.yul\":1467:1472   */\n  swap2\n  swap6\n  pop\n    /* \"#utility.yul\":1491:1493   */\n  swap1\n  sub(shl(0x40, 0x01), 0x01)\n    /* \"#utility.yul\":1590:1604   */\n  dup1\n  dup3\n  gt\n    /* \"#utility.yul\":1587:1621   */\n  iszero\n  tag_61\n  jumpi\n    /* \"#utility.yul\":1617:1618   */\n  0x00\n    /* \"#utility.yul\":1614:1615   */\n  dup1\n    /* \"#utility.yul\":1607:1619   */\n  revert\n    /* \"#utility.yul\":1587:1621   */\ntag_61:\n    /* \"#utility.yul\":1640:1701   */\n  tag_62\n    /* \"#utility.yul\":1693:1700   */\n  dup10\n    /* \"#utility.yul\":1684:1690   */\n  dup4\n    /* \"#utility.yul\":1673:1682   */\n  dup11\n    /* \"#utility.yul\":1669:1691   */\n  add\n    /* \"#utility.yul\":1640:1701   */\n  tag_40\n  jump\t// in\ntag_62:\n    /* \"#utility.yul\":1630:1701   */\n  swap6\n  pop\n    /* \"#utility.yul\":1747:1749   */\n  0x40\n    /* \"#utility.yul\":1736:1745   */\n  dup9\n    /* \"#utility.yul\":1732:1750   */\n  add\n    /* \"#utility.yul\":1726:1751   */\n  mload\n    /* \"#utility.yul\":1710:1751   */\n  swap2\n  pop\n    /* \"#utility.yul\":1776:1778   */\n  dup1\n    /* \"#utility.yul\":1766:1774   */\n  dup3\n    /* \"#utility.yul\":1763:1779   */\n  gt\n    /* \"#utility.yul\":1760:1796   */\n  iszero\n  tag_63\n  jumpi\n    /* \"#utility.yul\":1792:1793   */\n  0x00\n    /* \"#utility.yul\":1789:1790   */\n  dup1\n    /* \"#utility.yul\":1782:1794   */\n  revert\n    /* \"#utility.yul\":1760:1796   */\ntag_63:\n    /* \"#utility.yul\":1815:1878   */\n  tag_64\n    /* \"#utility.yul\":1870:1877   */\n  dup10\n    /* \"#utility.yul\":1859:1867   */\n  dup4\n    /* \"#utility.yul\":1848:1857   */\n  dup11\n    /* \"#utility.yul\":1844:1868   */\n  add\n    /* \"#utility.yul\":1815:1878   */\n  tag_40\n  jump\t// in\ntag_64:\n    /* \"#utility.yul\":1805:1878   */\n  swap5\n  pop\n    /* \"#utility.yul\":1924:1926   */\n  0x60\n    /* \"#utility.yul\":1913:1922   */\n  dup9\n    /* \"#utility.yul\":1909:1927   */\n  add\n    /* \"#utility.yul\":1903:1928   */\n  mload\n    /* \"#utility.yul\":1887:1928   */\n  swap2\n  pop\n    /* \"#utility.yul\":1953:1955   */\n  dup1\n    /* \"#utility.yul\":1943:1951   */\n  dup3\n    /* \"#utility.yul\":1940:1956   */\n  gt\n    /* \"#utility.yul\":1937:1973   */\n  iszero\n  tag_65\n  jumpi\n    /* \"#utility.yul\":1969:1970   */\n  0x00\n    /* \"#utility.yul\":1966:1967   */\n  dup1\n    /* \"#utility.yul\":1959:1971   */\n  revert\n    /* \"#utility.yul\":1937:1973   */\ntag_65:\n    /* \"#utility.yul\":2007:2015   */\n  dup2\n    /* \"#utility.yul\":1996:2005   */\n  dup9\n    /* \"#utility.yul\":1992:2016   */\n  add\n    /* \"#utility.yul\":1982:2016   */\n  swap2\n  pop\n    /* \"#utility.yul\":2054:2061   */\n  dup9\n    /* \"#utility.yul\":2047:2051   */\n  0x1f\n    /* \"#utility.yul\":2043:2045   */\n  dup4\n    /* \"#utility.yul\":2039:2052   */\n  add\n    /* \"#utility.yul\":2035:2062   */\n  slt\n    /* \"#utility.yul\":2025:2080   */\n  tag_66\n  jumpi\n    /* \"#utility.yul\":2076:2077   */\n  0x00\n    /* \"#utility.yul\":2073:2074   */\n  dup1\n    /* \"#utility.yul\":2066:2078   */\n  revert\n    /* \"#utility.yul\":2025:2080   */\ntag_66:\n    /* \"#utility.yul\":2105:2107   */\n  dup2\n    /* \"#utility.yul\":2099:2108   */\n  mload\n    /* \"#utility.yul\":2127:2129   */\n  dup2\n    /* \"#utility.yul\":2123:2125   */\n  dup2\n    /* \"#utility.yul\":2120:2130   */\n  gt\n    /* \"#utility.yul\":2117:2153   */\n  iszero\n  tag_68\n  jumpi\n    /* \"#utility.yul\":2133:2151   */\n  tag_68\n  tag_38\n  jump\t// in\ntag_68:\n    /* \"#utility.yul\":2179:2181   */\n  dup1\n    /* \"#utility.yul\":2176:2177   */\n  0x05\n    /* \"#utility.yul\":2172:2182   */\n  shl\n    /* \"#utility.yul\":2202:2230   */\n  tag_69\n    /* \"#utility.yul\":2226:2228   */\n  dup6\n    /* \"#utility.yul\":2222:2224   */\n  dup3\n    /* \"#utility.yul\":2218:2229   */\n  add\n    /* \"#utility.yul\":2202:2230   */\n  tag_39\n  jump\t// in\ntag_69:\n    /* \"#utility.yul\":2264:2279   */\n  swap2\n  dup3\n  mstore\n    /* \"#utility.yul\":2334:2345   */\n  dup4\n  dup2\n  add\n    /* \"#utility.yul\":2330:2350   */\n  dup6\n  add\n  swap2\n    /* \"#utility.yul\":2295:2307   */\n  dup6\n  dup2\n  add\n  swap1\n    /* \"#utility.yul\":2362:2381   */\n  dup13\n  dup5\n  gt\n    /* \"#utility.yul\":2359:2398   */\n  iszero\n  tag_70\n  jumpi\n    /* \"#utility.yul\":2394:2395   */\n  0x00\n    /* \"#utility.yul\":2391:2392   */\n  dup1\n    /* \"#utility.yul\":2384:2396   */\n  revert\n    /* \"#utility.yul\":2359:2398   */\ntag_70:\n    /* \"#utility.yul\":2426:2428   */\n  dup7\n    /* \"#utility.yul\":2422:2424   */\n  dup7\n    /* \"#utility.yul\":2418:2429   */\n  add\n    /* \"#utility.yul\":2407:2429   */\n  swap3\n  pop\n    /* \"#utility.yul\":2438:2795   */\ntag_71:\n    /* \"#utility.yul\":2454:2460   */\n  dup4\n    /* \"#utility.yul\":2449:2452   */\n  dup4\n    /* \"#utility.yul\":2446:2461   */\n  lt\n    /* \"#utility.yul\":2438:2795   */\n  iszero\n  tag_73\n  jumpi\n    /* \"#utility.yul\":2533:2536   */\n  dup3\n    /* \"#utility.yul\":2527:2537   */\n  mload\n    /* \"#utility.yul\":2569:2571   */\n  dup6\n    /* \"#utility.yul\":2556:2567   */\n  dup2\n    /* \"#utility.yul\":2553:2572   */\n  gt\n    /* \"#utility.yul\":2550:2659   */\n  iszero\n  tag_74\n  jumpi\n    /* \"#utility.yul\":2613:2614   */\n  0x00\n    /* \"#utility.yul\":2642:2644   */\n  dup1\n    /* \"#utility.yul\":2638:2640   */\n  dup2\n    /* \"#utility.yul\":2631:2645   */\n  revert\n    /* \"#utility.yul\":2550:2659   */\ntag_74:\n    /* \"#utility.yul\":2684:2752   */\n  tag_75\n    /* \"#utility.yul\":2744:2751   */\n  dup15\n    /* \"#utility.yul\":2739:2741   */\n  dup10\n    /* \"#utility.yul\":2725:2736   */\n  dup4\n    /* \"#utility.yul\":2721:2723   */\n  dup11\n    /* \"#utility.yul\":2717:2737   */\n  add\n    /* \"#utility.yul\":2713:2742   */\n  add\n    /* \"#utility.yul\":2684:2752   */\n  tag_40\n  jump\t// in\ntag_75:\n    /* \"#utility.yul\":2672:2753   */\n  dup4\n  mstore\n  pop\n    /* \"#utility.yul\":2471:2483   */\n  swap2\n  dup7\n  add\n  swap2\n    /* \"#utility.yul\":2773:2785   */\n  swap1\n  dup7\n  add\n  swap1\n    /* \"#utility.yul\":2438:2795   */\n  jump(tag_71)\ntag_73:\n    /* \"#utility.yul\":1081:2825   */\n  swap10\n  swap13\n  swap9\n  swap12\n  pop\n  swap7\n  swap10\n  pop\n  pop\n  pop\n  pop\n  pop\n  pop\n  pop\n  pop\n  jump\t// out\n    /* \"#utility.yul\":2830:3210   */\ntag_31:\n    /* \"#utility.yul\":2909:2910   */\n  0x01\n    /* \"#utility.yul\":2905:2917   */\n  dup2\n  dup2\n  shr\n  swap1\n    /* \"#utility.yul\":2952:2964   */\n  dup3\n  and\n  dup1\n    /* \"#utility.yul\":2973:3034   */\n  tag_77\n  jumpi\n    /* \"#utility.yul\":3027:3031   */\n  0x7f\n    /* \"#utility.yul\":3019:3025   */\n  dup3\n    /* \"#utility.yul\":3015:3032   */\n  and\n    /* \"#utility.yul\":3005:3032   */\n  swap2\n  pop\n    /* \"#utility.yul\":2973:3034   */\ntag_77:\n    /* \"#utility.yul\":3080:3082   */\n  0x20\n    /* \"#utility.yul\":3072:3078   */\n  dup3\n    /* \"#utility.yul\":3069:3083   */\n  lt\n    /* \"#utility.yul\":3049:3067   */\n  dup2\n    /* \"#utility.yul\":3046:3084   */\n  sub\n    /* \"#utility.yul\":3043:3204   */\n  tag_78\n  jumpi\n    /* \"#utility.yul\":3126:3136   */\n  0x4e487b71\n    /* \"#utility.yul\":3121:3124   */\n  0xe0\n    /* \"#utility.yul\":3117:3137   */\n  shl\n    /* \"#utility.yul\":3114:3115   */\n  0x00\n    /* \"#utility.yul\":3107:3138   */\n  mstore\n    /* \"#utility.yul\":3161:3165   */\n  0x22\n    /* \"#utility.yul\":3158:3159   */\n  0x04\n    /* \"#utility.yul\":3151:3166   */\n  mstore\n    /* \"#utility.yul\":3189:3193   */\n  0x24\n    /* \"#utility.yul\":3186:3187   */\n  0x00\n    /* \"#utility.yul\":3179:3194   */\n  revert\n    /* \"#utility.yul\":3043:3204   */\ntag_78:\n  pop\n    /* \"#utility.yul\":2830:3210   */\n  swap2\n  swap1\n  pop\n  jump\t// out\n    /* \"#utility.yul\":3341:3886   */\ntag_42:\n    /* \"#utility.yul\":3443:3445   */\n  0x1f\n    /* \"#utility.yul\":3438:3441   */\n  dup3\n    /* \"#utility.yul\":3435:3446   */\n  gt\n    /* \"#utility.yul\":3432:3880   */\n  iszero\n  tag_81\n  jumpi\n    /* \"#utility.yul\":3479:3480   */\n  0x00\n    /* \"#utility.yul\":3504:3509   */\n  dup2\n    /* \"#utility.yul\":3500:3502   */\n  dup2\n    /* \"#utility.yul\":3493:3510   */\n  mstore\n    /* \"#utility.yul\":3549:3553   */\n  0x20\n    /* \"#utility.yul\":3545:3547   */\n  dup2\n    /* \"#utility.yul\":3535:3554   */\n  keccak256\n    /* \"#utility.yul\":3619:3621   */\n  0x1f\n    /* \"#utility.yul\":3607:3617   */\n  dup6\n    /* \"#utility.yul\":3603:3622   */\n  add\n    /* \"#utility.yul\":3600:3601   */\n  0x05\n    /* \"#utility.yul\":3596:3623   */\n  shr\n    /* \"#utility.yul\":3590:3594   */\n  dup2\n    /* \"#utility.yul\":3586:3624   */\n  add\n    /* \"#utility.yul\":3655:3659   */\n  0x20\n    /* \"#utility.yul\":3643:3653   */\n  dup7\n    /* \"#utility.yul\":3640:3660   */\n  lt\n    /* \"#utility.yul\":3637:3684   */\n  iszero\n  tag_82\n  jumpi\n  pop\n    /* \"#utility.yul\":3678:3682   */\n  dup1\n    /* \"#utility.yul\":3637:3684   */\ntag_82:\n    /* \"#utility.yul\":3733:3735   */\n  0x1f\n    /* \"#utility.yul\":3728:3731   */\n  dup6\n    /* \"#utility.yul\":3724:3736   */\n  add\n    /* \"#utility.yul\":3721:3722   */\n  0x05\n    /* \"#utility.yul\":3717:3737   */\n  shr\n    /* \"#utility.yul\":3711:3715   */\n  dup3\n    /* \"#utility.yul\":3707:3738   */\n  add\n    /* \"#utility.yul\":3697:3738   */\n  swap2\n  pop\n    /* \"#utility.yul\":3788:3870   */\ntag_83:\n    /* \"#utility.yul\":3806:3808   */\n  dup2\n    /* \"#utility.yul\":3799:3804   */\n  dup2\n    /* \"#utility.yul\":3796:3809   */\n  lt\n    /* \"#utility.yul\":3788:3870   */\n  iszero\n  tag_85\n  jumpi\n    /* \"#utility.yul\":3851:3868   */\n  dup3\n  dup2\n  sstore\n    /* \"#utility.yul\":3832:3833   */\n  0x01\n    /* \"#utility.yul\":3821:3834   */\n  add\n    /* \"#utility.yul\":3788:3870   */\n  jump(tag_83)\ntag_85:\n    /* \"#utility.yul\":3792:3795   */\n  pop\n  pop\n  pop\n    /* \"#utility.yul\":3432:3880   */\ntag_81:\n    /* \"#utility.yul\":3341:3886   */\n  pop\n  pop\n  pop\n  jump\t// out\n    /* \"#utility.yul\":4062:5414   */\ntag_7:\n    /* \"#utility.yul\":4182:4192   */\n  dup2\n  mload\n  sub(shl(0x40, 0x01), 0x01)\n    /* \"#utility.yul\":4204:4234   */\n  dup2\n  gt\n    /* \"#utility.yul\":4201:4257   */\n  iszero\n  tag_89\n  jumpi\n    /* \"#utility.yul\":4237:4255   */\n  tag_89\n  tag_38\n  jump\t// in\ntag_89:\n    /* \"#utility.yul\":4266:4363   */\n  tag_90\n    /* \"#utility.yul\":4356:4362   */\n  dup2\n    /* \"#utility.yul\":4316:4354   */\n  tag_91\n    /* \"#utility.yul\":4348:4352   */\n  dup5\n    /* \"#utility.yul\":4342:4353   */\n  sload\n    /* \"#utility.yul\":4316:4354   */\n  tag_31\n  jump\t// in\ntag_91:\n    /* \"#utility.yul\":4310:4314   */\n  dup5\n    /* \"#utility.yul\":4266:4363   */\n  tag_42\n  jump\t// in\ntag_90:\n    /* \"#utility.yul\":4418:4422   */\n  0x20\n  dup1\n    /* \"#utility.yul\":4482:4484   */\n  0x1f\n    /* \"#utility.yul\":4471:4485   */\n  dup4\n  gt\n    /* \"#utility.yul\":4499:4500   */\n  0x01\n    /* \"#utility.yul\":4494:5157   */\n  dup2\n  eq\n  tag_93\n  jumpi\n    /* \"#utility.yul\":5201:5202   */\n  0x00\n    /* \"#utility.yul\":5218:5224   */\n  dup5\n    /* \"#utility.yul\":5215:5304   */\n  iszero\n  tag_94\n  jumpi\n  pop\n    /* \"#utility.yul\":5270:5289   */\n  dup6\n  dup4\n  add\n    /* \"#utility.yul\":5264:5290   */\n  mload\n    /* \"#utility.yul\":5215:5304   */\ntag_94:\n  not(0x00)\n    /* \"#utility.yul\":4019:4020   */\n  0x03\n    /* \"#utility.yul\":4015:4026   */\n  dup7\n  swap1\n  shl\n    /* \"#utility.yul\":4011:4035   */\n  shr\n    /* \"#utility.yul\":4007:4036   */\n  not\n    /* \"#utility.yul\":3997:4037   */\n  and\n    /* \"#utility.yul\":4043:4044   */\n  0x01\n    /* \"#utility.yul\":4039:4050   */\n  dup6\n  swap1\n  shl\n    /* \"#utility.yul\":3994:4051   */\n  or\n    /* \"#utility.yul\":5317:5398   */\n  dup6\n  sstore\n    /* \"#utility.yul\":4464:5408   */\n  jump(tag_85)\n    /* \"#utility.yul\":4494:5157   */\ntag_93:\n    /* \"#utility.yul\":3288:3289   */\n  0x00\n    /* \"#utility.yul\":3281:3295   */\n  dup6\n  dup2\n  mstore\n    /* \"#utility.yul\":3325:3329   */\n  0x20\n    /* \"#utility.yul\":3312:3330   */\n  dup2\n  keccak256\n  not(0x1f)\n    /* \"#utility.yul\":4530:4550   */\n  dup7\n  and\n  swap2\n    /* \"#utility.yul\":4648:4884   */\ntag_97:\n    /* \"#utility.yul\":4662:4669   */\n  dup3\n    /* \"#utility.yul\":4659:4660   */\n  dup2\n    /* \"#utility.yul\":4656:4670   */\n  lt\n    /* \"#utility.yul\":4648:4884   */\n  iszero\n  tag_99\n  jumpi\n    /* \"#utility.yul\":4751:4770   */\n  dup9\n  dup7\n  add\n    /* \"#utility.yul\":4745:4771   */\n  mload\n    /* \"#utility.yul\":4730:4772   */\n  dup3\n  sstore\n    /* \"#utility.yul\":4843:4870   */\n  swap5\n  dup5\n  add\n  swap5\n    /* \"#utility.yul\":4811:4812   */\n  0x01\n    /* \"#utility.yul\":4799:4813   */\n  swap1\n  swap2\n  add\n  swap1\n    /* \"#utility.yul\":4678:4697   */\n  dup5\n  add\n    /* \"#utility.yul\":4648:4884   */\n  jump(tag_97)\ntag_99:\n    /* \"#utility.yul\":4652:4655   */\n  pop\n    /* \"#utility.yul\":4912:4918   */\n  dup6\n    /* \"#utility.yul\":4903:4910   */\n  dup3\n    /* \"#utility.yul\":4900:4919   */\n  lt\n    /* \"#utility.yul\":4897:5098   */\n  iszero\n  tag_100\n  jumpi\n    /* \"#utility.yul\":4973:4992   */\n  dup8\n  dup6\n  add\n    /* \"#utility.yul\":4967:4993   */\n  mload\n  not(0x00)\n    /* \"#utility.yul\":5056:5057   */\n  0x03\n    /* \"#utility.yul\":5052:5066   */\n  dup9\n  swap1\n  shl\n    /* \"#utility.yul\":5068:5071   */\n  0xf8\n    /* \"#utility.yul\":5048:5072   */\n  and\n    /* \"#utility.yul\":5044:5081   */\n  shr\n    /* \"#utility.yul\":5040:5082   */\n  not\n    /* \"#utility.yul\":5025:5083   */\n  and\n    /* \"#utility.yul\":5010:5084   */\n  dup2\n  sstore\n    /* \"#utility.yul\":4897:5098   */\ntag_100:\n  pop\n  pop\n  pop\n  pop\n  pop\n    /* \"#utility.yul\":5144:5145   */\n  0x01\n    /* \"#utility.yul\":5128:5142   */\n  swap1\n  dup2\n  shl\n    /* \"#utility.yul\":5124:5146   */\n  add\n    /* \"#utility.yul\":5111:5147   */\n  swap1\n  sstore\n  pop\n    /* \"#utility.yul\":4062:5414   */\n  jump\t// out\n    /* \"#utility.yul\":5551:5754   */\ntag_44:\n    /* \"Session.sol\":285:4991  contract Session {... */\n  dataSize(sub_0)\n  dup1\n  dataOffset(sub_0)\n  0x00\n  codecopy\n  0x00\n  return\nstop\n\nsub_0: assembly {\n        /* \"Session.sol\":285:4991  contract Session {... */\n      mstore(0x40, 0x80)\n      callvalue\n      dup1\n      iszero\n      tag_1\n      jumpi\n      0x00\n      dup1\n      revert\n    tag_1:\n      pop\n      jumpi(tag_2, lt(calldatasize, 0x04))\n      shr(0xe0, calldataload(0x00))\n      dup1\n      0xa7960a28\n      gt\n      tag_10\n      jumpi\n      dup1\n      0xa7960a28\n      eq\n      tag_6\n      jumpi\n      dup1\n      0xd270e7ab\n      eq\n      tag_7\n      jumpi\n      dup1\n      0xf8cb00bf\n      eq\n      tag_8\n      jumpi\n      dup1\n      0xfe0ae165\n      eq\n      tag_9\n      jumpi\n      0x00\n      dup1\n      revert\n    tag_10:\n      dup1\n      0x06f4bcbf\n      eq\n      tag_3\n      jumpi\n      dup1\n      0x0e973501\n      eq\n      tag_4\n      jumpi\n      dup1\n      0x494a0f3b\n      eq\n      tag_5\n      jumpi\n    tag_2:\n      0x00\n      dup1\n      revert\n        /* \"Session.sol\":2008:2095  function closeSession() public onlyAdmin {... */\n    tag_3:\n      tag_11\n      tag_12\n      jump\t// in\n    tag_11:\n      stop\n        /* \"Session.sol\":1594:1820  function updateSession(string memory _productName, string memory _description, string[] memory _images) public onlyAdmin {... */\n    tag_4:\n      tag_11\n      tag_14\n      calldatasize\n      0x04\n      tag_15\n      jump\t// in\n    tag_14:\n      tag_16\n      jump\t// in\n        /* \"Session.sol\":2710:3365  function calculateSuggestPrice(address _sessionAddress) public onlyAdmin view returns (uint) {... */\n    tag_5:\n      tag_17\n      tag_18\n      calldatasize\n      0x04\n      tag_19\n      jump\t// in\n    tag_18:\n      tag_20\n      jump\t// in\n    tag_17:\n      mload(0x40)\n        /* \"#utility.yul\":3068:3093   */\n      swap1\n      dup2\n      mstore\n        /* \"#utility.yul\":3056:3058   */\n      0x20\n        /* \"#utility.yul\":3041:3059   */\n      add\n        /* \"Session.sol\":2710:3365  function calculateSuggestPrice(address _sessionAddress) public onlyAdmin view returns (uint) {... */\n    tag_21:\n      mload(0x40)\n      dup1\n      swap2\n      sub\n      swap1\n      return\n        /* \"Session.sol\":2129:2420  function pricing(address _account, uint256 _price) public onlyParticipant onlyInProgress {... */\n    tag_6:\n      tag_11\n      tag_24\n      calldatasize\n      0x04\n      tag_25\n      jump\t// in\n    tag_24:\n      tag_26\n      jump\t// in\n        /* \"Session.sol\":387:414  address public mainContract */\n    tag_7:\n      sload(0x00)\n      tag_27\n      swap1\n      sub(shl(0xa0, 0x01), 0x01)\n      and\n      dup2\n      jump\n    tag_27:\n      mload(0x40)\n      sub(shl(0xa0, 0x01), 0x01)\n        /* \"#utility.yul\":3588:3620   */\n      swap1\n      swap2\n      and\n        /* \"#utility.yul\":3570:3621   */\n      dup2\n      mstore\n        /* \"#utility.yul\":3558:3560   */\n      0x20\n        /* \"#utility.yul\":3543:3561   */\n      add\n        /* \"Session.sol\":387:414  address public mainContract */\n      tag_21\n        /* \"#utility.yul\":3424:3627   */\n      jump\n        /* \"Session.sol\":2453:2672  function getSessionDetail() public view returns(string memory, string memory, string[] memory, uint256, uint256, uint8) {... */\n    tag_8:\n      tag_31\n      tag_32\n      jump\t// in\n    tag_31:\n      mload(0x40)\n      tag_21\n      swap7\n      swap6\n      swap5\n      swap4\n      swap3\n      swap2\n      swap1\n      tag_34\n      jump\t// in\n        /* \"Session.sol\":1882:1974  function startSession() public onlyAdmin {... */\n    tag_9:\n      tag_11\n      tag_36\n      jump\t// in\n        /* \"Session.sol\":2008:2095  function closeSession() public onlyAdmin {... */\n    tag_12:\n        /* \"Session.sol\":4505:4517  MainContract */\n      0x01\n      0x00\n      swap1\n      sload\n      swap1\n      0x0100\n      exp\n      swap1\n      div\n      sub(shl(0xa0, 0x01), 0x01)\n      and\n      sub(shl(0xa0, 0x01), 0x01)\n        /* \"Session.sol\":4505:4526  MainContract.getAdmin */\n      and\n      0x6e9960c3\n        /* \"Session.sol\":4505:4528  MainContract.getAdmin() */\n      mload(0x40)\n      dup2\n      0xffffffff\n      and\n      0xe0\n      shl\n      dup2\n      mstore\n      0x04\n      add\n      0x20\n      mload(0x40)\n      dup1\n      dup4\n      sub\n      dup2\n      dup7\n      gas\n      staticcall\n      iszero\n      dup1\n      iszero\n      tag_39\n      jumpi\n      returndatasize\n      0x00\n      dup1\n      returndatacopy\n      revert(0x00, returndatasize)\n    tag_39:\n      pop\n      pop\n      pop\n      pop\n      mload(0x40)\n      returndatasize\n      not(0x1f)\n      0x1f\n      dup3\n      add\n      and\n      dup3\n      add\n      dup1\n      0x40\n      mstore\n      pop\n      dup2\n      add\n      swap1\n      tag_40\n      swap2\n      swap1\n      tag_41\n      jump\t// in\n    tag_40:\n      sub(shl(0xa0, 0x01), 0x01)\n        /* \"Session.sol\":4491:4528  msg.sender == MainContract.getAdmin() */\n      and\n        /* \"Session.sol\":4491:4501  msg.sender */\n      caller\n      sub(shl(0xa0, 0x01), 0x01)\n        /* \"Session.sol\":4491:4528  msg.sender == MainContract.getAdmin() */\n      and\n      eq\n        /* \"Session.sol\":4483:4570  require(msg.sender == MainContract.getAdmin(), \"This function only admin can execute!\") */\n      tag_42\n      jumpi\n      mload(0x40)\n      shl(0xe5, 0x461bcd)\n      dup2\n      mstore\n      0x04\n      add\n      tag_43\n      swap1\n      tag_44\n      jump\t// in\n    tag_43:\n      mload(0x40)\n      dup1\n      swap2\n      sub\n      swap1\n      revert\n    tag_42:\n        /* \"Session.sol\":2059:2065  status */\n      0x07\n        /* \"Session.sol\":2059:2088  status = SESSION_STATUS.CLOSE */\n      dup1\n      sload\n        /* \"Session.sol\":2068:2088  SESSION_STATUS.CLOSE */\n      0x02\n      swap2\n        /* \"Session.sol\":2059:2065  status */\n      swap1\n      not(0xff)\n        /* \"Session.sol\":2059:2088  status = SESSION_STATUS.CLOSE */\n      and\n      0x01\n        /* \"Session.sol\":2068:2088  SESSION_STATUS.CLOSE */\n      dup4\n        /* \"Session.sol\":2059:2088  status = SESSION_STATUS.CLOSE */\n    tag_47:\n      mul\n      or\n      swap1\n      sstore\n      pop\n        /* \"Session.sol\":2008:2095  function closeSession() public onlyAdmin {... */\n      jump\t// out\n        /* \"Session.sol\":1594:1820  function updateSession(string memory _productName, string memory _description, string[] memory _images) public onlyAdmin {... */\n    tag_16:\n        /* \"Session.sol\":4505:4517  MainContract */\n      0x01\n      0x00\n      swap1\n      sload\n      swap1\n      0x0100\n      exp\n      swap1\n      div\n      sub(shl(0xa0, 0x01), 0x01)\n      and\n      sub(shl(0xa0, 0x01), 0x01)\n        /* \"Session.sol\":4505:4526  MainContract.getAdmin */\n      and\n      0x6e9960c3\n        /* \"Session.sol\":4505:4528  MainContract.getAdmin() */\n      mload(0x40)\n      dup2\n      0xffffffff\n      and\n      0xe0\n      shl\n      dup2\n      mstore\n      0x04\n      add\n      0x20\n      mload(0x40)\n      dup1\n      dup4\n      sub\n      dup2\n      dup7\n      gas\n      staticcall\n      iszero\n      dup1\n      iszero\n      tag_51\n      jumpi\n      returndatasize\n      0x00\n      dup1\n      returndatacopy\n      revert(0x00, returndatasize)\n    tag_51:\n      pop\n      pop\n      pop\n      pop\n      mload(0x40)\n      returndatasize\n      not(0x1f)\n      0x1f\n      dup3\n      add\n      and\n      dup3\n      add\n      dup1\n      0x40\n      mstore\n      pop\n      dup2\n      add\n      swap1\n      tag_52\n      swap2\n      swap1\n      tag_41\n      jump\t// in\n    tag_52:\n      sub(shl(0xa0, 0x01), 0x01)\n        /* \"Session.sol\":4491:4528  msg.sender == MainContract.getAdmin() */\n      and\n        /* \"Session.sol\":4491:4501  msg.sender */\n      caller\n      sub(shl(0xa0, 0x01), 0x01)\n        /* \"Session.sol\":4491:4528  msg.sender == MainContract.getAdmin() */\n      and\n      eq\n        /* \"Session.sol\":4483:4570  require(msg.sender == MainContract.getAdmin(), \"This function only admin can execute!\") */\n      tag_53\n      jumpi\n      mload(0x40)\n      shl(0xe5, 0x461bcd)\n      dup2\n      mstore\n      0x04\n      add\n      tag_43\n      swap1\n      tag_44\n      jump\t// in\n    tag_53:\n        /* \"Session.sol\":1725:1736  productName */\n      0x02\n        /* \"Session.sol\":1725:1751  productName = _productName */\n      tag_56\n        /* \"Session.sol\":1739:1751  _productName */\n      dup5\n        /* \"Session.sol\":1725:1736  productName */\n      dup3\n        /* \"Session.sol\":1725:1751  productName = _productName */\n      tag_57\n      jump\t// in\n    tag_56:\n      pop\n        /* \"Session.sol\":1761:1772  description */\n      0x03\n        /* \"Session.sol\":1761:1787  description = _description */\n      tag_58\n        /* \"Session.sol\":1775:1787  _description */\n      dup4\n        /* \"Session.sol\":1761:1772  description */\n      dup3\n        /* \"Session.sol\":1761:1787  description = _description */\n      tag_57\n      jump\t// in\n    tag_58:\n      pop\n        /* \"Session.sol\":1797:1813  images = _images */\n      dup1\n      mload\n      tag_59\n      swap1\n        /* \"Session.sol\":1797:1803  images */\n      0x04\n      swap1\n        /* \"Session.sol\":1797:1813  images = _images */\n      0x20\n      dup5\n      add\n      swap1\n      tag_60\n      jump\t// in\n    tag_59:\n      pop\n        /* \"Session.sol\":1594:1820  function updateSession(string memory _productName, string memory _description, string[] memory _images) public onlyAdmin {... */\n      pop\n      pop\n      pop\n      jump\t// out\n        /* \"Session.sol\":2710:3365  function calculateSuggestPrice(address _sessionAddress) public onlyAdmin view returns (uint) {... */\n    tag_20:\n        /* \"Session.sol\":4505:4517  MainContract */\n      sload(0x01)\n        /* \"Session.sol\":4505:4528  MainContract.getAdmin() */\n      0x40\n      dup1\n      mload\n      shl(0xe0, 0x6e9960c3)\n      dup2\n      mstore\n      swap1\n      mload\n        /* \"Session.sol\":2797:2801  uint */\n      0x00\n      swap3\n      sub(shl(0xa0, 0x01), 0x01)\n        /* \"Session.sol\":4505:4517  MainContract */\n      and\n      swap2\n        /* \"Session.sol\":4505:4526  MainContract.getAdmin */\n      0x6e9960c3\n      swap2\n        /* \"Session.sol\":4505:4528  MainContract.getAdmin() */\n      0x04\n      dup1\n      dup4\n      add\n      swap3\n      0x20\n      swap3\n      swap2\n      swap1\n      dup3\n      swap1\n      sub\n      add\n      dup2\n        /* \"Session.sol\":4505:4517  MainContract */\n      dup7\n        /* \"Session.sol\":4505:4528  MainContract.getAdmin() */\n      gas\n      staticcall\n      iszero\n      dup1\n      iszero\n      tag_63\n      jumpi\n      returndatasize\n      0x00\n      dup1\n      returndatacopy\n      revert(0x00, returndatasize)\n    tag_63:\n      pop\n      pop\n      pop\n      pop\n      mload(0x40)\n      returndatasize\n      not(0x1f)\n      0x1f\n      dup3\n      add\n      and\n      dup3\n      add\n      dup1\n      0x40\n      mstore\n      pop\n      dup2\n      add\n      swap1\n      tag_64\n      swap2\n      swap1\n      tag_41\n      jump\t// in\n    tag_64:\n      sub(shl(0xa0, 0x01), 0x01)\n        /* \"Session.sol\":4491:4528  msg.sender == MainContract.getAdmin() */\n      and\n        /* \"Session.sol\":4491:4501  msg.sender */\n      caller\n      sub(shl(0xa0, 0x01), 0x01)\n        /* \"Session.sol\":4491:4528  msg.sender == MainContract.getAdmin() */\n      and\n      eq\n        /* \"Session.sol\":4483:4570  require(msg.sender == MainContract.getAdmin(), \"This function only admin can execute!\") */\n      tag_65\n      jumpi\n      mload(0x40)\n      shl(0xe5, 0x461bcd)\n      dup2\n      mstore\n      0x04\n      add\n      tag_43\n      swap1\n      tag_44\n      jump\t// in\n    tag_65:\n      pop\n        /* \"Session.sol\":2939:2940  1 */\n      0x01\n        /* \"Session.sol\":2710:3365  function calculateSuggestPrice(address _sessionAddress) public onlyAdmin view returns (uint) {... */\n      swap2\n      swap1\n      pop\n      jump\t// out\n        /* \"Session.sol\":2129:2420  function pricing(address _account, uint256 _price) public onlyParticipant onlyInProgress {... */\n    tag_26:\n        /* \"Session.sol\":4733:4745  MainContract */\n      0x01\n      0x00\n      swap1\n      sload\n      swap1\n      0x0100\n      exp\n      swap1\n      div\n      sub(shl(0xa0, 0x01), 0x01)\n      and\n      sub(shl(0xa0, 0x01), 0x01)\n        /* \"Session.sol\":4733:4754  MainContract.getAdmin */\n      and\n      0x6e9960c3\n        /* \"Session.sol\":4733:4756  MainContract.getAdmin() */\n      mload(0x40)\n      dup2\n      0xffffffff\n      and\n      0xe0\n      shl\n      dup2\n      mstore\n      0x04\n      add\n      0x20\n      mload(0x40)\n      dup1\n      dup4\n      sub\n      dup2\n      dup7\n      gas\n      staticcall\n      iszero\n      dup1\n      iszero\n      tag_70\n      jumpi\n      returndatasize\n      0x00\n      dup1\n      returndatacopy\n      revert(0x00, returndatasize)\n    tag_70:\n      pop\n      pop\n      pop\n      pop\n      mload(0x40)\n      returndatasize\n      not(0x1f)\n      0x1f\n      dup3\n      add\n      and\n      dup3\n      add\n      dup1\n      0x40\n      mstore\n      pop\n      dup2\n      add\n      swap1\n      tag_71\n      swap2\n      swap1\n      tag_41\n      jump\t// in\n    tag_71:\n      sub(shl(0xa0, 0x01), 0x01)\n        /* \"Session.sol\":4719:4756  msg.sender != MainContract.getAdmin() */\n      and\n        /* \"Session.sol\":4719:4729  msg.sender */\n      caller\n        /* \"Session.sol\":4719:4756  msg.sender != MainContract.getAdmin() */\n      sub\n        /* \"Session.sol\":4711:4804  require(msg.sender != MainContract.getAdmin(), \"This function only participant can execute!\") */\n      tag_72\n      jumpi\n      mload(0x40)\n      shl(0xe5, 0x461bcd)\n      dup2\n      mstore\n        /* \"#utility.yul\":9044:9046   */\n      0x20\n        /* \"Session.sol\":4711:4804  require(msg.sender != MainContract.getAdmin(), \"This function only participant can execute!\") */\n      0x04\n      dup3\n      add\n        /* \"#utility.yul\":9026:9047   */\n      mstore\n        /* \"#utility.yul\":9083:9085   */\n      0x2b\n        /* \"#utility.yul\":9063:9081   */\n      0x24\n      dup3\n      add\n        /* \"#utility.yul\":9056:9086   */\n      mstore\n        /* \"#utility.yul\":9122:9156   */\n      0x546869732066756e6374696f6e206f6e6c79207061727469636970616e742063\n        /* \"#utility.yul\":9102:9120   */\n      0x44\n      dup3\n      add\n        /* \"#utility.yul\":9095:9157   */\n      mstore\n      shl(0xa8, 0x616e206578656375746521)\n        /* \"#utility.yul\":9173:9191   */\n      0x64\n      dup3\n      add\n        /* \"#utility.yul\":9166:9207   */\n      mstore\n        /* \"#utility.yul\":9224:9243   */\n      0x84\n      add\n        /* \"Session.sol\":4711:4804  require(msg.sender != MainContract.getAdmin(), \"This function only participant can execute!\") */\n      tag_43\n        /* \"#utility.yul\":8842:9249   */\n      jump\n        /* \"Session.sol\":4711:4804  require(msg.sender != MainContract.getAdmin(), \"This function only participant can execute!\") */\n    tag_72:\n        /* \"Session.sol\":4337:4362  SESSION_STATUS.INPROGRESS */\n      0x01\n        /* \"Session.sol\":4327:4333  status */\n      and(0xff, sload(0x07))\n        /* \"Session.sol\":4327:4362  status == SESSION_STATUS.INPROGRESS */\n      0x02\n      dup2\n      gt\n      iszero\n      tag_79\n      jumpi\n      tag_79\n      tag_48\n      jump\t// in\n    tag_79:\n      eq\n        /* \"Session.sol\":4319:4393  require(status == SESSION_STATUS.INPROGRESS, \"Session is not in progress\") */\n      tag_80\n      jumpi\n      mload(0x40)\n      shl(0xe5, 0x461bcd)\n      dup2\n      mstore\n        /* \"#utility.yul\":9456:9458   */\n      0x20\n        /* \"Session.sol\":4319:4393  require(status == SESSION_STATUS.INPROGRESS, \"Session is not in progress\") */\n      0x04\n      dup3\n      add\n        /* \"#utility.yul\":9438:9459   */\n      mstore\n        /* \"#utility.yul\":9495:9497   */\n      0x1a\n        /* \"#utility.yul\":9475:9493   */\n      0x24\n      dup3\n      add\n        /* \"#utility.yul\":9468:9498   */\n      mstore\n        /* \"#utility.yul\":9534:9562   */\n      0x53657373696f6e206973206e6f7420696e2070726f6772657373000000000000\n        /* \"#utility.yul\":9514:9532   */\n      0x44\n      dup3\n      add\n        /* \"#utility.yul\":9507:9563   */\n      mstore\n        /* \"#utility.yul\":9580:9598   */\n      0x64\n      add\n        /* \"Session.sol\":4319:4393  require(status == SESSION_STATUS.INPROGRESS, \"Session is not in progress\") */\n      tag_43\n        /* \"#utility.yul\":9254:9604   */\n      jump\n        /* \"Session.sol\":4319:4393  require(status == SESSION_STATUS.INPROGRESS, \"Session is not in progress\") */\n    tag_80:\n      sub(shl(0xa0, 0x01), 0x01)\n        /* \"Session.sol\":2228:2260  mapParticipantPricings[_account] */\n      dup3\n      and\n      0x00\n      swap1\n      dup2\n      mstore\n        /* \"Session.sol\":2228:2250  mapParticipantPricings */\n      0x08\n        /* \"Session.sol\":2228:2260  mapParticipantPricings[_account] */\n      0x20\n      mstore\n      0x40\n      dup2\n      keccak256\n        /* \"Session.sol\":2228:2269  mapParticipantPricings[_account] = _price */\n      dup3\n      swap1\n      sstore\n        /* \"Session.sol\":2284:2321  mapParticipantPricings[_account] == 0 */\n      dup2\n      swap1\n      sub\n        /* \"Session.sol\":2280:2414  if (mapParticipantPricings[_account] == 0) {... */\n      tag_84\n      jumpi\n        /* \"Session.sol\":2369:2388  participantPricings */\n      0x09\n        /* \"Session.sol\":2369:2403  participantPricings.push(_account) */\n      dup1\n      sload\n      0x01\n      dup2\n      add\n      dup3\n      sstore\n      0x00\n      swap2\n      swap1\n      swap2\n      mstore\n      0x6e1540171b6c0c960b71a7020d9f60077f6af931a8bbf590da0223dacf75c7af\n      add\n      dup1\n      sload\n      not(sub(shl(0xa0, 0x01), 0x01))\n      and\n      sub(shl(0xa0, 0x01), 0x01)\n      dup5\n      and\n      or\n      swap1\n      sstore\n        /* \"Session.sol\":2280:2414  if (mapParticipantPricings[_account] == 0) {... */\n    tag_84:\n        /* \"Session.sol\":2129:2420  function pricing(address _account, uint256 _price) public onlyParticipant onlyInProgress {... */\n      pop\n      pop\n      jump\t// out\n        /* \"Session.sol\":2453:2672  function getSessionDetail() public view returns(string memory, string memory, string[] memory, uint256, uint256, uint8) {... */\n    tag_32:\n        /* \"Session.sol\":2501:2514  string memory */\n      0x60\n        /* \"Session.sol\":2516:2529  string memory */\n      dup1\n        /* \"Session.sol\":2531:2546  string[] memory */\n      0x60\n        /* \"Session.sol\":2548:2555  uint256 */\n      0x00\n        /* \"Session.sol\":2557:2564  uint256 */\n      dup1\n        /* \"Session.sol\":2566:2571  uint8 */\n      0x00\n        /* \"Session.sol\":2591:2602  productName */\n      0x02\n        /* \"Session.sol\":2604:2615  description */\n      0x03\n        /* \"Session.sol\":2617:2623  images */\n      0x04\n        /* \"Session.sol\":2625:2637  suggestPrice */\n      sload(0x05)\n        /* \"Session.sol\":2639:2649  finalPrice */\n      sload(0x06)\n        /* \"Session.sol\":2657:2663  status */\n      0x07\n      0x00\n      swap1\n      sload\n      swap1\n      0x0100\n      exp\n      swap1\n      div\n      0xff\n      and\n        /* \"Session.sol\":2651:2664  uint8(status) */\n      0x02\n      dup2\n      gt\n      iszero\n      tag_88\n      jumpi\n      tag_88\n      tag_48\n      jump\t// in\n    tag_88:\n        /* \"Session.sol\":2583:2665  return (productName, description, images, suggestPrice, finalPrice, uint8(status)) */\n      dup6\n      dup1\n      sload\n      tag_89\n      swap1\n      tag_90\n      jump\t// in\n    tag_89:\n      dup1\n      0x1f\n      add\n      0x20\n      dup1\n      swap2\n      div\n      mul\n      0x20\n      add\n      mload(0x40)\n      swap1\n      dup2\n      add\n      0x40\n      mstore\n      dup1\n      swap3\n      swap2\n      swap1\n      dup2\n      dup2\n      mstore\n      0x20\n      add\n      dup3\n      dup1\n      sload\n      tag_91\n      swap1\n      tag_90\n      jump\t// in\n    tag_91:\n      dup1\n      iszero\n      tag_92\n      jumpi\n      dup1\n      0x1f\n      lt\n      tag_93\n      jumpi\n      0x0100\n      dup1\n      dup4\n      sload\n      div\n      mul\n      dup4\n      mstore\n      swap2\n      0x20\n      add\n      swap2\n      jump(tag_92)\n    tag_93:\n      dup3\n      add\n      swap2\n      swap1\n      0x00\n      mstore\n      keccak256(0x00, 0x20)\n      swap1\n    tag_94:\n      dup2\n      sload\n      dup2\n      mstore\n      swap1\n      0x01\n      add\n      swap1\n      0x20\n      add\n      dup1\n      dup4\n      gt\n      tag_94\n      jumpi\n      dup3\n      swap1\n      sub\n      0x1f\n      and\n      dup3\n      add\n      swap2\n    tag_92:\n      pop\n      pop\n      pop\n      pop\n      pop\n      swap6\n      pop\n      dup5\n      dup1\n      sload\n      tag_95\n      swap1\n      tag_90\n      jump\t// in\n    tag_95:\n      dup1\n      0x1f\n      add\n      0x20\n      dup1\n      swap2\n      div\n      mul\n      0x20\n      add\n      mload(0x40)\n      swap1\n      dup2\n      add\n      0x40\n      mstore\n      dup1\n      swap3\n      swap2\n      swap1\n      dup2\n      dup2\n      mstore\n      0x20\n      add\n      dup3\n      dup1\n      sload\n      tag_96\n      swap1\n      tag_90\n      jump\t// in\n    tag_96:\n      dup1\n      iszero\n      tag_97\n      jumpi\n      dup1\n      0x1f\n      lt\n      tag_98\n      jumpi\n      0x0100\n      dup1\n      dup4\n      sload\n      div\n      mul\n      dup4\n      mstore\n      swap2\n      0x20\n      add\n      swap2\n      jump(tag_97)\n    tag_98:\n      dup3\n      add\n      swap2\n      swap1\n      0x00\n      mstore\n      keccak256(0x00, 0x20)\n      swap1\n    tag_99:\n      dup2\n      sload\n      dup2\n      mstore\n      swap1\n      0x01\n      add\n      swap1\n      0x20\n      add\n      dup1\n      dup4\n      gt\n      tag_99\n      jumpi\n      dup3\n      swap1\n      sub\n      0x1f\n      and\n      dup3\n      add\n      swap2\n    tag_97:\n      pop\n      pop\n      pop\n      pop\n      pop\n      swap5\n      pop\n      dup4\n      dup1\n      sload\n      dup1\n      0x20\n      mul\n      0x20\n      add\n      mload(0x40)\n      swap1\n      dup2\n      add\n      0x40\n      mstore\n      dup1\n      swap3\n      swap2\n      swap1\n      dup2\n      dup2\n      mstore\n      0x20\n      add\n      0x00\n      swap1\n    tag_100:\n      dup3\n      dup3\n      lt\n      iszero\n      tag_101\n      jumpi\n      dup4\n      dup3\n      swap1\n      0x00\n      mstore\n      keccak256(0x00, 0x20)\n      add\n      dup1\n      sload\n      tag_103\n      swap1\n      tag_90\n      jump\t// in\n    tag_103:\n      dup1\n      0x1f\n      add\n      0x20\n      dup1\n      swap2\n      div\n      mul\n      0x20\n      add\n      mload(0x40)\n      swap1\n      dup2\n      add\n      0x40\n      mstore\n      dup1\n      swap3\n      swap2\n      swap1\n      dup2\n      dup2\n      mstore\n      0x20\n      add\n      dup3\n      dup1\n      sload\n      tag_104\n      swap1\n      tag_90\n      jump\t// in\n    tag_104:\n      dup1\n      iszero\n      tag_105\n      jumpi\n      dup1\n      0x1f\n      lt\n      tag_106\n      jumpi\n      0x0100\n      dup1\n      dup4\n      sload\n      div\n      mul\n      dup4\n      mstore\n      swap2\n      0x20\n      add\n      swap2\n      jump(tag_105)\n    tag_106:\n      dup3\n      add\n      swap2\n      swap1\n      0x00\n      mstore\n      keccak256(0x00, 0x20)\n      swap1\n    tag_107:\n      dup2\n      sload\n      dup2\n      mstore\n      swap1\n      0x01\n      add\n      swap1\n      0x20\n      add\n      dup1\n      dup4\n      gt\n      tag_107\n      jumpi\n      dup3\n      swap1\n      sub\n      0x1f\n      and\n      dup3\n      add\n      swap2\n    tag_105:\n      pop\n      pop\n      pop\n      pop\n      pop\n      dup2\n      mstore\n      0x20\n      add\n      swap1\n      0x01\n      add\n      swap1\n      jump(tag_100)\n    tag_101:\n      pop\n      pop\n      pop\n      pop\n      swap4\n      pop\n      swap6\n      pop\n      swap6\n      pop\n      swap6\n      pop\n      swap6\n      pop\n      swap6\n      pop\n      swap6\n      pop\n        /* \"Session.sol\":2453:2672  function getSessionDetail() public view returns(string memory, string memory, string[] memory, uint256, uint256, uint8) {... */\n      swap1\n      swap2\n      swap3\n      swap4\n      swap5\n      swap6\n      jump\t// out\n        /* \"Session.sol\":1882:1974  function startSession() public onlyAdmin {... */\n    tag_36:\n        /* \"Session.sol\":4505:4517  MainContract */\n      0x01\n      0x00\n      swap1\n      sload\n      swap1\n      0x0100\n      exp\n      swap1\n      div\n      sub(shl(0xa0, 0x01), 0x01)\n      and\n      sub(shl(0xa0, 0x01), 0x01)\n        /* \"Session.sol\":4505:4526  MainContract.getAdmin */\n      and\n      0x6e9960c3\n        /* \"Session.sol\":4505:4528  MainContract.getAdmin() */\n      mload(0x40)\n      dup2\n      0xffffffff\n      and\n      0xe0\n      shl\n      dup2\n      mstore\n      0x04\n      add\n      0x20\n      mload(0x40)\n      dup1\n      dup4\n      sub\n      dup2\n      dup7\n      gas\n      staticcall\n      iszero\n      dup1\n      iszero\n      tag_110\n      jumpi\n      returndatasize\n      0x00\n      dup1\n      returndatacopy\n      revert(0x00, returndatasize)\n    tag_110:\n      pop\n      pop\n      pop\n      pop\n      mload(0x40)\n      returndatasize\n      not(0x1f)\n      0x1f\n      dup3\n      add\n      and\n      dup3\n      add\n      dup1\n      0x40\n      mstore\n      pop\n      dup2\n      add\n      swap1\n      tag_111\n      swap2\n      swap1\n      tag_41\n      jump\t// in\n    tag_111:\n      sub(shl(0xa0, 0x01), 0x01)\n        /* \"Session.sol\":4491:4528  msg.sender == MainContract.getAdmin() */\n      and\n        /* \"Session.sol\":4491:4501  msg.sender */\n      caller\n      sub(shl(0xa0, 0x01), 0x01)\n        /* \"Session.sol\":4491:4528  msg.sender == MainContract.getAdmin() */\n      and\n      eq\n        /* \"Session.sol\":4483:4570  require(msg.sender == MainContract.getAdmin(), \"This function only admin can execute!\") */\n      tag_112\n      jumpi\n      mload(0x40)\n      shl(0xe5, 0x461bcd)\n      dup2\n      mstore\n      0x04\n      add\n      tag_43\n      swap1\n      tag_44\n      jump\t// in\n    tag_112:\n        /* \"Session.sol\":1933:1939  status */\n      0x07\n        /* \"Session.sol\":1933:1967  status = SESSION_STATUS.INPROGRESS */\n      dup1\n      sload\n        /* \"Session.sol\":1942:1967  SESSION_STATUS.INPROGRESS */\n      0x01\n      swap2\n        /* \"Session.sol\":1933:1939  status */\n      swap1\n      not(0xff)\n        /* \"Session.sol\":1933:1967  status = SESSION_STATUS.INPROGRESS */\n      and\n        /* \"Session.sol\":1942:1967  SESSION_STATUS.INPROGRESS */\n      dup3\n      dup1\n        /* \"Session.sol\":1933:1967  status = SESSION_STATUS.INPROGRESS */\n      jump(tag_47)\n    tag_60:\n      dup3\n      dup1\n      sload\n      dup3\n      dup3\n      sstore\n      swap1\n      0x00\n      mstore\n      keccak256(0x00, 0x20)\n      swap1\n      dup2\n      add\n      swap3\n      dup3\n      iszero\n      tag_119\n      jumpi\n      swap2\n      0x20\n      mul\n      dup3\n      add\n    tag_118:\n      dup3\n      dup2\n      gt\n      iszero\n      tag_119\n      jumpi\n      dup3\n      mload\n      dup3\n      swap1\n      tag_120\n      swap1\n      dup3\n      tag_57\n      jump\t// in\n    tag_120:\n      pop\n      swap2\n      0x20\n      add\n      swap2\n      swap1\n      0x01\n      add\n      swap1\n      jump(tag_118)\n    tag_119:\n      pop\n      tag_121\n      swap3\n      swap2\n      pop\n      tag_122\n      jump\t// in\n    tag_121:\n      pop\n      swap1\n      jump\t// out\n    tag_122:\n      dup1\n      dup3\n      gt\n      iszero\n      tag_121\n      jumpi\n      0x00\n      tag_125\n      dup3\n      dup3\n      tag_126\n      jump\t// in\n    tag_125:\n      pop\n      0x01\n      add\n      jump(tag_122)\n    tag_126:\n      pop\n      dup1\n      sload\n      tag_127\n      swap1\n      tag_90\n      jump\t// in\n    tag_127:\n      0x00\n      dup3\n      sstore\n      dup1\n      0x1f\n      lt\n      tag_129\n      jumpi\n      pop\n      pop\n      jump\t// out\n    tag_129:\n      0x1f\n      add\n      0x20\n      swap1\n      div\n      swap1\n      0x00\n      mstore\n      keccak256(0x00, 0x20)\n      swap1\n      dup2\n      add\n      swap1\n      tag_130\n      swap2\n      swap1\n      tag_131\n      jump\t// in\n    tag_130:\n      pop\n      jump\t// out\n    tag_131:\n    tag_132:\n      dup1\n      dup3\n      gt\n      iszero\n      tag_121\n      jumpi\n      0x00\n      dup2\n      sstore\n      0x01\n      add\n      jump(tag_132)\n        /* \"#utility.yul\":14:141   */\n    tag_134:\n        /* \"#utility.yul\":75:85   */\n      0x4e487b71\n        /* \"#utility.yul\":70:73   */\n      0xe0\n        /* \"#utility.yul\":66:86   */\n      shl\n        /* \"#utility.yul\":63:64   */\n      0x00\n        /* \"#utility.yul\":56:87   */\n      mstore\n        /* \"#utility.yul\":106:110   */\n      0x41\n        /* \"#utility.yul\":103:104   */\n      0x04\n        /* \"#utility.yul\":96:111   */\n      mstore\n        /* \"#utility.yul\":130:134   */\n      0x24\n        /* \"#utility.yul\":127:128   */\n      0x00\n        /* \"#utility.yul\":120:135   */\n      revert\n        /* \"#utility.yul\":146:421   */\n    tag_135:\n        /* \"#utility.yul\":217:219   */\n      0x40\n        /* \"#utility.yul\":211:220   */\n      mload\n        /* \"#utility.yul\":282:284   */\n      0x1f\n        /* \"#utility.yul\":263:276   */\n      dup3\n      add\n      not(0x1f)\n        /* \"#utility.yul\":259:286   */\n      and\n        /* \"#utility.yul\":247:287   */\n      dup2\n      add\n        /* \"#utility.yul\":317:335   */\n      0xffffffffffffffff\n        /* \"#utility.yul\":302:336   */\n      dup2\n      gt\n        /* \"#utility.yul\":338:360   */\n      dup3\n      dup3\n      lt\n        /* \"#utility.yul\":299:361   */\n      or\n        /* \"#utility.yul\":296:384   */\n      iszero\n      tag_147\n      jumpi\n        /* \"#utility.yul\":364:382   */\n      tag_147\n      tag_134\n      jump\t// in\n    tag_147:\n        /* \"#utility.yul\":400:402   */\n      0x40\n        /* \"#utility.yul\":393:415   */\n      mstore\n        /* \"#utility.yul\":146:421   */\n      swap2\n      swap1\n      pop\n      jump\t// out\n        /* \"#utility.yul\":426:957   */\n    tag_136:\n        /* \"#utility.yul\":469:474   */\n      0x00\n        /* \"#utility.yul\":522:525   */\n      dup3\n        /* \"#utility.yul\":515:519   */\n      0x1f\n        /* \"#utility.yul\":507:513   */\n      dup4\n        /* \"#utility.yul\":503:520   */\n      add\n        /* \"#utility.yul\":499:526   */\n      slt\n        /* \"#utility.yul\":489:544   */\n      tag_149\n      jumpi\n        /* \"#utility.yul\":540:541   */\n      0x00\n        /* \"#utility.yul\":537:538   */\n      dup1\n        /* \"#utility.yul\":530:542   */\n      revert\n        /* \"#utility.yul\":489:544   */\n    tag_149:\n        /* \"#utility.yul\":576:582   */\n      dup2\n        /* \"#utility.yul\":563:583   */\n      calldataload\n        /* \"#utility.yul\":602:620   */\n      0xffffffffffffffff\n        /* \"#utility.yul\":598:600   */\n      dup2\n        /* \"#utility.yul\":595:621   */\n      gt\n        /* \"#utility.yul\":592:644   */\n      iszero\n      tag_151\n      jumpi\n        /* \"#utility.yul\":624:642   */\n      tag_151\n      tag_134\n      jump\t// in\n    tag_151:\n        /* \"#utility.yul\":668:723   */\n      tag_152\n        /* \"#utility.yul\":711:713   */\n      0x1f\n        /* \"#utility.yul\":692:705   */\n      dup3\n      add\n      not(0x1f)\n        /* \"#utility.yul\":688:715   */\n      and\n        /* \"#utility.yul\":717:721   */\n      0x20\n        /* \"#utility.yul\":684:722   */\n      add\n        /* \"#utility.yul\":668:723   */\n      tag_135\n      jump\t// in\n    tag_152:\n        /* \"#utility.yul\":748:750   */\n      dup2\n        /* \"#utility.yul\":739:746   */\n      dup2\n        /* \"#utility.yul\":732:751   */\n      mstore\n        /* \"#utility.yul\":794:797   */\n      dup5\n        /* \"#utility.yul\":787:791   */\n      0x20\n        /* \"#utility.yul\":782:784   */\n      dup4\n        /* \"#utility.yul\":774:780   */\n      dup7\n        /* \"#utility.yul\":770:785   */\n      add\n        /* \"#utility.yul\":766:792   */\n      add\n        /* \"#utility.yul\":763:798   */\n      gt\n        /* \"#utility.yul\":760:815   */\n      iszero\n      tag_153\n      jumpi\n        /* \"#utility.yul\":811:812   */\n      0x00\n        /* \"#utility.yul\":808:809   */\n      dup1\n        /* \"#utility.yul\":801:813   */\n      revert\n        /* \"#utility.yul\":760:815   */\n    tag_153:\n        /* \"#utility.yul\":876:878   */\n      dup2\n        /* \"#utility.yul\":869:873   */\n      0x20\n        /* \"#utility.yul\":861:867   */\n      dup6\n        /* \"#utility.yul\":857:874   */\n      add\n        /* \"#utility.yul\":850:854   */\n      0x20\n        /* \"#utility.yul\":841:848   */\n      dup4\n        /* \"#utility.yul\":837:855   */\n      add\n        /* \"#utility.yul\":824:879   */\n      calldatacopy\n        /* \"#utility.yul\":924:925   */\n      0x00\n        /* \"#utility.yul\":899:915   */\n      swap2\n      dup2\n      add\n        /* \"#utility.yul\":917:921   */\n      0x20\n        /* \"#utility.yul\":895:922   */\n      add\n        /* \"#utility.yul\":888:926   */\n      swap2\n      swap1\n      swap2\n      mstore\n        /* \"#utility.yul\":903:910   */\n      swap4\n        /* \"#utility.yul\":426:957   */\n      swap3\n      pop\n      pop\n      pop\n      jump\t// out\n        /* \"#utility.yul\":962:2529   */\n    tag_15:\n        /* \"#utility.yul\":1094:1100   */\n      0x00\n        /* \"#utility.yul\":1102:1108   */\n      dup1\n        /* \"#utility.yul\":1110:1116   */\n      0x00\n        /* \"#utility.yul\":1163:1165   */\n      0x60\n        /* \"#utility.yul\":1151:1160   */\n      dup5\n        /* \"#utility.yul\":1142:1149   */\n      dup7\n        /* \"#utility.yul\":1138:1161   */\n      sub\n        /* \"#utility.yul\":1134:1166   */\n      slt\n        /* \"#utility.yul\":1131:1183   */\n      iszero\n      tag_155\n      jumpi\n        /* \"#utility.yul\":1179:1180   */\n      0x00\n        /* \"#utility.yul\":1176:1177   */\n      dup1\n        /* \"#utility.yul\":1169:1181   */\n      revert\n        /* \"#utility.yul\":1131:1183   */\n    tag_155:\n        /* \"#utility.yul\":1219:1228   */\n      dup4\n        /* \"#utility.yul\":1206:1229   */\n      calldataload\n        /* \"#utility.yul\":1248:1266   */\n      0xffffffffffffffff\n        /* \"#utility.yul\":1289:1291   */\n      dup1\n        /* \"#utility.yul\":1281:1287   */\n      dup3\n        /* \"#utility.yul\":1278:1292   */\n      gt\n        /* \"#utility.yul\":1275:1309   */\n      iszero\n      tag_156\n      jumpi\n        /* \"#utility.yul\":1305:1306   */\n      0x00\n        /* \"#utility.yul\":1302:1303   */\n      dup1\n        /* \"#utility.yul\":1295:1307   */\n      revert\n        /* \"#utility.yul\":1275:1309   */\n    tag_156:\n        /* \"#utility.yul\":1328:1378   */\n      tag_157\n        /* \"#utility.yul\":1370:1377   */\n      dup8\n        /* \"#utility.yul\":1361:1367   */\n      dup4\n        /* \"#utility.yul\":1350:1359   */\n      dup9\n        /* \"#utility.yul\":1346:1368   */\n      add\n        /* \"#utility.yul\":1328:1378   */\n      tag_136\n      jump\t// in\n    tag_157:\n        /* \"#utility.yul\":1318:1378   */\n      swap5\n      pop\n        /* \"#utility.yul\":1397:1399   */\n      0x20\n        /* \"#utility.yul\":1387:1399   */\n      swap2\n      pop\n        /* \"#utility.yul\":1452:1454   */\n      dup2\n        /* \"#utility.yul\":1441:1450   */\n      dup7\n        /* \"#utility.yul\":1437:1455   */\n      add\n        /* \"#utility.yul\":1424:1456   */\n      calldataload\n        /* \"#utility.yul\":1481:1483   */\n      dup2\n        /* \"#utility.yul\":1471:1479   */\n      dup2\n        /* \"#utility.yul\":1468:1484   */\n      gt\n        /* \"#utility.yul\":1465:1501   */\n      iszero\n      tag_158\n      jumpi\n        /* \"#utility.yul\":1497:1498   */\n      0x00\n        /* \"#utility.yul\":1494:1495   */\n      dup1\n        /* \"#utility.yul\":1487:1499   */\n      revert\n        /* \"#utility.yul\":1465:1501   */\n    tag_158:\n        /* \"#utility.yul\":1520:1572   */\n      tag_159\n        /* \"#utility.yul\":1564:1571   */\n      dup9\n        /* \"#utility.yul\":1553:1561   */\n      dup3\n        /* \"#utility.yul\":1542:1551   */\n      dup10\n        /* \"#utility.yul\":1538:1562   */\n      add\n        /* \"#utility.yul\":1520:1572   */\n      tag_136\n      jump\t// in\n    tag_159:\n        /* \"#utility.yul\":1510:1572   */\n      swap5\n      pop\n      pop\n        /* \"#utility.yul\":1625:1627   */\n      0x40\n        /* \"#utility.yul\":1614:1623   */\n      dup7\n        /* \"#utility.yul\":1610:1628   */\n      add\n        /* \"#utility.yul\":1597:1629   */\n      calldataload\n        /* \"#utility.yul\":1654:1656   */\n      dup2\n        /* \"#utility.yul\":1644:1652   */\n      dup2\n        /* \"#utility.yul\":1641:1657   */\n      gt\n        /* \"#utility.yul\":1638:1674   */\n      iszero\n      tag_160\n      jumpi\n        /* \"#utility.yul\":1670:1671   */\n      0x00\n        /* \"#utility.yul\":1667:1668   */\n      dup1\n        /* \"#utility.yul\":1660:1672   */\n      revert\n        /* \"#utility.yul\":1638:1674   */\n    tag_160:\n        /* \"#utility.yul\":1693:1717   */\n      dup7\n      add\n        /* \"#utility.yul\":1748:1752   */\n      0x1f\n        /* \"#utility.yul\":1740:1753   */\n      dup2\n      add\n        /* \"#utility.yul\":1736:1763   */\n      dup9\n      sgt\n        /* \"#utility.yul\":1726:1781   */\n      tag_161\n      jumpi\n        /* \"#utility.yul\":1777:1778   */\n      0x00\n        /* \"#utility.yul\":1774:1775   */\n      dup1\n        /* \"#utility.yul\":1767:1779   */\n      revert\n        /* \"#utility.yul\":1726:1781   */\n    tag_161:\n        /* \"#utility.yul\":1813:1815   */\n      dup1\n        /* \"#utility.yul\":1800:1816   */\n      calldataload\n        /* \"#utility.yul\":1835:1837   */\n      dup3\n        /* \"#utility.yul\":1831:1833   */\n      dup2\n        /* \"#utility.yul\":1828:1838   */\n      gt\n        /* \"#utility.yul\":1825:1861   */\n      iszero\n      tag_163\n      jumpi\n        /* \"#utility.yul\":1841:1859   */\n      tag_163\n      tag_134\n      jump\t// in\n    tag_163:\n        /* \"#utility.yul\":1887:1889   */\n      dup1\n        /* \"#utility.yul\":1884:1885   */\n      0x05\n        /* \"#utility.yul\":1880:1890   */\n      shl\n        /* \"#utility.yul\":1910:1938   */\n      tag_164\n        /* \"#utility.yul\":1934:1936   */\n      dup6\n        /* \"#utility.yul\":1930:1932   */\n      dup3\n        /* \"#utility.yul\":1926:1937   */\n      add\n        /* \"#utility.yul\":1910:1938   */\n      tag_135\n      jump\t// in\n    tag_164:\n        /* \"#utility.yul\":1972:1987   */\n      swap2\n      dup3\n      mstore\n        /* \"#utility.yul\":2042:2053   */\n      dup3\n      dup2\n      add\n        /* \"#utility.yul\":2038:2058   */\n      dup6\n      add\n      swap2\n        /* \"#utility.yul\":2003:2015   */\n      dup6\n      dup2\n      add\n      swap1\n        /* \"#utility.yul\":2070:2089   */\n      dup12\n      dup5\n      gt\n        /* \"#utility.yul\":2067:2106   */\n      iszero\n      tag_165\n      jumpi\n        /* \"#utility.yul\":2102:2103   */\n      0x00\n        /* \"#utility.yul\":2099:2100   */\n      dup1\n        /* \"#utility.yul\":2092:2104   */\n      revert\n        /* \"#utility.yul\":2067:2106   */\n    tag_165:\n        /* \"#utility.yul\":2134:2136   */\n      dup7\n        /* \"#utility.yul\":2130:2132   */\n      dup6\n        /* \"#utility.yul\":2126:2137   */\n      add\n        /* \"#utility.yul\":2115:2137   */\n      swap3\n      pop\n        /* \"#utility.yul\":2146:2499   */\n    tag_166:\n        /* \"#utility.yul\":2162:2168   */\n      dup4\n        /* \"#utility.yul\":2157:2160   */\n      dup4\n        /* \"#utility.yul\":2154:2169   */\n      lt\n        /* \"#utility.yul\":2146:2499   */\n      iszero\n      tag_168\n      jumpi\n        /* \"#utility.yul\":2248:2251   */\n      dup3\n        /* \"#utility.yul\":2235:2252   */\n      calldataload\n        /* \"#utility.yul\":2284:2286   */\n      dup7\n        /* \"#utility.yul\":2271:2282   */\n      dup2\n        /* \"#utility.yul\":2268:2287   */\n      gt\n        /* \"#utility.yul\":2265:2374   */\n      iszero\n      tag_169\n      jumpi\n        /* \"#utility.yul\":2328:2329   */\n      0x00\n        /* \"#utility.yul\":2357:2359   */\n      dup1\n        /* \"#utility.yul\":2353:2355   */\n      dup2\n        /* \"#utility.yul\":2346:2360   */\n      revert\n        /* \"#utility.yul\":2265:2374   */\n    tag_169:\n        /* \"#utility.yul\":2399:2456   */\n      tag_170\n        /* \"#utility.yul\":2448:2455   */\n      dup14\n        /* \"#utility.yul\":2443:2445   */\n      dup10\n        /* \"#utility.yul\":2429:2440   */\n      dup4\n        /* \"#utility.yul\":2425:2427   */\n      dup10\n        /* \"#utility.yul\":2421:2441   */\n      add\n        /* \"#utility.yul\":2417:2446   */\n      add\n        /* \"#utility.yul\":2399:2456   */\n      tag_136\n      jump\t// in\n    tag_170:\n        /* \"#utility.yul\":2387:2457   */\n      dup4\n      mstore\n      pop\n        /* \"#utility.yul\":2179:2191   */\n      swap2\n      dup7\n      add\n      swap2\n        /* \"#utility.yul\":2477:2489   */\n      swap1\n      dup7\n      add\n      swap1\n        /* \"#utility.yul\":2146:2499   */\n      jump(tag_166)\n    tag_168:\n        /* \"#utility.yul\":2518:2523   */\n      dup1\n        /* \"#utility.yul\":2508:2523   */\n      swap8\n      pop\n      pop\n      pop\n      pop\n      pop\n      pop\n      pop\n      pop\n        /* \"#utility.yul\":962:2529   */\n      swap3\n      pop\n      swap3\n      pop\n      swap3\n      jump\t// out\n        /* \"#utility.yul\":2534:2665   */\n    tag_137:\n      sub(shl(0xa0, 0x01), 0x01)\n        /* \"#utility.yul\":2609:2640   */\n      dup2\n      and\n        /* \"#utility.yul\":2599:2641   */\n      dup2\n      eq\n        /* \"#utility.yul\":2589:2659   */\n      tag_130\n      jumpi\n        /* \"#utility.yul\":2655:2656   */\n      0x00\n        /* \"#utility.yul\":2652:2653   */\n      dup1\n        /* \"#utility.yul\":2645:2657   */\n      revert\n        /* \"#utility.yul\":2670:2917   */\n    tag_19:\n        /* \"#utility.yul\":2729:2735   */\n      0x00\n        /* \"#utility.yul\":2782:2784   */\n      0x20\n        /* \"#utility.yul\":2770:2779   */\n      dup3\n        /* \"#utility.yul\":2761:2768   */\n      dup5\n        /* \"#utility.yul\":2757:2780   */\n      sub\n        /* \"#utility.yul\":2753:2785   */\n      slt\n        /* \"#utility.yul\":2750:2802   */\n      iszero\n      tag_174\n      jumpi\n        /* \"#utility.yul\":2798:2799   */\n      0x00\n        /* \"#utility.yul\":2795:2796   */\n      dup1\n        /* \"#utility.yul\":2788:2800   */\n      revert\n        /* \"#utility.yul\":2750:2802   */\n    tag_174:\n        /* \"#utility.yul\":2837:2846   */\n      dup2\n        /* \"#utility.yul\":2824:2847   */\n      calldataload\n        /* \"#utility.yul\":2856:2887   */\n      tag_175\n        /* \"#utility.yul\":2881:2886   */\n      dup2\n        /* \"#utility.yul\":2856:2887   */\n      tag_137\n      jump\t// in\n    tag_175:\n        /* \"#utility.yul\":2906:2911   */\n      swap4\n        /* \"#utility.yul\":2670:2917   */\n      swap3\n      pop\n      pop\n      pop\n      jump\t// out\n        /* \"#utility.yul\":3104:3419   */\n    tag_25:\n        /* \"#utility.yul\":3172:3178   */\n      0x00\n        /* \"#utility.yul\":3180:3186   */\n      dup1\n        /* \"#utility.yul\":3233:3235   */\n      0x40\n        /* \"#utility.yul\":3221:3230   */\n      dup4\n        /* \"#utility.yul\":3212:3219   */\n      dup6\n        /* \"#utility.yul\":3208:3231   */\n      sub\n        /* \"#utility.yul\":3204:3236   */\n      slt\n        /* \"#utility.yul\":3201:3253   */\n      iszero\n      tag_178\n      jumpi\n        /* \"#utility.yul\":3249:3250   */\n      0x00\n        /* \"#utility.yul\":3246:3247   */\n      dup1\n        /* \"#utility.yul\":3239:3251   */\n      revert\n        /* \"#utility.yul\":3201:3253   */\n    tag_178:\n        /* \"#utility.yul\":3288:3297   */\n      dup3\n        /* \"#utility.yul\":3275:3298   */\n      calldataload\n        /* \"#utility.yul\":3307:3338   */\n      tag_179\n        /* \"#utility.yul\":3332:3337   */\n      dup2\n        /* \"#utility.yul\":3307:3338   */\n      tag_137\n      jump\t// in\n    tag_179:\n        /* \"#utility.yul\":3357:3362   */\n      swap5\n        /* \"#utility.yul\":3409:3411   */\n      0x20\n        /* \"#utility.yul\":3394:3412   */\n      swap4\n      swap1\n      swap4\n      add\n        /* \"#utility.yul\":3381:3413   */\n      calldataload\n      swap4\n      pop\n      pop\n      pop\n        /* \"#utility.yul\":3104:3419   */\n      jump\t// out\n        /* \"#utility.yul\":3632:4055   */\n    tag_138:\n        /* \"#utility.yul\":3674:3677   */\n      0x00\n        /* \"#utility.yul\":3712:3717   */\n      dup2\n        /* \"#utility.yul\":3706:3718   */\n      mload\n        /* \"#utility.yul\":3739:3745   */\n      dup1\n        /* \"#utility.yul\":3734:3737   */\n      dup5\n        /* \"#utility.yul\":3727:3746   */\n      mstore\n        /* \"#utility.yul\":3764:3765   */\n      0x00\n        /* \"#utility.yul\":3774:3936   */\n    tag_182:\n        /* \"#utility.yul\":3788:3794   */\n      dup2\n        /* \"#utility.yul\":3785:3786   */\n      dup2\n        /* \"#utility.yul\":3782:3795   */\n      lt\n        /* \"#utility.yul\":3774:3936   */\n      iszero\n      tag_184\n      jumpi\n        /* \"#utility.yul\":3850:3854   */\n      0x20\n        /* \"#utility.yul\":3906:3919   */\n      dup2\n      dup6\n      add\n        /* \"#utility.yul\":3902:3924   */\n      dup2\n      add\n        /* \"#utility.yul\":3896:3925   */\n      mload\n        /* \"#utility.yul\":3878:3889   */\n      dup7\n      dup4\n      add\n        /* \"#utility.yul\":3874:3894   */\n      dup3\n      add\n        /* \"#utility.yul\":3867:3926   */\n      mstore\n        /* \"#utility.yul\":3803:3815   */\n      add\n        /* \"#utility.yul\":3774:3936   */\n      jump(tag_182)\n    tag_184:\n        /* \"#utility.yul\":3778:3781   */\n      pop\n        /* \"#utility.yul\":3981:3982   */\n      0x00\n        /* \"#utility.yul\":3974:3978   */\n      0x20\n        /* \"#utility.yul\":3965:3971   */\n      dup3\n        /* \"#utility.yul\":3960:3963   */\n      dup7\n        /* \"#utility.yul\":3956:3972   */\n      add\n        /* \"#utility.yul\":3952:3979   */\n      add\n        /* \"#utility.yul\":3945:3983   */\n      mstore\n        /* \"#utility.yul\":4044:4048   */\n      0x20\n        /* \"#utility.yul\":4037:4039   */\n      0x1f\n        /* \"#utility.yul\":4033:4040   */\n      not\n        /* \"#utility.yul\":4028:4030   */\n      0x1f\n        /* \"#utility.yul\":4020:4026   */\n      dup4\n        /* \"#utility.yul\":4016:4031   */\n      add\n        /* \"#utility.yul\":4012:4041   */\n      and\n        /* \"#utility.yul\":4007:4010   */\n      dup6\n        /* \"#utility.yul\":4003:4042   */\n      add\n        /* \"#utility.yul\":3999:4049   */\n      add\n        /* \"#utility.yul\":3992:4049   */\n      swap2\n      pop\n      pop\n        /* \"#utility.yul\":3632:4055   */\n      swap3\n      swap2\n      pop\n      pop\n      jump\t// out\n        /* \"#utility.yul\":4140:5454   */\n    tag_34:\n        /* \"#utility.yul\":4515:4518   */\n      0xc0\n        /* \"#utility.yul\":4504:4513   */\n      dup2\n        /* \"#utility.yul\":4497:4519   */\n      mstore\n        /* \"#utility.yul\":4478:4482   */\n      0x00\n        /* \"#utility.yul\":4542:4588   */\n      tag_187\n        /* \"#utility.yul\":4583:4586   */\n      0xc0\n        /* \"#utility.yul\":4572:4581   */\n      dup4\n        /* \"#utility.yul\":4568:4587   */\n      add\n        /* \"#utility.yul\":4560:4566   */\n      dup10\n        /* \"#utility.yul\":4542:4588   */\n      tag_138\n      jump\t// in\n    tag_187:\n        /* \"#utility.yul\":4607:4609   */\n      0x20\n        /* \"#utility.yul\":4657:4666   */\n      dup4\n        /* \"#utility.yul\":4649:4655   */\n      dup3\n        /* \"#utility.yul\":4645:4667   */\n      sub\n        /* \"#utility.yul\":4640:4642   */\n      dup2\n        /* \"#utility.yul\":4629:4638   */\n      dup6\n        /* \"#utility.yul\":4625:4643   */\n      add\n        /* \"#utility.yul\":4618:4668   */\n      mstore\n        /* \"#utility.yul\":4691:4724   */\n      tag_188\n        /* \"#utility.yul\":4717:4723   */\n      dup3\n        /* \"#utility.yul\":4709:4715   */\n      dup11\n        /* \"#utility.yul\":4691:4724   */\n      tag_138\n      jump\t// in\n    tag_188:\n        /* \"#utility.yul\":4677:4724   */\n      swap2\n      pop\n        /* \"#utility.yul\":4772:4781   */\n      dup4\n        /* \"#utility.yul\":4764:4770   */\n      dup3\n        /* \"#utility.yul\":4760:4782   */\n      sub\n        /* \"#utility.yul\":4755:4757   */\n      0x40\n        /* \"#utility.yul\":4744:4753   */\n      dup6\n        /* \"#utility.yul\":4740:4758   */\n      add\n        /* \"#utility.yul\":4733:4783   */\n      mstore\n        /* \"#utility.yul\":4803:4809   */\n      dup2\n        /* \"#utility.yul\":4838:4844   */\n      dup9\n        /* \"#utility.yul\":4832:4845   */\n      mload\n        /* \"#utility.yul\":4869:4875   */\n      dup1\n        /* \"#utility.yul\":4861:4867   */\n      dup5\n        /* \"#utility.yul\":4854:4876   */\n      mstore\n        /* \"#utility.yul\":4904:4906   */\n      dup3\n        /* \"#utility.yul\":4896:4902   */\n      dup5\n        /* \"#utility.yul\":4892:4907   */\n      add\n        /* \"#utility.yul\":4885:4907   */\n      swap2\n      pop\n        /* \"#utility.yul\":4963:4965   */\n      dup3\n        /* \"#utility.yul\":4953:4959   */\n      dup2\n        /* \"#utility.yul\":4950:4951   */\n      0x05\n        /* \"#utility.yul\":4946:4960   */\n      shl\n        /* \"#utility.yul\":4938:4944   */\n      dup6\n        /* \"#utility.yul\":4934:4961   */\n      add\n        /* \"#utility.yul\":4930:4966   */\n      add\n        /* \"#utility.yul\":5001:5003   */\n      dup4\n        /* \"#utility.yul\":4993:4999   */\n      dup12\n        /* \"#utility.yul\":4989:5004   */\n      add\n        /* \"#utility.yul\":5022:5023   */\n      0x00\n        /* \"#utility.yul\":5032:5284   */\n    tag_189:\n        /* \"#utility.yul\":5046:5052   */\n      dup4\n        /* \"#utility.yul\":5043:5044   */\n      dup2\n        /* \"#utility.yul\":5040:5053   */\n      lt\n        /* \"#utility.yul\":5032:5284   */\n      iszero\n      tag_191\n      jumpi\n        /* \"#utility.yul\":5136:5138   */\n      0x1f\n        /* \"#utility.yul\":5132:5139   */\n      not\n        /* \"#utility.yul\":5123:5129   */\n      dup8\n        /* \"#utility.yul\":5115:5121   */\n      dup5\n        /* \"#utility.yul\":5111:5130   */\n      sub\n        /* \"#utility.yul\":5107:5140   */\n      add\n        /* \"#utility.yul\":5102:5105   */\n      dup6\n        /* \"#utility.yul\":5095:5141   */\n      mstore\n        /* \"#utility.yul\":5164:5204   */\n      tag_192\n        /* \"#utility.yul\":5197:5203   */\n      dup4\n        /* \"#utility.yul\":5188:5194   */\n      dup4\n        /* \"#utility.yul\":5182:5195   */\n      mload\n        /* \"#utility.yul\":5164:5204   */\n      tag_138\n      jump\t// in\n    tag_192:\n        /* \"#utility.yul\":5262:5274   */\n      swap5\n      dup7\n      add\n      swap5\n        /* \"#utility.yul\":5154:5204   */\n      swap3\n      pop\n        /* \"#utility.yul\":5227:5242   */\n      swap1\n      dup6\n      add\n      swap1\n        /* \"#utility.yul\":5068:5069   */\n      0x01\n        /* \"#utility.yul\":5061:5070   */\n      add\n        /* \"#utility.yul\":5032:5284   */\n      jump(tag_189)\n    tag_191:\n        /* \"#utility.yul\":5036:5039   */\n      pop\n      pop\n        /* \"#utility.yul\":5301:5307   */\n      dup1\n        /* \"#utility.yul\":5293:5307   */\n      swap6\n      pop\n      pop\n      pop\n      pop\n      pop\n      pop\n        /* \"#utility.yul\":5343:5349   */\n      dup5\n        /* \"#utility.yul\":5338:5340   */\n      0x60\n        /* \"#utility.yul\":5327:5336   */\n      dup4\n        /* \"#utility.yul\":5323:5341   */\n      add\n        /* \"#utility.yul\":5316:5350   */\n      mstore\n        /* \"#utility.yul\":5387:5393   */\n      dup4\n        /* \"#utility.yul\":5381:5384   */\n      0x80\n        /* \"#utility.yul\":5370:5379   */\n      dup4\n        /* \"#utility.yul\":5366:5385   */\n      add\n        /* \"#utility.yul\":5359:5394   */\n      mstore\n        /* \"#utility.yul\":5403:5448   */\n      tag_193\n        /* \"#utility.yul\":5443:5446   */\n      0xa0\n        /* \"#utility.yul\":5432:5441   */\n      dup4\n        /* \"#utility.yul\":5428:5447   */\n      add\n        /* \"#utility.yul\":5420:5426   */\n      dup5\n        /* \"#utility.yul\":4127:4131   */\n      0xff\n        /* \"#utility.yul\":4116:4132   */\n      and\n        /* \"#utility.yul\":4104:4133   */\n      swap1\n      mstore\n        /* \"#utility.yul\":4060:4135   */\n      jump\n        /* \"#utility.yul\":5403:5448   */\n    tag_193:\n        /* \"#utility.yul\":4140:5454   */\n      swap8\n      swap7\n      pop\n      pop\n      pop\n      pop\n      pop\n      pop\n      pop\n      jump\t// out\n        /* \"#utility.yul\":5459:5710   */\n    tag_41:\n        /* \"#utility.yul\":5529:5535   */\n      0x00\n        /* \"#utility.yul\":5582:5584   */\n      0x20\n        /* \"#utility.yul\":5570:5579   */\n      dup3\n        /* \"#utility.yul\":5561:5568   */\n      dup5\n        /* \"#utility.yul\":5557:5580   */\n      sub\n        /* \"#utility.yul\":5553:5585   */\n      slt\n        /* \"#utility.yul\":5550:5602   */\n      iszero\n      tag_195\n      jumpi\n        /* \"#utility.yul\":5598:5599   */\n      0x00\n        /* \"#utility.yul\":5595:5596   */\n      dup1\n        /* \"#utility.yul\":5588:5600   */\n      revert\n        /* \"#utility.yul\":5550:5602   */\n    tag_195:\n        /* \"#utility.yul\":5630:5639   */\n      dup2\n        /* \"#utility.yul\":5624:5640   */\n      mload\n        /* \"#utility.yul\":5649:5680   */\n      tag_175\n        /* \"#utility.yul\":5674:5679   */\n      dup2\n        /* \"#utility.yul\":5649:5680   */\n      tag_137\n      jump\t// in\n        /* \"#utility.yul\":5715:6116   */\n    tag_44:\n        /* \"#utility.yul\":5917:5919   */\n      0x20\n        /* \"#utility.yul\":5899:5920   */\n      dup1\n      dup3\n      mstore\n        /* \"#utility.yul\":5956:5958   */\n      0x25\n        /* \"#utility.yul\":5936:5954   */\n      swap1\n      dup3\n      add\n        /* \"#utility.yul\":5929:5959   */\n      mstore\n        /* \"#utility.yul\":5995:6029   */\n      0x546869732066756e6374696f6e206f6e6c792061646d696e2063616e20657865\n        /* \"#utility.yul\":5990:5992   */\n      0x40\n        /* \"#utility.yul\":5975:5993   */\n      dup3\n      add\n        /* \"#utility.yul\":5968:6030   */\n      mstore\n      shl(0xd8, 0x6375746521)\n        /* \"#utility.yul\":6061:6063   */\n      0x60\n        /* \"#utility.yul\":6046:6064   */\n      dup3\n      add\n        /* \"#utility.yul\":6039:6074   */\n      mstore\n        /* \"#utility.yul\":6106:6109   */\n      0x80\n        /* \"#utility.yul\":6091:6110   */\n      add\n      swap1\n        /* \"#utility.yul\":5715:6116   */\n      jump\t// out\n        /* \"#utility.yul\":6121:6248   */\n    tag_48:\n        /* \"#utility.yul\":6182:6192   */\n      0x4e487b71\n        /* \"#utility.yul\":6177:6180   */\n      0xe0\n        /* \"#utility.yul\":6173:6193   */\n      shl\n        /* \"#utility.yul\":6170:6171   */\n      0x00\n        /* \"#utility.yul\":6163:6194   */\n      mstore\n        /* \"#utility.yul\":6213:6217   */\n      0x21\n        /* \"#utility.yul\":6210:6211   */\n      0x04\n        /* \"#utility.yul\":6203:6218   */\n      mstore\n        /* \"#utility.yul\":6237:6241   */\n      0x24\n        /* \"#utility.yul\":6234:6235   */\n      0x00\n        /* \"#utility.yul\":6227:6242   */\n      revert\n        /* \"#utility.yul\":6253:6633   */\n    tag_90:\n        /* \"#utility.yul\":6332:6333   */\n      0x01\n        /* \"#utility.yul\":6328:6340   */\n      dup2\n      dup2\n      shr\n      swap1\n        /* \"#utility.yul\":6375:6387   */\n      dup3\n      and\n      dup1\n        /* \"#utility.yul\":6396:6457   */\n      tag_200\n      jumpi\n        /* \"#utility.yul\":6450:6454   */\n      0x7f\n        /* \"#utility.yul\":6442:6448   */\n      dup3\n        /* \"#utility.yul\":6438:6455   */\n      and\n        /* \"#utility.yul\":6428:6455   */\n      swap2\n      pop\n        /* \"#utility.yul\":6396:6457   */\n    tag_200:\n        /* \"#utility.yul\":6503:6505   */\n      0x20\n        /* \"#utility.yul\":6495:6501   */\n      dup3\n        /* \"#utility.yul\":6492:6506   */\n      lt\n        /* \"#utility.yul\":6472:6490   */\n      dup2\n        /* \"#utility.yul\":6469:6507   */\n      sub\n        /* \"#utility.yul\":6466:6627   */\n      tag_201\n      jumpi\n        /* \"#utility.yul\":6549:6559   */\n      0x4e487b71\n        /* \"#utility.yul\":6544:6547   */\n      0xe0\n        /* \"#utility.yul\":6540:6560   */\n      shl\n        /* \"#utility.yul\":6537:6538   */\n      0x00\n        /* \"#utility.yul\":6530:6561   */\n      mstore\n        /* \"#utility.yul\":6584:6588   */\n      0x22\n        /* \"#utility.yul\":6581:6582   */\n      0x04\n        /* \"#utility.yul\":6574:6589   */\n      mstore\n        /* \"#utility.yul\":6612:6616   */\n      0x24\n        /* \"#utility.yul\":6609:6610   */\n      0x00\n        /* \"#utility.yul\":6602:6617   */\n      revert\n        /* \"#utility.yul\":6466:6627   */\n    tag_201:\n      pop\n        /* \"#utility.yul\":6253:6633   */\n      swap2\n      swap1\n      pop\n      jump\t// out\n        /* \"#utility.yul\":6764:7309   */\n    tag_141:\n        /* \"#utility.yul\":6866:6868   */\n      0x1f\n        /* \"#utility.yul\":6861:6864   */\n      dup3\n        /* \"#utility.yul\":6858:6869   */\n      gt\n        /* \"#utility.yul\":6855:7303   */\n      iszero\n      tag_204\n      jumpi\n        /* \"#utility.yul\":6902:6903   */\n      0x00\n        /* \"#utility.yul\":6927:6932   */\n      dup2\n        /* \"#utility.yul\":6923:6925   */\n      dup2\n        /* \"#utility.yul\":6916:6933   */\n      mstore\n        /* \"#utility.yul\":6972:6976   */\n      0x20\n        /* \"#utility.yul\":6968:6970   */\n      dup2\n        /* \"#utility.yul\":6958:6977   */\n      keccak256\n        /* \"#utility.yul\":7042:7044   */\n      0x1f\n        /* \"#utility.yul\":7030:7040   */\n      dup6\n        /* \"#utility.yul\":7026:7045   */\n      add\n        /* \"#utility.yul\":7023:7024   */\n      0x05\n        /* \"#utility.yul\":7019:7046   */\n      shr\n        /* \"#utility.yul\":7013:7017   */\n      dup2\n        /* \"#utility.yul\":7009:7047   */\n      add\n        /* \"#utility.yul\":7078:7082   */\n      0x20\n        /* \"#utility.yul\":7066:7076   */\n      dup7\n        /* \"#utility.yul\":7063:7083   */\n      lt\n        /* \"#utility.yul\":7060:7107   */\n      iszero\n      tag_205\n      jumpi\n      pop\n        /* \"#utility.yul\":7101:7105   */\n      dup1\n        /* \"#utility.yul\":7060:7107   */\n    tag_205:\n        /* \"#utility.yul\":7156:7158   */\n      0x1f\n        /* \"#utility.yul\":7151:7154   */\n      dup6\n        /* \"#utility.yul\":7147:7159   */\n      add\n        /* \"#utility.yul\":7144:7145   */\n      0x05\n        /* \"#utility.yul\":7140:7160   */\n      shr\n        /* \"#utility.yul\":7134:7138   */\n      dup3\n        /* \"#utility.yul\":7130:7161   */\n      add\n        /* \"#utility.yul\":7120:7161   */\n      swap2\n      pop\n        /* \"#utility.yul\":7211:7293   */\n    tag_206:\n        /* \"#utility.yul\":7229:7231   */\n      dup2\n        /* \"#utility.yul\":7222:7227   */\n      dup2\n        /* \"#utility.yul\":7219:7232   */\n      lt\n        /* \"#utility.yul\":7211:7293   */\n      iszero\n      tag_208\n      jumpi\n        /* \"#utility.yul\":7274:7291   */\n      dup3\n      dup2\n      sstore\n        /* \"#utility.yul\":7255:7256   */\n      0x01\n        /* \"#utility.yul\":7244:7257   */\n      add\n        /* \"#utility.yul\":7211:7293   */\n      jump(tag_206)\n    tag_208:\n        /* \"#utility.yul\":7215:7218   */\n      pop\n      pop\n      pop\n        /* \"#utility.yul\":6855:7303   */\n    tag_204:\n        /* \"#utility.yul\":6764:7309   */\n      pop\n      pop\n      pop\n      jump\t// out\n        /* \"#utility.yul\":7485:8837   */\n    tag_57:\n        /* \"#utility.yul\":7611:7614   */\n      dup2\n        /* \"#utility.yul\":7605:7615   */\n      mload\n        /* \"#utility.yul\":7638:7656   */\n      0xffffffffffffffff\n        /* \"#utility.yul\":7630:7636   */\n      dup2\n        /* \"#utility.yul\":7627:7657   */\n      gt\n        /* \"#utility.yul\":7624:7680   */\n      iszero\n      tag_212\n      jumpi\n        /* \"#utility.yul\":7660:7678   */\n      tag_212\n      tag_134\n      jump\t// in\n    tag_212:\n        /* \"#utility.yul\":7689:7786   */\n      tag_213\n        /* \"#utility.yul\":7779:7785   */\n      dup2\n        /* \"#utility.yul\":7739:7777   */\n      tag_214\n        /* \"#utility.yul\":7771:7775   */\n      dup5\n        /* \"#utility.yul\":7765:7776   */\n      sload\n        /* \"#utility.yul\":7739:7777   */\n      tag_90\n      jump\t// in\n    tag_214:\n        /* \"#utility.yul\":7733:7737   */\n      dup5\n        /* \"#utility.yul\":7689:7786   */\n      tag_141\n      jump\t// in\n    tag_213:\n        /* \"#utility.yul\":7841:7845   */\n      0x20\n      dup1\n        /* \"#utility.yul\":7905:7907   */\n      0x1f\n        /* \"#utility.yul\":7894:7908   */\n      dup4\n      gt\n        /* \"#utility.yul\":7922:7923   */\n      0x01\n        /* \"#utility.yul\":7917:8580   */\n      dup2\n      eq\n      tag_216\n      jumpi\n        /* \"#utility.yul\":8624:8625   */\n      0x00\n        /* \"#utility.yul\":8641:8647   */\n      dup5\n        /* \"#utility.yul\":8638:8727   */\n      iszero\n      tag_217\n      jumpi\n      pop\n        /* \"#utility.yul\":8693:8712   */\n      dup6\n      dup4\n      add\n        /* \"#utility.yul\":8687:8713   */\n      mload\n        /* \"#utility.yul\":8638:8727   */\n    tag_217:\n      not(0x00)\n        /* \"#utility.yul\":7442:7443   */\n      0x03\n        /* \"#utility.yul\":7438:7449   */\n      dup7\n      swap1\n      shl\n        /* \"#utility.yul\":7434:7458   */\n      shr\n        /* \"#utility.yul\":7430:7459   */\n      not\n        /* \"#utility.yul\":7420:7460   */\n      and\n        /* \"#utility.yul\":7466:7467   */\n      0x01\n        /* \"#utility.yul\":7462:7473   */\n      dup6\n      swap1\n      shl\n        /* \"#utility.yul\":7417:7474   */\n      or\n        /* \"#utility.yul\":8740:8821   */\n      dup6\n      sstore\n        /* \"#utility.yul\":7887:8831   */\n      jump(tag_208)\n        /* \"#utility.yul\":7917:8580   */\n    tag_216:\n        /* \"#utility.yul\":6711:6712   */\n      0x00\n        /* \"#utility.yul\":6704:6718   */\n      dup6\n      dup2\n      mstore\n        /* \"#utility.yul\":6748:6752   */\n      0x20\n        /* \"#utility.yul\":6735:6753   */\n      dup2\n      keccak256\n      not(0x1f)\n        /* \"#utility.yul\":7953:7973   */\n      dup7\n      and\n      swap2\n        /* \"#utility.yul\":8071:8307   */\n    tag_220:\n        /* \"#utility.yul\":8085:8092   */\n      dup3\n        /* \"#utility.yul\":8082:8083   */\n      dup2\n        /* \"#utility.yul\":8079:8093   */\n      lt\n        /* \"#utility.yul\":8071:8307   */\n      iszero\n      tag_222\n      jumpi\n        /* \"#utility.yul\":8174:8193   */\n      dup9\n      dup7\n      add\n        /* \"#utility.yul\":8168:8194   */\n      mload\n        /* \"#utility.yul\":8153:8195   */\n      dup3\n      sstore\n        /* \"#utility.yul\":8266:8293   */\n      swap5\n      dup5\n      add\n      swap5\n        /* \"#utility.yul\":8234:8235   */\n      0x01\n        /* \"#utility.yul\":8222:8236   */\n      swap1\n      swap2\n      add\n      swap1\n        /* \"#utility.yul\":8101:8120   */\n      dup5\n      add\n        /* \"#utility.yul\":8071:8307   */\n      jump(tag_220)\n    tag_222:\n        /* \"#utility.yul\":8075:8078   */\n      pop\n        /* \"#utility.yul\":8335:8341   */\n      dup6\n        /* \"#utility.yul\":8326:8333   */\n      dup3\n        /* \"#utility.yul\":8323:8342   */\n      lt\n        /* \"#utility.yul\":8320:8521   */\n      iszero\n      tag_223\n      jumpi\n        /* \"#utility.yul\":8396:8415   */\n      dup8\n      dup6\n      add\n        /* \"#utility.yul\":8390:8416   */\n      mload\n      not(0x00)\n        /* \"#utility.yul\":8479:8480   */\n      0x03\n        /* \"#utility.yul\":8475:8489   */\n      dup9\n      swap1\n      shl\n        /* \"#utility.yul\":8491:8494   */\n      0xf8\n        /* \"#utility.yul\":8471:8495   */\n      and\n        /* \"#utility.yul\":8467:8504   */\n      shr\n        /* \"#utility.yul\":8463:8505   */\n      not\n        /* \"#utility.yul\":8448:8506   */\n      and\n        /* \"#utility.yul\":8433:8507   */\n      dup2\n      sstore\n        /* \"#utility.yul\":8320:8521   */\n    tag_223:\n      pop\n      pop\n      pop\n      pop\n      pop\n        /* \"#utility.yul\":8567:8568   */\n      0x01\n        /* \"#utility.yul\":8551:8565   */\n      swap1\n      dup2\n      shl\n        /* \"#utility.yul\":8547:8569   */\n      add\n        /* \"#utility.yul\":8534:8570   */\n      swap1\n      sstore\n      pop\n        /* \"#utility.yul\":7485:8837   */\n      jump\t// out\n\n    auxdata: 0xa2646970667358221220161b94ef8b0d6f7bd7e1c05c1425a28ea503c72e5439960c2ad7cc791758507a64736f6c63430008140033\n}\n",
				"bytecode": {
					"linkReferences": {},
					"object": "608060405234801562000010575f80fd5b50604051620012d8380380620012d88339810160408190526200003391620002a7565b5f80546001600160a01b0386166001600160a01b0319918216811790925560018054909116909117905560026200006b84826200046a565b5060036200007a83826200046a565b5080516200009090600490602084019062000108565b505f60058190556006556007805460ff191690556001546040516379c86ec360e11b81523060048201526001600160a01b039091169063f390dd86906024015f604051808303815f87803b158015620000e7575f80fd5b505af1158015620000fa573d5f803e3d5ffd5b505050505050505062000532565b828054828255905f5260205f2090810192821562000151579160200282015b828111156200015157825182906200014090826200046a565b509160200191906001019062000127565b506200015f92915062000163565b5090565b808211156200015f575f62000179828262000183565b5060010162000163565b5080546200019190620003de565b5f825580601f10620001a1575050565b601f0160209004905f5260205f2090810190620001bf9190620001c2565b50565b5b808211156200015f575f8155600101620001c3565b634e487b7160e01b5f52604160045260245ffd5b604051601f8201601f191681016001600160401b0381118282101715620002175762000217620001d8565b604052919050565b5f82601f8301126200022f575f80fd5b81516001600160401b038111156200024b576200024b620001d8565b602062000261601f8301601f19168201620001ec565b828152858284870101111562000275575f80fd5b5f5b838110156200029457858101830151828201840152820162000277565b505f928101909101919091529392505050565b5f805f8060808587031215620002bb575f80fd5b84516001600160a01b0381168114620002d2575f80fd5b602086810151919550906001600160401b0380821115620002f1575f80fd5b620002ff89838a016200021f565b9550604088015191508082111562000315575f80fd5b6200032389838a016200021f565b9450606088015191508082111562000339575f80fd5b818801915088601f8301126200034d575f80fd5b815181811115620003625762000362620001d8565b8060051b62000373858201620001ec565b918252838101850191858101908c8411156200038d575f80fd5b86860192505b83831015620003cd57825185811115620003ac575f8081fd5b620003bc8e89838a01016200021f565b835250918601919086019062000393565b999c989b5096995050505050505050565b600181811c90821680620003f357607f821691505b6020821081036200041257634e487b7160e01b5f52602260045260245ffd5b50919050565b601f82111562000465575f81815260208120601f850160051c81016020861015620004405750805b601f850160051c820191505b8181101562000461578281556001016200044c565b5050505b505050565b81516001600160401b03811115620004865762000486620001d8565b6200049e81620004978454620003de565b8462000418565b602080601f831160018114620004d4575f8415620004bc5750858301515b5f19600386901b1c1916600185901b17855562000461565b5f85815260208120601f198616915b828110156200050457888601518255948401946001909101908401620004e3565b50858210156200052257878501515f19600388901b60f8161c191681555b5050505050600190811b01905550565b610d9880620005405f395ff3fe608060405234801561000f575f80fd5b506004361061007a575f3560e01c8063a7960a2811610058578063a7960a28146100c1578063d270e7ab146100d4578063f8cb00bf146100fe578063fe0ae16514610118575f80fd5b806306f4bcbf1461007e5780630e97350114610088578063494a0f3b1461009b575b5f80fd5b610086610120565b005b610086610096366004610963565b6101e4565b6100ae6100a9366004610a78565b6102bb565b6040519081526020015b60405180910390f35b6100866100cf366004610a9a565b61035e565b5f546100e6906001600160a01b031681565b6040516001600160a01b0390911681526020016100b8565b610106610513565b6040516100b896959493929190610b07565b61008661073d565b60015f9054906101000a90046001600160a01b03166001600160a01b0316636e9960c36040518163ffffffff1660e01b8152600401602060405180830381865afa158015610170573d5f803e3d5ffd5b505050506040513d601f19601f820116820180604052508101906101949190610bac565b6001600160a01b0316336001600160a01b0316146101cd5760405162461bcd60e51b81526004016101c490610bc7565b60405180910390fd5b600780546002919060ff19166001835b0217905550565b60015f9054906101000a90046001600160a01b03166001600160a01b0316636e9960c36040518163ffffffff1660e01b8152600401602060405180830381865afa158015610234573d5f803e3d5ffd5b505050506040513d601f19601f820116820180604052508101906102589190610bac565b6001600160a01b0316336001600160a01b0316146102885760405162461bcd60e51b81526004016101c490610bc7565b60026102948482610ca6565b5060036102a18382610ca6565b5080516102b59060049060208401906107f4565b50505050565b60015460408051636e9960c360e01b815290515f926001600160a01b031691636e9960c39160048083019260209291908290030181865afa158015610302573d5f803e3d5ffd5b505050506040513d601f19601f820116820180604052508101906103269190610bac565b6001600160a01b0316336001600160a01b0316146103565760405162461bcd60e51b81526004016101c490610bc7565b506001919050565b60015f9054906101000a90046001600160a01b03166001600160a01b0316636e9960c36040518163ffffffff1660e01b8152600401602060405180830381865afa1580156103ae573d5f803e3d5ffd5b505050506040513d601f19601f820116820180604052508101906103d29190610bac565b6001600160a01b0316330361043d5760405162461bcd60e51b815260206004820152602b60248201527f546869732066756e6374696f6e206f6e6c79207061727469636970616e74206360448201526a616e20657865637574652160a81b60648201526084016101c4565b600160075460ff16600281111561045657610456610c0c565b146104a35760405162461bcd60e51b815260206004820152601a60248201527f53657373696f6e206973206e6f7420696e2070726f677265737300000000000060448201526064016101c4565b6001600160a01b0382165f90815260086020526040812082905581900361050f57600980546001810182555f919091527f6e1540171b6c0c960b71a7020d9f60077f6af931a8bbf590da0223dacf75c7af0180546001600160a01b0319166001600160a01b0384161790555b5050565b60608060605f805f60026003600460055460065460075f9054906101000a900460ff16600281111561054757610547610c0c565b85805461055390610c20565b80601f016020809104026020016040519081016040528092919081815260200182805461057f90610c20565b80156105ca5780601f106105a1576101008083540402835291602001916105ca565b820191905f5260205f20905b8154815290600101906020018083116105ad57829003601f168201915b505050505095508480546105dd90610c20565b80601f016020809104026020016040519081016040528092919081815260200182805461060990610c20565b80156106545780601f1061062b57610100808354040283529160200191610654565b820191905f5260205f20905b81548152906001019060200180831161063757829003601f168201915b5050505050945083805480602002602001604051908101604052809291908181526020015f905b82821015610723578382905f5260205f2001805461069890610c20565b80601f01602080910402602001604051908101604052809291908181526020018280546106c490610c20565b801561070f5780601f106106e65761010080835404028352916020019161070f565b820191905f5260205f20905b8154815290600101906020018083116106f257829003601f168201915b50505050508152602001906001019061067b565b505050509350955095509550955095509550909192939495565b60015f9054906101000a90046001600160a01b03166001600160a01b0316636e9960c36040518163ffffffff1660e01b8152600401602060405180830381865afa15801561078d573d5f803e3d5ffd5b505050506040513d601f19601f820116820180604052508101906107b19190610bac565b6001600160a01b0316336001600160a01b0316146107e15760405162461bcd60e51b81526004016101c490610bc7565b600780546001919060ff191682806101dd565b828054828255905f5260205f20908101928215610838579160200282015b8281111561083857825182906108289082610ca6565b5091602001919060010190610812565b50610844929150610848565b5090565b80821115610844575f61085b8282610864565b50600101610848565b50805461087090610c20565b5f825580601f1061087f575050565b601f0160209004905f5260205f209081019061089b919061089e565b50565b5b80821115610844575f815560010161089f565b634e487b7160e01b5f52604160045260245ffd5b604051601f8201601f1916810167ffffffffffffffff811182821017156108ef576108ef6108b2565b604052919050565b5f82601f830112610906575f80fd5b813567ffffffffffffffff811115610920576109206108b2565b610933601f8201601f19166020016108c6565b818152846020838601011115610947575f80fd5b816020850160208301375f918101602001919091529392505050565b5f805f60608486031215610975575f80fd5b833567ffffffffffffffff8082111561098c575f80fd5b610998878388016108f7565b94506020915081860135818111156109ae575f80fd5b6109ba888289016108f7565b9450506040860135818111156109ce575f80fd5b8601601f810188136109de575f80fd5b8035828111156109f0576109f06108b2565b8060051b6109ff8582016108c6565b918252828101850191858101908b841115610a18575f80fd5b86850192505b83831015610a5357823586811115610a35575f8081fd5b610a438d89838901016108f7565b8352509186019190860190610a1e565b809750505050505050509250925092565b6001600160a01b038116811461089b575f80fd5b5f60208284031215610a88575f80fd5b8135610a9381610a64565b9392505050565b5f8060408385031215610aab575f80fd5b8235610ab681610a64565b946020939093013593505050565b5f81518084525f5b81811015610ae857602081850181015186830182015201610acc565b505f602082860101526020601f19601f83011685010191505092915050565b60c081525f610b1960c0830189610ac4565b602083820381850152610b2c828a610ac4565b915083820360408501528188518084528284019150828160051b850101838b015f5b83811015610b7c57601f19878403018552610b6a838351610ac4565b94860194925090850190600101610b4e565b50508095505050505050846060830152836080830152610ba160a083018460ff169052565b979650505050505050565b5f60208284031215610bbc575f80fd5b8151610a9381610a64565b60208082526025908201527f546869732066756e6374696f6e206f6e6c792061646d696e2063616e20657865604082015264637574652160d81b606082015260800190565b634e487b7160e01b5f52602160045260245ffd5b600181811c90821680610c3457607f821691505b602082108103610c5257634e487b7160e01b5f52602260045260245ffd5b50919050565b601f821115610ca1575f81815260208120601f850160051c81016020861015610c7e5750805b601f850160051c820191505b81811015610c9d57828155600101610c8a565b5050505b505050565b815167ffffffffffffffff811115610cc057610cc06108b2565b610cd481610cce8454610c20565b84610c58565b602080601f831160018114610d07575f8415610cf05750858301515b5f19600386901b1c1916600185901b178555610c9d565b5f85815260208120601f198616915b82811015610d3557888601518255948401946001909101908401610d16565b5085821015610d5257878501515f19600388901b60f8161c191681555b5050505050600190811b0190555056fea2646970667358221220161b94ef8b0d6f7bd7e1c05c1425a28ea503c72e5439960c2ad7cc791758507a64736f6c63430008140033",
					"opcodes": "PUSH1 0x80 PUSH1 0x40 MSTORE CALLVALUE DUP1 ISZERO PUSH3 0x10 JUMPI PUSH0 DUP1 REVERT JUMPDEST POP PUSH1 0x40 MLOAD PUSH3 0x12D8 CODESIZE SUB DUP1 PUSH3 0x12D8 DUP4 CODECOPY DUP2 ADD PUSH1 0x40 DUP2 SWAP1 MSTORE PUSH3 0x33 SWAP2 PUSH3 0x2A7 JUMP JUMPDEST PUSH0 DUP1 SLOAD PUSH1 0x1 PUSH1 0x1 PUSH1 0xA0 SHL SUB DUP7 AND PUSH1 0x1 PUSH1 0x1 PUSH1 0xA0 SHL SUB NOT SWAP2 DUP3 AND DUP2 OR SWAP1 SWAP3 SSTORE PUSH1 0x1 DUP1 SLOAD SWAP1 SWAP2 AND SWAP1 SWAP2 OR SWAP1 SSTORE PUSH1 0x2 PUSH3 0x6B DUP5 DUP3 PUSH3 0x46A JUMP JUMPDEST POP PUSH1 0x3 PUSH3 0x7A DUP4 DUP3 PUSH3 0x46A JUMP JUMPDEST POP DUP1 MLOAD PUSH3 0x90 SWAP1 PUSH1 0x4 SWAP1 PUSH1 0x20 DUP5 ADD SWAP1 PUSH3 0x108 JUMP JUMPDEST POP PUSH0 PUSH1 0x5 DUP2 SWAP1 SSTORE PUSH1 0x6 SSTORE PUSH1 0x7 DUP1 SLOAD PUSH1 0xFF NOT AND SWAP1 SSTORE PUSH1 0x1 SLOAD PUSH1 0x40 MLOAD PUSH4 0x79C86EC3 PUSH1 0xE1 SHL DUP2 MSTORE ADDRESS PUSH1 0x4 DUP3 ADD MSTORE PUSH1 0x1 PUSH1 0x1 PUSH1 0xA0 SHL SUB SWAP1 SWAP2 AND SWAP1 PUSH4 0xF390DD86 SWAP1 PUSH1 0x24 ADD PUSH0 PUSH1 0x40 MLOAD DUP1 DUP4 SUB DUP2 PUSH0 DUP8 DUP1 EXTCODESIZE ISZERO DUP1 ISZERO PUSH3 0xE7 JUMPI PUSH0 DUP1 REVERT JUMPDEST POP GAS CALL ISZERO DUP1 ISZERO PUSH3 0xFA JUMPI RETURNDATASIZE PUSH0 DUP1 RETURNDATACOPY RETURNDATASIZE PUSH0 REVERT JUMPDEST POP POP POP POP POP POP POP POP PUSH3 0x532 JUMP JUMPDEST DUP3 DUP1 SLOAD DUP3 DUP3 SSTORE SWAP1 PUSH0 MSTORE PUSH1 0x20 PUSH0 KECCAK256 SWAP1 DUP2 ADD SWAP3 DUP3 ISZERO PUSH3 0x151 JUMPI SWAP2 PUSH1 0x20 MUL DUP3 ADD JUMPDEST DUP3 DUP2 GT ISZERO PUSH3 0x151 JUMPI DUP3 MLOAD DUP3 SWAP1 PUSH3 0x140 SWAP1 DUP3 PUSH3 0x46A JUMP JUMPDEST POP SWAP2 PUSH1 0x20 ADD SWAP2 SWAP1 PUSH1 0x1 ADD SWAP1 PUSH3 0x127 JUMP JUMPDEST POP PUSH3 0x15F SWAP3 SWAP2 POP PUSH3 0x163 JUMP JUMPDEST POP SWAP1 JUMP JUMPDEST DUP1 DUP3 GT ISZERO PUSH3 0x15F JUMPI PUSH0 PUSH3 0x179 DUP3 DUP3 PUSH3 0x183 JUMP JUMPDEST POP PUSH1 0x1 ADD PUSH3 0x163 JUMP JUMPDEST POP DUP1 SLOAD PUSH3 0x191 SWAP1 PUSH3 0x3DE JUMP JUMPDEST PUSH0 DUP3 SSTORE DUP1 PUSH1 0x1F LT PUSH3 0x1A1 JUMPI POP POP JUMP JUMPDEST PUSH1 0x1F ADD PUSH1 0x20 SWAP1 DIV SWAP1 PUSH0 MSTORE PUSH1 0x20 PUSH0 KECCAK256 SWAP1 DUP2 ADD SWAP1 PUSH3 0x1BF SWAP2 SWAP1 PUSH3 0x1C2 JUMP JUMPDEST POP JUMP JUMPDEST JUMPDEST DUP1 DUP3 GT ISZERO PUSH3 0x15F JUMPI PUSH0 DUP2 SSTORE PUSH1 0x1 ADD PUSH3 0x1C3 JUMP JUMPDEST PUSH4 0x4E487B71 PUSH1 0xE0 SHL PUSH0 MSTORE PUSH1 0x41 PUSH1 0x4 MSTORE PUSH1 0x24 PUSH0 REVERT JUMPDEST PUSH1 0x40 MLOAD PUSH1 0x1F DUP3 ADD PUSH1 0x1F NOT AND DUP2 ADD PUSH1 0x1 PUSH1 0x1 PUSH1 0x40 SHL SUB DUP2 GT DUP3 DUP3 LT OR ISZERO PUSH3 0x217 JUMPI PUSH3 0x217 PUSH3 0x1D8 JUMP JUMPDEST PUSH1 0x40 MSTORE SWAP2 SWAP1 POP JUMP JUMPDEST PUSH0 DUP3 PUSH1 0x1F DUP4 ADD SLT PUSH3 0x22F JUMPI PUSH0 DUP1 REVERT JUMPDEST DUP2 MLOAD PUSH1 0x1 PUSH1 0x1 PUSH1 0x40 SHL SUB DUP2 GT ISZERO PUSH3 0x24B JUMPI PUSH3 0x24B PUSH3 0x1D8 JUMP JUMPDEST PUSH1 0x20 PUSH3 0x261 PUSH1 0x1F DUP4 ADD PUSH1 0x1F NOT AND DUP3 ADD PUSH3 0x1EC JUMP JUMPDEST DUP3 DUP2 MSTORE DUP6 DUP3 DUP5 DUP8 ADD ADD GT ISZERO PUSH3 0x275 JUMPI PUSH0 DUP1 REVERT JUMPDEST PUSH0 JUMPDEST DUP4 DUP2 LT ISZERO PUSH3 0x294 JUMPI DUP6 DUP2 ADD DUP4 ADD MLOAD DUP3 DUP3 ADD DUP5 ADD MSTORE DUP3 ADD PUSH3 0x277 JUMP JUMPDEST POP PUSH0 SWAP3 DUP2 ADD SWAP1 SWAP2 ADD SWAP2 SWAP1 SWAP2 MSTORE SWAP4 SWAP3 POP POP POP JUMP JUMPDEST PUSH0 DUP1 PUSH0 DUP1 PUSH1 0x80 DUP6 DUP8 SUB SLT ISZERO PUSH3 0x2BB JUMPI PUSH0 DUP1 REVERT JUMPDEST DUP5 MLOAD PUSH1 0x1 PUSH1 0x1 PUSH1 0xA0 SHL SUB DUP2 AND DUP2 EQ PUSH3 0x2D2 JUMPI PUSH0 DUP1 REVERT JUMPDEST PUSH1 0x20 DUP7 DUP2 ADD MLOAD SWAP2 SWAP6 POP SWAP1 PUSH1 0x1 PUSH1 0x1 PUSH1 0x40 SHL SUB DUP1 DUP3 GT ISZERO PUSH3 0x2F1 JUMPI PUSH0 DUP1 REVERT JUMPDEST PUSH3 0x2FF DUP10 DUP4 DUP11 ADD PUSH3 0x21F JUMP JUMPDEST SWAP6 POP PUSH1 0x40 DUP9 ADD MLOAD SWAP2 POP DUP1 DUP3 GT ISZERO PUSH3 0x315 JUMPI PUSH0 DUP1 REVERT JUMPDEST PUSH3 0x323 DUP10 DUP4 DUP11 ADD PUSH3 0x21F JUMP JUMPDEST SWAP5 POP PUSH1 0x60 DUP9 ADD MLOAD SWAP2 POP DUP1 DUP3 GT ISZERO PUSH3 0x339 JUMPI PUSH0 DUP1 REVERT JUMPDEST DUP2 DUP9 ADD SWAP2 POP DUP9 PUSH1 0x1F DUP4 ADD SLT PUSH3 0x34D JUMPI PUSH0 DUP1 REVERT JUMPDEST DUP2 MLOAD DUP2 DUP2 GT ISZERO PUSH3 0x362 JUMPI PUSH3 0x362 PUSH3 0x1D8 JUMP JUMPDEST DUP1 PUSH1 0x5 SHL PUSH3 0x373 DUP6 DUP3 ADD PUSH3 0x1EC JUMP JUMPDEST SWAP2 DUP3 MSTORE DUP4 DUP2 ADD DUP6 ADD SWAP2 DUP6 DUP2 ADD SWAP1 DUP13 DUP5 GT ISZERO PUSH3 0x38D JUMPI PUSH0 DUP1 REVERT JUMPDEST DUP7 DUP7 ADD SWAP3 POP JUMPDEST DUP4 DUP4 LT ISZERO PUSH3 0x3CD JUMPI DUP3 MLOAD DUP6 DUP2 GT ISZERO PUSH3 0x3AC JUMPI PUSH0 DUP1 DUP2 REVERT JUMPDEST PUSH3 0x3BC DUP15 DUP10 DUP4 DUP11 ADD ADD PUSH3 0x21F JUMP JUMPDEST DUP4 MSTORE POP SWAP2 DUP7 ADD SWAP2 SWAP1 DUP7 ADD SWAP1 PUSH3 0x393 JUMP JUMPDEST SWAP10 SWAP13 SWAP9 SWAP12 POP SWAP7 SWAP10 POP POP POP POP POP POP POP POP JUMP JUMPDEST PUSH1 0x1 DUP2 DUP2 SHR SWAP1 DUP3 AND DUP1 PUSH3 0x3F3 JUMPI PUSH1 0x7F DUP3 AND SWAP2 POP JUMPDEST PUSH1 0x20 DUP3 LT DUP2 SUB PUSH3 0x412 JUMPI PUSH4 0x4E487B71 PUSH1 0xE0 SHL PUSH0 MSTORE PUSH1 0x22 PUSH1 0x4 MSTORE PUSH1 0x24 PUSH0 REVERT JUMPDEST POP SWAP2 SWAP1 POP JUMP JUMPDEST PUSH1 0x1F DUP3 GT ISZERO PUSH3 0x465 JUMPI PUSH0 DUP2 DUP2 MSTORE PUSH1 0x20 DUP2 KECCAK256 PUSH1 0x1F DUP6 ADD PUSH1 0x5 SHR DUP2 ADD PUSH1 0x20 DUP7 LT ISZERO PUSH3 0x440 JUMPI POP DUP1 JUMPDEST PUSH1 0x1F DUP6 ADD PUSH1 0x5 SHR DUP3 ADD SWAP2 POP JUMPDEST DUP2 DUP2 LT ISZERO PUSH3 0x461 JUMPI DUP3 DUP2 SSTORE PUSH1 0x1 ADD PUSH3 0x44C JUMP JUMPDEST POP POP POP JUMPDEST POP POP POP JUMP JUMPDEST DUP2 MLOAD PUSH1 0x1 PUSH1 0x1 PUSH1 0x40 SHL SUB DUP2 GT ISZERO PUSH3 0x486 JUMPI PUSH3 0x486 PUSH3 0x1D8 JUMP JUMPDEST PUSH3 0x49E DUP2 PUSH3 0x497 DUP5 SLOAD PUSH3 0x3DE JUMP JUMPDEST DUP5 PUSH3 0x418 JUMP JUMPDEST PUSH1 0x20 DUP1 PUSH1 0x1F DUP4 GT PUSH1 0x1 DUP2 EQ PUSH3 0x4D4 JUMPI PUSH0 DUP5 ISZERO PUSH3 0x4BC JUMPI POP DUP6 DUP4 ADD MLOAD JUMPDEST PUSH0 NOT PUSH1 0x3 DUP7 SWAP1 SHL SHR NOT AND PUSH1 0x1 DUP6 SWAP1 SHL OR DUP6 SSTORE PUSH3 0x461 JUMP JUMPDEST PUSH0 DUP6 DUP2 MSTORE PUSH1 0x20 DUP2 KECCAK256 PUSH1 0x1F NOT DUP7 AND SWAP2 JUMPDEST DUP3 DUP2 LT ISZERO PUSH3 0x504 JUMPI DUP9 DUP7 ADD MLOAD DUP3 SSTORE SWAP5 DUP5 ADD SWAP5 PUSH1 0x1 SWAP1 SWAP2 ADD SWAP1 DUP5 ADD PUSH3 0x4E3 JUMP JUMPDEST POP DUP6 DUP3 LT ISZERO PUSH3 0x522 JUMPI DUP8 DUP6 ADD MLOAD PUSH0 NOT PUSH1 0x3 DUP9 SWAP1 SHL PUSH1 0xF8 AND SHR NOT AND DUP2 SSTORE JUMPDEST POP POP POP POP POP PUSH1 0x1 SWAP1 DUP2 SHL ADD SWAP1 SSTORE POP JUMP JUMPDEST PUSH2 0xD98 DUP1 PUSH3 0x540 PUSH0 CODECOPY PUSH0 RETURN INVALID PUSH1 0x80 PUSH1 0x40 MSTORE CALLVALUE DUP1 ISZERO PUSH2 0xF JUMPI PUSH0 DUP1 REVERT JUMPDEST POP PUSH1 0x4 CALLDATASIZE LT PUSH2 0x7A JUMPI PUSH0 CALLDATALOAD PUSH1 0xE0 SHR DUP1 PUSH4 0xA7960A28 GT PUSH2 0x58 JUMPI DUP1 PUSH4 0xA7960A28 EQ PUSH2 0xC1 JUMPI DUP1 PUSH4 0xD270E7AB EQ PUSH2 0xD4 JUMPI DUP1 PUSH4 0xF8CB00BF EQ PUSH2 0xFE JUMPI DUP1 PUSH4 0xFE0AE165 EQ PUSH2 0x118 JUMPI PUSH0 DUP1 REVERT JUMPDEST DUP1 PUSH4 0x6F4BCBF EQ PUSH2 0x7E JUMPI DUP1 PUSH4 0xE973501 EQ PUSH2 0x88 JUMPI DUP1 PUSH4 0x494A0F3B EQ PUSH2 0x9B JUMPI JUMPDEST PUSH0 DUP1 REVERT JUMPDEST PUSH2 0x86 PUSH2 0x120 JUMP JUMPDEST STOP JUMPDEST PUSH2 0x86 PUSH2 0x96 CALLDATASIZE PUSH1 0x4 PUSH2 0x963 JUMP JUMPDEST PUSH2 0x1E4 JUMP JUMPDEST PUSH2 0xAE PUSH2 0xA9 CALLDATASIZE PUSH1 0x4 PUSH2 0xA78 JUMP JUMPDEST PUSH2 0x2BB JUMP JUMPDEST PUSH1 0x40 MLOAD SWAP1 DUP2 MSTORE PUSH1 0x20 ADD JUMPDEST PUSH1 0x40 MLOAD DUP1 SWAP2 SUB SWAP1 RETURN JUMPDEST PUSH2 0x86 PUSH2 0xCF CALLDATASIZE PUSH1 0x4 PUSH2 0xA9A JUMP JUMPDEST PUSH2 0x35E JUMP JUMPDEST PUSH0 SLOAD PUSH2 0xE6 SWAP1 PUSH1 0x1 PUSH1 0x1 PUSH1 0xA0 SHL SUB AND DUP2 JUMP JUMPDEST PUSH1 0x40 MLOAD PUSH1 0x1 PUSH1 0x1 PUSH1 0xA0 SHL SUB SWAP1 SWAP2 AND DUP2 MSTORE PUSH1 0x20 ADD PUSH2 0xB8 JUMP JUMPDEST PUSH2 0x106 PUSH2 0x513 JUMP JUMPDEST PUSH1 0x40 MLOAD PUSH2 0xB8 SWAP7 SWAP6 SWAP5 SWAP4 SWAP3 SWAP2 SWAP1 PUSH2 0xB07 JUMP JUMPDEST PUSH2 0x86 PUSH2 0x73D JUMP JUMPDEST PUSH1 0x1 PUSH0 SWAP1 SLOAD SWAP1 PUSH2 0x100 EXP SWAP1 DIV PUSH1 0x1 PUSH1 0x1 PUSH1 0xA0 SHL SUB AND PUSH1 0x1 PUSH1 0x1 PUSH1 0xA0 SHL SUB AND PUSH4 0x6E9960C3 PUSH1 0x40 MLOAD DUP2 PUSH4 0xFFFFFFFF AND PUSH1 0xE0 SHL DUP2 MSTORE PUSH1 0x4 ADD PUSH1 0x20 PUSH1 0x40 MLOAD DUP1 DUP4 SUB DUP2 DUP7 GAS STATICCALL ISZERO DUP1 ISZERO PUSH2 0x170 JUMPI RETURNDATASIZE PUSH0 DUP1 RETURNDATACOPY RETURNDATASIZE PUSH0 REVERT JUMPDEST POP POP POP POP PUSH1 0x40 MLOAD RETURNDATASIZE PUSH1 0x1F NOT PUSH1 0x1F DUP3 ADD AND DUP3 ADD DUP1 PUSH1 0x40 MSTORE POP DUP2 ADD SWAP1 PUSH2 0x194 SWAP2 SWAP1 PUSH2 0xBAC JUMP JUMPDEST PUSH1 0x1 PUSH1 0x1 PUSH1 0xA0 SHL SUB AND CALLER PUSH1 0x1 PUSH1 0x1 PUSH1 0xA0 SHL SUB AND EQ PUSH2 0x1CD JUMPI PUSH1 0x40 MLOAD PUSH3 0x461BCD PUSH1 0xE5 SHL DUP2 MSTORE PUSH1 0x4 ADD PUSH2 0x1C4 SWAP1 PUSH2 0xBC7 JUMP JUMPDEST PUSH1 0x40 MLOAD DUP1 SWAP2 SUB SWAP1 REVERT JUMPDEST PUSH1 0x7 DUP1 SLOAD PUSH1 0x2 SWAP2 SWAP1 PUSH1 0xFF NOT AND PUSH1 0x1 DUP4 JUMPDEST MUL OR SWAP1 SSTORE POP JUMP JUMPDEST PUSH1 0x1 PUSH0 SWAP1 SLOAD SWAP1 PUSH2 0x100 EXP SWAP1 DIV PUSH1 0x1 PUSH1 0x1 PUSH1 0xA0 SHL SUB AND PUSH1 0x1 PUSH1 0x1 PUSH1 0xA0 SHL SUB AND PUSH4 0x6E9960C3 PUSH1 0x40 MLOAD DUP2 PUSH4 0xFFFFFFFF AND PUSH1 0xE0 SHL DUP2 MSTORE PUSH1 0x4 ADD PUSH1 0x20 PUSH1 0x40 MLOAD DUP1 DUP4 SUB DUP2 DUP7 GAS STATICCALL ISZERO DUP1 ISZERO PUSH2 0x234 JUMPI RETURNDATASIZE PUSH0 DUP1 RETURNDATACOPY RETURNDATASIZE PUSH0 REVERT JUMPDEST POP POP POP POP PUSH1 0x40 MLOAD RETURNDATASIZE PUSH1 0x1F NOT PUSH1 0x1F DUP3 ADD AND DUP3 ADD DUP1 PUSH1 0x40 MSTORE POP DUP2 ADD SWAP1 PUSH2 0x258 SWAP2 SWAP1 PUSH2 0xBAC JUMP JUMPDEST PUSH1 0x1 PUSH1 0x1 PUSH1 0xA0 SHL SUB AND CALLER PUSH1 0x1 PUSH1 0x1 PUSH1 0xA0 SHL SUB AND EQ PUSH2 0x288 JUMPI PUSH1 0x40 MLOAD PUSH3 0x461BCD PUSH1 0xE5 SHL DUP2 MSTORE PUSH1 0x4 ADD PUSH2 0x1C4 SWAP1 PUSH2 0xBC7 JUMP JUMPDEST PUSH1 0x2 PUSH2 0x294 DUP5 DUP3 PUSH2 0xCA6 JUMP JUMPDEST POP PUSH1 0x3 PUSH2 0x2A1 DUP4 DUP3 PUSH2 0xCA6 JUMP JUMPDEST POP DUP1 MLOAD PUSH2 0x2B5 SWAP1 PUSH1 0x4 SWAP1 PUSH1 0x20 DUP5 ADD SWAP1 PUSH2 0x7F4 JUMP JUMPDEST POP POP POP POP JUMP JUMPDEST PUSH1 0x1 SLOAD PUSH1 0x40 DUP1 MLOAD PUSH4 0x6E9960C3 PUSH1 0xE0 SHL DUP2 MSTORE SWAP1 MLOAD PUSH0 SWAP3 PUSH1 0x1 PUSH1 0x1 PUSH1 0xA0 SHL SUB AND SWAP2 PUSH4 0x6E9960C3 SWAP2 PUSH1 0x4 DUP1 DUP4 ADD SWAP3 PUSH1 0x20 SWAP3 SWAP2 SWAP1 DUP3 SWAP1 SUB ADD DUP2 DUP7 GAS STATICCALL ISZERO DUP1 ISZERO PUSH2 0x302 JUMPI RETURNDATASIZE PUSH0 DUP1 RETURNDATACOPY RETURNDATASIZE PUSH0 REVERT JUMPDEST POP POP POP POP PUSH1 0x40 MLOAD RETURNDATASIZE PUSH1 0x1F NOT PUSH1 0x1F DUP3 ADD AND DUP3 ADD DUP1 PUSH1 0x40 MSTORE POP DUP2 ADD SWAP1 PUSH2 0x326 SWAP2 SWAP1 PUSH2 0xBAC JUMP JUMPDEST PUSH1 0x1 PUSH1 0x1 PUSH1 0xA0 SHL SUB AND CALLER PUSH1 0x1 PUSH1 0x1 PUSH1 0xA0 SHL SUB AND EQ PUSH2 0x356 JUMPI PUSH1 0x40 MLOAD PUSH3 0x461BCD PUSH1 0xE5 SHL DUP2 MSTORE PUSH1 0x4 ADD PUSH2 0x1C4 SWAP1 PUSH2 0xBC7 JUMP JUMPDEST POP PUSH1 0x1 SWAP2 SWAP1 POP JUMP JUMPDEST PUSH1 0x1 PUSH0 SWAP1 SLOAD SWAP1 PUSH2 0x100 EXP SWAP1 DIV PUSH1 0x1 PUSH1 0x1 PUSH1 0xA0 SHL SUB AND PUSH1 0x1 PUSH1 0x1 PUSH1 0xA0 SHL SUB AND PUSH4 0x6E9960C3 PUSH1 0x40 MLOAD DUP2 PUSH4 0xFFFFFFFF AND PUSH1 0xE0 SHL DUP2 MSTORE PUSH1 0x4 ADD PUSH1 0x20 PUSH1 0x40 MLOAD DUP1 DUP4 SUB DUP2 DUP7 GAS STATICCALL ISZERO DUP1 ISZERO PUSH2 0x3AE JUMPI RETURNDATASIZE PUSH0 DUP1 RETURNDATACOPY RETURNDATASIZE PUSH0 REVERT JUMPDEST POP POP POP POP PUSH1 0x40 MLOAD RETURNDATASIZE PUSH1 0x1F NOT PUSH1 0x1F DUP3 ADD AND DUP3 ADD DUP1 PUSH1 0x40 MSTORE POP DUP2 ADD SWAP1 PUSH2 0x3D2 SWAP2 SWAP1 PUSH2 0xBAC JUMP JUMPDEST PUSH1 0x1 PUSH1 0x1 PUSH1 0xA0 SHL SUB AND CALLER SUB PUSH2 0x43D JUMPI PUSH1 0x40 MLOAD PUSH3 0x461BCD PUSH1 0xE5 SHL DUP2 MSTORE PUSH1 0x20 PUSH1 0x4 DUP3 ADD MSTORE PUSH1 0x2B PUSH1 0x24 DUP3 ADD MSTORE PUSH32 0x546869732066756E6374696F6E206F6E6C79207061727469636970616E742063 PUSH1 0x44 DUP3 ADD MSTORE PUSH11 0x616E206578656375746521 PUSH1 0xA8 SHL PUSH1 0x64 DUP3 ADD MSTORE PUSH1 0x84 ADD PUSH2 0x1C4 JUMP JUMPDEST PUSH1 0x1 PUSH1 0x7 SLOAD PUSH1 0xFF AND PUSH1 0x2 DUP2 GT ISZERO PUSH2 0x456 JUMPI PUSH2 0x456 PUSH2 0xC0C JUMP JUMPDEST EQ PUSH2 0x4A3 JUMPI PUSH1 0x40 MLOAD PUSH3 0x461BCD PUSH1 0xE5 SHL DUP2 MSTORE PUSH1 0x20 PUSH1 0x4 DUP3 ADD MSTORE PUSH1 0x1A PUSH1 0x24 DUP3 ADD MSTORE PUSH32 0x53657373696F6E206973206E6F7420696E2070726F6772657373000000000000 PUSH1 0x44 DUP3 ADD MSTORE PUSH1 0x64 ADD PUSH2 0x1C4 JUMP JUMPDEST PUSH1 0x1 PUSH1 0x1 PUSH1 0xA0 SHL SUB DUP3 AND PUSH0 SWAP1 DUP2 MSTORE PUSH1 0x8 PUSH1 0x20 MSTORE PUSH1 0x40 DUP2 KECCAK256 DUP3 SWAP1 SSTORE DUP2 SWAP1 SUB PUSH2 0x50F JUMPI PUSH1 0x9 DUP1 SLOAD PUSH1 0x1 DUP2 ADD DUP3 SSTORE PUSH0 SWAP2 SWAP1 SWAP2 MSTORE PUSH32 0x6E1540171B6C0C960B71A7020D9F60077F6AF931A8BBF590DA0223DACF75C7AF ADD DUP1 SLOAD PUSH1 0x1 PUSH1 0x1 PUSH1 0xA0 SHL SUB NOT AND PUSH1 0x1 PUSH1 0x1 PUSH1 0xA0 SHL SUB DUP5 AND OR SWAP1 SSTORE JUMPDEST POP POP JUMP JUMPDEST PUSH1 0x60 DUP1 PUSH1 0x60 PUSH0 DUP1 PUSH0 PUSH1 0x2 PUSH1 0x3 PUSH1 0x4 PUSH1 0x5 SLOAD PUSH1 0x6 SLOAD PUSH1 0x7 PUSH0 SWAP1 SLOAD SWAP1 PUSH2 0x100 EXP SWAP1 DIV PUSH1 0xFF AND PUSH1 0x2 DUP2 GT ISZERO PUSH2 0x547 JUMPI PUSH2 0x547 PUSH2 0xC0C JUMP JUMPDEST DUP6 DUP1 SLOAD PUSH2 0x553 SWAP1 PUSH2 0xC20 JUMP JUMPDEST DUP1 PUSH1 0x1F ADD PUSH1 0x20 DUP1 SWAP2 DIV MUL PUSH1 0x20 ADD PUSH1 0x40 MLOAD SWAP1 DUP2 ADD PUSH1 0x40 MSTORE DUP1 SWAP3 SWAP2 SWAP1 DUP2 DUP2 MSTORE PUSH1 0x20 ADD DUP3 DUP1 SLOAD PUSH2 0x57F SWAP1 PUSH2 0xC20 JUMP JUMPDEST DUP1 ISZERO PUSH2 0x5CA JUMPI DUP1 PUSH1 0x1F LT PUSH2 0x5A1 JUMPI PUSH2 0x100 DUP1 DUP4 SLOAD DIV MUL DUP4 MSTORE SWAP2 PUSH1 0x20 ADD SWAP2 PUSH2 0x5CA JUMP JUMPDEST DUP3 ADD SWAP2 SWAP1 PUSH0 MSTORE PUSH1 0x20 PUSH0 KECCAK256 SWAP1 JUMPDEST DUP2 SLOAD DUP2 MSTORE SWAP1 PUSH1 0x1 ADD SWAP1 PUSH1 0x20 ADD DUP1 DUP4 GT PUSH2 0x5AD JUMPI DUP3 SWAP1 SUB PUSH1 0x1F AND DUP3 ADD SWAP2 JUMPDEST POP POP POP POP POP SWAP6 POP DUP5 DUP1 SLOAD PUSH2 0x5DD SWAP1 PUSH2 0xC20 JUMP JUMPDEST DUP1 PUSH1 0x1F ADD PUSH1 0x20 DUP1 SWAP2 DIV MUL PUSH1 0x20 ADD PUSH1 0x40 MLOAD SWAP1 DUP2 ADD PUSH1 0x40 MSTORE DUP1 SWAP3 SWAP2 SWAP1 DUP2 DUP2 MSTORE PUSH1 0x20 ADD DUP3 DUP1 SLOAD PUSH2 0x609 SWAP1 PUSH2 0xC20 JUMP JUMPDEST DUP1 ISZERO PUSH2 0x654 JUMPI DUP1 PUSH1 0x1F LT PUSH2 0x62B JUMPI PUSH2 0x100 DUP1 DUP4 SLOAD DIV MUL DUP4 MSTORE SWAP2 PUSH1 0x20 ADD SWAP2 PUSH2 0x654 JUMP JUMPDEST DUP3 ADD SWAP2 SWAP1 PUSH0 MSTORE PUSH1 0x20 PUSH0 KECCAK256 SWAP1 JUMPDEST DUP2 SLOAD DUP2 MSTORE SWAP1 PUSH1 0x1 ADD SWAP1 PUSH1 0x20 ADD DUP1 DUP4 GT PUSH2 0x637 JUMPI DUP3 SWAP1 SUB PUSH1 0x1F AND DUP3 ADD SWAP2 JUMPDEST POP POP POP POP POP SWAP5 POP DUP4 DUP1 SLOAD DUP1 PUSH1 0x20 MUL PUSH1 0x20 ADD PUSH1 0x40 MLOAD SWAP1 DUP2 ADD PUSH1 0x40 MSTORE DUP1 SWAP3 SWAP2 SWAP1 DUP2 DUP2 MSTORE PUSH1 0x20 ADD PUSH0 SWAP1 JUMPDEST DUP3 DUP3 LT ISZERO PUSH2 0x723 JUMPI DUP4 DUP3 SWAP1 PUSH0 MSTORE PUSH1 0x20 PUSH0 KECCAK256 ADD DUP1 SLOAD PUSH2 0x698 SWAP1 PUSH2 0xC20 JUMP JUMPDEST DUP1 PUSH1 0x1F ADD PUSH1 0x20 DUP1 SWAP2 DIV MUL PUSH1 0x20 ADD PUSH1 0x40 MLOAD SWAP1 DUP2 ADD PUSH1 0x40 MSTORE DUP1 SWAP3 SWAP2 SWAP1 DUP2 DUP2 MSTORE PUSH1 0x20 ADD DUP3 DUP1 SLOAD PUSH2 0x6C4 SWAP1 PUSH2 0xC20 JUMP JUMPDEST DUP1 ISZERO PUSH2 0x70F JUMPI DUP1 PUSH1 0x1F LT PUSH2 0x6E6 JUMPI PUSH2 0x100 DUP1 DUP4 SLOAD DIV MUL DUP4 MSTORE SWAP2 PUSH1 0x20 ADD SWAP2 PUSH2 0x70F JUMP JUMPDEST DUP3 ADD SWAP2 SWAP1 PUSH0 MSTORE PUSH1 0x20 PUSH0 KECCAK256 SWAP1 JUMPDEST DUP2 SLOAD DUP2 MSTORE SWAP1 PUSH1 0x1 ADD SWAP1 PUSH1 0x20 ADD DUP1 DUP4 GT PUSH2 0x6F2 JUMPI DUP3 SWAP1 SUB PUSH1 0x1F AND DUP3 ADD SWAP2 JUMPDEST POP POP POP POP POP DUP2 MSTORE PUSH1 0x20 ADD SWAP1 PUSH1 0x1 ADD SWAP1 PUSH2 0x67B JUMP JUMPDEST POP POP POP POP SWAP4 POP SWAP6 POP SWAP6 POP SWAP6 POP SWAP6 POP SWAP6 POP SWAP6 POP SWAP1 SWAP2 SWAP3 SWAP4 SWAP5 SWAP6 JUMP JUMPDEST PUSH1 0x1 PUSH0 SWAP1 SLOAD SWAP1 PUSH2 0x100 EXP SWAP1 DIV PUSH1 0x1 PUSH1 0x1 PUSH1 0xA0 SHL SUB AND PUSH1 0x1 PUSH1 0x1 PUSH1 0xA0 SHL SUB AND PUSH4 0x6E9960C3 PUSH1 0x40 MLOAD DUP2 PUSH4 0xFFFFFFFF AND PUSH1 0xE0 SHL DUP2 MSTORE PUSH1 0x4 ADD PUSH1 0x20 PUSH1 0x40 MLOAD DUP1 DUP4 SUB DUP2 DUP7 GAS STATICCALL ISZERO DUP1 ISZERO PUSH2 0x78D JUMPI RETURNDATASIZE PUSH0 DUP1 RETURNDATACOPY RETURNDATASIZE PUSH0 REVERT JUMPDEST POP POP POP POP PUSH1 0x40 MLOAD RETURNDATASIZE PUSH1 0x1F NOT PUSH1 0x1F DUP3 ADD AND DUP3 ADD DUP1 PUSH1 0x40 MSTORE POP DUP2 ADD SWAP1 PUSH2 0x7B1 SWAP2 SWAP1 PUSH2 0xBAC JUMP JUMPDEST PUSH1 0x1 PUSH1 0x1 PUSH1 0xA0 SHL SUB AND CALLER PUSH1 0x1 PUSH1 0x1 PUSH1 0xA0 SHL SUB AND EQ PUSH2 0x7E1 JUMPI PUSH1 0x40 MLOAD PUSH3 0x461BCD PUSH1 0xE5 SHL DUP2 MSTORE PUSH1 0x4 ADD PUSH2 0x1C4 SWAP1 PUSH2 0xBC7 JUMP JUMPDEST PUSH1 0x7 DUP1 SLOAD PUSH1 0x1 SWAP2 SWAP1 PUSH1 0xFF NOT AND DUP3 DUP1 PUSH2 0x1DD JUMP JUMPDEST DUP3 DUP1 SLOAD DUP3 DUP3 SSTORE SWAP1 PUSH0 MSTORE PUSH1 0x20 PUSH0 KECCAK256 SWAP1 DUP2 ADD SWAP3 DUP3 ISZERO PUSH2 0x838 JUMPI SWAP2 PUSH1 0x20 MUL DUP3 ADD JUMPDEST DUP3 DUP2 GT ISZERO PUSH2 0x838 JUMPI DUP3 MLOAD DUP3 SWAP1 PUSH2 0x828 SWAP1 DUP3 PUSH2 0xCA6 JUMP JUMPDEST POP SWAP2 PUSH1 0x20 ADD SWAP2 SWAP1 PUSH1 0x1 ADD SWAP1 PUSH2 0x812 JUMP JUMPDEST POP PUSH2 0x844 SWAP3 SWAP2 POP PUSH2 0x848 JUMP JUMPDEST POP SWAP1 JUMP JUMPDEST DUP1 DUP3 GT ISZERO PUSH2 0x844 JUMPI PUSH0 PUSH2 0x85B DUP3 DUP3 PUSH2 0x864 JUMP JUMPDEST POP PUSH1 0x1 ADD PUSH2 0x848 JUMP JUMPDEST POP DUP1 SLOAD PUSH2 0x870 SWAP1 PUSH2 0xC20 JUMP JUMPDEST PUSH0 DUP3 SSTORE DUP1 PUSH1 0x1F LT PUSH2 0x87F JUMPI POP POP JUMP JUMPDEST PUSH1 0x1F ADD PUSH1 0x20 SWAP1 DIV SWAP1 PUSH0 MSTORE PUSH1 0x20 PUSH0 KECCAK256 SWAP1 DUP2 ADD SWAP1 PUSH2 0x89B SWAP2 SWAP1 PUSH2 0x89E JUMP JUMPDEST POP JUMP JUMPDEST JUMPDEST DUP1 DUP3 GT ISZERO PUSH2 0x844 JUMPI PUSH0 DUP2 SSTORE PUSH1 0x1 ADD PUSH2 0x89F JUMP JUMPDEST PUSH4 0x4E487B71 PUSH1 0xE0 SHL PUSH0 MSTORE PUSH1 0x41 PUSH1 0x4 MSTORE PUSH1 0x24 PUSH0 REVERT JUMPDEST PUSH1 0x40 MLOAD PUSH1 0x1F DUP3 ADD PUSH1 0x1F NOT AND DUP2 ADD PUSH8 0xFFFFFFFFFFFFFFFF DUP2 GT DUP3 DUP3 LT OR ISZERO PUSH2 0x8EF JUMPI PUSH2 0x8EF PUSH2 0x8B2 JUMP JUMPDEST PUSH1 0x40 MSTORE SWAP2 SWAP1 POP JUMP JUMPDEST PUSH0 DUP3 PUSH1 0x1F DUP4 ADD SLT PUSH2 0x906 JUMPI PUSH0 DUP1 REVERT JUMPDEST DUP2 CALLDATALOAD PUSH8 0xFFFFFFFFFFFFFFFF DUP2 GT ISZERO PUSH2 0x920 JUMPI PUSH2 0x920 PUSH2 0x8B2 JUMP JUMPDEST PUSH2 0x933 PUSH1 0x1F DUP3 ADD PUSH1 0x1F NOT AND PUSH1 0x20 ADD PUSH2 0x8C6 JUMP JUMPDEST DUP2 DUP2 MSTORE DUP5 PUSH1 0x20 DUP4 DUP7 ADD ADD GT ISZERO PUSH2 0x947 JUMPI PUSH0 DUP1 REVERT JUMPDEST DUP2 PUSH1 0x20 DUP6 ADD PUSH1 0x20 DUP4 ADD CALLDATACOPY PUSH0 SWAP2 DUP2 ADD PUSH1 0x20 ADD SWAP2 SWAP1 SWAP2 MSTORE SWAP4 SWAP3 POP POP POP JUMP JUMPDEST PUSH0 DUP1 PUSH0 PUSH1 0x60 DUP5 DUP7 SUB SLT ISZERO PUSH2 0x975 JUMPI PUSH0 DUP1 REVERT JUMPDEST DUP4 CALLDATALOAD PUSH8 0xFFFFFFFFFFFFFFFF DUP1 DUP3 GT ISZERO PUSH2 0x98C JUMPI PUSH0 DUP1 REVERT JUMPDEST PUSH2 0x998 DUP8 DUP4 DUP9 ADD PUSH2 0x8F7 JUMP JUMPDEST SWAP5 POP PUSH1 0x20 SWAP2 POP DUP2 DUP7 ADD CALLDATALOAD DUP2 DUP2 GT ISZERO PUSH2 0x9AE JUMPI PUSH0 DUP1 REVERT JUMPDEST PUSH2 0x9BA DUP9 DUP3 DUP10 ADD PUSH2 0x8F7 JUMP JUMPDEST SWAP5 POP POP PUSH1 0x40 DUP7 ADD CALLDATALOAD DUP2 DUP2 GT ISZERO PUSH2 0x9CE JUMPI PUSH0 DUP1 REVERT JUMPDEST DUP7 ADD PUSH1 0x1F DUP2 ADD DUP9 SGT PUSH2 0x9DE JUMPI PUSH0 DUP1 REVERT JUMPDEST DUP1 CALLDATALOAD DUP3 DUP2 GT ISZERO PUSH2 0x9F0 JUMPI PUSH2 0x9F0 PUSH2 0x8B2 JUMP JUMPDEST DUP1 PUSH1 0x5 SHL PUSH2 0x9FF DUP6 DUP3 ADD PUSH2 0x8C6 JUMP JUMPDEST SWAP2 DUP3 MSTORE DUP3 DUP2 ADD DUP6 ADD SWAP2 DUP6 DUP2 ADD SWAP1 DUP12 DUP5 GT ISZERO PUSH2 0xA18 JUMPI PUSH0 DUP1 REVERT JUMPDEST DUP7 DUP6 ADD SWAP3 POP JUMPDEST DUP4 DUP4 LT ISZERO PUSH2 0xA53 JUMPI DUP3 CALLDATALOAD DUP7 DUP2 GT ISZERO PUSH2 0xA35 JUMPI PUSH0 DUP1 DUP2 REVERT JUMPDEST PUSH2 0xA43 DUP14 DUP10 DUP4 DUP10 ADD ADD PUSH2 0x8F7 JUMP JUMPDEST DUP4 MSTORE POP SWAP2 DUP7 ADD SWAP2 SWAP1 DUP7 ADD SWAP1 PUSH2 0xA1E JUMP JUMPDEST DUP1 SWAP8 POP POP POP POP POP POP POP POP SWAP3 POP SWAP3 POP SWAP3 JUMP JUMPDEST PUSH1 0x1 PUSH1 0x1 PUSH1 0xA0 SHL SUB DUP2 AND DUP2 EQ PUSH2 0x89B JUMPI PUSH0 DUP1 REVERT JUMPDEST PUSH0 PUSH1 0x20 DUP3 DUP5 SUB SLT ISZERO PUSH2 0xA88 JUMPI PUSH0 DUP1 REVERT JUMPDEST DUP2 CALLDATALOAD PUSH2 0xA93 DUP2 PUSH2 0xA64 JUMP JUMPDEST SWAP4 SWAP3 POP POP POP JUMP JUMPDEST PUSH0 DUP1 PUSH1 0x40 DUP4 DUP6 SUB SLT ISZERO PUSH2 0xAAB JUMPI PUSH0 DUP1 REVERT JUMPDEST DUP3 CALLDATALOAD PUSH2 0xAB6 DUP2 PUSH2 0xA64 JUMP JUMPDEST SWAP5 PUSH1 0x20 SWAP4 SWAP1 SWAP4 ADD CALLDATALOAD SWAP4 POP POP POP JUMP JUMPDEST PUSH0 DUP2 MLOAD DUP1 DUP5 MSTORE PUSH0 JUMPDEST DUP2 DUP2 LT ISZERO PUSH2 0xAE8 JUMPI PUSH1 0x20 DUP2 DUP6 ADD DUP2 ADD MLOAD DUP7 DUP4 ADD DUP3 ADD MSTORE ADD PUSH2 0xACC JUMP JUMPDEST POP PUSH0 PUSH1 0x20 DUP3 DUP7 ADD ADD MSTORE PUSH1 0x20 PUSH1 0x1F NOT PUSH1 0x1F DUP4 ADD AND DUP6 ADD ADD SWAP2 POP POP SWAP3 SWAP2 POP POP JUMP JUMPDEST PUSH1 0xC0 DUP2 MSTORE PUSH0 PUSH2 0xB19 PUSH1 0xC0 DUP4 ADD DUP10 PUSH2 0xAC4 JUMP JUMPDEST PUSH1 0x20 DUP4 DUP3 SUB DUP2 DUP6 ADD MSTORE PUSH2 0xB2C DUP3 DUP11 PUSH2 0xAC4 JUMP JUMPDEST SWAP2 POP DUP4 DUP3 SUB PUSH1 0x40 DUP6 ADD MSTORE DUP2 DUP9 MLOAD DUP1 DUP5 MSTORE DUP3 DUP5 ADD SWAP2 POP DUP3 DUP2 PUSH1 0x5 SHL DUP6 ADD ADD DUP4 DUP12 ADD PUSH0 JUMPDEST DUP4 DUP2 LT ISZERO PUSH2 0xB7C JUMPI PUSH1 0x1F NOT DUP8 DUP5 SUB ADD DUP6 MSTORE PUSH2 0xB6A DUP4 DUP4 MLOAD PUSH2 0xAC4 JUMP JUMPDEST SWAP5 DUP7 ADD SWAP5 SWAP3 POP SWAP1 DUP6 ADD SWAP1 PUSH1 0x1 ADD PUSH2 0xB4E JUMP JUMPDEST POP POP DUP1 SWAP6 POP POP POP POP POP POP DUP5 PUSH1 0x60 DUP4 ADD MSTORE DUP4 PUSH1 0x80 DUP4 ADD MSTORE PUSH2 0xBA1 PUSH1 0xA0 DUP4 ADD DUP5 PUSH1 0xFF AND SWAP1 MSTORE JUMP JUMPDEST SWAP8 SWAP7 POP POP POP POP POP POP POP JUMP JUMPDEST PUSH0 PUSH1 0x20 DUP3 DUP5 SUB SLT ISZERO PUSH2 0xBBC JUMPI PUSH0 DUP1 REVERT JUMPDEST DUP2 MLOAD PUSH2 0xA93 DUP2 PUSH2 0xA64 JUMP JUMPDEST PUSH1 0x20 DUP1 DUP3 MSTORE PUSH1 0x25 SWAP1 DUP3 ADD MSTORE PUSH32 0x546869732066756E6374696F6E206F6E6C792061646D696E2063616E20657865 PUSH1 0x40 DUP3 ADD MSTORE PUSH5 0x6375746521 PUSH1 0xD8 SHL PUSH1 0x60 DUP3 ADD MSTORE PUSH1 0x80 ADD SWAP1 JUMP JUMPDEST PUSH4 0x4E487B71 PUSH1 0xE0 SHL PUSH0 MSTORE PUSH1 0x21 PUSH1 0x4 MSTORE PUSH1 0x24 PUSH0 REVERT JUMPDEST PUSH1 0x1 DUP2 DUP2 SHR SWAP1 DUP3 AND DUP1 PUSH2 0xC34 JUMPI PUSH1 0x7F DUP3 AND SWAP2 POP JUMPDEST PUSH1 0x20 DUP3 LT DUP2 SUB PUSH2 0xC52 JUMPI PUSH4 0x4E487B71 PUSH1 0xE0 SHL PUSH0 MSTORE PUSH1 0x22 PUSH1 0x4 MSTORE PUSH1 0x24 PUSH0 REVERT JUMPDEST POP SWAP2 SWAP1 POP JUMP JUMPDEST PUSH1 0x1F DUP3 GT ISZERO PUSH2 0xCA1 JUMPI PUSH0 DUP2 DUP2 MSTORE PUSH1 0x20 DUP2 KECCAK256 PUSH1 0x1F DUP6 ADD PUSH1 0x5 SHR DUP2 ADD PUSH1 0x20 DUP7 LT ISZERO PUSH2 0xC7E JUMPI POP DUP1 JUMPDEST PUSH1 0x1F DUP6 ADD PUSH1 0x5 SHR DUP3 ADD SWAP2 POP JUMPDEST DUP2 DUP2 LT ISZERO PUSH2 0xC9D JUMPI DUP3 DUP2 SSTORE PUSH1 0x1 ADD PUSH2 0xC8A JUMP JUMPDEST POP POP POP JUMPDEST POP POP POP JUMP JUMPDEST DUP2 MLOAD PUSH8 0xFFFFFFFFFFFFFFFF DUP2 GT ISZERO PUSH2 0xCC0 JUMPI PUSH2 0xCC0 PUSH2 0x8B2 JUMP JUMPDEST PUSH2 0xCD4 DUP2 PUSH2 0xCCE DUP5 SLOAD PUSH2 0xC20 JUMP JUMPDEST DUP5 PUSH2 0xC58 JUMP JUMPDEST PUSH1 0x20 DUP1 PUSH1 0x1F DUP4 GT PUSH1 0x1 DUP2 EQ PUSH2 0xD07 JUMPI PUSH0 DUP5 ISZERO PUSH2 0xCF0 JUMPI POP DUP6 DUP4 ADD MLOAD JUMPDEST PUSH0 NOT PUSH1 0x3 DUP7 SWAP1 SHL SHR NOT AND PUSH1 0x1 DUP6 SWAP1 SHL OR DUP6 SSTORE PUSH2 0xC9D JUMP JUMPDEST PUSH0 DUP6 DUP2 MSTORE PUSH1 0x20 DUP2 KECCAK256 PUSH1 0x1F NOT DUP7 AND SWAP2 JUMPDEST DUP3 DUP2 LT ISZERO PUSH2 0xD35 JUMPI DUP9 DUP7 ADD MLOAD DUP3 SSTORE SWAP5 DUP5 ADD SWAP5 PUSH1 0x1 SWAP1 SWAP2 ADD SWAP1 DUP5 ADD PUSH2 0xD16 JUMP JUMPDEST POP DUP6 DUP3 LT ISZERO PUSH2 0xD52 JUMPI DUP8 DUP6 ADD MLOAD PUSH0 NOT PUSH1 0x3 DUP9 SWAP1 SHL PUSH1 0xF8 AND SHR NOT AND DUP2 SSTORE JUMPDEST POP POP POP POP POP PUSH1 0x1 SWAP1 DUP2 SHL ADD SWAP1 SSTORE POP JUMP INVALID LOG2 PUSH5 0x6970667358 0x22 SLT KECCAK256 AND SHL SWAP5 0xEF DUP12 0xD PUSH16 0x7BD7E1C05C1425A28EA503C72E543996 0xC 0x2A 0xD7 0xCC PUSH26 0x1758507A64736F6C634300081400330000000000000000000000 "
				},
				"gasEstimates": {
					"creation": {
						"codeDepositCost": "696000",
						"executionCost": "infinite",
						"totalCost": "infinite"
					},
					"external": {
						"calculateSuggestPrice(address)": "infinite",
						"closeSession()": "infinite",
						"getSessionDetail()": "infinite",
						"mainContract()": "2357",
						"pricing(address,uint256)": "infinite",
						"startSession()": "infinite",
						"updateSession(string,string,string[])": "infinite"
					}
				},
				"methodIdentifiers": {
					"calculateSuggestPrice(address)": "494a0f3b",
					"closeSession()": "06f4bcbf",
					"getSessionDetail()": "f8cb00bf",
					"mainContract()": "d270e7ab",
					"pricing(address,uint256)": "a7960a28",
					"startSession()": "fe0ae165",
					"updateSession(string,string,string[])": "0e973501"
				}
			},
			"storageLayout": {
				"storage": [
					{
						"astId": 337,
						"contract": "Session.sol:Session",
						"label": "mainContract",
						"offset": 0,
						"slot": "0",
						"type": "t_address"
					},
					{
						"astId": 340,
						"contract": "Session.sol:Session",
						"label": "MainContract",
						"offset": 0,
						"slot": "1",
						"type": "t_contract(IMain)335"
					},
					{
						"astId": 346,
						"contract": "Session.sol:Session",
						"label": "productName",
						"offset": 0,
						"slot": "2",
						"type": "t_string_storage"
					},
					{
						"astId": 348,
						"contract": "Session.sol:Session",
						"label": "description",
						"offset": 0,
						"slot": "3",
						"type": "t_string_storage"
					},
					{
						"astId": 351,
						"contract": "Session.sol:Session",
						"label": "images",
						"offset": 0,
						"slot": "4",
						"type": "t_array(t_string_storage)dyn_storage"
					},
					{
						"astId": 353,
						"contract": "Session.sol:Session",
						"label": "suggestPrice",
						"offset": 0,
						"slot": "5",
						"type": "t_uint256"
					},
					{
						"astId": 355,
						"contract": "Session.sol:Session",
						"label": "finalPrice",
						"offset": 0,
						"slot": "6",
						"type": "t_uint256"
					},
					{
						"astId": 358,
						"contract": "Session.sol:Session",
						"label": "status",
						"offset": 0,
						"slot": "7",
						"type": "t_enum(SESSION_STATUS)344"
					},
					{
						"astId": 362,
						"contract": "Session.sol:Session",
						"label": "mapParticipantPricings",
						"offset": 0,
						"slot": "8",
						"type": "t_mapping(t_address,t_uint256)"
					},
					{
						"astId": 365,
						"contract": "Session.sol:Session",
						"label": "participantPricings",
						"offset": 0,
						"slot": "9",
						"type": "t_array(t_address)dyn_storage"
					}
				],
				"types": {
					"t_address": {
						"encoding": "inplace",
						"label": "address",
						"numberOfBytes": "20"
					},
					"t_array(t_address)dyn_storage": {
						"base": "t_address",
						"encoding": "dynamic_array",
						"label": "address[]",
						"numberOfBytes": "32"
					},
					"t_array(t_string_storage)dyn_storage": {
						"base": "t_string_storage",
						"encoding": "dynamic_array",
						"label": "string[]",
						"numberOfBytes": "32"
					},
					"t_contract(IMain)335": {
						"encoding": "inplace",
						"label": "contract IMain",
						"numberOfBytes": "20"
					},
					"t_enum(SESSION_STATUS)344": {
						"encoding": "inplace",
						"label": "enum Session.SESSION_STATUS",
						"numberOfBytes": "1"
					},
					"t_mapping(t_address,t_uint256)": {
						"encoding": "mapping",
						"key": "t_address",
						"label": "mapping(address => uint256)",
						"numberOfBytes": "32",
						"value": "t_uint256"
					},
					"t_string_storage": {
						"encoding": "bytes",
						"label": "string",
						"numberOfBytes": "32"
					},
					"t_uint256": {
						"encoding": "inplace",
						"label": "uint256",
						"numberOfBytes": "32"
					}
				}
			},
			"userdoc": {
				"kind": "user",
				"methods": {},
				"version": 1
			}
		}
	}
}