{
	"Session.sol": {
		"Session": {
			"abi": [
				{
					"inputs": [
						{
							"internalType": "address",
							"name": "_mainContract",
							"type": "address"
						}
					],
					"stateMutability": "nonpayable",
					"type": "constructor"
				},
				{
					"inputs": [],
					"name": "mainContract",
					"outputs": [
						{
							"internalType": "address",
							"name": "",
							"type": "address"
						}
					],
					"stateMutability": "view",
					"type": "function"
				}
			],
			"devdoc": {
				"kind": "dev",
				"methods": {},
				"version": 1
			},
			"evm": {
				"assembly": "    /* \"Session.sol\":535:1195  contract Session {... */\n  mstore(0x40, 0x80)\n    /* \"Session.sol\":799:1164  constructor(address _mainContract... */\n  callvalue\n  dup1\n  iszero\n  tag_1\n  jumpi\n  0x00\n  dup1\n  revert\ntag_1:\n  pop\n  mload(0x40)\n  sub(codesize, bytecodeSize)\n  dup1\n  bytecodeSize\n  dup4\n  codecopy\n  dup2\n  add\n  0x40\n  dup2\n  swap1\n  mstore\n  tag_2\n  swap2\n  tag_3\n  jump\t// in\ntag_2:\n    /* \"Session.sol\":914:926  mainContract */\n  0x00\n    /* \"Session.sol\":914:942  mainContract = _mainContract */\n  dup1\n  sload\n  sub(shl(0xa0, 0x01), 0x01)\n  dup4\n  and\n  not(sub(shl(0xa0, 0x01), 0x01))\n  swap2\n  dup3\n  and\n  dup2\n  or\n  swap1\n  swap3\n  sstore\n  0x01\n    /* \"Session.sol\":952:987  MainContract = IMain(_mainContract) */\n  dup1\n  sload\n  swap1\n  swap2\n  and\n  dup3\n  or\n  swap1\n  sstore\n    /* \"Session.sol\":1119:1157  MainContract.addSession(address(this)) */\n  mload(0x40)\n  shl(0xe1, 0x79c86ec3)\n  dup2\n  mstore\n    /* \"Session.sol\":1151:1155  this */\n  address\n    /* \"Session.sol\":1119:1157  MainContract.addSession(address(this)) */\n  0x04\n  dup3\n  add\n    /* \"#utility.yul\":455:506   */\n  mstore\n    /* \"Session.sol\":1119:1142  MainContract.addSession */\n  0xf390dd86\n  swap1\n    /* \"#utility.yul\":428:446   */\n  0x24\n  add\n    /* \"Session.sol\":1119:1157  MainContract.addSession(address(this)) */\n  0x00\n  mload(0x40)\n  dup1\n  dup4\n  sub\n  dup2\n  0x00\n  dup8\n  dup1\n  extcodesize\n  iszero\n  dup1\n  iszero\n  tag_8\n  jumpi\n  0x00\n  dup1\n  revert\ntag_8:\n  pop\n  gas\n  call\n  iszero\n  dup1\n  iszero\n  tag_10\n  jumpi\n  returndatasize\n  0x00\n  dup1\n  returndatacopy\n  revert(0x00, returndatasize)\ntag_10:\n  pop\n  pop\n  pop\n  pop\n    /* \"Session.sol\":799:1164  constructor(address _mainContract... */\n  pop\n    /* \"Session.sol\":535:1195  contract Session {... */\n  jump(tag_12)\n    /* \"#utility.yul\":14:304   */\ntag_3:\n    /* \"#utility.yul\":84:90   */\n  0x00\n    /* \"#utility.yul\":137:139   */\n  0x20\n    /* \"#utility.yul\":125:134   */\n  dup3\n    /* \"#utility.yul\":116:123   */\n  dup5\n    /* \"#utility.yul\":112:135   */\n  sub\n    /* \"#utility.yul\":108:140   */\n  slt\n    /* \"#utility.yul\":105:157   */\n  iszero\n  tag_14\n  jumpi\n    /* \"#utility.yul\":153:154   */\n  0x00\n    /* \"#utility.yul\":150:151   */\n  dup1\n    /* \"#utility.yul\":143:155   */\n  revert\n    /* \"#utility.yul\":105:157   */\ntag_14:\n    /* \"#utility.yul\":179:195   */\n  dup2\n  mload\n  sub(shl(0xa0, 0x01), 0x01)\n    /* \"#utility.yul\":224:255   */\n  dup2\n  and\n    /* \"#utility.yul\":214:256   */\n  dup2\n  eq\n    /* \"#utility.yul\":204:274   */\n  tag_15\n  jumpi\n    /* \"#utility.yul\":270:271   */\n  0x00\n    /* \"#utility.yul\":267:268   */\n  dup1\n    /* \"#utility.yul\":260:272   */\n  revert\n    /* \"#utility.yul\":204:274   */\ntag_15:\n    /* \"#utility.yul\":293:298   */\n  swap4\n    /* \"#utility.yul\":14:304   */\n  swap3\n  pop\n  pop\n  pop\n  jump\t// out\n    /* \"#utility.yul\":309:512   */\ntag_12:\n    /* \"Session.sol\":535:1195  contract Session {... */\n  dataSize(sub_0)\n  dup1\n  dataOffset(sub_0)\n  0x00\n  codecopy\n  0x00\n  return\nstop\n\nsub_0: assembly {\n        /* \"Session.sol\":535:1195  contract Session {... */\n      mstore(0x40, 0x80)\n      callvalue\n      dup1\n      iszero\n      tag_1\n      jumpi\n      0x00\n      dup1\n      revert\n    tag_1:\n      pop\n      jumpi(tag_2, lt(calldatasize, 0x04))\n      shr(0xe0, calldataload(0x00))\n      dup1\n      0xd270e7ab\n      eq\n      tag_3\n      jumpi\n    tag_2:\n      0x00\n      dup1\n      revert\n        /* \"Session.sol\":637:664  address public mainContract */\n    tag_3:\n      sload(0x00)\n      tag_4\n      swap1\n      sub(shl(0xa0, 0x01), 0x01)\n      and\n      dup2\n      jump\n    tag_4:\n      mload(0x40)\n      sub(shl(0xa0, 0x01), 0x01)\n        /* \"#utility.yul\":178:210   */\n      swap1\n      swap2\n      and\n        /* \"#utility.yul\":160:211   */\n      dup2\n      mstore\n        /* \"#utility.yul\":148:150   */\n      0x20\n        /* \"#utility.yul\":133:151   */\n      add\n        /* \"Session.sol\":637:664  address public mainContract */\n      mload(0x40)\n      dup1\n      swap2\n      sub\n      swap1\n      return\n\n    auxdata: 0xa2646970667358221220a5834616897c15ee1c982f4e0e06732b86744f78167f3362a10f4bfdecc5d81264736f6c63430008140033\n}\n",
				"bytecode": {
					"linkReferences": {},
					"object": "608060405234801561000f575f80fd5b5060405161016c38038061016c83398101604081905261002e916100a6565b5f80546001600160a01b0383166001600160a01b0319918216811790925560018054909116821790556040516379c86ec360e11b815230600482015263f390dd86906024015f604051808303815f87803b15801561008a575f80fd5b505af115801561009c573d5f803e3d5ffd5b50505050506100d3565b5f602082840312156100b6575f80fd5b81516001600160a01b03811681146100cc575f80fd5b9392505050565b608d806100df5f395ff3fe6080604052348015600e575f80fd5b50600436106026575f3560e01c8063d270e7ab14602a575b5f80fd5b5f54603b906001600160a01b031681565b6040516001600160a01b03909116815260200160405180910390f3fea2646970667358221220a5834616897c15ee1c982f4e0e06732b86744f78167f3362a10f4bfdecc5d81264736f6c63430008140033",
					"opcodes": "PUSH1 0x80 PUSH1 0x40 MSTORE CALLVALUE DUP1 ISZERO PUSH2 0xF JUMPI PUSH0 DUP1 REVERT JUMPDEST POP PUSH1 0x40 MLOAD PUSH2 0x16C CODESIZE SUB DUP1 PUSH2 0x16C DUP4 CODECOPY DUP2 ADD PUSH1 0x40 DUP2 SWAP1 MSTORE PUSH2 0x2E SWAP2 PUSH2 0xA6 JUMP JUMPDEST PUSH0 DUP1 SLOAD PUSH1 0x1 PUSH1 0x1 PUSH1 0xA0 SHL SUB DUP4 AND PUSH1 0x1 PUSH1 0x1 PUSH1 0xA0 SHL SUB NOT SWAP2 DUP3 AND DUP2 OR SWAP1 SWAP3 SSTORE PUSH1 0x1 DUP1 SLOAD SWAP1 SWAP2 AND DUP3 OR SWAP1 SSTORE PUSH1 0x40 MLOAD PUSH4 0x79C86EC3 PUSH1 0xE1 SHL DUP2 MSTORE ADDRESS PUSH1 0x4 DUP3 ADD MSTORE PUSH4 0xF390DD86 SWAP1 PUSH1 0x24 ADD PUSH0 PUSH1 0x40 MLOAD DUP1 DUP4 SUB DUP2 PUSH0 DUP8 DUP1 EXTCODESIZE ISZERO DUP1 ISZERO PUSH2 0x8A JUMPI PUSH0 DUP1 REVERT JUMPDEST POP GAS CALL ISZERO DUP1 ISZERO PUSH2 0x9C JUMPI RETURNDATASIZE PUSH0 DUP1 RETURNDATACOPY RETURNDATASIZE PUSH0 REVERT JUMPDEST POP POP POP POP POP PUSH2 0xD3 JUMP JUMPDEST PUSH0 PUSH1 0x20 DUP3 DUP5 SUB SLT ISZERO PUSH2 0xB6 JUMPI PUSH0 DUP1 REVERT JUMPDEST DUP2 MLOAD PUSH1 0x1 PUSH1 0x1 PUSH1 0xA0 SHL SUB DUP2 AND DUP2 EQ PUSH2 0xCC JUMPI PUSH0 DUP1 REVERT JUMPDEST SWAP4 SWAP3 POP POP POP JUMP JUMPDEST PUSH1 0x8D DUP1 PUSH2 0xDF PUSH0 CODECOPY PUSH0 RETURN INVALID PUSH1 0x80 PUSH1 0x40 MSTORE CALLVALUE DUP1 ISZERO PUSH1 0xE JUMPI PUSH0 DUP1 REVERT JUMPDEST POP PUSH1 0x4 CALLDATASIZE LT PUSH1 0x26 JUMPI PUSH0 CALLDATALOAD PUSH1 0xE0 SHR DUP1 PUSH4 0xD270E7AB EQ PUSH1 0x2A JUMPI JUMPDEST PUSH0 DUP1 REVERT JUMPDEST PUSH0 SLOAD PUSH1 0x3B SWAP1 PUSH1 0x1 PUSH1 0x1 PUSH1 0xA0 SHL SUB AND DUP2 JUMP JUMPDEST PUSH1 0x40 MLOAD PUSH1 0x1 PUSH1 0x1 PUSH1 0xA0 SHL SUB SWAP1 SWAP2 AND DUP2 MSTORE PUSH1 0x20 ADD PUSH1 0x40 MLOAD DUP1 SWAP2 SUB SWAP1 RETURN INVALID LOG2 PUSH5 0x6970667358 0x22 SLT KECCAK256 0xA5 DUP4 CHAINID AND DUP10 PUSH29 0x15EE1C982F4E0E06732B86744F78167F3362A10F4BFDECC5D81264736F PUSH13 0x63430008140033000000000000 "
				},
				"gasEstimates": {
					"creation": {
						"codeDepositCost": "28200",
						"executionCost": "infinite",
						"totalCost": "infinite"
					},
					"external": {
						"mainContract()": "2301"
					}
				},
				"methodIdentifiers": {
					"mainContract()": "d270e7ab"
				}
			},
			"storageLayout": {
				"storage": [
					{
						"astId": 10,
						"contract": "Session.sol:Session",
						"label": "mainContract",
						"offset": 0,
						"slot": "0",
						"type": "t_address"
					},
					{
						"astId": 13,
						"contract": "Session.sol:Session",
						"label": "MainContract",
						"offset": 0,
						"slot": "1",
						"type": "t_contract(IMain)8"
					}
				],
				"types": {
					"t_address": {
						"encoding": "inplace",
						"label": "address",
						"numberOfBytes": "20"
					},
					"t_contract(IMain)8": {
						"encoding": "inplace",
						"label": "contract IMain",
						"numberOfBytes": "20"
					}
				}
			},
			"userdoc": {
				"kind": "user",
				"methods": {},
				"version": 1
			}
		}
	}
}