{
  "contractName": "Main",
  "abi": [
    {
      "constant": true,
      "inputs": [],
      "name": "admin",
      "outputs": [
        {
          "name": "",
          "type": "address"
        }
      ],
      "payable": false,
      "stateMutability": "view",
      "type": "function"
    },
    {
      "inputs": [
        {
          "name": "_maxOfUser",
          "type": "uint256"
        }
      ],
      "payable": false,
      "stateMutability": "nonpayable",
      "type": "constructor"
    },
    {
      "anonymous": false,
      "inputs": [
        {
          "indexed": false,
          "name": "_account",
          "type": "address"
        },
        {
          "indexed": false,
          "name": "_fullName",
          "type": "string"
        },
        {
          "indexed": false,
          "name": "_email",
          "type": "string"
        }
      ],
      "name": "UpdateParticipant",
      "type": "event"
    },
    {
      "anonymous": false,
      "inputs": [
        {
          "indexed": false,
          "name": "_account",
          "type": "address"
        },
        {
          "indexed": false,
          "name": "msg",
          "type": "string"
        }
      ],
      "name": "AddParticipant",
      "type": "event"
    },
    {
      "anonymous": false,
      "inputs": [
        {
          "indexed": false,
          "name": "_productName",
          "type": "string"
        },
        {
          "indexed": false,
          "name": "_description",
          "type": "string"
        }
      ],
      "name": "CreateSession",
      "type": "event"
    },
    {
      "constant": false,
      "inputs": [
        {
          "name": "session",
          "type": "address"
        }
      ],
      "name": "addSession",
      "outputs": [],
      "payable": false,
      "stateMutability": "nonpayable",
      "type": "function"
    },
    {
      "constant": true,
      "inputs": [],
      "name": "getAdmin",
      "outputs": [
        {
          "name": "",
          "type": "address"
        }
      ],
      "payable": false,
      "stateMutability": "view",
      "type": "function"
    },
    {
      "constant": false,
      "inputs": [
        {
          "name": "_fullName",
          "type": "string"
        },
        {
          "name": "_email",
          "type": "string"
        }
      ],
      "name": "updateAdminProfile",
      "outputs": [],
      "payable": false,
      "stateMutability": "nonpayable",
      "type": "function"
    },
    {
      "constant": true,
      "inputs": [],
      "name": "getAdminProfile",
      "outputs": [
        {
          "components": [
            {
              "name": "account",
              "type": "address"
            },
            {
              "name": "fullName",
              "type": "string"
            },
            {
              "name": "email",
              "type": "string"
            }
          ],
          "name": "",
          "type": "tuple"
        }
      ],
      "payable": false,
      "stateMutability": "view",
      "type": "function"
    },
    {
      "constant": false,
      "inputs": [
        {
          "name": "_account",
          "type": "address"
        }
      ],
      "name": "addParticipant",
      "outputs": [],
      "payable": false,
      "stateMutability": "nonpayable",
      "type": "function"
    },
    {
      "constant": false,
      "inputs": [
        {
          "name": "_account",
          "type": "address"
        },
        {
          "name": "_fullName",
          "type": "string"
        },
        {
          "name": "_email",
          "type": "string"
        }
      ],
      "name": "register",
      "outputs": [],
      "payable": false,
      "stateMutability": "nonpayable",
      "type": "function"
    },
    {
      "constant": true,
      "inputs": [
        {
          "name": "_account",
          "type": "address"
        }
      ],
      "name": "participants",
      "outputs": [
        {
          "components": [
            {
              "name": "account",
              "type": "address"
            },
            {
              "name": "fullName",
              "type": "string"
            },
            {
              "name": "email",
              "type": "string"
            },
            {
              "name": "numberOfSession",
              "type": "int256"
            },
            {
              "name": "deviation",
              "type": "int256"
            }
          ],
          "name": "",
          "type": "tuple"
        }
      ],
      "payable": false,
      "stateMutability": "view",
      "type": "function"
    },
    {
      "constant": true,
      "inputs": [],
      "name": "getAllParticipants",
      "outputs": [
        {
          "components": [
            {
              "name": "account",
              "type": "address"
            },
            {
              "name": "fullName",
              "type": "string"
            },
            {
              "name": "email",
              "type": "string"
            },
            {
              "name": "numberOfSession",
              "type": "int256"
            },
            {
              "name": "deviation",
              "type": "int256"
            }
          ],
          "name": "",
          "type": "tuple[]"
        }
      ],
      "payable": false,
      "stateMutability": "view",
      "type": "function"
    },
    {
      "constant": true,
      "inputs": [],
      "name": "nParticipants",
      "outputs": [
        {
          "name": "",
          "type": "uint256"
        }
      ],
      "payable": false,
      "stateMutability": "view",
      "type": "function"
    },
    {
      "constant": true,
      "inputs": [
        {
          "name": "_index",
          "type": "uint256"
        }
      ],
      "name": "iParticipants",
      "outputs": [
        {
          "components": [
            {
              "name": "account",
              "type": "address"
            },
            {
              "name": "fullName",
              "type": "string"
            },
            {
              "name": "email",
              "type": "string"
            },
            {
              "name": "numberOfSession",
              "type": "int256"
            },
            {
              "name": "deviation",
              "type": "int256"
            }
          ],
          "name": "",
          "type": "tuple"
        }
      ],
      "payable": false,
      "stateMutability": "view",
      "type": "function"
    },
    {
      "constant": true,
      "inputs": [
        {
          "name": "_account",
          "type": "address"
        }
      ],
      "name": "getDeviation",
      "outputs": [
        {
          "name": "",
          "type": "int256"
        }
      ],
      "payable": false,
      "stateMutability": "view",
      "type": "function"
    },
    {
      "constant": false,
      "inputs": [
        {
          "name": "_session",
          "type": "address"
        },
        {
          "name": "_account",
          "type": "address"
        },
        {
          "name": "_deviation",
          "type": "int256"
        }
      ],
      "name": "setDeviation",
      "outputs": [],
      "payable": false,
      "stateMutability": "nonpayable",
      "type": "function"
    },
    {
      "constant": false,
      "inputs": [
        {
          "name": "_account",
          "type": "address"
        }
      ],
      "name": "incrementNumberOfSession",
      "outputs": [],
      "payable": false,
      "stateMutability": "nonpayable",
      "type": "function"
    },
    {
      "constant": true,
      "inputs": [
        {
          "name": "_account",
          "type": "address"
        }
      ],
      "name": "getNumberOfSession",
      "outputs": [
        {
          "name": "",
          "type": "int256"
        }
      ],
      "payable": false,
      "stateMutability": "view",
      "type": "function"
    },
    {
      "constant": false,
      "inputs": [
        {
          "name": "_productName",
          "type": "string"
        },
        {
          "name": "_description",
          "type": "string"
        },
        {
          "name": "_images",
          "type": "string[]"
        }
      ],
      "name": "createSession",
      "outputs": [],
      "payable": false,
      "stateMutability": "nonpayable",
      "type": "function"
    },
    {
      "constant": true,
      "inputs": [],
      "name": "getAllSessionAddresses",
      "outputs": [
        {
          "name": "",
          "type": "address[]"
        }
      ],
      "payable": false,
      "stateMutability": "view",
      "type": "function"
    },
    {
      "constant": true,
      "inputs": [],
      "name": "nSessions",
      "outputs": [
        {
          "name": "",
          "type": "uint256"
        }
      ],
      "payable": false,
      "stateMutability": "view",
      "type": "function"
    },
    {
      "constant": true,
      "inputs": [
        {
          "name": "_session",
          "type": "address"
        }
      ],
      "name": "getSessionDetail",
      "outputs": [
        {
          "name": "",
          "type": "string"
        },
        {
          "name": "",
          "type": "string"
        },
        {
          "name": "",
          "type": "string[]"
        },
        {
          "name": "",
          "type": "uint256"
        },
        {
          "name": "",
          "type": "int256"
        },
        {
          "name": "",
          "type": "uint256"
        }
      ],
      "payable": false,
      "stateMutability": "view",
      "type": "function"
    }
  ],
  "bytecode": "0x60806040523480156200001157600080fd5b506040516020806200595b8339810180604052620000339190810190620000db565b336000806101000a81548173ffffffffffffffffffffffffffffffffffffffff021916908373ffffffffffffffffffffffffffffffffffffffff1602179055508060018190555033600560000160006101000a81548173ffffffffffffffffffffffffffffffffffffffff021916908373ffffffffffffffffffffffffffffffffffffffff1602179055505062000111565b6000620000d3825162000107565b905092915050565b600060208284031215620000ee57600080fd5b6000620000fe84828501620000c5565b91505092915050565b6000819050919050565b61583a80620001216000396000f3006080604052600436106200011b576000357c0100000000000000000000000000000000000000000000000000000000900463ffffffff16806309e69ede1462000120578063195ec9ee1462000164578063454eed7d14620001945780636e9960c314620001c45780638d59cc0214620001f4578063936312181462000222578063a18e34041462000250578063a33a08b91462000280578063a3b9c9e514620002c4578063a68299341462000308578063b63bc3b41462000336578063be3308681462000366578063c8d72c7d14620003aa578063d1bce2c714620003d8578063d947ceb61462000421578063dfafe10f1462000451578063f2468594146200047f578063f390dd8614620004ad578063f851a44014620004db575b600080fd5b3480156200012d57600080fd5b506200014c600480360362000146919081019062001eb3565b6200050b565b6040516200015b91906200297a565b60405180910390f35b3480156200017157600080fd5b506200017c6200071d565b6040516200018b9190620027f4565b60405180910390f35b348015620001a157600080fd5b50620001ac62000a7c565b604051620001bb9190620029c2565b60405180910390f35b348015620001d157600080fd5b50620001dc62000a89565b604051620001eb9190620026d4565b60405180910390f35b3480156200020157600080fd5b506200022060048036036200021a919081019062001f35565b62000ab2565b005b3480156200022f57600080fd5b506200024e60048036036200024891908101906200205c565b62000ba6565b005b3480156200025d57600080fd5b506200026862000cb6565b604051620002779190620027d0565b60405180910390f35b3480156200028d57600080fd5b50620002ac6004803603620002a6919081019062001eb3565b62000d46565b604051620002bb919062002818565b60405180910390f35b348015620002d157600080fd5b50620002f06004803603620002ea9190810190620021de565b62000d92565b604051620002ff91906200297a565b60405180910390f35b3480156200031557600080fd5b506200033460048036036200032e919081019062001eb3565b62000fde565b005b3480156200034357600080fd5b506200034e62001033565b6040516200035d9190620029c2565b60405180910390f35b3480156200037357600080fd5b506200039260048036036200038c919081019062001eb3565b62001040565b604051620003a1919062002818565b60405180910390f35b348015620003b757600080fd5b50620003d66004803603620003d0919081019062001fe9565b6200108c565b005b348015620003e557600080fd5b50620004046004803603620003fe919081019062001eb3565b6200115c565b604051620004189695949392919062002870565b60405180910390f35b3480156200042e57600080fd5b506200043962001225565b6040516200044891906200299e565b60405180910390f35b3480156200045e57600080fd5b506200047d600480360362000477919081019062001eb3565b62001478565b005b3480156200048c57600080fd5b50620004ab6004803603620004a5919081019062001edf565b620017cc565b005b348015620004ba57600080fd5b50620004d96004803603620004d3919081019062001eb3565b6200191a565b005b348015620004e857600080fd5b50620004f362001989565b604051620005029190620026d4565b60405180910390f35b62000515620019ae565b600260008373ffffffffffffffffffffffffffffffffffffffff1673ffffffffffffffffffffffffffffffffffffffff16815260200190815260200160002060a060405190810160405290816000820160009054906101000a900473ffffffffffffffffffffffffffffffffffffffff1673ffffffffffffffffffffffffffffffffffffffff1673ffffffffffffffffffffffffffffffffffffffff168152602001600182018054600181600116156101000203166002900480601f016020809104026020016040519081016040528092919081815260200182805460018160011615610100020316600290048015620006535780601f10620006275761010080835404028352916020019162000653565b820191906000526020600020905b8154815290600101906020018083116200063557829003601f168201915b50505050508152602001600282018054600181600116156101000203166002900480601f016020809104026020016040519081016040528092919081815260200182805460018160011615610100020316600290048015620006f95780601f10620006cd57610100808354040283529160200191620006f9565b820191906000526020600020905b815481529060010190602001808311620006db57829003601f168201915b50505050508152602001600382015481526020016004820154815250509050919050565b60608060008060009054906101000a900473ffffffffffffffffffffffffffffffffffffffff1673ffffffffffffffffffffffffffffffffffffffff163373ffffffffffffffffffffffffffffffffffffffff16141515620007b6576040517f08c379a0000000000000000000000000000000000000000000000000000000008152600401620007ad9062002936565b60405180910390fd5b600380549050604051908082528060200260200182016040528015620007f957816020015b620007e5620019f4565b815260200190600190039081620007db5790505b509150600090505b60038054905081101562000a7457600260006003838154811015156200082357fe5b9060005260206000200160009054906101000a900473ffffffffffffffffffffffffffffffffffffffff1673ffffffffffffffffffffffffffffffffffffffff1673ffffffffffffffffffffffffffffffffffffffff16815260200190815260200160002060a060405190810160405290816000820160009054906101000a900473ffffffffffffffffffffffffffffffffffffffff1673ffffffffffffffffffffffffffffffffffffffff1673ffffffffffffffffffffffffffffffffffffffff168152602001600182018054600181600116156101000203166002900480601f016020809104026020016040519081016040528092919081815260200182805460018160011615610100020316600290048015620009875780601f106200095b5761010080835404028352916020019162000987565b820191906000526020600020905b8154815290600101906020018083116200096957829003601f168201915b50505050508152602001600282018054600181600116156101000203166002900480601f01602080910402602001604051908101604052809291908181526020018280546001816001161561010002031660029004801562000a2d5780601f1062000a015761010080835404028352916020019162000a2d565b820191906000526020600020905b81548152906001019060200180831162000a0f57829003601f168201915b5050505050815260200160038201548152602001600482015481525050828281518110151562000a5957fe5b90602001906020020181905250808060010191505062000801565b819250505090565b6000600480549050905090565b60008060009054906101000a900473ffffffffffffffffffffffffffffffffffffffff16905090565b81600260008573ffffffffffffffffffffffffffffffffffffffff1673ffffffffffffffffffffffffffffffffffffffff168152602001908152602001600020600101908051906020019062000b0a92919062001a3a565b5080600260008573ffffffffffffffffffffffffffffffffffffffff1673ffffffffffffffffffffffffffffffffffffffff168152602001908152602001600020600201908051906020019062000b6392919062001a3a565b507f3bc63a1a560da32e0aab62ddb386a3bbfb7ac6d4531d5dd65fb1505a16a784b483838360405162000b9993929190620026f1565b60405180910390a1505050565b6000809054906101000a900473ffffffffffffffffffffffffffffffffffffffff1673ffffffffffffffffffffffffffffffffffffffff163373ffffffffffffffffffffffffffffffffffffffff1614151562000c3a576040517f08c379a000000000000000000000000000000000000000000000000000000000815260040162000c319062002936565b60405180910390fd5b3083838362000c4862001ac1565b62000c5794939291906200273c565b604051809103906000f08015801562000c74573d6000803e3d6000fd5b50507f51c5e9dfa67879da5fab182fdd91303f7c5d1a38598aefb2216af7339ac32a13838360405162000ca992919062002835565b60405180910390a1505050565b6060600480548060200260200160405190810160405280929190818152602001828054801562000d3c57602002820191906000526020600020905b8160009054906101000a900473ffffffffffffffffffffffffffffffffffffffff1673ffffffffffffffffffffffffffffffffffffffff168152602001906001019080831162000cf1575b5050505050905090565b6000600260008373ffffffffffffffffffffffffffffffffffffffff1673ffffffffffffffffffffffffffffffffffffffff168152602001908152602001600020600401549050919050565b62000d9c620019ae565b6002600060038481548110151562000db057fe5b9060005260206000200160009054906101000a900473ffffffffffffffffffffffffffffffffffffffff1673ffffffffffffffffffffffffffffffffffffffff1673ffffffffffffffffffffffffffffffffffffffff16815260200190815260200160002060a060405190810160405290816000820160009054906101000a900473ffffffffffffffffffffffffffffffffffffffff1673ffffffffffffffffffffffffffffffffffffffff1673ffffffffffffffffffffffffffffffffffffffff168152602001600182018054600181600116156101000203166002900480601f01602080910402602001604051908101604052809291908181526020018280546001816001161561010002031660029004801562000f145780601f1062000ee85761010080835404028352916020019162000f14565b820191906000526020600020905b81548152906001019060200180831162000ef657829003601f168201915b50505050508152602001600282018054600181600116156101000203166002900480601f01602080910402602001604051908101604052809291908181526020018280546001816001161561010002031660029004801562000fba5780601f1062000f8e5761010080835404028352916020019162000fba565b820191906000526020600020905b81548152906001019060200180831162000f9c57829003601f168201915b50505050508152602001600382015481526020016004820154815250509050919050565b600260008273ffffffffffffffffffffffffffffffffffffffff1673ffffffffffffffffffffffffffffffffffffffff1681526020019081526020016000206003016000815480929190600101919050555050565b6000600380549050905090565b6000600260008373ffffffffffffffffffffffffffffffffffffffff1673ffffffffffffffffffffffffffffffffffffffff168152602001908152602001600020600301549050919050565b6000809054906101000a900473ffffffffffffffffffffffffffffffffffffffff1673ffffffffffffffffffffffffffffffffffffffff163373ffffffffffffffffffffffffffffffffffffffff1614151562001120576040517f08c379a0000000000000000000000000000000000000000000000000000000008152600401620011179062002936565b60405180910390fd5b81600560010190805190602001906200113b92919062001a3a565b5080600560020190805190602001906200115792919062001a3a565b505050565b60608060606000806000808790508073ffffffffffffffffffffffffffffffffffffffff1663f8cb00bf6040518163ffffffff167c0100000000000000000000000000000000000000000000000000000000028152600401600060405180830381600087803b158015620011cf57600080fd5b505af1158015620011e4573d6000803e3d6000fd5b505050506040513d6000823e3d601f19601f820116820180604052506200120f9190810190620020fd565b9650965096509650965096505091939550919395565b6200122f62001ad2565b6000809054906101000a900473ffffffffffffffffffffffffffffffffffffffff1673ffffffffffffffffffffffffffffffffffffffff163373ffffffffffffffffffffffffffffffffffffffff16141515620012c3576040517f08c379a0000000000000000000000000000000000000000000000000000000008152600401620012ba9062002936565b60405180910390fd5b6005606060405190810160405290816000820160009054906101000a900473ffffffffffffffffffffffffffffffffffffffff1673ffffffffffffffffffffffffffffffffffffffff1673ffffffffffffffffffffffffffffffffffffffff168152602001600182018054600181600116156101000203166002900480601f016020809104026020016040519081016040528092919081815260200182805460018160011615610100020316600290048015620013c45780601f106200139857610100808354040283529160200191620013c4565b820191906000526020600020905b815481529060010190602001808311620013a657829003601f168201915b50505050508152602001600282018054600181600116156101000203166002900480601f0160208091040260200160405190810160405280929190818152602001828054600181600116156101000203166002900480156200146a5780601f106200143e576101008083540402835291602001916200146a565b820191906000526020600020905b8154815290600101906020018083116200144c57829003601f168201915b505050505081525050905090565b6000809054906101000a900473ffffffffffffffffffffffffffffffffffffffff1673ffffffffffffffffffffffffffffffffffffffff163373ffffffffffffffffffffffffffffffffffffffff161415156200150c576040517f08c379a0000000000000000000000000000000000000000000000000000000008152600401620015039062002936565b60405180910390fd5b6001546003805490501015156200155a576040517f08c379a0000000000000000000000000000000000000000000000000000000008152600401620015519062002914565b60405180910390fd5b6000809054906101000a900473ffffffffffffffffffffffffffffffffffffffff1673ffffffffffffffffffffffffffffffffffffffff168173ffffffffffffffffffffffffffffffffffffffff1614151515620015ef576040517f08c379a0000000000000000000000000000000000000000000000000000000008152600401620015e690620028f2565b60405180910390fd5b60a0604051908101604052808273ffffffffffffffffffffffffffffffffffffffff1681526020016020604051908101604052806000815250815260200160206040519081016040528060008152508152602001600081526020016000815250600260008373ffffffffffffffffffffffffffffffffffffffff1673ffffffffffffffffffffffffffffffffffffffff16815260200190815260200160002060008201518160000160006101000a81548173ffffffffffffffffffffffffffffffffffffffff021916908373ffffffffffffffffffffffffffffffffffffffff1602179055506020820151816001019080519060200190620016f392919062001b0a565b5060408201518160020190805190602001906200171292919062001b0a565b50606082015181600301556080820151816004015590505060038190806001815401808255809150509060018203906000526020600020016000909192909190916101000a81548173ffffffffffffffffffffffffffffffffffffffff021916908373ffffffffffffffffffffffffffffffffffffffff160217905550507f7a274ad5ebae6fdc80650d34a4e01c874e099afaca3b6e8c896edc5b9126651b81604051620017c191906200279e565b60405180910390a150565b82826000829050600115158173ffffffffffffffffffffffffffffffffffffffff16636c38e4c6846040518263ffffffff167c01000000000000000000000000000000000000000000000000000000000281526004016200182e9190620026d4565b602060405180830381600087803b1580156200184957600080fd5b505af11580156200185e573d6000803e3d6000fd5b505050506040513d601f19601f8201168201806040525062001884919081019062001fbd565b1515141515620018cb576040517f08c379a0000000000000000000000000000000000000000000000000000000008152600401620018c29062002958565b60405180910390fd5b83600260008773ffffffffffffffffffffffffffffffffffffffff1673ffffffffffffffffffffffffffffffffffffffff16815260200190815260200160002060040181905550505050505050565b600081905060048190806001815401808255809150509060018203906000526020600020016000909192909190916101000a81548173ffffffffffffffffffffffffffffffffffffffff021916908373ffffffffffffffffffffffffffffffffffffffff160217905550505050565b6000809054906101000a900473ffffffffffffffffffffffffffffffffffffffff1681565b60a060405190810160405280600073ffffffffffffffffffffffffffffffffffffffff168152602001606081526020016060815260200160008152602001600081525090565b60a060405190810160405280600073ffffffffffffffffffffffffffffffffffffffff168152602001606081526020016060815260200160008152602001600081525090565b828054600181600116156101000203166002900490600052602060002090601f016020900481019282601f1062001a7d57805160ff191683800117855562001aae565b8280016001018555821562001aae579182015b8281111562001aad57825182559160200191906001019062001a90565b5b50905062001abd919062001b91565b5090565b604051612c218062002be083390190565b606060405190810160405280600073ffffffffffffffffffffffffffffffffffffffff16815260200160608152602001606081525090565b828054600181600116156101000203166002900490600052602060002090601f016020900481019282601f1062001b4d57805160ff191683800117855562001b7e565b8280016001018555821562001b7e579182015b8281111562001b7d57825182559160200191906001019062001b60565b5b50905062001b8d919062001b91565b5090565b62001bb691905b8082111562001bb257600081600090555060010162001b98565b5090565b90565b600062001bc7823562002b49565b905092915050565b600082601f830112151562001be357600080fd5b813562001bfa62001bf48262002a0d565b620029df565b9150818183526020840193506020810190508360005b8381101562001c44578135860162001c29888262001d0f565b84526020840193506020830192505060018101905062001c10565b5050505092915050565b600082601f830112151562001c6257600080fd5b815162001c7962001c738262002a0d565b620029df565b9150818183526020840193506020810190508360005b8381101562001cc3578151860162001ca8888262001d6d565b84526020840193506020830192505060018101905062001c8f565b5050505092915050565b600062001cdb825162002b69565b905092915050565b600062001cf1823562002b75565b905092915050565b600062001d07825162002b75565b905092915050565b600082601f830112151562001d2357600080fd5b813562001d3a62001d348262002a36565b620029df565b9150808252602083016020830185838301111562001d5757600080fd5b62001d6483828462002b89565b50505092915050565b600082601f830112151562001d8157600080fd5b815162001d9862001d928262002a36565b620029df565b9150808252602083016020830185838301111562001db557600080fd5b62001dc283828462002b98565b50505092915050565b600082601f830112151562001ddf57600080fd5b813562001df662001df08262002a63565b620029df565b9150808252602083016020830185838301111562001e1357600080fd5b62001e2083828462002b89565b50505092915050565b600082601f830112151562001e3d57600080fd5b815162001e5462001e4e8262002a63565b620029df565b9150808252602083016020830185838301111562001e7157600080fd5b62001e7e83828462002b98565b50505092915050565b600062001e95823562002b7f565b905092915050565b600062001eab825162002b7f565b905092915050565b60006020828403121562001ec657600080fd5b600062001ed68482850162001bb9565b91505092915050565b60008060006060848603121562001ef557600080fd5b600062001f058682870162001bb9565b935050602062001f188682870162001bb9565b925050604062001f2b8682870162001ce3565b9150509250925092565b60008060006060848603121562001f4b57600080fd5b600062001f5b8682870162001bb9565b935050602084013567ffffffffffffffff81111562001f7957600080fd5b62001f878682870162001dcb565b925050604084013567ffffffffffffffff81111562001fa557600080fd5b62001fb38682870162001dcb565b9150509250925092565b60006020828403121562001fd057600080fd5b600062001fe08482850162001ccd565b91505092915050565b6000806040838503121562001ffd57600080fd5b600083013567ffffffffffffffff8111156200201857600080fd5b620020268582860162001dcb565b925050602083013567ffffffffffffffff8111156200204457600080fd5b620020528582860162001dcb565b9150509250929050565b6000806000606084860312156200207257600080fd5b600084013567ffffffffffffffff8111156200208d57600080fd5b6200209b8682870162001dcb565b935050602084013567ffffffffffffffff811115620020b957600080fd5b620020c78682870162001dcb565b925050604084013567ffffffffffffffff811115620020e557600080fd5b620020f38682870162001bcf565b9150509250925092565b60008060008060008060c087890312156200211757600080fd5b600087015167ffffffffffffffff8111156200213257600080fd5b6200214089828a0162001e29565b965050602087015167ffffffffffffffff8111156200215e57600080fd5b6200216c89828a0162001e29565b955050604087015167ffffffffffffffff8111156200218a57600080fd5b6200219889828a0162001c4e565b9450506060620021ab89828a0162001e9d565b9350506080620021be89828a0162001cf9565b92505060a0620021d189828a0162001e9d565b9150509295509295509295565b600060208284031215620021f157600080fd5b6000620022018482850162001e87565b91505092915050565b620022158162002b15565b82525050565b6000620022288262002ab7565b8084526020840193506200223c8362002a90565b60005b828110156200227457620022558683516200220a565b620022608262002aee565b91506020860195506001810190506200223f565b50849250505092915050565b60006200228d8262002ac2565b80845260208401935083602082028501620022a88562002a9d565b60005b84811015620022e7578383038852620022c6838351620023bd565b9250620022d38262002afb565b9150602088019750600181019050620022ab565b508196508694505050505092915050565b6000620023058262002acd565b80845260208401935083602082028501620023208562002aaa565b60005b848110156200235f5783830388526200233e838351620025df565b92506200234b8262002b08565b915060208801975060018101905062002323565b508196508694505050505092915050565b6200237b8162002b35565b82525050565b60006200238e8262002ae3565b808452620023a481602086016020860162002b98565b620023af8162002bce565b602085010191505092915050565b6000620023ca8262002ad8565b808452620023e081602086016020860162002b98565b620023eb8162002bce565b602085010191505092915050565b6000602e82527f43616e206e6f74206164642061646d696e206164647265737320746f2070617260208301527f7469636970616e74206c697374210000000000000000000000000000000000006040830152606082019050919050565b6000601582527f4f6e6c79206372656174652031302075736572732100000000000000000000006020830152604082019050919050565b6000602582527f546869732066756e6374696f6e206f6e6c792061646d696e2063616e2065786560208301527f63757465210000000000000000000000000000000000000000000000000000006040830152606082019050919050565b6000601682527f4f6e6c792073657373696f6e20636f6e747261637421000000000000000000006020830152604082019050919050565b6000601882527f416464207061727469636970616e7420737563636573732100000000000000006020830152604082019050919050565b600060a0830160008301516200257260008601826200220a565b50602083015184820360208601526200258c8282620023bd565b91505060408301518482036040860152620025a88282620023bd565b9150506060830151620025bf606086018262002370565b506080830151620025d4608086018262002370565b508091505092915050565b600060a083016000830151620025f960008601826200220a565b5060208301518482036020860152620026138282620023bd565b915050604083015184820360408601526200262f8282620023bd565b915050606083015162002646606086018262002370565b5060808301516200265b608086018262002370565b508091505092915050565b60006060830160008301516200268060008601826200220a565b50602083015184820360208601526200269a8282620023bd565b91505060408301518482036040860152620026b68282620023bd565b9150508091505092915050565b620026ce8162002b3f565b82525050565b6000602082019050620026eb60008301846200220a565b92915050565b60006060820190506200270860008301866200220a565b81810360208301526200271c818562002381565b9050818103604083015262002732818462002381565b9050949350505050565b60006080820190506200275360008301876200220a565b818103602083015262002767818662002381565b905081810360408301526200277d818562002381565b9050818103606083015262002793818462002280565b905095945050505050565b6000604082019050620027b560008301846200220a565b8181036020830152620027c88162002521565b905092915050565b60006020820190508181036000830152620027ec81846200221b565b905092915050565b60006020820190508181036000830152620028108184620022f8565b905092915050565b60006020820190506200282f600083018462002370565b92915050565b6000604082019050818103600083015262002851818562002381565b9050818103602083015262002867818462002381565b90509392505050565b600060c08201905081810360008301526200288c818962002381565b90508181036020830152620028a2818862002381565b90508181036040830152620028b8818762002280565b9050620028c96060830186620026c3565b620028d8608083018562002370565b620028e760a0830184620026c3565b979650505050505050565b600060208201905081810360008301526200290d81620023f9565b9050919050565b600060208201905081810360008301526200292f8162002456565b9050919050565b6000602082019050818103600083015262002951816200248d565b9050919050565b600060208201905081810360008301526200297381620024ea565b9050919050565b6000602082019050818103600083015262002996818462002558565b905092915050565b60006020820190508181036000830152620029ba818462002666565b905092915050565b6000602082019050620029d96000830184620026c3565b92915050565b6000604051905081810181811067ffffffffffffffff8211171562002a0357600080fd5b8060405250919050565b600067ffffffffffffffff82111562002a2557600080fd5b602082029050602081019050919050565b600067ffffffffffffffff82111562002a4e57600080fd5b601f19601f8301169050602081019050919050565b600067ffffffffffffffff82111562002a7b57600080fd5b601f19601f8301169050602081019050919050565b6000602082019050919050565b6000602082019050919050565b6000602082019050919050565b600081519050919050565b600081519050919050565b600081519050919050565b600081519050919050565b600081519050919050565b6000602082019050919050565b6000602082019050919050565b6000602082019050919050565b600073ffffffffffffffffffffffffffffffffffffffff82169050919050565b6000819050919050565b6000819050919050565b600073ffffffffffffffffffffffffffffffffffffffff82169050919050565b60008115159050919050565b6000819050919050565b6000819050919050565b82818337600083830152505050565b60005b8381101562002bb857808201518184015260208101905062002b9b565b8381111562002bc8576000848401525b50505050565b6000601f19601f8301169050919050560060806040523480156200001157600080fd5b5060405162002c2138038062002c218339810180604052620000379190810190620006c3565b836000806101000a81548173ffffffffffffffffffffffffffffffffffffffff021916908373ffffffffffffffffffffffffffffffffffffffff16021790555083600160006101000a81548173ffffffffffffffffffffffffffffffffffffffff021916908373ffffffffffffffffffffffffffffffffffffffff1602179055508260029080519060200190620000d09291906200032c565b508160039080519060200190620000e99291906200032c565b50806004908051906020019062000102929190620003b3565b50600060058190555060006006819055506000600760006101000a81548160ff021916908360028111156200013357fe5b0217905550600160009054906101000a900473ffffffffffffffffffffffffffffffffffffffff1673ffffffffffffffffffffffffffffffffffffffff16636e9960c36040518163ffffffff167c0100000000000000000000000000000000000000000000000000000000028152600401602060405180830381600087803b158015620001bf57600080fd5b505af1158015620001d4573d6000803e3d6000fd5b505050506040513d601f19601f82011682018060405250620001fa919081019062000697565b600b60006101000a81548173ffffffffffffffffffffffffffffffffffffffff021916908373ffffffffffffffffffffffffffffffffffffffff160217905550600160009054906101000a900473ffffffffffffffffffffffffffffffffffffffff1673ffffffffffffffffffffffffffffffffffffffff1663f390dd86306040518263ffffffff167c0100000000000000000000000000000000000000000000000000000000028152600401620002b39190620007fe565b600060405180830381600087803b158015620002ce57600080fd5b505af1158015620002e3573d6000803e3d6000fd5b505050507f9fe7cb314c08d72e270589aeb0470bb4335133b90e7dfd6f84ed11661496dd3783836040516200031a9291906200081b565b60405180910390a150505050620009ae565b828054600181600116156101000203166002900490600052602060002090601f016020900481019282601f106200036f57805160ff1916838001178555620003a0565b82800160010185558215620003a0579182015b828111156200039f57825182559160200191906001019062000382565b5b509050620003af91906200041a565b5090565b82805482825590600052602060002090810192821562000407579160200282015b8281111562000406578251829080519060200190620003f592919062000442565b5091602001919060010190620003d4565b5b509050620004169190620004c9565b5090565b6200043f91905b808211156200043b57600081600090555060010162000421565b5090565b90565b828054600181600116156101000203166002900490600052602060002090601f016020900481019282601f106200048557805160ff1916838001178555620004b6565b82800160010185558215620004b6579182015b82811115620004b557825182559160200191906001019062000498565b5b509050620004c591906200041a565b5090565b620004f791905b80821115620004f35760008181620004e99190620004fa565b50600101620004d0565b5090565b90565b50805460018160011615610100020316600290046000825580601f1062000522575062000543565b601f0160209004906000526020600020908101906200054291906200041a565b5b50565b600062000554825162000947565b905092915050565b600082601f83011215156200057057600080fd5b815162000587620005818262000899565b6200086b565b9150818183526020840193506020810190508360005b83811015620005d15781518601620005b68882620005db565b8452602084019350602083019250506001810190506200059d565b5050505092915050565b600082601f8301121515620005ef57600080fd5b8151620006066200060082620008c2565b6200086b565b915080825260208301602083018583830111156200062357600080fd5b6200063083828462000967565b50505092915050565b600082601f83011215156200064d57600080fd5b8151620006646200065e82620008ef565b6200086b565b915080825260208301602083018583830111156200068157600080fd5b6200068e83828462000967565b50505092915050565b600060208284031215620006aa57600080fd5b6000620006ba8482850162000546565b91505092915050565b60008060008060808587031215620006da57600080fd5b6000620006ea8782880162000546565b945050602085015167ffffffffffffffff8111156200070857600080fd5b620007168782880162000639565b935050604085015167ffffffffffffffff8111156200073457600080fd5b620007428782880162000639565b925050606085015167ffffffffffffffff8111156200076057600080fd5b6200076e878288016200055c565b91505092959194509250565b620007858162000927565b82525050565b600062000798826200091c565b808452620007ae81602086016020860162000967565b620007b9816200099d565b602085010191505092915050565b6000601782527f4372656174652073657373696f6e2073756363657373210000000000000000006020830152604082019050919050565b60006020820190506200081560008301846200077a565b92915050565b600060608201905081810360008301526200083781856200078b565b905081810360208301526200084d81846200078b565b905081810360408301526200086281620007c7565b90509392505050565b6000604051905081810181811067ffffffffffffffff821117156200088f57600080fd5b8060405250919050565b600067ffffffffffffffff821115620008b157600080fd5b602082029050602081019050919050565b600067ffffffffffffffff821115620008da57600080fd5b601f19601f8301169050602081019050919050565b600067ffffffffffffffff8211156200090757600080fd5b601f19601f8301169050602081019050919050565b600081519050919050565b600073ffffffffffffffffffffffffffffffffffffffff82169050919050565b600073ffffffffffffffffffffffffffffffffffffffff82169050919050565b60005b83811015620009875780820151818401526020810190506200096a565b8381111562000997576000848401525b50505050565b6000601f19601f8301169050919050565b61226380620009be6000396000f3006080604052600436106100a4576000357c0100000000000000000000000000000000000000000000000000000000900463ffffffff1680630c640a10146100a95780630e973501146100d45780632e639ee5146100fd578063445df9d6146101285780636c38e4c6146101535780637542040f14610190578063893e79ba146101b9578063d270e7ab146101e2578063f8cb00bf1461020d578063fe0ae1651461023d575b600080fd5b3480156100b557600080fd5b506100be610254565b6040516100cb9190611e9f565b60405180910390f35b3480156100e057600080fd5b506100fb60048036036100f69190810190611933565b610391565b005b34801561010957600080fd5b506101126104a6565b60405161011f9190611e40565b60405180910390f35b34801561013457600080fd5b5061013d610534565b60405161014a9190611e62565b60405180910390f35b34801561015f57600080fd5b5061017a600480360361017591908101906118b8565b6106c7565b6040516101879190611e84565b60405180910390f35b34801561019c57600080fd5b506101b760048036036101b291908101906118e1565b61071d565b005b3480156101c557600080fd5b506101e060048036036101db91908101906118e1565b61086c565b005b3480156101ee57600080fd5b506101f7610aff565b6040516102049190611dc0565b60405180910390f35b34801561021957600080fd5b50610222610b24565b60405161023496959493929190611eba565b60405180910390f35b34801561024957600080fd5b50610252610d84565b005b6000600b60009054906101000a900473ffffffffffffffffffffffffffffffffffffffff1673ffffffffffffffffffffffffffffffffffffffff163373ffffffffffffffffffffffffffffffffffffffff16141515156102e9576040517f08c379a00000000000000000000000000000000000000000000000000000000081526004016102e090611f9a565b60405180910390fd5b60011515600960003373ffffffffffffffffffffffffffffffffffffffff1673ffffffffffffffffffffffffffffffffffffffff16815260200190815260200160002060009054906101000a900460ff161515141561038957600860003373ffffffffffffffffffffffffffffffffffffffff1673ffffffffffffffffffffffffffffffffffffffff16815260200190815260200160002054905061038e565b600090505b90565b600b60009054906101000a900473ffffffffffffffffffffffffffffffffffffffff1673ffffffffffffffffffffffffffffffffffffffff163373ffffffffffffffffffffffffffffffffffffffff16141515610423576040517f08c379a000000000000000000000000000000000000000000000000000000000815260040161041a90611fda565b60405180910390fd5b8260029080519060200190610439929190611561565b508160039080519060200190610450929190611561565b5080600490805190602001906104679291906115e1565b507f2a5d6d5b2dec1b940dec7f561cf0b8cd2965d265ed7c371349e1d15979b075ab8383604051610499929190611f30565b60405180910390a1505050565b6060600a80548060200260200160405190810160405280929190818152602001828054801561052a57602002820191906000526020600020905b8160009054906101000a900473ffffffffffffffffffffffffffffffffffffffff1673ffffffffffffffffffffffffffffffffffffffff16815260200190600101908083116104e0575b5050505050905090565b6060806000600b60009054906101000a900473ffffffffffffffffffffffffffffffffffffffff1673ffffffffffffffffffffffffffffffffffffffff163373ffffffffffffffffffffffffffffffffffffffff161415156105cb576040517f08c379a00000000000000000000000000000000000000000000000000000000081526004016105c290611fda565b60405180910390fd5b600a805490506040519080825280602002602001820160405280156105ff5781602001602082028038833980820191505090505b509150600090505b600a805490508160ff1610156106bf5760086000600a8360ff1681548110151561062d57fe5b9060005260206000200160009054906101000a900473ffffffffffffffffffffffffffffffffffffffff1673ffffffffffffffffffffffffffffffffffffffff1673ffffffffffffffffffffffffffffffffffffffff16815260200190815260200160002054828260ff168151811015156106a457fe5b90602001906020020181815250508080600101915050610607565b819250505090565b6000600960008373ffffffffffffffffffffffffffffffffffffffff1673ffffffffffffffffffffffffffffffffffffffff16815260200190815260200160002060009054906101000a900460ff169050919050565b600b60009054906101000a900473ffffffffffffffffffffffffffffffffffffffff1673ffffffffffffffffffffffffffffffffffffffff163373ffffffffffffffffffffffffffffffffffffffff161415156107af576040517f08c379a00000000000000000000000000000000000000000000000000000000081526004016107a690611fda565b60405180910390fd5b600160028111156107bc57fe5b600760009054906101000a900460ff1660028111156107d757fe5b141515610819576040517f08c379a000000000000000000000000000000000000000000000000000000000815260040161081090611f7a565b60405180910390fd5b6000600a80549050141561085757806006819055506002600760006101000a81548160ff0219169083600281111561084d57fe5b0217905550610869565b61086081610edb565b6108686110c6565b5b50565b600b60009054906101000a900473ffffffffffffffffffffffffffffffffffffffff1673ffffffffffffffffffffffffffffffffffffffff163373ffffffffffffffffffffffffffffffffffffffff16141515156108ff576040517f08c379a00000000000000000000000000000000000000000000000000000000081526004016108f690611f9a565b60405180910390fd5b6001600281111561090c57fe5b600760009054906101000a900460ff16600281111561092757fe5b141515610969576040517f08c379a000000000000000000000000000000000000000000000000000000000815260040161096090611f7a565b60405180910390fd5b60001515600960003373ffffffffffffffffffffffffffffffffffffffff1673ffffffffffffffffffffffffffffffffffffffff16815260200190815260200160002060009054906101000a900460ff1615151415610a81576001600960003373ffffffffffffffffffffffffffffffffffffffff1673ffffffffffffffffffffffffffffffffffffffff16815260200190815260200160002060006101000a81548160ff021916908315150217905550600a3390806001815401808255809150509060018203906000526020600020016000909192909190916101000a81548173ffffffffffffffffffffffffffffffffffffffff021916908373ffffffffffffffffffffffffffffffffffffffff160217905550505b80600860003373ffffffffffffffffffffffffffffffffffffffff1673ffffffffffffffffffffffffffffffffffffffff168152602001908152602001600020819055507f47650289511cf2cfb9b8b559f6e750022263d3a2db072b47698d32df3ac0b80533604051610af49190611e12565b60405180910390a150565b6000809054906101000a900473ffffffffffffffffffffffffffffffffffffffff1681565b60608060606000806000600260036004600554600654600760009054906101000a900460ff166002811115610b5557fe5b858054600181600116156101000203166002900480601f016020809104026020016040519081016040528092919081815260200182805460018160011615610100020316600290048015610bea5780601f10610bbf57610100808354040283529160200191610bea565b820191906000526020600020905b815481529060010190602001808311610bcd57829003601f168201915b50505050509550848054600181600116156101000203166002900480601f016020809104026020016040519081016040528092919081815260200182805460018160011615610100020316600290048015610c865780601f10610c5b57610100808354040283529160200191610c86565b820191906000526020600020905b815481529060010190602001808311610c6957829003601f168201915b5050505050945083805480602002602001604051908101604052809291908181526020016000905b82821015610d6a578382906000526020600020018054600181600116156101000203166002900480601f016020809104026020016040519081016040528092919081815260200182805460018160011615610100020316600290048015610d565780601f10610d2b57610100808354040283529160200191610d56565b820191906000526020600020905b815481529060010190602001808311610d3957829003601f168201915b505050505081526020019060010190610cae565b505050509350955095509550955095509550909192939495565b600b60009054906101000a900473ffffffffffffffffffffffffffffffffffffffff1673ffffffffffffffffffffffffffffffffffffffff163373ffffffffffffffffffffffffffffffffffffffff16141515610e16576040517f08c379a0000000000000000000000000000000000000000000000000000000008152600401610e0d90611fda565b60405180910390fd5b60006002811115610e2357fe5b600760009054906101000a900460ff166002811115610e3e57fe5b141515610e80576040517f08c379a0000000000000000000000000000000000000000000000000000000008152600401610e7790611fba565b60405180910390fd5b6001600760006101000a81548160ff02191690836002811115610e9f57fe5b02179055507fd084c6ae9c7d3dcbaf7ac844e5d1150bc12c7d070a3ffb34cd54ca01a03c1364604051610ed190611ffa565b60405180910390a1565b60008060008060008094506000935060009250600091505b600a8054905082101561109857600160009054906101000a900473ffffffffffffffffffffffffffffffffffffffff1673ffffffffffffffffffffffffffffffffffffffff1663a33a08b9600a84815481101515610f4d57fe5b9060005260206000200160009054906101000a900473ffffffffffffffffffffffffffffffffffffffff166040518263ffffffff167c0100000000000000000000000000000000000000000000000000000000028152600401610fb09190611dc0565b602060405180830381600087803b158015610fca57600080fd5b505af1158015610fde573d6000803e3d6000fd5b505050506040513d601f19601f82011682018060405250611002919081019061190a565b90508060640360086000600a8581548110151561101b57fe5b9060005260206000200160009054906101000a900473ffffffffffffffffffffffffffffffffffffffff1673ffffffffffffffffffffffffffffffffffffffff1673ffffffffffffffffffffffffffffffffffffffff16815260200190815260200160002054028401935080830192508180600101925050610ef3565b82600a8054905060640203848115156110ad57fe5b0594508460058190555085600681905550505050505050565b600080600080600080600095505b600a8054905086101561143657600a868154811015156110f057fe5b9060005260206000200160009054906101000a900473ffffffffffffffffffffffffffffffffffffffff169450600160009054906101000a900473ffffffffffffffffffffffffffffffffffffffff1673ffffffffffffffffffffffffffffffffffffffff1663a33a08b9866040518263ffffffff167c01000000000000000000000000000000000000000000000000000000000281526004016111949190611dc0565b602060405180830381600087803b1580156111ae57600080fd5b505af11580156111c2573d6000803e3d6000fd5b505050506040513d601f19601f820116820180604052506111e6919081019061190a565b9350600160009054906101000a900473ffffffffffffffffffffffffffffffffffffffff1673ffffffffffffffffffffffffffffffffffffffff1663be330868866040518263ffffffff167c010000000000000000000000000000000000000000000000000000000002815260040161125f9190611dc0565b602060405180830381600087803b15801561127957600080fd5b505af115801561128d573d6000803e3d6000fd5b505050506040513d601f19601f820116820180604052506112b1919081019061190a565b92506112bc85611497565b83850201915060018301828115156112d057fe5b059050600160009054906101000a900473ffffffffffffffffffffffffffffffffffffffff1673ffffffffffffffffffffffffffffffffffffffff1663f24685943087846040518463ffffffff167c010000000000000000000000000000000000000000000000000000000002815260040161134e93929190611ddb565b600060405180830381600087803b15801561136857600080fd5b505af115801561137c573d6000803e3d6000fd5b50505050600160009054906101000a900473ffffffffffffffffffffffffffffffffffffffff1673ffffffffffffffffffffffffffffffffffffffff1663a6829934866040518263ffffffff167c01000000000000000000000000000000000000000000000000000000000281526004016113f79190611dc0565b600060405180830381600087803b15801561141157600080fd5b505af1158015611425573d6000803e3d6000fd5b5050505085806001019650506110d4565b6002600760006101000a81548160ff0219169083600281111561145557fe5b02179055507fd084c6ae9c7d3dcbaf7ac844e5d1150bc12c7d070a3ffb34cd54ca01a03c13646040516114879061201a565b60405180910390a1505050505050565b60008060006114e8600860008673ffffffffffffffffffffffffffffffffffffffff1673ffffffffffffffffffffffffffffffffffffffff1681526020019081526020016000205460065403611524565b91506064600654670de0b6b3a7640000840281151561150357fe5b05029050670de0b6b3a76400008181151561151a57fe5b0592505050919050565b600080821215611558577fffffffffffffffffffffffffffffffffffffffffffffffffffffffffffffffff8202905061155c565b8190505b919050565b828054600181600116156101000203166002900490600052602060002090601f016020900481019282601f106115a257805160ff19168380011785556115d0565b828001600101855582156115d0579182015b828111156115cf5782518255916020019190600101906115b4565b5b5090506115dd9190611641565b5090565b828054828255906000526020600020908101928215611630579160200282015b8281111561162f57825182908051906020019061161f929190611666565b5091602001919060010190611601565b5b50905061163d91906116e6565b5090565b61166391905b8082111561165f576000816000905550600101611647565b5090565b90565b828054600181600116156101000203166002900490600052602060002090601f016020900481019282601f106116a757805160ff19168380011785556116d5565b828001600101855582156116d5579182015b828111156116d45782518255916020019190600101906116b9565b5b5090506116e29190611641565b5090565b61170f91905b8082111561170b57600081816117029190611712565b506001016116ec565b5090565b90565b50805460018160011615610100020316600290046000825580601f106117385750611757565b601f0160209004906000526020600020908101906117569190611641565b5b50565b600061176682356121ac565b905092915050565b600082601f830112151561178157600080fd5b813561179461178f82612067565b61203a565b9150818183526020840193506020810190508360005b838110156117da57813586016117c0888261180c565b8452602084019350602083019250506001810190506117aa565b5050505092915050565b60006117f082356121cc565b905092915050565b600061180482516121cc565b905092915050565b600082601f830112151561181f57600080fd5b813561183261182d8261208f565b61203a565b9150808252602083016020830185838301111561184e57600080fd5b6118598382846121d6565b50505092915050565b600082601f830112151561187557600080fd5b8135611888611883826120bb565b61203a565b915080825260208301602083018583830111156118a457600080fd5b6118af8382846121d6565b50505092915050565b6000602082840312156118ca57600080fd5b60006118d88482850161175a565b91505092915050565b6000602082840312156118f357600080fd5b6000611901848285016117e4565b91505092915050565b60006020828403121561191c57600080fd5b600061192a848285016117f8565b91505092915050565b60008060006060848603121561194857600080fd5b600084013567ffffffffffffffff81111561196257600080fd5b61196e86828701611862565b935050602084013567ffffffffffffffff81111561198b57600080fd5b61199786828701611862565b925050604084013567ffffffffffffffff8111156119b457600080fd5b6119c08682870161176e565b9150509250925092565b6119d38161216c565b82525050565b60006119e48261210e565b8084526020840193506119f6836120e7565b60005b82811015611a2857611a0c8683516119ca565b611a1582612145565b91506020860195506001810190506119f9565b50849250505092915050565b6000611a3f82612119565b808452602084019350611a51836120f4565b60005b82811015611a8357611a67868351611b0c565b611a7082612152565b9150602086019550600181019050611a54565b50849250505092915050565b6000611a9a82612124565b80845260208401935083602082028501611ab385612101565b60005b84811015611aec578383038852611ace838351611b51565b9250611ad98261215f565b9150602088019750600181019050611ab6565b508196508694505050505092915050565b611b068161218c565b82525050565b611b1581612198565b82525050565b6000611b268261213a565b808452611b3a8160208601602086016121e5565b611b4381612218565b602085010191505092915050565b6000611b5c8261212f565b808452611b708160208601602086016121e5565b611b7981612218565b602085010191505092915050565b6000601a82527f53657373696f6e206973206e6f7420696e2070726f67726573730000000000006020830152604082019050919050565b6000602b82527f546869732066756e6374696f6e206f6e6c79207061727469636970616e74206360208301527f616e2065786563757465210000000000000000000000000000000000000000006040830152606082019050919050565b6000601782527f5570646174652073657373696f6e2073756363657373210000000000000000006020830152604082019050919050565b6000601e82527f53657373696f6e20737461747573206d757374206265204352454154454400006020830152604082019050919050565b6000602582527f546869732066756e6374696f6e206f6e6c792061646d696e2063616e2065786560208301527f63757465210000000000000000000000000000000000000000000000000000006040830152606082019050919050565b6000602082527f5570646174652073657373696f6e2073746174757320746f2050524943494e476020830152604082019050919050565b6000601082527f50726963696e67207375636365737321000000000000000000000000000000006020830152604082019050919050565b6000602b82527f43616c63756c61746520616e64207570646174652073657373696f6e2073746160208301527f74757320746f2053544f500000000000000000000000000000000000000000006040830152606082019050919050565b611dba816121a2565b82525050565b6000602082019050611dd560008301846119ca565b92915050565b6000606082019050611df060008301866119ca565b611dfd60208301856119ca565b611e0a6040830184611b0c565b949350505050565b6000604082019050611e2760008301846119ca565b8181036020830152611e3881611d1d565b905092915050565b60006020820190508181036000830152611e5a81846119d9565b905092915050565b60006020820190508181036000830152611e7c8184611a34565b905092915050565b6000602082019050611e996000830184611afd565b92915050565b6000602082019050611eb46000830184611b0c565b92915050565b600060c0820190508181036000830152611ed48189611b1b565b90508181036020830152611ee88188611b1b565b90508181036040830152611efc8187611a8f565b9050611f0b6060830186611db1565b611f186080830185611b0c565b611f2560a0830184611db1565b979650505050505050565b60006060820190508181036000830152611f4a8185611b1b565b90508181036020830152611f5e8184611b1b565b90508181036040830152611f7181611c1b565b90509392505050565b60006020820190508181036000830152611f9381611b87565b9050919050565b60006020820190508181036000830152611fb381611bbe565b9050919050565b60006020820190508181036000830152611fd381611c52565b9050919050565b60006020820190508181036000830152611ff381611c89565b9050919050565b6000602082019050818103600083015261201381611ce6565b9050919050565b6000602082019050818103600083015261203381611d54565b9050919050565b6000604051905081810181811067ffffffffffffffff8211171561205d57600080fd5b8060405250919050565b600067ffffffffffffffff82111561207e57600080fd5b602082029050602081019050919050565b600067ffffffffffffffff8211156120a657600080fd5b601f19601f8301169050602081019050919050565b600067ffffffffffffffff8211156120d257600080fd5b601f19601f8301169050602081019050919050565b6000602082019050919050565b6000602082019050919050565b6000602082019050919050565b600081519050919050565b600081519050919050565b600081519050919050565b600081519050919050565b600081519050919050565b6000602082019050919050565b6000602082019050919050565b6000602082019050919050565b600073ffffffffffffffffffffffffffffffffffffffff82169050919050565b60008115159050919050565b6000819050919050565b6000819050919050565b600073ffffffffffffffffffffffffffffffffffffffff82169050919050565b6000819050919050565b82818337600083830152505050565b60005b838110156122035780820151818401526020810190506121e8565b83811115612212576000848401525b50505050565b6000601f19601f83011690509190505600a265627a7a72305820cc4c62ead9d75abbb33c9a8efbdd6b961c43df4c8ef3e01d4c02c98a439889596c6578706572696d656e74616cf50037a265627a7a72305820addda44e842b69b5a1fc47e617626ede3bf33e8bd43a4d52228b35fb335454d96c6578706572696d656e74616cf50037",
  "source": "// SPDX-License-Identifier: MIT\npragma solidity ^0.4.26;\npragma experimental ABIEncoderV2;\nimport \"./Session.sol\";\n\ncontract Main is IMain {\n    // Structure to hold details of Bidder\n    struct IParticipant {\n        // TODO\n        address account;\n        string fullName;\n        string email;\n        int numberOfSession;\n        int deviation;\n    }\n\n    // Struct IUser:\n    struct IUser {\n        address account;\n        string fullName;\n        string email;\n    }\n\n    address public admin;\n\n    // TODO: Variables\n    uint private maxOfUser;\n    mapping(address => IParticipant) private mapParticipants;\n    address[] private participantItems;\n    address[] private sessions;\n    IUser private adminProfile;\n\n    constructor(uint _maxOfUser) public {\n        admin = msg.sender;\n        maxOfUser = _maxOfUser;\n        adminProfile.account = msg.sender;\n    }\n\n    // Add a Session Contract address into Main Contract. Use to link Session with Main\n    function addSession(address session) public {\n        // TODO\n        Session newSession = Session(session);\n        sessions.push(address(newSession));\n    }\n\n    // TODO: Functions\n    // Get admin.\n    function getAdmin() public view returns (address) {\n        return admin;\n    }\n\n    // Update admin profile.\n    function updateAdminProfile(string _fullName, string _email) public onlyAdmin {\n        adminProfile.fullName = _fullName;\n        adminProfile.email = _email;\n    }\n\n    // Get admin profile.\n    function getAdminProfile() public onlyAdmin view returns(IUser memory) {\n        return adminProfile;\n    }\n\n    // Add participant.\n    function addParticipant(address _account) public onlyAdmin onlyInNumberOfRangeParticipant {\n        require(_account != admin, \"Can not add admin address to participant list!\");\n        mapParticipants[_account] = IParticipant(_account, \"\", \"\", 0, 0);\n        participantItems.push(_account);\n        emit AddParticipant(_account, \"Add participant success!\");\n    }\n\n    // Update participant profile.\n    function register(address _account, string memory _fullName, string memory _email) public {\n        mapParticipants[_account].fullName = _fullName;\n        mapParticipants[_account].email = _email;\n        emit UpdateParticipant(_account, _fullName, _email);\n    }\n\n    // Get participant by address.\n    function participants(address _account) public view returns (IParticipant memory) {\n        return mapParticipants[_account];\n    }\n\n    // Get all participants.\n    function getAllParticipants() public onlyAdmin view returns (IParticipant[] memory) {\n        IParticipant[] memory _participants = new IParticipant[](participantItems.length);\n\n        for (uint i = 0; i < participantItems.length; i++) {\n            _participants[i] = mapParticipants[participantItems[i]];\n        }\n\n        return _participants;\n    }\n\n    // Get number of participants.\n    function nParticipants() public view returns (uint) {\n        return participantItems.length;\n    }\n\n    // Get participant by index.\n    function iParticipants(uint _index) public view returns (IParticipant memory) {\n        return mapParticipants[participantItems[_index]];\n    }\n\n    // Get deviation by participant address.\n    function getDeviation(address _account) public view returns (int) {\n        return mapParticipants[_account].deviation;\n    }\n\n    // Set deviation for a participant.\n    function setDeviation(address _session, address _account, int _deviation) public onlySessionContract(_session, _account) {\n        mapParticipants[_account].deviation = _deviation;\n    }\n\n    // Increment numnber of session for a participant.\n    function incrementNumberOfSession(address _account) public {\n        mapParticipants[_account].numberOfSession++;\n    }\n\n    // Get number of session by participant.\n    function getNumberOfSession(address _account) public view returns (int) {\n        return mapParticipants[_account].numberOfSession;\n    }\n\n    // Create new Session.\n    function createSession(string memory _productName, string memory _description, string[] memory _images) public onlyAdmin(){\n        new Session(address(this), _productName, _description, _images);\n        emit CreateSession(_productName, _description);\n    }\n\n    // Get all session address.\n    function getAllSessionAddresses() public view returns (address[] memory) {\n        return sessions;\n    }\n\n    // Get number of session.\n    function nSessions() public view returns (uint) {\n        return sessions.length;\n    }\n\n    // Get session detail.\n    function getSessionDetail(address _session) public view returns (string memory, string memory, string[] memory, uint, int, uint) {\n        Session session = Session(_session);\n\n        return session.getSessionDetail();\n    }\n\n    // Modify only admin.\n    modifier onlyAdmin() {\n        require(msg.sender == admin, \"This function only admin can execute!\");\n        _;\n    }\n\n    // Modify number of participant in ragne.\n    modifier onlyInNumberOfRangeParticipant() {\n        require(participantItems.length < maxOfUser, \"Only create 10 users!\");\n        _;\n    }\n\n    // Only session contract\n    modifier onlySessionContract(address _session, address _participant) {\n        Session session = Session(_session);\n        require(session.getParticipantPricingExists(_participant) == true, \"Only session contract!\");\n        _;\n    }\n\n    // Event update participant.\n    event UpdateParticipant(address _account, string _fullName, string _email);\n\n    // Event add participant.\n    event AddParticipant(address _account, string msg);\n\n    // Event create session.\n    event CreateSession(string _productName, string _description);\n}\n",
  "sourcePath": "/Users/damthe/study/blockchain/fx15127-final-project/truffle/contracts/Main.sol",
  "compiler": {
    "name": "solc",
    "version": "0.4.26+commit.4563c3fc.Emscripten.clang"
  },
  "schemaVersion": "3.4.10",
  "updatedAt": "2023-07-10T08:36:55.158Z",
  "networkType": "ethereum",
  "devdoc": {
    "methods": {}
  },
  "userdoc": {
    "methods": {}
  }
}