{
  "contractName": "Main",
  "abi": [
    {
      "inputs": [
        {
          "internalType": "uint256",
          "name": "_maxOfUser",
          "type": "uint256"
        }
      ],
      "stateMutability": "nonpayable",
      "type": "constructor"
    },
    {
      "anonymous": false,
      "inputs": [
        {
          "indexed": false,
          "internalType": "address",
          "name": "_account",
          "type": "address"
        },
        {
          "indexed": false,
          "internalType": "string",
          "name": "msg",
          "type": "string"
        }
      ],
      "name": "AddParticipant",
      "type": "event"
    },
    {
      "anonymous": false,
      "inputs": [
        {
          "indexed": false,
          "internalType": "string",
          "name": "_productName",
          "type": "string"
        },
        {
          "indexed": false,
          "internalType": "string",
          "name": "_description",
          "type": "string"
        }
      ],
      "name": "CreateSession",
      "type": "event"
    },
    {
      "anonymous": false,
      "inputs": [
        {
          "indexed": false,
          "internalType": "address",
          "name": "_account",
          "type": "address"
        },
        {
          "indexed": false,
          "internalType": "string",
          "name": "_fullName",
          "type": "string"
        },
        {
          "indexed": false,
          "internalType": "string",
          "name": "_email",
          "type": "string"
        }
      ],
      "name": "UpdateParticipant",
      "type": "event"
    },
    {
      "inputs": [],
      "name": "admin",
      "outputs": [
        {
          "internalType": "address",
          "name": "",
          "type": "address"
        }
      ],
      "stateMutability": "view",
      "type": "function"
    },
    {
      "inputs": [
        {
          "internalType": "address",
          "name": "session",
          "type": "address"
        }
      ],
      "name": "addSession",
      "outputs": [],
      "stateMutability": "nonpayable",
      "type": "function"
    },
    {
      "inputs": [],
      "name": "getAdmin",
      "outputs": [
        {
          "internalType": "address",
          "name": "",
          "type": "address"
        }
      ],
      "stateMutability": "view",
      "type": "function"
    },
    {
      "inputs": [
        {
          "internalType": "address",
          "name": "_account",
          "type": "address"
        }
      ],
      "name": "addParticipant",
      "outputs": [],
      "stateMutability": "nonpayable",
      "type": "function"
    },
    {
      "inputs": [
        {
          "internalType": "address",
          "name": "_account",
          "type": "address"
        },
        {
          "internalType": "string",
          "name": "_fullName",
          "type": "string"
        },
        {
          "internalType": "string",
          "name": "_email",
          "type": "string"
        }
      ],
      "name": "updateParticipant",
      "outputs": [],
      "stateMutability": "nonpayable",
      "type": "function"
    },
    {
      "inputs": [
        {
          "internalType": "address",
          "name": "_account",
          "type": "address"
        }
      ],
      "name": "getParticipant",
      "outputs": [
        {
          "components": [
            {
              "internalType": "address",
              "name": "account",
              "type": "address"
            },
            {
              "internalType": "string",
              "name": "fullName",
              "type": "string"
            },
            {
              "internalType": "string",
              "name": "email",
              "type": "string"
            },
            {
              "internalType": "int256",
              "name": "numberOfSession",
              "type": "int256"
            },
            {
              "internalType": "int256",
              "name": "deviation",
              "type": "int256"
            }
          ],
          "internalType": "struct Main.IParticipant",
          "name": "",
          "type": "tuple"
        }
      ],
      "stateMutability": "view",
      "type": "function"
    },
    {
      "inputs": [],
      "name": "getAllParticipants",
      "outputs": [
        {
          "components": [
            {
              "internalType": "address",
              "name": "account",
              "type": "address"
            },
            {
              "internalType": "string",
              "name": "fullName",
              "type": "string"
            },
            {
              "internalType": "string",
              "name": "email",
              "type": "string"
            },
            {
              "internalType": "int256",
              "name": "numberOfSession",
              "type": "int256"
            },
            {
              "internalType": "int256",
              "name": "deviation",
              "type": "int256"
            }
          ],
          "internalType": "struct Main.IParticipant[]",
          "name": "",
          "type": "tuple[]"
        }
      ],
      "stateMutability": "view",
      "type": "function"
    },
    {
      "inputs": [
        {
          "internalType": "string",
          "name": "_productName",
          "type": "string"
        },
        {
          "internalType": "string",
          "name": "_description",
          "type": "string"
        },
        {
          "internalType": "string[]",
          "name": "_images",
          "type": "string[]"
        }
      ],
      "name": "createSession",
      "outputs": [],
      "stateMutability": "nonpayable",
      "type": "function"
    },
    {
      "inputs": [
        {
          "internalType": "address",
          "name": "_account",
          "type": "address"
        }
      ],
      "name": "getDeviation",
      "outputs": [
        {
          "internalType": "int256",
          "name": "",
          "type": "int256"
        }
      ],
      "stateMutability": "view",
      "type": "function"
    },
    {
      "inputs": [
        {
          "internalType": "address",
          "name": "_account",
          "type": "address"
        },
        {
          "internalType": "int256",
          "name": "_deviation",
          "type": "int256"
        }
      ],
      "name": "setDeviation",
      "outputs": [],
      "stateMutability": "nonpayable",
      "type": "function"
    },
    {
      "inputs": [
        {
          "internalType": "address",
          "name": "_account",
          "type": "address"
        }
      ],
      "name": "incrementNumberOfSession",
      "outputs": [],
      "stateMutability": "nonpayable",
      "type": "function"
    },
    {
      "inputs": [
        {
          "internalType": "address",
          "name": "_account",
          "type": "address"
        }
      ],
      "name": "getNumberOfSession",
      "outputs": [
        {
          "internalType": "int256",
          "name": "",
          "type": "int256"
        }
      ],
      "stateMutability": "view",
      "type": "function"
    },
    {
      "inputs": [],
      "name": "getAllSessionAddresses",
      "outputs": [
        {
          "internalType": "address[]",
          "name": "",
          "type": "address[]"
        }
      ],
      "stateMutability": "view",
      "type": "function"
    },
    {
      "inputs": [],
      "name": "getAllSessions",
      "outputs": [
        {
          "internalType": "address[]",
          "name": "",
          "type": "address[]"
        }
      ],
      "stateMutability": "view",
      "type": "function"
    },
    {
      "inputs": [
        {
          "internalType": "address",
          "name": "_session",
          "type": "address"
        }
      ],
      "name": "getSessionDetail",
      "outputs": [
        {
          "internalType": "string",
          "name": "",
          "type": "string"
        },
        {
          "internalType": "string",
          "name": "",
          "type": "string"
        },
        {
          "internalType": "string[]",
          "name": "",
          "type": "string[]"
        },
        {
          "internalType": "uint256",
          "name": "",
          "type": "uint256"
        },
        {
          "internalType": "int256",
          "name": "",
          "type": "int256"
        },
        {
          "internalType": "uint256",
          "name": "",
          "type": "uint256"
        }
      ],
      "stateMutability": "view",
      "type": "function"
    }
  ],
  "bytecode": "0x608060405234801562000010575f80fd5b50604051620055f8380380620055f88339818101604052810190620000369190620000bf565b335f806101000a81548173ffffffffffffffffffffffffffffffffffffffff021916908373ffffffffffffffffffffffffffffffffffffffff1602179055508060018190555050620000ef565b5f80fd5b5f819050919050565b6200009b8162000087565b8114620000a6575f80fd5b50565b5f81519050620000b98162000090565b92915050565b5f60208284031215620000d757620000d662000083565b5b5f620000e684828501620000a9565b91505092915050565b6154fb80620000fd5f395ff3fe608060405234801562000010575f80fd5b50600436106200010a575f3560e01c8063a33a08b911620000a3578063d1bce2c7116200006d578063d1bce2c714620002b8578063dfafe10f14620002f3578063f390dd861462000313578063f851a4401462000333576200010a565b8063a33a08b9146200020c578063a68299341462000242578063b40077001462000262578063be3308681462000282576200010a565b80637143059f11620000e55780637143059f14620001745780638c99069814620001aa5780639363121814620001ca578063a18e340414620001ea576200010a565b8063195ec9ee146200010e57806354ca06b414620001305780636e9960c31462000152575b5f80fd5b6200011862000355565b60405162000127919062001505565b60405180910390f35b6200013a620006b7565b604051620001499190620015dd565b60405180910390f35b6200015c62000744565b6040516200016b919062001610565b60405180910390f35b6200019260048036038101906200018c91906200166b565b6200076b565b604051620001a191906200171f565b60405180910390f35b620001c86004803603810190620001c2919062001770565b6200095c565b005b620001e86004803603810190620001e29190620019f5565b62000a35565b005b620001f462000b42565b604051620002039190620015dd565b60405180910390f35b6200022a60048036038101906200022491906200166b565b62000bcf565b60405162000239919062001abc565b60405180910390f35b6200026060048036038101906200025a91906200166b565b62000c18565b005b6200028060048036038101906200027a919062001ad7565b62000d02565b005b620002a060048036038101906200029a91906200166b565b62000de4565b604051620002af919062001abc565b60405180910390f35b620002d66004803603810190620002d091906200166b565b62000ebe565b604051620002ea9695949392919062001ca1565b60405180910390f35b6200031160048036038101906200030b91906200166b565b62000f53565b005b6200033160048036038101906200032b91906200166b565b620011ec565b005b6200033d62001254565b6040516200034c919062001610565b60405180910390f35b60605f8054906101000a900473ffffffffffffffffffffffffffffffffffffffff1673ffffffffffffffffffffffffffffffffffffffff163373ffffffffffffffffffffffffffffffffffffffff1614620003e7576040517f08c379a0000000000000000000000000000000000000000000000000000000008152600401620003de9062001d95565b60405180910390fd5b5f60038054905067ffffffffffffffff8111156200040a5762000409620017bd565b5b6040519080825280602002602001820160405280156200044757816020015b6200043362001277565b815260200190600190039081620004295790505b5090505f5b600380549050811015620006af5760025f6003838154811062000474576200047362001db5565b5b905f5260205f20015f9054906101000a900473ffffffffffffffffffffffffffffffffffffffff1673ffffffffffffffffffffffffffffffffffffffff1673ffffffffffffffffffffffffffffffffffffffff1681526020019081526020015f206040518060a00160405290815f82015f9054906101000a900473ffffffffffffffffffffffffffffffffffffffff1673ffffffffffffffffffffffffffffffffffffffff1673ffffffffffffffffffffffffffffffffffffffff168152602001600182018054620005469062001e0f565b80601f0160208091040260200160405190810160405280929190818152602001828054620005749062001e0f565b8015620005c35780601f106200059957610100808354040283529160200191620005c3565b820191905f5260205f20905b815481529060010190602001808311620005a557829003601f168201915b50505050508152602001600282018054620005de9062001e0f565b80601f01602080910402602001604051908101604052809291908181526020018280546200060c9062001e0f565b80156200065b5780601f1062000631576101008083540402835291602001916200065b565b820191905f5260205f20905b8154815290600101906020018083116200063d57829003601f168201915b50505050508152602001600382015481526020016004820154815250508282815181106200068e576200068d62001db5565b5b60200260200101819052508080620006a69062001e70565b9150506200044c565b508091505090565b606060048054806020026020016040519081016040528092919081815260200182805480156200073a57602002820191905f5260205f20905b815f9054906101000a900473ffffffffffffffffffffffffffffffffffffffff1673ffffffffffffffffffffffffffffffffffffffff1681526020019060010190808311620006f0575b5050505050905090565b5f805f9054906101000a900473ffffffffffffffffffffffffffffffffffffffff16905090565b6200077562001277565b60025f8373ffffffffffffffffffffffffffffffffffffffff1673ffffffffffffffffffffffffffffffffffffffff1681526020019081526020015f206040518060a00160405290815f82015f9054906101000a900473ffffffffffffffffffffffffffffffffffffffff1673ffffffffffffffffffffffffffffffffffffffff1673ffffffffffffffffffffffffffffffffffffffff168152602001600182018054620008239062001e0f565b80601f0160208091040260200160405190810160405280929190818152602001828054620008519062001e0f565b8015620008a05780601f106200087657610100808354040283529160200191620008a0565b820191905f5260205f20905b8154815290600101906020018083116200088257829003601f168201915b50505050508152602001600282018054620008bb9062001e0f565b80601f0160208091040260200160405190810160405280929190818152602001828054620008e99062001e0f565b8015620009385780601f106200090e5761010080835404028352916020019162000938565b820191905f5260205f20905b8154815290600101906020018083116200091a57829003601f168201915b50505050508152602001600382015481526020016004820154815250509050919050565b5f8054906101000a900473ffffffffffffffffffffffffffffffffffffffff1673ffffffffffffffffffffffffffffffffffffffff163373ffffffffffffffffffffffffffffffffffffffff1614620009ec576040517f08c379a0000000000000000000000000000000000000000000000000000000008152600401620009e39062001d95565b60405180910390fd5b8060025f8473ffffffffffffffffffffffffffffffffffffffff1673ffffffffffffffffffffffffffffffffffffffff1681526020019081526020015f20600401819055505050565b5f8054906101000a900473ffffffffffffffffffffffffffffffffffffffff1673ffffffffffffffffffffffffffffffffffffffff163373ffffffffffffffffffffffffffffffffffffffff161462000ac5576040517f08c379a000000000000000000000000000000000000000000000000000000000815260040162000abc9062001d95565b60405180910390fd5b3083838360405162000ad790620012b9565b62000ae6949392919062001ebc565b604051809103905ff08015801562000b00573d5f803e3d5ffd5b50507f51c5e9dfa67879da5fab182fdd91303f7c5d1a38598aefb2216af7339ac32a13838360405162000b3592919062001f1c565b60405180910390a1505050565b6060600480548060200260200160405190810160405280929190818152602001828054801562000bc557602002820191905f5260205f20905b815f9054906101000a900473ffffffffffffffffffffffffffffffffffffffff1673ffffffffffffffffffffffffffffffffffffffff168152602001906001019080831162000b7b575b5050505050905090565b5f60025f8373ffffffffffffffffffffffffffffffffffffffff1673ffffffffffffffffffffffffffffffffffffffff1681526020019081526020015f20600401549050919050565b5f8054906101000a900473ffffffffffffffffffffffffffffffffffffffff1673ffffffffffffffffffffffffffffffffffffffff163373ffffffffffffffffffffffffffffffffffffffff161462000ca8576040517f08c379a000000000000000000000000000000000000000000000000000000000815260040162000c9f9062001d95565b60405180910390fd5b60025f8273ffffffffffffffffffffffffffffffffffffffff1673ffffffffffffffffffffffffffffffffffffffff1681526020019081526020015f206003015f81548092919062000cfa9062001f55565b919050555050565b8160025f8573ffffffffffffffffffffffffffffffffffffffff1673ffffffffffffffffffffffffffffffffffffffff1681526020019081526020015f20600101908162000d51919062002164565b508060025f8573ffffffffffffffffffffffffffffffffffffffff1673ffffffffffffffffffffffffffffffffffffffff1681526020019081526020015f20600201908162000da1919062002164565b507f3bc63a1a560da32e0aab62ddb386a3bbfb7ac6d4531d5dd65fb1505a16a784b483838360405162000dd79392919062002248565b60405180910390a1505050565b5f805f9054906101000a900473ffffffffffffffffffffffffffffffffffffffff1673ffffffffffffffffffffffffffffffffffffffff163373ffffffffffffffffffffffffffffffffffffffff161462000e76576040517f08c379a000000000000000000000000000000000000000000000000000000000815260040162000e6d9062001d95565b60405180910390fd5b60025f8373ffffffffffffffffffffffffffffffffffffffff1673ffffffffffffffffffffffffffffffffffffffff1681526020019081526020015f20600301549050919050565b60608060605f805f808790508073ffffffffffffffffffffffffffffffffffffffff1663f8cb00bf6040518163ffffffff1660e01b81526004015f60405180830381865afa15801562000f13573d5f803e3d5ffd5b505050506040513d5f823e3d601f19601f8201168201806040525081019062000f3d919062002418565b9650965096509650965096505091939550919395565b5f8054906101000a900473ffffffffffffffffffffffffffffffffffffffff1673ffffffffffffffffffffffffffffffffffffffff163373ffffffffffffffffffffffffffffffffffffffff161462000fe3576040517f08c379a000000000000000000000000000000000000000000000000000000000815260040162000fda9062001d95565b60405180910390fd5b600154600380549050106200102f576040517f08c379a000000000000000000000000000000000000000000000000000000000815260040162001026906200255b565b60405180910390fd5b6040518060a001604052808273ffffffffffffffffffffffffffffffffffffffff16815260200160405180602001604052805f815250815260200160405180602001604052805f81525081526020015f81526020015f81525060025f8373ffffffffffffffffffffffffffffffffffffffff1673ffffffffffffffffffffffffffffffffffffffff1681526020019081526020015f205f820151815f015f6101000a81548173ffffffffffffffffffffffffffffffffffffffff021916908373ffffffffffffffffffffffffffffffffffffffff160217905550602082015181600101908162001120919062002164565b50604082015181600201908162001138919062002164565b506060820151816003015560808201518160040155905050600381908060018154018082558091505060019003905f5260205f20015f9091909190916101000a81548173ffffffffffffffffffffffffffffffffffffffff021916908373ffffffffffffffffffffffffffffffffffffffff1602179055507f7a274ad5ebae6fdc80650d34a4e01c874e099afaca3b6e8c896edc5b9126651b81604051620011e19190620025c9565b60405180910390a150565b5f819050600481908060018154018082558091505060019003905f5260205f20015f9091909190916101000a81548173ffffffffffffffffffffffffffffffffffffffff021916908373ffffffffffffffffffffffffffffffffffffffff1602179055505050565b5f8054906101000a900473ffffffffffffffffffffffffffffffffffffffff1681565b6040518060a001604052805f73ffffffffffffffffffffffffffffffffffffffff16815260200160608152602001606081526020015f81526020015f81525090565b612ecc80620025fa83390190565b5f81519050919050565b5f82825260208201905092915050565b5f819050602082019050919050565b5f73ffffffffffffffffffffffffffffffffffffffff82169050919050565b5f6200131b82620012f0565b9050919050565b6200132d816200130f565b82525050565b5f81519050919050565b5f82825260208201905092915050565b5f5b838110156200136c5780820151818401526020810190506200134f565b5f8484015250505050565b5f601f19601f8301169050919050565b5f620013938262001333565b6200139f81856200133d565b9350620013b18185602086016200134d565b620013bc8162001377565b840191505092915050565b5f819050919050565b620013db81620013c7565b82525050565b5f60a083015f830151620013f85f86018262001322565b506020830151848203602086015262001412828262001387565b915050604083015184820360408601526200142e828262001387565b9150506060830151620014456060860182620013d0565b5060808301516200145a6080860182620013d0565b508091505092915050565b5f620014728383620013e1565b905092915050565b5f602082019050919050565b5f6200149282620012c7565b6200149e8185620012d1565b935083602082028501620014b285620012e1565b805f5b85811015620014f35784840389528151620014d1858262001465565b9450620014de836200147a565b925060208a01995050600181019050620014b5565b50829750879550505050505092915050565b5f6020820190508181035f8301526200151f818462001486565b905092915050565b5f81519050919050565b5f82825260208201905092915050565b5f819050602082019050919050565b5f6200155d838362001322565b60208301905092915050565b5f602082019050919050565b5f620015818262001527565b6200158d818562001531565b93506200159a8362001541565b805f5b83811015620015d0578151620015b4888262001550565b9750620015c18362001569565b9250506001810190506200159d565b5085935050505092915050565b5f6020820190508181035f830152620015f7818462001575565b905092915050565b6200160a816200130f565b82525050565b5f602082019050620016255f830184620015ff565b92915050565b5f604051905090565b5f80fd5b5f80fd5b62001647816200130f565b811462001652575f80fd5b50565b5f8135905062001665816200163c565b92915050565b5f6020828403121562001683576200168262001634565b5b5f620016928482850162001655565b91505092915050565b5f60a083015f830151620016b25f86018262001322565b5060208301518482036020860152620016cc828262001387565b91505060408301518482036040860152620016e8828262001387565b9150506060830151620016ff6060860182620013d0565b506080830151620017146080860182620013d0565b508091505092915050565b5f6020820190508181035f8301526200173981846200169b565b905092915050565b6200174c81620013c7565b811462001757575f80fd5b50565b5f813590506200176a8162001741565b92915050565b5f806040838503121562001789576200178862001634565b5b5f620017988582860162001655565b9250506020620017ab858286016200175a565b9150509250929050565b5f80fd5b5f80fd5b7f4e487b71000000000000000000000000000000000000000000000000000000005f52604160045260245ffd5b620017f58262001377565b810181811067ffffffffffffffff82111715620018175762001816620017bd565b5b80604052505050565b5f6200182b6200162b565b9050620018398282620017ea565b919050565b5f67ffffffffffffffff8211156200185b576200185a620017bd565b5b620018668262001377565b9050602081019050919050565b828183375f83830152505050565b5f6200189762001891846200183e565b62001820565b905082815260208101848484011115620018b657620018b5620017b9565b5b620018c384828562001873565b509392505050565b5f82601f830112620018e257620018e1620017b5565b5b8135620018f484826020860162001881565b91505092915050565b5f67ffffffffffffffff8211156200191a5762001919620017bd565b5b602082029050602081019050919050565b5f80fd5b5f620019456200193f84620018fd565b62001820565b905080838252602082019050602084028301858111156200196b576200196a6200192b565b5b835b81811015620019b957803567ffffffffffffffff811115620019945762001993620017b5565b5b808601620019a38982620018cb565b855260208501945050506020810190506200196d565b5050509392505050565b5f82601f830112620019da57620019d9620017b5565b5b8135620019ec8482602086016200192f565b91505092915050565b5f805f6060848603121562001a0f5762001a0e62001634565b5b5f84013567ffffffffffffffff81111562001a2f5762001a2e62001638565b5b62001a3d86828701620018cb565b935050602084013567ffffffffffffffff81111562001a615762001a6062001638565b5b62001a6f86828701620018cb565b925050604084013567ffffffffffffffff81111562001a935762001a9262001638565b5b62001aa186828701620019c3565b9150509250925092565b62001ab681620013c7565b82525050565b5f60208201905062001ad15f83018462001aab565b92915050565b5f805f6060848603121562001af15762001af062001634565b5b5f62001b008682870162001655565b935050602084013567ffffffffffffffff81111562001b245762001b2362001638565b5b62001b3286828701620018cb565b925050604084013567ffffffffffffffff81111562001b565762001b5562001638565b5b62001b6486828701620018cb565b9150509250925092565b5f82825260208201905092915050565b5f62001b8a8262001333565b62001b96818562001b6e565b935062001ba88185602086016200134d565b62001bb38162001377565b840191505092915050565b5f81519050919050565b5f82825260208201905092915050565b5f819050602082019050919050565b5f62001bf4838362001387565b905092915050565b5f602082019050919050565b5f62001c148262001bbe565b62001c20818562001bc8565b93508360208202850162001c348562001bd8565b805f5b8581101562001c75578484038952815162001c53858262001be7565b945062001c608362001bfc565b925060208a0199505060018101905062001c37565b50829750879550505050505092915050565b5f819050919050565b62001c9b8162001c87565b82525050565b5f60c0820190508181035f83015262001cbb818962001b7e565b9050818103602083015262001cd1818862001b7e565b9050818103604083015262001ce7818762001c08565b905062001cf8606083018662001c90565b62001d07608083018562001aab565b62001d1660a083018462001c90565b979650505050505050565b7f546869732066756e6374696f6e206f6e6c792061646d696e2063616e206578655f8201527f6375746521000000000000000000000000000000000000000000000000000000602082015250565b5f62001d7d60258362001b6e565b915062001d8a8262001d21565b604082019050919050565b5f6020820190508181035f83015262001dae8162001d6f565b9050919050565b7f4e487b71000000000000000000000000000000000000000000000000000000005f52603260045260245ffd5b7f4e487b71000000000000000000000000000000000000000000000000000000005f52602260045260245ffd5b5f600282049050600182168062001e2757607f821691505b60208210810362001e3d5762001e3c62001de2565b5b50919050565b7f4e487b71000000000000000000000000000000000000000000000000000000005f52601160045260245ffd5b5f62001e7c8262001c87565b91507fffffffffffffffffffffffffffffffffffffffffffffffffffffffffffffffff820362001eb15762001eb062001e43565b5b600182019050919050565b5f60808201905062001ed15f830187620015ff565b818103602083015262001ee5818662001b7e565b9050818103604083015262001efb818562001b7e565b9050818103606083015262001f11818462001c08565b905095945050505050565b5f6040820190508181035f83015262001f36818562001b7e565b9050818103602083015262001f4c818462001b7e565b90509392505050565b5f62001f6182620013c7565b91507f7fffffffffffffffffffffffffffffffffffffffffffffffffffffffffffffff820362001f965762001f9562001e43565b5b600182019050919050565b5f819050815f5260205f209050919050565b5f6020601f8301049050919050565b5f82821b905092915050565b5f6008830262001fff7fffffffffffffffffffffffffffffffffffffffffffffffffffffffffffffffff8262001fc2565b6200200b868362001fc2565b95508019841693508086168417925050509392505050565b5f819050919050565b5f6200204c62002046620020408462001c87565b62002023565b62001c87565b9050919050565b5f819050919050565b62002067836200202c565b6200207f620020768262002053565b84845462001fce565b825550505050565b5f90565b6200209562002087565b620020a28184846200205c565b505050565b5b81811015620020c957620020bd5f826200208b565b600181019050620020a8565b5050565b601f8211156200211857620020e28162001fa1565b620020ed8462001fb3565b81016020851015620020fd578190505b620021156200210c8562001fb3565b830182620020a7565b50505b505050565b5f82821c905092915050565b5f6200213a5f19846008026200211d565b1980831691505092915050565b5f62002154838362002129565b9150826002028217905092915050565b6200216f8262001333565b67ffffffffffffffff8111156200218b576200218a620017bd565b5b62002197825462001e0f565b620021a4828285620020cd565b5f60209050601f831160018114620021da575f8415620021c5578287015190505b620021d1858262002147565b86555062002240565b601f198416620021ea8662001fa1565b5f5b828110156200221357848901518255600182019150602085019450602081019050620021ec565b868310156200223357848901516200222f601f89168262002129565b8355505b6001600288020188555050505b505050505050565b5f6060820190506200225d5f830186620015ff565b818103602083015262002271818562001b7e565b9050818103604083015262002287818462001b7e565b9050949350505050565b5f620022a7620022a1846200183e565b62001820565b905082815260208101848484011115620022c657620022c5620017b9565b5b620022d38482856200134d565b509392505050565b5f82601f830112620022f257620022f1620017b5565b5b81516200230484826020860162002291565b91505092915050565b5f620023236200231d84620018fd565b62001820565b905080838252602082019050602084028301858111156200234957620023486200192b565b5b835b818110156200239757805167ffffffffffffffff811115620023725762002371620017b5565b5b808601620023818982620022db565b855260208501945050506020810190506200234b565b5050509392505050565b5f82601f830112620023b857620023b7620017b5565b5b8151620023ca8482602086016200230d565b91505092915050565b620023de8162001c87565b8114620023e9575f80fd5b50565b5f81519050620023fc81620023d3565b92915050565b5f81519050620024128162001741565b92915050565b5f805f805f8060c0878903121562002435576200243462001634565b5b5f87015167ffffffffffffffff81111562002455576200245462001638565b5b6200246389828a01620022db565b965050602087015167ffffffffffffffff81111562002487576200248662001638565b5b6200249589828a01620022db565b955050604087015167ffffffffffffffff811115620024b957620024b862001638565b5b620024c789828a01620023a1565b9450506060620024da89828a01620023ec565b9350506080620024ed89828a0162002402565b92505060a06200250089828a01620023ec565b9150509295509295509295565b7f4f6e6c79206372656174652031302075736572732100000000000000000000005f82015250565b5f6200254360158362001b6e565b915062002550826200250d565b602082019050919050565b5f6020820190508181035f830152620025748162002535565b9050919050565b7f416464207061727469636970616e7420737563636573732100000000000000005f82015250565b5f620025b160188362001b6e565b9150620025be826200257b565b602082019050919050565b5f604082019050620025de5f830184620015ff565b8181036020830152620025f181620025a3565b90509291505056fe608060405234801562000010575f80fd5b5060405162002ecc38038062002ecc8339818101604052810190620000369190620005bf565b835f806101000a81548173ffffffffffffffffffffffffffffffffffffffff021916908373ffffffffffffffffffffffffffffffffffffffff1602179055508360015f6101000a81548173ffffffffffffffffffffffffffffffffffffffff021916908373ffffffffffffffffffffffffffffffffffffffff1602179055508260029081620000c69190620008c2565b508160039081620000d89190620008c2565b508060049080519060200190620000f1929190620001fc565b505f6005819055505f6006819055505f60075f6101000a81548160ff02191690836002811115620001275762000126620009a6565b5b021790555060015f9054906101000a900473ffffffffffffffffffffffffffffffffffffffff1673ffffffffffffffffffffffffffffffffffffffff1663f390dd86306040518263ffffffff1660e01b8152600401620001889190620009e4565b5f604051808303815f87803b158015620001a0575f80fd5b505af1158015620001b3573d5f803e3d5ffd5b505050507f9fe7cb314c08d72e270589aeb0470bb4335133b90e7dfd6f84ed11661496dd378383604051620001ea92919062000a9d565b60405180910390a15050505062000aeb565b828054828255905f5260205f2090810192821562000247579160200282015b8281111562000246578251829081620002359190620008c2565b50916020019190600101906200021b565b5b5090506200025691906200025a565b5090565b5b808211156200027d575f818162000273919062000281565b506001016200025b565b5090565b5080546200028f90620006c2565b5f825580601f10620002a25750620002c1565b601f0160209004905f5260205f2090810190620002c09190620002c4565b5b50565b5b80821115620002dd575f815f905550600101620002c5565b5090565b5f604051905090565b5f80fd5b5f80fd5b5f73ffffffffffffffffffffffffffffffffffffffff82169050919050565b5f6200031d82620002f2565b9050919050565b6200032f8162000311565b81146200033a575f80fd5b50565b5f815190506200034d8162000324565b92915050565b5f80fd5b5f80fd5b5f601f19601f8301169050919050565b7f4e487b71000000000000000000000000000000000000000000000000000000005f52604160045260245ffd5b620003a3826200035b565b810181811067ffffffffffffffff82111715620003c557620003c46200036b565b5b80604052505050565b5f620003d9620002e1565b9050620003e7828262000398565b919050565b5f67ffffffffffffffff8211156200040957620004086200036b565b5b62000414826200035b565b9050602081019050919050565b5f5b838110156200044057808201518184015260208101905062000423565b5f8484015250505050565b5f620004616200045b84620003ec565b620003ce565b90508281526020810184848401111562000480576200047f62000357565b5b6200048d84828562000421565b509392505050565b5f82601f830112620004ac57620004ab62000353565b5b8151620004be8482602086016200044b565b91505092915050565b5f67ffffffffffffffff821115620004e457620004e36200036b565b5b602082029050602081019050919050565b5f80fd5b5f6200050f6200050984620004c7565b620003ce565b90508083825260208201905060208402830185811115620005355762000534620004f5565b5b835b818110156200058357805167ffffffffffffffff8111156200055e576200055d62000353565b5b8086016200056d898262000495565b8552602085019450505060208101905062000537565b5050509392505050565b5f82601f830112620005a457620005a362000353565b5b8151620005b6848260208601620004f9565b91505092915050565b5f805f8060808587031215620005da57620005d9620002ea565b5b5f620005e9878288016200033d565b945050602085015167ffffffffffffffff8111156200060d576200060c620002ee565b5b6200061b8782880162000495565b935050604085015167ffffffffffffffff8111156200063f576200063e620002ee565b5b6200064d8782880162000495565b925050606085015167ffffffffffffffff811115620006715762000670620002ee565b5b6200067f878288016200058d565b91505092959194509250565b5f81519050919050565b7f4e487b71000000000000000000000000000000000000000000000000000000005f52602260045260245ffd5b5f6002820490506001821680620006da57607f821691505b602082108103620006f057620006ef62000695565b5b50919050565b5f819050815f5260205f209050919050565b5f6020601f8301049050919050565b5f82821b905092915050565b5f60088302620007547fffffffffffffffffffffffffffffffffffffffffffffffffffffffffffffffff8262000717565b62000760868362000717565b95508019841693508086168417925050509392505050565b5f819050919050565b5f819050919050565b5f620007aa620007a46200079e8462000778565b62000781565b62000778565b9050919050565b5f819050919050565b620007c5836200078a565b620007dd620007d482620007b1565b84845462000723565b825550505050565b5f90565b620007f3620007e5565b62000800818484620007ba565b505050565b5b8181101562000827576200081b5f82620007e9565b60018101905062000806565b5050565b601f82111562000876576200084081620006f6565b6200084b8462000708565b810160208510156200085b578190505b620008736200086a8562000708565b83018262000805565b50505b505050565b5f82821c905092915050565b5f620008985f19846008026200087b565b1980831691505092915050565b5f620008b2838362000887565b9150826002028217905092915050565b620008cd826200068b565b67ffffffffffffffff811115620008e957620008e86200036b565b5b620008f58254620006c2565b620009028282856200082b565b5f60209050601f83116001811462000938575f841562000923578287015190505b6200092f8582620008a5565b8655506200099e565b601f1984166200094886620006f6565b5f5b8281101562000971578489015182556001820191506020850194506020810190506200094a565b868310156200099157848901516200098d601f89168262000887565b8355505b6001600288020188555050505b505050505050565b7f4e487b71000000000000000000000000000000000000000000000000000000005f52602160045260245ffd5b620009de8162000311565b82525050565b5f602082019050620009f95f830184620009d3565b92915050565b5f82825260208201905092915050565b5f62000a1b826200068b565b62000a278185620009ff565b935062000a3981856020860162000421565b62000a44816200035b565b840191505092915050565b7f4372656174652073657373696f6e2073756363657373210000000000000000005f82015250565b5f62000a85601783620009ff565b915062000a928262000a4f565b602082019050919050565b5f6060820190508181035f83015262000ab7818562000a0f565b9050818103602083015262000acd818462000a0f565b9050818103604083015262000ae28162000a77565b90509392505050565b6123d38062000af95f395ff3fe608060405234801561000f575f80fd5b5060043610610091575f3560e01c8063629db96911610064578063629db969146100e1578063d270e7ab146100fd578063e03a29251461011b578063f8cb00bf1461014b578063fe0ae1651461016e57610091565b806306f4bcbf146100955780630e9735011461009f57806321ab391e146100bb5780635a53ac8a146100c5575b5f80fd5b61009d610178565b005b6100b960048036038101906100b4919061161e565b6102d4565b005b6100c3610444565b005b6100df60048036038101906100da919061171c565b61071e565b005b6100fb60048036038101906100f6919061177a565b610a5d565b005b610105610d76565b60405161011291906117c7565b60405180910390f35b6101356004803603810190610130919061171c565b610d99565b60405161014291906117ef565b60405180910390f35b610153610f51565b6040516101659695949392919061199d565b60405180910390f35b61017661117c565b005b60015f9054906101000a900473ffffffffffffffffffffffffffffffffffffffff1673ffffffffffffffffffffffffffffffffffffffff16636e9960c36040518163ffffffff1660e01b8152600401602060405180830381865afa1580156101e2573d5f803e3d5ffd5b505050506040513d601f19601f820116820180604052508101906102069190611a25565b73ffffffffffffffffffffffffffffffffffffffff163373ffffffffffffffffffffffffffffffffffffffff1614610273576040517f08c379a000000000000000000000000000000000000000000000000000000000815260040161026a90611ac0565b60405180910390fd5b600260075f6101000a81548160ff0219169083600281111561029857610297611ade565b5b02179055507f66fc0679144ec0d595a06ffa5dea0ca044e705338cf1fe9ae00a32083da9b8146040516102ca90611b55565b60405180910390a1565b60015f9054906101000a900473ffffffffffffffffffffffffffffffffffffffff1673ffffffffffffffffffffffffffffffffffffffff16636e9960c36040518163ffffffff1660e01b8152600401602060405180830381865afa15801561033e573d5f803e3d5ffd5b505050506040513d601f19601f820116820180604052508101906103629190611a25565b73ffffffffffffffffffffffffffffffffffffffff163373ffffffffffffffffffffffffffffffffffffffff16146103cf576040517f08c379a00000000000000000000000000000000000000000000000000000000081526004016103c690611ac0565b60405180910390fd5b82600290816103de9190611d6d565b5081600390816103ee9190611d6d565b50806004908051906020019061040592919061131d565b507f2a5d6d5b2dec1b940dec7f561cf0b8cd2965d265ed7c371349e1d15979b075ab8383604051610437929190611e86565b60405180910390a1505050565b60015f9054906101000a900473ffffffffffffffffffffffffffffffffffffffff1673ffffffffffffffffffffffffffffffffffffffff16636e9960c36040518163ffffffff1660e01b8152600401602060405180830381865afa1580156104ae573d5f803e3d5ffd5b505050506040513d601f19601f820116820180604052508101906104d29190611a25565b73ffffffffffffffffffffffffffffffffffffffff163373ffffffffffffffffffffffffffffffffffffffff161461053f576040517f08c379a000000000000000000000000000000000000000000000000000000000815260040161053690611ac0565b60405180910390fd5b5f805f805b6009805490508110156106e7575f60015f9054906101000a900473ffffffffffffffffffffffffffffffffffffffff1673ffffffffffffffffffffffffffffffffffffffff1663a33a08b9600984815481106105a3576105a2611ece565b5b905f5260205f20015f9054906101000a900473ffffffffffffffffffffffffffffffffffffffff166040518263ffffffff1660e01b81526004016105e791906117c7565b602060405180830381865afa158015610602573d5f803e3d5ffd5b505050506040513d601f19601f820116820180604052508101906106269190611f0f565b90508060646106359190611f67565b60085f6009858154811061064c5761064b611ece565b5b905f5260205f20015f9054906101000a900473ffffffffffffffffffffffffffffffffffffffff1673ffffffffffffffffffffffffffffffffffffffff1673ffffffffffffffffffffffffffffffffffffffff1681526020019081526020015f20546106b89190611fa7565b846106c3919061201d565b935080836106d1919061201d565b92505080806106df9061205e565b915050610544565b508060098054905060646106fb9190611fa7565b6107059190611f67565b8261071091906120d2565b925082600581905550505050565b60015f9054906101000a900473ffffffffffffffffffffffffffffffffffffffff1673ffffffffffffffffffffffffffffffffffffffff16636e9960c36040518163ffffffff1660e01b8152600401602060405180830381865afa158015610788573d5f803e3d5ffd5b505050506040513d601f19601f820116820180604052508101906107ac9190611a25565b73ffffffffffffffffffffffffffffffffffffffff163373ffffffffffffffffffffffffffffffffffffffff1614610819576040517f08c379a000000000000000000000000000000000000000000000000000000000815260040161081090611ac0565b60405180910390fd5b5f6006541361085d576040517f08c379a000000000000000000000000000000000000000000000000000000000815260040161085490612184565b60405180910390fd5b5f60015f9054906101000a900473ffffffffffffffffffffffffffffffffffffffff1673ffffffffffffffffffffffffffffffffffffffff1663a33a08b9836040518263ffffffff1660e01b81526004016108b891906117c7565b602060405180830381865afa1580156108d3573d5f803e3d5ffd5b505050506040513d601f19601f820116820180604052508101906108f79190611f0f565b90505f61090383610d99565b60015f9054906101000a900473ffffffffffffffffffffffffffffffffffffffff1673ffffffffffffffffffffffffffffffffffffffff1663be330868856040518263ffffffff1660e01b815260040161095d91906117c7565b602060405180830381865afa158015610978573d5f803e3d5ffd5b505050506040513d601f19601f8201168201806040525081019061099c9190611f0f565b836109a79190611fa7565b6109b1919061201d565b90505f6001836109c1919061201d565b826109cc91906120d2565b905060015f9054906101000a900473ffffffffffffffffffffffffffffffffffffffff1673ffffffffffffffffffffffffffffffffffffffff16638c99069885836040518363ffffffff1660e01b8152600401610a2a9291906121a2565b5f604051808303815f87803b158015610a41575f80fd5b505af1158015610a53573d5f803e3d5ffd5b5050505050505050565b60015f9054906101000a900473ffffffffffffffffffffffffffffffffffffffff1673ffffffffffffffffffffffffffffffffffffffff16636e9960c36040518163ffffffff1660e01b8152600401602060405180830381865afa158015610ac7573d5f803e3d5ffd5b505050506040513d601f19601f82011682018060405250810190610aeb9190611a25565b73ffffffffffffffffffffffffffffffffffffffff163373ffffffffffffffffffffffffffffffffffffffff1603610b58576040517f08c379a0000000000000000000000000000000000000000000000000000000008152600401610b4f90612239565b60405180910390fd5b60016002811115610b6c57610b6b611ade565b5b60075f9054906101000a900460ff166002811115610b8d57610b8c611ade565b5b14610bcd576040517f08c379a0000000000000000000000000000000000000000000000000000000008152600401610bc4906122a1565b60405180910390fd5b8060085f8473ffffffffffffffffffffffffffffffffffffffff1673ffffffffffffffffffffffffffffffffffffffff1681526020019081526020015f20819055505f60085f8473ffffffffffffffffffffffffffffffffffffffff1673ffffffffffffffffffffffffffffffffffffffff1681526020019081526020015f205403610d3b57600982908060018154018082558091505060019003905f5260205f20015f9091909190916101000a81548173ffffffffffffffffffffffffffffffffffffffff021916908373ffffffffffffffffffffffffffffffffffffffff16021790555060015f9054906101000a900473ffffffffffffffffffffffffffffffffffffffff1673ffffffffffffffffffffffffffffffffffffffff1663a6829934836040518263ffffffff1660e01b8152600401610d0d91906117c7565b5f604051808303815f87803b158015610d24575f80fd5b505af1158015610d36573d5f803e3d5ffd5b505050505b7f47650289511cf2cfb9b8b559f6e750022263d3a2db072b47698d32df3ac0b80582604051610d6a9190612309565b60405180910390a15050565b5f8054906101000a900473ffffffffffffffffffffffffffffffffffffffff1681565b5f60015f9054906101000a900473ffffffffffffffffffffffffffffffffffffffff1673ffffffffffffffffffffffffffffffffffffffff16636e9960c36040518163ffffffff1660e01b8152600401602060405180830381865afa158015610e04573d5f803e3d5ffd5b505050506040513d601f19601f82011682018060405250810190610e289190611a25565b73ffffffffffffffffffffffffffffffffffffffff163373ffffffffffffffffffffffffffffffffffffffff1614610e95576040517f08c379a0000000000000000000000000000000000000000000000000000000008152600401610e8c90611ac0565b60405180910390fd5b5f60065413610ed9576040517f08c379a0000000000000000000000000000000000000000000000000000000008152600401610ed090612184565b60405180910390fd5b5f610f2d60085f8573ffffffffffffffffffffffffffffffffffffffff1673ffffffffffffffffffffffffffffffffffffffff1681526020019081526020015f2054600654610f289190611f67565b6112d8565b9050606460065482610f3f91906120d2565b610f499190611fa7565b915050919050565b60608060605f805f60026003600460055460065460075f9054906101000a900460ff166002811115610f8657610f85611ade565b5b858054610f9290611ba0565b80601f0160208091040260200160405190810160405280929190818152602001828054610fbe90611ba0565b80156110095780601f10610fe057610100808354040283529160200191611009565b820191905f5260205f20905b815481529060010190602001808311610fec57829003601f168201915b5050505050955084805461101c90611ba0565b80601f016020809104026020016040519081016040528092919081815260200182805461104890611ba0565b80156110935780601f1061106a57610100808354040283529160200191611093565b820191905f5260205f20905b81548152906001019060200180831161107657829003601f168201915b5050505050945083805480602002602001604051908101604052809291908181526020015f905b82821015611162578382905f5260205f200180546110d790611ba0565b80601f016020809104026020016040519081016040528092919081815260200182805461110390611ba0565b801561114e5780601f106111255761010080835404028352916020019161114e565b820191905f5260205f20905b81548152906001019060200180831161113157829003601f168201915b5050505050815260200190600101906110ba565b505050509350955095509550955095509550909192939495565b60015f9054906101000a900473ffffffffffffffffffffffffffffffffffffffff1673ffffffffffffffffffffffffffffffffffffffff16636e9960c36040518163ffffffff1660e01b8152600401602060405180830381865afa1580156111e6573d5f803e3d5ffd5b505050506040513d601f19601f8201168201806040525081019061120a9190611a25565b73ffffffffffffffffffffffffffffffffffffffff163373ffffffffffffffffffffffffffffffffffffffff1614611277576040517f08c379a000000000000000000000000000000000000000000000000000000000815260040161126e90611ac0565b60405180910390fd5b600160075f6101000a81548160ff0219169083600281111561129c5761129b611ade565b5b02179055507f2e68e6b497b364e88ad96081ce7fccdb657836812191c7527cf99074df4fde0b6040516112ce9061237f565b60405180910390a1565b5f80821215611314577fffffffffffffffffffffffffffffffffffffffffffffffffffffffffffffffff8261130d9190611fa7565b9050611318565b8190505b919050565b828054828255905f5260205f20908101928215611363579160200282015b828111156113625782518290816113529190611d6d565b509160200191906001019061133b565b5b5090506113709190611374565b5090565b5b80821115611393575f818161138a9190611397565b50600101611375565b5090565b5080546113a390611ba0565b5f825580601f106113b457506113d1565b601f0160209004905f5260205f20908101906113d091906113d4565b5b50565b5b808211156113eb575f815f9055506001016113d5565b5090565b5f604051905090565b5f80fd5b5f80fd5b5f80fd5b5f80fd5b5f601f19601f8301169050919050565b7f4e487b71000000000000000000000000000000000000000000000000000000005f52604160045260245ffd5b61144e82611408565b810181811067ffffffffffffffff8211171561146d5761146c611418565b5b80604052505050565b5f61147f6113ef565b905061148b8282611445565b919050565b5f67ffffffffffffffff8211156114aa576114a9611418565b5b6114b382611408565b9050602081019050919050565b828183375f83830152505050565b5f6114e06114db84611490565b611476565b9050828152602081018484840111156114fc576114fb611404565b5b6115078482856114c0565b509392505050565b5f82601f83011261152357611522611400565b5b81356115338482602086016114ce565b91505092915050565b5f67ffffffffffffffff82111561155657611555611418565b5b602082029050602081019050919050565b5f80fd5b5f61157d6115788461153c565b611476565b905080838252602082019050602084028301858111156115a05761159f611567565b5b835b818110156115e757803567ffffffffffffffff8111156115c5576115c4611400565b5b8086016115d2898261150f565b855260208501945050506020810190506115a2565b5050509392505050565b5f82601f83011261160557611604611400565b5b813561161584826020860161156b565b91505092915050565b5f805f60608486031215611635576116346113f8565b5b5f84013567ffffffffffffffff811115611652576116516113fc565b5b61165e8682870161150f565b935050602084013567ffffffffffffffff81111561167f5761167e6113fc565b5b61168b8682870161150f565b925050604084013567ffffffffffffffff8111156116ac576116ab6113fc565b5b6116b8868287016115f1565b9150509250925092565b5f73ffffffffffffffffffffffffffffffffffffffff82169050919050565b5f6116eb826116c2565b9050919050565b6116fb816116e1565b8114611705575f80fd5b50565b5f81359050611716816116f2565b92915050565b5f60208284031215611731576117306113f8565b5b5f61173e84828501611708565b91505092915050565b5f819050919050565b61175981611747565b8114611763575f80fd5b50565b5f8135905061177481611750565b92915050565b5f80604083850312156117905761178f6113f8565b5b5f61179d85828601611708565b92505060206117ae85828601611766565b9150509250929050565b6117c1816116e1565b82525050565b5f6020820190506117da5f8301846117b8565b92915050565b6117e981611747565b82525050565b5f6020820190506118025f8301846117e0565b92915050565b5f81519050919050565b5f82825260208201905092915050565b5f5b8381101561183f578082015181840152602081019050611824565b5f8484015250505050565b5f61185482611808565b61185e8185611812565b935061186e818560208601611822565b61187781611408565b840191505092915050565b5f81519050919050565b5f82825260208201905092915050565b5f819050602082019050919050565b5f82825260208201905092915050565b5f6118c582611808565b6118cf81856118ab565b93506118df818560208601611822565b6118e881611408565b840191505092915050565b5f6118fe83836118bb565b905092915050565b5f602082019050919050565b5f61191c82611882565b611926818561188c565b9350836020820285016119388561189c565b805f5b85811015611973578484038952815161195485826118f3565b945061195f83611906565b925060208a0199505060018101905061193b565b50829750879550505050505092915050565b5f819050919050565b61199781611985565b82525050565b5f60c0820190508181035f8301526119b5818961184a565b905081810360208301526119c9818861184a565b905081810360408301526119dd8187611912565b90506119ec606083018661198e565b6119f960808301856117e0565b611a0660a083018461198e565b979650505050505050565b5f81519050611a1f816116f2565b92915050565b5f60208284031215611a3a57611a396113f8565b5b5f611a4784828501611a11565b91505092915050565b7f546869732066756e6374696f6e206f6e6c792061646d696e2063616e206578655f8201527f6375746521000000000000000000000000000000000000000000000000000000602082015250565b5f611aaa602583611812565b9150611ab582611a50565b604082019050919050565b5f6020820190508181035f830152611ad781611a9e565b9050919050565b7f4e487b71000000000000000000000000000000000000000000000000000000005f52602160045260245ffd5b7f436c6f73652073657373696f6e207375636365737321000000000000000000005f82015250565b5f611b3f601683611812565b9150611b4a82611b0b565b602082019050919050565b5f6020820190508181035f830152611b6c81611b33565b9050919050565b7f4e487b71000000000000000000000000000000000000000000000000000000005f52602260045260245ffd5b5f6002820490506001821680611bb757607f821691505b602082108103611bca57611bc9611b73565b5b50919050565b5f819050815f5260205f209050919050565b5f6020601f8301049050919050565b5f82821b905092915050565b5f60088302611c2c7fffffffffffffffffffffffffffffffffffffffffffffffffffffffffffffffff82611bf1565b611c368683611bf1565b95508019841693508086168417925050509392505050565b5f819050919050565b5f611c71611c6c611c6784611985565b611c4e565b611985565b9050919050565b5f819050919050565b611c8a83611c57565b611c9e611c9682611c78565b848454611bfd565b825550505050565b5f90565b611cb2611ca6565b611cbd818484611c81565b505050565b5b81811015611ce057611cd55f82611caa565b600181019050611cc3565b5050565b601f821115611d2557611cf681611bd0565b611cff84611be2565b81016020851015611d0e578190505b611d22611d1a85611be2565b830182611cc2565b50505b505050565b5f82821c905092915050565b5f611d455f1984600802611d2a565b1980831691505092915050565b5f611d5d8383611d36565b9150826002028217905092915050565b611d7682611808565b67ffffffffffffffff811115611d8f57611d8e611418565b5b611d998254611ba0565b611da4828285611ce4565b5f60209050601f831160018114611dd5575f8415611dc3578287015190505b611dcd8582611d52565b865550611e34565b601f198416611de386611bd0565b5f5b82811015611e0a57848901518255600182019150602085019450602081019050611de5565b86831015611e275784890151611e23601f891682611d36565b8355505b6001600288020188555050505b505050505050565b7f5570646174652073657373696f6e2073756363657373210000000000000000005f82015250565b5f611e70601783611812565b9150611e7b82611e3c565b602082019050919050565b5f6060820190508181035f830152611e9e818561184a565b90508181036020830152611eb2818461184a565b90508181036040830152611ec581611e64565b90509392505050565b7f4e487b71000000000000000000000000000000000000000000000000000000005f52603260045260245ffd5b5f81519050611f0981611750565b92915050565b5f60208284031215611f2457611f236113f8565b5b5f611f3184828501611efb565b91505092915050565b7f4e487b71000000000000000000000000000000000000000000000000000000005f52601160045260245ffd5b5f611f7182611747565b9150611f7c83611747565b925082820390508181125f8412168282135f851215161715611fa157611fa0611f3a565b5b92915050565b5f611fb182611747565b9150611fbc83611747565b9250828202611fca81611747565b91507f800000000000000000000000000000000000000000000000000000000000000084145f8412161561200157612000611f3a565b5b828205841483151761201657612015611f3a565b5b5092915050565b5f61202782611747565b915061203283611747565b92508282019050828112155f8312168382125f84121516171561205857612057611f3a565b5b92915050565b5f61206882611985565b91507fffffffffffffffffffffffffffffffffffffffffffffffffffffffffffffffff820361209a57612099611f3a565b5b600182019050919050565b7f4e487b71000000000000000000000000000000000000000000000000000000005f52601260045260245ffd5b5f6120dc82611747565b91506120e783611747565b9250826120f7576120f66120a5565b5b60015f0383147f80000000000000000000000000000000000000000000000000000000000000008314161561212f5761212e611f3a565b5b828205905092915050565b7f46696e616c207072696365206d757374207365742076616c75652100000000005f82015250565b5f61216e601b83611812565b91506121798261213a565b602082019050919050565b5f6020820190508181035f83015261219b81612162565b9050919050565b5f6040820190506121b55f8301856117b8565b6121c260208301846117e0565b9392505050565b7f546869732066756e6374696f6e206f6e6c79207061727469636970616e7420635f8201527f616e206578656375746521000000000000000000000000000000000000000000602082015250565b5f612223602b83611812565b915061222e826121c9565b604082019050919050565b5f6020820190508181035f83015261225081612217565b9050919050565b7f53657373696f6e206973206e6f7420696e2070726f67726573730000000000005f82015250565b5f61228b601a83611812565b915061229682612257565b602082019050919050565b5f6020820190508181035f8301526122b88161227f565b9050919050565b7f50726963696e67207375636365737321000000000000000000000000000000005f82015250565b5f6122f3601083611812565b91506122fe826122bf565b602082019050919050565b5f60408201905061231c5f8301846117b8565b818103602083015261232d816122e7565b905092915050565b7f53746172742073657373696f6e207375636365737321000000000000000000005f82015250565b5f612369601683611812565b915061237482612335565b602082019050919050565b5f6020820190508181035f8301526123968161235d565b905091905056fea26469706673582212203d222eabe4151849cdfa98915022193bde23606bd1d53e9fc347211db6a6daaa64736f6c63430008140033a2646970667358221220e6ae084f7aa3a05bc8eb7cde93ed595c7f5080f15ba13abd9cd3a5fb8c973dd864736f6c63430008140033",
  "immutableReferences": {},
  "source": "// SPDX-License-Identifier: MIT\r\npragma solidity ^0.8.20;\r\nimport \"./Session.sol\";\r\n\r\ncontract Main is IMain {\r\n    // Structure to hold details of Bidder\r\n    struct IParticipant {\r\n        // TODO\r\n        address account;\r\n        string fullName;\r\n        string email;\r\n        int numberOfSession;\r\n        int deviation;\r\n    }\r\n\r\n    address public admin;\r\n\r\n    // TODO: Variables\r\n    uint private maxOfUser;\r\n    mapping(address => IParticipant) private mapParticipants;\r\n    address[] private participants;\r\n    address[] private sessions;\r\n\r\n    constructor(uint _maxOfUser) {\r\n        admin = msg.sender;\r\n        maxOfUser = _maxOfUser;\r\n    }\r\n\r\n    // Add a Session Contract address into Main Contract. Use to link Session with Main\r\n    function addSession(address session) public {\r\n        // TODO\r\n        Session newSession = Session(session);\r\n        sessions.push(address(newSession));\r\n    }\r\n\r\n    // TODO: Functions\r\n    // Get admin.\r\n    function getAdmin() public view returns (address) {\r\n        return admin;\r\n    }\r\n\r\n    // Add participant.\r\n    function addParticipant(address _account) public onlyAdmin onlyInNumberOfRangeParticipant {\r\n        mapParticipants[_account] = IParticipant(_account, \"\", \"\", 0, 0);\r\n        participants.push(_account);\r\n        emit AddParticipant(_account, \"Add participant success!\");\r\n    }\r\n\r\n    // Update participant.\r\n    function updateParticipant(address _account, string memory _fullName, string memory _email) public {\r\n        mapParticipants[_account].fullName = _fullName;\r\n        mapParticipants[_account].email = _email;\r\n        emit UpdateParticipant(_account, _fullName, _email);\r\n    }\r\n\r\n    // Get participant by address.\r\n    function getParticipant(address _account) public view returns (IParticipant memory) {\r\n        return mapParticipants[_account];\r\n    }\r\n\r\n    // Get all participants.\r\n    function getAllParticipants() public onlyAdmin view returns (IParticipant[] memory) {\r\n        IParticipant[] memory _participants = new IParticipant[](participants.length);\r\n\r\n        for (uint i = 0; i < participants.length; i++) {\r\n            _participants[i] = mapParticipants[participants[i]];\r\n        }\r\n\r\n        return _participants;\r\n    }\r\n\r\n    // Create new Session.\r\n    function createSession(string memory _productName, string memory _description, string[] memory _images) public onlyAdmin(){\r\n        new Session(address(this), _productName, _description, _images);\r\n        emit CreateSession(_productName, _description);\r\n    }\r\n\r\n    // Get deviation by participant.\r\n    function getDeviation(address _account) external view returns (int) {\r\n        return mapParticipants[_account].deviation;\r\n    }\r\n\r\n    // Set deviation.\r\n    function setDeviation(address _account, int _deviation) public onlyAdmin {\r\n        mapParticipants[_account].deviation = _deviation;\r\n    }\r\n\r\n    // Set numnber of session.\r\n    function incrementNumberOfSession(address _account) public onlyAdmin {\r\n        mapParticipants[_account].numberOfSession++;\r\n    }\r\n\r\n    // Get number of session.\r\n    function getNumberOfSession(address _account) public view onlyAdmin returns(int) {\r\n        return mapParticipants[_account].numberOfSession;\r\n    }\r\n\r\n    // Get all Session address.\r\n    function getAllSessionAddresses() public view returns (address[] memory) {\r\n        return sessions;\r\n    }\r\n\r\n    function getAllSessions() public view returns (address[] memory) {\r\n        return sessions;\r\n    }\r\n\r\n\r\n    // Get session detail.\r\n    function getSessionDetail(address _session) public view returns (string memory, string memory, string[] memory, uint, int, uint) {\r\n        Session session = Session(_session);\r\n\r\n        return session.getSessionDetail();\r\n    }\r\n\r\n    // Modify only admin.\r\n    modifier onlyAdmin() {\r\n        require(msg.sender == admin, \"This function only admin can execute!\");\r\n        _;\r\n    }\r\n\r\n    // Modify number of participant in ragne.\r\n    modifier onlyInNumberOfRangeParticipant() {\r\n        require(participants.length < maxOfUser, \"Only create 10 users!\");\r\n        _;\r\n    }\r\n\r\n    // Event update participant.\r\n    event UpdateParticipant(address _account, string _fullName, string _email);\r\n\r\n    // Event add participant.\r\n    event AddParticipant(address _account, string msg);\r\n\r\n    // Event create session.\r\n    event CreateSession(string _productName, string _description);\r\n}\r\n",
  "sourcePath": "C:\\Users\\dtvthe\\study\\blockchain\\fx15127-final-project\\truffle\\contracts\\Main.sol",
  "compiler": {
    "name": "solc",
    "version": "0.8.20+commit.a1b79de6.Emscripten.clang"
  },
  "schemaVersion": "3.4.13",
  "updatedAt": "2023-06-17T23:07:10.965Z",
  "devdoc": {
    "kind": "dev",
    "methods": {},
    "version": 1
  },
  "userdoc": {
    "kind": "user",
    "methods": {},
    "version": 1
  }
}