{
  "contractName": "Main",
  "abi": [
    {
      "constant": true,
      "inputs": [],
      "name": "admin",
      "outputs": [
        {
          "name": "",
          "type": "address"
        }
      ],
      "payable": false,
      "stateMutability": "view",
      "type": "function"
    },
    {
      "inputs": [
        {
          "name": "_maxOfParticipant",
          "type": "uint256"
        }
      ],
      "payable": false,
      "stateMutability": "nonpayable",
      "type": "constructor"
    },
    {
      "anonymous": false,
      "inputs": [
        {
          "indexed": false,
          "name": "_account",
          "type": "address"
        },
        {
          "indexed": false,
          "name": "_fullName",
          "type": "string"
        },
        {
          "indexed": false,
          "name": "_email",
          "type": "string"
        }
      ],
      "name": "UpdateParticipant",
      "type": "event"
    },
    {
      "anonymous": false,
      "inputs": [
        {
          "indexed": false,
          "name": "_account",
          "type": "address"
        },
        {
          "indexed": false,
          "name": "msg",
          "type": "string"
        }
      ],
      "name": "AddParticipant",
      "type": "event"
    },
    {
      "anonymous": false,
      "inputs": [
        {
          "indexed": false,
          "name": "_productName",
          "type": "string"
        },
        {
          "indexed": false,
          "name": "_description",
          "type": "string"
        }
      ],
      "name": "CreateSession",
      "type": "event"
    },
    {
      "constant": false,
      "inputs": [
        {
          "name": "session",
          "type": "address"
        }
      ],
      "name": "addSession",
      "outputs": [],
      "payable": false,
      "stateMutability": "nonpayable",
      "type": "function"
    },
    {
      "constant": false,
      "inputs": [
        {
          "name": "_fullName",
          "type": "string"
        },
        {
          "name": "_email",
          "type": "string"
        }
      ],
      "name": "updateAdminProfile",
      "outputs": [],
      "payable": false,
      "stateMutability": "nonpayable",
      "type": "function"
    },
    {
      "constant": true,
      "inputs": [],
      "name": "getAdminProfile",
      "outputs": [
        {
          "components": [
            {
              "name": "account",
              "type": "address"
            },
            {
              "name": "fullName",
              "type": "string"
            },
            {
              "name": "email",
              "type": "string"
            }
          ],
          "name": "",
          "type": "tuple"
        }
      ],
      "payable": false,
      "stateMutability": "view",
      "type": "function"
    },
    {
      "constant": false,
      "inputs": [
        {
          "name": "_account",
          "type": "address"
        }
      ],
      "name": "addParticipant",
      "outputs": [],
      "payable": false,
      "stateMutability": "nonpayable",
      "type": "function"
    },
    {
      "constant": false,
      "inputs": [
        {
          "name": "_account",
          "type": "address"
        },
        {
          "name": "_fullName",
          "type": "string"
        },
        {
          "name": "_email",
          "type": "string"
        }
      ],
      "name": "register",
      "outputs": [],
      "payable": false,
      "stateMutability": "nonpayable",
      "type": "function"
    },
    {
      "constant": true,
      "inputs": [
        {
          "name": "_account",
          "type": "address"
        }
      ],
      "name": "participants",
      "outputs": [
        {
          "components": [
            {
              "name": "account",
              "type": "address"
            },
            {
              "name": "fullName",
              "type": "string"
            },
            {
              "name": "email",
              "type": "string"
            },
            {
              "name": "numberOfSession",
              "type": "int256"
            },
            {
              "name": "deviation",
              "type": "int256"
            }
          ],
          "name": "",
          "type": "tuple"
        }
      ],
      "payable": false,
      "stateMutability": "view",
      "type": "function"
    },
    {
      "constant": true,
      "inputs": [],
      "name": "getAllParticipants",
      "outputs": [
        {
          "components": [
            {
              "name": "account",
              "type": "address"
            },
            {
              "name": "fullName",
              "type": "string"
            },
            {
              "name": "email",
              "type": "string"
            },
            {
              "name": "numberOfSession",
              "type": "int256"
            },
            {
              "name": "deviation",
              "type": "int256"
            }
          ],
          "name": "",
          "type": "tuple[]"
        }
      ],
      "payable": false,
      "stateMutability": "view",
      "type": "function"
    },
    {
      "constant": true,
      "inputs": [],
      "name": "nParticipants",
      "outputs": [
        {
          "name": "",
          "type": "uint256"
        }
      ],
      "payable": false,
      "stateMutability": "view",
      "type": "function"
    },
    {
      "constant": true,
      "inputs": [
        {
          "name": "_index",
          "type": "uint256"
        }
      ],
      "name": "iParticipants",
      "outputs": [
        {
          "components": [
            {
              "name": "account",
              "type": "address"
            },
            {
              "name": "fullName",
              "type": "string"
            },
            {
              "name": "email",
              "type": "string"
            },
            {
              "name": "numberOfSession",
              "type": "int256"
            },
            {
              "name": "deviation",
              "type": "int256"
            }
          ],
          "name": "",
          "type": "tuple"
        }
      ],
      "payable": false,
      "stateMutability": "view",
      "type": "function"
    },
    {
      "constant": true,
      "inputs": [
        {
          "name": "_account",
          "type": "address"
        }
      ],
      "name": "getDeviation",
      "outputs": [
        {
          "name": "",
          "type": "int256"
        }
      ],
      "payable": false,
      "stateMutability": "view",
      "type": "function"
    },
    {
      "constant": false,
      "inputs": [
        {
          "name": "_session",
          "type": "address"
        },
        {
          "name": "_account",
          "type": "address"
        },
        {
          "name": "_deviation",
          "type": "int256"
        }
      ],
      "name": "setDeviation",
      "outputs": [],
      "payable": false,
      "stateMutability": "nonpayable",
      "type": "function"
    },
    {
      "constant": false,
      "inputs": [
        {
          "name": "_account",
          "type": "address"
        }
      ],
      "name": "incrementNumberOfSession",
      "outputs": [],
      "payable": false,
      "stateMutability": "nonpayable",
      "type": "function"
    },
    {
      "constant": true,
      "inputs": [
        {
          "name": "_account",
          "type": "address"
        }
      ],
      "name": "getNumberOfSession",
      "outputs": [
        {
          "name": "",
          "type": "int256"
        }
      ],
      "payable": false,
      "stateMutability": "view",
      "type": "function"
    },
    {
      "constant": false,
      "inputs": [
        {
          "name": "_productName",
          "type": "string"
        },
        {
          "name": "_description",
          "type": "string"
        },
        {
          "name": "_images",
          "type": "string[]"
        }
      ],
      "name": "createSession",
      "outputs": [],
      "payable": false,
      "stateMutability": "nonpayable",
      "type": "function"
    },
    {
      "constant": true,
      "inputs": [],
      "name": "getAllSessionAddresses",
      "outputs": [
        {
          "name": "",
          "type": "address[]"
        }
      ],
      "payable": false,
      "stateMutability": "view",
      "type": "function"
    },
    {
      "constant": true,
      "inputs": [],
      "name": "nSessions",
      "outputs": [
        {
          "name": "",
          "type": "uint256"
        }
      ],
      "payable": false,
      "stateMutability": "view",
      "type": "function"
    },
    {
      "constant": true,
      "inputs": [
        {
          "name": "_session",
          "type": "address"
        }
      ],
      "name": "getSessionDetail",
      "outputs": [
        {
          "name": "",
          "type": "string"
        },
        {
          "name": "",
          "type": "string"
        },
        {
          "name": "",
          "type": "string[]"
        },
        {
          "name": "",
          "type": "uint256"
        },
        {
          "name": "",
          "type": "int256"
        },
        {
          "name": "",
          "type": "uint256"
        }
      ],
      "payable": false,
      "stateMutability": "view",
      "type": "function"
    }
  ],
  "bytecode": "0x60806040523480156200001157600080fd5b50604051602080620058f98339810180604052620000339190810190620000db565b336000806101000a81548173ffffffffffffffffffffffffffffffffffffffff021916908373ffffffffffffffffffffffffffffffffffffffff1602179055508060018190555033600560000160006101000a81548173ffffffffffffffffffffffffffffffffffffffff021916908373ffffffffffffffffffffffffffffffffffffffff1602179055505062000111565b6000620000d3825162000107565b905092915050565b600060208284031215620000ee57600080fd5b6000620000fe84828501620000c5565b91505092915050565b6000819050919050565b6157d880620001216000396000f3006080604052600436106200010f576000357c0100000000000000000000000000000000000000000000000000000000900463ffffffff16806309e69ede1462000114578063195ec9ee1462000158578063454eed7d14620001885780638d59cc0214620001b85780639363121814620001e6578063a18e34041462000214578063a33a08b91462000244578063a3b9c9e51462000288578063a682993414620002cc578063b63bc3b414620002fa578063be330868146200032a578063c8d72c7d146200036e578063d1bce2c7146200039c578063d947ceb614620003e5578063dfafe10f1462000415578063f24685941462000443578063f390dd861462000471578063f851a440146200049f575b600080fd5b3480156200012157600080fd5b506200014060048036036200013a919081019062001e71565b620004cf565b6040516200014f91906200296e565b60405180910390f35b3480156200016557600080fd5b5062000170620006e1565b6040516200017f9190620027e8565b60405180910390f35b3480156200019557600080fd5b50620001a062000a40565b604051620001af9190620029b6565b60405180910390f35b348015620001c557600080fd5b50620001e46004803603620001de919081019062001ef3565b62000a4d565b005b348015620001f357600080fd5b506200021260048036036200020c91908101906200201a565b62000b41565b005b3480156200022157600080fd5b506200022c62000c74565b6040516200023b9190620027c4565b60405180910390f35b3480156200025157600080fd5b506200027060048036036200026a919081019062001e71565b62000d04565b6040516200027f91906200280c565b60405180910390f35b3480156200029557600080fd5b50620002b46004803603620002ae91908101906200219c565b62000d50565b604051620002c391906200296e565b60405180910390f35b348015620002d957600080fd5b50620002f86004803603620002f2919081019062001e71565b62000f9c565b005b3480156200030757600080fd5b506200031262000ff1565b604051620003219190620029b6565b60405180910390f35b3480156200033757600080fd5b5062000356600480360362000350919081019062001e71565b62000ffe565b6040516200036591906200280c565b60405180910390f35b3480156200037b57600080fd5b506200039a600480360362000394919081019062001fa7565b6200104a565b005b348015620003a957600080fd5b50620003c86004803603620003c2919081019062001e71565b6200111a565b604051620003dc9695949392919062002864565b60405180910390f35b348015620003f257600080fd5b50620003fd620011e3565b6040516200040c919062002992565b60405180910390f35b3480156200042257600080fd5b506200044160048036036200043b919081019062001e71565b62001436565b005b3480156200045057600080fd5b506200046f600480360362000469919081019062001e9d565b6200178a565b005b3480156200047e57600080fd5b506200049d600480360362000497919081019062001e71565b620018d8565b005b348015620004ac57600080fd5b50620004b762001947565b604051620004c69190620026b8565b60405180910390f35b620004d96200196c565b600260008373ffffffffffffffffffffffffffffffffffffffff1673ffffffffffffffffffffffffffffffffffffffff16815260200190815260200160002060a060405190810160405290816000820160009054906101000a900473ffffffffffffffffffffffffffffffffffffffff1673ffffffffffffffffffffffffffffffffffffffff1673ffffffffffffffffffffffffffffffffffffffff168152602001600182018054600181600116156101000203166002900480601f016020809104026020016040519081016040528092919081815260200182805460018160011615610100020316600290048015620006175780601f10620005eb5761010080835404028352916020019162000617565b820191906000526020600020905b815481529060010190602001808311620005f957829003601f168201915b50505050508152602001600282018054600181600116156101000203166002900480601f016020809104026020016040519081016040528092919081815260200182805460018160011615610100020316600290048015620006bd5780601f106200069157610100808354040283529160200191620006bd565b820191906000526020600020905b8154815290600101906020018083116200069f57829003601f168201915b50505050508152602001600382015481526020016004820154815250509050919050565b60608060008060009054906101000a900473ffffffffffffffffffffffffffffffffffffffff1673ffffffffffffffffffffffffffffffffffffffff163373ffffffffffffffffffffffffffffffffffffffff161415156200077a576040517f08c379a0000000000000000000000000000000000000000000000000000000008152600401620007719062002908565b60405180910390fd5b600380549050604051908082528060200260200182016040528015620007bd57816020015b620007a9620019b2565b8152602001906001900390816200079f5790505b509150600090505b60038054905081101562000a385760026000600383815481101515620007e757fe5b9060005260206000200160009054906101000a900473ffffffffffffffffffffffffffffffffffffffff1673ffffffffffffffffffffffffffffffffffffffff1673ffffffffffffffffffffffffffffffffffffffff16815260200190815260200160002060a060405190810160405290816000820160009054906101000a900473ffffffffffffffffffffffffffffffffffffffff1673ffffffffffffffffffffffffffffffffffffffff1673ffffffffffffffffffffffffffffffffffffffff168152602001600182018054600181600116156101000203166002900480601f0160208091040260200160405190810160405280929190818152602001828054600181600116156101000203166002900480156200094b5780601f106200091f576101008083540402835291602001916200094b565b820191906000526020600020905b8154815290600101906020018083116200092d57829003601f168201915b50505050508152602001600282018054600181600116156101000203166002900480601f016020809104026020016040519081016040528092919081815260200182805460018160011615610100020316600290048015620009f15780601f10620009c557610100808354040283529160200191620009f1565b820191906000526020600020905b815481529060010190602001808311620009d357829003601f168201915b5050505050815260200160038201548152602001600482015481525050828281518110151562000a1d57fe5b906020019060200201819052508080600101915050620007c5565b819250505090565b6000600480549050905090565b81600260008573ffffffffffffffffffffffffffffffffffffffff1673ffffffffffffffffffffffffffffffffffffffff168152602001908152602001600020600101908051906020019062000aa5929190620019f8565b5080600260008573ffffffffffffffffffffffffffffffffffffffff1673ffffffffffffffffffffffffffffffffffffffff168152602001908152602001600020600201908051906020019062000afe929190620019f8565b507f3bc63a1a560da32e0aab62ddb386a3bbfb7ac6d4531d5dd65fb1505a16a784b483838360405162000b3493929190620026d5565b60405180910390a1505050565b6000809054906101000a900473ffffffffffffffffffffffffffffffffffffffff1673ffffffffffffffffffffffffffffffffffffffff163373ffffffffffffffffffffffffffffffffffffffff1614151562000bd5576040517f08c379a000000000000000000000000000000000000000000000000000000000815260040162000bcc9062002908565b60405180910390fd5b308383836000809054906101000a900473ffffffffffffffffffffffffffffffffffffffff1662000c0562001a7f565b62000c1595949392919062002720565b604051809103906000f08015801562000c32573d6000803e3d6000fd5b50507f51c5e9dfa67879da5fab182fdd91303f7c5d1a38598aefb2216af7339ac32a13838360405162000c6792919062002829565b60405180910390a1505050565b6060600480548060200260200160405190810160405280929190818152602001828054801562000cfa57602002820191906000526020600020905b8160009054906101000a900473ffffffffffffffffffffffffffffffffffffffff1673ffffffffffffffffffffffffffffffffffffffff168152602001906001019080831162000caf575b5050505050905090565b6000600260008373ffffffffffffffffffffffffffffffffffffffff1673ffffffffffffffffffffffffffffffffffffffff168152602001908152602001600020600401549050919050565b62000d5a6200196c565b6002600060038481548110151562000d6e57fe5b9060005260206000200160009054906101000a900473ffffffffffffffffffffffffffffffffffffffff1673ffffffffffffffffffffffffffffffffffffffff1673ffffffffffffffffffffffffffffffffffffffff16815260200190815260200160002060a060405190810160405290816000820160009054906101000a900473ffffffffffffffffffffffffffffffffffffffff1673ffffffffffffffffffffffffffffffffffffffff1673ffffffffffffffffffffffffffffffffffffffff168152602001600182018054600181600116156101000203166002900480601f01602080910402602001604051908101604052809291908181526020018280546001816001161561010002031660029004801562000ed25780601f1062000ea65761010080835404028352916020019162000ed2565b820191906000526020600020905b81548152906001019060200180831162000eb457829003601f168201915b50505050508152602001600282018054600181600116156101000203166002900480601f01602080910402602001604051908101604052809291908181526020018280546001816001161561010002031660029004801562000f785780601f1062000f4c5761010080835404028352916020019162000f78565b820191906000526020600020905b81548152906001019060200180831162000f5a57829003601f168201915b50505050508152602001600382015481526020016004820154815250509050919050565b600260008273ffffffffffffffffffffffffffffffffffffffff1673ffffffffffffffffffffffffffffffffffffffff1681526020019081526020016000206003016000815480929190600101919050555050565b6000600380549050905090565b6000600260008373ffffffffffffffffffffffffffffffffffffffff1673ffffffffffffffffffffffffffffffffffffffff168152602001908152602001600020600301549050919050565b6000809054906101000a900473ffffffffffffffffffffffffffffffffffffffff1673ffffffffffffffffffffffffffffffffffffffff163373ffffffffffffffffffffffffffffffffffffffff16141515620010de576040517f08c379a0000000000000000000000000000000000000000000000000000000008152600401620010d59062002908565b60405180910390fd5b8160056001019080519060200190620010f9929190620019f8565b50806005600201908051906020019062001115929190620019f8565b505050565b60608060606000806000808790508073ffffffffffffffffffffffffffffffffffffffff1663f8cb00bf6040518163ffffffff167c0100000000000000000000000000000000000000000000000000000000028152600401600060405180830381600087803b1580156200118d57600080fd5b505af1158015620011a2573d6000803e3d6000fd5b505050506040513d6000823e3d601f19601f82011682018060405250620011cd9190810190620020bb565b9650965096509650965096505091939550919395565b620011ed62001a90565b6000809054906101000a900473ffffffffffffffffffffffffffffffffffffffff1673ffffffffffffffffffffffffffffffffffffffff163373ffffffffffffffffffffffffffffffffffffffff1614151562001281576040517f08c379a0000000000000000000000000000000000000000000000000000000008152600401620012789062002908565b60405180910390fd5b6005606060405190810160405290816000820160009054906101000a900473ffffffffffffffffffffffffffffffffffffffff1673ffffffffffffffffffffffffffffffffffffffff1673ffffffffffffffffffffffffffffffffffffffff168152602001600182018054600181600116156101000203166002900480601f016020809104026020016040519081016040528092919081815260200182805460018160011615610100020316600290048015620013825780601f10620013565761010080835404028352916020019162001382565b820191906000526020600020905b8154815290600101906020018083116200136457829003601f168201915b50505050508152602001600282018054600181600116156101000203166002900480601f016020809104026020016040519081016040528092919081815260200182805460018160011615610100020316600290048015620014285780601f10620013fc5761010080835404028352916020019162001428565b820191906000526020600020905b8154815290600101906020018083116200140a57829003601f168201915b505050505081525050905090565b6000809054906101000a900473ffffffffffffffffffffffffffffffffffffffff1673ffffffffffffffffffffffffffffffffffffffff163373ffffffffffffffffffffffffffffffffffffffff16141515620014ca576040517f08c379a0000000000000000000000000000000000000000000000000000000008152600401620014c19062002908565b60405180910390fd5b60015460038054905010151562001518576040517f08c379a00000000000000000000000000000000000000000000000000000000081526004016200150f906200294c565b60405180910390fd5b6000809054906101000a900473ffffffffffffffffffffffffffffffffffffffff1673ffffffffffffffffffffffffffffffffffffffff168173ffffffffffffffffffffffffffffffffffffffff1614151515620015ad576040517f08c379a0000000000000000000000000000000000000000000000000000000008152600401620015a490620028e6565b60405180910390fd5b60a0604051908101604052808273ffffffffffffffffffffffffffffffffffffffff1681526020016020604051908101604052806000815250815260200160206040519081016040528060008152508152602001600081526020016000815250600260008373ffffffffffffffffffffffffffffffffffffffff1673ffffffffffffffffffffffffffffffffffffffff16815260200190815260200160002060008201518160000160006101000a81548173ffffffffffffffffffffffffffffffffffffffff021916908373ffffffffffffffffffffffffffffffffffffffff1602179055506020820151816001019080519060200190620016b192919062001ac8565b506040820151816002019080519060200190620016d092919062001ac8565b50606082015181600301556080820151816004015590505060038190806001815401808255809150509060018203906000526020600020016000909192909190916101000a81548173ffffffffffffffffffffffffffffffffffffffff021916908373ffffffffffffffffffffffffffffffffffffffff160217905550507f7a274ad5ebae6fdc80650d34a4e01c874e099afaca3b6e8c896edc5b9126651b816040516200177f919062002792565b60405180910390a150565b82826000829050600115158173ffffffffffffffffffffffffffffffffffffffff16636c38e4c6846040518263ffffffff167c0100000000000000000000000000000000000000000000000000000000028152600401620017ec9190620026b8565b602060405180830381600087803b1580156200180757600080fd5b505af11580156200181c573d6000803e3d6000fd5b505050506040513d601f19601f8201168201806040525062001842919081019062001f7b565b151514151562001889576040517f08c379a000000000000000000000000000000000000000000000000000000000815260040162001880906200292a565b60405180910390fd5b83600260008773ffffffffffffffffffffffffffffffffffffffff1673ffffffffffffffffffffffffffffffffffffffff16815260200190815260200160002060040181905550505050505050565b600081905060048190806001815401808255809150509060018203906000526020600020016000909192909190916101000a81548173ffffffffffffffffffffffffffffffffffffffff021916908373ffffffffffffffffffffffffffffffffffffffff160217905550505050565b6000809054906101000a900473ffffffffffffffffffffffffffffffffffffffff1681565b60a060405190810160405280600073ffffffffffffffffffffffffffffffffffffffff168152602001606081526020016060815260200160008152602001600081525090565b60a060405190810160405280600073ffffffffffffffffffffffffffffffffffffffff168152602001606081526020016060815260200160008152602001600081525090565b828054600181600116156101000203166002900490600052602060002090601f016020900481019282601f1062001a3b57805160ff191683800117855562001a6c565b8280016001018555821562001a6c579182015b8281111562001a6b57825182559160200191906001019062001a4e565b5b50905062001a7b919062001b4f565b5090565b604051612bcb8062002bd483390190565b606060405190810160405280600073ffffffffffffffffffffffffffffffffffffffff16815260200160608152602001606081525090565b828054600181600116156101000203166002900490600052602060002090601f016020900481019282601f1062001b0b57805160ff191683800117855562001b3c565b8280016001018555821562001b3c579182015b8281111562001b3b57825182559160200191906001019062001b1e565b5b50905062001b4b919062001b4f565b5090565b62001b7491905b8082111562001b7057600081600090555060010162001b56565b5090565b90565b600062001b85823562002b3d565b905092915050565b600082601f830112151562001ba157600080fd5b813562001bb862001bb28262002a01565b620029d3565b9150818183526020840193506020810190508360005b8381101562001c02578135860162001be7888262001ccd565b84526020840193506020830192505060018101905062001bce565b5050505092915050565b600082601f830112151562001c2057600080fd5b815162001c3762001c318262002a01565b620029d3565b9150818183526020840193506020810190508360005b8381101562001c81578151860162001c66888262001d2b565b84526020840193506020830192505060018101905062001c4d565b5050505092915050565b600062001c99825162002b5d565b905092915050565b600062001caf823562002b69565b905092915050565b600062001cc5825162002b69565b905092915050565b600082601f830112151562001ce157600080fd5b813562001cf862001cf28262002a2a565b620029d3565b9150808252602083016020830185838301111562001d1557600080fd5b62001d2283828462002b7d565b50505092915050565b600082601f830112151562001d3f57600080fd5b815162001d5662001d508262002a2a565b620029d3565b9150808252602083016020830185838301111562001d7357600080fd5b62001d8083828462002b8c565b50505092915050565b600082601f830112151562001d9d57600080fd5b813562001db462001dae8262002a57565b620029d3565b9150808252602083016020830185838301111562001dd157600080fd5b62001dde83828462002b7d565b50505092915050565b600082601f830112151562001dfb57600080fd5b815162001e1262001e0c8262002a57565b620029d3565b9150808252602083016020830185838301111562001e2f57600080fd5b62001e3c83828462002b8c565b50505092915050565b600062001e53823562002b73565b905092915050565b600062001e69825162002b73565b905092915050565b60006020828403121562001e8457600080fd5b600062001e948482850162001b77565b91505092915050565b60008060006060848603121562001eb357600080fd5b600062001ec38682870162001b77565b935050602062001ed68682870162001b77565b925050604062001ee98682870162001ca1565b9150509250925092565b60008060006060848603121562001f0957600080fd5b600062001f198682870162001b77565b935050602084013567ffffffffffffffff81111562001f3757600080fd5b62001f458682870162001d89565b925050604084013567ffffffffffffffff81111562001f6357600080fd5b62001f718682870162001d89565b9150509250925092565b60006020828403121562001f8e57600080fd5b600062001f9e8482850162001c8b565b91505092915050565b6000806040838503121562001fbb57600080fd5b600083013567ffffffffffffffff81111562001fd657600080fd5b62001fe48582860162001d89565b925050602083013567ffffffffffffffff8111156200200257600080fd5b620020108582860162001d89565b9150509250929050565b6000806000606084860312156200203057600080fd5b600084013567ffffffffffffffff8111156200204b57600080fd5b620020598682870162001d89565b935050602084013567ffffffffffffffff8111156200207757600080fd5b620020858682870162001d89565b925050604084013567ffffffffffffffff811115620020a357600080fd5b620020b18682870162001b8d565b9150509250925092565b60008060008060008060c08789031215620020d557600080fd5b600087015167ffffffffffffffff811115620020f057600080fd5b620020fe89828a0162001de7565b965050602087015167ffffffffffffffff8111156200211c57600080fd5b6200212a89828a0162001de7565b955050604087015167ffffffffffffffff8111156200214857600080fd5b6200215689828a0162001c0c565b94505060606200216989828a0162001e5b565b93505060806200217c89828a0162001cb7565b92505060a06200218f89828a0162001e5b565b9150509295509295509295565b600060208284031215620021af57600080fd5b6000620021bf8482850162001e45565b91505092915050565b620021d38162002b09565b82525050565b6000620021e68262002aab565b808452602084019350620021fa8362002a84565b60005b82811015620022325762002213868351620021c8565b6200221e8262002ae2565b9150602086019550600181019050620021fd565b50849250505092915050565b60006200224b8262002ab6565b80845260208401935083602082028501620022668562002a91565b60005b84811015620022a5578383038852620022848383516200237b565b9250620022918262002aef565b915060208801975060018101905062002269565b508196508694505050505092915050565b6000620022c38262002ac1565b80845260208401935083602082028501620022de8562002a9e565b60005b848110156200231d578383038852620022fc838351620025c3565b9250620023098262002afc565b9150602088019750600181019050620022e1565b508196508694505050505092915050565b620023398162002b29565b82525050565b60006200234c8262002ad7565b8084526200236281602086016020860162002b8c565b6200236d8162002bc2565b602085010191505092915050565b6000620023888262002acc565b8084526200239e81602086016020860162002b8c565b620023a98162002bc2565b602085010191505092915050565b6000602e82527f43616e206e6f74206164642061646d696e206164647265737320746f2070617260208301527f7469636970616e74206c697374210000000000000000000000000000000000006040830152606082019050919050565b6000602582527f546869732066756e6374696f6e206f6e6c792061646d696e2063616e2065786560208301527f63757465210000000000000000000000000000000000000000000000000000006040830152606082019050919050565b6000601682527f4f6e6c792073657373696f6e20636f6e747261637421000000000000000000006020830152604082019050919050565b6000602a82527f4e756d626572206f662075736572206f7574206f662072616e6765206d61786960208301527f6d756e20616c6c6f7721000000000000000000000000000000000000000000006040830152606082019050919050565b6000601882527f416464207061727469636970616e7420737563636573732100000000000000006020830152604082019050919050565b600060a083016000830151620025566000860182620021c8565b50602083015184820360208601526200257082826200237b565b915050604083015184820360408601526200258c82826200237b565b9150506060830151620025a360608601826200232e565b506080830151620025b860808601826200232e565b508091505092915050565b600060a083016000830151620025dd6000860182620021c8565b5060208301518482036020860152620025f782826200237b565b915050604083015184820360408601526200261382826200237b565b91505060608301516200262a60608601826200232e565b5060808301516200263f60808601826200232e565b508091505092915050565b6000606083016000830151620026646000860182620021c8565b50602083015184820360208601526200267e82826200237b565b915050604083015184820360408601526200269a82826200237b565b9150508091505092915050565b620026b28162002b33565b82525050565b6000602082019050620026cf6000830184620021c8565b92915050565b6000606082019050620026ec6000830186620021c8565b81810360208301526200270081856200233f565b905081810360408301526200271681846200233f565b9050949350505050565b600060a082019050620027376000830188620021c8565b81810360208301526200274b81876200233f565b905081810360408301526200276181866200233f565b905081810360608301526200277781856200223e565b9050620027886080830184620021c8565b9695505050505050565b6000604082019050620027a96000830184620021c8565b8181036020830152620027bc8162002505565b905092915050565b60006020820190508181036000830152620027e08184620021d9565b905092915050565b60006020820190508181036000830152620028048184620022b6565b905092915050565b60006020820190506200282360008301846200232e565b92915050565b600060408201905081810360008301526200284581856200233f565b905081810360208301526200285b81846200233f565b90509392505050565b600060c08201905081810360008301526200288081896200233f565b905081810360208301526200289681886200233f565b90508181036040830152620028ac81876200223e565b9050620028bd6060830186620026a7565b620028cc60808301856200232e565b620028db60a0830184620026a7565b979650505050505050565b600060208201905081810360008301526200290181620023b7565b9050919050565b60006020820190508181036000830152620029238162002414565b9050919050565b60006020820190508181036000830152620029458162002471565b9050919050565b600060208201905081810360008301526200296781620024a8565b9050919050565b600060208201905081810360008301526200298a81846200253c565b905092915050565b60006020820190508181036000830152620029ae81846200264a565b905092915050565b6000602082019050620029cd6000830184620026a7565b92915050565b6000604051905081810181811067ffffffffffffffff82111715620029f757600080fd5b8060405250919050565b600067ffffffffffffffff82111562002a1957600080fd5b602082029050602081019050919050565b600067ffffffffffffffff82111562002a4257600080fd5b601f19601f8301169050602081019050919050565b600067ffffffffffffffff82111562002a6f57600080fd5b601f19601f8301169050602081019050919050565b6000602082019050919050565b6000602082019050919050565b6000602082019050919050565b600081519050919050565b600081519050919050565b600081519050919050565b600081519050919050565b600081519050919050565b6000602082019050919050565b6000602082019050919050565b6000602082019050919050565b600073ffffffffffffffffffffffffffffffffffffffff82169050919050565b6000819050919050565b6000819050919050565b600073ffffffffffffffffffffffffffffffffffffffff82169050919050565b60008115159050919050565b6000819050919050565b6000819050919050565b82818337600083830152505050565b60005b8381101562002bac57808201518184015260208101905062002b8f565b8381111562002bbc576000848401525b50505050565b6000601f19601f8301169050919050560060806040523480156200001157600080fd5b5060405162002bcb38038062002bcb8339810180604052620000379190810190620005d7565b846000806101000a81548173ffffffffffffffffffffffffffffffffffffffff021916908373ffffffffffffffffffffffffffffffffffffffff16021790555084600160006101000a81548173ffffffffffffffffffffffffffffffffffffffff021916908373ffffffffffffffffffffffffffffffffffffffff1602179055508360029080519060200190620000d09291906200026c565b508260039080519060200190620000e99291906200026c565b50816004908051906020019062000102929190620002f3565b50600060058190555060006006819055506000600760006101000a81548160ff021916908360028111156200013357fe5b021790555080600b60006101000a81548173ffffffffffffffffffffffffffffffffffffffff021916908373ffffffffffffffffffffffffffffffffffffffff160217905550600160009054906101000a900473ffffffffffffffffffffffffffffffffffffffff1673ffffffffffffffffffffffffffffffffffffffff1663f390dd86306040518263ffffffff167c0100000000000000000000000000000000000000000000000000000000028152600401620001f2919062000728565b600060405180830381600087803b1580156200020d57600080fd5b505af115801562000222573d6000803e3d6000fd5b505050507f9fe7cb314c08d72e270589aeb0470bb4335133b90e7dfd6f84ed11661496dd3784846040516200025992919062000745565b60405180910390a15050505050620008d8565b828054600181600116156101000203166002900490600052602060002090601f016020900481019282601f10620002af57805160ff1916838001178555620002e0565b82800160010185558215620002e0579182015b82811115620002df578251825591602001919060010190620002c2565b5b509050620002ef91906200035a565b5090565b82805482825590600052602060002090810192821562000347579160200282015b82811115620003465782518290805190602001906200033592919062000382565b509160200191906001019062000314565b5b50905062000356919062000409565b5090565b6200037f91905b808211156200037b57600081600090555060010162000361565b5090565b90565b828054600181600116156101000203166002900490600052602060002090601f016020900481019282601f10620003c557805160ff1916838001178555620003f6565b82800160010185558215620003f6579182015b82811115620003f5578251825591602001919060010190620003d8565b5b5090506200040591906200035a565b5090565b6200043791905b808211156200043357600081816200042991906200043a565b5060010162000410565b5090565b90565b50805460018160011615610100020316600290046000825580601f1062000462575062000483565b601f0160209004906000526020600020908101906200048291906200035a565b5b50565b600062000494825162000871565b905092915050565b600082601f8301121515620004b057600080fd5b8151620004c7620004c182620007c3565b62000795565b9150818183526020840193506020810190508360005b83811015620005115781518601620004f688826200051b565b845260208401935060208301925050600181019050620004dd565b5050505092915050565b600082601f83011215156200052f57600080fd5b8151620005466200054082620007ec565b62000795565b915080825260208301602083018583830111156200056357600080fd5b6200057083828462000891565b50505092915050565b600082601f83011215156200058d57600080fd5b8151620005a46200059e8262000819565b62000795565b91508082526020830160208301858383011115620005c157600080fd5b620005ce83828462000891565b50505092915050565b600080600080600060a08688031215620005f057600080fd5b6000620006008882890162000486565b955050602086015167ffffffffffffffff8111156200061e57600080fd5b6200062c8882890162000579565b945050604086015167ffffffffffffffff8111156200064a57600080fd5b620006588882890162000579565b935050606086015167ffffffffffffffff8111156200067657600080fd5b62000684888289016200049c565b9250506080620006978882890162000486565b9150509295509295909350565b620006af8162000851565b82525050565b6000620006c28262000846565b808452620006d881602086016020860162000891565b620006e381620008c7565b602085010191505092915050565b6000601782527f4372656174652073657373696f6e2073756363657373210000000000000000006020830152604082019050919050565b60006020820190506200073f6000830184620006a4565b92915050565b60006060820190508181036000830152620007618185620006b5565b90508181036020830152620007778184620006b5565b905081810360408301526200078c81620006f1565b90509392505050565b6000604051905081810181811067ffffffffffffffff82111715620007b957600080fd5b8060405250919050565b600067ffffffffffffffff821115620007db57600080fd5b602082029050602081019050919050565b600067ffffffffffffffff8211156200080457600080fd5b601f19601f8301169050602081019050919050565b600067ffffffffffffffff8211156200083157600080fd5b601f19601f8301169050602081019050919050565b600081519050919050565b600073ffffffffffffffffffffffffffffffffffffffff82169050919050565b600073ffffffffffffffffffffffffffffffffffffffff82169050919050565b60005b83811015620008b157808201518184015260208101905062000894565b83811115620008c1576000848401525b50505050565b6000601f19601f8301169050919050565b6122e380620008e86000396000f3006080604052600436106100af576000357c0100000000000000000000000000000000000000000000000000000000900463ffffffff1680630c640a10146100b45780630e973501146100df5780632e639ee514610108578063445df9d6146101335780636c38e4c61461015e5780637542040f1461019b578063893e79ba146101c4578063d270e7ab146101ed578063f851a44014610218578063f8cb00bf14610243578063fe0ae16514610273575b600080fd5b3480156100c057600080fd5b506100c961028a565b6040516100d69190611f1f565b60405180910390f35b3480156100eb57600080fd5b50610106600480360361010191908101906119b3565b6103c7565b005b34801561011457600080fd5b5061011d6104dc565b60405161012a9190611ec0565b60405180910390f35b34801561013f57600080fd5b5061014861056a565b6040516101559190611ee2565b60405180910390f35b34801561016a57600080fd5b5061018560048036036101809190810190611938565b6106fd565b6040516101929190611f04565b60405180910390f35b3480156101a757600080fd5b506101c260048036036101bd9190810190611961565b610753565b005b3480156101d057600080fd5b506101eb60048036036101e69190810190611961565b6108a2565b005b3480156101f957600080fd5b50610202610b35565b60405161020f9190611e40565b60405180910390f35b34801561022457600080fd5b5061022d610b5a565b60405161023a9190611e40565b60405180910390f35b34801561024f57600080fd5b50610258610b80565b60405161026a96959493929190611f3a565b60405180910390f35b34801561027f57600080fd5b50610288610de0565b005b6000600b60009054906101000a900473ffffffffffffffffffffffffffffffffffffffff1673ffffffffffffffffffffffffffffffffffffffff163373ffffffffffffffffffffffffffffffffffffffff161415151561031f576040517f08c379a00000000000000000000000000000000000000000000000000000000081526004016103169061201a565b60405180910390fd5b60011515600960003373ffffffffffffffffffffffffffffffffffffffff1673ffffffffffffffffffffffffffffffffffffffff16815260200190815260200160002060009054906101000a900460ff16151514156103bf57600860003373ffffffffffffffffffffffffffffffffffffffff1673ffffffffffffffffffffffffffffffffffffffff1681526020019081526020016000205490506103c4565b600090505b90565b600b60009054906101000a900473ffffffffffffffffffffffffffffffffffffffff1673ffffffffffffffffffffffffffffffffffffffff163373ffffffffffffffffffffffffffffffffffffffff16141515610459576040517f08c379a00000000000000000000000000000000000000000000000000000000081526004016104509061205a565b60405180910390fd5b826002908051906020019061046f9291906115e1565b5081600390805190602001906104869291906115e1565b50806004908051906020019061049d929190611661565b507f2a5d6d5b2dec1b940dec7f561cf0b8cd2965d265ed7c371349e1d15979b075ab83836040516104cf929190611fb0565b60405180910390a1505050565b6060600a80548060200260200160405190810160405280929190818152602001828054801561056057602002820191906000526020600020905b8160009054906101000a900473ffffffffffffffffffffffffffffffffffffffff1673ffffffffffffffffffffffffffffffffffffffff1681526020019060010190808311610516575b5050505050905090565b6060806000600b60009054906101000a900473ffffffffffffffffffffffffffffffffffffffff1673ffffffffffffffffffffffffffffffffffffffff163373ffffffffffffffffffffffffffffffffffffffff16141515610601576040517f08c379a00000000000000000000000000000000000000000000000000000000081526004016105f89061205a565b60405180910390fd5b600a805490506040519080825280602002602001820160405280156106355781602001602082028038833980820191505090505b509150600090505b600a805490508160ff1610156106f55760086000600a8360ff1681548110151561066357fe5b9060005260206000200160009054906101000a900473ffffffffffffffffffffffffffffffffffffffff1673ffffffffffffffffffffffffffffffffffffffff1673ffffffffffffffffffffffffffffffffffffffff16815260200190815260200160002054828260ff168151811015156106da57fe5b9060200190602002018181525050808060010191505061063d565b819250505090565b6000600960008373ffffffffffffffffffffffffffffffffffffffff1673ffffffffffffffffffffffffffffffffffffffff16815260200190815260200160002060009054906101000a900460ff169050919050565b600b60009054906101000a900473ffffffffffffffffffffffffffffffffffffffff1673ffffffffffffffffffffffffffffffffffffffff163373ffffffffffffffffffffffffffffffffffffffff161415156107e5576040517f08c379a00000000000000000000000000000000000000000000000000000000081526004016107dc9061205a565b60405180910390fd5b600160028111156107f257fe5b600760009054906101000a900460ff16600281111561080d57fe5b14151561084f576040517f08c379a000000000000000000000000000000000000000000000000000000000815260040161084690611ffa565b60405180910390fd5b6000600a80549050141561088d57806006819055506002600760006101000a81548160ff0219169083600281111561088357fe5b021790555061089f565b61089681610f37565b61089e611122565b5b50565b600b60009054906101000a900473ffffffffffffffffffffffffffffffffffffffff1673ffffffffffffffffffffffffffffffffffffffff163373ffffffffffffffffffffffffffffffffffffffff1614151515610935576040517f08c379a000000000000000000000000000000000000000000000000000000000815260040161092c9061201a565b60405180910390fd5b6001600281111561094257fe5b600760009054906101000a900460ff16600281111561095d57fe5b14151561099f576040517f08c379a000000000000000000000000000000000000000000000000000000000815260040161099690611ffa565b60405180910390fd5b60001515600960003373ffffffffffffffffffffffffffffffffffffffff1673ffffffffffffffffffffffffffffffffffffffff16815260200190815260200160002060009054906101000a900460ff1615151415610ab7576001600960003373ffffffffffffffffffffffffffffffffffffffff1673ffffffffffffffffffffffffffffffffffffffff16815260200190815260200160002060006101000a81548160ff021916908315150217905550600a3390806001815401808255809150509060018203906000526020600020016000909192909190916101000a81548173ffffffffffffffffffffffffffffffffffffffff021916908373ffffffffffffffffffffffffffffffffffffffff160217905550505b80600860003373ffffffffffffffffffffffffffffffffffffffff1673ffffffffffffffffffffffffffffffffffffffff168152602001908152602001600020819055507f47650289511cf2cfb9b8b559f6e750022263d3a2db072b47698d32df3ac0b80533604051610b2a9190611e92565b60405180910390a150565b6000809054906101000a900473ffffffffffffffffffffffffffffffffffffffff1681565b600b60009054906101000a900473ffffffffffffffffffffffffffffffffffffffff1681565b60608060606000806000600260036004600554600654600760009054906101000a900460ff166002811115610bb157fe5b858054600181600116156101000203166002900480601f016020809104026020016040519081016040528092919081815260200182805460018160011615610100020316600290048015610c465780601f10610c1b57610100808354040283529160200191610c46565b820191906000526020600020905b815481529060010190602001808311610c2957829003601f168201915b50505050509550848054600181600116156101000203166002900480601f016020809104026020016040519081016040528092919081815260200182805460018160011615610100020316600290048015610ce25780601f10610cb757610100808354040283529160200191610ce2565b820191906000526020600020905b815481529060010190602001808311610cc557829003601f168201915b5050505050945083805480602002602001604051908101604052809291908181526020016000905b82821015610dc6578382906000526020600020018054600181600116156101000203166002900480601f016020809104026020016040519081016040528092919081815260200182805460018160011615610100020316600290048015610db25780601f10610d8757610100808354040283529160200191610db2565b820191906000526020600020905b815481529060010190602001808311610d9557829003601f168201915b505050505081526020019060010190610d0a565b505050509350955095509550955095509550909192939495565b600b60009054906101000a900473ffffffffffffffffffffffffffffffffffffffff1673ffffffffffffffffffffffffffffffffffffffff163373ffffffffffffffffffffffffffffffffffffffff16141515610e72576040517f08c379a0000000000000000000000000000000000000000000000000000000008152600401610e699061205a565b60405180910390fd5b60006002811115610e7f57fe5b600760009054906101000a900460ff166002811115610e9a57fe5b141515610edc576040517f08c379a0000000000000000000000000000000000000000000000000000000008152600401610ed39061203a565b60405180910390fd5b6001600760006101000a81548160ff02191690836002811115610efb57fe5b02179055507fd084c6ae9c7d3dcbaf7ac844e5d1150bc12c7d070a3ffb34cd54ca01a03c1364604051610f2d9061207a565b60405180910390a1565b60008060008060008094506000935060009250600091505b600a805490508210156110f457600160009054906101000a900473ffffffffffffffffffffffffffffffffffffffff1673ffffffffffffffffffffffffffffffffffffffff1663a33a08b9600a84815481101515610fa957fe5b9060005260206000200160009054906101000a900473ffffffffffffffffffffffffffffffffffffffff166040518263ffffffff167c010000000000000000000000000000000000000000000000000000000002815260040161100c9190611e40565b602060405180830381600087803b15801561102657600080fd5b505af115801561103a573d6000803e3d6000fd5b505050506040513d601f19601f8201168201806040525061105e919081019061198a565b90508060640360086000600a8581548110151561107757fe5b9060005260206000200160009054906101000a900473ffffffffffffffffffffffffffffffffffffffff1673ffffffffffffffffffffffffffffffffffffffff1673ffffffffffffffffffffffffffffffffffffffff16815260200190815260200160002054028401935080830192508180600101925050610f4f565b82600a80549050606402038481151561110957fe5b0594508460058190555085600681905550505050505050565b600080600080600080600095505b600a8054905086101561149257600a8681548110151561114c57fe5b9060005260206000200160009054906101000a900473ffffffffffffffffffffffffffffffffffffffff169450600160009054906101000a900473ffffffffffffffffffffffffffffffffffffffff1673ffffffffffffffffffffffffffffffffffffffff1663a33a08b9866040518263ffffffff167c01000000000000000000000000000000000000000000000000000000000281526004016111f09190611e40565b602060405180830381600087803b15801561120a57600080fd5b505af115801561121e573d6000803e3d6000fd5b505050506040513d601f19601f82011682018060405250611242919081019061198a565b9350600160009054906101000a900473ffffffffffffffffffffffffffffffffffffffff1673ffffffffffffffffffffffffffffffffffffffff1663be330868866040518263ffffffff167c01000000000000000000000000000000000000000000000000000000000281526004016112bb9190611e40565b602060405180830381600087803b1580156112d557600080fd5b505af11580156112e9573d6000803e3d6000fd5b505050506040513d601f19601f8201168201806040525061130d919081019061198a565b9250611318856114f3565b838502019150600183018281151561132c57fe5b059050600160009054906101000a900473ffffffffffffffffffffffffffffffffffffffff1673ffffffffffffffffffffffffffffffffffffffff1663f24685943087846040518463ffffffff167c01000000000000000000000000000000000000000000000000000000000281526004016113aa93929190611e5b565b600060405180830381600087803b1580156113c457600080fd5b505af11580156113d8573d6000803e3d6000fd5b50505050600160009054906101000a900473ffffffffffffffffffffffffffffffffffffffff1673ffffffffffffffffffffffffffffffffffffffff1663a6829934866040518263ffffffff167c01000000000000000000000000000000000000000000000000000000000281526004016114539190611e40565b600060405180830381600087803b15801561146d57600080fd5b505af1158015611481573d6000803e3d6000fd5b505050508580600101965050611130565b6002600760006101000a81548160ff021916908360028111156114b157fe5b02179055507fd084c6ae9c7d3dcbaf7ac844e5d1150bc12c7d070a3ffb34cd54ca01a03c13646040516114e39061209a565b60405180910390a1505050505050565b6000806000611544600860008673ffffffffffffffffffffffffffffffffffffffff1673ffffffffffffffffffffffffffffffffffffffff1681526020019081526020016000205460065403611573565b91506064600654611554846115b0565b81151561155d57fe5b0502905061156a816115c4565b92505050919050565b6000808212156115a7577fffffffffffffffffffffffffffffffffffffffffffffffffffffffffffffffff820290506115ab565b8190505b919050565b6000670de0b6b3a764000082029050919050565b6000670de0b6b3a7640000828115156115d957fe5b059050919050565b828054600181600116156101000203166002900490600052602060002090601f016020900481019282601f1061162257805160ff1916838001178555611650565b82800160010185558215611650579182015b8281111561164f578251825591602001919060010190611634565b5b50905061165d91906116c1565b5090565b8280548282559060005260206000209081019282156116b0579160200282015b828111156116af57825182908051906020019061169f9291906116e6565b5091602001919060010190611681565b5b5090506116bd9190611766565b5090565b6116e391905b808211156116df5760008160009055506001016116c7565b5090565b90565b828054600181600116156101000203166002900490600052602060002090601f016020900481019282601f1061172757805160ff1916838001178555611755565b82800160010185558215611755579182015b82811115611754578251825591602001919060010190611739565b5b50905061176291906116c1565b5090565b61178f91905b8082111561178b57600081816117829190611792565b5060010161176c565b5090565b90565b50805460018160011615610100020316600290046000825580601f106117b857506117d7565b601f0160209004906000526020600020908101906117d691906116c1565b5b50565b60006117e6823561222c565b905092915050565b600082601f830112151561180157600080fd5b813561181461180f826120e7565b6120ba565b9150818183526020840193506020810190508360005b8381101561185a5781358601611840888261188c565b84526020840193506020830192505060018101905061182a565b5050505092915050565b6000611870823561224c565b905092915050565b6000611884825161224c565b905092915050565b600082601f830112151561189f57600080fd5b81356118b26118ad8261210f565b6120ba565b915080825260208301602083018583830111156118ce57600080fd5b6118d9838284612256565b50505092915050565b600082601f83011215156118f557600080fd5b81356119086119038261213b565b6120ba565b9150808252602083016020830185838301111561192457600080fd5b61192f838284612256565b50505092915050565b60006020828403121561194a57600080fd5b6000611958848285016117da565b91505092915050565b60006020828403121561197357600080fd5b600061198184828501611864565b91505092915050565b60006020828403121561199c57600080fd5b60006119aa84828501611878565b91505092915050565b6000806000606084860312156119c857600080fd5b600084013567ffffffffffffffff8111156119e257600080fd5b6119ee868287016118e2565b935050602084013567ffffffffffffffff811115611a0b57600080fd5b611a17868287016118e2565b925050604084013567ffffffffffffffff811115611a3457600080fd5b611a40868287016117ee565b9150509250925092565b611a53816121ec565b82525050565b6000611a648261218e565b808452602084019350611a7683612167565b60005b82811015611aa857611a8c868351611a4a565b611a95826121c5565b9150602086019550600181019050611a79565b50849250505092915050565b6000611abf82612199565b808452602084019350611ad183612174565b60005b82811015611b0357611ae7868351611b8c565b611af0826121d2565b9150602086019550600181019050611ad4565b50849250505092915050565b6000611b1a826121a4565b80845260208401935083602082028501611b3385612181565b60005b84811015611b6c578383038852611b4e838351611bd1565b9250611b59826121df565b9150602088019750600181019050611b36565b508196508694505050505092915050565b611b868161220c565b82525050565b611b9581612218565b82525050565b6000611ba6826121ba565b808452611bba816020860160208601612265565b611bc381612298565b602085010191505092915050565b6000611bdc826121af565b808452611bf0816020860160208601612265565b611bf981612298565b602085010191505092915050565b6000601a82527f53657373696f6e206973206e6f7420696e2070726f67726573730000000000006020830152604082019050919050565b6000602b82527f546869732066756e6374696f6e206f6e6c79207061727469636970616e74206360208301527f616e2065786563757465210000000000000000000000000000000000000000006040830152606082019050919050565b6000601782527f5570646174652073657373696f6e2073756363657373210000000000000000006020830152604082019050919050565b6000601e82527f53657373696f6e20737461747573206d757374206265204352454154454400006020830152604082019050919050565b6000602582527f546869732066756e6374696f6e206f6e6c792061646d696e2063616e2065786560208301527f63757465210000000000000000000000000000000000000000000000000000006040830152606082019050919050565b6000602082527f5570646174652073657373696f6e2073746174757320746f2050524943494e476020830152604082019050919050565b6000601082527f50726963696e67207375636365737321000000000000000000000000000000006020830152604082019050919050565b6000602b82527f43616c63756c61746520616e64207570646174652073657373696f6e2073746160208301527f74757320746f2053544f500000000000000000000000000000000000000000006040830152606082019050919050565b611e3a81612222565b82525050565b6000602082019050611e556000830184611a4a565b92915050565b6000606082019050611e706000830186611a4a565b611e7d6020830185611a4a565b611e8a6040830184611b8c565b949350505050565b6000604082019050611ea76000830184611a4a565b8181036020830152611eb881611d9d565b905092915050565b60006020820190508181036000830152611eda8184611a59565b905092915050565b60006020820190508181036000830152611efc8184611ab4565b905092915050565b6000602082019050611f196000830184611b7d565b92915050565b6000602082019050611f346000830184611b8c565b92915050565b600060c0820190508181036000830152611f548189611b9b565b90508181036020830152611f688188611b9b565b90508181036040830152611f7c8187611b0f565b9050611f8b6060830186611e31565b611f986080830185611b8c565b611fa560a0830184611e31565b979650505050505050565b60006060820190508181036000830152611fca8185611b9b565b90508181036020830152611fde8184611b9b565b90508181036040830152611ff181611c9b565b90509392505050565b6000602082019050818103600083015261201381611c07565b9050919050565b6000602082019050818103600083015261203381611c3e565b9050919050565b6000602082019050818103600083015261205381611cd2565b9050919050565b6000602082019050818103600083015261207381611d09565b9050919050565b6000602082019050818103600083015261209381611d66565b9050919050565b600060208201905081810360008301526120b381611dd4565b9050919050565b6000604051905081810181811067ffffffffffffffff821117156120dd57600080fd5b8060405250919050565b600067ffffffffffffffff8211156120fe57600080fd5b602082029050602081019050919050565b600067ffffffffffffffff82111561212657600080fd5b601f19601f8301169050602081019050919050565b600067ffffffffffffffff82111561215257600080fd5b601f19601f8301169050602081019050919050565b6000602082019050919050565b6000602082019050919050565b6000602082019050919050565b600081519050919050565b600081519050919050565b600081519050919050565b600081519050919050565b600081519050919050565b6000602082019050919050565b6000602082019050919050565b6000602082019050919050565b600073ffffffffffffffffffffffffffffffffffffffff82169050919050565b60008115159050919050565b6000819050919050565b6000819050919050565b600073ffffffffffffffffffffffffffffffffffffffff82169050919050565b6000819050919050565b82818337600083830152505050565b60005b83811015612283578082015181840152602081019050612268565b83811115612292576000848401525b50505050565b6000601f19601f83011690509190505600a265627a7a723058202150872d4757f2b4f4ad9e5edf867ddb208c41ccb5721d36e788f5ea4ba7bd5c6c6578706572696d656e74616cf50037a265627a7a72305820132e466f4f75803acab1f559f560033b3a61115745447b5a483e40c4039dfd3b6c6578706572696d656e74616cf50037",
  "source": "// SPDX-License-Identifier: MIT\npragma solidity ^0.4.26;\npragma experimental ABIEncoderV2;\nimport \"./Session.sol\";\n\ncontract Main is IMain {\n    /**\n     * IParticipant\n     * Structure to hold details of Bidder\n     */\n    struct IParticipant {\n        address account;\n        string fullName;\n        string email;\n        int numberOfSession;\n        int deviation;\n    }\n\n    /**\n     * IUser\n     * Structure to define user\n     */\n    struct IUser {\n        address account;\n        string fullName;\n        string email;\n    }\n\n    /**\n     * Admin address.\n     */\n    address public admin;\n\n    /**\n     * Max of Participant.\n     */\n    uint private maxOfParticipant;\n\n    /**\n     * List of participants mapping between address and struct IParticipant.\n     */\n    mapping(address => IParticipant) private mapParticipants;\n\n    /**\n     * Array of participants address.\n     */\n    address[] private participantItems;\n\n    /**\n     * Array of session address.\n     */\n    address[] private sessions;\n\n    /**\n     * Admin profile.\n     */\n    IUser private adminProfile;\n\n    /**\n     * Main constructor.\n     *\n     * @param _maxOfParticipant max of participants\n     */\n    constructor(uint _maxOfParticipant) public {\n        admin = msg.sender;\n        maxOfParticipant = _maxOfParticipant;\n        adminProfile.account = msg.sender;\n    }\n\n    /**\n     * Event update participant.\n     */\n    event UpdateParticipant(address _account, string _fullName, string _email);\n\n    /**\n     * Event add participant.\n     */\n    event AddParticipant(address _account, string msg);\n\n    /**\n     * Event create session.\n     */\n    event CreateSession(string _productName, string _description);\n\n    /**\n     * Add a Session Contract address into Main Contract. Use to link Session with Main.\n     *\n     * @param session Session address\n     */\n    function addSession(address session) public {\n        Session newSession = Session(session);\n        sessions.push(address(newSession));\n    }\n\n    /**\n     * Update admin profile.\n     * \n     * @param _fullName Full name\n     * @param _email email\n     */\n    function updateAdminProfile(string _fullName, string _email) public onlyAdmin {\n        adminProfile.fullName = _fullName;\n        adminProfile.email = _email;\n    }\n\n    /**\n     * Get admin profile.\n     *\n     * @return IUser\n     */\n    function getAdminProfile() public onlyAdmin view returns(IUser memory) {\n        return adminProfile;\n    }\n\n    /**\n     * Add participant\n     *\n     * @param _account participant address\n     */\n    function addParticipant(address _account) public onlyAdmin onlyInNumberOfRangeParticipant {\n        require(_account != admin, \"Can not add admin address to participant list!\");\n        mapParticipants[_account] = IParticipant(_account, \"\", \"\", 0, 0);\n        participantItems.push(_account);\n        emit AddParticipant(_account, \"Add participant success!\");\n    }\n\n    /**\n     * Update participant profile.\n     *\n     * @param _account participant addess\n     * @param _fullName full name\n     * @param _email email\n     */\n    function register(address _account, string memory _fullName, string memory _email) public {\n        mapParticipants[_account].fullName = _fullName;\n        mapParticipants[_account].email = _email;\n        emit UpdateParticipant(_account, _fullName, _email);\n    }\n\n    /**\n     * Get participant by address.\n     *\n     * @param _account participant addess\n     */\n    function participants(address _account) public view returns (IParticipant memory) {\n        return mapParticipants[_account];\n    }\n\n    /**\n     * Get all participants.\n     *\n     * @return IParticipant[] list of participants\n     */\n    function getAllParticipants() public onlyAdmin view returns (IParticipant[] memory) {\n        IParticipant[] memory _participants = new IParticipant[](participantItems.length);\n\n        for (uint i = 0; i < participantItems.length; i++) {\n            _participants[i] = mapParticipants[participantItems[i]];\n        }\n\n        return _participants;\n    }\n\n    /**\n     * Get number of participants.\n     *\n     * @return uint number of participants\n     */\n    function nParticipants() public view returns (uint) {\n        return participantItems.length;\n    }\n\n    /**\n     * Get participant by index.\n     *\n     * @param _index index of participants\n     *\n     * @return IParticipant particiapnt\n     */\n    function iParticipants(uint _index) public view returns (IParticipant memory) {\n        return mapParticipants[participantItems[_index]];\n    }\n\n    /**\n     * Get deviation by participant address.\n     *\n     * @param _account participant address\n     *\n     * @return int deviation\n     */\n    function getDeviation(address _account) public view returns (int) {\n        return mapParticipants[_account].deviation;\n    }\n\n    /**\n     * Set deviation for a participant.\n     *\n     * @param _session session address \n     * @param _account participant address\n     * @param _deviation deviation vslue \n     */\n    function setDeviation(address _session, address _account, int _deviation) public onlySessionContract(_session, _account) {\n        mapParticipants[_account].deviation = _deviation;\n    }\n\n    /**\n     * Increment numnber of session for a participant.\n     *\n     * @param _account participant address\n     */\n    function incrementNumberOfSession(address _account) public {\n        mapParticipants[_account].numberOfSession++;\n    }\n\n    /**\n     * Get number of session by participant.\n     *\n     * @param _account participant address\n     *\n     * @return int number of session\n     */\n    function getNumberOfSession(address _account) public view returns (int) {\n        return mapParticipants[_account].numberOfSession;\n    }\n\n    /**\n     * Create new Session.\n     *\n     * @param _productName session name\n     * @param _description session description\n     * @param _images Array of images\n     */\n    function createSession(string memory _productName, string memory _description, string[] memory _images) public onlyAdmin(){\n        new Session(address(this), _productName, _description, _images, admin);\n        emit CreateSession(_productName, _description);\n    }\n\n    /**\n     * Get all session address.\n     *\n     * @return address[] List of all session\n     */\n    function getAllSessionAddresses() public view returns (address[] memory) {\n        return sessions;\n    }\n\n    /**\n     * Get number of session.\n     *\n     * @return uint Number of session\n     */\n    function nSessions() public view returns (uint) {\n        return sessions.length;\n    }\n\n    /**\n     * Get session detail.\n     *\n     * @param _session session address\n     *\n     * @return string session name\n     * @return string session description\n     * @return string[] Array of product images\n     * @return uint suggest price\n     * @return int final price\n     * @return uint status\n     */\n    function getSessionDetail(address _session) public view returns (string memory, string memory, string[] memory, uint, int, uint) {\n        Session session = Session(_session);\n\n        return session.getSessionDetail();\n    }\n\n    /**\n     * Modify only admin\n     * This modify only the Administrator can excute\n     */\n    modifier onlyAdmin() {\n        require(msg.sender == admin, \"This function only admin can execute!\");\n        _;\n    }\n\n    /**\n     * Modify number of participant in ragne.\n     */\n    modifier onlyInNumberOfRangeParticipant() {\n        require(participantItems.length < maxOfParticipant, \"Number of user out of range maximun allow!\");\n        _;\n    }\n\n    /**\n     * Only session contract\n     *\n     * @param _session Session address\n     * @param _participant Participant address\n     */\n    modifier onlySessionContract(address _session, address _participant) {\n        Session session = Session(_session);\n        require(session.getParticipantPricingExists(_participant) == true, \"Only session contract!\");\n        _;\n    }\n}\n",
  "sourcePath": "/Users/damthe/study/TheFunixPricing/truffle/contracts/Main.sol",
  "compiler": {
    "name": "solc",
    "version": "0.4.26+commit.4563c3fc.Emscripten.clang"
  },
  "schemaVersion": "3.4.10",
  "updatedAt": "2023-08-27T07:14:34.984Z",
  "networkType": "ethereum",
  "devdoc": {
    "methods": {
      "addParticipant(address)": {
        "params": {
          "_account": "participant address"
        }
      },
      "addSession(address)": {
        "params": {
          "session": "Session address"
        }
      },
      "createSession(string,string,string[])": {
        "params": {
          "_description": "session description",
          "_images": "Array of images",
          "_productName": "session name"
        }
      },
      "getAdminProfile()": {
        "return": "IUser"
      },
      "getAllParticipants()": {
        "return": "IParticipant[] list of participants"
      },
      "getAllSessionAddresses()": {
        "return": "address[] List of all session"
      },
      "getDeviation(address)": {
        "params": {
          "_account": "participant address"
        },
        "return": "int deviation"
      },
      "getNumberOfSession(address)": {
        "params": {
          "_account": "participant address"
        },
        "return": "int number of session"
      },
      "getSessionDetail(address)": {
        "params": {
          "_session": "session address"
        },
        "return": "string session namestring session descriptionstring[] Array of product imagesuint suggest priceint final priceuint status"
      },
      "iParticipants(uint256)": {
        "params": {
          "_index": "index of participants"
        },
        "return": "IParticipant particiapnt"
      },
      "incrementNumberOfSession(address)": {
        "params": {
          "_account": "participant address"
        }
      },
      "nParticipants()": {
        "return": "uint number of participants"
      },
      "nSessions()": {
        "return": "uint Number of session"
      },
      "participants(address)": {
        "params": {
          "_account": "participant addess"
        }
      },
      "register(address,string,string)": {
        "params": {
          "_account": "participant addess",
          "_email": "email",
          "_fullName": "full name"
        }
      },
      "setDeviation(address,address,int256)": {
        "params": {
          "_account": "participant address",
          "_deviation": "deviation vslue ",
          "_session": "session address "
        }
      },
      "updateAdminProfile(string,string)": {
        "params": {
          "_email": "email",
          "_fullName": "Full name"
        }
      }
    }
  },
  "userdoc": {
    "methods": {
      "addParticipant(address)": {
        "notice": "Add participant"
      },
      "addSession(address)": {
        "notice": "Add a Session Contract address into Main Contract. Use to link Session with Main."
      },
      "createSession(string,string,string[])": {
        "notice": "Create new Session."
      },
      "getAdminProfile()": {
        "notice": "Get admin profile."
      },
      "getAllParticipants()": {
        "notice": "Get all participants."
      },
      "getAllSessionAddresses()": {
        "notice": "Get all session address."
      },
      "getDeviation(address)": {
        "notice": "Get deviation by participant address."
      },
      "getNumberOfSession(address)": {
        "notice": "Get number of session by participant."
      },
      "getSessionDetail(address)": {
        "notice": "Get session detail."
      },
      "iParticipants(uint256)": {
        "notice": "Get participant by index."
      },
      "incrementNumberOfSession(address)": {
        "notice": "Increment numnber of session for a participant."
      },
      "nParticipants()": {
        "notice": "Get number of participants."
      },
      "nSessions()": {
        "notice": "Get number of session."
      },
      "participants(address)": {
        "notice": "Get participant by address."
      },
      "register(address,string,string)": {
        "notice": "Update participant profile."
      },
      "setDeviation(address,address,int256)": {
        "notice": "Set deviation for a participant."
      },
      "updateAdminProfile(string,string)": {
        "notice": "Update admin profile. "
      }
    }
  }
}