{
  "contractName": "Main",
  "abi": [
    {
      "constant": true,
      "inputs": [],
      "name": "admin",
      "outputs": [
        {
          "name": "",
          "type": "address"
        }
      ],
      "payable": false,
      "stateMutability": "view",
      "type": "function"
    },
    {
      "inputs": [
        {
          "name": "_maxOfUser",
          "type": "uint256"
        }
      ],
      "payable": false,
      "stateMutability": "nonpayable",
      "type": "constructor"
    },
    {
      "anonymous": false,
      "inputs": [
        {
          "indexed": false,
          "name": "_account",
          "type": "address"
        },
        {
          "indexed": false,
          "name": "_fullName",
          "type": "string"
        },
        {
          "indexed": false,
          "name": "_email",
          "type": "string"
        }
      ],
      "name": "UpdateParticipant",
      "type": "event"
    },
    {
      "anonymous": false,
      "inputs": [
        {
          "indexed": false,
          "name": "_account",
          "type": "address"
        },
        {
          "indexed": false,
          "name": "msg",
          "type": "string"
        }
      ],
      "name": "AddParticipant",
      "type": "event"
    },
    {
      "anonymous": false,
      "inputs": [
        {
          "indexed": false,
          "name": "_productName",
          "type": "string"
        },
        {
          "indexed": false,
          "name": "_description",
          "type": "string"
        }
      ],
      "name": "CreateSession",
      "type": "event"
    },
    {
      "constant": false,
      "inputs": [
        {
          "name": "session",
          "type": "address"
        }
      ],
      "name": "addSession",
      "outputs": [],
      "payable": false,
      "stateMutability": "nonpayable",
      "type": "function"
    },
    {
      "constant": true,
      "inputs": [],
      "name": "getAdmin",
      "outputs": [
        {
          "name": "",
          "type": "address"
        }
      ],
      "payable": false,
      "stateMutability": "view",
      "type": "function"
    },
    {
      "constant": false,
      "inputs": [
        {
          "name": "_fullName",
          "type": "string"
        },
        {
          "name": "_email",
          "type": "string"
        }
      ],
      "name": "updateAdminProfile",
      "outputs": [],
      "payable": false,
      "stateMutability": "nonpayable",
      "type": "function"
    },
    {
      "constant": true,
      "inputs": [],
      "name": "getAdminProfile",
      "outputs": [
        {
          "components": [
            {
              "name": "account",
              "type": "address"
            },
            {
              "name": "fullName",
              "type": "string"
            },
            {
              "name": "email",
              "type": "string"
            }
          ],
          "name": "",
          "type": "tuple"
        }
      ],
      "payable": false,
      "stateMutability": "view",
      "type": "function"
    },
    {
      "constant": false,
      "inputs": [
        {
          "name": "_account",
          "type": "address"
        }
      ],
      "name": "addParticipant",
      "outputs": [],
      "payable": false,
      "stateMutability": "nonpayable",
      "type": "function"
    },
    {
      "constant": false,
      "inputs": [
        {
          "name": "_account",
          "type": "address"
        },
        {
          "name": "_fullName",
          "type": "string"
        },
        {
          "name": "_email",
          "type": "string"
        }
      ],
      "name": "register",
      "outputs": [],
      "payable": false,
      "stateMutability": "nonpayable",
      "type": "function"
    },
    {
      "constant": true,
      "inputs": [
        {
          "name": "_account",
          "type": "address"
        }
      ],
      "name": "participants",
      "outputs": [
        {
          "components": [
            {
              "name": "account",
              "type": "address"
            },
            {
              "name": "fullName",
              "type": "string"
            },
            {
              "name": "email",
              "type": "string"
            },
            {
              "name": "numberOfSession",
              "type": "int256"
            },
            {
              "name": "deviation",
              "type": "int256"
            }
          ],
          "name": "",
          "type": "tuple"
        }
      ],
      "payable": false,
      "stateMutability": "view",
      "type": "function"
    },
    {
      "constant": true,
      "inputs": [],
      "name": "getAllParticipants",
      "outputs": [
        {
          "components": [
            {
              "name": "account",
              "type": "address"
            },
            {
              "name": "fullName",
              "type": "string"
            },
            {
              "name": "email",
              "type": "string"
            },
            {
              "name": "numberOfSession",
              "type": "int256"
            },
            {
              "name": "deviation",
              "type": "int256"
            }
          ],
          "name": "",
          "type": "tuple[]"
        }
      ],
      "payable": false,
      "stateMutability": "view",
      "type": "function"
    },
    {
      "constant": true,
      "inputs": [],
      "name": "nParticipants",
      "outputs": [
        {
          "name": "",
          "type": "uint256"
        }
      ],
      "payable": false,
      "stateMutability": "view",
      "type": "function"
    },
    {
      "constant": true,
      "inputs": [
        {
          "name": "_index",
          "type": "uint256"
        }
      ],
      "name": "iParticipants",
      "outputs": [
        {
          "components": [
            {
              "name": "account",
              "type": "address"
            },
            {
              "name": "fullName",
              "type": "string"
            },
            {
              "name": "email",
              "type": "string"
            },
            {
              "name": "numberOfSession",
              "type": "int256"
            },
            {
              "name": "deviation",
              "type": "int256"
            }
          ],
          "name": "",
          "type": "tuple"
        }
      ],
      "payable": false,
      "stateMutability": "view",
      "type": "function"
    },
    {
      "constant": false,
      "inputs": [
        {
          "name": "_productName",
          "type": "string"
        },
        {
          "name": "_description",
          "type": "string"
        },
        {
          "name": "_images",
          "type": "string[]"
        }
      ],
      "name": "createSession",
      "outputs": [],
      "payable": false,
      "stateMutability": "nonpayable",
      "type": "function"
    },
    {
      "constant": true,
      "inputs": [
        {
          "name": "_account",
          "type": "address"
        }
      ],
      "name": "getDeviation",
      "outputs": [
        {
          "name": "",
          "type": "int256"
        }
      ],
      "payable": false,
      "stateMutability": "view",
      "type": "function"
    },
    {
      "constant": false,
      "inputs": [
        {
          "name": "_account",
          "type": "address"
        },
        {
          "name": "_deviation",
          "type": "int256"
        }
      ],
      "name": "setDeviation",
      "outputs": [],
      "payable": false,
      "stateMutability": "nonpayable",
      "type": "function"
    },
    {
      "constant": false,
      "inputs": [
        {
          "name": "_account",
          "type": "address"
        }
      ],
      "name": "incrementNumberOfSession",
      "outputs": [],
      "payable": false,
      "stateMutability": "nonpayable",
      "type": "function"
    },
    {
      "constant": true,
      "inputs": [
        {
          "name": "_account",
          "type": "address"
        }
      ],
      "name": "getNumberOfSession",
      "outputs": [
        {
          "name": "",
          "type": "int256"
        }
      ],
      "payable": false,
      "stateMutability": "view",
      "type": "function"
    },
    {
      "constant": true,
      "inputs": [],
      "name": "getAllSessionAddresses",
      "outputs": [
        {
          "name": "",
          "type": "address[]"
        }
      ],
      "payable": false,
      "stateMutability": "view",
      "type": "function"
    },
    {
      "constant": true,
      "inputs": [],
      "name": "getAllSessions",
      "outputs": [
        {
          "name": "",
          "type": "address[]"
        }
      ],
      "payable": false,
      "stateMutability": "view",
      "type": "function"
    },
    {
      "constant": true,
      "inputs": [],
      "name": "nSessions",
      "outputs": [
        {
          "name": "",
          "type": "uint256"
        }
      ],
      "payable": false,
      "stateMutability": "view",
      "type": "function"
    },
    {
      "constant": true,
      "inputs": [
        {
          "name": "_session",
          "type": "address"
        }
      ],
      "name": "getSessionDetail",
      "outputs": [
        {
          "name": "",
          "type": "string"
        },
        {
          "name": "",
          "type": "string"
        },
        {
          "name": "",
          "type": "string[]"
        },
        {
          "name": "",
          "type": "uint256"
        },
        {
          "name": "",
          "type": "int256"
        },
        {
          "name": "",
          "type": "uint256"
        }
      ],
      "payable": false,
      "stateMutability": "view",
      "type": "function"
    }
  ],
  "bytecode": "0x60806040523480156200001157600080fd5b50604051602080620057ea8339810180604052620000339190810190620000db565b336000806101000a81548173ffffffffffffffffffffffffffffffffffffffff021916908373ffffffffffffffffffffffffffffffffffffffff1602179055508060018190555033600560000160006101000a81548173ffffffffffffffffffffffffffffffffffffffff021916908373ffffffffffffffffffffffffffffffffffffffff1602179055505062000111565b6000620000d3825162000107565b905092915050565b600060208284031215620000ee57600080fd5b6000620000fe84828501620000c5565b91505092915050565b6000819050919050565b6156c980620001216000396000f30060806040526004361062000127576000357c0100000000000000000000000000000000000000000000000000000000900463ffffffff16806309e69ede146200012c578063195ec9ee1462000170578063454eed7d14620001a057806354ca06b414620001d05780636e9960c314620002005780638c99069814620002305780638d59cc02146200025e57806393631218146200028c578063a18e340414620002ba578063a33a08b914620002ea578063a3b9c9e5146200032e578063a68299341462000372578063b63bc3b414620003a0578063be33086814620003d0578063c8d72c7d1462000414578063d1bce2c71462000442578063d947ceb6146200048b578063dfafe10f14620004bb578063f390dd8614620004e9578063f851a4401462000517575b600080fd5b3480156200013957600080fd5b5062000158600480360362000152919081019062002022565b62000547565b60405162000167919062002a4f565b60405180910390f35b3480156200017d57600080fd5b506200018862000759565b604051620001979190620028eb565b60405180910390f35b348015620001ad57600080fd5b50620001b862000ab8565b604051620001c7919062002a97565b60405180910390f35b348015620001dd57600080fd5b50620001e862000ac5565b604051620001f79190620028c7565b60405180910390f35b3480156200020d57600080fd5b506200021862000b55565b604051620002279190620027cb565b60405180910390f35b3480156200023d57600080fd5b506200025c60048036036200025691908101906200204e565b62000b7e565b005b3480156200026b57600080fd5b506200028a60048036036200028491908101906200208f565b62000c5d565b005b3480156200029957600080fd5b50620002b86004803603620002b291908101906200218a565b62000d51565b005b348015620002c757600080fd5b50620002d262000e61565b604051620002e19190620028c7565b60405180910390f35b348015620002f757600080fd5b5062000316600480360362000310919081019062002022565b62000ef1565b6040516200032591906200290f565b60405180910390f35b3480156200033b57600080fd5b506200035a60048036036200035491908101906200230c565b62000f3d565b60405162000369919062002a4f565b60405180910390f35b3480156200037f57600080fd5b506200039e600480360362000398919081019062002022565b62001189565b005b348015620003ad57600080fd5b50620003b862001272565b604051620003c7919062002a97565b60405180910390f35b348015620003dd57600080fd5b50620003fc6004803603620003f6919081019062002022565b6200127f565b6040516200040b91906200290f565b60405180910390f35b3480156200042157600080fd5b506200044060048036036200043a919081019062002117565b6200135f565b005b3480156200044f57600080fd5b506200046e600480360362000468919081019062002022565b6200142f565b604051620004829695949392919062002967565b60405180910390f35b3480156200049857600080fd5b50620004a3620014f8565b604051620004b2919062002a73565b60405180910390f35b348015620004c857600080fd5b50620004e76004803603620004e1919081019062002022565b6200174b565b005b348015620004f657600080fd5b506200051560048036036200050f919081019062002022565b62001a9f565b005b3480156200052457600080fd5b506200052f62001b0e565b6040516200053e9190620027cb565b60405180910390f35b6200055162001b33565b600260008373ffffffffffffffffffffffffffffffffffffffff1673ffffffffffffffffffffffffffffffffffffffff16815260200190815260200160002060a060405190810160405290816000820160009054906101000a900473ffffffffffffffffffffffffffffffffffffffff1673ffffffffffffffffffffffffffffffffffffffff1673ffffffffffffffffffffffffffffffffffffffff168152602001600182018054600181600116156101000203166002900480601f0160208091040260200160405190810160405280929190818152602001828054600181600116156101000203166002900480156200068f5780601f1062000663576101008083540402835291602001916200068f565b820191906000526020600020905b8154815290600101906020018083116200067157829003601f168201915b50505050508152602001600282018054600181600116156101000203166002900480601f016020809104026020016040519081016040528092919081815260200182805460018160011615610100020316600290048015620007355780601f10620007095761010080835404028352916020019162000735565b820191906000526020600020905b8154815290600101906020018083116200071757829003601f168201915b50505050508152602001600382015481526020016004820154815250509050919050565b60608060008060009054906101000a900473ffffffffffffffffffffffffffffffffffffffff1673ffffffffffffffffffffffffffffffffffffffff163373ffffffffffffffffffffffffffffffffffffffff16141515620007f2576040517f08c379a0000000000000000000000000000000000000000000000000000000008152600401620007e99062002a2d565b60405180910390fd5b6003805490506040519080825280602002602001820160405280156200083557816020015b6200082162001b79565b815260200190600190039081620008175790505b509150600090505b60038054905081101562000ab057600260006003838154811015156200085f57fe5b9060005260206000200160009054906101000a900473ffffffffffffffffffffffffffffffffffffffff1673ffffffffffffffffffffffffffffffffffffffff1673ffffffffffffffffffffffffffffffffffffffff16815260200190815260200160002060a060405190810160405290816000820160009054906101000a900473ffffffffffffffffffffffffffffffffffffffff1673ffffffffffffffffffffffffffffffffffffffff1673ffffffffffffffffffffffffffffffffffffffff168152602001600182018054600181600116156101000203166002900480601f016020809104026020016040519081016040528092919081815260200182805460018160011615610100020316600290048015620009c35780601f106200099757610100808354040283529160200191620009c3565b820191906000526020600020905b815481529060010190602001808311620009a557829003601f168201915b50505050508152602001600282018054600181600116156101000203166002900480601f01602080910402602001604051908101604052809291908181526020018280546001816001161561010002031660029004801562000a695780601f1062000a3d5761010080835404028352916020019162000a69565b820191906000526020600020905b81548152906001019060200180831162000a4b57829003601f168201915b5050505050815260200160038201548152602001600482015481525050828281518110151562000a9557fe5b9060200190602002018190525080806001019150506200083d565b819250505090565b6000600480549050905090565b6060600480548060200260200160405190810160405280929190818152602001828054801562000b4b57602002820191906000526020600020905b8160009054906101000a900473ffffffffffffffffffffffffffffffffffffffff1673ffffffffffffffffffffffffffffffffffffffff168152602001906001019080831162000b00575b5050505050905090565b60008060009054906101000a900473ffffffffffffffffffffffffffffffffffffffff16905090565b6000809054906101000a900473ffffffffffffffffffffffffffffffffffffffff1673ffffffffffffffffffffffffffffffffffffffff163373ffffffffffffffffffffffffffffffffffffffff1614151562000c12576040517f08c379a000000000000000000000000000000000000000000000000000000000815260040162000c099062002a2d565b60405180910390fd5b80600260008473ffffffffffffffffffffffffffffffffffffffff1673ffffffffffffffffffffffffffffffffffffffff168152602001908152602001600020600401819055505050565b81600260008573ffffffffffffffffffffffffffffffffffffffff1673ffffffffffffffffffffffffffffffffffffffff168152602001908152602001600020600101908051906020019062000cb592919062001bbf565b5080600260008573ffffffffffffffffffffffffffffffffffffffff1673ffffffffffffffffffffffffffffffffffffffff168152602001908152602001600020600201908051906020019062000d0e92919062001bbf565b507f3bc63a1a560da32e0aab62ddb386a3bbfb7ac6d4531d5dd65fb1505a16a784b483838360405162000d4493929190620027e8565b60405180910390a1505050565b6000809054906101000a900473ffffffffffffffffffffffffffffffffffffffff1673ffffffffffffffffffffffffffffffffffffffff163373ffffffffffffffffffffffffffffffffffffffff1614151562000de5576040517f08c379a000000000000000000000000000000000000000000000000000000000815260040162000ddc9062002a2d565b60405180910390fd5b3083838362000df362001c46565b62000e02949392919062002833565b604051809103906000f08015801562000e1f573d6000803e3d6000fd5b50507f51c5e9dfa67879da5fab182fdd91303f7c5d1a38598aefb2216af7339ac32a13838360405162000e549291906200292c565b60405180910390a1505050565b6060600480548060200260200160405190810160405280929190818152602001828054801562000ee757602002820191906000526020600020905b8160009054906101000a900473ffffffffffffffffffffffffffffffffffffffff1673ffffffffffffffffffffffffffffffffffffffff168152602001906001019080831162000e9c575b5050505050905090565b6000600260008373ffffffffffffffffffffffffffffffffffffffff1673ffffffffffffffffffffffffffffffffffffffff168152602001908152602001600020600401549050919050565b62000f4762001b33565b6002600060038481548110151562000f5b57fe5b9060005260206000200160009054906101000a900473ffffffffffffffffffffffffffffffffffffffff1673ffffffffffffffffffffffffffffffffffffffff1673ffffffffffffffffffffffffffffffffffffffff16815260200190815260200160002060a060405190810160405290816000820160009054906101000a900473ffffffffffffffffffffffffffffffffffffffff1673ffffffffffffffffffffffffffffffffffffffff1673ffffffffffffffffffffffffffffffffffffffff168152602001600182018054600181600116156101000203166002900480601f016020809104026020016040519081016040528092919081815260200182805460018160011615610100020316600290048015620010bf5780601f106200109357610100808354040283529160200191620010bf565b820191906000526020600020905b815481529060010190602001808311620010a157829003601f168201915b50505050508152602001600282018054600181600116156101000203166002900480601f016020809104026020016040519081016040528092919081815260200182805460018160011615610100020316600290048015620011655780601f10620011395761010080835404028352916020019162001165565b820191906000526020600020905b8154815290600101906020018083116200114757829003601f168201915b50505050508152602001600382015481526020016004820154815250509050919050565b6000809054906101000a900473ffffffffffffffffffffffffffffffffffffffff1673ffffffffffffffffffffffffffffffffffffffff163373ffffffffffffffffffffffffffffffffffffffff161415156200121d576040517f08c379a0000000000000000000000000000000000000000000000000000000008152600401620012149062002a2d565b60405180910390fd5b600260008273ffffffffffffffffffffffffffffffffffffffff1673ffffffffffffffffffffffffffffffffffffffff1681526020019081526020016000206003016000815480929190600101919050555050565b6000600380549050905090565b60008060009054906101000a900473ffffffffffffffffffffffffffffffffffffffff1673ffffffffffffffffffffffffffffffffffffffff163373ffffffffffffffffffffffffffffffffffffffff1614151562001315576040517f08c379a00000000000000000000000000000000000000000000000000000000081526004016200130c9062002a2d565b60405180910390fd5b600260008373ffffffffffffffffffffffffffffffffffffffff1673ffffffffffffffffffffffffffffffffffffffff168152602001908152602001600020600301549050919050565b6000809054906101000a900473ffffffffffffffffffffffffffffffffffffffff1673ffffffffffffffffffffffffffffffffffffffff163373ffffffffffffffffffffffffffffffffffffffff16141515620013f3576040517f08c379a0000000000000000000000000000000000000000000000000000000008152600401620013ea9062002a2d565b60405180910390fd5b81600560010190805190602001906200140e92919062001bbf565b5080600560020190805190602001906200142a92919062001bbf565b505050565b60608060606000806000808790508073ffffffffffffffffffffffffffffffffffffffff1663f8cb00bf6040518163ffffffff167c0100000000000000000000000000000000000000000000000000000000028152600401600060405180830381600087803b158015620014a257600080fd5b505af1158015620014b7573d6000803e3d6000fd5b505050506040513d6000823e3d601f19601f82011682018060405250620014e291908101906200222b565b9650965096509650965096505091939550919395565b6200150262001c57565b6000809054906101000a900473ffffffffffffffffffffffffffffffffffffffff1673ffffffffffffffffffffffffffffffffffffffff163373ffffffffffffffffffffffffffffffffffffffff1614151562001596576040517f08c379a00000000000000000000000000000000000000000000000000000000081526004016200158d9062002a2d565b60405180910390fd5b6005606060405190810160405290816000820160009054906101000a900473ffffffffffffffffffffffffffffffffffffffff1673ffffffffffffffffffffffffffffffffffffffff1673ffffffffffffffffffffffffffffffffffffffff168152602001600182018054600181600116156101000203166002900480601f016020809104026020016040519081016040528092919081815260200182805460018160011615610100020316600290048015620016975780601f106200166b5761010080835404028352916020019162001697565b820191906000526020600020905b8154815290600101906020018083116200167957829003601f168201915b50505050508152602001600282018054600181600116156101000203166002900480601f0160208091040260200160405190810160405280929190818152602001828054600181600116156101000203166002900480156200173d5780601f1062001711576101008083540402835291602001916200173d565b820191906000526020600020905b8154815290600101906020018083116200171f57829003601f168201915b505050505081525050905090565b6000809054906101000a900473ffffffffffffffffffffffffffffffffffffffff1673ffffffffffffffffffffffffffffffffffffffff163373ffffffffffffffffffffffffffffffffffffffff16141515620017df576040517f08c379a0000000000000000000000000000000000000000000000000000000008152600401620017d69062002a2d565b60405180910390fd5b6001546003805490501015156200182d576040517f08c379a0000000000000000000000000000000000000000000000000000000008152600401620018249062002a0b565b60405180910390fd5b6000809054906101000a900473ffffffffffffffffffffffffffffffffffffffff1673ffffffffffffffffffffffffffffffffffffffff168173ffffffffffffffffffffffffffffffffffffffff1614151515620018c2576040517f08c379a0000000000000000000000000000000000000000000000000000000008152600401620018b990620029e9565b60405180910390fd5b60a0604051908101604052808273ffffffffffffffffffffffffffffffffffffffff1681526020016020604051908101604052806000815250815260200160206040519081016040528060008152508152602001600081526020016000815250600260008373ffffffffffffffffffffffffffffffffffffffff1673ffffffffffffffffffffffffffffffffffffffff16815260200190815260200160002060008201518160000160006101000a81548173ffffffffffffffffffffffffffffffffffffffff021916908373ffffffffffffffffffffffffffffffffffffffff1602179055506020820151816001019080519060200190620019c692919062001c8f565b506040820151816002019080519060200190620019e592919062001c8f565b50606082015181600301556080820151816004015590505060038190806001815401808255809150509060018203906000526020600020016000909192909190916101000a81548173ffffffffffffffffffffffffffffffffffffffff021916908373ffffffffffffffffffffffffffffffffffffffff160217905550507f7a274ad5ebae6fdc80650d34a4e01c874e099afaca3b6e8c896edc5b9126651b8160405162001a94919062002895565b60405180910390a150565b600081905060048190806001815401808255809150509060018203906000526020600020016000909192909190916101000a81548173ffffffffffffffffffffffffffffffffffffffff021916908373ffffffffffffffffffffffffffffffffffffffff160217905550505050565b6000809054906101000a900473ffffffffffffffffffffffffffffffffffffffff1681565b60a060405190810160405280600073ffffffffffffffffffffffffffffffffffffffff168152602001606081526020016060815260200160008152602001600081525090565b60a060405190810160405280600073ffffffffffffffffffffffffffffffffffffffff168152602001606081526020016060815260200160008152602001600081525090565b828054600181600116156101000203166002900490600052602060002090601f016020900481019282601f1062001c0257805160ff191683800117855562001c33565b8280016001018555821562001c33579182015b8281111562001c3257825182559160200191906001019062001c15565b5b50905062001c42919062001d16565b5090565b6040516129e78062002ca983390190565b606060405190810160405280600073ffffffffffffffffffffffffffffffffffffffff16815260200160608152602001606081525090565b828054600181600116156101000203166002900490600052602060002090601f016020900481019282601f1062001cd257805160ff191683800117855562001d03565b8280016001018555821562001d03579182015b8281111562001d0257825182559160200191906001019062001ce5565b5b50905062001d12919062001d16565b5090565b62001d3b91905b8082111562001d3757600081600090555060010162001d1d565b5090565b90565b600062001d4c823562002c1e565b905092915050565b600082601f830112151562001d6857600080fd5b813562001d7f62001d798262002ae2565b62002ab4565b9150818183526020840193506020810190508360005b8381101562001dc9578135860162001dae888262001e7e565b84526020840193506020830192505060018101905062001d95565b5050505092915050565b600082601f830112151562001de757600080fd5b815162001dfe62001df88262002ae2565b62002ab4565b9150818183526020840193506020810190508360005b8381101562001e48578151860162001e2d888262001edc565b84526020840193506020830192505060018101905062001e14565b5050505092915050565b600062001e60823562002c3e565b905092915050565b600062001e76825162002c3e565b905092915050565b600082601f830112151562001e9257600080fd5b813562001ea962001ea38262002b0b565b62002ab4565b9150808252602083016020830185838301111562001ec657600080fd5b62001ed383828462002c52565b50505092915050565b600082601f830112151562001ef057600080fd5b815162001f0762001f018262002b0b565b62002ab4565b9150808252602083016020830185838301111562001f2457600080fd5b62001f3183828462002c61565b50505092915050565b600082601f830112151562001f4e57600080fd5b813562001f6562001f5f8262002b38565b62002ab4565b9150808252602083016020830185838301111562001f8257600080fd5b62001f8f83828462002c52565b50505092915050565b600082601f830112151562001fac57600080fd5b815162001fc362001fbd8262002b38565b62002ab4565b9150808252602083016020830185838301111562001fe057600080fd5b62001fed83828462002c61565b50505092915050565b600062002004823562002c48565b905092915050565b60006200201a825162002c48565b905092915050565b6000602082840312156200203557600080fd5b6000620020458482850162001d3e565b91505092915050565b600080604083850312156200206257600080fd5b6000620020728582860162001d3e565b9250506020620020858582860162001e52565b9150509250929050565b600080600060608486031215620020a557600080fd5b6000620020b58682870162001d3e565b935050602084013567ffffffffffffffff811115620020d357600080fd5b620020e18682870162001f3a565b925050604084013567ffffffffffffffff811115620020ff57600080fd5b6200210d8682870162001f3a565b9150509250925092565b600080604083850312156200212b57600080fd5b600083013567ffffffffffffffff8111156200214657600080fd5b620021548582860162001f3a565b925050602083013567ffffffffffffffff8111156200217257600080fd5b620021808582860162001f3a565b9150509250929050565b600080600060608486031215620021a057600080fd5b600084013567ffffffffffffffff811115620021bb57600080fd5b620021c98682870162001f3a565b935050602084013567ffffffffffffffff811115620021e757600080fd5b620021f58682870162001f3a565b925050604084013567ffffffffffffffff8111156200221357600080fd5b620022218682870162001d54565b9150509250925092565b60008060008060008060c087890312156200224557600080fd5b600087015167ffffffffffffffff8111156200226057600080fd5b6200226e89828a0162001f98565b965050602087015167ffffffffffffffff8111156200228c57600080fd5b6200229a89828a0162001f98565b955050604087015167ffffffffffffffff811115620022b857600080fd5b620022c689828a0162001dd3565b9450506060620022d989828a016200200c565b9350506080620022ec89828a0162001e68565b92505060a0620022ff89828a016200200c565b9150509295509295509295565b6000602082840312156200231f57600080fd5b60006200232f8482850162001ff6565b91505092915050565b620023438162002bea565b82525050565b6000620023568262002b8c565b8084526020840193506200236a8362002b65565b60005b82811015620023a2576200238386835162002338565b6200238e8262002bc3565b91506020860195506001810190506200236d565b50849250505092915050565b6000620023bb8262002b97565b80845260208401935083602082028501620023d68562002b72565b60005b8481101562002415578383038852620023f4838351620024eb565b9250620024018262002bd0565b9150602088019750600181019050620023d9565b508196508694505050505092915050565b6000620024338262002ba2565b808452602084019350836020820285016200244e8562002b7f565b60005b848110156200248d5783830388526200246c838351620026d6565b9250620024798262002bdd565b915060208801975060018101905062002451565b508196508694505050505092915050565b620024a98162002c0a565b82525050565b6000620024bc8262002bb8565b808452620024d281602086016020860162002c61565b620024dd8162002c97565b602085010191505092915050565b6000620024f88262002bad565b8084526200250e81602086016020860162002c61565b620025198162002c97565b602085010191505092915050565b6000602e82527f43616e206e6f74206164642061646d696e206164647265737320746f2070617260208301527f7469636970616e74206c697374210000000000000000000000000000000000006040830152606082019050919050565b6000601582527f4f6e6c79206372656174652031302075736572732100000000000000000000006020830152604082019050919050565b6000602582527f546869732066756e6374696f6e206f6e6c792061646d696e2063616e2065786560208301527f63757465210000000000000000000000000000000000000000000000000000006040830152606082019050919050565b6000601882527f416464207061727469636970616e7420737563636573732100000000000000006020830152604082019050919050565b600060a08301600083015162002669600086018262002338565b5060208301518482036020860152620026838282620024eb565b915050604083015184820360408601526200269f8282620024eb565b9150506060830151620026b660608601826200249e565b506080830151620026cb60808601826200249e565b508091505092915050565b600060a083016000830151620026f0600086018262002338565b50602083015184820360208601526200270a8282620024eb565b91505060408301518482036040860152620027268282620024eb565b91505060608301516200273d60608601826200249e565b5060808301516200275260808601826200249e565b508091505092915050565b600060608301600083015162002777600086018262002338565b5060208301518482036020860152620027918282620024eb565b91505060408301518482036040860152620027ad8282620024eb565b9150508091505092915050565b620027c58162002c14565b82525050565b6000602082019050620027e2600083018462002338565b92915050565b6000606082019050620027ff600083018662002338565b8181036020830152620028138185620024af565b90508181036040830152620028298184620024af565b9050949350505050565b60006080820190506200284a600083018762002338565b81810360208301526200285e8186620024af565b90508181036040830152620028748185620024af565b905081810360608301526200288a8184620023ae565b905095945050505050565b6000604082019050620028ac600083018462002338565b8181036020830152620028bf8162002618565b905092915050565b60006020820190508181036000830152620028e3818462002349565b905092915050565b6000602082019050818103600083015262002907818462002426565b905092915050565b60006020820190506200292660008301846200249e565b92915050565b60006040820190508181036000830152620029488185620024af565b905081810360208301526200295e8184620024af565b90509392505050565b600060c0820190508181036000830152620029838189620024af565b90508181036020830152620029998188620024af565b90508181036040830152620029af8187620023ae565b9050620029c06060830186620027ba565b620029cf60808301856200249e565b620029de60a0830184620027ba565b979650505050505050565b6000602082019050818103600083015262002a048162002527565b9050919050565b6000602082019050818103600083015262002a268162002584565b9050919050565b6000602082019050818103600083015262002a4881620025bb565b9050919050565b6000602082019050818103600083015262002a6b81846200264f565b905092915050565b6000602082019050818103600083015262002a8f81846200275d565b905092915050565b600060208201905062002aae6000830184620027ba565b92915050565b6000604051905081810181811067ffffffffffffffff8211171562002ad857600080fd5b8060405250919050565b600067ffffffffffffffff82111562002afa57600080fd5b602082029050602081019050919050565b600067ffffffffffffffff82111562002b2357600080fd5b601f19601f8301169050602081019050919050565b600067ffffffffffffffff82111562002b5057600080fd5b601f19601f8301169050602081019050919050565b6000602082019050919050565b6000602082019050919050565b6000602082019050919050565b600081519050919050565b600081519050919050565b600081519050919050565b600081519050919050565b600081519050919050565b6000602082019050919050565b6000602082019050919050565b6000602082019050919050565b600073ffffffffffffffffffffffffffffffffffffffff82169050919050565b6000819050919050565b6000819050919050565b600073ffffffffffffffffffffffffffffffffffffffff82169050919050565b6000819050919050565b6000819050919050565b82818337600083830152505050565b60005b8381101562002c8157808201518184015260208101905062002c64565b8381111562002c91576000848401525b50505050565b6000601f19601f8301169050919050560060806040523480156200001157600080fd5b50604051620029e7380380620029e7833981018060405262000037919081019062000595565b836000806101000a81548173ffffffffffffffffffffffffffffffffffffffff021916908373ffffffffffffffffffffffffffffffffffffffff16021790555083600160006101000a81548173ffffffffffffffffffffffffffffffffffffffff021916908373ffffffffffffffffffffffffffffffffffffffff1602179055508260029080519060200190620000d09291906200022a565b508160039080519060200190620000e99291906200022a565b50806004908051906020019062000102929190620002b1565b50600060058190555060006006819055506000600760006101000a81548160ff021916908360028111156200013357fe5b0217905550600160009054906101000a900473ffffffffffffffffffffffffffffffffffffffff1673ffffffffffffffffffffffffffffffffffffffff1663f390dd86306040518263ffffffff167c0100000000000000000000000000000000000000000000000000000000028152600401620001b19190620006d0565b600060405180830381600087803b158015620001cc57600080fd5b505af1158015620001e1573d6000803e3d6000fd5b505050507f9fe7cb314c08d72e270589aeb0470bb4335133b90e7dfd6f84ed11661496dd37838360405162000218929190620006ed565b60405180910390a15050505062000880565b828054600181600116156101000203166002900490600052602060002090601f016020900481019282601f106200026d57805160ff19168380011785556200029e565b828001600101855582156200029e579182015b828111156200029d57825182559160200191906001019062000280565b5b509050620002ad919062000318565b5090565b82805482825590600052602060002090810192821562000305579160200282015b8281111562000304578251829080519060200190620002f392919062000340565b5091602001919060010190620002d2565b5b509050620003149190620003c7565b5090565b6200033d91905b80821115620003395760008160009055506001016200031f565b5090565b90565b828054600181600116156101000203166002900490600052602060002090601f016020900481019282601f106200038357805160ff1916838001178555620003b4565b82800160010185558215620003b4579182015b82811115620003b357825182559160200191906001019062000396565b5b509050620003c3919062000318565b5090565b620003f591905b80821115620003f15760008181620003e79190620003f8565b50600101620003ce565b5090565b90565b50805460018160011615610100020316600290046000825580601f1062000420575062000441565b601f01602090049060005260206000209081019062000440919062000318565b5b50565b600062000452825162000819565b905092915050565b600082601f83011215156200046e57600080fd5b8151620004856200047f826200076b565b6200073d565b9150818183526020840193506020810190508360005b83811015620004cf5781518601620004b48882620004d9565b8452602084019350602083019250506001810190506200049b565b5050505092915050565b600082601f8301121515620004ed57600080fd5b815162000504620004fe8262000794565b6200073d565b915080825260208301602083018583830111156200052157600080fd5b6200052e83828462000839565b50505092915050565b600082601f83011215156200054b57600080fd5b8151620005626200055c82620007c1565b6200073d565b915080825260208301602083018583830111156200057f57600080fd5b6200058c83828462000839565b50505092915050565b60008060008060808587031215620005ac57600080fd5b6000620005bc8782880162000444565b945050602085015167ffffffffffffffff811115620005da57600080fd5b620005e88782880162000537565b935050604085015167ffffffffffffffff8111156200060657600080fd5b620006148782880162000537565b925050606085015167ffffffffffffffff8111156200063257600080fd5b62000640878288016200045a565b91505092959194509250565b6200065781620007f9565b82525050565b60006200066a82620007ee565b8084526200068081602086016020860162000839565b6200068b816200086f565b602085010191505092915050565b6000601782527f4372656174652073657373696f6e2073756363657373210000000000000000006020830152604082019050919050565b6000602082019050620006e760008301846200064c565b92915050565b600060608201905081810360008301526200070981856200065d565b905081810360208301526200071f81846200065d565b90508181036040830152620007348162000699565b90509392505050565b6000604051905081810181811067ffffffffffffffff821117156200076157600080fd5b8060405250919050565b600067ffffffffffffffff8211156200078357600080fd5b602082029050602081019050919050565b600067ffffffffffffffff821115620007ac57600080fd5b601f19601f8301169050602081019050919050565b600067ffffffffffffffff821115620007d957600080fd5b601f19601f8301169050602081019050919050565b600081519050919050565b600073ffffffffffffffffffffffffffffffffffffffff82169050919050565b600073ffffffffffffffffffffffffffffffffffffffff82169050919050565b60005b83811015620008595780820151818401526020810190506200083c565b8381111562000869576000848401525b50505050565b6000601f19601f8301169050919050565b61215780620008906000396000f300608060405260043610610099576000357c0100000000000000000000000000000000000000000000000000000000900463ffffffff16806306f4bcbf1461009e5780630e973501146100b557806321ab391e146100de5780635a53ac8a146100f5578063629db9691461011e578063d270e7ab14610147578063e03a292514610172578063f8cb00bf146101af578063fe0ae165146101df575b600080fd5b3480156100aa57600080fd5b506100b36101f6565b005b3480156100c157600080fd5b506100dc60048036036100d791908101906119d5565b61037e565b005b3480156100ea57600080fd5b506100f361052e565b005b34801561010157600080fd5b5061011c6004803603610117919081019061191e565b61083f565b005b34801561012a57600080fd5b5061014560048036036101409190810190611970565b610c1c565b005b34801561015357600080fd5b5061015c610f8b565b6040516101699190611d77565b60405180910390f35b34801561017e57600080fd5b506101996004803603610194919081019061191e565b610fb0565b6040516101a69190611de9565b60405180910390f35b3480156101bb57600080fd5b506101c461118e565b6040516101d696959493929190611e04565b60405180910390f35b3480156101eb57600080fd5b506101f46113ee565b005b600160009054906101000a900473ffffffffffffffffffffffffffffffffffffffff1673ffffffffffffffffffffffffffffffffffffffff16636e9960c36040518163ffffffff167c0100000000000000000000000000000000000000000000000000000000028152600401602060405180830381600087803b15801561027c57600080fd5b505af1158015610290573d6000803e3d6000fd5b505050506040513d601f19601f820116820180604052506102b49190810190611947565b73ffffffffffffffffffffffffffffffffffffffff163373ffffffffffffffffffffffffffffffffffffffff16141515610323576040517f08c379a000000000000000000000000000000000000000000000000000000000815260040161031a90611f44565b60405180910390fd5b6002600760006101000a81548160ff0219169083600281111561034257fe5b02179055507f66fc0679144ec0d595a06ffa5dea0ca044e705338cf1fe9ae00a32083da9b81460405161037490611f04565b60405180910390a1565b600160009054906101000a900473ffffffffffffffffffffffffffffffffffffffff1673ffffffffffffffffffffffffffffffffffffffff16636e9960c36040518163ffffffff167c0100000000000000000000000000000000000000000000000000000000028152600401602060405180830381600087803b15801561040457600080fd5b505af1158015610418573d6000803e3d6000fd5b505050506040513d601f19601f8201168201806040525061043c9190810190611947565b73ffffffffffffffffffffffffffffffffffffffff163373ffffffffffffffffffffffffffffffffffffffff161415156104ab576040517f08c379a00000000000000000000000000000000000000000000000000000000081526004016104a290611f44565b60405180910390fd5b82600290805190602001906104c19291906115b3565b5081600390805190602001906104d89291906115b3565b5080600490805190602001906104ef929190611633565b507f2a5d6d5b2dec1b940dec7f561cf0b8cd2965d265ed7c371349e1d15979b075ab8383604051610521929190611e7a565b60405180910390a1505050565b6000806000806000600160009054906101000a900473ffffffffffffffffffffffffffffffffffffffff1673ffffffffffffffffffffffffffffffffffffffff16636e9960c36040518163ffffffff167c0100000000000000000000000000000000000000000000000000000000028152600401602060405180830381600087803b1580156105bc57600080fd5b505af11580156105d0573d6000803e3d6000fd5b505050506040513d601f19601f820116820180604052506105f49190810190611947565b73ffffffffffffffffffffffffffffffffffffffff163373ffffffffffffffffffffffffffffffffffffffff16141515610663576040517f08c379a000000000000000000000000000000000000000000000000000000000815260040161065a90611f44565b60405180910390fd5b600094506000935060009250600091505b60098054905082101561081957600160009054906101000a900473ffffffffffffffffffffffffffffffffffffffff1673ffffffffffffffffffffffffffffffffffffffff1663a33a08b96009848154811015156106ce57fe5b9060005260206000200160009054906101000a900473ffffffffffffffffffffffffffffffffffffffff166040518263ffffffff167c01000000000000000000000000000000000000000000000000000000000281526004016107319190611d77565b602060405180830381600087803b15801561074b57600080fd5b505af115801561075f573d6000803e3d6000fd5b505050506040513d601f19601f8201168201806040525061078391908101906119ac565b9050806064036008600060098581548110151561079c57fe5b9060005260206000200160009054906101000a900473ffffffffffffffffffffffffffffffffffffffff1673ffffffffffffffffffffffffffffffffffffffff1673ffffffffffffffffffffffffffffffffffffffff16815260200190815260200160002054028401935080830192508180600101925050610674565b82600980549050606402038481151561082e57fe5b059450846005819055505050505050565b6000806000600160009054906101000a900473ffffffffffffffffffffffffffffffffffffffff1673ffffffffffffffffffffffffffffffffffffffff16636e9960c36040518163ffffffff167c0100000000000000000000000000000000000000000000000000000000028152600401602060405180830381600087803b1580156108ca57600080fd5b505af11580156108de573d6000803e3d6000fd5b505050506040513d601f19601f820116820180604052506109029190810190611947565b73ffffffffffffffffffffffffffffffffffffffff163373ffffffffffffffffffffffffffffffffffffffff16141515610971576040517f08c379a000000000000000000000000000000000000000000000000000000000815260040161096890611f44565b60405180910390fd5b60006006541315156109b8576040517f08c379a00000000000000000000000000000000000000000000000000000000081526004016109af90611f64565b60405180910390fd5b600160009054906101000a900473ffffffffffffffffffffffffffffffffffffffff1673ffffffffffffffffffffffffffffffffffffffff1663a33a08b9856040518263ffffffff167c0100000000000000000000000000000000000000000000000000000000028152600401610a2f9190611d77565b602060405180830381600087803b158015610a4957600080fd5b505af1158015610a5d573d6000803e3d6000fd5b505050506040513d601f19601f82011682018060405250610a8191908101906119ac565b9250610a8c84610fb0565b600160009054906101000a900473ffffffffffffffffffffffffffffffffffffffff1673ffffffffffffffffffffffffffffffffffffffff1663be330868866040518263ffffffff167c0100000000000000000000000000000000000000000000000000000000028152600401610b039190611d77565b602060405180830381600087803b158015610b1d57600080fd5b505af1158015610b31573d6000803e3d6000fd5b505050506040513d601f19601f82011682018060405250610b5591908101906119ac565b84020191506001830182811515610b6857fe5b059050600160009054906101000a900473ffffffffffffffffffffffffffffffffffffffff1673ffffffffffffffffffffffffffffffffffffffff16638c99069885836040518363ffffffff167c0100000000000000000000000000000000000000000000000000000000028152600401610be4929190611d92565b600060405180830381600087803b158015610bfe57600080fd5b505af1158015610c12573d6000803e3d6000fd5b5050505050505050565b600160009054906101000a900473ffffffffffffffffffffffffffffffffffffffff1673ffffffffffffffffffffffffffffffffffffffff16636e9960c36040518163ffffffff167c0100000000000000000000000000000000000000000000000000000000028152600401602060405180830381600087803b158015610ca257600080fd5b505af1158015610cb6573d6000803e3d6000fd5b505050506040513d601f19601f82011682018060405250610cda9190810190611947565b73ffffffffffffffffffffffffffffffffffffffff163373ffffffffffffffffffffffffffffffffffffffff1614151515610d4a576040517f08c379a0000000000000000000000000000000000000000000000000000000008152600401610d4190611ee4565b60405180910390fd5b60016002811115610d5757fe5b600760009054906101000a900460ff166002811115610d7257fe5b141515610db4576040517f08c379a0000000000000000000000000000000000000000000000000000000008152600401610dab90611ec4565b60405180910390fd5b80600860008473ffffffffffffffffffffffffffffffffffffffff1673ffffffffffffffffffffffffffffffffffffffff168152602001908152602001600020819055506000600860008473ffffffffffffffffffffffffffffffffffffffff1673ffffffffffffffffffffffffffffffffffffffff168152602001908152602001600020541415610f505760098290806001815401808255809150509060018203906000526020600020016000909192909190916101000a81548173ffffffffffffffffffffffffffffffffffffffff021916908373ffffffffffffffffffffffffffffffffffffffff16021790555050600160009054906101000a900473ffffffffffffffffffffffffffffffffffffffff1673ffffffffffffffffffffffffffffffffffffffff1663a6829934836040518263ffffffff167c0100000000000000000000000000000000000000000000000000000000028152600401610f1d9190611d77565b600060405180830381600087803b158015610f3757600080fd5b505af1158015610f4b573d6000803e3d6000fd5b505050505b7f47650289511cf2cfb9b8b559f6e750022263d3a2db072b47698d32df3ac0b80582604051610f7f9190611dbb565b60405180910390a15050565b6000809054906101000a900473ffffffffffffffffffffffffffffffffffffffff1681565b600080600160009054906101000a900473ffffffffffffffffffffffffffffffffffffffff1673ffffffffffffffffffffffffffffffffffffffff16636e9960c36040518163ffffffff167c0100000000000000000000000000000000000000000000000000000000028152600401602060405180830381600087803b15801561103957600080fd5b505af115801561104d573d6000803e3d6000fd5b505050506040513d601f19601f820116820180604052506110719190810190611947565b73ffffffffffffffffffffffffffffffffffffffff163373ffffffffffffffffffffffffffffffffffffffff161415156110e0576040517f08c379a00000000000000000000000000000000000000000000000000000000081526004016110d790611f44565b60405180910390fd5b6000600654131515611127576040517f08c379a000000000000000000000000000000000000000000000000000000000815260040161111e90611f64565b60405180910390fd5b611173600860008573ffffffffffffffffffffffffffffffffffffffff1673ffffffffffffffffffffffffffffffffffffffff1681526020019081526020016000205460065403611576565b905060646006548281151561118457fe5b0502915050919050565b60608060606000806000600260036004600554600654600760009054906101000a900460ff1660028111156111bf57fe5b858054600181600116156101000203166002900480601f0160208091040260200160405190810160405280929190818152602001828054600181600116156101000203166002900480156112545780601f1061122957610100808354040283529160200191611254565b820191906000526020600020905b81548152906001019060200180831161123757829003601f168201915b50505050509550848054600181600116156101000203166002900480601f0160208091040260200160405190810160405280929190818152602001828054600181600116156101000203166002900480156112f05780601f106112c5576101008083540402835291602001916112f0565b820191906000526020600020905b8154815290600101906020018083116112d357829003601f168201915b5050505050945083805480602002602001604051908101604052809291908181526020016000905b828210156113d4578382906000526020600020018054600181600116156101000203166002900480601f0160208091040260200160405190810160405280929190818152602001828054600181600116156101000203166002900480156113c05780601f10611395576101008083540402835291602001916113c0565b820191906000526020600020905b8154815290600101906020018083116113a357829003601f168201915b505050505081526020019060010190611318565b505050509350955095509550955095509550909192939495565b600160009054906101000a900473ffffffffffffffffffffffffffffffffffffffff1673ffffffffffffffffffffffffffffffffffffffff16636e9960c36040518163ffffffff167c0100000000000000000000000000000000000000000000000000000000028152600401602060405180830381600087803b15801561147457600080fd5b505af1158015611488573d6000803e3d6000fd5b505050506040513d601f19601f820116820180604052506114ac9190810190611947565b73ffffffffffffffffffffffffffffffffffffffff163373ffffffffffffffffffffffffffffffffffffffff1614151561151b576040517f08c379a000000000000000000000000000000000000000000000000000000000815260040161151290611f44565b60405180910390fd5b6001600760006101000a81548160ff0219169083600281111561153a57fe5b02179055507f2e68e6b497b364e88ad96081ce7fccdb657836812191c7527cf99074df4fde0b60405161156c90611f24565b60405180910390a1565b6000808212156115aa577fffffffffffffffffffffffffffffffffffffffffffffffffffffffffffffffff820290506115ae565b8190505b919050565b828054600181600116156101000203166002900490600052602060002090601f016020900481019282601f106115f457805160ff1916838001178555611622565b82800160010185558215611622579182015b82811115611621578251825591602001919060010190611606565b5b50905061162f9190611693565b5090565b828054828255906000526020600020908101928215611682579160200282015b828111156116815782518290805190602001906116719291906116b8565b5091602001919060010190611653565b5b50905061168f9190611738565b5090565b6116b591905b808211156116b1576000816000905550600101611699565b5090565b90565b828054600181600116156101000203166002900490600052602060002090601f016020900481019282601f106116f957805160ff1916838001178555611727565b82800160010185558215611727579182015b8281111561172657825182559160200191906001019061170b565b5b5090506117349190611693565b5090565b61176191905b8082111561175d57600081816117549190611764565b5060010161173e565b5090565b90565b50805460018160011615610100020316600290046000825580601f1061178a57506117a9565b601f0160209004906000526020600020908101906117a89190611693565b5b50565b60006117b882356120a0565b905092915050565b60006117cc82516120a0565b905092915050565b600082601f83011215156117e757600080fd5b81356117fa6117f582611fb1565b611f84565b9150818183526020840193506020810190508360005b8381101561184057813586016118268882611872565b845260208401935060208301925050600181019050611810565b5050505092915050565b600061185682356120c0565b905092915050565b600061186a82516120c0565b905092915050565b600082601f830112151561188557600080fd5b813561189861189382611fd9565b611f84565b915080825260208301602083018583830111156118b457600080fd5b6118bf8382846120ca565b50505092915050565b600082601f83011215156118db57600080fd5b81356118ee6118e982612005565b611f84565b9150808252602083016020830185838301111561190a57600080fd5b6119158382846120ca565b50505092915050565b60006020828403121561193057600080fd5b600061193e848285016117ac565b91505092915050565b60006020828403121561195957600080fd5b6000611967848285016117c0565b91505092915050565b6000806040838503121561198357600080fd5b6000611991858286016117ac565b92505060206119a28582860161184a565b9150509250929050565b6000602082840312156119be57600080fd5b60006119cc8482850161185e565b91505092915050565b6000806000606084860312156119ea57600080fd5b600084013567ffffffffffffffff811115611a0457600080fd5b611a10868287016118c8565b935050602084013567ffffffffffffffff811115611a2d57600080fd5b611a39868287016118c8565b925050604084013567ffffffffffffffff811115611a5657600080fd5b611a62868287016117d4565b9150509250925092565b611a758161206c565b82525050565b6000611a868261203e565b80845260208401935083602082028501611a9f85612031565b60005b84811015611ad8578383038852611aba838351611b2e565b9250611ac58261205f565b9150602088019750600181019050611aa2565b508196508694505050505092915050565b611af28161208c565b82525050565b6000611b0382612054565b808452611b178160208601602086016120d9565b611b208161210c565b602085010191505092915050565b6000611b3982612049565b808452611b4d8160208601602086016120d9565b611b568161210c565b602085010191505092915050565b6000601a82527f53657373696f6e206973206e6f7420696e2070726f67726573730000000000006020830152604082019050919050565b6000602b82527f546869732066756e6374696f6e206f6e6c79207061727469636970616e74206360208301527f616e2065786563757465210000000000000000000000000000000000000000006040830152606082019050919050565b6000601782527f5570646174652073657373696f6e2073756363657373210000000000000000006020830152604082019050919050565b6000601682527f436c6f73652073657373696f6e207375636365737321000000000000000000006020830152604082019050919050565b6000601682527f53746172742073657373696f6e207375636365737321000000000000000000006020830152604082019050919050565b6000602582527f546869732066756e6374696f6e206f6e6c792061646d696e2063616e2065786560208301527f63757465210000000000000000000000000000000000000000000000000000006040830152606082019050919050565b6000601082527f50726963696e67207375636365737321000000000000000000000000000000006020830152604082019050919050565b6000601b82527f46696e616c207072696365206d757374207365742076616c75652100000000006020830152604082019050919050565b611d7181612096565b82525050565b6000602082019050611d8c6000830184611a6c565b92915050565b6000604082019050611da76000830185611a6c565b611db46020830184611ae9565b9392505050565b6000604082019050611dd06000830184611a6c565b8181036020830152611de181611cfa565b905092915050565b6000602082019050611dfe6000830184611ae9565b92915050565b600060c0820190508181036000830152611e1e8189611af8565b90508181036020830152611e328188611af8565b90508181036040830152611e468187611a7b565b9050611e556060830186611d68565b611e626080830185611ae9565b611e6f60a0830184611d68565b979650505050505050565b60006060820190508181036000830152611e948185611af8565b90508181036020830152611ea88184611af8565b90508181036040830152611ebb81611bf8565b90509392505050565b60006020820190508181036000830152611edd81611b64565b9050919050565b60006020820190508181036000830152611efd81611b9b565b9050919050565b60006020820190508181036000830152611f1d81611c2f565b9050919050565b60006020820190508181036000830152611f3d81611c66565b9050919050565b60006020820190508181036000830152611f5d81611c9d565b9050919050565b60006020820190508181036000830152611f7d81611d31565b9050919050565b6000604051905081810181811067ffffffffffffffff82111715611fa757600080fd5b8060405250919050565b600067ffffffffffffffff821115611fc857600080fd5b602082029050602081019050919050565b600067ffffffffffffffff821115611ff057600080fd5b601f19601f8301169050602081019050919050565b600067ffffffffffffffff82111561201c57600080fd5b601f19601f8301169050602081019050919050565b6000602082019050919050565b600081519050919050565b600081519050919050565b600081519050919050565b6000602082019050919050565b600073ffffffffffffffffffffffffffffffffffffffff82169050919050565b6000819050919050565b6000819050919050565b600073ffffffffffffffffffffffffffffffffffffffff82169050919050565b6000819050919050565b82818337600083830152505050565b60005b838110156120f75780820151818401526020810190506120dc565b83811115612106576000848401525b50505050565b6000601f19601f83011690509190505600a265627a7a72305820f504f96bd259f60aaa76853e5215282e81677c7394e79192adf6ae832ebdd3916c6578706572696d656e74616cf50037a265627a7a723058209a2642b0430cdff0261f0ae0e983e20f959b11ae6bcafc48c7942a8a7db175d56c6578706572696d656e74616cf50037",
  "source": "// SPDX-License-Identifier: MIT\r\npragma solidity ^0.4.26;\r\npragma experimental ABIEncoderV2;\r\nimport \"./Session.sol\";\r\n\r\ncontract Main is IMain {\r\n    // Structure to hold details of Bidder\r\n    struct IParticipant {\r\n        // TODO\r\n        address account;\r\n        string fullName;\r\n        string email;\r\n        int numberOfSession;\r\n        int deviation;\r\n    }\r\n\r\n    // Struct IUser:\r\n    struct IUser {\r\n        address account;\r\n        string fullName;\r\n        string email;\r\n    }\r\n\r\n    address public admin;\r\n\r\n    // TODO: Variables\r\n    uint private maxOfUser;\r\n    mapping(address => IParticipant) private mapParticipants;\r\n    address[] private participantItems;\r\n    address[] private sessions;\r\n    IUser private adminProfile;\r\n\r\n    constructor(uint _maxOfUser) public {\r\n        admin = msg.sender;\r\n        maxOfUser = _maxOfUser;\r\n        adminProfile.account = msg.sender;\r\n    }\r\n\r\n    // Add a Session Contract address into Main Contract. Use to link Session with Main\r\n    function addSession(address session) public {\r\n        // TODO\r\n        Session newSession = Session(session);\r\n        sessions.push(address(newSession));\r\n    }\r\n\r\n    // TODO: Functions\r\n    // Get admin.\r\n    function getAdmin() public view returns (address) {\r\n        return admin;\r\n    }\r\n\r\n    // Update admin profile.\r\n    function updateAdminProfile(string _fullName, string _email) public onlyAdmin {\r\n        adminProfile.fullName = _fullName;\r\n        adminProfile.email = _email;\r\n    }\r\n\r\n    // Get admin profile.\r\n    function getAdminProfile() public onlyAdmin view returns(IUser memory) {\r\n        return adminProfile;\r\n    }\r\n\r\n    // Add participant.\r\n    function addParticipant(address _account) public onlyAdmin onlyInNumberOfRangeParticipant {\r\n        require(_account != admin, \"Can not add admin address to participant list!\");\r\n        mapParticipants[_account] = IParticipant(_account, \"\", \"\", 0, 0);\r\n        participantItems.push(_account);\r\n        emit AddParticipant(_account, \"Add participant success!\");\r\n    }\r\n\r\n    // Update participant.\r\n    function register(address _account, string memory _fullName, string memory _email) public {\r\n        mapParticipants[_account].fullName = _fullName;\r\n        mapParticipants[_account].email = _email;\r\n        emit UpdateParticipant(_account, _fullName, _email);\r\n    }\r\n\r\n    // Get participant by address.\r\n    function participants(address _account) public view returns (IParticipant memory) {\r\n        return mapParticipants[_account];\r\n    }\r\n\r\n    // Get all participants.\r\n    function getAllParticipants() public onlyAdmin view returns (IParticipant[] memory) {\r\n        IParticipant[] memory _participants = new IParticipant[](participantItems.length);\r\n\r\n        for (uint i = 0; i < participantItems.length; i++) {\r\n            _participants[i] = mapParticipants[participantItems[i]];\r\n        }\r\n\r\n        return _participants;\r\n    }\r\n\r\n    // Get number of participants.\r\n    function nParticipants() public view returns (uint) {\r\n        return participantItems.length;\r\n    }\r\n\r\n    // Get participant by index.\r\n    function iParticipants(uint _index) public view returns (IParticipant memory) {\r\n        return mapParticipants[participantItems[_index]];\r\n    }\r\n\r\n    // Create new Session.\r\n    function createSession(string memory _productName, string memory _description, string[] memory _images) public onlyAdmin(){\r\n        new Session(address(this), _productName, _description, _images);\r\n        emit CreateSession(_productName, _description);\r\n    }\r\n\r\n    // Get deviation by participant.\r\n    function getDeviation(address _account) external view returns (int) {\r\n        return mapParticipants[_account].deviation;\r\n    }\r\n\r\n    // Set deviation.\r\n    function setDeviation(address _account, int _deviation) public onlyAdmin {\r\n        mapParticipants[_account].deviation = _deviation;\r\n    }\r\n\r\n    // Set numnber of session.\r\n    function incrementNumberOfSession(address _account) public onlyAdmin {\r\n        mapParticipants[_account].numberOfSession++;\r\n    }\r\n\r\n    // Get number of session.\r\n    function getNumberOfSession(address _account) public view onlyAdmin returns(int) {\r\n        return mapParticipants[_account].numberOfSession;\r\n    }\r\n\r\n    // Get all session address.\r\n    function getAllSessionAddresses() public view returns (address[] memory) {\r\n        return sessions;\r\n    }\r\n\r\n    function getAllSessions() public view returns (address[] memory) {\r\n        return sessions;\r\n    }\r\n\r\n    // Get number of session.\r\n    function nSessions() public view returns (uint) {\r\n        return sessions.length;\r\n    }\r\n\r\n    // Get session detail.\r\n    function getSessionDetail(address _session) public view returns (string memory, string memory, string[] memory, uint, int, uint) {\r\n        Session session = Session(_session);\r\n\r\n        return session.getSessionDetail();\r\n    }\r\n\r\n    // Modify only admin.\r\n    modifier onlyAdmin() {\r\n        require(msg.sender == admin, \"This function only admin can execute!\");\r\n        _;\r\n    }\r\n\r\n    // Modify number of participant in ragne.\r\n    modifier onlyInNumberOfRangeParticipant() {\r\n        require(participantItems.length < maxOfUser, \"Only create 10 users!\");\r\n        _;\r\n    }\r\n\r\n    // Event update participant.\r\n    event UpdateParticipant(address _account, string _fullName, string _email);\r\n\r\n    // Event add participant.\r\n    event AddParticipant(address _account, string msg);\r\n\r\n    // Event create session.\r\n    event CreateSession(string _productName, string _description);\r\n}\r\n",
  "sourcePath": "C:\\Users\\dtvthe\\study\\blockchain\\fx15127-final-project\\truffle\\contracts\\Main.sol",
  "compiler": {
    "name": "solc",
    "version": "0.4.26+commit.4563c3fc.Emscripten.clang"
  },
  "schemaVersion": "3.4.14",
  "updatedAt": "2023-06-20T13:39:03.391Z",
  "networkType": "ethereum",
  "devdoc": {
    "methods": {}
  },
  "userdoc": {
    "methods": {}
  }
}