{
  "contractName": "Main",
  "abi": [
    {
      "constant": true,
      "inputs": [],
      "name": "admin",
      "outputs": [
        {
          "name": "",
          "type": "address"
        }
      ],
      "payable": false,
      "stateMutability": "view",
      "type": "function"
    },
    {
      "inputs": [
        {
          "name": "_maxOfUser",
          "type": "uint256"
        }
      ],
      "payable": false,
      "stateMutability": "nonpayable",
      "type": "constructor"
    },
    {
      "anonymous": false,
      "inputs": [
        {
          "indexed": false,
          "name": "_account",
          "type": "address"
        },
        {
          "indexed": false,
          "name": "_fullName",
          "type": "string"
        },
        {
          "indexed": false,
          "name": "_email",
          "type": "string"
        }
      ],
      "name": "UpdateParticipant",
      "type": "event"
    },
    {
      "anonymous": false,
      "inputs": [
        {
          "indexed": false,
          "name": "_account",
          "type": "address"
        },
        {
          "indexed": false,
          "name": "msg",
          "type": "string"
        }
      ],
      "name": "AddParticipant",
      "type": "event"
    },
    {
      "anonymous": false,
      "inputs": [
        {
          "indexed": false,
          "name": "_productName",
          "type": "string"
        },
        {
          "indexed": false,
          "name": "_description",
          "type": "string"
        }
      ],
      "name": "CreateSession",
      "type": "event"
    },
    {
      "constant": false,
      "inputs": [
        {
          "name": "session",
          "type": "address"
        }
      ],
      "name": "addSession",
      "outputs": [],
      "payable": false,
      "stateMutability": "nonpayable",
      "type": "function"
    },
    {
      "constant": true,
      "inputs": [],
      "name": "getAdmin",
      "outputs": [
        {
          "name": "",
          "type": "address"
        }
      ],
      "payable": false,
      "stateMutability": "view",
      "type": "function"
    },
    {
      "constant": false,
      "inputs": [
        {
          "name": "_fullName",
          "type": "string"
        },
        {
          "name": "_email",
          "type": "string"
        }
      ],
      "name": "updateAdminProfile",
      "outputs": [],
      "payable": false,
      "stateMutability": "nonpayable",
      "type": "function"
    },
    {
      "constant": true,
      "inputs": [],
      "name": "getAdminProfile",
      "outputs": [
        {
          "components": [
            {
              "name": "account",
              "type": "address"
            },
            {
              "name": "fullName",
              "type": "string"
            },
            {
              "name": "email",
              "type": "string"
            }
          ],
          "name": "",
          "type": "tuple"
        }
      ],
      "payable": false,
      "stateMutability": "view",
      "type": "function"
    },
    {
      "constant": false,
      "inputs": [
        {
          "name": "_account",
          "type": "address"
        }
      ],
      "name": "addParticipant",
      "outputs": [],
      "payable": false,
      "stateMutability": "nonpayable",
      "type": "function"
    },
    {
      "constant": false,
      "inputs": [
        {
          "name": "_account",
          "type": "address"
        },
        {
          "name": "_fullName",
          "type": "string"
        },
        {
          "name": "_email",
          "type": "string"
        }
      ],
      "name": "register",
      "outputs": [],
      "payable": false,
      "stateMutability": "nonpayable",
      "type": "function"
    },
    {
      "constant": true,
      "inputs": [
        {
          "name": "_account",
          "type": "address"
        }
      ],
      "name": "participants",
      "outputs": [
        {
          "components": [
            {
              "name": "account",
              "type": "address"
            },
            {
              "name": "fullName",
              "type": "string"
            },
            {
              "name": "email",
              "type": "string"
            },
            {
              "name": "numberOfSession",
              "type": "int256"
            },
            {
              "name": "deviation",
              "type": "int256"
            }
          ],
          "name": "",
          "type": "tuple"
        }
      ],
      "payable": false,
      "stateMutability": "view",
      "type": "function"
    },
    {
      "constant": true,
      "inputs": [],
      "name": "getAllParticipants",
      "outputs": [
        {
          "components": [
            {
              "name": "account",
              "type": "address"
            },
            {
              "name": "fullName",
              "type": "string"
            },
            {
              "name": "email",
              "type": "string"
            },
            {
              "name": "numberOfSession",
              "type": "int256"
            },
            {
              "name": "deviation",
              "type": "int256"
            }
          ],
          "name": "",
          "type": "tuple[]"
        }
      ],
      "payable": false,
      "stateMutability": "view",
      "type": "function"
    },
    {
      "constant": true,
      "inputs": [],
      "name": "nParticipants",
      "outputs": [
        {
          "name": "",
          "type": "uint256"
        }
      ],
      "payable": false,
      "stateMutability": "view",
      "type": "function"
    },
    {
      "constant": true,
      "inputs": [
        {
          "name": "_index",
          "type": "uint256"
        }
      ],
      "name": "iParticipants",
      "outputs": [
        {
          "components": [
            {
              "name": "account",
              "type": "address"
            },
            {
              "name": "fullName",
              "type": "string"
            },
            {
              "name": "email",
              "type": "string"
            },
            {
              "name": "numberOfSession",
              "type": "int256"
            },
            {
              "name": "deviation",
              "type": "int256"
            }
          ],
          "name": "",
          "type": "tuple"
        }
      ],
      "payable": false,
      "stateMutability": "view",
      "type": "function"
    },
    {
      "constant": false,
      "inputs": [
        {
          "name": "_productName",
          "type": "string"
        },
        {
          "name": "_description",
          "type": "string"
        },
        {
          "name": "_images",
          "type": "string[]"
        }
      ],
      "name": "createSession",
      "outputs": [],
      "payable": false,
      "stateMutability": "nonpayable",
      "type": "function"
    },
    {
      "constant": true,
      "inputs": [
        {
          "name": "_account",
          "type": "address"
        }
      ],
      "name": "getDeviation",
      "outputs": [
        {
          "name": "",
          "type": "int256"
        }
      ],
      "payable": false,
      "stateMutability": "view",
      "type": "function"
    },
    {
      "constant": false,
      "inputs": [
        {
          "name": "_account",
          "type": "address"
        },
        {
          "name": "_deviation",
          "type": "int256"
        }
      ],
      "name": "setDeviation",
      "outputs": [],
      "payable": false,
      "stateMutability": "nonpayable",
      "type": "function"
    },
    {
      "constant": false,
      "inputs": [
        {
          "name": "_account",
          "type": "address"
        }
      ],
      "name": "incrementNumberOfSession",
      "outputs": [],
      "payable": false,
      "stateMutability": "nonpayable",
      "type": "function"
    },
    {
      "constant": true,
      "inputs": [
        {
          "name": "_account",
          "type": "address"
        }
      ],
      "name": "getNumberOfSession",
      "outputs": [
        {
          "name": "",
          "type": "int256"
        }
      ],
      "payable": false,
      "stateMutability": "view",
      "type": "function"
    },
    {
      "constant": true,
      "inputs": [],
      "name": "getAllSessionAddresses",
      "outputs": [
        {
          "name": "",
          "type": "address[]"
        }
      ],
      "payable": false,
      "stateMutability": "view",
      "type": "function"
    },
    {
      "constant": true,
      "inputs": [],
      "name": "nSessions",
      "outputs": [
        {
          "name": "",
          "type": "uint256"
        }
      ],
      "payable": false,
      "stateMutability": "view",
      "type": "function"
    },
    {
      "constant": true,
      "inputs": [
        {
          "name": "_session",
          "type": "address"
        }
      ],
      "name": "getSessionDetail",
      "outputs": [
        {
          "name": "",
          "type": "string"
        },
        {
          "name": "",
          "type": "string"
        },
        {
          "name": "",
          "type": "string[]"
        },
        {
          "name": "",
          "type": "uint256"
        },
        {
          "name": "",
          "type": "int256"
        },
        {
          "name": "",
          "type": "uint256"
        }
      ],
      "payable": false,
      "stateMutability": "view",
      "type": "function"
    }
  ],
  "bytecode": "0x60806040523480156200001157600080fd5b50604051602080620054fb8339810180604052620000339190810190620000db565b336000806101000a81548173ffffffffffffffffffffffffffffffffffffffff021916908373ffffffffffffffffffffffffffffffffffffffff1602179055508060018190555033600560000160006101000a81548173ffffffffffffffffffffffffffffffffffffffff021916908373ffffffffffffffffffffffffffffffffffffffff1602179055505062000111565b6000620000d3825162000107565b905092915050565b600060208284031215620000ee57600080fd5b6000620000fe84828501620000c5565b91505092915050565b6000819050919050565b6153da80620001216000396000f3006080604052600436106200011b576000357c0100000000000000000000000000000000000000000000000000000000900463ffffffff16806309e69ede1462000120578063195ec9ee1462000164578063454eed7d14620001945780636e9960c314620001c45780638c99069814620001f45780638d59cc021462000222578063936312181462000250578063a18e3404146200027e578063a33a08b914620002ae578063a3b9c9e514620002f2578063a68299341462000336578063b63bc3b41462000364578063be3308681462000394578063c8d72c7d14620003d8578063d1bce2c71462000406578063d947ceb6146200044f578063dfafe10f146200047f578063f390dd8614620004ad578063f851a44014620004db575b600080fd5b3480156200012d57600080fd5b506200014c600480360362000146919081019062001d9a565b6200050b565b6040516200015b9190620027c7565b60405180910390f35b3480156200017157600080fd5b506200017c6200071d565b6040516200018b919062002663565b60405180910390f35b348015620001a157600080fd5b50620001ac62000a7c565b604051620001bb91906200280f565b60405180910390f35b348015620001d157600080fd5b50620001dc62000a89565b604051620001eb919062002543565b60405180910390f35b3480156200020157600080fd5b506200022060048036036200021a919081019062001dc6565b62000ab2565b005b3480156200022f57600080fd5b506200024e600480360362000248919081019062001e07565b62000afd565b005b3480156200025d57600080fd5b506200027c600480360362000276919081019062001f02565b62000bf1565b005b3480156200028b57600080fd5b506200029662000d01565b604051620002a591906200263f565b60405180910390f35b348015620002bb57600080fd5b50620002da6004803603620002d4919081019062001d9a565b62000d91565b604051620002e9919062002687565b60405180910390f35b348015620002ff57600080fd5b506200031e600480360362000318919081019062002084565b62000ddd565b6040516200032d9190620027c7565b60405180910390f35b3480156200034357600080fd5b506200036260048036036200035c919081019062001d9a565b62001029565b005b3480156200037157600080fd5b506200037c6200107e565b6040516200038b91906200280f565b60405180910390f35b348015620003a157600080fd5b50620003c06004803603620003ba919081019062001d9a565b6200108b565b604051620003cf919062002687565b60405180910390f35b348015620003e557600080fd5b50620004046004803603620003fe919081019062001e8f565b620010d7565b005b3480156200041357600080fd5b506200043260048036036200042c919081019062001d9a565b620011a7565b6040516200044696959493929190620026df565b60405180910390f35b3480156200045c57600080fd5b506200046762001270565b604051620004769190620027eb565b60405180910390f35b3480156200048c57600080fd5b50620004ab6004803603620004a5919081019062001d9a565b620014c3565b005b348015620004ba57600080fd5b50620004d96004803603620004d3919081019062001d9a565b62001817565b005b348015620004e857600080fd5b50620004f362001886565b60405162000502919062002543565b60405180910390f35b62000515620018ab565b600260008373ffffffffffffffffffffffffffffffffffffffff1673ffffffffffffffffffffffffffffffffffffffff16815260200190815260200160002060a060405190810160405290816000820160009054906101000a900473ffffffffffffffffffffffffffffffffffffffff1673ffffffffffffffffffffffffffffffffffffffff1673ffffffffffffffffffffffffffffffffffffffff168152602001600182018054600181600116156101000203166002900480601f016020809104026020016040519081016040528092919081815260200182805460018160011615610100020316600290048015620006535780601f10620006275761010080835404028352916020019162000653565b820191906000526020600020905b8154815290600101906020018083116200063557829003601f168201915b50505050508152602001600282018054600181600116156101000203166002900480601f016020809104026020016040519081016040528092919081815260200182805460018160011615610100020316600290048015620006f95780601f10620006cd57610100808354040283529160200191620006f9565b820191906000526020600020905b815481529060010190602001808311620006db57829003601f168201915b50505050508152602001600382015481526020016004820154815250509050919050565b60608060008060009054906101000a900473ffffffffffffffffffffffffffffffffffffffff1673ffffffffffffffffffffffffffffffffffffffff163373ffffffffffffffffffffffffffffffffffffffff16141515620007b6576040517f08c379a0000000000000000000000000000000000000000000000000000000008152600401620007ad90620027a5565b60405180910390fd5b600380549050604051908082528060200260200182016040528015620007f957816020015b620007e5620018f1565b815260200190600190039081620007db5790505b509150600090505b60038054905081101562000a7457600260006003838154811015156200082357fe5b9060005260206000200160009054906101000a900473ffffffffffffffffffffffffffffffffffffffff1673ffffffffffffffffffffffffffffffffffffffff1673ffffffffffffffffffffffffffffffffffffffff16815260200190815260200160002060a060405190810160405290816000820160009054906101000a900473ffffffffffffffffffffffffffffffffffffffff1673ffffffffffffffffffffffffffffffffffffffff1673ffffffffffffffffffffffffffffffffffffffff168152602001600182018054600181600116156101000203166002900480601f016020809104026020016040519081016040528092919081815260200182805460018160011615610100020316600290048015620009875780601f106200095b5761010080835404028352916020019162000987565b820191906000526020600020905b8154815290600101906020018083116200096957829003601f168201915b50505050508152602001600282018054600181600116156101000203166002900480601f01602080910402602001604051908101604052809291908181526020018280546001816001161561010002031660029004801562000a2d5780601f1062000a015761010080835404028352916020019162000a2d565b820191906000526020600020905b81548152906001019060200180831162000a0f57829003601f168201915b5050505050815260200160038201548152602001600482015481525050828281518110151562000a5957fe5b90602001906020020181905250808060010191505062000801565b819250505090565b6000600480549050905090565b60008060009054906101000a900473ffffffffffffffffffffffffffffffffffffffff16905090565b80600260008473ffffffffffffffffffffffffffffffffffffffff1673ffffffffffffffffffffffffffffffffffffffff168152602001908152602001600020600401819055505050565b81600260008573ffffffffffffffffffffffffffffffffffffffff1673ffffffffffffffffffffffffffffffffffffffff168152602001908152602001600020600101908051906020019062000b5592919062001937565b5080600260008573ffffffffffffffffffffffffffffffffffffffff1673ffffffffffffffffffffffffffffffffffffffff168152602001908152602001600020600201908051906020019062000bae92919062001937565b507f3bc63a1a560da32e0aab62ddb386a3bbfb7ac6d4531d5dd65fb1505a16a784b483838360405162000be49392919062002560565b60405180910390a1505050565b6000809054906101000a900473ffffffffffffffffffffffffffffffffffffffff1673ffffffffffffffffffffffffffffffffffffffff163373ffffffffffffffffffffffffffffffffffffffff1614151562000c85576040517f08c379a000000000000000000000000000000000000000000000000000000000815260040162000c7c90620027a5565b60405180910390fd5b3083838362000c93620019be565b62000ca29493929190620025ab565b604051809103906000f08015801562000cbf573d6000803e3d6000fd5b50507f51c5e9dfa67879da5fab182fdd91303f7c5d1a38598aefb2216af7339ac32a13838360405162000cf4929190620026a4565b60405180910390a1505050565b6060600480548060200260200160405190810160405280929190818152602001828054801562000d8757602002820191906000526020600020905b8160009054906101000a900473ffffffffffffffffffffffffffffffffffffffff1673ffffffffffffffffffffffffffffffffffffffff168152602001906001019080831162000d3c575b5050505050905090565b6000600260008373ffffffffffffffffffffffffffffffffffffffff1673ffffffffffffffffffffffffffffffffffffffff168152602001908152602001600020600401549050919050565b62000de7620018ab565b6002600060038481548110151562000dfb57fe5b9060005260206000200160009054906101000a900473ffffffffffffffffffffffffffffffffffffffff1673ffffffffffffffffffffffffffffffffffffffff1673ffffffffffffffffffffffffffffffffffffffff16815260200190815260200160002060a060405190810160405290816000820160009054906101000a900473ffffffffffffffffffffffffffffffffffffffff1673ffffffffffffffffffffffffffffffffffffffff1673ffffffffffffffffffffffffffffffffffffffff168152602001600182018054600181600116156101000203166002900480601f01602080910402602001604051908101604052809291908181526020018280546001816001161561010002031660029004801562000f5f5780601f1062000f335761010080835404028352916020019162000f5f565b820191906000526020600020905b81548152906001019060200180831162000f4157829003601f168201915b50505050508152602001600282018054600181600116156101000203166002900480601f016020809104026020016040519081016040528092919081815260200182805460018160011615610100020316600290048015620010055780601f1062000fd95761010080835404028352916020019162001005565b820191906000526020600020905b81548152906001019060200180831162000fe757829003601f168201915b50505050508152602001600382015481526020016004820154815250509050919050565b600260008273ffffffffffffffffffffffffffffffffffffffff1673ffffffffffffffffffffffffffffffffffffffff1681526020019081526020016000206003016000815480929190600101919050555050565b6000600380549050905090565b6000600260008373ffffffffffffffffffffffffffffffffffffffff1673ffffffffffffffffffffffffffffffffffffffff168152602001908152602001600020600301549050919050565b6000809054906101000a900473ffffffffffffffffffffffffffffffffffffffff1673ffffffffffffffffffffffffffffffffffffffff163373ffffffffffffffffffffffffffffffffffffffff161415156200116b576040517f08c379a00000000000000000000000000000000000000000000000000000000081526004016200116290620027a5565b60405180910390fd5b81600560010190805190602001906200118692919062001937565b508060056002019080519060200190620011a292919062001937565b505050565b60608060606000806000808790508073ffffffffffffffffffffffffffffffffffffffff1663f8cb00bf6040518163ffffffff167c0100000000000000000000000000000000000000000000000000000000028152600401600060405180830381600087803b1580156200121a57600080fd5b505af11580156200122f573d6000803e3d6000fd5b505050506040513d6000823e3d601f19601f820116820180604052506200125a919081019062001fa3565b9650965096509650965096505091939550919395565b6200127a620019cf565b6000809054906101000a900473ffffffffffffffffffffffffffffffffffffffff1673ffffffffffffffffffffffffffffffffffffffff163373ffffffffffffffffffffffffffffffffffffffff161415156200130e576040517f08c379a00000000000000000000000000000000000000000000000000000000081526004016200130590620027a5565b60405180910390fd5b6005606060405190810160405290816000820160009054906101000a900473ffffffffffffffffffffffffffffffffffffffff1673ffffffffffffffffffffffffffffffffffffffff1673ffffffffffffffffffffffffffffffffffffffff168152602001600182018054600181600116156101000203166002900480601f0160208091040260200160405190810160405280929190818152602001828054600181600116156101000203166002900480156200140f5780601f10620013e3576101008083540402835291602001916200140f565b820191906000526020600020905b815481529060010190602001808311620013f157829003601f168201915b50505050508152602001600282018054600181600116156101000203166002900480601f016020809104026020016040519081016040528092919081815260200182805460018160011615610100020316600290048015620014b55780601f106200148957610100808354040283529160200191620014b5565b820191906000526020600020905b8154815290600101906020018083116200149757829003601f168201915b505050505081525050905090565b6000809054906101000a900473ffffffffffffffffffffffffffffffffffffffff1673ffffffffffffffffffffffffffffffffffffffff163373ffffffffffffffffffffffffffffffffffffffff1614151562001557576040517f08c379a00000000000000000000000000000000000000000000000000000000081526004016200154e90620027a5565b60405180910390fd5b600154600380549050101515620015a5576040517f08c379a00000000000000000000000000000000000000000000000000000000081526004016200159c9062002783565b60405180910390fd5b6000809054906101000a900473ffffffffffffffffffffffffffffffffffffffff1673ffffffffffffffffffffffffffffffffffffffff168173ffffffffffffffffffffffffffffffffffffffff16141515156200163a576040517f08c379a0000000000000000000000000000000000000000000000000000000008152600401620016319062002761565b60405180910390fd5b60a0604051908101604052808273ffffffffffffffffffffffffffffffffffffffff1681526020016020604051908101604052806000815250815260200160206040519081016040528060008152508152602001600081526020016000815250600260008373ffffffffffffffffffffffffffffffffffffffff1673ffffffffffffffffffffffffffffffffffffffff16815260200190815260200160002060008201518160000160006101000a81548173ffffffffffffffffffffffffffffffffffffffff021916908373ffffffffffffffffffffffffffffffffffffffff16021790555060208201518160010190805190602001906200173e92919062001a07565b5060408201518160020190805190602001906200175d92919062001a07565b50606082015181600301556080820151816004015590505060038190806001815401808255809150509060018203906000526020600020016000909192909190916101000a81548173ffffffffffffffffffffffffffffffffffffffff021916908373ffffffffffffffffffffffffffffffffffffffff160217905550507f7a274ad5ebae6fdc80650d34a4e01c874e099afaca3b6e8c896edc5b9126651b816040516200180c91906200260d565b60405180910390a150565b600081905060048190806001815401808255809150509060018203906000526020600020016000909192909190916101000a81548173ffffffffffffffffffffffffffffffffffffffff021916908373ffffffffffffffffffffffffffffffffffffffff160217905550505050565b6000809054906101000a900473ffffffffffffffffffffffffffffffffffffffff1681565b60a060405190810160405280600073ffffffffffffffffffffffffffffffffffffffff168152602001606081526020016060815260200160008152602001600081525090565b60a060405190810160405280600073ffffffffffffffffffffffffffffffffffffffff168152602001606081526020016060815260200160008152602001600081525090565b828054600181600116156101000203166002900490600052602060002090601f016020900481019282601f106200197a57805160ff1916838001178555620019ab565b82800160010185558215620019ab579182015b82811115620019aa5782518255916020019190600101906200198d565b5b509050620019ba919062001a8e565b5090565b6040516129808062002a2183390190565b606060405190810160405280600073ffffffffffffffffffffffffffffffffffffffff16815260200160608152602001606081525090565b828054600181600116156101000203166002900490600052602060002090601f016020900481019282601f1062001a4a57805160ff191683800117855562001a7b565b8280016001018555821562001a7b579182015b8281111562001a7a57825182559160200191906001019062001a5d565b5b50905062001a8a919062001a8e565b5090565b62001ab391905b8082111562001aaf57600081600090555060010162001a95565b5090565b90565b600062001ac4823562002996565b905092915050565b600082601f830112151562001ae057600080fd5b813562001af762001af1826200285a565b6200282c565b9150818183526020840193506020810190508360005b8381101562001b41578135860162001b26888262001bf6565b84526020840193506020830192505060018101905062001b0d565b5050505092915050565b600082601f830112151562001b5f57600080fd5b815162001b7662001b70826200285a565b6200282c565b9150818183526020840193506020810190508360005b8381101562001bc0578151860162001ba5888262001c54565b84526020840193506020830192505060018101905062001b8c565b5050505092915050565b600062001bd88235620029b6565b905092915050565b600062001bee8251620029b6565b905092915050565b600082601f830112151562001c0a57600080fd5b813562001c2162001c1b8262002883565b6200282c565b9150808252602083016020830185838301111562001c3e57600080fd5b62001c4b838284620029ca565b50505092915050565b600082601f830112151562001c6857600080fd5b815162001c7f62001c798262002883565b6200282c565b9150808252602083016020830185838301111562001c9c57600080fd5b62001ca9838284620029d9565b50505092915050565b600082601f830112151562001cc657600080fd5b813562001cdd62001cd782620028b0565b6200282c565b9150808252602083016020830185838301111562001cfa57600080fd5b62001d07838284620029ca565b50505092915050565b600082601f830112151562001d2457600080fd5b815162001d3b62001d3582620028b0565b6200282c565b9150808252602083016020830185838301111562001d5857600080fd5b62001d65838284620029d9565b50505092915050565b600062001d7c8235620029c0565b905092915050565b600062001d928251620029c0565b905092915050565b60006020828403121562001dad57600080fd5b600062001dbd8482850162001ab6565b91505092915050565b6000806040838503121562001dda57600080fd5b600062001dea8582860162001ab6565b925050602062001dfd8582860162001bca565b9150509250929050565b60008060006060848603121562001e1d57600080fd5b600062001e2d8682870162001ab6565b935050602084013567ffffffffffffffff81111562001e4b57600080fd5b62001e598682870162001cb2565b925050604084013567ffffffffffffffff81111562001e7757600080fd5b62001e858682870162001cb2565b9150509250925092565b6000806040838503121562001ea357600080fd5b600083013567ffffffffffffffff81111562001ebe57600080fd5b62001ecc8582860162001cb2565b925050602083013567ffffffffffffffff81111562001eea57600080fd5b62001ef88582860162001cb2565b9150509250929050565b60008060006060848603121562001f1857600080fd5b600084013567ffffffffffffffff81111562001f3357600080fd5b62001f418682870162001cb2565b935050602084013567ffffffffffffffff81111562001f5f57600080fd5b62001f6d8682870162001cb2565b925050604084013567ffffffffffffffff81111562001f8b57600080fd5b62001f998682870162001acc565b9150509250925092565b60008060008060008060c0878903121562001fbd57600080fd5b600087015167ffffffffffffffff81111562001fd857600080fd5b62001fe689828a0162001d10565b965050602087015167ffffffffffffffff8111156200200457600080fd5b6200201289828a0162001d10565b955050604087015167ffffffffffffffff8111156200203057600080fd5b6200203e89828a0162001b4b565b94505060606200205189828a0162001d84565b93505060806200206489828a0162001be0565b92505060a06200207789828a0162001d84565b9150509295509295509295565b6000602082840312156200209757600080fd5b6000620020a78482850162001d6e565b91505092915050565b620020bb8162002962565b82525050565b6000620020ce8262002904565b808452602084019350620020e283620028dd565b60005b828110156200211a57620020fb868351620020b0565b62002106826200293b565b9150602086019550600181019050620020e5565b50849250505092915050565b600062002133826200290f565b808452602084019350836020820285016200214e85620028ea565b60005b848110156200218d5783830388526200216c83835162002263565b9250620021798262002948565b915060208801975060018101905062002151565b508196508694505050505092915050565b6000620021ab826200291a565b80845260208401935083602082028501620021c685620028f7565b60005b8481101562002205578383038852620021e48383516200244e565b9250620021f18262002955565b9150602088019750600181019050620021c9565b508196508694505050505092915050565b620022218162002982565b82525050565b6000620022348262002930565b8084526200224a816020860160208601620029d9565b620022558162002a0f565b602085010191505092915050565b6000620022708262002925565b80845262002286816020860160208601620029d9565b620022918162002a0f565b602085010191505092915050565b6000602e82527f43616e206e6f74206164642061646d696e206164647265737320746f2070617260208301527f7469636970616e74206c697374210000000000000000000000000000000000006040830152606082019050919050565b6000601582527f4f6e6c79206372656174652031302075736572732100000000000000000000006020830152604082019050919050565b6000602582527f546869732066756e6374696f6e206f6e6c792061646d696e2063616e2065786560208301527f63757465210000000000000000000000000000000000000000000000000000006040830152606082019050919050565b6000601882527f416464207061727469636970616e7420737563636573732100000000000000006020830152604082019050919050565b600060a083016000830151620023e16000860182620020b0565b5060208301518482036020860152620023fb828262002263565b9150506040830151848203604086015262002417828262002263565b91505060608301516200242e606086018262002216565b50608083015162002443608086018262002216565b508091505092915050565b600060a083016000830151620024686000860182620020b0565b506020830151848203602086015262002482828262002263565b915050604083015184820360408601526200249e828262002263565b9150506060830151620024b5606086018262002216565b506080830151620024ca608086018262002216565b508091505092915050565b6000606083016000830151620024ef6000860182620020b0565b506020830151848203602086015262002509828262002263565b9150506040830151848203604086015262002525828262002263565b9150508091505092915050565b6200253d816200298c565b82525050565b60006020820190506200255a6000830184620020b0565b92915050565b6000606082019050620025776000830186620020b0565b81810360208301526200258b818562002227565b90508181036040830152620025a1818462002227565b9050949350505050565b6000608082019050620025c26000830187620020b0565b8181036020830152620025d6818662002227565b90508181036040830152620025ec818562002227565b9050818103606083015262002602818462002126565b905095945050505050565b6000604082019050620026246000830184620020b0565b8181036020830152620026378162002390565b905092915050565b600060208201905081810360008301526200265b8184620020c1565b905092915050565b600060208201905081810360008301526200267f81846200219e565b905092915050565b60006020820190506200269e600083018462002216565b92915050565b60006040820190508181036000830152620026c0818562002227565b90508181036020830152620026d6818462002227565b90509392505050565b600060c0820190508181036000830152620026fb818962002227565b9050818103602083015262002711818862002227565b9050818103604083015262002727818762002126565b905062002738606083018662002532565b62002747608083018562002216565b6200275660a083018462002532565b979650505050505050565b600060208201905081810360008301526200277c816200229f565b9050919050565b600060208201905081810360008301526200279e81620022fc565b9050919050565b60006020820190508181036000830152620027c08162002333565b9050919050565b60006020820190508181036000830152620027e38184620023c7565b905092915050565b60006020820190508181036000830152620028078184620024d5565b905092915050565b600060208201905062002826600083018462002532565b92915050565b6000604051905081810181811067ffffffffffffffff821117156200285057600080fd5b8060405250919050565b600067ffffffffffffffff8211156200287257600080fd5b602082029050602081019050919050565b600067ffffffffffffffff8211156200289b57600080fd5b601f19601f8301169050602081019050919050565b600067ffffffffffffffff821115620028c857600080fd5b601f19601f8301169050602081019050919050565b6000602082019050919050565b6000602082019050919050565b6000602082019050919050565b600081519050919050565b600081519050919050565b600081519050919050565b600081519050919050565b600081519050919050565b6000602082019050919050565b6000602082019050919050565b6000602082019050919050565b600073ffffffffffffffffffffffffffffffffffffffff82169050919050565b6000819050919050565b6000819050919050565b600073ffffffffffffffffffffffffffffffffffffffff82169050919050565b6000819050919050565b6000819050919050565b82818337600083830152505050565b60005b83811015620029f9578082015181840152602081019050620029dc565b8381111562002a09576000848401525b50505050565b6000601f19601f8301169050919050560060806040523480156200001157600080fd5b5060405162002980380380620029808339810180604052620000379190810190620006c3565b836000806101000a81548173ffffffffffffffffffffffffffffffffffffffff021916908373ffffffffffffffffffffffffffffffffffffffff16021790555083600160006101000a81548173ffffffffffffffffffffffffffffffffffffffff021916908373ffffffffffffffffffffffffffffffffffffffff1602179055508260029080519060200190620000d09291906200032c565b508160039080519060200190620000e99291906200032c565b50806004908051906020019062000102929190620003b3565b50600060058190555060006006819055506000600760006101000a81548160ff021916908360038111156200013357fe5b0217905550600160009054906101000a900473ffffffffffffffffffffffffffffffffffffffff1673ffffffffffffffffffffffffffffffffffffffff16636e9960c36040518163ffffffff167c0100000000000000000000000000000000000000000000000000000000028152600401602060405180830381600087803b158015620001bf57600080fd5b505af1158015620001d4573d6000803e3d6000fd5b505050506040513d601f19601f82011682018060405250620001fa919081019062000697565b600b60006101000a81548173ffffffffffffffffffffffffffffffffffffffff021916908373ffffffffffffffffffffffffffffffffffffffff160217905550600160009054906101000a900473ffffffffffffffffffffffffffffffffffffffff1673ffffffffffffffffffffffffffffffffffffffff1663f390dd86306040518263ffffffff167c0100000000000000000000000000000000000000000000000000000000028152600401620002b39190620007fe565b600060405180830381600087803b158015620002ce57600080fd5b505af1158015620002e3573d6000803e3d6000fd5b505050507f9fe7cb314c08d72e270589aeb0470bb4335133b90e7dfd6f84ed11661496dd3783836040516200031a9291906200081b565b60405180910390a150505050620009ae565b828054600181600116156101000203166002900490600052602060002090601f016020900481019282601f106200036f57805160ff1916838001178555620003a0565b82800160010185558215620003a0579182015b828111156200039f57825182559160200191906001019062000382565b5b509050620003af91906200041a565b5090565b82805482825590600052602060002090810192821562000407579160200282015b8281111562000406578251829080519060200190620003f592919062000442565b5091602001919060010190620003d4565b5b509050620004169190620004c9565b5090565b6200043f91905b808211156200043b57600081600090555060010162000421565b5090565b90565b828054600181600116156101000203166002900490600052602060002090601f016020900481019282601f106200048557805160ff1916838001178555620004b6565b82800160010185558215620004b6579182015b82811115620004b557825182559160200191906001019062000498565b5b509050620004c591906200041a565b5090565b620004f791905b80821115620004f35760008181620004e99190620004fa565b50600101620004d0565b5090565b90565b50805460018160011615610100020316600290046000825580601f1062000522575062000543565b601f0160209004906000526020600020908101906200054291906200041a565b5b50565b600062000554825162000947565b905092915050565b600082601f83011215156200057057600080fd5b815162000587620005818262000899565b6200086b565b9150818183526020840193506020810190508360005b83811015620005d15781518601620005b68882620005db565b8452602084019350602083019250506001810190506200059d565b5050505092915050565b600082601f8301121515620005ef57600080fd5b8151620006066200060082620008c2565b6200086b565b915080825260208301602083018583830111156200062357600080fd5b6200063083828462000967565b50505092915050565b600082601f83011215156200064d57600080fd5b8151620006646200065e82620008ef565b6200086b565b915080825260208301602083018583830111156200068157600080fd5b6200068e83828462000967565b50505092915050565b600060208284031215620006aa57600080fd5b6000620006ba8482850162000546565b91505092915050565b60008060008060808587031215620006da57600080fd5b6000620006ea8782880162000546565b945050602085015167ffffffffffffffff8111156200070857600080fd5b620007168782880162000639565b935050604085015167ffffffffffffffff8111156200073457600080fd5b620007428782880162000639565b925050606085015167ffffffffffffffff8111156200076057600080fd5b6200076e878288016200055c565b91505092959194509250565b620007858162000927565b82525050565b600062000798826200091c565b808452620007ae81602086016020860162000967565b620007b9816200099d565b602085010191505092915050565b6000601782527f4372656174652073657373696f6e2073756363657373210000000000000000006020830152604082019050919050565b60006020820190506200081560008301846200077a565b92915050565b600060608201905081810360008301526200083781856200078b565b905081810360208301526200084d81846200078b565b905081810360408301526200086281620007c7565b90509392505050565b6000604051905081810181811067ffffffffffffffff821117156200088f57600080fd5b8060405250919050565b600067ffffffffffffffff821115620008b157600080fd5b602082029050602081019050919050565b600067ffffffffffffffff821115620008da57600080fd5b601f19601f8301169050602081019050919050565b600067ffffffffffffffff8211156200090757600080fd5b601f19601f8301169050602081019050919050565b600081519050919050565b600073ffffffffffffffffffffffffffffffffffffffff82169050919050565b600073ffffffffffffffffffffffffffffffffffffffff82169050919050565b60005b83811015620009875780820151818401526020810190506200096a565b8381111562000997576000848401525b50505050565b6000601f19601f8301169050919050565b611fc280620009be6000396000f300608060405260043610610099576000357c0100000000000000000000000000000000000000000000000000000000900463ffffffff1680630e9735011461009e5780632e639ee5146100c75780633d33b629146100f2578063893e79ba14610109578063cbd8c61314610132578063d270e7ab14610149578063ddc0961d14610174578063f8cb00bf1461019d578063fe0ae165146101cd575b600080fd5b3480156100aa57600080fd5b506100c560048036036100c0919081019061172b565b6101e4565b005b3480156100d357600080fd5b506100dc6102f9565b6040516100e99190611c08565b60405180910390f35b3480156100fe57600080fd5b50610107610387565b005b34801561011557600080fd5b50610130600480360361012b91908101906116d9565b6107fa565b005b34801561013e57600080fd5b50610147610a8d565b005b34801561015557600080fd5b5061015e610be4565b60405161016b9190611b96565b60405180910390f35b34801561018057600080fd5b5061019b600480360361019691908101906116d9565b610c09565b005b3480156101a957600080fd5b506101b2610f15565b6040516101c496959493929190611c2a565b60405180910390f35b3480156101d957600080fd5b506101e2611175565b005b600b60009054906101000a900473ffffffffffffffffffffffffffffffffffffffff1673ffffffffffffffffffffffffffffffffffffffff163373ffffffffffffffffffffffffffffffffffffffff16141515610276576040517f08c379a000000000000000000000000000000000000000000000000000000000815260040161026d90611d4a565b60405180910390fd5b826002908051906020019061028c929190611396565b5081600390805190602001906102a3929190611396565b5080600490805190602001906102ba929190611416565b507f2a5d6d5b2dec1b940dec7f561cf0b8cd2965d265ed7c371349e1d15979b075ab83836040516102ec929190611ca0565b60405180910390a1505050565b6060600a80548060200260200160405190810160405280929190818152602001828054801561037d57602002820191906000526020600020905b8160009054906101000a900473ffffffffffffffffffffffffffffffffffffffff1673ffffffffffffffffffffffffffffffffffffffff1681526020019060010190808311610333575b5050505050905090565b600080600080600080600b60009054906101000a900473ffffffffffffffffffffffffffffffffffffffff1673ffffffffffffffffffffffffffffffffffffffff163373ffffffffffffffffffffffffffffffffffffffff16141515610422576040517f08c379a000000000000000000000000000000000000000000000000000000000815260040161041990611d4a565b60405180910390fd5b6000600654131515610469576040517f08c379a000000000000000000000000000000000000000000000000000000000815260040161046090611dca565b60405180910390fd5b600095505b600a805490508610156107ce57600a8681548110151561048a57fe5b9060005260206000200160009054906101000a900473ffffffffffffffffffffffffffffffffffffffff169450600160009054906101000a900473ffffffffffffffffffffffffffffffffffffffff1673ffffffffffffffffffffffffffffffffffffffff1663a33a08b9866040518263ffffffff167c010000000000000000000000000000000000000000000000000000000002815260040161052e9190611b96565b602060405180830381600087803b15801561054857600080fd5b505af115801561055c573d6000803e3d6000fd5b505050506040513d601f19601f820116820180604052506105809190810190611702565b9350600160009054906101000a900473ffffffffffffffffffffffffffffffffffffffff1673ffffffffffffffffffffffffffffffffffffffff1663be330868866040518263ffffffff167c01000000000000000000000000000000000000000000000000000000000281526004016105f99190611b96565b602060405180830381600087803b15801561061357600080fd5b505af1158015610627573d6000803e3d6000fd5b505050506040513d601f19601f8201168201806040525061064b9190810190611702565b9250610656856112cc565b838502019150600183018281151561066a57fe5b059050600160009054906101000a900473ffffffffffffffffffffffffffffffffffffffff1673ffffffffffffffffffffffffffffffffffffffff16638c99069886836040518363ffffffff167c01000000000000000000000000000000000000000000000000000000000281526004016106e6929190611bb1565b600060405180830381600087803b15801561070057600080fd5b505af1158015610714573d6000803e3d6000fd5b50505050600160009054906101000a900473ffffffffffffffffffffffffffffffffffffffff1673ffffffffffffffffffffffffffffffffffffffff1663a6829934866040518263ffffffff167c010000000000000000000000000000000000000000000000000000000002815260040161078f9190611b96565b600060405180830381600087803b1580156107a957600080fd5b505af11580156107bd573d6000803e3d6000fd5b50505050858060010196505061046e565b6003600760006101000a81548160ff021916908360038111156107ed57fe5b0217905550505050505050565b600b60009054906101000a900473ffffffffffffffffffffffffffffffffffffffff1673ffffffffffffffffffffffffffffffffffffffff163373ffffffffffffffffffffffffffffffffffffffff161415151561088d576040517f08c379a000000000000000000000000000000000000000000000000000000000815260040161088490611d0a565b60405180910390fd5b6001600381111561089a57fe5b600760009054906101000a900460ff1660038111156108b557fe5b1415156108f7576040517f08c379a00000000000000000000000000000000000000000000000000000000081526004016108ee90611cea565b60405180910390fd5b60001515600960003373ffffffffffffffffffffffffffffffffffffffff1673ffffffffffffffffffffffffffffffffffffffff16815260200190815260200160002060009054906101000a900460ff1615151415610a0f576001600960003373ffffffffffffffffffffffffffffffffffffffff1673ffffffffffffffffffffffffffffffffffffffff16815260200190815260200160002060006101000a81548160ff021916908315150217905550600a3390806001815401808255809150509060018203906000526020600020016000909192909190916101000a81548173ffffffffffffffffffffffffffffffffffffffff021916908373ffffffffffffffffffffffffffffffffffffffff160217905550505b80600860003373ffffffffffffffffffffffffffffffffffffffff1673ffffffffffffffffffffffffffffffffffffffff168152602001908152602001600020819055507f47650289511cf2cfb9b8b559f6e750022263d3a2db072b47698d32df3ac0b80533604051610a829190611bda565b60405180910390a150565b600b60009054906101000a900473ffffffffffffffffffffffffffffffffffffffff1673ffffffffffffffffffffffffffffffffffffffff163373ffffffffffffffffffffffffffffffffffffffff16141515610b1f576040517f08c379a0000000000000000000000000000000000000000000000000000000008152600401610b1690611d4a565b60405180910390fd5b60026003811115610b2c57fe5b600760009054906101000a900460ff166003811115610b4757fe5b141515610b89576040517f08c379a0000000000000000000000000000000000000000000000000000000008152600401610b8090611daa565b60405180910390fd5b6003600760006101000a81548160ff02191690836003811115610ba857fe5b02179055507fd084c6ae9c7d3dcbaf7ac844e5d1150bc12c7d070a3ffb34cd54ca01a03c1364604051610bda90611d6a565b60405180910390a1565b6000809054906101000a900473ffffffffffffffffffffffffffffffffffffffff1681565b6000806000806000600b60009054906101000a900473ffffffffffffffffffffffffffffffffffffffff1673ffffffffffffffffffffffffffffffffffffffff163373ffffffffffffffffffffffffffffffffffffffff16141515610ca3576040517f08c379a0000000000000000000000000000000000000000000000000000000008152600401610c9a90611d4a565b60405180910390fd5b60016003811115610cb057fe5b600760009054906101000a900460ff166003811115610ccb57fe5b141515610d0d576040517f08c379a0000000000000000000000000000000000000000000000000000000008152600401610d0490611cea565b60405180910390fd5b600094506000935060009250600091505b600a80549050821015610ec357600160009054906101000a900473ffffffffffffffffffffffffffffffffffffffff1673ffffffffffffffffffffffffffffffffffffffff1663a33a08b9600a84815481101515610d7857fe5b9060005260206000200160009054906101000a900473ffffffffffffffffffffffffffffffffffffffff166040518263ffffffff167c0100000000000000000000000000000000000000000000000000000000028152600401610ddb9190611b96565b602060405180830381600087803b158015610df557600080fd5b505af1158015610e09573d6000803e3d6000fd5b505050506040513d601f19601f82011682018060405250610e2d9190810190611702565b90508060640360086000600a85815481101515610e4657fe5b9060005260206000200160009054906101000a900473ffffffffffffffffffffffffffffffffffffffff1673ffffffffffffffffffffffffffffffffffffffff1673ffffffffffffffffffffffffffffffffffffffff16815260200190815260200160002054028401935080830192508180600101925050610d1e565b82600a805490506064020384811515610ed857fe5b05945084600581905550856006819055506002600760006101000a81548160ff02191690836003811115610f0857fe5b0217905550505050505050565b60608060606000806000600260036004600554600654600760009054906101000a900460ff166003811115610f4657fe5b858054600181600116156101000203166002900480601f016020809104026020016040519081016040528092919081815260200182805460018160011615610100020316600290048015610fdb5780601f10610fb057610100808354040283529160200191610fdb565b820191906000526020600020905b815481529060010190602001808311610fbe57829003601f168201915b50505050509550848054600181600116156101000203166002900480601f0160208091040260200160405190810160405280929190818152602001828054600181600116156101000203166002900480156110775780601f1061104c57610100808354040283529160200191611077565b820191906000526020600020905b81548152906001019060200180831161105a57829003601f168201915b5050505050945083805480602002602001604051908101604052809291908181526020016000905b8282101561115b578382906000526020600020018054600181600116156101000203166002900480601f0160208091040260200160405190810160405280929190818152602001828054600181600116156101000203166002900480156111475780601f1061111c57610100808354040283529160200191611147565b820191906000526020600020905b81548152906001019060200180831161112a57829003601f168201915b50505050508152602001906001019061109f565b505050509350955095509550955095509550909192939495565b600b60009054906101000a900473ffffffffffffffffffffffffffffffffffffffff1673ffffffffffffffffffffffffffffffffffffffff163373ffffffffffffffffffffffffffffffffffffffff16141515611207576040517f08c379a00000000000000000000000000000000000000000000000000000000081526004016111fe90611d4a565b60405180910390fd5b6000600381111561121457fe5b600760009054906101000a900460ff16600381111561122f57fe5b141515611271576040517f08c379a000000000000000000000000000000000000000000000000000000000815260040161126890611d2a565b60405180910390fd5b6001600760006101000a81548160ff0219169083600381111561129057fe5b02179055507fd084c6ae9c7d3dcbaf7ac844e5d1150bc12c7d070a3ffb34cd54ca01a03c13646040516112c290611d8a565b60405180910390a1565b600080600061131d600860008673ffffffffffffffffffffffffffffffffffffffff1673ffffffffffffffffffffffffffffffffffffffff1681526020019081526020016000205460065403611359565b91506064600654670de0b6b3a7640000840281151561133857fe5b05029050670de0b6b3a76400008181151561134f57fe5b0592505050919050565b60008082121561138d577fffffffffffffffffffffffffffffffffffffffffffffffffffffffffffffffff82029050611391565b8190505b919050565b828054600181600116156101000203166002900490600052602060002090601f016020900481019282601f106113d757805160ff1916838001178555611405565b82800160010185558215611405579182015b828111156114045782518255916020019190600101906113e9565b5b5090506114129190611476565b5090565b828054828255906000526020600020908101928215611465579160200282015b8281111561146457825182908051906020019061145492919061149b565b5091602001919060010190611436565b5b509050611472919061151b565b5090565b61149891905b8082111561149457600081600090555060010161147c565b5090565b90565b828054600181600116156101000203166002900490600052602060002090601f016020900481019282601f106114dc57805160ff191683800117855561150a565b8280016001018555821561150a579182015b828111156115095782518255916020019190600101906114ee565b5b5090506115179190611476565b5090565b61154491905b8082111561154057600081816115379190611547565b50600101611521565b5090565b90565b50805460018160011615610100020316600290046000825580601f1061156d575061158c565b601f01602090049060005260206000209081019061158b9190611476565b5b50565b600082601f83011215156115a257600080fd5b81356115b56115b082611e17565b611dea565b9150818183526020840193506020810190508360005b838110156115fb57813586016115e1888261162d565b8452602084019350602083019250506001810190506115cb565b5050505092915050565b60006116118235611f2b565b905092915050565b60006116258251611f2b565b905092915050565b600082601f830112151561164057600080fd5b813561165361164e82611e3f565b611dea565b9150808252602083016020830185838301111561166f57600080fd5b61167a838284611f35565b50505092915050565b600082601f830112151561169657600080fd5b81356116a96116a482611e6b565b611dea565b915080825260208301602083018583830111156116c557600080fd5b6116d0838284611f35565b50505092915050565b6000602082840312156116eb57600080fd5b60006116f984828501611605565b91505092915050565b60006020828403121561171457600080fd5b600061172284828501611619565b91505092915050565b60008060006060848603121561174057600080fd5b600084013567ffffffffffffffff81111561175a57600080fd5b61176686828701611683565b935050602084013567ffffffffffffffff81111561178357600080fd5b61178f86828701611683565b925050604084013567ffffffffffffffff8111156117ac57600080fd5b6117b88682870161158f565b9150509250925092565b6117cb81611ef7565b82525050565b60006117dc82611eb1565b8084526020840193506117ee83611e97565b60005b82811015611820576118048683516117c2565b61180d82611edd565b91506020860195506001810190506117f1565b50849250505092915050565b600061183782611ebc565b8084526020840193508360208202850161185085611ea4565b60005b8481101561188957838303885261186b8383516118df565b925061187682611eea565b9150602088019750600181019050611853565b508196508694505050505092915050565b6118a381611f17565b82525050565b60006118b482611ed2565b8084526118c8816020860160208601611f44565b6118d181611f77565b602085010191505092915050565b60006118ea82611ec7565b8084526118fe816020860160208601611f44565b61190781611f77565b602085010191505092915050565b6000601a82527f53657373696f6e206973206e6f7420696e2070726f67726573730000000000006020830152604082019050919050565b6000602b82527f546869732066756e6374696f6e206f6e6c79207061727469636970616e74206360208301527f616e2065786563757465210000000000000000000000000000000000000000006040830152606082019050919050565b6000601782527f5570646174652073657373696f6e2073756363657373210000000000000000006020830152604082019050919050565b6000601e82527f53657373696f6e20737461747573206d757374206265204352454154454400006020830152604082019050919050565b6000602582527f546869732066756e6374696f6e206f6e6c792061646d696e2063616e2065786560208301527f63757465210000000000000000000000000000000000000000000000000000006040830152606082019050919050565b6000601d82527f5570646174652073657373696f6e2073746174757320746f2053544f500000006020830152604082019050919050565b6000602082527f5570646174652073657373696f6e2073746174757320746f2050524943494e476020830152604082019050919050565b6000601082527f50726963696e67207375636365737321000000000000000000000000000000006020830152604082019050919050565b6000601c82527f53657373696f6e20737461747573206d75737420626520434c4f5345000000006020830152604082019050919050565b6000601b82527f46696e616c207072696365206d757374207365742076616c75652100000000006020830152604082019050919050565b611b9081611f21565b82525050565b6000602082019050611bab60008301846117c2565b92915050565b6000604082019050611bc660008301856117c2565b611bd3602083018461189a565b9392505050565b6000604082019050611bef60008301846117c2565b8181036020830152611c0081611ae2565b905092915050565b60006020820190508181036000830152611c2281846117d1565b905092915050565b600060c0820190508181036000830152611c4481896118a9565b90508181036020830152611c5881886118a9565b90508181036040830152611c6c818761182c565b9050611c7b6060830186611b87565b611c88608083018561189a565b611c9560a0830184611b87565b979650505050505050565b60006060820190508181036000830152611cba81856118a9565b90508181036020830152611cce81846118a9565b90508181036040830152611ce1816119a9565b90509392505050565b60006020820190508181036000830152611d0381611915565b9050919050565b60006020820190508181036000830152611d238161194c565b9050919050565b60006020820190508181036000830152611d43816119e0565b9050919050565b60006020820190508181036000830152611d6381611a17565b9050919050565b60006020820190508181036000830152611d8381611a74565b9050919050565b60006020820190508181036000830152611da381611aab565b9050919050565b60006020820190508181036000830152611dc381611b19565b9050919050565b60006020820190508181036000830152611de381611b50565b9050919050565b6000604051905081810181811067ffffffffffffffff82111715611e0d57600080fd5b8060405250919050565b600067ffffffffffffffff821115611e2e57600080fd5b602082029050602081019050919050565b600067ffffffffffffffff821115611e5657600080fd5b601f19601f8301169050602081019050919050565b600067ffffffffffffffff821115611e8257600080fd5b601f19601f8301169050602081019050919050565b6000602082019050919050565b6000602082019050919050565b600081519050919050565b600081519050919050565b600081519050919050565b600081519050919050565b6000602082019050919050565b6000602082019050919050565b600073ffffffffffffffffffffffffffffffffffffffff82169050919050565b6000819050919050565b6000819050919050565b6000819050919050565b82818337600083830152505050565b60005b83811015611f62578082015181840152602081019050611f47565b83811115611f71576000848401525b50505050565b6000601f19601f83011690509190505600a265627a7a7230582033e914965a665b0dd715e09133da43af4436afcdaa0179412a6cada8482644c36c6578706572696d656e74616cf50037a265627a7a723058202ce8de2783f107ff2d409c6177297fc1c5066b365706f736e9c5e6df7b6236026c6578706572696d656e74616cf50037",
  "source": "// SPDX-License-Identifier: MIT\npragma solidity ^0.4.26;\npragma experimental ABIEncoderV2;\nimport \"./Session.sol\";\n\ncontract Main is IMain {\n    // Structure to hold details of Bidder\n    struct IParticipant {\n        // TODO\n        address account;\n        string fullName;\n        string email;\n        int numberOfSession;\n        int deviation;\n    }\n\n    // Struct IUser:\n    struct IUser {\n        address account;\n        string fullName;\n        string email;\n    }\n\n    address public admin;\n\n    // TODO: Variables\n    uint private maxOfUser;\n    mapping(address => IParticipant) private mapParticipants;\n    address[] private participantItems;\n    address[] private sessions;\n    IUser private adminProfile;\n\n    constructor(uint _maxOfUser) public {\n        admin = msg.sender;\n        maxOfUser = _maxOfUser;\n        adminProfile.account = msg.sender;\n    }\n\n    // Add a Session Contract address into Main Contract. Use to link Session with Main\n    function addSession(address session) public {\n        // TODO\n        Session newSession = Session(session);\n        sessions.push(address(newSession));\n    }\n\n    // TODO: Functions\n    // Get admin.\n    function getAdmin() public view returns (address) {\n        return admin;\n    }\n\n    // Update admin profile.\n    function updateAdminProfile(string _fullName, string _email) public onlyAdmin {\n        adminProfile.fullName = _fullName;\n        adminProfile.email = _email;\n    }\n\n    // Get admin profile.\n    function getAdminProfile() public onlyAdmin view returns(IUser memory) {\n        return adminProfile;\n    }\n\n    // Add participant.\n    function addParticipant(address _account) public onlyAdmin onlyInNumberOfRangeParticipant {\n        require(_account != admin, \"Can not add admin address to participant list!\");\n        mapParticipants[_account] = IParticipant(_account, \"\", \"\", 0, 0);\n        participantItems.push(_account);\n        emit AddParticipant(_account, \"Add participant success!\");\n    }\n\n    // Update participant.\n    function register(address _account, string memory _fullName, string memory _email) public {\n        mapParticipants[_account].fullName = _fullName;\n        mapParticipants[_account].email = _email;\n        emit UpdateParticipant(_account, _fullName, _email);\n    }\n\n    // Get participant by address.\n    function participants(address _account) public view returns (IParticipant memory) {\n        return mapParticipants[_account];\n    }\n\n    // Get all participants.\n    function getAllParticipants() public onlyAdmin view returns (IParticipant[] memory) {\n        IParticipant[] memory _participants = new IParticipant[](participantItems.length);\n\n        for (uint i = 0; i < participantItems.length; i++) {\n            _participants[i] = mapParticipants[participantItems[i]];\n        }\n\n        return _participants;\n    }\n\n    // Get number of participants.\n    function nParticipants() public view returns (uint) {\n        return participantItems.length;\n    }\n\n    // Get participant by index.\n    function iParticipants(uint _index) public view returns (IParticipant memory) {\n        return mapParticipants[participantItems[_index]];\n    }\n\n    // Create new Session.\n    function createSession(string memory _productName, string memory _description, string[] memory _images) public onlyAdmin(){\n        new Session(address(this), _productName, _description, _images);\n        emit CreateSession(_productName, _description);\n    }\n\n    // Get deviation by participant.\n    function getDeviation(address _account) public view returns (int) {\n        return mapParticipants[_account].deviation;\n    }\n\n    // Set deviation.\n    function setDeviation(address _account, int _deviation) public {\n        mapParticipants[_account].deviation = _deviation;\n    }\n\n    // Set numnber of session.\n    function incrementNumberOfSession(address _account) public {\n        mapParticipants[_account].numberOfSession++;\n    }\n\n    // Get number of session.\n    function getNumberOfSession(address _account) public view returns (int) {\n        return mapParticipants[_account].numberOfSession;\n    }\n\n    // Get all session address.\n    function getAllSessionAddresses() public view returns (address[] memory) {\n        return sessions;\n    }\n\n    // Get number of session.\n    function nSessions() public view returns (uint) {\n        return sessions.length;\n    }\n\n    // Get session detail.\n    function getSessionDetail(address _session) public view returns (string memory, string memory, string[] memory, uint, int, uint) {\n        Session session = Session(_session);\n\n        return session.getSessionDetail();\n    }\n\n    // Modify only admin.\n    modifier onlyAdmin() {\n        require(msg.sender == admin, \"This function only admin can execute!\");\n        _;\n    }\n\n    // Modify number of participant in ragne.\n    modifier onlyInNumberOfRangeParticipant() {\n        require(participantItems.length < maxOfUser, \"Only create 10 users!\");\n        _;\n    }\n\n    // Event update participant.\n    event UpdateParticipant(address _account, string _fullName, string _email);\n\n    // Event add participant.\n    event AddParticipant(address _account, string msg);\n\n    // Event create session.\n    event CreateSession(string _productName, string _description);\n}\n",
  "sourcePath": "/Users/damthe/study/blockchain/fx15127-final-project/truffle/contracts/Main.sol",
  "compiler": {
    "name": "solc",
    "version": "0.4.26+commit.4563c3fc.Emscripten.clang"
  },
  "schemaVersion": "3.4.10",
  "updatedAt": "2023-07-05T03:42:09.081Z",
  "networkType": "ethereum",
  "devdoc": {
    "methods": {}
  },
  "userdoc": {
    "methods": {}
  }
}