{
  "contractName": "Session",
  "abi": [
    {
      "constant": true,
      "inputs": [],
      "name": "mainContract",
      "outputs": [
        {
          "name": "",
          "type": "address"
        }
      ],
      "payable": false,
      "stateMutability": "view",
      "type": "function"
    },
    {
      "constant": true,
      "inputs": [],
      "name": "admin",
      "outputs": [
        {
          "name": "",
          "type": "address"
        }
      ],
      "payable": false,
      "stateMutability": "view",
      "type": "function"
    },
    {
      "inputs": [
        {
          "name": "_mainContract",
          "type": "address"
        },
        {
          "name": "_productName",
          "type": "string"
        },
        {
          "name": "_description",
          "type": "string"
        },
        {
          "name": "_images",
          "type": "string[]"
        },
        {
          "name": "_admin",
          "type": "address"
        }
      ],
      "payable": false,
      "stateMutability": "nonpayable",
      "type": "constructor"
    },
    {
      "anonymous": false,
      "inputs": [
        {
          "indexed": false,
          "name": "_productName",
          "type": "string"
        },
        {
          "indexed": false,
          "name": "_description",
          "type": "string"
        },
        {
          "indexed": false,
          "name": "_msg",
          "type": "string"
        }
      ],
      "name": "CreateSession",
      "type": "event"
    },
    {
      "anonymous": false,
      "inputs": [
        {
          "indexed": false,
          "name": "_productName",
          "type": "string"
        },
        {
          "indexed": false,
          "name": "_description",
          "type": "string"
        },
        {
          "indexed": false,
          "name": "_msg",
          "type": "string"
        }
      ],
      "name": "UpdateSession",
      "type": "event"
    },
    {
      "anonymous": false,
      "inputs": [
        {
          "indexed": false,
          "name": "_msg",
          "type": "string"
        }
      ],
      "name": "UpdateSessionStatus",
      "type": "event"
    },
    {
      "anonymous": false,
      "inputs": [
        {
          "indexed": false,
          "name": "_account",
          "type": "address"
        },
        {
          "indexed": false,
          "name": "_msg",
          "type": "string"
        }
      ],
      "name": "Pricing",
      "type": "event"
    },
    {
      "constant": false,
      "inputs": [
        {
          "name": "_productName",
          "type": "string"
        },
        {
          "name": "_description",
          "type": "string"
        },
        {
          "name": "_images",
          "type": "string[]"
        }
      ],
      "name": "updateSession",
      "outputs": [],
      "payable": false,
      "stateMutability": "nonpayable",
      "type": "function"
    },
    {
      "constant": true,
      "inputs": [],
      "name": "getSessionDetail",
      "outputs": [
        {
          "name": "",
          "type": "string"
        },
        {
          "name": "",
          "type": "string"
        },
        {
          "name": "",
          "type": "string[]"
        },
        {
          "name": "",
          "type": "uint256"
        },
        {
          "name": "",
          "type": "int256"
        },
        {
          "name": "",
          "type": "uint256"
        }
      ],
      "payable": false,
      "stateMutability": "view",
      "type": "function"
    },
    {
      "constant": false,
      "inputs": [],
      "name": "startSession",
      "outputs": [],
      "payable": false,
      "stateMutability": "nonpayable",
      "type": "function"
    },
    {
      "constant": false,
      "inputs": [
        {
          "name": "_price",
          "type": "int256"
        }
      ],
      "name": "pricing",
      "outputs": [],
      "payable": false,
      "stateMutability": "nonpayable",
      "type": "function"
    },
    {
      "constant": true,
      "inputs": [],
      "name": "getParticipantPricings",
      "outputs": [
        {
          "name": "",
          "type": "address[]"
        }
      ],
      "payable": false,
      "stateMutability": "view",
      "type": "function"
    },
    {
      "constant": true,
      "inputs": [
        {
          "name": "_paticipant",
          "type": "address"
        }
      ],
      "name": "getParticipantPricingExists",
      "outputs": [
        {
          "name": "",
          "type": "bool"
        }
      ],
      "payable": false,
      "stateMutability": "view",
      "type": "function"
    },
    {
      "constant": false,
      "inputs": [
        {
          "name": "_price",
          "type": "int256"
        }
      ],
      "name": "stopSession",
      "outputs": [],
      "payable": false,
      "stateMutability": "nonpayable",
      "type": "function"
    },
    {
      "constant": true,
      "inputs": [],
      "name": "getPricingByParticipant",
      "outputs": [
        {
          "name": "",
          "type": "int256"
        }
      ],
      "payable": false,
      "stateMutability": "view",
      "type": "function"
    },
    {
      "constant": true,
      "inputs": [],
      "name": "getAllPrices",
      "outputs": [
        {
          "name": "",
          "type": "int256[]"
        }
      ],
      "payable": false,
      "stateMutability": "view",
      "type": "function"
    }
  ],
  "bytecode": "0x60806040523480156200001157600080fd5b5060405162002bcb38038062002bcb8339810180604052620000379190810190620005d7565b846000806101000a81548173ffffffffffffffffffffffffffffffffffffffff021916908373ffffffffffffffffffffffffffffffffffffffff16021790555084600160006101000a81548173ffffffffffffffffffffffffffffffffffffffff021916908373ffffffffffffffffffffffffffffffffffffffff1602179055508360029080519060200190620000d09291906200026c565b508260039080519060200190620000e99291906200026c565b50816004908051906020019062000102929190620002f3565b50600060058190555060006006819055506000600760006101000a81548160ff021916908360028111156200013357fe5b021790555080600b60006101000a81548173ffffffffffffffffffffffffffffffffffffffff021916908373ffffffffffffffffffffffffffffffffffffffff160217905550600160009054906101000a900473ffffffffffffffffffffffffffffffffffffffff1673ffffffffffffffffffffffffffffffffffffffff1663f390dd86306040518263ffffffff167c0100000000000000000000000000000000000000000000000000000000028152600401620001f2919062000728565b600060405180830381600087803b1580156200020d57600080fd5b505af115801562000222573d6000803e3d6000fd5b505050507f9fe7cb314c08d72e270589aeb0470bb4335133b90e7dfd6f84ed11661496dd3784846040516200025992919062000745565b60405180910390a15050505050620008d8565b828054600181600116156101000203166002900490600052602060002090601f016020900481019282601f10620002af57805160ff1916838001178555620002e0565b82800160010185558215620002e0579182015b82811115620002df578251825591602001919060010190620002c2565b5b509050620002ef91906200035a565b5090565b82805482825590600052602060002090810192821562000347579160200282015b82811115620003465782518290805190602001906200033592919062000382565b509160200191906001019062000314565b5b50905062000356919062000409565b5090565b6200037f91905b808211156200037b57600081600090555060010162000361565b5090565b90565b828054600181600116156101000203166002900490600052602060002090601f016020900481019282601f10620003c557805160ff1916838001178555620003f6565b82800160010185558215620003f6579182015b82811115620003f5578251825591602001919060010190620003d8565b5b5090506200040591906200035a565b5090565b6200043791905b808211156200043357600081816200042991906200043a565b5060010162000410565b5090565b90565b50805460018160011615610100020316600290046000825580601f1062000462575062000483565b601f0160209004906000526020600020908101906200048291906200035a565b5b50565b600062000494825162000871565b905092915050565b600082601f8301121515620004b057600080fd5b8151620004c7620004c182620007c3565b62000795565b9150818183526020840193506020810190508360005b83811015620005115781518601620004f688826200051b565b845260208401935060208301925050600181019050620004dd565b5050505092915050565b600082601f83011215156200052f57600080fd5b8151620005466200054082620007ec565b62000795565b915080825260208301602083018583830111156200056357600080fd5b6200057083828462000891565b50505092915050565b600082601f83011215156200058d57600080fd5b8151620005a46200059e8262000819565b62000795565b91508082526020830160208301858383011115620005c157600080fd5b620005ce83828462000891565b50505092915050565b600080600080600060a08688031215620005f057600080fd5b6000620006008882890162000486565b955050602086015167ffffffffffffffff8111156200061e57600080fd5b6200062c8882890162000579565b945050604086015167ffffffffffffffff8111156200064a57600080fd5b620006588882890162000579565b935050606086015167ffffffffffffffff8111156200067657600080fd5b62000684888289016200049c565b9250506080620006978882890162000486565b9150509295509295909350565b620006af8162000851565b82525050565b6000620006c28262000846565b808452620006d881602086016020860162000891565b620006e381620008c7565b602085010191505092915050565b6000601782527f4372656174652073657373696f6e2073756363657373210000000000000000006020830152604082019050919050565b60006020820190506200073f6000830184620006a4565b92915050565b60006060820190508181036000830152620007618185620006b5565b90508181036020830152620007778184620006b5565b905081810360408301526200078c81620006f1565b90509392505050565b6000604051905081810181811067ffffffffffffffff82111715620007b957600080fd5b8060405250919050565b600067ffffffffffffffff821115620007db57600080fd5b602082029050602081019050919050565b600067ffffffffffffffff8211156200080457600080fd5b601f19601f8301169050602081019050919050565b600067ffffffffffffffff8211156200083157600080fd5b601f19601f8301169050602081019050919050565b600081519050919050565b600073ffffffffffffffffffffffffffffffffffffffff82169050919050565b600073ffffffffffffffffffffffffffffffffffffffff82169050919050565b60005b83811015620008b157808201518184015260208101905062000894565b83811115620008c1576000848401525b50505050565b6000601f19601f8301169050919050565b6122e380620008e86000396000f3006080604052600436106100af576000357c0100000000000000000000000000000000000000000000000000000000900463ffffffff1680630c640a10146100b45780630e973501146100df5780632e639ee514610108578063445df9d6146101335780636c38e4c61461015e5780637542040f1461019b578063893e79ba146101c4578063d270e7ab146101ed578063f851a44014610218578063f8cb00bf14610243578063fe0ae16514610273575b600080fd5b3480156100c057600080fd5b506100c961028a565b6040516100d69190611f1f565b60405180910390f35b3480156100eb57600080fd5b50610106600480360361010191908101906119b3565b6103c7565b005b34801561011457600080fd5b5061011d6104dc565b60405161012a9190611ec0565b60405180910390f35b34801561013f57600080fd5b5061014861056a565b6040516101559190611ee2565b60405180910390f35b34801561016a57600080fd5b5061018560048036036101809190810190611938565b6106fd565b6040516101929190611f04565b60405180910390f35b3480156101a757600080fd5b506101c260048036036101bd9190810190611961565b610753565b005b3480156101d057600080fd5b506101eb60048036036101e69190810190611961565b6108a2565b005b3480156101f957600080fd5b50610202610b35565b60405161020f9190611e40565b60405180910390f35b34801561022457600080fd5b5061022d610b5a565b60405161023a9190611e40565b60405180910390f35b34801561024f57600080fd5b50610258610b80565b60405161026a96959493929190611f3a565b60405180910390f35b34801561027f57600080fd5b50610288610de0565b005b6000600b60009054906101000a900473ffffffffffffffffffffffffffffffffffffffff1673ffffffffffffffffffffffffffffffffffffffff163373ffffffffffffffffffffffffffffffffffffffff161415151561031f576040517f08c379a00000000000000000000000000000000000000000000000000000000081526004016103169061201a565b60405180910390fd5b60011515600960003373ffffffffffffffffffffffffffffffffffffffff1673ffffffffffffffffffffffffffffffffffffffff16815260200190815260200160002060009054906101000a900460ff16151514156103bf57600860003373ffffffffffffffffffffffffffffffffffffffff1673ffffffffffffffffffffffffffffffffffffffff1681526020019081526020016000205490506103c4565b600090505b90565b600b60009054906101000a900473ffffffffffffffffffffffffffffffffffffffff1673ffffffffffffffffffffffffffffffffffffffff163373ffffffffffffffffffffffffffffffffffffffff16141515610459576040517f08c379a00000000000000000000000000000000000000000000000000000000081526004016104509061205a565b60405180910390fd5b826002908051906020019061046f9291906115e1565b5081600390805190602001906104869291906115e1565b50806004908051906020019061049d929190611661565b507f2a5d6d5b2dec1b940dec7f561cf0b8cd2965d265ed7c371349e1d15979b075ab83836040516104cf929190611fb0565b60405180910390a1505050565b6060600a80548060200260200160405190810160405280929190818152602001828054801561056057602002820191906000526020600020905b8160009054906101000a900473ffffffffffffffffffffffffffffffffffffffff1673ffffffffffffffffffffffffffffffffffffffff1681526020019060010190808311610516575b5050505050905090565b6060806000600b60009054906101000a900473ffffffffffffffffffffffffffffffffffffffff1673ffffffffffffffffffffffffffffffffffffffff163373ffffffffffffffffffffffffffffffffffffffff16141515610601576040517f08c379a00000000000000000000000000000000000000000000000000000000081526004016105f89061205a565b60405180910390fd5b600a805490506040519080825280602002602001820160405280156106355781602001602082028038833980820191505090505b509150600090505b600a805490508160ff1610156106f55760086000600a8360ff1681548110151561066357fe5b9060005260206000200160009054906101000a900473ffffffffffffffffffffffffffffffffffffffff1673ffffffffffffffffffffffffffffffffffffffff1673ffffffffffffffffffffffffffffffffffffffff16815260200190815260200160002054828260ff168151811015156106da57fe5b9060200190602002018181525050808060010191505061063d565b819250505090565b6000600960008373ffffffffffffffffffffffffffffffffffffffff1673ffffffffffffffffffffffffffffffffffffffff16815260200190815260200160002060009054906101000a900460ff169050919050565b600b60009054906101000a900473ffffffffffffffffffffffffffffffffffffffff1673ffffffffffffffffffffffffffffffffffffffff163373ffffffffffffffffffffffffffffffffffffffff161415156107e5576040517f08c379a00000000000000000000000000000000000000000000000000000000081526004016107dc9061205a565b60405180910390fd5b600160028111156107f257fe5b600760009054906101000a900460ff16600281111561080d57fe5b14151561084f576040517f08c379a000000000000000000000000000000000000000000000000000000000815260040161084690611ffa565b60405180910390fd5b6000600a80549050141561088d57806006819055506002600760006101000a81548160ff0219169083600281111561088357fe5b021790555061089f565b61089681610f37565b61089e611122565b5b50565b600b60009054906101000a900473ffffffffffffffffffffffffffffffffffffffff1673ffffffffffffffffffffffffffffffffffffffff163373ffffffffffffffffffffffffffffffffffffffff1614151515610935576040517f08c379a000000000000000000000000000000000000000000000000000000000815260040161092c9061201a565b60405180910390fd5b6001600281111561094257fe5b600760009054906101000a900460ff16600281111561095d57fe5b14151561099f576040517f08c379a000000000000000000000000000000000000000000000000000000000815260040161099690611ffa565b60405180910390fd5b60001515600960003373ffffffffffffffffffffffffffffffffffffffff1673ffffffffffffffffffffffffffffffffffffffff16815260200190815260200160002060009054906101000a900460ff1615151415610ab7576001600960003373ffffffffffffffffffffffffffffffffffffffff1673ffffffffffffffffffffffffffffffffffffffff16815260200190815260200160002060006101000a81548160ff021916908315150217905550600a3390806001815401808255809150509060018203906000526020600020016000909192909190916101000a81548173ffffffffffffffffffffffffffffffffffffffff021916908373ffffffffffffffffffffffffffffffffffffffff160217905550505b80600860003373ffffffffffffffffffffffffffffffffffffffff1673ffffffffffffffffffffffffffffffffffffffff168152602001908152602001600020819055507f47650289511cf2cfb9b8b559f6e750022263d3a2db072b47698d32df3ac0b80533604051610b2a9190611e92565b60405180910390a150565b6000809054906101000a900473ffffffffffffffffffffffffffffffffffffffff1681565b600b60009054906101000a900473ffffffffffffffffffffffffffffffffffffffff1681565b60608060606000806000600260036004600554600654600760009054906101000a900460ff166002811115610bb157fe5b858054600181600116156101000203166002900480601f016020809104026020016040519081016040528092919081815260200182805460018160011615610100020316600290048015610c465780601f10610c1b57610100808354040283529160200191610c46565b820191906000526020600020905b815481529060010190602001808311610c2957829003601f168201915b50505050509550848054600181600116156101000203166002900480601f016020809104026020016040519081016040528092919081815260200182805460018160011615610100020316600290048015610ce25780601f10610cb757610100808354040283529160200191610ce2565b820191906000526020600020905b815481529060010190602001808311610cc557829003601f168201915b5050505050945083805480602002602001604051908101604052809291908181526020016000905b82821015610dc6578382906000526020600020018054600181600116156101000203166002900480601f016020809104026020016040519081016040528092919081815260200182805460018160011615610100020316600290048015610db25780601f10610d8757610100808354040283529160200191610db2565b820191906000526020600020905b815481529060010190602001808311610d9557829003601f168201915b505050505081526020019060010190610d0a565b505050509350955095509550955095509550909192939495565b600b60009054906101000a900473ffffffffffffffffffffffffffffffffffffffff1673ffffffffffffffffffffffffffffffffffffffff163373ffffffffffffffffffffffffffffffffffffffff16141515610e72576040517f08c379a0000000000000000000000000000000000000000000000000000000008152600401610e699061205a565b60405180910390fd5b60006002811115610e7f57fe5b600760009054906101000a900460ff166002811115610e9a57fe5b141515610edc576040517f08c379a0000000000000000000000000000000000000000000000000000000008152600401610ed39061203a565b60405180910390fd5b6001600760006101000a81548160ff02191690836002811115610efb57fe5b02179055507fd084c6ae9c7d3dcbaf7ac844e5d1150bc12c7d070a3ffb34cd54ca01a03c1364604051610f2d9061207a565b60405180910390a1565b60008060008060008094506000935060009250600091505b600a805490508210156110f457600160009054906101000a900473ffffffffffffffffffffffffffffffffffffffff1673ffffffffffffffffffffffffffffffffffffffff1663a33a08b9600a84815481101515610fa957fe5b9060005260206000200160009054906101000a900473ffffffffffffffffffffffffffffffffffffffff166040518263ffffffff167c010000000000000000000000000000000000000000000000000000000002815260040161100c9190611e40565b602060405180830381600087803b15801561102657600080fd5b505af115801561103a573d6000803e3d6000fd5b505050506040513d601f19601f8201168201806040525061105e919081019061198a565b90508060640360086000600a8581548110151561107757fe5b9060005260206000200160009054906101000a900473ffffffffffffffffffffffffffffffffffffffff1673ffffffffffffffffffffffffffffffffffffffff1673ffffffffffffffffffffffffffffffffffffffff16815260200190815260200160002054028401935080830192508180600101925050610f4f565b82600a80549050606402038481151561110957fe5b0594508460058190555085600681905550505050505050565b600080600080600080600095505b600a8054905086101561149257600a8681548110151561114c57fe5b9060005260206000200160009054906101000a900473ffffffffffffffffffffffffffffffffffffffff169450600160009054906101000a900473ffffffffffffffffffffffffffffffffffffffff1673ffffffffffffffffffffffffffffffffffffffff1663a33a08b9866040518263ffffffff167c01000000000000000000000000000000000000000000000000000000000281526004016111f09190611e40565b602060405180830381600087803b15801561120a57600080fd5b505af115801561121e573d6000803e3d6000fd5b505050506040513d601f19601f82011682018060405250611242919081019061198a565b9350600160009054906101000a900473ffffffffffffffffffffffffffffffffffffffff1673ffffffffffffffffffffffffffffffffffffffff1663be330868866040518263ffffffff167c01000000000000000000000000000000000000000000000000000000000281526004016112bb9190611e40565b602060405180830381600087803b1580156112d557600080fd5b505af11580156112e9573d6000803e3d6000fd5b505050506040513d601f19601f8201168201806040525061130d919081019061198a565b9250611318856114f3565b838502019150600183018281151561132c57fe5b059050600160009054906101000a900473ffffffffffffffffffffffffffffffffffffffff1673ffffffffffffffffffffffffffffffffffffffff1663f24685943087846040518463ffffffff167c01000000000000000000000000000000000000000000000000000000000281526004016113aa93929190611e5b565b600060405180830381600087803b1580156113c457600080fd5b505af11580156113d8573d6000803e3d6000fd5b50505050600160009054906101000a900473ffffffffffffffffffffffffffffffffffffffff1673ffffffffffffffffffffffffffffffffffffffff1663a6829934866040518263ffffffff167c01000000000000000000000000000000000000000000000000000000000281526004016114539190611e40565b600060405180830381600087803b15801561146d57600080fd5b505af1158015611481573d6000803e3d6000fd5b505050508580600101965050611130565b6002600760006101000a81548160ff021916908360028111156114b157fe5b02179055507fd084c6ae9c7d3dcbaf7ac844e5d1150bc12c7d070a3ffb34cd54ca01a03c13646040516114e39061209a565b60405180910390a1505050505050565b6000806000611544600860008673ffffffffffffffffffffffffffffffffffffffff1673ffffffffffffffffffffffffffffffffffffffff1681526020019081526020016000205460065403611573565b91506064600654611554846115b0565b81151561155d57fe5b0502905061156a816115c4565b92505050919050565b6000808212156115a7577fffffffffffffffffffffffffffffffffffffffffffffffffffffffffffffffff820290506115ab565b8190505b919050565b6000670de0b6b3a764000082029050919050565b6000670de0b6b3a7640000828115156115d957fe5b059050919050565b828054600181600116156101000203166002900490600052602060002090601f016020900481019282601f1061162257805160ff1916838001178555611650565b82800160010185558215611650579182015b8281111561164f578251825591602001919060010190611634565b5b50905061165d91906116c1565b5090565b8280548282559060005260206000209081019282156116b0579160200282015b828111156116af57825182908051906020019061169f9291906116e6565b5091602001919060010190611681565b5b5090506116bd9190611766565b5090565b6116e391905b808211156116df5760008160009055506001016116c7565b5090565b90565b828054600181600116156101000203166002900490600052602060002090601f016020900481019282601f1061172757805160ff1916838001178555611755565b82800160010185558215611755579182015b82811115611754578251825591602001919060010190611739565b5b50905061176291906116c1565b5090565b61178f91905b8082111561178b57600081816117829190611792565b5060010161176c565b5090565b90565b50805460018160011615610100020316600290046000825580601f106117b857506117d7565b601f0160209004906000526020600020908101906117d691906116c1565b5b50565b60006117e6823561222c565b905092915050565b600082601f830112151561180157600080fd5b813561181461180f826120e7565b6120ba565b9150818183526020840193506020810190508360005b8381101561185a5781358601611840888261188c565b84526020840193506020830192505060018101905061182a565b5050505092915050565b6000611870823561224c565b905092915050565b6000611884825161224c565b905092915050565b600082601f830112151561189f57600080fd5b81356118b26118ad8261210f565b6120ba565b915080825260208301602083018583830111156118ce57600080fd5b6118d9838284612256565b50505092915050565b600082601f83011215156118f557600080fd5b81356119086119038261213b565b6120ba565b9150808252602083016020830185838301111561192457600080fd5b61192f838284612256565b50505092915050565b60006020828403121561194a57600080fd5b6000611958848285016117da565b91505092915050565b60006020828403121561197357600080fd5b600061198184828501611864565b91505092915050565b60006020828403121561199c57600080fd5b60006119aa84828501611878565b91505092915050565b6000806000606084860312156119c857600080fd5b600084013567ffffffffffffffff8111156119e257600080fd5b6119ee868287016118e2565b935050602084013567ffffffffffffffff811115611a0b57600080fd5b611a17868287016118e2565b925050604084013567ffffffffffffffff811115611a3457600080fd5b611a40868287016117ee565b9150509250925092565b611a53816121ec565b82525050565b6000611a648261218e565b808452602084019350611a7683612167565b60005b82811015611aa857611a8c868351611a4a565b611a95826121c5565b9150602086019550600181019050611a79565b50849250505092915050565b6000611abf82612199565b808452602084019350611ad183612174565b60005b82811015611b0357611ae7868351611b8c565b611af0826121d2565b9150602086019550600181019050611ad4565b50849250505092915050565b6000611b1a826121a4565b80845260208401935083602082028501611b3385612181565b60005b84811015611b6c578383038852611b4e838351611bd1565b9250611b59826121df565b9150602088019750600181019050611b36565b508196508694505050505092915050565b611b868161220c565b82525050565b611b9581612218565b82525050565b6000611ba6826121ba565b808452611bba816020860160208601612265565b611bc381612298565b602085010191505092915050565b6000611bdc826121af565b808452611bf0816020860160208601612265565b611bf981612298565b602085010191505092915050565b6000601a82527f53657373696f6e206973206e6f7420696e2070726f67726573730000000000006020830152604082019050919050565b6000602b82527f546869732066756e6374696f6e206f6e6c79207061727469636970616e74206360208301527f616e2065786563757465210000000000000000000000000000000000000000006040830152606082019050919050565b6000601782527f5570646174652073657373696f6e2073756363657373210000000000000000006020830152604082019050919050565b6000601e82527f53657373696f6e20737461747573206d757374206265204352454154454400006020830152604082019050919050565b6000602582527f546869732066756e6374696f6e206f6e6c792061646d696e2063616e2065786560208301527f63757465210000000000000000000000000000000000000000000000000000006040830152606082019050919050565b6000602082527f5570646174652073657373696f6e2073746174757320746f2050524943494e476020830152604082019050919050565b6000601082527f50726963696e67207375636365737321000000000000000000000000000000006020830152604082019050919050565b6000602b82527f43616c63756c61746520616e64207570646174652073657373696f6e2073746160208301527f74757320746f2053544f500000000000000000000000000000000000000000006040830152606082019050919050565b611e3a81612222565b82525050565b6000602082019050611e556000830184611a4a565b92915050565b6000606082019050611e706000830186611a4a565b611e7d6020830185611a4a565b611e8a6040830184611b8c565b949350505050565b6000604082019050611ea76000830184611a4a565b8181036020830152611eb881611d9d565b905092915050565b60006020820190508181036000830152611eda8184611a59565b905092915050565b60006020820190508181036000830152611efc8184611ab4565b905092915050565b6000602082019050611f196000830184611b7d565b92915050565b6000602082019050611f346000830184611b8c565b92915050565b600060c0820190508181036000830152611f548189611b9b565b90508181036020830152611f688188611b9b565b90508181036040830152611f7c8187611b0f565b9050611f8b6060830186611e31565b611f986080830185611b8c565b611fa560a0830184611e31565b979650505050505050565b60006060820190508181036000830152611fca8185611b9b565b90508181036020830152611fde8184611b9b565b90508181036040830152611ff181611c9b565b90509392505050565b6000602082019050818103600083015261201381611c07565b9050919050565b6000602082019050818103600083015261203381611c3e565b9050919050565b6000602082019050818103600083015261205381611cd2565b9050919050565b6000602082019050818103600083015261207381611d09565b9050919050565b6000602082019050818103600083015261209381611d66565b9050919050565b600060208201905081810360008301526120b381611dd4565b9050919050565b6000604051905081810181811067ffffffffffffffff821117156120dd57600080fd5b8060405250919050565b600067ffffffffffffffff8211156120fe57600080fd5b602082029050602081019050919050565b600067ffffffffffffffff82111561212657600080fd5b601f19601f8301169050602081019050919050565b600067ffffffffffffffff82111561215257600080fd5b601f19601f8301169050602081019050919050565b6000602082019050919050565b6000602082019050919050565b6000602082019050919050565b600081519050919050565b600081519050919050565b600081519050919050565b600081519050919050565b600081519050919050565b6000602082019050919050565b6000602082019050919050565b6000602082019050919050565b600073ffffffffffffffffffffffffffffffffffffffff82169050919050565b60008115159050919050565b6000819050919050565b6000819050919050565b600073ffffffffffffffffffffffffffffffffffffffff82169050919050565b6000819050919050565b82818337600083830152505050565b60005b83811015612283578082015181840152602081019050612268565b83811115612292576000848401525b50505050565b6000601f19601f83011690509190505600a265627a7a723058202150872d4757f2b4f4ad9e5edf867ddb208c41ccb5721d36e788f5ea4ba7bd5c6c6578706572696d656e74616cf50037",
  "source": "// SPDX-License-Identifier: MIT\npragma solidity ^0.4.26;\npragma experimental ABIEncoderV2;\nimport \"./lib/NumberLibrary.sol\";\n\ninterface IMain {\n    /**\n     * Add a Session Contract address into Main Contract. Use to link Session with Main.\n     *\n     * @param session Session address\n     */\n    function addSession(address session) external;\n\n    /**\n     * Get deviation by participant address.\n     *\n     * @param _account participant address\n     *\n     * @return int\n     */\n    function getDeviation(address _account) external view returns (int);\n\n    /**\n     * Set deviation for a participant.\n     *\n     * @param _session session address \n     * @param _account participant address\n     * @param _deviation deviation vslue \n     */\n    function setDeviation(address _session, address _account, int _deviation) external;\n\n    /**\n     * Increment numnber of session for a participant.\n     *\n     * @param _account participant address\n     */\n    function incrementNumberOfSession(address _account) external;\n\n    /**\n     * Get number of session by participant.\n     *\n     * @param _account participant address\n     *\n     * @return int\n     */\n    function getNumberOfSession(address _account) external view returns(int);\n}\n\ncontract Session {\n    /**\n     * Main contract address\n     */\n    address public mainContract;\n\n    /**\n     * Variable to hold Main Contract instance to call functions from Main\n     */\n    IMain MainContract;\n\n    /**\n     * Session status:\n     *\n     * 0: CREATED\n     * 1: PRICING\n     * 2: STOP\n     */\n    enum SESSION_STATUS {CREATED, PRICING, STOP}\n\n    /**\n     * Session/Product name\n     */\n    string private productName;\n\n    /**\n     * Session/Product description\n     */\n    string private description;\n\n    /**\n     * Image list\n     */\n    string[] private images;\n\n    /**\n     * Sugest price - Proposal price\n     */\n    uint private suggestPrice;\n\n    /**\n     * Final price\n     */\n    int private finalPrice;\n\n    /**\n     * Session status\n     */\n    SESSION_STATUS private status;\n\n    /**\n     * List of mapping participant join to pricing\n     */\n    mapping(address => int) private mapParticipantPricings;\n\n    /**\n     * List of mark participant join to pricing\n     */\n    mapping(address => bool) private isParticipantPricingExists;\n\n    /**\n     * Array of participant address join to pricing\n     */\n    address[] private participantPricings;\n\n    /**\n     * Administrator address\n     */\n    address public admin;\n\n    using NumberLibrary for int;\n\n    /**\n     * Main constructor.\n     *\n     * @param _mainContract Main address\n     * @param _productName product name\n     * @param _description Session description.\n     * @param _images List of array\n     * @param _admin Admin address\n     */\n    constructor(\n        address _mainContract,\n        string memory _productName,\n        string memory _description,\n        string[] memory _images,\n        address _admin\n    ) public {\n        // Get Main Contract address\n        mainContract = _mainContract;\n        // Get Main Contract instance\n        MainContract = IMain(_mainContract);\n        productName = _productName;\n        description = _description;\n        images = _images;\n        suggestPrice = 0;\n        finalPrice = 0;\n        status = SESSION_STATUS.CREATED;\n        admin = _admin;\n        // Call Main Contract function to link current contract.\n        MainContract.addSession(address(this));\n        emit CreateSession(_productName, _description, \"Create session success!\");\n    }\n\n    /**\n     * Event create session.\n     */\n    event CreateSession(string _productName, string _description, string _msg);\n\n    /**\n     * Event update session.\n     */\n    event UpdateSession(string _productName, string _description, string _msg);\n\n    /**\n     * Event update session status.\n     */\n    event UpdateSessionStatus(string _msg);\n\n    /**\n     * Event pricing.\n     */\n    event Pricing(address _account, string _msg);\n\n    /**\n     * Update session.\n     *\n     * @param _productName session/product name\n     * @param _description description\n     * @param _images Array of product images\n     */\n    function updateSession(string memory _productName, string memory _description, string[] memory _images) public onlyAdmin {\n        productName = _productName;\n        description = _description;\n        images = _images;\n        emit UpdateSession(_productName, _description, \"Update session success!\");\n    }\n\n    /**\n     * Get session detail.\n     *\n     * @return string session name\n     * @return string session description\n     * @return string[] Array of product images\n     * @return uint suggest price\n     * @return int final price\n     * @return uint status\n     */\n    function getSessionDetail() public view returns(string memory, string memory, string[] memory, uint, int, uint) {\n        return (productName, description, images, suggestPrice, finalPrice, uint(status));\n    }\n\n    /**\n     * Update session status to PRICING.\n     * CREATED -> PRICING -> STOP\n     */\n    function startSession() public onlyAdmin {\n        require(status == SESSION_STATUS.CREATED, \"Session status must be CREATED\");\n        status = SESSION_STATUS.PRICING;\n        emit UpdateSessionStatus(\"Update session status to PRICING\");\n    }\n\n    /**\n     * Participant pricing session.\n     *\n     * @param _price price participant submit\n     */\n    function pricing(int _price) public onlyParticipant onlyInProgress {\n        if (isParticipantPricingExists[msg.sender] == false) {\n            isParticipantPricingExists[msg.sender] = true;\n            participantPricings.push(msg.sender);\n        }\n\n        mapParticipantPricings[msg.sender] = _price;\n        emit Pricing(msg.sender, \"Pricing success!\");\n    }\n\n    /**\n     * Get participant pricings.\n     *\n     * @return address[] Array of participant prices\n     */\n    function getParticipantPricings() public view returns (address[] memory) {\n        return participantPricings;\n    }\n\n    /**\n     * Get Participant pricing exists.\n     *\n     * @param _paticipant participant address\n     *\n     * @return bool is participant is exists in this session\n     */\n    function getParticipantPricingExists(address _paticipant) public view returns (bool) {\n        return isParticipantPricingExists[_paticipant];\n    }\n\n    /**\n     * Calculate suggest price.\n     *\n     * @param _price final price\n     */\n    function calculateSuggestPrice(int _price) private {\n        int _suggestPrice = 0;\n        int _sumOfPriceWithDeviation = 0;\n        int _sumOfDeviation = 0;\n\n        // Get current deviation\n        // calculate sum of deviation\n        for (uint i = 0; i < participantPricings.length; i++) {\n            int _deviation = MainContract.getDeviation(participantPricings[i]);\n            _sumOfPriceWithDeviation += mapParticipantPricings[participantPricings[i]] * (100 - _deviation);\n            _sumOfDeviation += _deviation;\n        }\n\n        // calculate suggest price\n        _suggestPrice = _sumOfPriceWithDeviation / ((100 * int(participantPricings.length)) - _sumOfDeviation);\n        suggestPrice = uint(_suggestPrice);\n        // set final price\n        finalPrice = _price;\n    }\n\n    /**\n     * Calculate participant's deviation in session.\n     *\n     * @param _account Participant address\n     *\n     * @return int deviation\n     */\n    function calculateDeviationInSession(address _account) private view returns (int) {\n        int _subDeviation = (finalPrice - mapParticipantPricings[_account]).abs();\n        int _subDeviationResult = (_subDeviation.compress() / finalPrice) * 100;\n\n        return _subDeviationResult.extract();\n    }\n\n    /**\n     * Calculate deviation and upstate session status to STOP\n     */\n    function calculateDeviationLatestAndStop() private {\n        // Scan on each participant \n        for (uint i = 0; i < participantPricings.length; i++) {\n            address _account = participantPricings[i];\n            // Get current participant deviation\n            int _deviation = MainContract.getDeviation(_account);\n            // Get current number of session\n            int _numberOfSession = MainContract.getNumberOfSession(_account);\n            // Calculate new deviation\n            int _subDeviation = (_deviation * _numberOfSession) + calculateDeviationInSession(_account);\n            int _newDeviation = _subDeviation / (_numberOfSession + 1);\n            // Update new deviation, number of session\n            MainContract.setDeviation(address(this), _account, _newDeviation);\n            MainContract.incrementNumberOfSession(_account);\n        }\n\n        // Update Session status to STOP\n        status = SESSION_STATUS.STOP;\n        emit UpdateSessionStatus(\"Calculate and update session status to STOP\");\n    }\n\n    /**\n     * Stop session and calculate deviation on each participant.\n     *\n     * @param _price final price\n     */\n    function stopSession(int _price) public onlyAdmin onlyInProgress {\n        if (participantPricings.length == 0) {\n            finalPrice = _price;\n            status = SESSION_STATUS.STOP;\n        } else {\n            calculateSuggestPrice(_price);\n            calculateDeviationLatestAndStop();\n        }\n    }\n\n    /**\n     * Get participant pricing.\n     *\n     * @return int price\n     */\n    function getPricingByParticipant() public onlyParticipant view returns(int) {\n        if (isParticipantPricingExists[msg.sender] == true) {\n            return mapParticipantPricings[msg.sender];\n        } else {\n            return 0;\n        }\n    }\n\n    /**\n     * Get all prices.\n     *\n     * @return int[] Array of prices\n     */\n    function getAllPrices() public onlyAdmin() view returns(int[]) {\n        int[] memory prices = new int[](participantPricings.length);\n\n        for (uint8 i = 0; i < participantPricings.length; i++) {\n            prices[i] = mapParticipantPricings[participantPricings[i]];\n        }\n\n        return prices;\n    }\n\n    /**\n     * Modify only status is PRICING.\n     */\n    modifier onlyInProgress {\n        require(status == SESSION_STATUS.PRICING, \"Session is not in progress\");\n        _;\n    }\n\n    /**\n     * Modify to check only admin.\n     */\n    modifier onlyAdmin() {\n        require(msg.sender == admin, \"This function only admin can execute!\");\n        _;\n    }\n\n    /**\n     * Modify to check only participant.\n     */\n    modifier onlyParticipant() {\n        require(msg.sender != admin, \"This function only participant can execute!\");\n        _;\n    }\n}\n",
  "sourcePath": "/Users/damthe/study/TheFunixPricing/truffle/contracts/Session.sol",
  "compiler": {
    "name": "solc",
    "version": "0.4.26+commit.4563c3fc.Emscripten.clang"
  },
  "schemaVersion": "3.4.10",
  "updatedAt": "2023-08-27T07:14:33.427Z",
  "devdoc": {
    "methods": {
      "getAllPrices()": {
        "return": "int[] Array of prices"
      },
      "getParticipantPricingExists(address)": {
        "params": {
          "_paticipant": "participant address"
        },
        "return": "bool is participant is exists in this session"
      },
      "getParticipantPricings()": {
        "return": "address[] Array of participant prices"
      },
      "getPricingByParticipant()": {
        "return": "int price"
      },
      "getSessionDetail()": {
        "return": "string session namestring session descriptionstring[] Array of product imagesuint suggest priceint final priceuint status"
      },
      "pricing(int256)": {
        "params": {
          "_price": "price participant submit"
        }
      },
      "stopSession(int256)": {
        "params": {
          "_price": "final price"
        }
      },
      "updateSession(string,string,string[])": {
        "params": {
          "_description": "description",
          "_images": "Array of product images",
          "_productName": "session/product name"
        }
      }
    }
  },
  "userdoc": {
    "methods": {
      "getAllPrices()": {
        "notice": "Get all prices."
      },
      "getParticipantPricingExists(address)": {
        "notice": "Get Participant pricing exists."
      },
      "getParticipantPricings()": {
        "notice": "Get participant pricings."
      },
      "getPricingByParticipant()": {
        "notice": "Get participant pricing."
      },
      "getSessionDetail()": {
        "notice": "Get session detail."
      },
      "pricing(int256)": {
        "notice": "Participant pricing session."
      },
      "startSession()": {
        "notice": "Update session status to PRICING. CREATED -> PRICING -> STOP"
      },
      "stopSession(int256)": {
        "notice": "Stop session and calculate deviation on each participant."
      },
      "updateSession(string,string,string[])": {
        "notice": "Update session."
      }
    }
  }
}