{
  "contractName": "Session",
  "abi": [
    {
      "constant": true,
      "inputs": [],
      "name": "mainContract",
      "outputs": [
        {
          "name": "",
          "type": "address"
        }
      ],
      "payable": false,
      "stateMutability": "view",
      "type": "function"
    },
    {
      "inputs": [
        {
          "name": "_mainContract",
          "type": "address"
        },
        {
          "name": "_productName",
          "type": "string"
        },
        {
          "name": "_description",
          "type": "string"
        },
        {
          "name": "_images",
          "type": "string[]"
        }
      ],
      "payable": false,
      "stateMutability": "nonpayable",
      "type": "constructor"
    },
    {
      "anonymous": false,
      "inputs": [
        {
          "indexed": false,
          "name": "_productName",
          "type": "string"
        },
        {
          "indexed": false,
          "name": "_description",
          "type": "string"
        },
        {
          "indexed": false,
          "name": "_msg",
          "type": "string"
        }
      ],
      "name": "CreateSession",
      "type": "event"
    },
    {
      "anonymous": false,
      "inputs": [
        {
          "indexed": false,
          "name": "_productName",
          "type": "string"
        },
        {
          "indexed": false,
          "name": "_description",
          "type": "string"
        },
        {
          "indexed": false,
          "name": "_msg",
          "type": "string"
        }
      ],
      "name": "UpdateSession",
      "type": "event"
    },
    {
      "anonymous": false,
      "inputs": [
        {
          "indexed": false,
          "name": "_msg",
          "type": "string"
        }
      ],
      "name": "UpdateSessionStatus",
      "type": "event"
    },
    {
      "anonymous": false,
      "inputs": [
        {
          "indexed": false,
          "name": "_account",
          "type": "address"
        },
        {
          "indexed": false,
          "name": "_msg",
          "type": "string"
        }
      ],
      "name": "Pricing",
      "type": "event"
    },
    {
      "constant": false,
      "inputs": [
        {
          "name": "_productName",
          "type": "string"
        },
        {
          "name": "_description",
          "type": "string"
        },
        {
          "name": "_images",
          "type": "string[]"
        }
      ],
      "name": "updateSession",
      "outputs": [],
      "payable": false,
      "stateMutability": "nonpayable",
      "type": "function"
    },
    {
      "constant": false,
      "inputs": [],
      "name": "startSession",
      "outputs": [],
      "payable": false,
      "stateMutability": "nonpayable",
      "type": "function"
    },
    {
      "constant": true,
      "inputs": [],
      "name": "getParticipantPricings",
      "outputs": [
        {
          "name": "",
          "type": "address[]"
        }
      ],
      "payable": false,
      "stateMutability": "view",
      "type": "function"
    },
    {
      "constant": false,
      "inputs": [],
      "name": "stopSession",
      "outputs": [],
      "payable": false,
      "stateMutability": "nonpayable",
      "type": "function"
    },
    {
      "constant": false,
      "inputs": [
        {
          "name": "_price",
          "type": "int256"
        }
      ],
      "name": "pricing",
      "outputs": [],
      "payable": false,
      "stateMutability": "nonpayable",
      "type": "function"
    },
    {
      "constant": true,
      "inputs": [],
      "name": "getSessionDetail",
      "outputs": [
        {
          "name": "",
          "type": "string"
        },
        {
          "name": "",
          "type": "string"
        },
        {
          "name": "",
          "type": "string[]"
        },
        {
          "name": "",
          "type": "uint256"
        },
        {
          "name": "",
          "type": "int256"
        },
        {
          "name": "",
          "type": "uint256"
        }
      ],
      "payable": false,
      "stateMutability": "view",
      "type": "function"
    },
    {
      "constant": false,
      "inputs": [
        {
          "name": "_price",
          "type": "int256"
        }
      ],
      "name": "calculateSuggestPriceAndCloseSession",
      "outputs": [],
      "payable": false,
      "stateMutability": "nonpayable",
      "type": "function"
    },
    {
      "constant": false,
      "inputs": [],
      "name": "calculateDeviationLatestAndStop",
      "outputs": [],
      "payable": false,
      "stateMutability": "nonpayable",
      "type": "function"
    }
  ],
  "bytecode": "0x60806040523480156200001157600080fd5b5060405162002958380380620029588339810180604052620000379190810190620006c3565b836000806101000a81548173ffffffffffffffffffffffffffffffffffffffff021916908373ffffffffffffffffffffffffffffffffffffffff16021790555083600160006101000a81548173ffffffffffffffffffffffffffffffffffffffff021916908373ffffffffffffffffffffffffffffffffffffffff1602179055508260029080519060200190620000d09291906200032c565b508160039080519060200190620000e99291906200032c565b50806004908051906020019062000102929190620003b3565b50600060058190555060006006819055506000600760006101000a81548160ff021916908360038111156200013357fe5b0217905550600160009054906101000a900473ffffffffffffffffffffffffffffffffffffffff1673ffffffffffffffffffffffffffffffffffffffff16636e9960c36040518163ffffffff167c0100000000000000000000000000000000000000000000000000000000028152600401602060405180830381600087803b158015620001bf57600080fd5b505af1158015620001d4573d6000803e3d6000fd5b505050506040513d601f19601f82011682018060405250620001fa919081019062000697565b600b60006101000a81548173ffffffffffffffffffffffffffffffffffffffff021916908373ffffffffffffffffffffffffffffffffffffffff160217905550600160009054906101000a900473ffffffffffffffffffffffffffffffffffffffff1673ffffffffffffffffffffffffffffffffffffffff1663f390dd86306040518263ffffffff167c0100000000000000000000000000000000000000000000000000000000028152600401620002b39190620007fe565b600060405180830381600087803b158015620002ce57600080fd5b505af1158015620002e3573d6000803e3d6000fd5b505050507f9fe7cb314c08d72e270589aeb0470bb4335133b90e7dfd6f84ed11661496dd3783836040516200031a9291906200081b565b60405180910390a150505050620009ae565b828054600181600116156101000203166002900490600052602060002090601f016020900481019282601f106200036f57805160ff1916838001178555620003a0565b82800160010185558215620003a0579182015b828111156200039f57825182559160200191906001019062000382565b5b509050620003af91906200041a565b5090565b82805482825590600052602060002090810192821562000407579160200282015b8281111562000406578251829080519060200190620003f592919062000442565b5091602001919060010190620003d4565b5b509050620004169190620004c9565b5090565b6200043f91905b808211156200043b57600081600090555060010162000421565b5090565b90565b828054600181600116156101000203166002900490600052602060002090601f016020900481019282601f106200048557805160ff1916838001178555620004b6565b82800160010185558215620004b6579182015b82811115620004b557825182559160200191906001019062000498565b5b509050620004c591906200041a565b5090565b620004f791905b80821115620004f35760008181620004e99190620004fa565b50600101620004d0565b5090565b90565b50805460018160011615610100020316600290046000825580601f1062000522575062000543565b601f0160209004906000526020600020908101906200054291906200041a565b5b50565b600062000554825162000947565b905092915050565b600082601f83011215156200057057600080fd5b815162000587620005818262000899565b6200086b565b9150818183526020840193506020810190508360005b83811015620005d15781518601620005b68882620005db565b8452602084019350602083019250506001810190506200059d565b5050505092915050565b600082601f8301121515620005ef57600080fd5b8151620006066200060082620008c2565b6200086b565b915080825260208301602083018583830111156200062357600080fd5b6200063083828462000967565b50505092915050565b600082601f83011215156200064d57600080fd5b8151620006646200065e82620008ef565b6200086b565b915080825260208301602083018583830111156200068157600080fd5b6200068e83828462000967565b50505092915050565b600060208284031215620006aa57600080fd5b6000620006ba8482850162000546565b91505092915050565b60008060008060808587031215620006da57600080fd5b6000620006ea8782880162000546565b945050602085015167ffffffffffffffff8111156200070857600080fd5b620007168782880162000639565b935050604085015167ffffffffffffffff8111156200073457600080fd5b620007428782880162000639565b925050606085015167ffffffffffffffff8111156200076057600080fd5b6200076e878288016200055c565b91505092959194509250565b620007858162000927565b82525050565b600062000798826200091c565b808452620007ae81602086016020860162000967565b620007b9816200099d565b602085010191505092915050565b6000601782527f4372656174652073657373696f6e2073756363657373210000000000000000006020830152604082019050919050565b60006020820190506200081560008301846200077a565b92915050565b600060608201905081810360008301526200083781856200078b565b905081810360208301526200084d81846200078b565b905081810360408301526200086281620007c7565b90509392505050565b6000604051905081810181811067ffffffffffffffff821117156200088f57600080fd5b8060405250919050565b600067ffffffffffffffff821115620008b157600080fd5b602082029050602081019050919050565b600067ffffffffffffffff821115620008da57600080fd5b601f19601f8301169050602081019050919050565b600067ffffffffffffffff8211156200090757600080fd5b601f19601f8301169050602081019050919050565b600081519050919050565b600073ffffffffffffffffffffffffffffffffffffffff82169050919050565b600073ffffffffffffffffffffffffffffffffffffffff82169050919050565b60005b83811015620009875780820151818401526020810190506200096a565b8381111562000997576000848401525b50505050565b6000601f19601f8301169050919050565b611f9a80620009be6000396000f300608060405260043610610099576000357c0100000000000000000000000000000000000000000000000000000000900463ffffffff1680630e9735011461009e5780632e639ee5146100c75780633d33b629146100f2578063893e79ba14610109578063cbd8c61314610132578063d270e7ab14610149578063ddc0961d14610174578063f8cb00bf1461019d578063fe0ae165146101cd575b600080fd5b3480156100aa57600080fd5b506100c560048036036100c09190810190611703565b6101e4565b005b3480156100d357600080fd5b506100dc6102f9565b6040516100e99190611be0565b60405180910390f35b3480156100fe57600080fd5b50610107610387565b005b34801561011557600080fd5b50610130600480360361012b91908101906116b1565b61074c565b005b34801561013e57600080fd5b50610147610a88565b005b34801561015557600080fd5b5061015e610bdf565b60405161016b9190611b6e565b60405180910390f35b34801561018057600080fd5b5061019b600480360361019691908101906116b1565b610c04565b005b3480156101a957600080fd5b506101b2610f10565b6040516101c496959493929190611c02565b60405180910390f35b3480156101d957600080fd5b506101e2611170565b005b600b60009054906101000a900473ffffffffffffffffffffffffffffffffffffffff1673ffffffffffffffffffffffffffffffffffffffff163373ffffffffffffffffffffffffffffffffffffffff16141515610276576040517f08c379a000000000000000000000000000000000000000000000000000000000815260040161026d90611d22565b60405180910390fd5b826002908051906020019061028c92919061136e565b5081600390805190602001906102a392919061136e565b5080600490805190602001906102ba9291906113ee565b507f2a5d6d5b2dec1b940dec7f561cf0b8cd2965d265ed7c371349e1d15979b075ab83836040516102ec929190611c78565b60405180910390a1505050565b6060600a80548060200260200160405190810160405280929190818152602001828054801561037d57602002820191906000526020600020905b8160009054906101000a900473ffffffffffffffffffffffffffffffffffffffff1673ffffffffffffffffffffffffffffffffffffffff1681526020019060010190808311610333575b5050505050905090565b6000806000806000600b60009054906101000a900473ffffffffffffffffffffffffffffffffffffffff1673ffffffffffffffffffffffffffffffffffffffff163373ffffffffffffffffffffffffffffffffffffffff16141515610421576040517f08c379a000000000000000000000000000000000000000000000000000000000815260040161041890611d22565b60405180910390fd5b6000600654131515610468576040517f08c379a000000000000000000000000000000000000000000000000000000000815260040161045f90611da2565b60405180910390fd5b600094505b600a8054905085101561072157600a8581548110151561048957fe5b9060005260206000200160009054906101000a900473ffffffffffffffffffffffffffffffffffffffff169350600160009054906101000a900473ffffffffffffffffffffffffffffffffffffffff1673ffffffffffffffffffffffffffffffffffffffff1663a33a08b9856040518263ffffffff167c010000000000000000000000000000000000000000000000000000000002815260040161052d9190611b6e565b602060405180830381600087803b15801561054757600080fd5b505af115801561055b573d6000803e3d6000fd5b505050506040513d601f19601f8201168201806040525061057f91908101906116da565b925061058a846112c7565b600160009054906101000a900473ffffffffffffffffffffffffffffffffffffffff1673ffffffffffffffffffffffffffffffffffffffff1663be330868866040518263ffffffff167c01000000000000000000000000000000000000000000000000000000000281526004016106019190611b6e565b602060405180830381600087803b15801561061b57600080fd5b505af115801561062f573d6000803e3d6000fd5b505050506040513d601f19601f8201168201806040525061065391908101906116da565b8402019150600183018281151561066657fe5b059050600160009054906101000a900473ffffffffffffffffffffffffffffffffffffffff1673ffffffffffffffffffffffffffffffffffffffff16638c99069885836040518363ffffffff167c01000000000000000000000000000000000000000000000000000000000281526004016106e2929190611b89565b600060405180830381600087803b1580156106fc57600080fd5b505af1158015610710573d6000803e3d6000fd5b50505050848060010195505061046d565b6003600760006101000a81548160ff0219169083600381111561074057fe5b02179055505050505050565b600b60009054906101000a900473ffffffffffffffffffffffffffffffffffffffff1673ffffffffffffffffffffffffffffffffffffffff163373ffffffffffffffffffffffffffffffffffffffff16141515156107df576040517f08c379a00000000000000000000000000000000000000000000000000000000081526004016107d690611ce2565b60405180910390fd5b600160038111156107ec57fe5b600760009054906101000a900460ff16600381111561080757fe5b141515610849576040517f08c379a000000000000000000000000000000000000000000000000000000000815260040161084090611cc2565b60405180910390fd5b60001515600960003373ffffffffffffffffffffffffffffffffffffffff1673ffffffffffffffffffffffffffffffffffffffff16815260200190815260200160002060009054906101000a900460ff1615151415610a0a576001600960003373ffffffffffffffffffffffffffffffffffffffff1673ffffffffffffffffffffffffffffffffffffffff16815260200190815260200160002060006101000a81548160ff021916908315150217905550600a3390806001815401808255809150509060018203906000526020600020016000909192909190916101000a81548173ffffffffffffffffffffffffffffffffffffffff021916908373ffffffffffffffffffffffffffffffffffffffff16021790555050600160009054906101000a900473ffffffffffffffffffffffffffffffffffffffff1673ffffffffffffffffffffffffffffffffffffffff1663a6829934336040518263ffffffff167c01000000000000000000000000000000000000000000000000000000000281526004016109d79190611b6e565b600060405180830381600087803b1580156109f157600080fd5b505af1158015610a05573d6000803e3d6000fd5b505050505b80600860003373ffffffffffffffffffffffffffffffffffffffff1673ffffffffffffffffffffffffffffffffffffffff168152602001908152602001600020819055507f47650289511cf2cfb9b8b559f6e750022263d3a2db072b47698d32df3ac0b80533604051610a7d9190611bb2565b60405180910390a150565b600b60009054906101000a900473ffffffffffffffffffffffffffffffffffffffff1673ffffffffffffffffffffffffffffffffffffffff163373ffffffffffffffffffffffffffffffffffffffff16141515610b1a576040517f08c379a0000000000000000000000000000000000000000000000000000000008152600401610b1190611d22565b60405180910390fd5b60026003811115610b2757fe5b600760009054906101000a900460ff166003811115610b4257fe5b141515610b84576040517f08c379a0000000000000000000000000000000000000000000000000000000008152600401610b7b90611d82565b60405180910390fd5b6003600760006101000a81548160ff02191690836003811115610ba357fe5b02179055507fd084c6ae9c7d3dcbaf7ac844e5d1150bc12c7d070a3ffb34cd54ca01a03c1364604051610bd590611d42565b60405180910390a1565b6000809054906101000a900473ffffffffffffffffffffffffffffffffffffffff1681565b6000806000806000600b60009054906101000a900473ffffffffffffffffffffffffffffffffffffffff1673ffffffffffffffffffffffffffffffffffffffff163373ffffffffffffffffffffffffffffffffffffffff16141515610c9e576040517f08c379a0000000000000000000000000000000000000000000000000000000008152600401610c9590611d22565b60405180910390fd5b60016003811115610cab57fe5b600760009054906101000a900460ff166003811115610cc657fe5b141515610d08576040517f08c379a0000000000000000000000000000000000000000000000000000000008152600401610cff90611cc2565b60405180910390fd5b600094506000935060009250600091505b600a80549050821015610ebe57600160009054906101000a900473ffffffffffffffffffffffffffffffffffffffff1673ffffffffffffffffffffffffffffffffffffffff1663a33a08b9600a84815481101515610d7357fe5b9060005260206000200160009054906101000a900473ffffffffffffffffffffffffffffffffffffffff166040518263ffffffff167c0100000000000000000000000000000000000000000000000000000000028152600401610dd69190611b6e565b602060405180830381600087803b158015610df057600080fd5b505af1158015610e04573d6000803e3d6000fd5b505050506040513d601f19601f82011682018060405250610e2891908101906116da565b90508060640360086000600a85815481101515610e4157fe5b9060005260206000200160009054906101000a900473ffffffffffffffffffffffffffffffffffffffff1673ffffffffffffffffffffffffffffffffffffffff1673ffffffffffffffffffffffffffffffffffffffff16815260200190815260200160002054028401935080830192508180600101925050610d19565b82600a805490506064020384811515610ed357fe5b05945084600581905550856006819055506002600760006101000a81548160ff02191690836003811115610f0357fe5b0217905550505050505050565b60608060606000806000600260036004600554600654600760009054906101000a900460ff166003811115610f4157fe5b858054600181600116156101000203166002900480601f016020809104026020016040519081016040528092919081815260200182805460018160011615610100020316600290048015610fd65780601f10610fab57610100808354040283529160200191610fd6565b820191906000526020600020905b815481529060010190602001808311610fb957829003601f168201915b50505050509550848054600181600116156101000203166002900480601f0160208091040260200160405190810160405280929190818152602001828054600181600116156101000203166002900480156110725780601f1061104757610100808354040283529160200191611072565b820191906000526020600020905b81548152906001019060200180831161105557829003601f168201915b5050505050945083805480602002602001604051908101604052809291908181526020016000905b82821015611156578382906000526020600020018054600181600116156101000203166002900480601f0160208091040260200160405190810160405280929190818152602001828054600181600116156101000203166002900480156111425780601f1061111757610100808354040283529160200191611142565b820191906000526020600020905b81548152906001019060200180831161112557829003601f168201915b50505050508152602001906001019061109a565b505050509350955095509550955095509550909192939495565b600b60009054906101000a900473ffffffffffffffffffffffffffffffffffffffff1673ffffffffffffffffffffffffffffffffffffffff163373ffffffffffffffffffffffffffffffffffffffff16141515611202576040517f08c379a00000000000000000000000000000000000000000000000000000000081526004016111f990611d22565b60405180910390fd5b6000600381111561120f57fe5b600760009054906101000a900460ff16600381111561122a57fe5b14151561126c576040517f08c379a000000000000000000000000000000000000000000000000000000000815260040161126390611d02565b60405180910390fd5b6001600760006101000a81548160ff0219169083600381111561128b57fe5b02179055507fd084c6ae9c7d3dcbaf7ac844e5d1150bc12c7d070a3ffb34cd54ca01a03c13646040516112bd90611d62565b60405180910390a1565b600080611316600860008573ffffffffffffffffffffffffffffffffffffffff1673ffffffffffffffffffffffffffffffffffffffff1681526020019081526020016000205460065403611331565b905060646006548281151561132757fe5b0502915050919050565b600080821215611365577fffffffffffffffffffffffffffffffffffffffffffffffffffffffffffffffff82029050611369565b8190505b919050565b828054600181600116156101000203166002900490600052602060002090601f016020900481019282601f106113af57805160ff19168380011785556113dd565b828001600101855582156113dd579182015b828111156113dc5782518255916020019190600101906113c1565b5b5090506113ea919061144e565b5090565b82805482825590600052602060002090810192821561143d579160200282015b8281111561143c57825182908051906020019061142c929190611473565b509160200191906001019061140e565b5b50905061144a91906114f3565b5090565b61147091905b8082111561146c576000816000905550600101611454565b5090565b90565b828054600181600116156101000203166002900490600052602060002090601f016020900481019282601f106114b457805160ff19168380011785556114e2565b828001600101855582156114e2579182015b828111156114e15782518255916020019190600101906114c6565b5b5090506114ef919061144e565b5090565b61151c91905b80821115611518576000818161150f919061151f565b506001016114f9565b5090565b90565b50805460018160011615610100020316600290046000825580601f106115455750611564565b601f016020900490600052602060002090810190611563919061144e565b5b50565b600082601f830112151561157a57600080fd5b813561158d61158882611def565b611dc2565b9150818183526020840193506020810190508360005b838110156115d357813586016115b98882611605565b8452602084019350602083019250506001810190506115a3565b5050505092915050565b60006115e98235611f03565b905092915050565b60006115fd8251611f03565b905092915050565b600082601f830112151561161857600080fd5b813561162b61162682611e17565b611dc2565b9150808252602083016020830185838301111561164757600080fd5b611652838284611f0d565b50505092915050565b600082601f830112151561166e57600080fd5b813561168161167c82611e43565b611dc2565b9150808252602083016020830185838301111561169d57600080fd5b6116a8838284611f0d565b50505092915050565b6000602082840312156116c357600080fd5b60006116d1848285016115dd565b91505092915050565b6000602082840312156116ec57600080fd5b60006116fa848285016115f1565b91505092915050565b60008060006060848603121561171857600080fd5b600084013567ffffffffffffffff81111561173257600080fd5b61173e8682870161165b565b935050602084013567ffffffffffffffff81111561175b57600080fd5b6117678682870161165b565b925050604084013567ffffffffffffffff81111561178457600080fd5b61179086828701611567565b9150509250925092565b6117a381611ecf565b82525050565b60006117b482611e89565b8084526020840193506117c683611e6f565b60005b828110156117f8576117dc86835161179a565b6117e582611eb5565b91506020860195506001810190506117c9565b50849250505092915050565b600061180f82611e94565b8084526020840193508360208202850161182885611e7c565b60005b848110156118615783830388526118438383516118b7565b925061184e82611ec2565b915060208801975060018101905061182b565b508196508694505050505092915050565b61187b81611eef565b82525050565b600061188c82611eaa565b8084526118a0816020860160208601611f1c565b6118a981611f4f565b602085010191505092915050565b60006118c282611e9f565b8084526118d6816020860160208601611f1c565b6118df81611f4f565b602085010191505092915050565b6000601a82527f53657373696f6e206973206e6f7420696e2070726f67726573730000000000006020830152604082019050919050565b6000602b82527f546869732066756e6374696f6e206f6e6c79207061727469636970616e74206360208301527f616e2065786563757465210000000000000000000000000000000000000000006040830152606082019050919050565b6000601782527f5570646174652073657373696f6e2073756363657373210000000000000000006020830152604082019050919050565b6000601e82527f53657373696f6e20737461747573206d757374206265204352454154454400006020830152604082019050919050565b6000602582527f546869732066756e6374696f6e206f6e6c792061646d696e2063616e2065786560208301527f63757465210000000000000000000000000000000000000000000000000000006040830152606082019050919050565b6000601d82527f5570646174652073657373696f6e2073746174757320746f2053544f500000006020830152604082019050919050565b6000602082527f5570646174652073657373696f6e2073746174757320746f2050524943494e476020830152604082019050919050565b6000601082527f50726963696e67207375636365737321000000000000000000000000000000006020830152604082019050919050565b6000601c82527f53657373696f6e20737461747573206d75737420626520434c4f5345000000006020830152604082019050919050565b6000601b82527f46696e616c207072696365206d757374207365742076616c75652100000000006020830152604082019050919050565b611b6881611ef9565b82525050565b6000602082019050611b83600083018461179a565b92915050565b6000604082019050611b9e600083018561179a565b611bab6020830184611872565b9392505050565b6000604082019050611bc7600083018461179a565b8181036020830152611bd881611aba565b905092915050565b60006020820190508181036000830152611bfa81846117a9565b905092915050565b600060c0820190508181036000830152611c1c8189611881565b90508181036020830152611c308188611881565b90508181036040830152611c448187611804565b9050611c536060830186611b5f565b611c606080830185611872565b611c6d60a0830184611b5f565b979650505050505050565b60006060820190508181036000830152611c928185611881565b90508181036020830152611ca68184611881565b90508181036040830152611cb981611981565b90509392505050565b60006020820190508181036000830152611cdb816118ed565b9050919050565b60006020820190508181036000830152611cfb81611924565b9050919050565b60006020820190508181036000830152611d1b816119b8565b9050919050565b60006020820190508181036000830152611d3b816119ef565b9050919050565b60006020820190508181036000830152611d5b81611a4c565b9050919050565b60006020820190508181036000830152611d7b81611a83565b9050919050565b60006020820190508181036000830152611d9b81611af1565b9050919050565b60006020820190508181036000830152611dbb81611b28565b9050919050565b6000604051905081810181811067ffffffffffffffff82111715611de557600080fd5b8060405250919050565b600067ffffffffffffffff821115611e0657600080fd5b602082029050602081019050919050565b600067ffffffffffffffff821115611e2e57600080fd5b601f19601f8301169050602081019050919050565b600067ffffffffffffffff821115611e5a57600080fd5b601f19601f8301169050602081019050919050565b6000602082019050919050565b6000602082019050919050565b600081519050919050565b600081519050919050565b600081519050919050565b600081519050919050565b6000602082019050919050565b6000602082019050919050565b600073ffffffffffffffffffffffffffffffffffffffff82169050919050565b6000819050919050565b6000819050919050565b6000819050919050565b82818337600083830152505050565b60005b83811015611f3a578082015181840152602081019050611f1f565b83811115611f49576000848401525b50505050565b6000601f19601f83011690509190505600a265627a7a7230582043304b2ec84301ae92f63daa03954f341ecd49074598b12de839563e434ab2946c6578706572696d656e74616cf50037",
  "source": "// SPDX-License-Identifier: MIT\npragma solidity ^0.4.26;\npragma experimental ABIEncoderV2;\nimport \"./lib/UtilityLibrary.sol\";\n\n// Interface of Main contract to call from Session contract\ninterface IMain {\n    function addSession(address session) external;\n    function getAdmin() external view returns (address);\n    function getDeviation(address _account) external view returns (int);\n    function setDeviation(address _account, int _deviation) external;\n    function incrementNumberOfSession(address _account) external;\n    function getNumberOfSession(address _account) external view returns(int);\n}\n\ncontract Session {\n    // Variable to hold Main Contract Address when create new Session Contract\n    address public mainContract;\n    // Variable to hold Main Contract instance to call functions from Main\n    IMain MainContract;\n\n    // TODO: Variables\n    enum SESSION_STATUS {CREATED, PRICING, CLOSE, STOP}\n\n    string private productName;\n    string private description;\n    string[] private images;\n    uint private suggestPrice;\n    int private finalPrice;\n    SESSION_STATUS private status;\n    mapping(address => int) private mapParticipantPricings;\n    mapping(address => bool) private isParticipantPricingExists;\n    address[] private participantPricings;\n    address private adminAddr;\n\n    using UtilityLibrary for int;\n\n    constructor(\n        address _mainContract,\n        string memory _productName,\n        string memory _description,\n        string[] memory _images\n    ) public {\n        // Get Main Contract instance\n        mainContract = _mainContract;\n        MainContract = IMain(_mainContract);\n\n        // TODO: Init Session contract\n        productName = _productName;\n        description = _description;\n        images = _images;\n        suggestPrice = 0;\n        finalPrice = 0;\n        status = SESSION_STATUS.CREATED;\n        adminAddr = MainContract.getAdmin();\n\n        // Call Main Contract function to link current contract.\n        MainContract.addSession(address(this));\n        emit CreateSession(_productName, _description, \"Create session success!\");\n    }\n\n    //Update session.\n    function updateSession(string memory _productName, string memory _description, string[] memory _images) public onlyAdmin {\n        productName = _productName;\n        description = _description;\n        images = _images;\n        emit UpdateSession(_productName, _description, \"Update session success!\");\n    }\n\n    // TODO: Functions\n    // ..CREATED.. -> PRICING -> CLOSE -> STOP\n    // Update session status to PRICING.\n    function startSession() public onlyAdmin {\n        require(status == SESSION_STATUS.CREATED, \"Session status must be CREATED\");\n        status = SESSION_STATUS.PRICING;\n        emit UpdateSessionStatus(\"Update session status to PRICING\");\n    }\n\n    // Update session status to CLOSE.\n    // function closeSession() public onlyAdmin {\n    //     require(status == SESSION_STATUS.PRICING, \"Session status must be PRICING\");\n    //     status = SESSION_STATUS.CLOSE;\n    //     emit UpdateSessionStatus(\"Update session status to CLOSE\");\n    // }\n\n    function getParticipantPricings() public view returns (address[] memory) {\n        return participantPricings;\n    }\n\n    // function getParticipantPricings() public view returns (address[]) {\n    //     address[] arr = [];\n\n    //     for (uint i = 0; i < participantPricings.length; i++) {\n    //         arr.push(participantPricings[i]);\n    //     }\n\n    //     return arr;\n    // }\n\n    // Update session status to STOP.\n    function stopSession() public onlyAdmin {\n        require(status == SESSION_STATUS.CLOSE, \"Session status must be CLOSE\");\n        status = SESSION_STATUS.STOP;\n        emit UpdateSessionStatus(\"Update session status to STOP\");\n    }\n\n    // Participant pricing.\n    function pricing(int _price) public onlyParticipant onlyInProgress {\n        if (isParticipantPricingExists[msg.sender] == false) {\n            isParticipantPricingExists[msg.sender] = true;\n            participantPricings.push(msg.sender);\n            MainContract.incrementNumberOfSession(msg.sender);\n        }\n\n        mapParticipantPricings[msg.sender] = _price;\n        emit Pricing(msg.sender, \"Pricing success!\");\n    }\n\n    // Get session detail.\n    function getSessionDetail() public view returns(string memory, string memory, string[] memory, uint, int, uint) {\n        return (productName, description, images, suggestPrice, finalPrice, uint(status));\n    }\n\n    // Calculate suggest price and set status to Close.\n    function calculateSuggestPriceAndCloseSession(int _price) public onlyAdmin onlyInProgress {\n        int _suggestPrice = 0;\n        int _sumOfPriceWithDeviation = 0;\n        int _sumOfDeviation = 0;\n\n        for (uint i = 0; i < participantPricings.length; i++) {\n            int _deviation = MainContract.getDeviation(participantPricings[i]);\n            _sumOfPriceWithDeviation += mapParticipantPricings[participantPricings[i]] * (100 - _deviation);\n            _sumOfDeviation += _deviation;\n        }\n\n        _suggestPrice = _sumOfPriceWithDeviation / ((100 * int(participantPricings.length)) - _sumOfDeviation);\n        suggestPrice = uint(_suggestPrice);\n        finalPrice = _price;\n        status = SESSION_STATUS.CLOSE;\n    }\n\n    // Calculate deviation in session.\n    function calculateDeviationInSession(address _account) private view returns (int) {\n        int _subDeviation = (finalPrice - mapParticipantPricings[_account]).abs();\n\n        return (_subDeviation / finalPrice) * 100;\n    }\n\n\n    // function abc(uint i) public view returns (address, int, int, int, int, int, int, int, int) {\n    //     address _account = participantPricings[i];\n    //     int _deviation = MainContract.getDeviation(_account);\n\n    //     int _subDeviation = (_deviation * MainContract.getNumberOfSession(_account)) + calculateDeviationInSession(_account);\n    //     int _newDeviation = _subDeviation / (_deviation + 1);\n    //     int _subDeviation2 = (finalPrice - mapParticipantPricings[_account]).abs();\n\n    //     return (\n    //         _account, \n    //         _deviation,\n    //         _subDeviation,\n    //         _newDeviation, \n    //         finalPrice, \n    //         mapParticipantPricings[_account],\n    //         _subDeviation2,\n    //         MainContract.getNumberOfSession(_account), \n    //         calculateDeviationInSession(_account)\n    //     );\n    // }\n\n    // Calculate deviation.\n    function calculateDeviationLatestAndStop() public onlyAdmin onlyFinalPriceMustSetValue {\n        for (uint i = 0; i < participantPricings.length; i++) {\n            address _account = participantPricings[i];\n            int _deviation = MainContract.getDeviation(_account);\n            int _subDeviation = (_deviation * MainContract.getNumberOfSession(_account)) + calculateDeviationInSession(_account);\n            int _newDeviation = _subDeviation / (_deviation + 1);\n            MainContract.setDeviation(_account, _newDeviation);\n        }\n\n        status = SESSION_STATUS.STOP;\n    }\n\n    // Modify only status is PRICING.\n    modifier onlyInProgress {\n        require(status == SESSION_STATUS.PRICING, \"Session is not in progress\");\n        _;\n    }\n\n    // Modify only status is CLOSE.\n    modifier onlyClose {\n        require(status == SESSION_STATUS.CLOSE, \"Session is not in progress\");\n        _;\n    }\n\n    // Modify to check only admin.\n    modifier onlyAdmin() {\n        require(msg.sender == adminAddr, \"This function only admin can execute!\");\n        _;\n    }\n\n    // Modify to check only participant.\n    modifier onlyParticipant() {\n        // TODO: viet lai modifier nay\n        require(msg.sender != adminAddr, \"This function only participant can execute!\");\n        _;\n    }\n\n    // Modify finalPrice must set value.\n    modifier onlyFinalPriceMustSetValue() {\n        require(finalPrice > 0, \"Final price must set value!\");\n        _;\n    }\n\n    // Event create session.\n    event CreateSession(string _productName, string _description, string _msg);\n\n    // Event update session.\n    event UpdateSession(string _productName, string _description, string _msg);\n\n    // Event update session status.\n    event UpdateSessionStatus(string _msg);\n\n    // Event pricing.\n    event Pricing(address _account, string _msg);\n}\n",
  "sourcePath": "/home/dttvhe/study/fx15127-final-project/truffle/contracts/Session.sol",
  "compiler": {
    "name": "solc",
    "version": "0.4.26+commit.4563c3fc.Emscripten.clang"
  },
  "schemaVersion": "3.4.14",
  "updatedAt": "2023-06-30T21:15:11.018Z",
  "devdoc": {
    "methods": {}
  },
  "userdoc": {
    "methods": {}
  }
}