{
  "contractName": "Session",
  "abi": [
    {
      "constant": true,
      "inputs": [],
      "name": "mainContract",
      "outputs": [
        {
          "name": "",
          "type": "address"
        }
      ],
      "payable": false,
      "stateMutability": "view",
      "type": "function"
    },
    {
      "inputs": [
        {
          "name": "_mainContract",
          "type": "address"
        },
        {
          "name": "_productName",
          "type": "string"
        },
        {
          "name": "_description",
          "type": "string"
        },
        {
          "name": "_images",
          "type": "string[]"
        }
      ],
      "payable": false,
      "stateMutability": "nonpayable",
      "type": "constructor"
    },
    {
      "anonymous": false,
      "inputs": [
        {
          "indexed": false,
          "name": "_productName",
          "type": "string"
        },
        {
          "indexed": false,
          "name": "_description",
          "type": "string"
        },
        {
          "indexed": false,
          "name": "_msg",
          "type": "string"
        }
      ],
      "name": "CreateSession",
      "type": "event"
    },
    {
      "anonymous": false,
      "inputs": [
        {
          "indexed": false,
          "name": "_productName",
          "type": "string"
        },
        {
          "indexed": false,
          "name": "_description",
          "type": "string"
        },
        {
          "indexed": false,
          "name": "_msg",
          "type": "string"
        }
      ],
      "name": "UpdateSession",
      "type": "event"
    },
    {
      "anonymous": false,
      "inputs": [
        {
          "indexed": false,
          "name": "_msg",
          "type": "string"
        }
      ],
      "name": "UpdateSessionStatus",
      "type": "event"
    },
    {
      "anonymous": false,
      "inputs": [
        {
          "indexed": false,
          "name": "_account",
          "type": "address"
        },
        {
          "indexed": false,
          "name": "_msg",
          "type": "string"
        }
      ],
      "name": "Pricing",
      "type": "event"
    },
    {
      "constant": false,
      "inputs": [
        {
          "name": "_productName",
          "type": "string"
        },
        {
          "name": "_description",
          "type": "string"
        },
        {
          "name": "_images",
          "type": "string[]"
        }
      ],
      "name": "updateSession",
      "outputs": [],
      "payable": false,
      "stateMutability": "nonpayable",
      "type": "function"
    },
    {
      "constant": false,
      "inputs": [],
      "name": "startSession",
      "outputs": [],
      "payable": false,
      "stateMutability": "nonpayable",
      "type": "function"
    },
    {
      "constant": true,
      "inputs": [],
      "name": "getParticipantPricings",
      "outputs": [
        {
          "name": "",
          "type": "address[]"
        }
      ],
      "payable": false,
      "stateMutability": "view",
      "type": "function"
    },
    {
      "constant": false,
      "inputs": [],
      "name": "stopSession",
      "outputs": [],
      "payable": false,
      "stateMutability": "nonpayable",
      "type": "function"
    },
    {
      "constant": false,
      "inputs": [
        {
          "name": "_price",
          "type": "int256"
        }
      ],
      "name": "pricing",
      "outputs": [],
      "payable": false,
      "stateMutability": "nonpayable",
      "type": "function"
    },
    {
      "constant": true,
      "inputs": [],
      "name": "getSessionDetail",
      "outputs": [
        {
          "name": "",
          "type": "string"
        },
        {
          "name": "",
          "type": "string"
        },
        {
          "name": "",
          "type": "string[]"
        },
        {
          "name": "",
          "type": "uint256"
        },
        {
          "name": "",
          "type": "int256"
        },
        {
          "name": "",
          "type": "uint256"
        }
      ],
      "payable": false,
      "stateMutability": "view",
      "type": "function"
    },
    {
      "constant": false,
      "inputs": [
        {
          "name": "_price",
          "type": "int256"
        }
      ],
      "name": "calculateSuggestPriceAndCloseSession",
      "outputs": [],
      "payable": false,
      "stateMutability": "nonpayable",
      "type": "function"
    },
    {
      "constant": false,
      "inputs": [],
      "name": "calculateDeviationLatestAndStop",
      "outputs": [],
      "payable": false,
      "stateMutability": "nonpayable",
      "type": "function"
    }
  ],
  "bytecode": "0x60806040523480156200001157600080fd5b5060405162002980380380620029808339810180604052620000379190810190620006c3565b836000806101000a81548173ffffffffffffffffffffffffffffffffffffffff021916908373ffffffffffffffffffffffffffffffffffffffff16021790555083600160006101000a81548173ffffffffffffffffffffffffffffffffffffffff021916908373ffffffffffffffffffffffffffffffffffffffff1602179055508260029080519060200190620000d09291906200032c565b508160039080519060200190620000e99291906200032c565b50806004908051906020019062000102929190620003b3565b50600060058190555060006006819055506000600760006101000a81548160ff021916908360038111156200013357fe5b0217905550600160009054906101000a900473ffffffffffffffffffffffffffffffffffffffff1673ffffffffffffffffffffffffffffffffffffffff16636e9960c36040518163ffffffff167c0100000000000000000000000000000000000000000000000000000000028152600401602060405180830381600087803b158015620001bf57600080fd5b505af1158015620001d4573d6000803e3d6000fd5b505050506040513d601f19601f82011682018060405250620001fa919081019062000697565b600b60006101000a81548173ffffffffffffffffffffffffffffffffffffffff021916908373ffffffffffffffffffffffffffffffffffffffff160217905550600160009054906101000a900473ffffffffffffffffffffffffffffffffffffffff1673ffffffffffffffffffffffffffffffffffffffff1663f390dd86306040518263ffffffff167c0100000000000000000000000000000000000000000000000000000000028152600401620002b39190620007fe565b600060405180830381600087803b158015620002ce57600080fd5b505af1158015620002e3573d6000803e3d6000fd5b505050507f9fe7cb314c08d72e270589aeb0470bb4335133b90e7dfd6f84ed11661496dd3783836040516200031a9291906200081b565b60405180910390a150505050620009ae565b828054600181600116156101000203166002900490600052602060002090601f016020900481019282601f106200036f57805160ff1916838001178555620003a0565b82800160010185558215620003a0579182015b828111156200039f57825182559160200191906001019062000382565b5b509050620003af91906200041a565b5090565b82805482825590600052602060002090810192821562000407579160200282015b8281111562000406578251829080519060200190620003f592919062000442565b5091602001919060010190620003d4565b5b509050620004169190620004c9565b5090565b6200043f91905b808211156200043b57600081600090555060010162000421565b5090565b90565b828054600181600116156101000203166002900490600052602060002090601f016020900481019282601f106200048557805160ff1916838001178555620004b6565b82800160010185558215620004b6579182015b82811115620004b557825182559160200191906001019062000498565b5b509050620004c591906200041a565b5090565b620004f791905b80821115620004f35760008181620004e99190620004fa565b50600101620004d0565b5090565b90565b50805460018160011615610100020316600290046000825580601f1062000522575062000543565b601f0160209004906000526020600020908101906200054291906200041a565b5b50565b600062000554825162000947565b905092915050565b600082601f83011215156200057057600080fd5b815162000587620005818262000899565b6200086b565b9150818183526020840193506020810190508360005b83811015620005d15781518601620005b68882620005db565b8452602084019350602083019250506001810190506200059d565b5050505092915050565b600082601f8301121515620005ef57600080fd5b8151620006066200060082620008c2565b6200086b565b915080825260208301602083018583830111156200062357600080fd5b6200063083828462000967565b50505092915050565b600082601f83011215156200064d57600080fd5b8151620006646200065e82620008ef565b6200086b565b915080825260208301602083018583830111156200068157600080fd5b6200068e83828462000967565b50505092915050565b600060208284031215620006aa57600080fd5b6000620006ba8482850162000546565b91505092915050565b60008060008060808587031215620006da57600080fd5b6000620006ea8782880162000546565b945050602085015167ffffffffffffffff8111156200070857600080fd5b620007168782880162000639565b935050604085015167ffffffffffffffff8111156200073457600080fd5b620007428782880162000639565b925050606085015167ffffffffffffffff8111156200076057600080fd5b6200076e878288016200055c565b91505092959194509250565b620007858162000927565b82525050565b600062000798826200091c565b808452620007ae81602086016020860162000967565b620007b9816200099d565b602085010191505092915050565b6000601782527f4372656174652073657373696f6e2073756363657373210000000000000000006020830152604082019050919050565b60006020820190506200081560008301846200077a565b92915050565b600060608201905081810360008301526200083781856200078b565b905081810360208301526200084d81846200078b565b905081810360408301526200086281620007c7565b90509392505050565b6000604051905081810181811067ffffffffffffffff821117156200088f57600080fd5b8060405250919050565b600067ffffffffffffffff821115620008b157600080fd5b602082029050602081019050919050565b600067ffffffffffffffff821115620008da57600080fd5b601f19601f8301169050602081019050919050565b600067ffffffffffffffff8211156200090757600080fd5b601f19601f8301169050602081019050919050565b600081519050919050565b600073ffffffffffffffffffffffffffffffffffffffff82169050919050565b600073ffffffffffffffffffffffffffffffffffffffff82169050919050565b60005b83811015620009875780820151818401526020810190506200096a565b8381111562000997576000848401525b50505050565b6000601f19601f8301169050919050565b611fc280620009be6000396000f300608060405260043610610099576000357c0100000000000000000000000000000000000000000000000000000000900463ffffffff1680630e9735011461009e5780632e639ee5146100c75780633d33b629146100f2578063893e79ba14610109578063cbd8c61314610132578063d270e7ab14610149578063ddc0961d14610174578063f8cb00bf1461019d578063fe0ae165146101cd575b600080fd5b3480156100aa57600080fd5b506100c560048036036100c0919081019061172b565b6101e4565b005b3480156100d357600080fd5b506100dc6102f9565b6040516100e99190611c08565b60405180910390f35b3480156100fe57600080fd5b50610107610387565b005b34801561011557600080fd5b50610130600480360361012b91908101906116d9565b6107fa565b005b34801561013e57600080fd5b50610147610a8d565b005b34801561015557600080fd5b5061015e610be4565b60405161016b9190611b96565b60405180910390f35b34801561018057600080fd5b5061019b600480360361019691908101906116d9565b610c09565b005b3480156101a957600080fd5b506101b2610f15565b6040516101c496959493929190611c2a565b60405180910390f35b3480156101d957600080fd5b506101e2611175565b005b600b60009054906101000a900473ffffffffffffffffffffffffffffffffffffffff1673ffffffffffffffffffffffffffffffffffffffff163373ffffffffffffffffffffffffffffffffffffffff16141515610276576040517f08c379a000000000000000000000000000000000000000000000000000000000815260040161026d90611d4a565b60405180910390fd5b826002908051906020019061028c929190611396565b5081600390805190602001906102a3929190611396565b5080600490805190602001906102ba929190611416565b507f2a5d6d5b2dec1b940dec7f561cf0b8cd2965d265ed7c371349e1d15979b075ab83836040516102ec929190611ca0565b60405180910390a1505050565b6060600a80548060200260200160405190810160405280929190818152602001828054801561037d57602002820191906000526020600020905b8160009054906101000a900473ffffffffffffffffffffffffffffffffffffffff1673ffffffffffffffffffffffffffffffffffffffff1681526020019060010190808311610333575b5050505050905090565b600080600080600080600b60009054906101000a900473ffffffffffffffffffffffffffffffffffffffff1673ffffffffffffffffffffffffffffffffffffffff163373ffffffffffffffffffffffffffffffffffffffff16141515610422576040517f08c379a000000000000000000000000000000000000000000000000000000000815260040161041990611d4a565b60405180910390fd5b6000600654131515610469576040517f08c379a000000000000000000000000000000000000000000000000000000000815260040161046090611dca565b60405180910390fd5b600095505b600a805490508610156107ce57600a8681548110151561048a57fe5b9060005260206000200160009054906101000a900473ffffffffffffffffffffffffffffffffffffffff169450600160009054906101000a900473ffffffffffffffffffffffffffffffffffffffff1673ffffffffffffffffffffffffffffffffffffffff1663a33a08b9866040518263ffffffff167c010000000000000000000000000000000000000000000000000000000002815260040161052e9190611b96565b602060405180830381600087803b15801561054857600080fd5b505af115801561055c573d6000803e3d6000fd5b505050506040513d601f19601f820116820180604052506105809190810190611702565b9350600160009054906101000a900473ffffffffffffffffffffffffffffffffffffffff1673ffffffffffffffffffffffffffffffffffffffff1663be330868866040518263ffffffff167c01000000000000000000000000000000000000000000000000000000000281526004016105f99190611b96565b602060405180830381600087803b15801561061357600080fd5b505af1158015610627573d6000803e3d6000fd5b505050506040513d601f19601f8201168201806040525061064b9190810190611702565b9250610656856112cc565b838502019150600183018281151561066a57fe5b059050600160009054906101000a900473ffffffffffffffffffffffffffffffffffffffff1673ffffffffffffffffffffffffffffffffffffffff16638c99069886836040518363ffffffff167c01000000000000000000000000000000000000000000000000000000000281526004016106e6929190611bb1565b600060405180830381600087803b15801561070057600080fd5b505af1158015610714573d6000803e3d6000fd5b50505050600160009054906101000a900473ffffffffffffffffffffffffffffffffffffffff1673ffffffffffffffffffffffffffffffffffffffff1663a6829934866040518263ffffffff167c010000000000000000000000000000000000000000000000000000000002815260040161078f9190611b96565b600060405180830381600087803b1580156107a957600080fd5b505af11580156107bd573d6000803e3d6000fd5b50505050858060010196505061046e565b6003600760006101000a81548160ff021916908360038111156107ed57fe5b0217905550505050505050565b600b60009054906101000a900473ffffffffffffffffffffffffffffffffffffffff1673ffffffffffffffffffffffffffffffffffffffff163373ffffffffffffffffffffffffffffffffffffffff161415151561088d576040517f08c379a000000000000000000000000000000000000000000000000000000000815260040161088490611d0a565b60405180910390fd5b6001600381111561089a57fe5b600760009054906101000a900460ff1660038111156108b557fe5b1415156108f7576040517f08c379a00000000000000000000000000000000000000000000000000000000081526004016108ee90611cea565b60405180910390fd5b60001515600960003373ffffffffffffffffffffffffffffffffffffffff1673ffffffffffffffffffffffffffffffffffffffff16815260200190815260200160002060009054906101000a900460ff1615151415610a0f576001600960003373ffffffffffffffffffffffffffffffffffffffff1673ffffffffffffffffffffffffffffffffffffffff16815260200190815260200160002060006101000a81548160ff021916908315150217905550600a3390806001815401808255809150509060018203906000526020600020016000909192909190916101000a81548173ffffffffffffffffffffffffffffffffffffffff021916908373ffffffffffffffffffffffffffffffffffffffff160217905550505b80600860003373ffffffffffffffffffffffffffffffffffffffff1673ffffffffffffffffffffffffffffffffffffffff168152602001908152602001600020819055507f47650289511cf2cfb9b8b559f6e750022263d3a2db072b47698d32df3ac0b80533604051610a829190611bda565b60405180910390a150565b600b60009054906101000a900473ffffffffffffffffffffffffffffffffffffffff1673ffffffffffffffffffffffffffffffffffffffff163373ffffffffffffffffffffffffffffffffffffffff16141515610b1f576040517f08c379a0000000000000000000000000000000000000000000000000000000008152600401610b1690611d4a565b60405180910390fd5b60026003811115610b2c57fe5b600760009054906101000a900460ff166003811115610b4757fe5b141515610b89576040517f08c379a0000000000000000000000000000000000000000000000000000000008152600401610b8090611daa565b60405180910390fd5b6003600760006101000a81548160ff02191690836003811115610ba857fe5b02179055507fd084c6ae9c7d3dcbaf7ac844e5d1150bc12c7d070a3ffb34cd54ca01a03c1364604051610bda90611d6a565b60405180910390a1565b6000809054906101000a900473ffffffffffffffffffffffffffffffffffffffff1681565b6000806000806000600b60009054906101000a900473ffffffffffffffffffffffffffffffffffffffff1673ffffffffffffffffffffffffffffffffffffffff163373ffffffffffffffffffffffffffffffffffffffff16141515610ca3576040517f08c379a0000000000000000000000000000000000000000000000000000000008152600401610c9a90611d4a565b60405180910390fd5b60016003811115610cb057fe5b600760009054906101000a900460ff166003811115610ccb57fe5b141515610d0d576040517f08c379a0000000000000000000000000000000000000000000000000000000008152600401610d0490611cea565b60405180910390fd5b600094506000935060009250600091505b600a80549050821015610ec357600160009054906101000a900473ffffffffffffffffffffffffffffffffffffffff1673ffffffffffffffffffffffffffffffffffffffff1663a33a08b9600a84815481101515610d7857fe5b9060005260206000200160009054906101000a900473ffffffffffffffffffffffffffffffffffffffff166040518263ffffffff167c0100000000000000000000000000000000000000000000000000000000028152600401610ddb9190611b96565b602060405180830381600087803b158015610df557600080fd5b505af1158015610e09573d6000803e3d6000fd5b505050506040513d601f19601f82011682018060405250610e2d9190810190611702565b90508060640360086000600a85815481101515610e4657fe5b9060005260206000200160009054906101000a900473ffffffffffffffffffffffffffffffffffffffff1673ffffffffffffffffffffffffffffffffffffffff1673ffffffffffffffffffffffffffffffffffffffff16815260200190815260200160002054028401935080830192508180600101925050610d1e565b82600a805490506064020384811515610ed857fe5b05945084600581905550856006819055506002600760006101000a81548160ff02191690836003811115610f0857fe5b0217905550505050505050565b60608060606000806000600260036004600554600654600760009054906101000a900460ff166003811115610f4657fe5b858054600181600116156101000203166002900480601f016020809104026020016040519081016040528092919081815260200182805460018160011615610100020316600290048015610fdb5780601f10610fb057610100808354040283529160200191610fdb565b820191906000526020600020905b815481529060010190602001808311610fbe57829003601f168201915b50505050509550848054600181600116156101000203166002900480601f0160208091040260200160405190810160405280929190818152602001828054600181600116156101000203166002900480156110775780601f1061104c57610100808354040283529160200191611077565b820191906000526020600020905b81548152906001019060200180831161105a57829003601f168201915b5050505050945083805480602002602001604051908101604052809291908181526020016000905b8282101561115b578382906000526020600020018054600181600116156101000203166002900480601f0160208091040260200160405190810160405280929190818152602001828054600181600116156101000203166002900480156111475780601f1061111c57610100808354040283529160200191611147565b820191906000526020600020905b81548152906001019060200180831161112a57829003601f168201915b50505050508152602001906001019061109f565b505050509350955095509550955095509550909192939495565b600b60009054906101000a900473ffffffffffffffffffffffffffffffffffffffff1673ffffffffffffffffffffffffffffffffffffffff163373ffffffffffffffffffffffffffffffffffffffff16141515611207576040517f08c379a00000000000000000000000000000000000000000000000000000000081526004016111fe90611d4a565b60405180910390fd5b6000600381111561121457fe5b600760009054906101000a900460ff16600381111561122f57fe5b141515611271576040517f08c379a000000000000000000000000000000000000000000000000000000000815260040161126890611d2a565b60405180910390fd5b6001600760006101000a81548160ff0219169083600381111561129057fe5b02179055507fd084c6ae9c7d3dcbaf7ac844e5d1150bc12c7d070a3ffb34cd54ca01a03c13646040516112c290611d8a565b60405180910390a1565b600080600061131d600860008673ffffffffffffffffffffffffffffffffffffffff1673ffffffffffffffffffffffffffffffffffffffff1681526020019081526020016000205460065403611359565b91506064600654670de0b6b3a7640000840281151561133857fe5b05029050670de0b6b3a76400008181151561134f57fe5b0592505050919050565b60008082121561138d577fffffffffffffffffffffffffffffffffffffffffffffffffffffffffffffffff82029050611391565b8190505b919050565b828054600181600116156101000203166002900490600052602060002090601f016020900481019282601f106113d757805160ff1916838001178555611405565b82800160010185558215611405579182015b828111156114045782518255916020019190600101906113e9565b5b5090506114129190611476565b5090565b828054828255906000526020600020908101928215611465579160200282015b8281111561146457825182908051906020019061145492919061149b565b5091602001919060010190611436565b5b509050611472919061151b565b5090565b61149891905b8082111561149457600081600090555060010161147c565b5090565b90565b828054600181600116156101000203166002900490600052602060002090601f016020900481019282601f106114dc57805160ff191683800117855561150a565b8280016001018555821561150a579182015b828111156115095782518255916020019190600101906114ee565b5b5090506115179190611476565b5090565b61154491905b8082111561154057600081816115379190611547565b50600101611521565b5090565b90565b50805460018160011615610100020316600290046000825580601f1061156d575061158c565b601f01602090049060005260206000209081019061158b9190611476565b5b50565b600082601f83011215156115a257600080fd5b81356115b56115b082611e17565b611dea565b9150818183526020840193506020810190508360005b838110156115fb57813586016115e1888261162d565b8452602084019350602083019250506001810190506115cb565b5050505092915050565b60006116118235611f2b565b905092915050565b60006116258251611f2b565b905092915050565b600082601f830112151561164057600080fd5b813561165361164e82611e3f565b611dea565b9150808252602083016020830185838301111561166f57600080fd5b61167a838284611f35565b50505092915050565b600082601f830112151561169657600080fd5b81356116a96116a482611e6b565b611dea565b915080825260208301602083018583830111156116c557600080fd5b6116d0838284611f35565b50505092915050565b6000602082840312156116eb57600080fd5b60006116f984828501611605565b91505092915050565b60006020828403121561171457600080fd5b600061172284828501611619565b91505092915050565b60008060006060848603121561174057600080fd5b600084013567ffffffffffffffff81111561175a57600080fd5b61176686828701611683565b935050602084013567ffffffffffffffff81111561178357600080fd5b61178f86828701611683565b925050604084013567ffffffffffffffff8111156117ac57600080fd5b6117b88682870161158f565b9150509250925092565b6117cb81611ef7565b82525050565b60006117dc82611eb1565b8084526020840193506117ee83611e97565b60005b82811015611820576118048683516117c2565b61180d82611edd565b91506020860195506001810190506117f1565b50849250505092915050565b600061183782611ebc565b8084526020840193508360208202850161185085611ea4565b60005b8481101561188957838303885261186b8383516118df565b925061187682611eea565b9150602088019750600181019050611853565b508196508694505050505092915050565b6118a381611f17565b82525050565b60006118b482611ed2565b8084526118c8816020860160208601611f44565b6118d181611f77565b602085010191505092915050565b60006118ea82611ec7565b8084526118fe816020860160208601611f44565b61190781611f77565b602085010191505092915050565b6000601a82527f53657373696f6e206973206e6f7420696e2070726f67726573730000000000006020830152604082019050919050565b6000602b82527f546869732066756e6374696f6e206f6e6c79207061727469636970616e74206360208301527f616e2065786563757465210000000000000000000000000000000000000000006040830152606082019050919050565b6000601782527f5570646174652073657373696f6e2073756363657373210000000000000000006020830152604082019050919050565b6000601e82527f53657373696f6e20737461747573206d757374206265204352454154454400006020830152604082019050919050565b6000602582527f546869732066756e6374696f6e206f6e6c792061646d696e2063616e2065786560208301527f63757465210000000000000000000000000000000000000000000000000000006040830152606082019050919050565b6000601d82527f5570646174652073657373696f6e2073746174757320746f2053544f500000006020830152604082019050919050565b6000602082527f5570646174652073657373696f6e2073746174757320746f2050524943494e476020830152604082019050919050565b6000601082527f50726963696e67207375636365737321000000000000000000000000000000006020830152604082019050919050565b6000601c82527f53657373696f6e20737461747573206d75737420626520434c4f5345000000006020830152604082019050919050565b6000601b82527f46696e616c207072696365206d757374207365742076616c75652100000000006020830152604082019050919050565b611b9081611f21565b82525050565b6000602082019050611bab60008301846117c2565b92915050565b6000604082019050611bc660008301856117c2565b611bd3602083018461189a565b9392505050565b6000604082019050611bef60008301846117c2565b8181036020830152611c0081611ae2565b905092915050565b60006020820190508181036000830152611c2281846117d1565b905092915050565b600060c0820190508181036000830152611c4481896118a9565b90508181036020830152611c5881886118a9565b90508181036040830152611c6c818761182c565b9050611c7b6060830186611b87565b611c88608083018561189a565b611c9560a0830184611b87565b979650505050505050565b60006060820190508181036000830152611cba81856118a9565b90508181036020830152611cce81846118a9565b90508181036040830152611ce1816119a9565b90509392505050565b60006020820190508181036000830152611d0381611915565b9050919050565b60006020820190508181036000830152611d238161194c565b9050919050565b60006020820190508181036000830152611d43816119e0565b9050919050565b60006020820190508181036000830152611d6381611a17565b9050919050565b60006020820190508181036000830152611d8381611a74565b9050919050565b60006020820190508181036000830152611da381611aab565b9050919050565b60006020820190508181036000830152611dc381611b19565b9050919050565b60006020820190508181036000830152611de381611b50565b9050919050565b6000604051905081810181811067ffffffffffffffff82111715611e0d57600080fd5b8060405250919050565b600067ffffffffffffffff821115611e2e57600080fd5b602082029050602081019050919050565b600067ffffffffffffffff821115611e5657600080fd5b601f19601f8301169050602081019050919050565b600067ffffffffffffffff821115611e8257600080fd5b601f19601f8301169050602081019050919050565b6000602082019050919050565b6000602082019050919050565b600081519050919050565b600081519050919050565b600081519050919050565b600081519050919050565b6000602082019050919050565b6000602082019050919050565b600073ffffffffffffffffffffffffffffffffffffffff82169050919050565b6000819050919050565b6000819050919050565b6000819050919050565b82818337600083830152505050565b60005b83811015611f62578082015181840152602081019050611f47565b83811115611f71576000848401525b50505050565b6000601f19601f83011690509190505600a265627a7a7230582033e914965a665b0dd715e09133da43af4436afcdaa0179412a6cada8482644c36c6578706572696d656e74616cf50037",
  "source": "// SPDX-License-Identifier: MIT\npragma solidity ^0.4.26;\npragma experimental ABIEncoderV2;\nimport \"./lib/UtilityLibrary.sol\";\n\n// Interface of Main contract to call from Session contract\ninterface IMain {\n    function addSession(address session) external;\n    function getAdmin() external view returns (address);\n    function getDeviation(address _account) external view returns (int);\n    function setDeviation(address _account, int _deviation) external;\n    function incrementNumberOfSession(address _account) external;\n    function getNumberOfSession(address _account) external view returns(int);\n}\n\ncontract Session {\n    // Variable to hold Main Contract Address when create new Session Contract\n    address public mainContract;\n    // Variable to hold Main Contract instance to call functions from Main\n    IMain MainContract;\n\n    // TODO: Variables\n    enum SESSION_STATUS {CREATED, PRICING, CLOSE, STOP}\n\n    string private productName;\n    string private description;\n    string[] private images;\n    uint private suggestPrice;\n    int private finalPrice;\n    SESSION_STATUS private status;\n    mapping(address => int) private mapParticipantPricings;\n    mapping(address => bool) private isParticipantPricingExists;\n    address[] private participantPricings;\n    address private adminAddr;\n\n    using UtilityLibrary for int;\n\n    constructor(\n        address _mainContract,\n        string memory _productName,\n        string memory _description,\n        string[] memory _images\n    ) public {\n        // Get Main Contract instance\n        mainContract = _mainContract;\n        MainContract = IMain(_mainContract);\n\n        // TODO: Init Session contract\n        productName = _productName;\n        description = _description;\n        images = _images;\n        suggestPrice = 0;\n        finalPrice = 0;\n        status = SESSION_STATUS.CREATED;\n        adminAddr = MainContract.getAdmin();\n\n        // Call Main Contract function to link current contract.\n        MainContract.addSession(address(this));\n        emit CreateSession(_productName, _description, \"Create session success!\");\n    }\n\n    //Update session.\n    function updateSession(string memory _productName, string memory _description, string[] memory _images) public onlyAdmin {\n        productName = _productName;\n        description = _description;\n        images = _images;\n        emit UpdateSession(_productName, _description, \"Update session success!\");\n    }\n\n    // TODO: Functions\n    // ..CREATED.. -> PRICING -> CLOSE -> STOP\n    // Update session status to PRICING.\n    function startSession() public onlyAdmin {\n        require(status == SESSION_STATUS.CREATED, \"Session status must be CREATED\");\n        status = SESSION_STATUS.PRICING;\n        emit UpdateSessionStatus(\"Update session status to PRICING\");\n    }\n\n    // Get participant pricings.\n    function getParticipantPricings() public view returns (address[] memory) {\n        return participantPricings;\n    }\n\n    // Update session status to STOP.\n    function stopSession() public onlyAdmin {\n        require(status == SESSION_STATUS.CLOSE, \"Session status must be CLOSE\");\n        status = SESSION_STATUS.STOP;\n        emit UpdateSessionStatus(\"Update session status to STOP\");\n    }\n\n    // Participant pricing.\n    function pricing(int _price) public onlyParticipant onlyInProgress {\n        if (isParticipantPricingExists[msg.sender] == false) {\n            isParticipantPricingExists[msg.sender] = true;\n            participantPricings.push(msg.sender);\n        }\n\n        mapParticipantPricings[msg.sender] = _price;\n        emit Pricing(msg.sender, \"Pricing success!\");\n    }\n\n    // Get session detail.\n    function getSessionDetail() public view returns(string memory, string memory, string[] memory, uint, int, uint) {\n        return (productName, description, images, suggestPrice, finalPrice, uint(status));\n    }\n\n    // Calculate suggest price and set status to Close.\n    function calculateSuggestPriceAndCloseSession(int _price) public onlyAdmin onlyInProgress {\n        int _suggestPrice = 0;\n        int _sumOfPriceWithDeviation = 0;\n        int _sumOfDeviation = 0;\n\n        for (uint i = 0; i < participantPricings.length; i++) {\n            int _deviation = MainContract.getDeviation(participantPricings[i]);\n            _sumOfPriceWithDeviation += mapParticipantPricings[participantPricings[i]] * (100 - _deviation);\n            _sumOfDeviation += _deviation;\n        }\n\n        _suggestPrice = _sumOfPriceWithDeviation / ((100 * int(participantPricings.length)) - _sumOfDeviation);\n        suggestPrice = uint(_suggestPrice);\n        finalPrice = _price;\n        status = SESSION_STATUS.CLOSE;\n    }\n\n    // Calculate deviation in session.\n    function calculateDeviationInSession(address _account) private view returns (int) {\n        int _subDeviation = (finalPrice - mapParticipantPricings[_account]).abs();\n        int _subDeviationResult = ((_subDeviation * 10**18) / finalPrice) * 100;\n\n        return _subDeviationResult / 10**18;\n    }\n\n    // Calculate deviation.\n    function calculateDeviationLatestAndStop() public onlyAdmin onlyFinalPriceMustSetValue {\n        for (uint i = 0; i < participantPricings.length; i++) {\n            address _account = participantPricings[i];\n            int _deviation = MainContract.getDeviation(_account);\n            int _numberOfSession = MainContract.getNumberOfSession(_account);\n            int _subDeviation = (_deviation * _numberOfSession) + calculateDeviationInSession(_account);\n            int _newDeviation = _subDeviation / (_numberOfSession + 1);\n            MainContract.setDeviation(_account, _newDeviation);\n            MainContract.incrementNumberOfSession(_account);\n        }\n\n        status = SESSION_STATUS.STOP;\n    }\n\n    // Modify only status is PRICING.\n    modifier onlyInProgress {\n        require(status == SESSION_STATUS.PRICING, \"Session is not in progress\");\n        _;\n    }\n\n    // Modify only status is CLOSE.\n    modifier onlyClose {\n        require(status == SESSION_STATUS.CLOSE, \"Session is not in progress\");\n        _;\n    }\n\n    // Modify to check only admin.\n    modifier onlyAdmin() {\n        require(msg.sender == adminAddr, \"This function only admin can execute!\");\n        _;\n    }\n\n    // Modify to check only participant.\n    modifier onlyParticipant() {\n        // TODO: viet lai modifier nay\n        require(msg.sender != adminAddr, \"This function only participant can execute!\");\n        _;\n    }\n\n    // Modify finalPrice must set value.\n    modifier onlyFinalPriceMustSetValue() {\n        require(finalPrice > 0, \"Final price must set value!\");\n        _;\n    }\n\n    // Event create session.\n    event CreateSession(string _productName, string _description, string _msg);\n\n    // Event update session.\n    event UpdateSession(string _productName, string _description, string _msg);\n\n    // Event update session status.\n    event UpdateSessionStatus(string _msg);\n\n    // Event pricing.\n    event Pricing(address _account, string _msg);\n}\n",
  "sourcePath": "/Users/damthe/study/blockchain/fx15127-final-project/truffle/contracts/Session.sol",
  "compiler": {
    "name": "solc",
    "version": "0.4.26+commit.4563c3fc.Emscripten.clang"
  },
  "schemaVersion": "3.4.10",
  "updatedAt": "2023-07-05T03:42:07.075Z",
  "devdoc": {
    "methods": {}
  },
  "userdoc": {
    "methods": {}
  }
}