{
  "contractName": "Session",
  "abi": [
    {
      "constant": true,
      "inputs": [],
      "name": "mainContract",
      "outputs": [
        {
          "name": "",
          "type": "address"
        }
      ],
      "payable": false,
      "stateMutability": "view",
      "type": "function"
    },
    {
      "inputs": [
        {
          "name": "_mainContract",
          "type": "address"
        },
        {
          "name": "_productName",
          "type": "string"
        },
        {
          "name": "_description",
          "type": "string"
        },
        {
          "name": "_images",
          "type": "string[]"
        }
      ],
      "payable": false,
      "stateMutability": "nonpayable",
      "type": "constructor"
    },
    {
      "anonymous": false,
      "inputs": [
        {
          "indexed": false,
          "name": "_productName",
          "type": "string"
        },
        {
          "indexed": false,
          "name": "_description",
          "type": "string"
        },
        {
          "indexed": false,
          "name": "_msg",
          "type": "string"
        }
      ],
      "name": "CreateSession",
      "type": "event"
    },
    {
      "anonymous": false,
      "inputs": [
        {
          "indexed": false,
          "name": "_productName",
          "type": "string"
        },
        {
          "indexed": false,
          "name": "_description",
          "type": "string"
        },
        {
          "indexed": false,
          "name": "_msg",
          "type": "string"
        }
      ],
      "name": "UpdateSession",
      "type": "event"
    },
    {
      "anonymous": false,
      "inputs": [
        {
          "indexed": false,
          "name": "_msg",
          "type": "string"
        }
      ],
      "name": "UpdateSessionStatus",
      "type": "event"
    },
    {
      "anonymous": false,
      "inputs": [
        {
          "indexed": false,
          "name": "_account",
          "type": "address"
        },
        {
          "indexed": false,
          "name": "_msg",
          "type": "string"
        }
      ],
      "name": "Pricing",
      "type": "event"
    },
    {
      "constant": false,
      "inputs": [
        {
          "name": "_productName",
          "type": "string"
        },
        {
          "name": "_description",
          "type": "string"
        },
        {
          "name": "_images",
          "type": "string[]"
        }
      ],
      "name": "updateSession",
      "outputs": [],
      "payable": false,
      "stateMutability": "nonpayable",
      "type": "function"
    },
    {
      "constant": false,
      "inputs": [],
      "name": "startSession",
      "outputs": [],
      "payable": false,
      "stateMutability": "nonpayable",
      "type": "function"
    },
    {
      "constant": true,
      "inputs": [],
      "name": "getParticipantPricings",
      "outputs": [
        {
          "name": "",
          "type": "address[]"
        }
      ],
      "payable": false,
      "stateMutability": "view",
      "type": "function"
    },
    {
      "constant": false,
      "inputs": [],
      "name": "stopSession",
      "outputs": [],
      "payable": false,
      "stateMutability": "nonpayable",
      "type": "function"
    },
    {
      "constant": false,
      "inputs": [
        {
          "name": "_price",
          "type": "int256"
        }
      ],
      "name": "pricing",
      "outputs": [],
      "payable": false,
      "stateMutability": "nonpayable",
      "type": "function"
    },
    {
      "constant": true,
      "inputs": [],
      "name": "getSessionDetail",
      "outputs": [
        {
          "name": "",
          "type": "string"
        },
        {
          "name": "",
          "type": "string"
        },
        {
          "name": "",
          "type": "string[]"
        },
        {
          "name": "",
          "type": "uint256"
        },
        {
          "name": "",
          "type": "int256"
        },
        {
          "name": "",
          "type": "uint256"
        }
      ],
      "payable": false,
      "stateMutability": "view",
      "type": "function"
    },
    {
      "constant": false,
      "inputs": [],
      "name": "calculateSuggestPrice",
      "outputs": [],
      "payable": false,
      "stateMutability": "nonpayable",
      "type": "function"
    },
    {
      "constant": true,
      "inputs": [
        {
          "name": "_account",
          "type": "address"
        }
      ],
      "name": "calculateDeviationInSession",
      "outputs": [
        {
          "name": "",
          "type": "int256"
        }
      ],
      "payable": false,
      "stateMutability": "view",
      "type": "function"
    },
    {
      "constant": false,
      "inputs": [
        {
          "name": "_account",
          "type": "address"
        }
      ],
      "name": "calculateDeviationLatest",
      "outputs": [],
      "payable": false,
      "stateMutability": "nonpayable",
      "type": "function"
    }
  ],
  "bytecode": "0x60806040523480156200001157600080fd5b5060405162002db238038062002db2833981018060405262000037919081019062000595565b836000806101000a81548173ffffffffffffffffffffffffffffffffffffffff021916908373ffffffffffffffffffffffffffffffffffffffff16021790555083600160006101000a81548173ffffffffffffffffffffffffffffffffffffffff021916908373ffffffffffffffffffffffffffffffffffffffff1602179055508260029080519060200190620000d09291906200022a565b508160039080519060200190620000e99291906200022a565b50806004908051906020019062000102929190620002b1565b50600060058190555060006006819055506000600760006101000a81548160ff021916908360038111156200013357fe5b0217905550600160009054906101000a900473ffffffffffffffffffffffffffffffffffffffff1673ffffffffffffffffffffffffffffffffffffffff1663f390dd86306040518263ffffffff167c0100000000000000000000000000000000000000000000000000000000028152600401620001b19190620006d0565b600060405180830381600087803b158015620001cc57600080fd5b505af1158015620001e1573d6000803e3d6000fd5b505050507f9fe7cb314c08d72e270589aeb0470bb4335133b90e7dfd6f84ed11661496dd37838360405162000218929190620006ed565b60405180910390a15050505062000880565b828054600181600116156101000203166002900490600052602060002090601f016020900481019282601f106200026d57805160ff19168380011785556200029e565b828001600101855582156200029e579182015b828111156200029d57825182559160200191906001019062000280565b5b509050620002ad919062000318565b5090565b82805482825590600052602060002090810192821562000305579160200282015b8281111562000304578251829080519060200190620002f392919062000340565b5091602001919060010190620002d2565b5b509050620003149190620003c7565b5090565b6200033d91905b80821115620003395760008160009055506001016200031f565b5090565b90565b828054600181600116156101000203166002900490600052602060002090601f016020900481019282601f106200038357805160ff1916838001178555620003b4565b82800160010185558215620003b4579182015b82811115620003b357825182559160200191906001019062000396565b5b509050620003c3919062000318565b5090565b620003f591905b80821115620003f15760008181620003e79190620003f8565b50600101620003ce565b5090565b90565b50805460018160011615610100020316600290046000825580601f1062000420575062000441565b601f01602090049060005260206000209081019062000440919062000318565b5b50565b600062000452825162000819565b905092915050565b600082601f83011215156200046e57600080fd5b8151620004856200047f826200076b565b6200073d565b9150818183526020840193506020810190508360005b83811015620004cf5781518601620004b48882620004d9565b8452602084019350602083019250506001810190506200049b565b5050505092915050565b600082601f8301121515620004ed57600080fd5b815162000504620004fe8262000794565b6200073d565b915080825260208301602083018583830111156200052157600080fd5b6200052e83828462000839565b50505092915050565b600082601f83011215156200054b57600080fd5b8151620005626200055c82620007c1565b6200073d565b915080825260208301602083018583830111156200057f57600080fd5b6200058c83828462000839565b50505092915050565b60008060008060808587031215620005ac57600080fd5b6000620005bc8782880162000444565b945050602085015167ffffffffffffffff811115620005da57600080fd5b620005e88782880162000537565b935050604085015167ffffffffffffffff8111156200060657600080fd5b620006148782880162000537565b925050606085015167ffffffffffffffff8111156200063257600080fd5b62000640878288016200045a565b91505092959194509250565b6200065781620007f9565b82525050565b60006200066a82620007ee565b8084526200068081602086016020860162000839565b6200068b816200086f565b602085010191505092915050565b6000601782527f4372656174652073657373696f6e2073756363657373210000000000000000006020830152604082019050919050565b6000602082019050620006e760008301846200064c565b92915050565b600060608201905081810360008301526200070981856200065d565b905081810360208301526200071f81846200065d565b90508181036040830152620007348162000699565b90509392505050565b6000604051905081810181811067ffffffffffffffff821117156200076157600080fd5b8060405250919050565b600067ffffffffffffffff8211156200078357600080fd5b602082029050602081019050919050565b600067ffffffffffffffff821115620007ac57600080fd5b601f19601f8301169050602081019050919050565b600067ffffffffffffffff821115620007d957600080fd5b601f19601f8301169050602081019050919050565b600081519050919050565b600073ffffffffffffffffffffffffffffffffffffffff82169050919050565b600073ffffffffffffffffffffffffffffffffffffffff82169050919050565b60005b83811015620008595780820151818401526020810190506200083c565b8381111562000869576000848401525b50505050565b6000601f19601f8301169050919050565b61252280620008906000396000f3006080604052600436106100a4576000357c0100000000000000000000000000000000000000000000000000000000900463ffffffff1680630e973501146100a957806321ab391e146100d25780632e639ee5146100e95780635a53ac8a14610114578063893e79ba1461013d578063cbd8c61314610166578063d270e7ab1461017d578063e03a2925146101a8578063f8cb00bf146101e5578063fe0ae16514610215575b600080fd5b3480156100b557600080fd5b506100d060048036036100cb9190810190611c50565b61022c565b005b3480156100de57600080fd5b506100e76103dc565b005b3480156100f557600080fd5b506100fe61077b565b60405161010b919061212d565b60405180910390f35b34801561012057600080fd5b5061013b60048036036101369190810190611bac565b610809565b005b34801561014957600080fd5b50610164600480360361015f9190810190611bfe565b610be6565b005b34801561017257600080fd5b5061017b610fbd565b005b34801561018957600080fd5b506101926111af565b60405161019f91906120bb565b60405180910390f35b3480156101b457600080fd5b506101cf60048036036101ca9190810190611bac565b6111d4565b6040516101dc919061214f565b60405180910390f35b3480156101f157600080fd5b506101fa6113b2565b60405161020c9695949392919061216a565b60405180910390f35b34801561022157600080fd5b5061022a611612565b005b600160009054906101000a900473ffffffffffffffffffffffffffffffffffffffff1673ffffffffffffffffffffffffffffffffffffffff16636e9960c36040518163ffffffff167c0100000000000000000000000000000000000000000000000000000000028152600401602060405180830381600087803b1580156102b257600080fd5b505af11580156102c6573d6000803e3d6000fd5b505050506040513d601f19601f820116820180604052506102ea9190810190611bd5565b73ffffffffffffffffffffffffffffffffffffffff163373ffffffffffffffffffffffffffffffffffffffff16141515610359576040517f08c379a00000000000000000000000000000000000000000000000000000000081526004016103509061228a565b60405180910390fd5b826002908051906020019061036f929190611841565b508160039080519060200190610386929190611841565b50806004908051906020019061039d9291906118c1565b507f2a5d6d5b2dec1b940dec7f561cf0b8cd2965d265ed7c371349e1d15979b075ab83836040516103cf9291906121e0565b60405180910390a1505050565b6000806000806000600160009054906101000a900473ffffffffffffffffffffffffffffffffffffffff1673ffffffffffffffffffffffffffffffffffffffff16636e9960c36040518163ffffffff167c0100000000000000000000000000000000000000000000000000000000028152600401602060405180830381600087803b15801561046a57600080fd5b505af115801561047e573d6000803e3d6000fd5b505050506040513d601f19601f820116820180604052506104a29190810190611bd5565b73ffffffffffffffffffffffffffffffffffffffff163373ffffffffffffffffffffffffffffffffffffffff16141515610511576040517f08c379a00000000000000000000000000000000000000000000000000000000081526004016105089061228a565b60405180910390fd5b6001600381111561051e57fe5b600760009054906101000a900460ff16600381111561053957fe5b14151561057b576040517f08c379a00000000000000000000000000000000000000000000000000000000081526004016105729061222a565b60405180910390fd5b600094506000935060009250600091505b600a8054905082101561073157600160009054906101000a900473ffffffffffffffffffffffffffffffffffffffff1673ffffffffffffffffffffffffffffffffffffffff1663a33a08b9600a848154811015156105e657fe5b9060005260206000200160009054906101000a900473ffffffffffffffffffffffffffffffffffffffff166040518263ffffffff167c010000000000000000000000000000000000000000000000000000000002815260040161064991906120bb565b602060405180830381600087803b15801561066357600080fd5b505af1158015610677573d6000803e3d6000fd5b505050506040513d601f19601f8201168201806040525061069b9190810190611c27565b90508060640360086000600a858154811015156106b457fe5b9060005260206000200160009054906101000a900473ffffffffffffffffffffffffffffffffffffffff1673ffffffffffffffffffffffffffffffffffffffff1673ffffffffffffffffffffffffffffffffffffffff1681526020019081526020016000205402840193508083019250818060010192505061058c565b82600a80549050606402038481151561074657fe5b059450846005819055506002600760006101000a81548160ff0219169083600381111561076f57fe5b02179055505050505050565b6060600a8054806020026020016040519081016040528092919081815260200182805480156107ff57602002820191906000526020600020905b8160009054906101000a900473ffffffffffffffffffffffffffffffffffffffff1673ffffffffffffffffffffffffffffffffffffffff16815260200190600101908083116107b5575b5050505050905090565b6000806000600160009054906101000a900473ffffffffffffffffffffffffffffffffffffffff1673ffffffffffffffffffffffffffffffffffffffff16636e9960c36040518163ffffffff167c0100000000000000000000000000000000000000000000000000000000028152600401602060405180830381600087803b15801561089457600080fd5b505af11580156108a8573d6000803e3d6000fd5b505050506040513d601f19601f820116820180604052506108cc9190810190611bd5565b73ffffffffffffffffffffffffffffffffffffffff163373ffffffffffffffffffffffffffffffffffffffff1614151561093b576040517f08c379a00000000000000000000000000000000000000000000000000000000081526004016109329061228a565b60405180910390fd5b6000600654131515610982576040517f08c379a00000000000000000000000000000000000000000000000000000000081526004016109799061230a565b60405180910390fd5b600160009054906101000a900473ffffffffffffffffffffffffffffffffffffffff1673ffffffffffffffffffffffffffffffffffffffff1663a33a08b9856040518263ffffffff167c01000000000000000000000000000000000000000000000000000000000281526004016109f991906120bb565b602060405180830381600087803b158015610a1357600080fd5b505af1158015610a27573d6000803e3d6000fd5b505050506040513d601f19601f82011682018060405250610a4b9190810190611c27565b9250610a56846111d4565b600160009054906101000a900473ffffffffffffffffffffffffffffffffffffffff1673ffffffffffffffffffffffffffffffffffffffff1663be330868866040518263ffffffff167c0100000000000000000000000000000000000000000000000000000000028152600401610acd91906120bb565b602060405180830381600087803b158015610ae757600080fd5b505af1158015610afb573d6000803e3d6000fd5b505050506040513d601f19601f82011682018060405250610b1f9190810190611c27565b84020191506001830182811515610b3257fe5b059050600160009054906101000a900473ffffffffffffffffffffffffffffffffffffffff1673ffffffffffffffffffffffffffffffffffffffff16638c99069885836040518363ffffffff167c0100000000000000000000000000000000000000000000000000000000028152600401610bae9291906120d6565b600060405180830381600087803b158015610bc857600080fd5b505af1158015610bdc573d6000803e3d6000fd5b5050505050505050565b600160009054906101000a900473ffffffffffffffffffffffffffffffffffffffff1673ffffffffffffffffffffffffffffffffffffffff16636e9960c36040518163ffffffff167c0100000000000000000000000000000000000000000000000000000000028152600401602060405180830381600087803b158015610c6c57600080fd5b505af1158015610c80573d6000803e3d6000fd5b505050506040513d601f19601f82011682018060405250610ca49190810190611bd5565b73ffffffffffffffffffffffffffffffffffffffff163373ffffffffffffffffffffffffffffffffffffffff1614151515610d14576040517f08c379a0000000000000000000000000000000000000000000000000000000008152600401610d0b9061224a565b60405180910390fd5b60016003811115610d2157fe5b600760009054906101000a900460ff166003811115610d3c57fe5b141515610d7e576040517f08c379a0000000000000000000000000000000000000000000000000000000008152600401610d759061222a565b60405180910390fd5b60001515600960003373ffffffffffffffffffffffffffffffffffffffff1673ffffffffffffffffffffffffffffffffffffffff16815260200190815260200160002060009054906101000a900460ff1615151415610f3f576001600960003373ffffffffffffffffffffffffffffffffffffffff1673ffffffffffffffffffffffffffffffffffffffff16815260200190815260200160002060006101000a81548160ff021916908315150217905550600a3390806001815401808255809150509060018203906000526020600020016000909192909190916101000a81548173ffffffffffffffffffffffffffffffffffffffff021916908373ffffffffffffffffffffffffffffffffffffffff16021790555050600160009054906101000a900473ffffffffffffffffffffffffffffffffffffffff1673ffffffffffffffffffffffffffffffffffffffff1663a6829934336040518263ffffffff167c0100000000000000000000000000000000000000000000000000000000028152600401610f0c91906120bb565b600060405180830381600087803b158015610f2657600080fd5b505af1158015610f3a573d6000803e3d6000fd5b505050505b80600860003373ffffffffffffffffffffffffffffffffffffffff1673ffffffffffffffffffffffffffffffffffffffff168152602001908152602001600020819055507f47650289511cf2cfb9b8b559f6e750022263d3a2db072b47698d32df3ac0b80533604051610fb291906120ff565b60405180910390a150565b600160009054906101000a900473ffffffffffffffffffffffffffffffffffffffff1673ffffffffffffffffffffffffffffffffffffffff16636e9960c36040518163ffffffff167c0100000000000000000000000000000000000000000000000000000000028152600401602060405180830381600087803b15801561104357600080fd5b505af1158015611057573d6000803e3d6000fd5b505050506040513d601f19601f8201168201806040525061107b9190810190611bd5565b73ffffffffffffffffffffffffffffffffffffffff163373ffffffffffffffffffffffffffffffffffffffff161415156110ea576040517f08c379a00000000000000000000000000000000000000000000000000000000081526004016110e19061228a565b60405180910390fd5b600260038111156110f757fe5b600760009054906101000a900460ff16600381111561111257fe5b141515611154576040517f08c379a000000000000000000000000000000000000000000000000000000000815260040161114b906122ea565b60405180910390fd5b6003600760006101000a81548160ff0219169083600381111561117357fe5b02179055507fd084c6ae9c7d3dcbaf7ac844e5d1150bc12c7d070a3ffb34cd54ca01a03c13646040516111a5906122aa565b60405180910390a1565b6000809054906101000a900473ffffffffffffffffffffffffffffffffffffffff1681565b600080600160009054906101000a900473ffffffffffffffffffffffffffffffffffffffff1673ffffffffffffffffffffffffffffffffffffffff16636e9960c36040518163ffffffff167c0100000000000000000000000000000000000000000000000000000000028152600401602060405180830381600087803b15801561125d57600080fd5b505af1158015611271573d6000803e3d6000fd5b505050506040513d601f19601f820116820180604052506112959190810190611bd5565b73ffffffffffffffffffffffffffffffffffffffff163373ffffffffffffffffffffffffffffffffffffffff16141515611304576040517f08c379a00000000000000000000000000000000000000000000000000000000081526004016112fb9061228a565b60405180910390fd5b600060065413151561134b576040517f08c379a00000000000000000000000000000000000000000000000000000000081526004016113429061230a565b60405180910390fd5b611397600860008573ffffffffffffffffffffffffffffffffffffffff1673ffffffffffffffffffffffffffffffffffffffff1681526020019081526020016000205460065403611804565b90506064600654828115156113a857fe5b0502915050919050565b60608060606000806000600260036004600554600654600760009054906101000a900460ff1660038111156113e357fe5b858054600181600116156101000203166002900480601f0160208091040260200160405190810160405280929190818152602001828054600181600116156101000203166002900480156114785780601f1061144d57610100808354040283529160200191611478565b820191906000526020600020905b81548152906001019060200180831161145b57829003601f168201915b50505050509550848054600181600116156101000203166002900480601f0160208091040260200160405190810160405280929190818152602001828054600181600116156101000203166002900480156115145780601f106114e957610100808354040283529160200191611514565b820191906000526020600020905b8154815290600101906020018083116114f757829003601f168201915b5050505050945083805480602002602001604051908101604052809291908181526020016000905b828210156115f8578382906000526020600020018054600181600116156101000203166002900480601f0160208091040260200160405190810160405280929190818152602001828054600181600116156101000203166002900480156115e45780601f106115b9576101008083540402835291602001916115e4565b820191906000526020600020905b8154815290600101906020018083116115c757829003601f168201915b50505050508152602001906001019061153c565b505050509350955095509550955095509550909192939495565b600160009054906101000a900473ffffffffffffffffffffffffffffffffffffffff1673ffffffffffffffffffffffffffffffffffffffff16636e9960c36040518163ffffffff167c0100000000000000000000000000000000000000000000000000000000028152600401602060405180830381600087803b15801561169857600080fd5b505af11580156116ac573d6000803e3d6000fd5b505050506040513d601f19601f820116820180604052506116d09190810190611bd5565b73ffffffffffffffffffffffffffffffffffffffff163373ffffffffffffffffffffffffffffffffffffffff1614151561173f576040517f08c379a00000000000000000000000000000000000000000000000000000000081526004016117369061228a565b60405180910390fd5b6000600381111561174c57fe5b600760009054906101000a900460ff16600381111561176757fe5b1415156117a9576040517f08c379a00000000000000000000000000000000000000000000000000000000081526004016117a09061226a565b60405180910390fd5b6001600760006101000a81548160ff021916908360038111156117c857fe5b02179055507fd084c6ae9c7d3dcbaf7ac844e5d1150bc12c7d070a3ffb34cd54ca01a03c13646040516117fa906122ca565b60405180910390a1565b600080821215611838577fffffffffffffffffffffffffffffffffffffffffffffffffffffffffffffffff8202905061183c565b8190505b919050565b828054600181600116156101000203166002900490600052602060002090601f016020900481019282601f1061188257805160ff19168380011785556118b0565b828001600101855582156118b0579182015b828111156118af578251825591602001919060010190611894565b5b5090506118bd9190611921565b5090565b828054828255906000526020600020908101928215611910579160200282015b8281111561190f5782518290805190602001906118ff929190611946565b50916020019190600101906118e1565b5b50905061191d91906119c6565b5090565b61194391905b8082111561193f576000816000905550600101611927565b5090565b90565b828054600181600116156101000203166002900490600052602060002090601f016020900481019282601f1061198757805160ff19168380011785556119b5565b828001600101855582156119b5579182015b828111156119b4578251825591602001919060010190611999565b5b5090506119c29190611921565b5090565b6119ef91905b808211156119eb57600081816119e291906119f2565b506001016119cc565b5090565b90565b50805460018160011615610100020316600290046000825580601f10611a185750611a37565b601f016020900490600052602060002090810190611a369190611921565b5b50565b6000611a46823561246b565b905092915050565b6000611a5a825161246b565b905092915050565b600082601f8301121515611a7557600080fd5b8135611a88611a8382612357565b61232a565b9150818183526020840193506020810190508360005b83811015611ace5781358601611ab48882611b00565b845260208401935060208301925050600181019050611a9e565b5050505092915050565b6000611ae4823561248b565b905092915050565b6000611af8825161248b565b905092915050565b600082601f8301121515611b1357600080fd5b8135611b26611b218261237f565b61232a565b91508082526020830160208301858383011115611b4257600080fd5b611b4d838284612495565b50505092915050565b600082601f8301121515611b6957600080fd5b8135611b7c611b77826123ab565b61232a565b91508082526020830160208301858383011115611b9857600080fd5b611ba3838284612495565b50505092915050565b600060208284031215611bbe57600080fd5b6000611bcc84828501611a3a565b91505092915050565b600060208284031215611be757600080fd5b6000611bf584828501611a4e565b91505092915050565b600060208284031215611c1057600080fd5b6000611c1e84828501611ad8565b91505092915050565b600060208284031215611c3957600080fd5b6000611c4784828501611aec565b91505092915050565b600080600060608486031215611c6557600080fd5b600084013567ffffffffffffffff811115611c7f57600080fd5b611c8b86828701611b56565b935050602084013567ffffffffffffffff811115611ca857600080fd5b611cb486828701611b56565b925050604084013567ffffffffffffffff811115611cd157600080fd5b611cdd86828701611a62565b9150509250925092565b611cf081612437565b82525050565b6000611d01826123f1565b808452602084019350611d13836123d7565b60005b82811015611d4557611d29868351611ce7565b611d328261241d565b9150602086019550600181019050611d16565b50849250505092915050565b6000611d5c826123fc565b80845260208401935083602082028501611d75856123e4565b60005b84811015611dae578383038852611d90838351611e04565b9250611d9b8261242a565b9150602088019750600181019050611d78565b508196508694505050505092915050565b611dc881612457565b82525050565b6000611dd982612412565b808452611ded8160208601602086016124a4565b611df6816124d7565b602085010191505092915050565b6000611e0f82612407565b808452611e238160208601602086016124a4565b611e2c816124d7565b602085010191505092915050565b6000601a82527f53657373696f6e206973206e6f7420696e2070726f67726573730000000000006020830152604082019050919050565b6000602b82527f546869732066756e6374696f6e206f6e6c79207061727469636970616e74206360208301527f616e2065786563757465210000000000000000000000000000000000000000006040830152606082019050919050565b6000601782527f5570646174652073657373696f6e2073756363657373210000000000000000006020830152604082019050919050565b6000601e82527f53657373696f6e20737461747573206d757374206265204352454154454400006020830152604082019050919050565b6000602582527f546869732066756e6374696f6e206f6e6c792061646d696e2063616e2065786560208301527f63757465210000000000000000000000000000000000000000000000000000006040830152606082019050919050565b6000601d82527f5570646174652073657373696f6e2073746174757320746f2053544f500000006020830152604082019050919050565b6000602082527f5570646174652073657373696f6e2073746174757320746f2050524943494e476020830152604082019050919050565b6000601082527f50726963696e67207375636365737321000000000000000000000000000000006020830152604082019050919050565b6000601c82527f53657373696f6e20737461747573206d75737420626520434c4f5345000000006020830152604082019050919050565b6000601b82527f46696e616c207072696365206d757374207365742076616c75652100000000006020830152604082019050919050565b6120b581612461565b82525050565b60006020820190506120d06000830184611ce7565b92915050565b60006040820190506120eb6000830185611ce7565b6120f86020830184611dbf565b9392505050565b60006040820190506121146000830184611ce7565b818103602083015261212581612007565b905092915050565b600060208201905081810360008301526121478184611cf6565b905092915050565b60006020820190506121646000830184611dbf565b92915050565b600060c08201905081810360008301526121848189611dce565b905081810360208301526121988188611dce565b905081810360408301526121ac8187611d51565b90506121bb60608301866120ac565b6121c86080830185611dbf565b6121d560a08301846120ac565b979650505050505050565b600060608201905081810360008301526121fa8185611dce565b9050818103602083015261220e8184611dce565b9050818103604083015261222181611ece565b90509392505050565b6000602082019050818103600083015261224381611e3a565b9050919050565b6000602082019050818103600083015261226381611e71565b9050919050565b6000602082019050818103600083015261228381611f05565b9050919050565b600060208201905081810360008301526122a381611f3c565b9050919050565b600060208201905081810360008301526122c381611f99565b9050919050565b600060208201905081810360008301526122e381611fd0565b9050919050565b600060208201905081810360008301526123038161203e565b9050919050565b6000602082019050818103600083015261232381612075565b9050919050565b6000604051905081810181811067ffffffffffffffff8211171561234d57600080fd5b8060405250919050565b600067ffffffffffffffff82111561236e57600080fd5b602082029050602081019050919050565b600067ffffffffffffffff82111561239657600080fd5b601f19601f8301169050602081019050919050565b600067ffffffffffffffff8211156123c257600080fd5b601f19601f8301169050602081019050919050565b6000602082019050919050565b6000602082019050919050565b600081519050919050565b600081519050919050565b600081519050919050565b600081519050919050565b6000602082019050919050565b6000602082019050919050565b600073ffffffffffffffffffffffffffffffffffffffff82169050919050565b6000819050919050565b6000819050919050565b600073ffffffffffffffffffffffffffffffffffffffff82169050919050565b6000819050919050565b82818337600083830152505050565b60005b838110156124c25780820151818401526020810190506124a7565b838111156124d1576000848401525b50505050565b6000601f19601f83011690509190505600a265627a7a723058208809f38139c2b1ab0f600f3aa601449d3635085a0f8258c82de73ea466f5d77f6c6578706572696d656e74616cf50037",
  "source": "// SPDX-License-Identifier: MIT\r\npragma solidity ^0.4.26;\r\npragma experimental ABIEncoderV2;\r\nimport \"./lib/UtilityLibrary.sol\";\r\n\r\n// Interface of Main contract to call from Session contract\r\ninterface IMain {\r\n    function addSession(address session) external;\r\n    function getAdmin() external view returns (address);\r\n    function getDeviation(address _account) external view returns (int);\r\n    function setDeviation(address _account, int _deviation) external;\r\n    function incrementNumberOfSession(address _account) external;\r\n    function getNumberOfSession(address _account) external view returns(int);\r\n}\r\n\r\ncontract Session {\r\n    // Variable to hold Main Contract Address when create new Session Contract\r\n    address public mainContract;\r\n    // Variable to hold Main Contract instance to call functions from Main\r\n    IMain MainContract;\r\n\r\n    // TODO: Variables\r\n    enum SESSION_STATUS {CREATED, PRICING, CLOSE, STOP}\r\n\r\n    string private productName;\r\n    string private description;\r\n    string[] private images;\r\n    uint private suggestPrice;\r\n    int private finalPrice;\r\n    SESSION_STATUS private status;\r\n    mapping(address => int) private mapParticipantPricings;\r\n    mapping(address => bool) private isParticipantPricingExists;\r\n    address[] private participantPricings;\r\n\r\n    using UtilityLibrary for int;\r\n\r\n    constructor(\r\n        address _mainContract,\r\n        string memory _productName,\r\n        string memory _description,\r\n        string[] memory _images\r\n    ) public {\r\n        // Get Main Contract instance\r\n        mainContract = _mainContract;\r\n        MainContract = IMain(_mainContract);\r\n\r\n        // TODO: Init Session contract\r\n        productName = _productName;\r\n        description = _description;\r\n        images = _images;\r\n        suggestPrice = 0;\r\n        finalPrice = 0;\r\n        status = SESSION_STATUS.CREATED;\r\n\r\n        // Call Main Contract function to link current contract.\r\n        MainContract.addSession(address(this));\r\n        emit CreateSession(_productName, _description, \"Create session success!\");\r\n    }\r\n\r\n    //Update session.\r\n    function updateSession(string memory _productName, string memory _description, string[] memory _images) public onlyAdmin {\r\n        productName = _productName;\r\n        description = _description;\r\n        images = _images;\r\n        emit UpdateSession(_productName, _description, \"Update session success!\");\r\n    }\r\n\r\n    // TODO: Functions\r\n    // ..CREATED.. -> PRICING -> CLOSE -> STOP\r\n    // Update session status to PRICING.\r\n    function startSession() public onlyAdmin {\r\n        require(status == SESSION_STATUS.CREATED, \"Session status must be CREATED\");\r\n        status = SESSION_STATUS.PRICING;\r\n        emit UpdateSessionStatus(\"Update session status to PRICING\");\r\n    }\r\n\r\n    // Update session status to CLOSE.\r\n    // function closeSession() public onlyAdmin {\r\n    //     require(status == SESSION_STATUS.PRICING, \"Session status must be PRICING\");\r\n    //     status = SESSION_STATUS.CLOSE;\r\n    //     emit UpdateSessionStatus(\"Update session status to CLOSE\");\r\n    // }\r\n\r\n    function getParticipantPricings() public view returns (address[] memory) {\r\n        return participantPricings;\r\n    }\r\n\r\n    // function getParticipantPricings() public view returns (address[]) {\r\n    //     address[] arr = [];\r\n\r\n    //     for (uint i = 0; i < participantPricings.length; i++) {\r\n    //         arr.push(participantPricings[i]);\r\n    //     }\r\n\r\n    //     return arr;\r\n    // }\r\n\r\n    // Update session status to STOP.\r\n    function stopSession() public onlyAdmin {\r\n        require(status == SESSION_STATUS.CLOSE, \"Session status must be CLOSE\");\r\n        status = SESSION_STATUS.STOP;\r\n        emit UpdateSessionStatus(\"Update session status to STOP\");\r\n    }\r\n\r\n    // Participant pricing.\r\n    function pricing(int _price) public onlyParticipant onlyInProgress {\r\n        if (isParticipantPricingExists[msg.sender] == false) {\r\n            isParticipantPricingExists[msg.sender] = true;\r\n            participantPricings.push(msg.sender);\r\n            MainContract.incrementNumberOfSession(msg.sender);\r\n        }\r\n\r\n        mapParticipantPricings[msg.sender] = _price;\r\n        emit Pricing(msg.sender, \"Pricing success!\");\r\n    }\r\n\r\n    // Get session detail.\r\n    function getSessionDetail() public view returns(string memory, string memory, string[] memory, uint, int, uint) {\r\n        return (productName, description, images, suggestPrice, finalPrice, uint(status));\r\n    }\r\n\r\n    // Calculate suggest price. (Set price and Close)\r\n    function calculateSuggestPrice() public onlyAdmin onlyInProgress {\r\n        int _suggestPrice = 0;\r\n        int _sumOfPriceWithDeviation = 0;\r\n        int _sumOfDeviation = 0;\r\n\r\n        for (uint i = 0; i < participantPricings.length; i++) {\r\n            // TODO: ko co thi return 0\r\n            int _deviation = MainContract.getDeviation(participantPricings[i]);\r\n            _sumOfPriceWithDeviation += mapParticipantPricings[participantPricings[i]] * (100 - _deviation);\r\n            _sumOfDeviation += _deviation;\r\n        }\r\n\r\n        _suggestPrice = _sumOfPriceWithDeviation / ((100 * int(participantPricings.length)) - _sumOfDeviation);\r\n        suggestPrice = uint(_suggestPrice);\r\n        status = SESSION_STATUS.CLOSE;\r\n    }\r\n\r\n    // Calculate deviation in session.\r\n    function calculateDeviationInSession(address _account) public view onlyAdmin onlyFinalPriceMustSetValue returns (int) {\r\n        int _subDeviation = (finalPrice - mapParticipantPricings[_account]).abs();\r\n\r\n        return (_subDeviation / finalPrice) * 100;\r\n    }\r\n\r\n    // Calculate deviation.\r\n    function calculateDeviationLatest(address _account) public onlyAdmin onlyFinalPriceMustSetValue {\r\n        int _deviation = MainContract.getDeviation(_account);\r\n        int _subDeviation = (_deviation * MainContract.getNumberOfSession(_account)) + calculateDeviationInSession(_account);\r\n        int _newDeviation = _subDeviation / (_deviation + 1);\r\n        MainContract.setDeviation(_account, _newDeviation);\r\n    }\r\n\r\n    // Modify only status is PRICING.\r\n    modifier onlyInProgress {\r\n        require(status == SESSION_STATUS.PRICING, \"Session is not in progress\");\r\n        _;\r\n    }\r\n\r\n    // Modify only status is CLOSE.\r\n    modifier onlyClose {\r\n        require(status == SESSION_STATUS.CLOSE, \"Session is not in progress\");\r\n        _;\r\n    }\r\n\r\n    // Modify to check only admin.\r\n    modifier onlyAdmin() {\r\n        require(msg.sender == MainContract.getAdmin(), \"This function only admin can execute!\");\r\n        _;\r\n    }\r\n\r\n    // Modify to check only participant.\r\n    modifier onlyParticipant() {\r\n        // TODO: viet lai modifier nay\r\n        require(msg.sender != MainContract.getAdmin(), \"This function only participant can execute!\");\r\n        _;\r\n    }\r\n\r\n    // Modify finalPrice must set value.\r\n    modifier onlyFinalPriceMustSetValue() {\r\n        require(finalPrice > 0, \"Final price must set value!\");\r\n        _;\r\n    }\r\n\r\n    // Event create session.\r\n    event CreateSession(string _productName, string _description, string _msg);\r\n\r\n    // Event update session.\r\n    event UpdateSession(string _productName, string _description, string _msg);\r\n\r\n    // Event update session status.\r\n    event UpdateSessionStatus(string _msg);\r\n\r\n    // Event pricing.\r\n    event Pricing(address _account, string _msg);\r\n}\r\n",
  "sourcePath": "C:\\Users\\dtvthe\\study\\blockchain\\fx15127-final-project\\truffle\\contracts\\Session.sol",
  "compiler": {
    "name": "solc",
    "version": "0.4.26+commit.4563c3fc.Emscripten.clang"
  },
  "schemaVersion": "3.4.14",
  "updatedAt": "2023-06-22T19:08:58.418Z",
  "devdoc": {
    "methods": {}
  },
  "userdoc": {
    "methods": {}
  }
}