{
  "contractName": "Session",
  "abi": [
    {
      "constant": true,
      "inputs": [],
      "name": "mainContract",
      "outputs": [
        {
          "name": "",
          "type": "address"
        }
      ],
      "payable": false,
      "stateMutability": "view",
      "type": "function"
    },
    {
      "inputs": [
        {
          "name": "_mainContract",
          "type": "address"
        },
        {
          "name": "_productName",
          "type": "string"
        },
        {
          "name": "_description",
          "type": "string"
        },
        {
          "name": "_images",
          "type": "string[]"
        }
      ],
      "payable": false,
      "stateMutability": "nonpayable",
      "type": "constructor"
    },
    {
      "anonymous": false,
      "inputs": [
        {
          "indexed": false,
          "name": "_productName",
          "type": "string"
        },
        {
          "indexed": false,
          "name": "_description",
          "type": "string"
        },
        {
          "indexed": false,
          "name": "_msg",
          "type": "string"
        }
      ],
      "name": "CreateSession",
      "type": "event"
    },
    {
      "anonymous": false,
      "inputs": [
        {
          "indexed": false,
          "name": "_productName",
          "type": "string"
        },
        {
          "indexed": false,
          "name": "_description",
          "type": "string"
        },
        {
          "indexed": false,
          "name": "_msg",
          "type": "string"
        }
      ],
      "name": "UpdateSession",
      "type": "event"
    },
    {
      "anonymous": false,
      "inputs": [
        {
          "indexed": false,
          "name": "_msg",
          "type": "string"
        }
      ],
      "name": "UpdateSessionStatus",
      "type": "event"
    },
    {
      "anonymous": false,
      "inputs": [
        {
          "indexed": false,
          "name": "_account",
          "type": "address"
        },
        {
          "indexed": false,
          "name": "_msg",
          "type": "string"
        }
      ],
      "name": "Pricing",
      "type": "event"
    },
    {
      "constant": false,
      "inputs": [
        {
          "name": "_productName",
          "type": "string"
        },
        {
          "name": "_description",
          "type": "string"
        },
        {
          "name": "_images",
          "type": "string[]"
        }
      ],
      "name": "updateSession",
      "outputs": [],
      "payable": false,
      "stateMutability": "nonpayable",
      "type": "function"
    },
    {
      "constant": false,
      "inputs": [],
      "name": "startSession",
      "outputs": [],
      "payable": false,
      "stateMutability": "nonpayable",
      "type": "function"
    },
    {
      "constant": true,
      "inputs": [],
      "name": "getParticipantPricings",
      "outputs": [
        {
          "name": "",
          "type": "address[]"
        }
      ],
      "payable": false,
      "stateMutability": "view",
      "type": "function"
    },
    {
      "constant": false,
      "inputs": [],
      "name": "stopSession",
      "outputs": [],
      "payable": false,
      "stateMutability": "nonpayable",
      "type": "function"
    },
    {
      "constant": false,
      "inputs": [
        {
          "name": "_price",
          "type": "int256"
        }
      ],
      "name": "pricing",
      "outputs": [],
      "payable": false,
      "stateMutability": "nonpayable",
      "type": "function"
    },
    {
      "constant": true,
      "inputs": [],
      "name": "getSessionDetail",
      "outputs": [
        {
          "name": "",
          "type": "string"
        },
        {
          "name": "",
          "type": "string"
        },
        {
          "name": "",
          "type": "string[]"
        },
        {
          "name": "",
          "type": "uint256"
        },
        {
          "name": "",
          "type": "int256"
        },
        {
          "name": "",
          "type": "uint256"
        }
      ],
      "payable": false,
      "stateMutability": "view",
      "type": "function"
    },
    {
      "constant": false,
      "inputs": [],
      "name": "calculateSuggestPriceAndCloseSession",
      "outputs": [],
      "payable": false,
      "stateMutability": "nonpayable",
      "type": "function"
    },
    {
      "constant": true,
      "inputs": [
        {
          "name": "_account",
          "type": "address"
        }
      ],
      "name": "calculateDeviationInSession",
      "outputs": [
        {
          "name": "",
          "type": "int256"
        }
      ],
      "payable": false,
      "stateMutability": "view",
      "type": "function"
    },
    {
      "constant": false,
      "inputs": [],
      "name": "calculateDeviationLatestAndStop",
      "outputs": [],
      "payable": false,
      "stateMutability": "nonpayable",
      "type": "function"
    }
  ],
  "bytecode": "0x60806040523480156200001157600080fd5b506040516200280438038062002804833981018060405262000037919081019062000595565b836000806101000a81548173ffffffffffffffffffffffffffffffffffffffff021916908373ffffffffffffffffffffffffffffffffffffffff16021790555083600160006101000a81548173ffffffffffffffffffffffffffffffffffffffff021916908373ffffffffffffffffffffffffffffffffffffffff1602179055508260029080519060200190620000d09291906200022a565b508160039080519060200190620000e99291906200022a565b50806004908051906020019062000102929190620002b1565b50600060058190555060006006819055506000600760006101000a81548160ff021916908360038111156200013357fe5b0217905550600160009054906101000a900473ffffffffffffffffffffffffffffffffffffffff1673ffffffffffffffffffffffffffffffffffffffff1663f390dd86306040518263ffffffff167c0100000000000000000000000000000000000000000000000000000000028152600401620001b19190620006d0565b600060405180830381600087803b158015620001cc57600080fd5b505af1158015620001e1573d6000803e3d6000fd5b505050507f9fe7cb314c08d72e270589aeb0470bb4335133b90e7dfd6f84ed11661496dd37838360405162000218929190620006ed565b60405180910390a15050505062000880565b828054600181600116156101000203166002900490600052602060002090601f016020900481019282601f106200026d57805160ff19168380011785556200029e565b828001600101855582156200029e579182015b828111156200029d57825182559160200191906001019062000280565b5b509050620002ad919062000318565b5090565b82805482825590600052602060002090810192821562000305579160200282015b8281111562000304578251829080519060200190620002f392919062000340565b5091602001919060010190620002d2565b5b509050620003149190620003c7565b5090565b6200033d91905b80821115620003395760008160009055506001016200031f565b5090565b90565b828054600181600116156101000203166002900490600052602060002090601f016020900481019282601f106200038357805160ff1916838001178555620003b4565b82800160010185558215620003b4579182015b82811115620003b357825182559160200191906001019062000396565b5b509050620003c3919062000318565b5090565b620003f591905b80821115620003f15760008181620003e79190620003f8565b50600101620003ce565b5090565b90565b50805460018160011615610100020316600290046000825580601f1062000420575062000441565b601f01602090049060005260206000209081019062000440919062000318565b5b50565b600062000452825162000819565b905092915050565b600082601f83011215156200046e57600080fd5b8151620004856200047f826200076b565b6200073d565b9150818183526020840193506020810190508360005b83811015620004cf5781518601620004b48882620004d9565b8452602084019350602083019250506001810190506200049b565b5050505092915050565b600082601f8301121515620004ed57600080fd5b815162000504620004fe8262000794565b6200073d565b915080825260208301602083018583830111156200052157600080fd5b6200052e83828462000839565b50505092915050565b600082601f83011215156200054b57600080fd5b8151620005626200055c82620007c1565b6200073d565b915080825260208301602083018583830111156200057f57600080fd5b6200058c83828462000839565b50505092915050565b60008060008060808587031215620005ac57600080fd5b6000620005bc8782880162000444565b945050602085015167ffffffffffffffff811115620005da57600080fd5b620005e88782880162000537565b935050604085015167ffffffffffffffff8111156200060657600080fd5b620006148782880162000537565b925050606085015167ffffffffffffffff8111156200063257600080fd5b62000640878288016200045a565b91505092959194509250565b6200065781620007f9565b82525050565b60006200066a82620007ee565b8084526200068081602086016020860162000839565b6200068b816200086f565b602085010191505092915050565b6000601782527f4372656174652073657373696f6e2073756363657373210000000000000000006020830152604082019050919050565b6000602082019050620006e760008301846200064c565b92915050565b600060608201905081810360008301526200070981856200065d565b905081810360208301526200071f81846200065d565b90508181036040830152620007348162000699565b90509392505050565b6000604051905081810181811067ffffffffffffffff821117156200076157600080fd5b8060405250919050565b600067ffffffffffffffff8211156200078357600080fd5b602082029050602081019050919050565b600067ffffffffffffffff821115620007ac57600080fd5b601f19601f8301169050602081019050919050565b600067ffffffffffffffff821115620007d957600080fd5b601f19601f8301169050602081019050919050565b600081519050919050565b600073ffffffffffffffffffffffffffffffffffffffff82169050919050565b600073ffffffffffffffffffffffffffffffffffffffff82169050919050565b60005b83811015620008595780820151818401526020810190506200083c565b8381111562000869576000848401525b50505050565b6000601f19601f8301169050919050565b611f7480620008906000396000f3006080604052600436106100a4576000357c0100000000000000000000000000000000000000000000000000000000900463ffffffff1680630e973501146100a95780632e639ee5146100d25780633d33b629146100fd57806349428daf14610114578063893e79ba1461012b578063cbd8c61314610154578063d270e7ab1461016b578063e03a292514610196578063f8cb00bf146101d3578063fe0ae16514610203575b600080fd5b3480156100b557600080fd5b506100d060048036036100cb91908101906116a2565b61021a565b005b3480156100de57600080fd5b506100e761030d565b6040516100f49190611b7f565b60405180910390f35b34801561010957600080fd5b5061011261039b565b005b34801561012057600080fd5b5061012961073e565b005b34801561013757600080fd5b50610152600480360361014d9190810190611650565b610a20565b005b34801561016057600080fd5b50610169610d3a565b005b34801561017757600080fd5b50610180610e6f565b60405161018d9190611b0d565b60405180910390f35b3480156101a257600080fd5b506101bd60048036036101b89190810190611627565b610e94565b6040516101ca9190611ba1565b60405180910390f35b3480156101df57600080fd5b506101e8610efe565b6040516101fa96959493929190611bbc565b60405180910390f35b34801561020f57600080fd5b5061021861115e565b005b3273ffffffffffffffffffffffffffffffffffffffff163373ffffffffffffffffffffffffffffffffffffffff1614151561028a576040517f08c379a000000000000000000000000000000000000000000000000000000000815260040161028190611cdc565b60405180910390fd5b82600290805190602001906102a09291906112d0565b5081600390805190602001906102b79291906112d0565b5080600490805190602001906102ce929190611350565b507f2a5d6d5b2dec1b940dec7f561cf0b8cd2965d265ed7c371349e1d15979b075ab8383604051610300929190611c32565b60405180910390a1505050565b6060600a80548060200260200160405190810160405280929190818152602001828054801561039157602002820191906000526020600020905b8160009054906101000a900473ffffffffffffffffffffffffffffffffffffffff1673ffffffffffffffffffffffffffffffffffffffff1681526020019060010190808311610347575b5050505050905090565b60008060008060003273ffffffffffffffffffffffffffffffffffffffff163373ffffffffffffffffffffffffffffffffffffffff16141515610413576040517f08c379a000000000000000000000000000000000000000000000000000000000815260040161040a90611cdc565b60405180910390fd5b600060065413151561045a576040517f08c379a000000000000000000000000000000000000000000000000000000000815260040161045190611d5c565b60405180910390fd5b600094505b600a8054905085101561071357600a8581548110151561047b57fe5b9060005260206000200160009054906101000a900473ffffffffffffffffffffffffffffffffffffffff169350600160009054906101000a900473ffffffffffffffffffffffffffffffffffffffff1673ffffffffffffffffffffffffffffffffffffffff1663a33a08b9856040518263ffffffff167c010000000000000000000000000000000000000000000000000000000002815260040161051f9190611b0d565b602060405180830381600087803b15801561053957600080fd5b505af115801561054d573d6000803e3d6000fd5b505050506040513d601f19601f820116820180604052506105719190810190611679565b925061057c84610e94565b600160009054906101000a900473ffffffffffffffffffffffffffffffffffffffff1673ffffffffffffffffffffffffffffffffffffffff1663be330868866040518263ffffffff167c01000000000000000000000000000000000000000000000000000000000281526004016105f39190611b0d565b602060405180830381600087803b15801561060d57600080fd5b505af1158015610621573d6000803e3d6000fd5b505050506040513d601f19601f820116820180604052506106459190810190611679565b8402019150600183018281151561065857fe5b059050600160009054906101000a900473ffffffffffffffffffffffffffffffffffffffff1673ffffffffffffffffffffffffffffffffffffffff16638c99069885836040518363ffffffff167c01000000000000000000000000000000000000000000000000000000000281526004016106d4929190611b28565b600060405180830381600087803b1580156106ee57600080fd5b505af1158015610702573d6000803e3d6000fd5b50505050848060010195505061045f565b6003600760006101000a81548160ff0219169083600381111561073257fe5b02179055505050505050565b60008060008060003273ffffffffffffffffffffffffffffffffffffffff163373ffffffffffffffffffffffffffffffffffffffff161415156107b6576040517f08c379a00000000000000000000000000000000000000000000000000000000081526004016107ad90611cdc565b60405180910390fd5b600160038111156107c357fe5b600760009054906101000a900460ff1660038111156107de57fe5b141515610820576040517f08c379a000000000000000000000000000000000000000000000000000000000815260040161081790611c7c565b60405180910390fd5b600094506000935060009250600091505b600a805490508210156109d657600160009054906101000a900473ffffffffffffffffffffffffffffffffffffffff1673ffffffffffffffffffffffffffffffffffffffff1663a33a08b9600a8481548110151561088b57fe5b9060005260206000200160009054906101000a900473ffffffffffffffffffffffffffffffffffffffff166040518263ffffffff167c01000000000000000000000000000000000000000000000000000000000281526004016108ee9190611b0d565b602060405180830381600087803b15801561090857600080fd5b505af115801561091c573d6000803e3d6000fd5b505050506040513d601f19601f820116820180604052506109409190810190611679565b90508060640360086000600a8581548110151561095957fe5b9060005260206000200160009054906101000a900473ffffffffffffffffffffffffffffffffffffffff1673ffffffffffffffffffffffffffffffffffffffff1673ffffffffffffffffffffffffffffffffffffffff16815260200190815260200160002054028401935080830192508180600101925050610831565b82600a8054905060640203848115156109eb57fe5b059450846005819055506002600760006101000a81548160ff02191690836003811115610a1457fe5b02179055505050505050565b3273ffffffffffffffffffffffffffffffffffffffff163373ffffffffffffffffffffffffffffffffffffffff1614151515610a91576040517f08c379a0000000000000000000000000000000000000000000000000000000008152600401610a8890611c9c565b60405180910390fd5b60016003811115610a9e57fe5b600760009054906101000a900460ff166003811115610ab957fe5b141515610afb576040517f08c379a0000000000000000000000000000000000000000000000000000000008152600401610af290611c7c565b60405180910390fd5b60001515600960003373ffffffffffffffffffffffffffffffffffffffff1673ffffffffffffffffffffffffffffffffffffffff16815260200190815260200160002060009054906101000a900460ff1615151415610cbc576001600960003373ffffffffffffffffffffffffffffffffffffffff1673ffffffffffffffffffffffffffffffffffffffff16815260200190815260200160002060006101000a81548160ff021916908315150217905550600a3390806001815401808255809150509060018203906000526020600020016000909192909190916101000a81548173ffffffffffffffffffffffffffffffffffffffff021916908373ffffffffffffffffffffffffffffffffffffffff16021790555050600160009054906101000a900473ffffffffffffffffffffffffffffffffffffffff1673ffffffffffffffffffffffffffffffffffffffff1663a6829934336040518263ffffffff167c0100000000000000000000000000000000000000000000000000000000028152600401610c899190611b0d565b600060405180830381600087803b158015610ca357600080fd5b505af1158015610cb7573d6000803e3d6000fd5b505050505b80600860003373ffffffffffffffffffffffffffffffffffffffff1673ffffffffffffffffffffffffffffffffffffffff168152602001908152602001600020819055507f47650289511cf2cfb9b8b559f6e750022263d3a2db072b47698d32df3ac0b80533604051610d2f9190611b51565b60405180910390a150565b3273ffffffffffffffffffffffffffffffffffffffff163373ffffffffffffffffffffffffffffffffffffffff16141515610daa576040517f08c379a0000000000000000000000000000000000000000000000000000000008152600401610da190611cdc565b60405180910390fd5b60026003811115610db757fe5b600760009054906101000a900460ff166003811115610dd257fe5b141515610e14576040517f08c379a0000000000000000000000000000000000000000000000000000000008152600401610e0b90611d3c565b60405180910390fd5b6003600760006101000a81548160ff02191690836003811115610e3357fe5b02179055507fd084c6ae9c7d3dcbaf7ac844e5d1150bc12c7d070a3ffb34cd54ca01a03c1364604051610e6590611cfc565b60405180910390a1565b6000809054906101000a900473ffffffffffffffffffffffffffffffffffffffff1681565b600080610ee3600860008573ffffffffffffffffffffffffffffffffffffffff1673ffffffffffffffffffffffffffffffffffffffff1681526020019081526020016000205460065403611293565b9050606460065482811515610ef457fe5b0502915050919050565b60608060606000806000600260036004600554600654600760009054906101000a900460ff166003811115610f2f57fe5b858054600181600116156101000203166002900480601f016020809104026020016040519081016040528092919081815260200182805460018160011615610100020316600290048015610fc45780601f10610f9957610100808354040283529160200191610fc4565b820191906000526020600020905b815481529060010190602001808311610fa757829003601f168201915b50505050509550848054600181600116156101000203166002900480601f0160208091040260200160405190810160405280929190818152602001828054600181600116156101000203166002900480156110605780601f1061103557610100808354040283529160200191611060565b820191906000526020600020905b81548152906001019060200180831161104357829003601f168201915b5050505050945083805480602002602001604051908101604052809291908181526020016000905b82821015611144578382906000526020600020018054600181600116156101000203166002900480601f0160208091040260200160405190810160405280929190818152602001828054600181600116156101000203166002900480156111305780601f1061110557610100808354040283529160200191611130565b820191906000526020600020905b81548152906001019060200180831161111357829003601f168201915b505050505081526020019060010190611088565b505050509350955095509550955095509550909192939495565b3273ffffffffffffffffffffffffffffffffffffffff163373ffffffffffffffffffffffffffffffffffffffff161415156111ce576040517f08c379a00000000000000000000000000000000000000000000000000000000081526004016111c590611cdc565b60405180910390fd5b600060038111156111db57fe5b600760009054906101000a900460ff1660038111156111f657fe5b141515611238576040517f08c379a000000000000000000000000000000000000000000000000000000000815260040161122f90611cbc565b60405180910390fd5b6001600760006101000a81548160ff0219169083600381111561125757fe5b02179055507fd084c6ae9c7d3dcbaf7ac844e5d1150bc12c7d070a3ffb34cd54ca01a03c136460405161128990611d1c565b60405180910390a1565b6000808212156112c7577fffffffffffffffffffffffffffffffffffffffffffffffffffffffffffffffff820290506112cb565b8190505b919050565b828054600181600116156101000203166002900490600052602060002090601f016020900481019282601f1061131157805160ff191683800117855561133f565b8280016001018555821561133f579182015b8281111561133e578251825591602001919060010190611323565b5b50905061134c91906113b0565b5090565b82805482825590600052602060002090810192821561139f579160200282015b8281111561139e57825182908051906020019061138e9291906113d5565b5091602001919060010190611370565b5b5090506113ac9190611455565b5090565b6113d291905b808211156113ce5760008160009055506001016113b6565b5090565b90565b828054600181600116156101000203166002900490600052602060002090601f016020900481019282601f1061141657805160ff1916838001178555611444565b82800160010185558215611444579182015b82811115611443578251825591602001919060010190611428565b5b50905061145191906113b0565b5090565b61147e91905b8082111561147a57600081816114719190611481565b5060010161145b565b5090565b90565b50805460018160011615610100020316600290046000825580601f106114a757506114c6565b601f0160209004906000526020600020908101906114c591906113b0565b5b50565b60006114d58235611ebd565b905092915050565b600082601f83011215156114f057600080fd5b81356115036114fe82611da9565b611d7c565b9150818183526020840193506020810190508360005b83811015611549578135860161152f888261157b565b845260208401935060208301925050600181019050611519565b5050505092915050565b600061155f8235611edd565b905092915050565b60006115738251611edd565b905092915050565b600082601f830112151561158e57600080fd5b81356115a161159c82611dd1565b611d7c565b915080825260208301602083018583830111156115bd57600080fd5b6115c8838284611ee7565b50505092915050565b600082601f83011215156115e457600080fd5b81356115f76115f282611dfd565b611d7c565b9150808252602083016020830185838301111561161357600080fd5b61161e838284611ee7565b50505092915050565b60006020828403121561163957600080fd5b6000611647848285016114c9565b91505092915050565b60006020828403121561166257600080fd5b600061167084828501611553565b91505092915050565b60006020828403121561168b57600080fd5b600061169984828501611567565b91505092915050565b6000806000606084860312156116b757600080fd5b600084013567ffffffffffffffff8111156116d157600080fd5b6116dd868287016115d1565b935050602084013567ffffffffffffffff8111156116fa57600080fd5b611706868287016115d1565b925050604084013567ffffffffffffffff81111561172357600080fd5b61172f868287016114dd565b9150509250925092565b61174281611e89565b82525050565b600061175382611e43565b80845260208401935061176583611e29565b60005b828110156117975761177b868351611739565b61178482611e6f565b9150602086019550600181019050611768565b50849250505092915050565b60006117ae82611e4e565b808452602084019350836020820285016117c785611e36565b60005b848110156118005783830388526117e2838351611856565b92506117ed82611e7c565b91506020880197506001810190506117ca565b508196508694505050505092915050565b61181a81611ea9565b82525050565b600061182b82611e64565b80845261183f816020860160208601611ef6565b61184881611f29565b602085010191505092915050565b600061186182611e59565b808452611875816020860160208601611ef6565b61187e81611f29565b602085010191505092915050565b6000601a82527f53657373696f6e206973206e6f7420696e2070726f67726573730000000000006020830152604082019050919050565b6000602b82527f546869732066756e6374696f6e206f6e6c79207061727469636970616e74206360208301527f616e2065786563757465210000000000000000000000000000000000000000006040830152606082019050919050565b6000601782527f5570646174652073657373696f6e2073756363657373210000000000000000006020830152604082019050919050565b6000601e82527f53657373696f6e20737461747573206d757374206265204352454154454400006020830152604082019050919050565b6000602582527f546869732066756e6374696f6e206f6e6c792061646d696e2063616e2065786560208301527f63757465210000000000000000000000000000000000000000000000000000006040830152606082019050919050565b6000601d82527f5570646174652073657373696f6e2073746174757320746f2053544f500000006020830152604082019050919050565b6000602082527f5570646174652073657373696f6e2073746174757320746f2050524943494e476020830152604082019050919050565b6000601082527f50726963696e67207375636365737321000000000000000000000000000000006020830152604082019050919050565b6000601c82527f53657373696f6e20737461747573206d75737420626520434c4f5345000000006020830152604082019050919050565b6000601b82527f46696e616c207072696365206d757374207365742076616c75652100000000006020830152604082019050919050565b611b0781611eb3565b82525050565b6000602082019050611b226000830184611739565b92915050565b6000604082019050611b3d6000830185611739565b611b4a6020830184611811565b9392505050565b6000604082019050611b666000830184611739565b8181036020830152611b7781611a59565b905092915050565b60006020820190508181036000830152611b998184611748565b905092915050565b6000602082019050611bb66000830184611811565b92915050565b600060c0820190508181036000830152611bd68189611820565b90508181036020830152611bea8188611820565b90508181036040830152611bfe81876117a3565b9050611c0d6060830186611afe565b611c1a6080830185611811565b611c2760a0830184611afe565b979650505050505050565b60006060820190508181036000830152611c4c8185611820565b90508181036020830152611c608184611820565b90508181036040830152611c7381611920565b90509392505050565b60006020820190508181036000830152611c958161188c565b9050919050565b60006020820190508181036000830152611cb5816118c3565b9050919050565b60006020820190508181036000830152611cd581611957565b9050919050565b60006020820190508181036000830152611cf58161198e565b9050919050565b60006020820190508181036000830152611d15816119eb565b9050919050565b60006020820190508181036000830152611d3581611a22565b9050919050565b60006020820190508181036000830152611d5581611a90565b9050919050565b60006020820190508181036000830152611d7581611ac7565b9050919050565b6000604051905081810181811067ffffffffffffffff82111715611d9f57600080fd5b8060405250919050565b600067ffffffffffffffff821115611dc057600080fd5b602082029050602081019050919050565b600067ffffffffffffffff821115611de857600080fd5b601f19601f8301169050602081019050919050565b600067ffffffffffffffff821115611e1457600080fd5b601f19601f8301169050602081019050919050565b6000602082019050919050565b6000602082019050919050565b600081519050919050565b600081519050919050565b600081519050919050565b600081519050919050565b6000602082019050919050565b6000602082019050919050565b600073ffffffffffffffffffffffffffffffffffffffff82169050919050565b6000819050919050565b6000819050919050565b600073ffffffffffffffffffffffffffffffffffffffff82169050919050565b6000819050919050565b82818337600083830152505050565b60005b83811015611f14578082015181840152602081019050611ef9565b83811115611f23576000848401525b50505050565b6000601f19601f83011690509190505600a265627a7a72305820a317fe247d49d9326797d54aa383a1d613784e5360155652f7252b03a5b0a6006c6578706572696d656e74616cf50037",
  "source": "// SPDX-License-Identifier: MIT\npragma solidity ^0.4.26;\npragma experimental ABIEncoderV2;\nimport \"./lib/UtilityLibrary.sol\";\n\n// Interface of Main contract to call from Session contract\ninterface IMain {\n    function addSession(address session) external;\n    function getAdmin() external view returns (address);\n    function getDeviation(address _account) external view returns (int);\n    function setDeviation(address _account, int _deviation) external;\n    function incrementNumberOfSession(address _account) external;\n    function getNumberOfSession(address _account) external view returns(int);\n}\n\ncontract Session {\n    // Variable to hold Main Contract Address when create new Session Contract\n    address public mainContract;\n    // Variable to hold Main Contract instance to call functions from Main\n    IMain MainContract;\n\n    // TODO: Variables\n    enum SESSION_STATUS {CREATED, PRICING, CLOSE, STOP}\n\n    string private productName;\n    string private description;\n    string[] private images;\n    uint private suggestPrice;\n    int private finalPrice;\n    SESSION_STATUS private status;\n    mapping(address => int) private mapParticipantPricings;\n    mapping(address => bool) private isParticipantPricingExists;\n    address[] private participantPricings;\n\n    using UtilityLibrary for int;\n\n    constructor(\n        address _mainContract,\n        string memory _productName,\n        string memory _description,\n        string[] memory _images\n    ) public {\n        // Get Main Contract instance\n        mainContract = _mainContract;\n        MainContract = IMain(_mainContract);\n\n        // TODO: Init Session contract\n        productName = _productName;\n        description = _description;\n        images = _images;\n        suggestPrice = 0;\n        finalPrice = 0;\n        status = SESSION_STATUS.CREATED;\n\n        // Call Main Contract function to link current contract.\n        MainContract.addSession(address(this));\n        emit CreateSession(_productName, _description, \"Create session success!\");\n    }\n\n    //Update session.\n    function updateSession(string memory _productName, string memory _description, string[] memory _images) public onlyAdmin {\n        productName = _productName;\n        description = _description;\n        images = _images;\n        emit UpdateSession(_productName, _description, \"Update session success!\");\n    }\n\n    // TODO: Functions\n    // ..CREATED.. -> PRICING -> CLOSE -> STOP\n    // Update session status to PRICING.\n    function startSession() public onlyAdmin {\n        require(status == SESSION_STATUS.CREATED, \"Session status must be CREATED\");\n        status = SESSION_STATUS.PRICING;\n        emit UpdateSessionStatus(\"Update session status to PRICING\");\n    }\n\n    // Update session status to CLOSE.\n    // function closeSession() public onlyAdmin {\n    //     require(status == SESSION_STATUS.PRICING, \"Session status must be PRICING\");\n    //     status = SESSION_STATUS.CLOSE;\n    //     emit UpdateSessionStatus(\"Update session status to CLOSE\");\n    // }\n\n    function getParticipantPricings() public view returns (address[] memory) {\n        return participantPricings;\n    }\n\n    // function getParticipantPricings() public view returns (address[]) {\n    //     address[] arr = [];\n\n    //     for (uint i = 0; i < participantPricings.length; i++) {\n    //         arr.push(participantPricings[i]);\n    //     }\n\n    //     return arr;\n    // }\n\n    // Update session status to STOP.\n    function stopSession() public onlyAdmin {\n        require(status == SESSION_STATUS.CLOSE, \"Session status must be CLOSE\");\n        status = SESSION_STATUS.STOP;\n        emit UpdateSessionStatus(\"Update session status to STOP\");\n    }\n\n    // Participant pricing.\n    function pricing(int _price) public onlyParticipant onlyInProgress {\n        if (isParticipantPricingExists[msg.sender] == false) {\n            isParticipantPricingExists[msg.sender] = true;\n            participantPricings.push(msg.sender);\n            MainContract.incrementNumberOfSession(msg.sender);\n        }\n\n        mapParticipantPricings[msg.sender] = _price;\n        emit Pricing(msg.sender, \"Pricing success!\");\n    }\n\n    // Get session detail.\n    function getSessionDetail() public view returns(string memory, string memory, string[] memory, uint, int, uint) {\n        return (productName, description, images, suggestPrice, finalPrice, uint(status));\n    }\n\n    // Calculate suggest price and set status to Close.\n    function calculateSuggestPriceAndCloseSession() public onlyAdmin onlyInProgress {\n        int _suggestPrice = 0;\n        int _sumOfPriceWithDeviation = 0;\n        int _sumOfDeviation = 0;\n\n        for (uint i = 0; i < participantPricings.length; i++) {\n            int _deviation = MainContract.getDeviation(participantPricings[i]);\n            _sumOfPriceWithDeviation += mapParticipantPricings[participantPricings[i]] * (100 - _deviation);\n            _sumOfDeviation += _deviation;\n        }\n\n        _suggestPrice = _sumOfPriceWithDeviation / ((100 * int(participantPricings.length)) - _sumOfDeviation);\n        suggestPrice = uint(_suggestPrice);\n        status = SESSION_STATUS.CLOSE;\n    }\n\n    // Calculate deviation in session.\n    function calculateDeviationInSession(address _account) public view returns (int) {\n        int _subDeviation = (finalPrice - mapParticipantPricings[_account]).abs();\n\n        return (_subDeviation / finalPrice) * 100;\n    }\n\n    // Calculate deviation.\n    function calculateDeviationLatestAndStop() public onlyAdmin onlyFinalPriceMustSetValue {\n        for (uint i = 0; i < participantPricings.length; i++) {\n            address _account = participantPricings[i];\n            int _deviation = MainContract.getDeviation(_account);\n            int _subDeviation = (_deviation * MainContract.getNumberOfSession(_account)) + calculateDeviationInSession(_account);\n            int _newDeviation = _subDeviation / (_deviation + 1);\n            MainContract.setDeviation(_account, _newDeviation);\n        }\n\n        status = SESSION_STATUS.STOP;\n    }\n\n    // Modify only status is PRICING.\n    modifier onlyInProgress {\n        require(status == SESSION_STATUS.PRICING, \"Session is not in progress\");\n        _;\n    }\n\n    // Modify only status is CLOSE.\n    modifier onlyClose {\n        require(status == SESSION_STATUS.CLOSE, \"Session is not in progress\");\n        _;\n    }\n\n    // Modify to check only admin.\n    modifier onlyAdmin() {\n        require(msg.sender == tx.origin, \"This function only admin can execute!\");\n        _;\n    }\n\n    // Modify to check only participant.\n    modifier onlyParticipant() {\n        // TODO: viet lai modifier nay\n        require(msg.sender != tx.origin, \"This function only participant can execute!\");\n        _;\n    }\n\n    // Modify finalPrice must set value.\n    modifier onlyFinalPriceMustSetValue() {\n        require(finalPrice > 0, \"Final price must set value!\");\n        _;\n    }\n\n    // Event create session.\n    event CreateSession(string _productName, string _description, string _msg);\n\n    // Event update session.\n    event UpdateSession(string _productName, string _description, string _msg);\n\n    // Event update session status.\n    event UpdateSessionStatus(string _msg);\n\n    // Event pricing.\n    event Pricing(address _account, string _msg);\n}\n",
  "sourcePath": "/Users/damthe/study/blockchain/fx15127-final-project/truffle/contracts/Session.sol",
  "compiler": {
    "name": "solc",
    "version": "0.4.26+commit.4563c3fc.Emscripten.clang"
  },
  "schemaVersion": "3.4.10",
  "updatedAt": "2023-06-23T05:05:47.364Z",
  "devdoc": {
    "methods": {}
  },
  "userdoc": {
    "methods": {}
  }
}