{
  "contractName": "Session",
  "abi": [
    {
      "constant": true,
      "inputs": [],
      "name": "mainContract",
      "outputs": [
        {
          "name": "",
          "type": "address"
        }
      ],
      "payable": false,
      "stateMutability": "view",
      "type": "function"
    },
    {
      "inputs": [
        {
          "name": "_mainContract",
          "type": "address"
        },
        {
          "name": "_productName",
          "type": "string"
        },
        {
          "name": "_description",
          "type": "string"
        },
        {
          "name": "_images",
          "type": "string[]"
        }
      ],
      "payable": false,
      "stateMutability": "nonpayable",
      "type": "constructor"
    },
    {
      "anonymous": false,
      "inputs": [
        {
          "indexed": false,
          "name": "_productName",
          "type": "string"
        },
        {
          "indexed": false,
          "name": "_description",
          "type": "string"
        },
        {
          "indexed": false,
          "name": "_msg",
          "type": "string"
        }
      ],
      "name": "CreateSession",
      "type": "event"
    },
    {
      "anonymous": false,
      "inputs": [
        {
          "indexed": false,
          "name": "_productName",
          "type": "string"
        },
        {
          "indexed": false,
          "name": "_description",
          "type": "string"
        },
        {
          "indexed": false,
          "name": "_msg",
          "type": "string"
        }
      ],
      "name": "UpdateSession",
      "type": "event"
    },
    {
      "anonymous": false,
      "inputs": [
        {
          "indexed": false,
          "name": "_msg",
          "type": "string"
        }
      ],
      "name": "UpdateSessionStatus",
      "type": "event"
    },
    {
      "anonymous": false,
      "inputs": [
        {
          "indexed": false,
          "name": "_account",
          "type": "address"
        },
        {
          "indexed": false,
          "name": "_msg",
          "type": "string"
        }
      ],
      "name": "Pricing",
      "type": "event"
    },
    {
      "constant": false,
      "inputs": [
        {
          "name": "_productName",
          "type": "string"
        },
        {
          "name": "_description",
          "type": "string"
        },
        {
          "name": "_images",
          "type": "string[]"
        }
      ],
      "name": "updateSession",
      "outputs": [],
      "payable": false,
      "stateMutability": "nonpayable",
      "type": "function"
    },
    {
      "constant": true,
      "inputs": [],
      "name": "getSessionDetail",
      "outputs": [
        {
          "name": "",
          "type": "string"
        },
        {
          "name": "",
          "type": "string"
        },
        {
          "name": "",
          "type": "string[]"
        },
        {
          "name": "",
          "type": "uint256"
        },
        {
          "name": "",
          "type": "int256"
        },
        {
          "name": "",
          "type": "uint256"
        }
      ],
      "payable": false,
      "stateMutability": "view",
      "type": "function"
    },
    {
      "constant": false,
      "inputs": [],
      "name": "startSession",
      "outputs": [],
      "payable": false,
      "stateMutability": "nonpayable",
      "type": "function"
    },
    {
      "constant": false,
      "inputs": [
        {
          "name": "_price",
          "type": "int256"
        }
      ],
      "name": "pricing",
      "outputs": [],
      "payable": false,
      "stateMutability": "nonpayable",
      "type": "function"
    },
    {
      "constant": true,
      "inputs": [],
      "name": "getParticipantPricings",
      "outputs": [
        {
          "name": "",
          "type": "address[]"
        }
      ],
      "payable": false,
      "stateMutability": "view",
      "type": "function"
    },
    {
      "constant": true,
      "inputs": [
        {
          "name": "_paticipant",
          "type": "address"
        }
      ],
      "name": "getParticipantPricingExists",
      "outputs": [
        {
          "name": "",
          "type": "bool"
        }
      ],
      "payable": false,
      "stateMutability": "view",
      "type": "function"
    },
    {
      "constant": false,
      "inputs": [
        {
          "name": "_price",
          "type": "int256"
        }
      ],
      "name": "stopSession",
      "outputs": [],
      "payable": false,
      "stateMutability": "nonpayable",
      "type": "function"
    },
    {
      "constant": true,
      "inputs": [],
      "name": "getPricingByParticipant",
      "outputs": [
        {
          "name": "",
          "type": "int256"
        }
      ],
      "payable": false,
      "stateMutability": "view",
      "type": "function"
    },
    {
      "constant": true,
      "inputs": [],
      "name": "getAllPrices",
      "outputs": [
        {
          "name": "",
          "type": "int256[]"
        }
      ],
      "payable": false,
      "stateMutability": "view",
      "type": "function"
    }
  ],
  "bytecode": "0x60806040523480156200001157600080fd5b5060405162002c2138038062002c218339810180604052620000379190810190620006c3565b836000806101000a81548173ffffffffffffffffffffffffffffffffffffffff021916908373ffffffffffffffffffffffffffffffffffffffff16021790555083600160006101000a81548173ffffffffffffffffffffffffffffffffffffffff021916908373ffffffffffffffffffffffffffffffffffffffff1602179055508260029080519060200190620000d09291906200032c565b508160039080519060200190620000e99291906200032c565b50806004908051906020019062000102929190620003b3565b50600060058190555060006006819055506000600760006101000a81548160ff021916908360028111156200013357fe5b0217905550600160009054906101000a900473ffffffffffffffffffffffffffffffffffffffff1673ffffffffffffffffffffffffffffffffffffffff16636e9960c36040518163ffffffff167c0100000000000000000000000000000000000000000000000000000000028152600401602060405180830381600087803b158015620001bf57600080fd5b505af1158015620001d4573d6000803e3d6000fd5b505050506040513d601f19601f82011682018060405250620001fa919081019062000697565b600b60006101000a81548173ffffffffffffffffffffffffffffffffffffffff021916908373ffffffffffffffffffffffffffffffffffffffff160217905550600160009054906101000a900473ffffffffffffffffffffffffffffffffffffffff1673ffffffffffffffffffffffffffffffffffffffff1663f390dd86306040518263ffffffff167c0100000000000000000000000000000000000000000000000000000000028152600401620002b39190620007fe565b600060405180830381600087803b158015620002ce57600080fd5b505af1158015620002e3573d6000803e3d6000fd5b505050507f9fe7cb314c08d72e270589aeb0470bb4335133b90e7dfd6f84ed11661496dd3783836040516200031a9291906200081b565b60405180910390a150505050620009ae565b828054600181600116156101000203166002900490600052602060002090601f016020900481019282601f106200036f57805160ff1916838001178555620003a0565b82800160010185558215620003a0579182015b828111156200039f57825182559160200191906001019062000382565b5b509050620003af91906200041a565b5090565b82805482825590600052602060002090810192821562000407579160200282015b8281111562000406578251829080519060200190620003f592919062000442565b5091602001919060010190620003d4565b5b509050620004169190620004c9565b5090565b6200043f91905b808211156200043b57600081600090555060010162000421565b5090565b90565b828054600181600116156101000203166002900490600052602060002090601f016020900481019282601f106200048557805160ff1916838001178555620004b6565b82800160010185558215620004b6579182015b82811115620004b557825182559160200191906001019062000498565b5b509050620004c591906200041a565b5090565b620004f791905b80821115620004f35760008181620004e99190620004fa565b50600101620004d0565b5090565b90565b50805460018160011615610100020316600290046000825580601f1062000522575062000543565b601f0160209004906000526020600020908101906200054291906200041a565b5b50565b600062000554825162000947565b905092915050565b600082601f83011215156200057057600080fd5b815162000587620005818262000899565b6200086b565b9150818183526020840193506020810190508360005b83811015620005d15781518601620005b68882620005db565b8452602084019350602083019250506001810190506200059d565b5050505092915050565b600082601f8301121515620005ef57600080fd5b8151620006066200060082620008c2565b6200086b565b915080825260208301602083018583830111156200062357600080fd5b6200063083828462000967565b50505092915050565b600082601f83011215156200064d57600080fd5b8151620006646200065e82620008ef565b6200086b565b915080825260208301602083018583830111156200068157600080fd5b6200068e83828462000967565b50505092915050565b600060208284031215620006aa57600080fd5b6000620006ba8482850162000546565b91505092915050565b60008060008060808587031215620006da57600080fd5b6000620006ea8782880162000546565b945050602085015167ffffffffffffffff8111156200070857600080fd5b620007168782880162000639565b935050604085015167ffffffffffffffff8111156200073457600080fd5b620007428782880162000639565b925050606085015167ffffffffffffffff8111156200076057600080fd5b6200076e878288016200055c565b91505092959194509250565b620007858162000927565b82525050565b600062000798826200091c565b808452620007ae81602086016020860162000967565b620007b9816200099d565b602085010191505092915050565b6000601782527f4372656174652073657373696f6e2073756363657373210000000000000000006020830152604082019050919050565b60006020820190506200081560008301846200077a565b92915050565b600060608201905081810360008301526200083781856200078b565b905081810360208301526200084d81846200078b565b905081810360408301526200086281620007c7565b90509392505050565b6000604051905081810181811067ffffffffffffffff821117156200088f57600080fd5b8060405250919050565b600067ffffffffffffffff821115620008b157600080fd5b602082029050602081019050919050565b600067ffffffffffffffff821115620008da57600080fd5b601f19601f8301169050602081019050919050565b600067ffffffffffffffff8211156200090757600080fd5b601f19601f8301169050602081019050919050565b600081519050919050565b600073ffffffffffffffffffffffffffffffffffffffff82169050919050565b600073ffffffffffffffffffffffffffffffffffffffff82169050919050565b60005b83811015620009875780820151818401526020810190506200096a565b8381111562000997576000848401525b50505050565b6000601f19601f8301169050919050565b61226380620009be6000396000f3006080604052600436106100a4576000357c0100000000000000000000000000000000000000000000000000000000900463ffffffff1680630c640a10146100a95780630e973501146100d45780632e639ee5146100fd578063445df9d6146101285780636c38e4c6146101535780637542040f14610190578063893e79ba146101b9578063d270e7ab146101e2578063f8cb00bf1461020d578063fe0ae1651461023d575b600080fd5b3480156100b557600080fd5b506100be610254565b6040516100cb9190611e9f565b60405180910390f35b3480156100e057600080fd5b506100fb60048036036100f69190810190611933565b610391565b005b34801561010957600080fd5b506101126104a6565b60405161011f9190611e40565b60405180910390f35b34801561013457600080fd5b5061013d610534565b60405161014a9190611e62565b60405180910390f35b34801561015f57600080fd5b5061017a600480360361017591908101906118b8565b6106c7565b6040516101879190611e84565b60405180910390f35b34801561019c57600080fd5b506101b760048036036101b291908101906118e1565b61071d565b005b3480156101c557600080fd5b506101e060048036036101db91908101906118e1565b61086c565b005b3480156101ee57600080fd5b506101f7610aff565b6040516102049190611dc0565b60405180910390f35b34801561021957600080fd5b50610222610b24565b60405161023496959493929190611eba565b60405180910390f35b34801561024957600080fd5b50610252610d84565b005b6000600b60009054906101000a900473ffffffffffffffffffffffffffffffffffffffff1673ffffffffffffffffffffffffffffffffffffffff163373ffffffffffffffffffffffffffffffffffffffff16141515156102e9576040517f08c379a00000000000000000000000000000000000000000000000000000000081526004016102e090611f9a565b60405180910390fd5b60011515600960003373ffffffffffffffffffffffffffffffffffffffff1673ffffffffffffffffffffffffffffffffffffffff16815260200190815260200160002060009054906101000a900460ff161515141561038957600860003373ffffffffffffffffffffffffffffffffffffffff1673ffffffffffffffffffffffffffffffffffffffff16815260200190815260200160002054905061038e565b600090505b90565b600b60009054906101000a900473ffffffffffffffffffffffffffffffffffffffff1673ffffffffffffffffffffffffffffffffffffffff163373ffffffffffffffffffffffffffffffffffffffff16141515610423576040517f08c379a000000000000000000000000000000000000000000000000000000000815260040161041a90611fda565b60405180910390fd5b8260029080519060200190610439929190611561565b508160039080519060200190610450929190611561565b5080600490805190602001906104679291906115e1565b507f2a5d6d5b2dec1b940dec7f561cf0b8cd2965d265ed7c371349e1d15979b075ab8383604051610499929190611f30565b60405180910390a1505050565b6060600a80548060200260200160405190810160405280929190818152602001828054801561052a57602002820191906000526020600020905b8160009054906101000a900473ffffffffffffffffffffffffffffffffffffffff1673ffffffffffffffffffffffffffffffffffffffff16815260200190600101908083116104e0575b5050505050905090565b6060806000600b60009054906101000a900473ffffffffffffffffffffffffffffffffffffffff1673ffffffffffffffffffffffffffffffffffffffff163373ffffffffffffffffffffffffffffffffffffffff161415156105cb576040517f08c379a00000000000000000000000000000000000000000000000000000000081526004016105c290611fda565b60405180910390fd5b600a805490506040519080825280602002602001820160405280156105ff5781602001602082028038833980820191505090505b509150600090505b600a805490508160ff1610156106bf5760086000600a8360ff1681548110151561062d57fe5b9060005260206000200160009054906101000a900473ffffffffffffffffffffffffffffffffffffffff1673ffffffffffffffffffffffffffffffffffffffff1673ffffffffffffffffffffffffffffffffffffffff16815260200190815260200160002054828260ff168151811015156106a457fe5b90602001906020020181815250508080600101915050610607565b819250505090565b6000600960008373ffffffffffffffffffffffffffffffffffffffff1673ffffffffffffffffffffffffffffffffffffffff16815260200190815260200160002060009054906101000a900460ff169050919050565b600b60009054906101000a900473ffffffffffffffffffffffffffffffffffffffff1673ffffffffffffffffffffffffffffffffffffffff163373ffffffffffffffffffffffffffffffffffffffff161415156107af576040517f08c379a00000000000000000000000000000000000000000000000000000000081526004016107a690611fda565b60405180910390fd5b600160028111156107bc57fe5b600760009054906101000a900460ff1660028111156107d757fe5b141515610819576040517f08c379a000000000000000000000000000000000000000000000000000000000815260040161081090611f7a565b60405180910390fd5b6000600a80549050141561085757806006819055506002600760006101000a81548160ff0219169083600281111561084d57fe5b0217905550610869565b61086081610edb565b6108686110c6565b5b50565b600b60009054906101000a900473ffffffffffffffffffffffffffffffffffffffff1673ffffffffffffffffffffffffffffffffffffffff163373ffffffffffffffffffffffffffffffffffffffff16141515156108ff576040517f08c379a00000000000000000000000000000000000000000000000000000000081526004016108f690611f9a565b60405180910390fd5b6001600281111561090c57fe5b600760009054906101000a900460ff16600281111561092757fe5b141515610969576040517f08c379a000000000000000000000000000000000000000000000000000000000815260040161096090611f7a565b60405180910390fd5b60001515600960003373ffffffffffffffffffffffffffffffffffffffff1673ffffffffffffffffffffffffffffffffffffffff16815260200190815260200160002060009054906101000a900460ff1615151415610a81576001600960003373ffffffffffffffffffffffffffffffffffffffff1673ffffffffffffffffffffffffffffffffffffffff16815260200190815260200160002060006101000a81548160ff021916908315150217905550600a3390806001815401808255809150509060018203906000526020600020016000909192909190916101000a81548173ffffffffffffffffffffffffffffffffffffffff021916908373ffffffffffffffffffffffffffffffffffffffff160217905550505b80600860003373ffffffffffffffffffffffffffffffffffffffff1673ffffffffffffffffffffffffffffffffffffffff168152602001908152602001600020819055507f47650289511cf2cfb9b8b559f6e750022263d3a2db072b47698d32df3ac0b80533604051610af49190611e12565b60405180910390a150565b6000809054906101000a900473ffffffffffffffffffffffffffffffffffffffff1681565b60608060606000806000600260036004600554600654600760009054906101000a900460ff166002811115610b5557fe5b858054600181600116156101000203166002900480601f016020809104026020016040519081016040528092919081815260200182805460018160011615610100020316600290048015610bea5780601f10610bbf57610100808354040283529160200191610bea565b820191906000526020600020905b815481529060010190602001808311610bcd57829003601f168201915b50505050509550848054600181600116156101000203166002900480601f016020809104026020016040519081016040528092919081815260200182805460018160011615610100020316600290048015610c865780601f10610c5b57610100808354040283529160200191610c86565b820191906000526020600020905b815481529060010190602001808311610c6957829003601f168201915b5050505050945083805480602002602001604051908101604052809291908181526020016000905b82821015610d6a578382906000526020600020018054600181600116156101000203166002900480601f016020809104026020016040519081016040528092919081815260200182805460018160011615610100020316600290048015610d565780601f10610d2b57610100808354040283529160200191610d56565b820191906000526020600020905b815481529060010190602001808311610d3957829003601f168201915b505050505081526020019060010190610cae565b505050509350955095509550955095509550909192939495565b600b60009054906101000a900473ffffffffffffffffffffffffffffffffffffffff1673ffffffffffffffffffffffffffffffffffffffff163373ffffffffffffffffffffffffffffffffffffffff16141515610e16576040517f08c379a0000000000000000000000000000000000000000000000000000000008152600401610e0d90611fda565b60405180910390fd5b60006002811115610e2357fe5b600760009054906101000a900460ff166002811115610e3e57fe5b141515610e80576040517f08c379a0000000000000000000000000000000000000000000000000000000008152600401610e7790611fba565b60405180910390fd5b6001600760006101000a81548160ff02191690836002811115610e9f57fe5b02179055507fd084c6ae9c7d3dcbaf7ac844e5d1150bc12c7d070a3ffb34cd54ca01a03c1364604051610ed190611ffa565b60405180910390a1565b60008060008060008094506000935060009250600091505b600a8054905082101561109857600160009054906101000a900473ffffffffffffffffffffffffffffffffffffffff1673ffffffffffffffffffffffffffffffffffffffff1663a33a08b9600a84815481101515610f4d57fe5b9060005260206000200160009054906101000a900473ffffffffffffffffffffffffffffffffffffffff166040518263ffffffff167c0100000000000000000000000000000000000000000000000000000000028152600401610fb09190611dc0565b602060405180830381600087803b158015610fca57600080fd5b505af1158015610fde573d6000803e3d6000fd5b505050506040513d601f19601f82011682018060405250611002919081019061190a565b90508060640360086000600a8581548110151561101b57fe5b9060005260206000200160009054906101000a900473ffffffffffffffffffffffffffffffffffffffff1673ffffffffffffffffffffffffffffffffffffffff1673ffffffffffffffffffffffffffffffffffffffff16815260200190815260200160002054028401935080830192508180600101925050610ef3565b82600a8054905060640203848115156110ad57fe5b0594508460058190555085600681905550505050505050565b600080600080600080600095505b600a8054905086101561143657600a868154811015156110f057fe5b9060005260206000200160009054906101000a900473ffffffffffffffffffffffffffffffffffffffff169450600160009054906101000a900473ffffffffffffffffffffffffffffffffffffffff1673ffffffffffffffffffffffffffffffffffffffff1663a33a08b9866040518263ffffffff167c01000000000000000000000000000000000000000000000000000000000281526004016111949190611dc0565b602060405180830381600087803b1580156111ae57600080fd5b505af11580156111c2573d6000803e3d6000fd5b505050506040513d601f19601f820116820180604052506111e6919081019061190a565b9350600160009054906101000a900473ffffffffffffffffffffffffffffffffffffffff1673ffffffffffffffffffffffffffffffffffffffff1663be330868866040518263ffffffff167c010000000000000000000000000000000000000000000000000000000002815260040161125f9190611dc0565b602060405180830381600087803b15801561127957600080fd5b505af115801561128d573d6000803e3d6000fd5b505050506040513d601f19601f820116820180604052506112b1919081019061190a565b92506112bc85611497565b83850201915060018301828115156112d057fe5b059050600160009054906101000a900473ffffffffffffffffffffffffffffffffffffffff1673ffffffffffffffffffffffffffffffffffffffff1663f24685943087846040518463ffffffff167c010000000000000000000000000000000000000000000000000000000002815260040161134e93929190611ddb565b600060405180830381600087803b15801561136857600080fd5b505af115801561137c573d6000803e3d6000fd5b50505050600160009054906101000a900473ffffffffffffffffffffffffffffffffffffffff1673ffffffffffffffffffffffffffffffffffffffff1663a6829934866040518263ffffffff167c01000000000000000000000000000000000000000000000000000000000281526004016113f79190611dc0565b600060405180830381600087803b15801561141157600080fd5b505af1158015611425573d6000803e3d6000fd5b5050505085806001019650506110d4565b6002600760006101000a81548160ff0219169083600281111561145557fe5b02179055507fd084c6ae9c7d3dcbaf7ac844e5d1150bc12c7d070a3ffb34cd54ca01a03c13646040516114879061201a565b60405180910390a1505050505050565b60008060006114e8600860008673ffffffffffffffffffffffffffffffffffffffff1673ffffffffffffffffffffffffffffffffffffffff1681526020019081526020016000205460065403611524565b91506064600654670de0b6b3a7640000840281151561150357fe5b05029050670de0b6b3a76400008181151561151a57fe5b0592505050919050565b600080821215611558577fffffffffffffffffffffffffffffffffffffffffffffffffffffffffffffffff8202905061155c565b8190505b919050565b828054600181600116156101000203166002900490600052602060002090601f016020900481019282601f106115a257805160ff19168380011785556115d0565b828001600101855582156115d0579182015b828111156115cf5782518255916020019190600101906115b4565b5b5090506115dd9190611641565b5090565b828054828255906000526020600020908101928215611630579160200282015b8281111561162f57825182908051906020019061161f929190611666565b5091602001919060010190611601565b5b50905061163d91906116e6565b5090565b61166391905b8082111561165f576000816000905550600101611647565b5090565b90565b828054600181600116156101000203166002900490600052602060002090601f016020900481019282601f106116a757805160ff19168380011785556116d5565b828001600101855582156116d5579182015b828111156116d45782518255916020019190600101906116b9565b5b5090506116e29190611641565b5090565b61170f91905b8082111561170b57600081816117029190611712565b506001016116ec565b5090565b90565b50805460018160011615610100020316600290046000825580601f106117385750611757565b601f0160209004906000526020600020908101906117569190611641565b5b50565b600061176682356121ac565b905092915050565b600082601f830112151561178157600080fd5b813561179461178f82612067565b61203a565b9150818183526020840193506020810190508360005b838110156117da57813586016117c0888261180c565b8452602084019350602083019250506001810190506117aa565b5050505092915050565b60006117f082356121cc565b905092915050565b600061180482516121cc565b905092915050565b600082601f830112151561181f57600080fd5b813561183261182d8261208f565b61203a565b9150808252602083016020830185838301111561184e57600080fd5b6118598382846121d6565b50505092915050565b600082601f830112151561187557600080fd5b8135611888611883826120bb565b61203a565b915080825260208301602083018583830111156118a457600080fd5b6118af8382846121d6565b50505092915050565b6000602082840312156118ca57600080fd5b60006118d88482850161175a565b91505092915050565b6000602082840312156118f357600080fd5b6000611901848285016117e4565b91505092915050565b60006020828403121561191c57600080fd5b600061192a848285016117f8565b91505092915050565b60008060006060848603121561194857600080fd5b600084013567ffffffffffffffff81111561196257600080fd5b61196e86828701611862565b935050602084013567ffffffffffffffff81111561198b57600080fd5b61199786828701611862565b925050604084013567ffffffffffffffff8111156119b457600080fd5b6119c08682870161176e565b9150509250925092565b6119d38161216c565b82525050565b60006119e48261210e565b8084526020840193506119f6836120e7565b60005b82811015611a2857611a0c8683516119ca565b611a1582612145565b91506020860195506001810190506119f9565b50849250505092915050565b6000611a3f82612119565b808452602084019350611a51836120f4565b60005b82811015611a8357611a67868351611b0c565b611a7082612152565b9150602086019550600181019050611a54565b50849250505092915050565b6000611a9a82612124565b80845260208401935083602082028501611ab385612101565b60005b84811015611aec578383038852611ace838351611b51565b9250611ad98261215f565b9150602088019750600181019050611ab6565b508196508694505050505092915050565b611b068161218c565b82525050565b611b1581612198565b82525050565b6000611b268261213a565b808452611b3a8160208601602086016121e5565b611b4381612218565b602085010191505092915050565b6000611b5c8261212f565b808452611b708160208601602086016121e5565b611b7981612218565b602085010191505092915050565b6000601a82527f53657373696f6e206973206e6f7420696e2070726f67726573730000000000006020830152604082019050919050565b6000602b82527f546869732066756e6374696f6e206f6e6c79207061727469636970616e74206360208301527f616e2065786563757465210000000000000000000000000000000000000000006040830152606082019050919050565b6000601782527f5570646174652073657373696f6e2073756363657373210000000000000000006020830152604082019050919050565b6000601e82527f53657373696f6e20737461747573206d757374206265204352454154454400006020830152604082019050919050565b6000602582527f546869732066756e6374696f6e206f6e6c792061646d696e2063616e2065786560208301527f63757465210000000000000000000000000000000000000000000000000000006040830152606082019050919050565b6000602082527f5570646174652073657373696f6e2073746174757320746f2050524943494e476020830152604082019050919050565b6000601082527f50726963696e67207375636365737321000000000000000000000000000000006020830152604082019050919050565b6000602b82527f43616c63756c61746520616e64207570646174652073657373696f6e2073746160208301527f74757320746f2053544f500000000000000000000000000000000000000000006040830152606082019050919050565b611dba816121a2565b82525050565b6000602082019050611dd560008301846119ca565b92915050565b6000606082019050611df060008301866119ca565b611dfd60208301856119ca565b611e0a6040830184611b0c565b949350505050565b6000604082019050611e2760008301846119ca565b8181036020830152611e3881611d1d565b905092915050565b60006020820190508181036000830152611e5a81846119d9565b905092915050565b60006020820190508181036000830152611e7c8184611a34565b905092915050565b6000602082019050611e996000830184611afd565b92915050565b6000602082019050611eb46000830184611b0c565b92915050565b600060c0820190508181036000830152611ed48189611b1b565b90508181036020830152611ee88188611b1b565b90508181036040830152611efc8187611a8f565b9050611f0b6060830186611db1565b611f186080830185611b0c565b611f2560a0830184611db1565b979650505050505050565b60006060820190508181036000830152611f4a8185611b1b565b90508181036020830152611f5e8184611b1b565b90508181036040830152611f7181611c1b565b90509392505050565b60006020820190508181036000830152611f9381611b87565b9050919050565b60006020820190508181036000830152611fb381611bbe565b9050919050565b60006020820190508181036000830152611fd381611c52565b9050919050565b60006020820190508181036000830152611ff381611c89565b9050919050565b6000602082019050818103600083015261201381611ce6565b9050919050565b6000602082019050818103600083015261203381611d54565b9050919050565b6000604051905081810181811067ffffffffffffffff8211171561205d57600080fd5b8060405250919050565b600067ffffffffffffffff82111561207e57600080fd5b602082029050602081019050919050565b600067ffffffffffffffff8211156120a657600080fd5b601f19601f8301169050602081019050919050565b600067ffffffffffffffff8211156120d257600080fd5b601f19601f8301169050602081019050919050565b6000602082019050919050565b6000602082019050919050565b6000602082019050919050565b600081519050919050565b600081519050919050565b600081519050919050565b600081519050919050565b600081519050919050565b6000602082019050919050565b6000602082019050919050565b6000602082019050919050565b600073ffffffffffffffffffffffffffffffffffffffff82169050919050565b60008115159050919050565b6000819050919050565b6000819050919050565b600073ffffffffffffffffffffffffffffffffffffffff82169050919050565b6000819050919050565b82818337600083830152505050565b60005b838110156122035780820151818401526020810190506121e8565b83811115612212576000848401525b50505050565b6000601f19601f83011690509190505600a265627a7a72305820cc4c62ead9d75abbb33c9a8efbdd6b961c43df4c8ef3e01d4c02c98a439889596c6578706572696d656e74616cf50037",
  "source": "// SPDX-License-Identifier: MIT\npragma solidity ^0.4.26;\npragma experimental ABIEncoderV2;\nimport \"./lib/UtilityLibrary.sol\";\n\n// Interface of Main contract to call from Session contract\ninterface IMain {\n    function addSession(address session) external;\n    function getAdmin() external view returns (address);\n    function getDeviation(address _account) external view returns (int);\n    function setDeviation(address _session, address _account, int _deviation) external;\n    function incrementNumberOfSession(address _account) external;\n    function getNumberOfSession(address _account) external view returns(int);\n}\n\ncontract Session {\n    // Variable to hold Main Contract Address when create new Session Contract\n    address public mainContract;\n    // Variable to hold Main Contract instance to call functions from Main\n    IMain MainContract;\n\n    // TODO: Variables\n    enum SESSION_STATUS {CREATED, PRICING, STOP}\n\n    string private productName;\n    string private description;\n    string[] private images;\n    uint private suggestPrice;\n    int private finalPrice;\n    SESSION_STATUS private status;\n    mapping(address => int) private mapParticipantPricings;\n    mapping(address => bool) private isParticipantPricingExists;\n    address[] private participantPricings;\n    address private adminAddr;\n\n    using UtilityLibrary for int;\n\n    constructor(\n        address _mainContract,\n        string memory _productName,\n        string memory _description,\n        string[] memory _images\n    ) public {\n        // Get Main Contract instance\n        mainContract = _mainContract;\n        MainContract = IMain(_mainContract);\n\n        // TODO: Init Session contract\n        productName = _productName;\n        description = _description;\n        images = _images;\n        suggestPrice = 0;\n        finalPrice = 0;\n        status = SESSION_STATUS.CREATED;\n        adminAddr = MainContract.getAdmin();\n\n        // Call Main Contract function to link current contract.\n        MainContract.addSession(address(this));\n        emit CreateSession(_productName, _description, \"Create session success!\");\n    }\n\n    //Update session.\n    function updateSession(string memory _productName, string memory _description, string[] memory _images) public onlyAdmin {\n        productName = _productName;\n        description = _description;\n        images = _images;\n        emit UpdateSession(_productName, _description, \"Update session success!\");\n    }\n\n    // TODO: Functions\n\n    // Get session detail.\n    function getSessionDetail() public view returns(string memory, string memory, string[] memory, uint, int, uint) {\n        return (productName, description, images, suggestPrice, finalPrice, uint(status));\n    }\n\n    // ..CREATED.. -> PRICING -> STOP\n    // Update session status to PRICING.\n    function startSession() public onlyAdmin {\n        require(status == SESSION_STATUS.CREATED, \"Session status must be CREATED\");\n        status = SESSION_STATUS.PRICING;\n        emit UpdateSessionStatus(\"Update session status to PRICING\");\n    }\n\n    // Participant pricing session.\n    function pricing(int _price) public onlyParticipant onlyInProgress {\n        if (isParticipantPricingExists[msg.sender] == false) {\n            isParticipantPricingExists[msg.sender] = true;\n            participantPricings.push(msg.sender);\n        }\n\n        mapParticipantPricings[msg.sender] = _price;\n        emit Pricing(msg.sender, \"Pricing success!\");\n    }\n\n    // Get participant pricings.\n    function getParticipantPricings() public view returns (address[] memory) {\n        return participantPricings;\n    }\n\n    // Get Participant pricing exists.\n    function getParticipantPricingExists(address _paticipant) public view returns (bool) {\n        return isParticipantPricingExists[_paticipant];\n    }\n\n    // Calculate suggest price.\n    function calculateSuggestPrice(int _price) private {\n        int _suggestPrice = 0;\n        int _sumOfPriceWithDeviation = 0;\n        int _sumOfDeviation = 0;\n\n        for (uint i = 0; i < participantPricings.length; i++) {\n            int _deviation = MainContract.getDeviation(participantPricings[i]);\n            _sumOfPriceWithDeviation += mapParticipantPricings[participantPricings[i]] * (100 - _deviation);\n            _sumOfDeviation += _deviation;\n        }\n\n        _suggestPrice = _sumOfPriceWithDeviation / ((100 * int(participantPricings.length)) - _sumOfDeviation);\n        suggestPrice = uint(_suggestPrice);\n        finalPrice = _price;\n    }\n\n    // Calculate deviation in session.\n    function calculateDeviationInSession(address _account) private view returns (int) {\n        int _subDeviation = (finalPrice - mapParticipantPricings[_account]).abs();\n        int _subDeviationResult = ((_subDeviation * 10**18) / finalPrice) * 100;\n\n        return _subDeviationResult / 10**18;\n    }\n\n    // Calculate deviation and upstate session status to STOP\n    function calculateDeviationLatestAndStop() private {\n        for (uint i = 0; i < participantPricings.length; i++) {\n            address _account = participantPricings[i];\n            int _deviation = MainContract.getDeviation(_account);\n            int _numberOfSession = MainContract.getNumberOfSession(_account);\n            int _subDeviation = (_deviation * _numberOfSession) + calculateDeviationInSession(_account);\n            int _newDeviation = _subDeviation / (_numberOfSession + 1);\n            MainContract.setDeviation(address(this), _account, _newDeviation);\n            MainContract.incrementNumberOfSession(_account);\n        }\n\n        status = SESSION_STATUS.STOP;\n        emit UpdateSessionStatus(\"Calculate and update session status to STOP\");\n    }\n\n    // Stop session and calculate deviation on each participant.\n    function stopSession(int _price) public onlyAdmin onlyInProgress {\n        if (participantPricings.length == 0) {\n            finalPrice = _price;\n            status = SESSION_STATUS.STOP;\n        } else {\n            calculateSuggestPrice(_price);\n            calculateDeviationLatestAndStop();\n        }\n    }\n\n    // Get participant pricing\n    function getPricingByParticipant() public onlyParticipant view returns(int) {\n        if (isParticipantPricingExists[msg.sender] == true) {\n            return mapParticipantPricings[msg.sender];\n        } else {\n            return 0;\n        }\n    }\n\n    // Get all prices\n    function getAllPrices() public onlyAdmin() view returns(int[]) {\n        int[] memory prices = new int[](participantPricings.length);\n\n        for (uint8 i = 0; i < participantPricings.length; i++) {\n            prices[i] = mapParticipantPricings[participantPricings[i]];\n        }\n\n        return prices;\n    }\n\n    // Modify only status is PRICING.\n    modifier onlyInProgress {\n        require(status == SESSION_STATUS.PRICING, \"Session is not in progress\");\n        _;\n    }\n\n    // Modify to check only admin.\n    modifier onlyAdmin() {\n        require(msg.sender == adminAddr, \"This function only admin can execute!\");\n        _;\n    }\n\n    // Modify to check only participant.\n    modifier onlyParticipant() {\n        require(msg.sender != adminAddr, \"This function only participant can execute!\");\n        _;\n    }\n\n    // Event create session.\n    event CreateSession(string _productName, string _description, string _msg);\n\n    // Event update session.\n    event UpdateSession(string _productName, string _description, string _msg);\n\n    // Event update session status.\n    event UpdateSessionStatus(string _msg);\n\n    // Event pricing.\n    event Pricing(address _account, string _msg);\n}\n",
  "sourcePath": "/Users/damthe/study/blockchain/fx15127-final-project/truffle/contracts/Session.sol",
  "compiler": {
    "name": "solc",
    "version": "0.4.26+commit.4563c3fc.Emscripten.clang"
  },
  "schemaVersion": "3.4.10",
  "updatedAt": "2023-07-10T08:36:53.165Z",
  "devdoc": {
    "methods": {}
  },
  "userdoc": {
    "methods": {}
  }
}