{
  "contractName": "Session",
  "abi": [
    {
      "constant": true,
      "inputs": [],
      "name": "mainContract",
      "outputs": [
        {
          "name": "",
          "type": "address"
        }
      ],
      "payable": false,
      "stateMutability": "view",
      "type": "function"
    },
    {
      "inputs": [
        {
          "name": "_mainContract",
          "type": "address"
        },
        {
          "name": "_productName",
          "type": "string"
        },
        {
          "name": "_description",
          "type": "string"
        },
        {
          "name": "_images",
          "type": "string[]"
        }
      ],
      "payable": false,
      "stateMutability": "nonpayable",
      "type": "constructor"
    },
    {
      "anonymous": false,
      "inputs": [
        {
          "indexed": false,
          "name": "_productName",
          "type": "string"
        },
        {
          "indexed": false,
          "name": "_description",
          "type": "string"
        },
        {
          "indexed": false,
          "name": "_msg",
          "type": "string"
        }
      ],
      "name": "CreateSession",
      "type": "event"
    },
    {
      "anonymous": false,
      "inputs": [
        {
          "indexed": false,
          "name": "_productName",
          "type": "string"
        },
        {
          "indexed": false,
          "name": "_description",
          "type": "string"
        },
        {
          "indexed": false,
          "name": "_msg",
          "type": "string"
        }
      ],
      "name": "UpdateSession",
      "type": "event"
    },
    {
      "anonymous": false,
      "inputs": [
        {
          "indexed": false,
          "name": "_msg",
          "type": "string"
        }
      ],
      "name": "StartSession",
      "type": "event"
    },
    {
      "anonymous": false,
      "inputs": [
        {
          "indexed": false,
          "name": "_msg",
          "type": "string"
        }
      ],
      "name": "CloseSession",
      "type": "event"
    },
    {
      "anonymous": false,
      "inputs": [
        {
          "indexed": false,
          "name": "_account",
          "type": "address"
        },
        {
          "indexed": false,
          "name": "_msg",
          "type": "string"
        }
      ],
      "name": "Pricing",
      "type": "event"
    },
    {
      "constant": false,
      "inputs": [
        {
          "name": "_productName",
          "type": "string"
        },
        {
          "name": "_description",
          "type": "string"
        },
        {
          "name": "_images",
          "type": "string[]"
        }
      ],
      "name": "updateSession",
      "outputs": [],
      "payable": false,
      "stateMutability": "nonpayable",
      "type": "function"
    },
    {
      "constant": false,
      "inputs": [],
      "name": "startSession",
      "outputs": [],
      "payable": false,
      "stateMutability": "nonpayable",
      "type": "function"
    },
    {
      "constant": false,
      "inputs": [],
      "name": "closeSession",
      "outputs": [],
      "payable": false,
      "stateMutability": "nonpayable",
      "type": "function"
    },
    {
      "constant": false,
      "inputs": [
        {
          "name": "_account",
          "type": "address"
        },
        {
          "name": "_price",
          "type": "int256"
        }
      ],
      "name": "pricing",
      "outputs": [],
      "payable": false,
      "stateMutability": "nonpayable",
      "type": "function"
    },
    {
      "constant": true,
      "inputs": [],
      "name": "getSessionDetail",
      "outputs": [
        {
          "name": "",
          "type": "string"
        },
        {
          "name": "",
          "type": "string"
        },
        {
          "name": "",
          "type": "string[]"
        },
        {
          "name": "",
          "type": "uint256"
        },
        {
          "name": "",
          "type": "int256"
        },
        {
          "name": "",
          "type": "uint256"
        }
      ],
      "payable": false,
      "stateMutability": "view",
      "type": "function"
    },
    {
      "constant": false,
      "inputs": [],
      "name": "calculateSuggestPrice",
      "outputs": [],
      "payable": false,
      "stateMutability": "nonpayable",
      "type": "function"
    },
    {
      "constant": true,
      "inputs": [
        {
          "name": "_account",
          "type": "address"
        }
      ],
      "name": "calculateDeviationInSession",
      "outputs": [
        {
          "name": "",
          "type": "int256"
        }
      ],
      "payable": false,
      "stateMutability": "view",
      "type": "function"
    },
    {
      "constant": false,
      "inputs": [
        {
          "name": "_account",
          "type": "address"
        }
      ],
      "name": "calculateDeviationLatest",
      "outputs": [],
      "payable": false,
      "stateMutability": "nonpayable",
      "type": "function"
    }
  ],
  "bytecode": "0x60806040523480156200001157600080fd5b50604051620029e7380380620029e7833981018060405262000037919081019062000595565b836000806101000a81548173ffffffffffffffffffffffffffffffffffffffff021916908373ffffffffffffffffffffffffffffffffffffffff16021790555083600160006101000a81548173ffffffffffffffffffffffffffffffffffffffff021916908373ffffffffffffffffffffffffffffffffffffffff1602179055508260029080519060200190620000d09291906200022a565b508160039080519060200190620000e99291906200022a565b50806004908051906020019062000102929190620002b1565b50600060058190555060006006819055506000600760006101000a81548160ff021916908360028111156200013357fe5b0217905550600160009054906101000a900473ffffffffffffffffffffffffffffffffffffffff1673ffffffffffffffffffffffffffffffffffffffff1663f390dd86306040518263ffffffff167c0100000000000000000000000000000000000000000000000000000000028152600401620001b19190620006d0565b600060405180830381600087803b158015620001cc57600080fd5b505af1158015620001e1573d6000803e3d6000fd5b505050507f9fe7cb314c08d72e270589aeb0470bb4335133b90e7dfd6f84ed11661496dd37838360405162000218929190620006ed565b60405180910390a15050505062000880565b828054600181600116156101000203166002900490600052602060002090601f016020900481019282601f106200026d57805160ff19168380011785556200029e565b828001600101855582156200029e579182015b828111156200029d57825182559160200191906001019062000280565b5b509050620002ad919062000318565b5090565b82805482825590600052602060002090810192821562000305579160200282015b8281111562000304578251829080519060200190620002f392919062000340565b5091602001919060010190620002d2565b5b509050620003149190620003c7565b5090565b6200033d91905b80821115620003395760008160009055506001016200031f565b5090565b90565b828054600181600116156101000203166002900490600052602060002090601f016020900481019282601f106200038357805160ff1916838001178555620003b4565b82800160010185558215620003b4579182015b82811115620003b357825182559160200191906001019062000396565b5b509050620003c3919062000318565b5090565b620003f591905b80821115620003f15760008181620003e79190620003f8565b50600101620003ce565b5090565b90565b50805460018160011615610100020316600290046000825580601f1062000420575062000441565b601f01602090049060005260206000209081019062000440919062000318565b5b50565b600062000452825162000819565b905092915050565b600082601f83011215156200046e57600080fd5b8151620004856200047f826200076b565b6200073d565b9150818183526020840193506020810190508360005b83811015620004cf5781518601620004b48882620004d9565b8452602084019350602083019250506001810190506200049b565b5050505092915050565b600082601f8301121515620004ed57600080fd5b815162000504620004fe8262000794565b6200073d565b915080825260208301602083018583830111156200052157600080fd5b6200052e83828462000839565b50505092915050565b600082601f83011215156200054b57600080fd5b8151620005626200055c82620007c1565b6200073d565b915080825260208301602083018583830111156200057f57600080fd5b6200058c83828462000839565b50505092915050565b60008060008060808587031215620005ac57600080fd5b6000620005bc8782880162000444565b945050602085015167ffffffffffffffff811115620005da57600080fd5b620005e88782880162000537565b935050604085015167ffffffffffffffff8111156200060657600080fd5b620006148782880162000537565b925050606085015167ffffffffffffffff8111156200063257600080fd5b62000640878288016200045a565b91505092959194509250565b6200065781620007f9565b82525050565b60006200066a82620007ee565b8084526200068081602086016020860162000839565b6200068b816200086f565b602085010191505092915050565b6000601782527f4372656174652073657373696f6e2073756363657373210000000000000000006020830152604082019050919050565b6000602082019050620006e760008301846200064c565b92915050565b600060608201905081810360008301526200070981856200065d565b905081810360208301526200071f81846200065d565b90508181036040830152620007348162000699565b90509392505050565b6000604051905081810181811067ffffffffffffffff821117156200076157600080fd5b8060405250919050565b600067ffffffffffffffff8211156200078357600080fd5b602082029050602081019050919050565b600067ffffffffffffffff821115620007ac57600080fd5b601f19601f8301169050602081019050919050565b600067ffffffffffffffff821115620007d957600080fd5b601f19601f8301169050602081019050919050565b600081519050919050565b600073ffffffffffffffffffffffffffffffffffffffff82169050919050565b600073ffffffffffffffffffffffffffffffffffffffff82169050919050565b60005b83811015620008595780820151818401526020810190506200083c565b8381111562000869576000848401525b50505050565b6000601f19601f8301169050919050565b61215780620008906000396000f300608060405260043610610099576000357c0100000000000000000000000000000000000000000000000000000000900463ffffffff16806306f4bcbf1461009e5780630e973501146100b557806321ab391e146100de5780635a53ac8a146100f5578063629db9691461011e578063d270e7ab14610147578063e03a292514610172578063f8cb00bf146101af578063fe0ae165146101df575b600080fd5b3480156100aa57600080fd5b506100b36101f6565b005b3480156100c157600080fd5b506100dc60048036036100d791908101906119d5565b61037e565b005b3480156100ea57600080fd5b506100f361052e565b005b34801561010157600080fd5b5061011c6004803603610117919081019061191e565b61083f565b005b34801561012a57600080fd5b5061014560048036036101409190810190611970565b610c1c565b005b34801561015357600080fd5b5061015c610f8b565b6040516101699190611d77565b60405180910390f35b34801561017e57600080fd5b506101996004803603610194919081019061191e565b610fb0565b6040516101a69190611de9565b60405180910390f35b3480156101bb57600080fd5b506101c461118e565b6040516101d696959493929190611e04565b60405180910390f35b3480156101eb57600080fd5b506101f46113ee565b005b600160009054906101000a900473ffffffffffffffffffffffffffffffffffffffff1673ffffffffffffffffffffffffffffffffffffffff16636e9960c36040518163ffffffff167c0100000000000000000000000000000000000000000000000000000000028152600401602060405180830381600087803b15801561027c57600080fd5b505af1158015610290573d6000803e3d6000fd5b505050506040513d601f19601f820116820180604052506102b49190810190611947565b73ffffffffffffffffffffffffffffffffffffffff163373ffffffffffffffffffffffffffffffffffffffff16141515610323576040517f08c379a000000000000000000000000000000000000000000000000000000000815260040161031a90611f44565b60405180910390fd5b6002600760006101000a81548160ff0219169083600281111561034257fe5b02179055507f66fc0679144ec0d595a06ffa5dea0ca044e705338cf1fe9ae00a32083da9b81460405161037490611f04565b60405180910390a1565b600160009054906101000a900473ffffffffffffffffffffffffffffffffffffffff1673ffffffffffffffffffffffffffffffffffffffff16636e9960c36040518163ffffffff167c0100000000000000000000000000000000000000000000000000000000028152600401602060405180830381600087803b15801561040457600080fd5b505af1158015610418573d6000803e3d6000fd5b505050506040513d601f19601f8201168201806040525061043c9190810190611947565b73ffffffffffffffffffffffffffffffffffffffff163373ffffffffffffffffffffffffffffffffffffffff161415156104ab576040517f08c379a00000000000000000000000000000000000000000000000000000000081526004016104a290611f44565b60405180910390fd5b82600290805190602001906104c19291906115b3565b5081600390805190602001906104d89291906115b3565b5080600490805190602001906104ef929190611633565b507f2a5d6d5b2dec1b940dec7f561cf0b8cd2965d265ed7c371349e1d15979b075ab8383604051610521929190611e7a565b60405180910390a1505050565b6000806000806000600160009054906101000a900473ffffffffffffffffffffffffffffffffffffffff1673ffffffffffffffffffffffffffffffffffffffff16636e9960c36040518163ffffffff167c0100000000000000000000000000000000000000000000000000000000028152600401602060405180830381600087803b1580156105bc57600080fd5b505af11580156105d0573d6000803e3d6000fd5b505050506040513d601f19601f820116820180604052506105f49190810190611947565b73ffffffffffffffffffffffffffffffffffffffff163373ffffffffffffffffffffffffffffffffffffffff16141515610663576040517f08c379a000000000000000000000000000000000000000000000000000000000815260040161065a90611f44565b60405180910390fd5b600094506000935060009250600091505b60098054905082101561081957600160009054906101000a900473ffffffffffffffffffffffffffffffffffffffff1673ffffffffffffffffffffffffffffffffffffffff1663a33a08b96009848154811015156106ce57fe5b9060005260206000200160009054906101000a900473ffffffffffffffffffffffffffffffffffffffff166040518263ffffffff167c01000000000000000000000000000000000000000000000000000000000281526004016107319190611d77565b602060405180830381600087803b15801561074b57600080fd5b505af115801561075f573d6000803e3d6000fd5b505050506040513d601f19601f8201168201806040525061078391908101906119ac565b9050806064036008600060098581548110151561079c57fe5b9060005260206000200160009054906101000a900473ffffffffffffffffffffffffffffffffffffffff1673ffffffffffffffffffffffffffffffffffffffff1673ffffffffffffffffffffffffffffffffffffffff16815260200190815260200160002054028401935080830192508180600101925050610674565b82600980549050606402038481151561082e57fe5b059450846005819055505050505050565b6000806000600160009054906101000a900473ffffffffffffffffffffffffffffffffffffffff1673ffffffffffffffffffffffffffffffffffffffff16636e9960c36040518163ffffffff167c0100000000000000000000000000000000000000000000000000000000028152600401602060405180830381600087803b1580156108ca57600080fd5b505af11580156108de573d6000803e3d6000fd5b505050506040513d601f19601f820116820180604052506109029190810190611947565b73ffffffffffffffffffffffffffffffffffffffff163373ffffffffffffffffffffffffffffffffffffffff16141515610971576040517f08c379a000000000000000000000000000000000000000000000000000000000815260040161096890611f44565b60405180910390fd5b60006006541315156109b8576040517f08c379a00000000000000000000000000000000000000000000000000000000081526004016109af90611f64565b60405180910390fd5b600160009054906101000a900473ffffffffffffffffffffffffffffffffffffffff1673ffffffffffffffffffffffffffffffffffffffff1663a33a08b9856040518263ffffffff167c0100000000000000000000000000000000000000000000000000000000028152600401610a2f9190611d77565b602060405180830381600087803b158015610a4957600080fd5b505af1158015610a5d573d6000803e3d6000fd5b505050506040513d601f19601f82011682018060405250610a8191908101906119ac565b9250610a8c84610fb0565b600160009054906101000a900473ffffffffffffffffffffffffffffffffffffffff1673ffffffffffffffffffffffffffffffffffffffff1663be330868866040518263ffffffff167c0100000000000000000000000000000000000000000000000000000000028152600401610b039190611d77565b602060405180830381600087803b158015610b1d57600080fd5b505af1158015610b31573d6000803e3d6000fd5b505050506040513d601f19601f82011682018060405250610b5591908101906119ac565b84020191506001830182811515610b6857fe5b059050600160009054906101000a900473ffffffffffffffffffffffffffffffffffffffff1673ffffffffffffffffffffffffffffffffffffffff16638c99069885836040518363ffffffff167c0100000000000000000000000000000000000000000000000000000000028152600401610be4929190611d92565b600060405180830381600087803b158015610bfe57600080fd5b505af1158015610c12573d6000803e3d6000fd5b5050505050505050565b600160009054906101000a900473ffffffffffffffffffffffffffffffffffffffff1673ffffffffffffffffffffffffffffffffffffffff16636e9960c36040518163ffffffff167c0100000000000000000000000000000000000000000000000000000000028152600401602060405180830381600087803b158015610ca257600080fd5b505af1158015610cb6573d6000803e3d6000fd5b505050506040513d601f19601f82011682018060405250610cda9190810190611947565b73ffffffffffffffffffffffffffffffffffffffff163373ffffffffffffffffffffffffffffffffffffffff1614151515610d4a576040517f08c379a0000000000000000000000000000000000000000000000000000000008152600401610d4190611ee4565b60405180910390fd5b60016002811115610d5757fe5b600760009054906101000a900460ff166002811115610d7257fe5b141515610db4576040517f08c379a0000000000000000000000000000000000000000000000000000000008152600401610dab90611ec4565b60405180910390fd5b80600860008473ffffffffffffffffffffffffffffffffffffffff1673ffffffffffffffffffffffffffffffffffffffff168152602001908152602001600020819055506000600860008473ffffffffffffffffffffffffffffffffffffffff1673ffffffffffffffffffffffffffffffffffffffff168152602001908152602001600020541415610f505760098290806001815401808255809150509060018203906000526020600020016000909192909190916101000a81548173ffffffffffffffffffffffffffffffffffffffff021916908373ffffffffffffffffffffffffffffffffffffffff16021790555050600160009054906101000a900473ffffffffffffffffffffffffffffffffffffffff1673ffffffffffffffffffffffffffffffffffffffff1663a6829934836040518263ffffffff167c0100000000000000000000000000000000000000000000000000000000028152600401610f1d9190611d77565b600060405180830381600087803b158015610f3757600080fd5b505af1158015610f4b573d6000803e3d6000fd5b505050505b7f47650289511cf2cfb9b8b559f6e750022263d3a2db072b47698d32df3ac0b80582604051610f7f9190611dbb565b60405180910390a15050565b6000809054906101000a900473ffffffffffffffffffffffffffffffffffffffff1681565b600080600160009054906101000a900473ffffffffffffffffffffffffffffffffffffffff1673ffffffffffffffffffffffffffffffffffffffff16636e9960c36040518163ffffffff167c0100000000000000000000000000000000000000000000000000000000028152600401602060405180830381600087803b15801561103957600080fd5b505af115801561104d573d6000803e3d6000fd5b505050506040513d601f19601f820116820180604052506110719190810190611947565b73ffffffffffffffffffffffffffffffffffffffff163373ffffffffffffffffffffffffffffffffffffffff161415156110e0576040517f08c379a00000000000000000000000000000000000000000000000000000000081526004016110d790611f44565b60405180910390fd5b6000600654131515611127576040517f08c379a000000000000000000000000000000000000000000000000000000000815260040161111e90611f64565b60405180910390fd5b611173600860008573ffffffffffffffffffffffffffffffffffffffff1673ffffffffffffffffffffffffffffffffffffffff1681526020019081526020016000205460065403611576565b905060646006548281151561118457fe5b0502915050919050565b60608060606000806000600260036004600554600654600760009054906101000a900460ff1660028111156111bf57fe5b858054600181600116156101000203166002900480601f0160208091040260200160405190810160405280929190818152602001828054600181600116156101000203166002900480156112545780601f1061122957610100808354040283529160200191611254565b820191906000526020600020905b81548152906001019060200180831161123757829003601f168201915b50505050509550848054600181600116156101000203166002900480601f0160208091040260200160405190810160405280929190818152602001828054600181600116156101000203166002900480156112f05780601f106112c5576101008083540402835291602001916112f0565b820191906000526020600020905b8154815290600101906020018083116112d357829003601f168201915b5050505050945083805480602002602001604051908101604052809291908181526020016000905b828210156113d4578382906000526020600020018054600181600116156101000203166002900480601f0160208091040260200160405190810160405280929190818152602001828054600181600116156101000203166002900480156113c05780601f10611395576101008083540402835291602001916113c0565b820191906000526020600020905b8154815290600101906020018083116113a357829003601f168201915b505050505081526020019060010190611318565b505050509350955095509550955095509550909192939495565b600160009054906101000a900473ffffffffffffffffffffffffffffffffffffffff1673ffffffffffffffffffffffffffffffffffffffff16636e9960c36040518163ffffffff167c0100000000000000000000000000000000000000000000000000000000028152600401602060405180830381600087803b15801561147457600080fd5b505af1158015611488573d6000803e3d6000fd5b505050506040513d601f19601f820116820180604052506114ac9190810190611947565b73ffffffffffffffffffffffffffffffffffffffff163373ffffffffffffffffffffffffffffffffffffffff1614151561151b576040517f08c379a000000000000000000000000000000000000000000000000000000000815260040161151290611f44565b60405180910390fd5b6001600760006101000a81548160ff0219169083600281111561153a57fe5b02179055507f2e68e6b497b364e88ad96081ce7fccdb657836812191c7527cf99074df4fde0b60405161156c90611f24565b60405180910390a1565b6000808212156115aa577fffffffffffffffffffffffffffffffffffffffffffffffffffffffffffffffff820290506115ae565b8190505b919050565b828054600181600116156101000203166002900490600052602060002090601f016020900481019282601f106115f457805160ff1916838001178555611622565b82800160010185558215611622579182015b82811115611621578251825591602001919060010190611606565b5b50905061162f9190611693565b5090565b828054828255906000526020600020908101928215611682579160200282015b828111156116815782518290805190602001906116719291906116b8565b5091602001919060010190611653565b5b50905061168f9190611738565b5090565b6116b591905b808211156116b1576000816000905550600101611699565b5090565b90565b828054600181600116156101000203166002900490600052602060002090601f016020900481019282601f106116f957805160ff1916838001178555611727565b82800160010185558215611727579182015b8281111561172657825182559160200191906001019061170b565b5b5090506117349190611693565b5090565b61176191905b8082111561175d57600081816117549190611764565b5060010161173e565b5090565b90565b50805460018160011615610100020316600290046000825580601f1061178a57506117a9565b601f0160209004906000526020600020908101906117a89190611693565b5b50565b60006117b882356120a0565b905092915050565b60006117cc82516120a0565b905092915050565b600082601f83011215156117e757600080fd5b81356117fa6117f582611fb1565b611f84565b9150818183526020840193506020810190508360005b8381101561184057813586016118268882611872565b845260208401935060208301925050600181019050611810565b5050505092915050565b600061185682356120c0565b905092915050565b600061186a82516120c0565b905092915050565b600082601f830112151561188557600080fd5b813561189861189382611fd9565b611f84565b915080825260208301602083018583830111156118b457600080fd5b6118bf8382846120ca565b50505092915050565b600082601f83011215156118db57600080fd5b81356118ee6118e982612005565b611f84565b9150808252602083016020830185838301111561190a57600080fd5b6119158382846120ca565b50505092915050565b60006020828403121561193057600080fd5b600061193e848285016117ac565b91505092915050565b60006020828403121561195957600080fd5b6000611967848285016117c0565b91505092915050565b6000806040838503121561198357600080fd5b6000611991858286016117ac565b92505060206119a28582860161184a565b9150509250929050565b6000602082840312156119be57600080fd5b60006119cc8482850161185e565b91505092915050565b6000806000606084860312156119ea57600080fd5b600084013567ffffffffffffffff811115611a0457600080fd5b611a10868287016118c8565b935050602084013567ffffffffffffffff811115611a2d57600080fd5b611a39868287016118c8565b925050604084013567ffffffffffffffff811115611a5657600080fd5b611a62868287016117d4565b9150509250925092565b611a758161206c565b82525050565b6000611a868261203e565b80845260208401935083602082028501611a9f85612031565b60005b84811015611ad8578383038852611aba838351611b2e565b9250611ac58261205f565b9150602088019750600181019050611aa2565b508196508694505050505092915050565b611af28161208c565b82525050565b6000611b0382612054565b808452611b178160208601602086016120d9565b611b208161210c565b602085010191505092915050565b6000611b3982612049565b808452611b4d8160208601602086016120d9565b611b568161210c565b602085010191505092915050565b6000601a82527f53657373696f6e206973206e6f7420696e2070726f67726573730000000000006020830152604082019050919050565b6000602b82527f546869732066756e6374696f6e206f6e6c79207061727469636970616e74206360208301527f616e2065786563757465210000000000000000000000000000000000000000006040830152606082019050919050565b6000601782527f5570646174652073657373696f6e2073756363657373210000000000000000006020830152604082019050919050565b6000601682527f436c6f73652073657373696f6e207375636365737321000000000000000000006020830152604082019050919050565b6000601682527f53746172742073657373696f6e207375636365737321000000000000000000006020830152604082019050919050565b6000602582527f546869732066756e6374696f6e206f6e6c792061646d696e2063616e2065786560208301527f63757465210000000000000000000000000000000000000000000000000000006040830152606082019050919050565b6000601082527f50726963696e67207375636365737321000000000000000000000000000000006020830152604082019050919050565b6000601b82527f46696e616c207072696365206d757374207365742076616c75652100000000006020830152604082019050919050565b611d7181612096565b82525050565b6000602082019050611d8c6000830184611a6c565b92915050565b6000604082019050611da76000830185611a6c565b611db46020830184611ae9565b9392505050565b6000604082019050611dd06000830184611a6c565b8181036020830152611de181611cfa565b905092915050565b6000602082019050611dfe6000830184611ae9565b92915050565b600060c0820190508181036000830152611e1e8189611af8565b90508181036020830152611e328188611af8565b90508181036040830152611e468187611a7b565b9050611e556060830186611d68565b611e626080830185611ae9565b611e6f60a0830184611d68565b979650505050505050565b60006060820190508181036000830152611e948185611af8565b90508181036020830152611ea88184611af8565b90508181036040830152611ebb81611bf8565b90509392505050565b60006020820190508181036000830152611edd81611b64565b9050919050565b60006020820190508181036000830152611efd81611b9b565b9050919050565b60006020820190508181036000830152611f1d81611c2f565b9050919050565b60006020820190508181036000830152611f3d81611c66565b9050919050565b60006020820190508181036000830152611f5d81611c9d565b9050919050565b60006020820190508181036000830152611f7d81611d31565b9050919050565b6000604051905081810181811067ffffffffffffffff82111715611fa757600080fd5b8060405250919050565b600067ffffffffffffffff821115611fc857600080fd5b602082029050602081019050919050565b600067ffffffffffffffff821115611ff057600080fd5b601f19601f8301169050602081019050919050565b600067ffffffffffffffff82111561201c57600080fd5b601f19601f8301169050602081019050919050565b6000602082019050919050565b600081519050919050565b600081519050919050565b600081519050919050565b6000602082019050919050565b600073ffffffffffffffffffffffffffffffffffffffff82169050919050565b6000819050919050565b6000819050919050565b600073ffffffffffffffffffffffffffffffffffffffff82169050919050565b6000819050919050565b82818337600083830152505050565b60005b838110156120f75780820151818401526020810190506120dc565b83811115612106576000848401525b50505050565b6000601f19601f83011690509190505600a265627a7a72305820f504f96bd259f60aaa76853e5215282e81677c7394e79192adf6ae832ebdd3916c6578706572696d656e74616cf50037",
  "source": "// SPDX-License-Identifier: MIT\r\npragma solidity ^0.4.26;\r\npragma experimental ABIEncoderV2;\r\nimport \"./lib/UtilityLibrary.sol\";\r\n\r\n// Interface of Main contract to call from Session contract\r\ninterface IMain {\r\n    function addSession(address session) external;\r\n    function getAdmin() external view returns (address);\r\n    function getDeviation(address _account) external view returns (int);\r\n    function setDeviation(address _account, int _deviation) external;\r\n    function incrementNumberOfSession(address _account) external;\r\n    function getNumberOfSession(address _account) external view returns(int);\r\n}\r\n\r\ncontract Session {\r\n    // Variable to hold Main Contract Address when create new Session Contract\r\n    address public mainContract;\r\n    // Variable to hold Main Contract instance to call functions from Main\r\n    IMain MainContract;\r\n\r\n    // TODO: Variables\r\n    enum SESSION_STATUS {CREATED, INPROGRESS, CLOSE}\r\n\r\n    string private productName;\r\n    string private description;\r\n    string[] private images;\r\n    uint private suggestPrice;\r\n    int private finalPrice;\r\n    SESSION_STATUS private status;\r\n    mapping(address => int) private mapParticipantPricings;\r\n    address[] private participantPricings;\r\n\r\n    using UtilityLibrary for int;\r\n\r\n    constructor(\r\n        address _mainContract,\r\n        string memory _productName,\r\n        string memory _description,\r\n        string[] memory _images\r\n    ) public {\r\n        // Get Main Contract instance\r\n        mainContract = _mainContract;\r\n        MainContract = IMain(_mainContract);\r\n\r\n        // TODO: Init Session contract\r\n        productName = _productName;\r\n        description = _description;\r\n        images = _images;\r\n        suggestPrice = 0;\r\n        finalPrice = 0;\r\n        status = SESSION_STATUS.CREATED;\r\n\r\n        // Call Main Contract function to link current contract.\r\n        MainContract.addSession(address(this));\r\n        emit CreateSession(_productName, _description, \"Create session success!\");\r\n    }\r\n\r\n    //Update session.\r\n    function updateSession(string memory _productName, string memory _description, string[] memory _images) public onlyAdmin {\r\n        productName = _productName;\r\n        description = _description;\r\n        images = _images;\r\n        emit UpdateSession(_productName, _description, \"Update session success!\");\r\n    }\r\n\r\n    // TODO: Functions\r\n    // Set status to INPROGRESS.\r\n    function startSession() public onlyAdmin {\r\n        status = SESSION_STATUS.INPROGRESS;\r\n\r\n        emit StartSession(\"Start session success!\");\r\n    }\r\n\r\n    // Set status to CLOSE.\r\n    function closeSession() public onlyAdmin {\r\n        status = SESSION_STATUS.CLOSE;\r\n        emit CloseSession(\"Close session success!\");\r\n    }\r\n\r\n    // Participant pricing.\r\n    function pricing(address _account, int _price) public onlyParticipant onlyInProgress {\r\n        mapParticipantPricings[_account] = _price;\r\n\r\n        if (mapParticipantPricings[_account] == 0) {\r\n            // check this work?\r\n            participantPricings.push(_account);\r\n            MainContract.incrementNumberOfSession(_account);\r\n        }\r\n\r\n        emit Pricing(_account, \"Pricing success!\");\r\n    }\r\n\r\n    // Get session detail.\r\n    function getSessionDetail() public view returns(string memory, string memory, string[] memory, uint, int, uint) {\r\n        return (productName, description, images, suggestPrice, finalPrice, uint(status));\r\n    }\r\n\r\n    // Calculate suggest price.\r\n    function calculateSuggestPrice() public onlyAdmin {\r\n        int _suggestPrice = 0;\r\n        int _sumOfPriceWithDeviation = 0;\r\n        int _sumOfDeviation = 0;\r\n\r\n        for (uint i = 0; i < participantPricings.length; i++) {\r\n            // TODO: ko co thi return 0\r\n            int _deviation = MainContract.getDeviation(participantPricings[i]);\r\n            _sumOfPriceWithDeviation += mapParticipantPricings[participantPricings[i]] * (100 - _deviation);\r\n            _sumOfDeviation += _deviation;\r\n        }\r\n\r\n        _suggestPrice = _sumOfPriceWithDeviation / ((100 * int(participantPricings.length)) - _sumOfDeviation);\r\n        suggestPrice = uint(_suggestPrice);\r\n    }\r\n\r\n    // Calculate deviation in session.\r\n    function calculateDeviationInSession(address _account) public view onlyAdmin onlyFinalPriceMustSetValue returns (int) {\r\n        int _subDeviation = (finalPrice - mapParticipantPricings[_account]).abs();\r\n\r\n        return (_subDeviation / finalPrice) * 100;\r\n    }\r\n\r\n    // Calculate deviation.\r\n    function calculateDeviationLatest(address _account) public onlyAdmin onlyFinalPriceMustSetValue {\r\n        int _deviation = MainContract.getDeviation(_account);\r\n        int _subDeviation = (_deviation * MainContract.getNumberOfSession(_account)) + calculateDeviationInSession(_account);\r\n        int _newDeviation = _subDeviation / (_deviation + 1);\r\n        MainContract.setDeviation(_account, _newDeviation);\r\n    }\r\n\r\n    // Modify only status is INPROGRESS.\r\n    modifier onlyInProgress {\r\n        require(status == SESSION_STATUS.INPROGRESS, \"Session is not in progress\");\r\n        _;\r\n    }\r\n\r\n    // Modify to check only admin.\r\n    modifier onlyAdmin() {\r\n        require(msg.sender == MainContract.getAdmin(), \"This function only admin can execute!\");\r\n        _;\r\n    }\r\n\r\n    // Modify to check only participant.\r\n    modifier onlyParticipant() {\r\n        // TODO: viet lai modifier nay\r\n        require(msg.sender != MainContract.getAdmin(), \"This function only participant can execute!\");\r\n        _;\r\n    }\r\n\r\n    // Modify finalPrice must set value.\r\n    modifier onlyFinalPriceMustSetValue() {\r\n        require(finalPrice > 0, \"Final price must set value!\");\r\n        _;\r\n    }\r\n\r\n    // Event create session.\r\n    event CreateSession(string _productName, string _description, string _msg);\r\n\r\n    // Event update session.\r\n    event UpdateSession(string _productName, string _description, string _msg);\r\n\r\n    // Event start session.\r\n    event StartSession(string _msg);\r\n\r\n    // Event close session.\r\n    event CloseSession(string _msg);\r\n\r\n    // Event pricing.\r\n    event Pricing(address _account, string _msg);\r\n}\r\n",
  "sourcePath": "C:\\Users\\dtvthe\\study\\blockchain\\fx15127-final-project\\truffle\\contracts\\Session.sol",
  "compiler": {
    "name": "solc",
    "version": "0.4.26+commit.4563c3fc.Emscripten.clang"
  },
  "schemaVersion": "3.4.14",
  "updatedAt": "2023-06-20T13:38:59.088Z",
  "devdoc": {
    "methods": {}
  },
  "userdoc": {
    "methods": {}
  }
}