{
  "contractName": "Session",
  "abi": [
    {
      "constant": true,
      "inputs": [],
      "name": "mainContract",
      "outputs": [
        {
          "name": "",
          "type": "address"
        }
      ],
      "payable": false,
      "stateMutability": "view",
      "type": "function"
    },
    {
      "inputs": [
        {
          "name": "_mainContract",
          "type": "address"
        },
        {
          "name": "_productName",
          "type": "string"
        },
        {
          "name": "_description",
          "type": "string"
        },
        {
          "name": "_images",
          "type": "string[]"
        }
      ],
      "payable": false,
      "stateMutability": "nonpayable",
      "type": "constructor"
    },
    {
      "anonymous": false,
      "inputs": [
        {
          "indexed": false,
          "name": "_productName",
          "type": "string"
        },
        {
          "indexed": false,
          "name": "_description",
          "type": "string"
        },
        {
          "indexed": false,
          "name": "_msg",
          "type": "string"
        }
      ],
      "name": "CreateSession",
      "type": "event"
    },
    {
      "anonymous": false,
      "inputs": [
        {
          "indexed": false,
          "name": "_productName",
          "type": "string"
        },
        {
          "indexed": false,
          "name": "_description",
          "type": "string"
        },
        {
          "indexed": false,
          "name": "_msg",
          "type": "string"
        }
      ],
      "name": "UpdateSession",
      "type": "event"
    },
    {
      "anonymous": false,
      "inputs": [
        {
          "indexed": false,
          "name": "_msg",
          "type": "string"
        }
      ],
      "name": "UpdateSessionStatus",
      "type": "event"
    },
    {
      "anonymous": false,
      "inputs": [
        {
          "indexed": false,
          "name": "_account",
          "type": "address"
        },
        {
          "indexed": false,
          "name": "_msg",
          "type": "string"
        }
      ],
      "name": "Pricing",
      "type": "event"
    },
    {
      "constant": false,
      "inputs": [
        {
          "name": "_productName",
          "type": "string"
        },
        {
          "name": "_description",
          "type": "string"
        },
        {
          "name": "_images",
          "type": "string[]"
        }
      ],
      "name": "updateSession",
      "outputs": [],
      "payable": false,
      "stateMutability": "nonpayable",
      "type": "function"
    },
    {
      "constant": false,
      "inputs": [],
      "name": "startSession",
      "outputs": [],
      "payable": false,
      "stateMutability": "nonpayable",
      "type": "function"
    },
    {
      "constant": false,
      "inputs": [],
      "name": "closeSession",
      "outputs": [],
      "payable": false,
      "stateMutability": "nonpayable",
      "type": "function"
    },
    {
      "constant": false,
      "inputs": [],
      "name": "stopSession",
      "outputs": [],
      "payable": false,
      "stateMutability": "nonpayable",
      "type": "function"
    },
    {
      "constant": false,
      "inputs": [
        {
          "name": "_account",
          "type": "address"
        },
        {
          "name": "_price",
          "type": "int256"
        }
      ],
      "name": "pricing",
      "outputs": [],
      "payable": false,
      "stateMutability": "nonpayable",
      "type": "function"
    },
    {
      "constant": true,
      "inputs": [],
      "name": "getSessionDetail",
      "outputs": [
        {
          "name": "",
          "type": "string"
        },
        {
          "name": "",
          "type": "string"
        },
        {
          "name": "",
          "type": "string[]"
        },
        {
          "name": "",
          "type": "uint256"
        },
        {
          "name": "",
          "type": "int256"
        },
        {
          "name": "",
          "type": "uint256"
        }
      ],
      "payable": false,
      "stateMutability": "view",
      "type": "function"
    },
    {
      "constant": false,
      "inputs": [],
      "name": "calculateSuggestPrice",
      "outputs": [],
      "payable": false,
      "stateMutability": "nonpayable",
      "type": "function"
    },
    {
      "constant": true,
      "inputs": [
        {
          "name": "_account",
          "type": "address"
        }
      ],
      "name": "calculateDeviationInSession",
      "outputs": [
        {
          "name": "",
          "type": "int256"
        }
      ],
      "payable": false,
      "stateMutability": "view",
      "type": "function"
    },
    {
      "constant": false,
      "inputs": [
        {
          "name": "_account",
          "type": "address"
        }
      ],
      "name": "calculateDeviationLatest",
      "outputs": [],
      "payable": false,
      "stateMutability": "nonpayable",
      "type": "function"
    }
  ],
  "bytecode": "0x60806040523480156200001157600080fd5b5060405162002e2b38038062002e2b833981018060405262000037919081019062000595565b836000806101000a81548173ffffffffffffffffffffffffffffffffffffffff021916908373ffffffffffffffffffffffffffffffffffffffff16021790555083600160006101000a81548173ffffffffffffffffffffffffffffffffffffffff021916908373ffffffffffffffffffffffffffffffffffffffff1602179055508260029080519060200190620000d09291906200022a565b508160039080519060200190620000e99291906200022a565b50806004908051906020019062000102929190620002b1565b50600060058190555060006006819055506000600760006101000a81548160ff021916908360038111156200013357fe5b0217905550600160009054906101000a900473ffffffffffffffffffffffffffffffffffffffff1673ffffffffffffffffffffffffffffffffffffffff1663f390dd86306040518263ffffffff167c0100000000000000000000000000000000000000000000000000000000028152600401620001b19190620006d0565b600060405180830381600087803b158015620001cc57600080fd5b505af1158015620001e1573d6000803e3d6000fd5b505050507f9fe7cb314c08d72e270589aeb0470bb4335133b90e7dfd6f84ed11661496dd37838360405162000218929190620006ed565b60405180910390a15050505062000880565b828054600181600116156101000203166002900490600052602060002090601f016020900481019282601f106200026d57805160ff19168380011785556200029e565b828001600101855582156200029e579182015b828111156200029d57825182559160200191906001019062000280565b5b509050620002ad919062000318565b5090565b82805482825590600052602060002090810192821562000305579160200282015b8281111562000304578251829080519060200190620002f392919062000340565b5091602001919060010190620002d2565b5b509050620003149190620003c7565b5090565b6200033d91905b80821115620003395760008160009055506001016200031f565b5090565b90565b828054600181600116156101000203166002900490600052602060002090601f016020900481019282601f106200038357805160ff1916838001178555620003b4565b82800160010185558215620003b4579182015b82811115620003b357825182559160200191906001019062000396565b5b509050620003c3919062000318565b5090565b620003f591905b80821115620003f15760008181620003e79190620003f8565b50600101620003ce565b5090565b90565b50805460018160011615610100020316600290046000825580601f1062000420575062000441565b601f01602090049060005260206000209081019062000440919062000318565b5b50565b600062000452825162000819565b905092915050565b600082601f83011215156200046e57600080fd5b8151620004856200047f826200076b565b6200073d565b9150818183526020840193506020810190508360005b83811015620004cf5781518601620004b48882620004d9565b8452602084019350602083019250506001810190506200049b565b5050505092915050565b600082601f8301121515620004ed57600080fd5b815162000504620004fe8262000794565b6200073d565b915080825260208301602083018583830111156200052157600080fd5b6200052e83828462000839565b50505092915050565b600082601f83011215156200054b57600080fd5b8151620005626200055c82620007c1565b6200073d565b915080825260208301602083018583830111156200057f57600080fd5b6200058c83828462000839565b50505092915050565b60008060008060808587031215620005ac57600080fd5b6000620005bc8782880162000444565b945050602085015167ffffffffffffffff811115620005da57600080fd5b620005e88782880162000537565b935050604085015167ffffffffffffffff8111156200060657600080fd5b620006148782880162000537565b925050606085015167ffffffffffffffff8111156200063257600080fd5b62000640878288016200045a565b91505092959194509250565b6200065781620007f9565b82525050565b60006200066a82620007ee565b8084526200068081602086016020860162000839565b6200068b816200086f565b602085010191505092915050565b6000601782527f4372656174652073657373696f6e2073756363657373210000000000000000006020830152604082019050919050565b6000602082019050620006e760008301846200064c565b92915050565b600060608201905081810360008301526200070981856200065d565b905081810360208301526200071f81846200065d565b90508181036040830152620007348162000699565b90509392505050565b6000604051905081810181811067ffffffffffffffff821117156200076157600080fd5b8060405250919050565b600067ffffffffffffffff8211156200078357600080fd5b602082029050602081019050919050565b600067ffffffffffffffff821115620007ac57600080fd5b601f19601f8301169050602081019050919050565b600067ffffffffffffffff821115620007d957600080fd5b601f19601f8301169050602081019050919050565b600081519050919050565b600073ffffffffffffffffffffffffffffffffffffffff82169050919050565b600073ffffffffffffffffffffffffffffffffffffffff82169050919050565b60005b83811015620008595780820151818401526020810190506200083c565b8381111562000869576000848401525b50505050565b6000601f19601f8301169050919050565b61259b80620008906000396000f3006080604052600436106100a4576000357c0100000000000000000000000000000000000000000000000000000000900463ffffffff16806306f4bcbf146100a95780630e973501146100c057806321ab391e146100e95780635a53ac8a14610100578063629db96914610129578063cbd8c61314610152578063d270e7ab14610169578063e03a292514610194578063f8cb00bf146101d1578063fe0ae16514610201575b600080fd5b3480156100b557600080fd5b506100be610218565b005b3480156100cc57600080fd5b506100e760048036036100e29190810190611cbd565b61040a565b005b3480156100f557600080fd5b506100fe6105ba565b005b34801561010c57600080fd5b5061012760048036036101229190810190611c06565b6108cb565b005b34801561013557600080fd5b50610150600480360361014b9190810190611c58565b610ca8565b005b34801561015e57600080fd5b50610167611017565b005b34801561017557600080fd5b5061017e611209565b60405161018b919061213b565b60405180910390f35b3480156101a057600080fd5b506101bb60048036036101b69190810190611c06565b61122e565b6040516101c891906121ad565b60405180910390f35b3480156101dd57600080fd5b506101e661140c565b6040516101f8969594939291906121c8565b60405180910390f35b34801561020d57600080fd5b5061021661166c565b005b600160009054906101000a900473ffffffffffffffffffffffffffffffffffffffff1673ffffffffffffffffffffffffffffffffffffffff16636e9960c36040518163ffffffff167c0100000000000000000000000000000000000000000000000000000000028152600401602060405180830381600087803b15801561029e57600080fd5b505af11580156102b2573d6000803e3d6000fd5b505050506040513d601f19601f820116820180604052506102d69190810190611c2f565b73ffffffffffffffffffffffffffffffffffffffff163373ffffffffffffffffffffffffffffffffffffffff16141515610345576040517f08c379a000000000000000000000000000000000000000000000000000000000815260040161033c90612328565b60405180910390fd5b6001600381111561035257fe5b600760009054906101000a900460ff16600381111561036d57fe5b1415156103af576040517f08c379a00000000000000000000000000000000000000000000000000000000081526004016103a6906122a8565b60405180910390fd5b6002600760006101000a81548160ff021916908360038111156103ce57fe5b02179055507fd084c6ae9c7d3dcbaf7ac844e5d1150bc12c7d070a3ffb34cd54ca01a03c1364604051610400906122c8565b60405180910390a1565b600160009054906101000a900473ffffffffffffffffffffffffffffffffffffffff1673ffffffffffffffffffffffffffffffffffffffff16636e9960c36040518163ffffffff167c0100000000000000000000000000000000000000000000000000000000028152600401602060405180830381600087803b15801561049057600080fd5b505af11580156104a4573d6000803e3d6000fd5b505050506040513d601f19601f820116820180604052506104c89190810190611c2f565b73ffffffffffffffffffffffffffffffffffffffff163373ffffffffffffffffffffffffffffffffffffffff16141515610537576040517f08c379a000000000000000000000000000000000000000000000000000000000815260040161052e90612328565b60405180910390fd5b826002908051906020019061054d92919061189b565b50816003908051906020019061056492919061189b565b50806004908051906020019061057b92919061191b565b507f2a5d6d5b2dec1b940dec7f561cf0b8cd2965d265ed7c371349e1d15979b075ab83836040516105ad92919061223e565b60405180910390a1505050565b6000806000806000600160009054906101000a900473ffffffffffffffffffffffffffffffffffffffff1673ffffffffffffffffffffffffffffffffffffffff16636e9960c36040518163ffffffff167c0100000000000000000000000000000000000000000000000000000000028152600401602060405180830381600087803b15801561064857600080fd5b505af115801561065c573d6000803e3d6000fd5b505050506040513d601f19601f820116820180604052506106809190810190611c2f565b73ffffffffffffffffffffffffffffffffffffffff163373ffffffffffffffffffffffffffffffffffffffff161415156106ef576040517f08c379a00000000000000000000000000000000000000000000000000000000081526004016106e690612328565b60405180910390fd5b600094506000935060009250600091505b6009805490508210156108a557600160009054906101000a900473ffffffffffffffffffffffffffffffffffffffff1673ffffffffffffffffffffffffffffffffffffffff1663a33a08b960098481548110151561075a57fe5b9060005260206000200160009054906101000a900473ffffffffffffffffffffffffffffffffffffffff166040518263ffffffff167c01000000000000000000000000000000000000000000000000000000000281526004016107bd919061213b565b602060405180830381600087803b1580156107d757600080fd5b505af11580156107eb573d6000803e3d6000fd5b505050506040513d601f19601f8201168201806040525061080f9190810190611c94565b9050806064036008600060098581548110151561082857fe5b9060005260206000200160009054906101000a900473ffffffffffffffffffffffffffffffffffffffff1673ffffffffffffffffffffffffffffffffffffffff1673ffffffffffffffffffffffffffffffffffffffff16815260200190815260200160002054028401935080830192508180600101925050610700565b8260098054905060640203848115156108ba57fe5b059450846005819055505050505050565b6000806000600160009054906101000a900473ffffffffffffffffffffffffffffffffffffffff1673ffffffffffffffffffffffffffffffffffffffff16636e9960c36040518163ffffffff167c0100000000000000000000000000000000000000000000000000000000028152600401602060405180830381600087803b15801561095657600080fd5b505af115801561096a573d6000803e3d6000fd5b505050506040513d601f19601f8201168201806040525061098e9190810190611c2f565b73ffffffffffffffffffffffffffffffffffffffff163373ffffffffffffffffffffffffffffffffffffffff161415156109fd576040517f08c379a00000000000000000000000000000000000000000000000000000000081526004016109f490612328565b60405180910390fd5b6000600654131515610a44576040517f08c379a0000000000000000000000000000000000000000000000000000000008152600401610a3b906123a8565b60405180910390fd5b600160009054906101000a900473ffffffffffffffffffffffffffffffffffffffff1673ffffffffffffffffffffffffffffffffffffffff1663a33a08b9856040518263ffffffff167c0100000000000000000000000000000000000000000000000000000000028152600401610abb919061213b565b602060405180830381600087803b158015610ad557600080fd5b505af1158015610ae9573d6000803e3d6000fd5b505050506040513d601f19601f82011682018060405250610b0d9190810190611c94565b9250610b188461122e565b600160009054906101000a900473ffffffffffffffffffffffffffffffffffffffff1673ffffffffffffffffffffffffffffffffffffffff1663be330868866040518263ffffffff167c0100000000000000000000000000000000000000000000000000000000028152600401610b8f919061213b565b602060405180830381600087803b158015610ba957600080fd5b505af1158015610bbd573d6000803e3d6000fd5b505050506040513d601f19601f82011682018060405250610be19190810190611c94565b84020191506001830182811515610bf457fe5b059050600160009054906101000a900473ffffffffffffffffffffffffffffffffffffffff1673ffffffffffffffffffffffffffffffffffffffff16638c99069885836040518363ffffffff167c0100000000000000000000000000000000000000000000000000000000028152600401610c70929190612156565b600060405180830381600087803b158015610c8a57600080fd5b505af1158015610c9e573d6000803e3d6000fd5b5050505050505050565b600160009054906101000a900473ffffffffffffffffffffffffffffffffffffffff1673ffffffffffffffffffffffffffffffffffffffff16636e9960c36040518163ffffffff167c0100000000000000000000000000000000000000000000000000000000028152600401602060405180830381600087803b158015610d2e57600080fd5b505af1158015610d42573d6000803e3d6000fd5b505050506040513d601f19601f82011682018060405250610d669190810190611c2f565b73ffffffffffffffffffffffffffffffffffffffff163373ffffffffffffffffffffffffffffffffffffffff1614151515610dd6576040517f08c379a0000000000000000000000000000000000000000000000000000000008152600401610dcd906122e8565b60405180910390fd5b60016003811115610de357fe5b600760009054906101000a900460ff166003811115610dfe57fe5b141515610e40576040517f08c379a0000000000000000000000000000000000000000000000000000000008152600401610e3790612288565b60405180910390fd5b80600860008473ffffffffffffffffffffffffffffffffffffffff1673ffffffffffffffffffffffffffffffffffffffff168152602001908152602001600020819055506000600860008473ffffffffffffffffffffffffffffffffffffffff1673ffffffffffffffffffffffffffffffffffffffff168152602001908152602001600020541415610fdc5760098290806001815401808255809150509060018203906000526020600020016000909192909190916101000a81548173ffffffffffffffffffffffffffffffffffffffff021916908373ffffffffffffffffffffffffffffffffffffffff16021790555050600160009054906101000a900473ffffffffffffffffffffffffffffffffffffffff1673ffffffffffffffffffffffffffffffffffffffff1663a6829934836040518263ffffffff167c0100000000000000000000000000000000000000000000000000000000028152600401610fa9919061213b565b600060405180830381600087803b158015610fc357600080fd5b505af1158015610fd7573d6000803e3d6000fd5b505050505b7f47650289511cf2cfb9b8b559f6e750022263d3a2db072b47698d32df3ac0b8058260405161100b919061217f565b60405180910390a15050565b600160009054906101000a900473ffffffffffffffffffffffffffffffffffffffff1673ffffffffffffffffffffffffffffffffffffffff16636e9960c36040518163ffffffff167c0100000000000000000000000000000000000000000000000000000000028152600401602060405180830381600087803b15801561109d57600080fd5b505af11580156110b1573d6000803e3d6000fd5b505050506040513d601f19601f820116820180604052506110d59190810190611c2f565b73ffffffffffffffffffffffffffffffffffffffff163373ffffffffffffffffffffffffffffffffffffffff16141515611144576040517f08c379a000000000000000000000000000000000000000000000000000000000815260040161113b90612328565b60405180910390fd5b6002600381111561115157fe5b600760009054906101000a900460ff16600381111561116c57fe5b1415156111ae576040517f08c379a00000000000000000000000000000000000000000000000000000000081526004016111a590612388565b60405180910390fd5b6003600760006101000a81548160ff021916908360038111156111cd57fe5b02179055507fd084c6ae9c7d3dcbaf7ac844e5d1150bc12c7d070a3ffb34cd54ca01a03c13646040516111ff90612348565b60405180910390a1565b6000809054906101000a900473ffffffffffffffffffffffffffffffffffffffff1681565b600080600160009054906101000a900473ffffffffffffffffffffffffffffffffffffffff1673ffffffffffffffffffffffffffffffffffffffff16636e9960c36040518163ffffffff167c0100000000000000000000000000000000000000000000000000000000028152600401602060405180830381600087803b1580156112b757600080fd5b505af11580156112cb573d6000803e3d6000fd5b505050506040513d601f19601f820116820180604052506112ef9190810190611c2f565b73ffffffffffffffffffffffffffffffffffffffff163373ffffffffffffffffffffffffffffffffffffffff1614151561135e576040517f08c379a000000000000000000000000000000000000000000000000000000000815260040161135590612328565b60405180910390fd5b60006006541315156113a5576040517f08c379a000000000000000000000000000000000000000000000000000000000815260040161139c906123a8565b60405180910390fd5b6113f1600860008573ffffffffffffffffffffffffffffffffffffffff1673ffffffffffffffffffffffffffffffffffffffff168152602001908152602001600020546006540361185e565b905060646006548281151561140257fe5b0502915050919050565b60608060606000806000600260036004600554600654600760009054906101000a900460ff16600381111561143d57fe5b858054600181600116156101000203166002900480601f0160208091040260200160405190810160405280929190818152602001828054600181600116156101000203166002900480156114d25780601f106114a7576101008083540402835291602001916114d2565b820191906000526020600020905b8154815290600101906020018083116114b557829003601f168201915b50505050509550848054600181600116156101000203166002900480601f01602080910402602001604051908101604052809291908181526020018280546001816001161561010002031660029004801561156e5780601f106115435761010080835404028352916020019161156e565b820191906000526020600020905b81548152906001019060200180831161155157829003601f168201915b5050505050945083805480602002602001604051908101604052809291908181526020016000905b82821015611652578382906000526020600020018054600181600116156101000203166002900480601f01602080910402602001604051908101604052809291908181526020018280546001816001161561010002031660029004801561163e5780601f106116135761010080835404028352916020019161163e565b820191906000526020600020905b81548152906001019060200180831161162157829003601f168201915b505050505081526020019060010190611596565b505050509350955095509550955095509550909192939495565b600160009054906101000a900473ffffffffffffffffffffffffffffffffffffffff1673ffffffffffffffffffffffffffffffffffffffff16636e9960c36040518163ffffffff167c0100000000000000000000000000000000000000000000000000000000028152600401602060405180830381600087803b1580156116f257600080fd5b505af1158015611706573d6000803e3d6000fd5b505050506040513d601f19601f8201168201806040525061172a9190810190611c2f565b73ffffffffffffffffffffffffffffffffffffffff163373ffffffffffffffffffffffffffffffffffffffff16141515611799576040517f08c379a000000000000000000000000000000000000000000000000000000000815260040161179090612328565b60405180910390fd5b600060038111156117a657fe5b600760009054906101000a900460ff1660038111156117c157fe5b141515611803576040517f08c379a00000000000000000000000000000000000000000000000000000000081526004016117fa90612308565b60405180910390fd5b6001600760006101000a81548160ff0219169083600381111561182257fe5b02179055507fd084c6ae9c7d3dcbaf7ac844e5d1150bc12c7d070a3ffb34cd54ca01a03c136460405161185490612368565b60405180910390a1565b600080821215611892577fffffffffffffffffffffffffffffffffffffffffffffffffffffffffffffffff82029050611896565b8190505b919050565b828054600181600116156101000203166002900490600052602060002090601f016020900481019282601f106118dc57805160ff191683800117855561190a565b8280016001018555821561190a579182015b828111156119095782518255916020019190600101906118ee565b5b509050611917919061197b565b5090565b82805482825590600052602060002090810192821561196a579160200282015b828111156119695782518290805190602001906119599291906119a0565b509160200191906001019061193b565b5b5090506119779190611a20565b5090565b61199d91905b80821115611999576000816000905550600101611981565b5090565b90565b828054600181600116156101000203166002900490600052602060002090601f016020900481019282601f106119e157805160ff1916838001178555611a0f565b82800160010185558215611a0f579182015b82811115611a0e5782518255916020019190600101906119f3565b5b509050611a1c919061197b565b5090565b611a4991905b80821115611a455760008181611a3c9190611a4c565b50600101611a26565b5090565b90565b50805460018160011615610100020316600290046000825580601f10611a725750611a91565b601f016020900490600052602060002090810190611a90919061197b565b5b50565b6000611aa082356124e4565b905092915050565b6000611ab482516124e4565b905092915050565b600082601f8301121515611acf57600080fd5b8135611ae2611add826123f5565b6123c8565b9150818183526020840193506020810190508360005b83811015611b285781358601611b0e8882611b5a565b845260208401935060208301925050600181019050611af8565b5050505092915050565b6000611b3e8235612504565b905092915050565b6000611b528251612504565b905092915050565b600082601f8301121515611b6d57600080fd5b8135611b80611b7b8261241d565b6123c8565b91508082526020830160208301858383011115611b9c57600080fd5b611ba783828461250e565b50505092915050565b600082601f8301121515611bc357600080fd5b8135611bd6611bd182612449565b6123c8565b91508082526020830160208301858383011115611bf257600080fd5b611bfd83828461250e565b50505092915050565b600060208284031215611c1857600080fd5b6000611c2684828501611a94565b91505092915050565b600060208284031215611c4157600080fd5b6000611c4f84828501611aa8565b91505092915050565b60008060408385031215611c6b57600080fd5b6000611c7985828601611a94565b9250506020611c8a85828601611b32565b9150509250929050565b600060208284031215611ca657600080fd5b6000611cb484828501611b46565b91505092915050565b600080600060608486031215611cd257600080fd5b600084013567ffffffffffffffff811115611cec57600080fd5b611cf886828701611bb0565b935050602084013567ffffffffffffffff811115611d1557600080fd5b611d2186828701611bb0565b925050604084013567ffffffffffffffff811115611d3e57600080fd5b611d4a86828701611abc565b9150509250925092565b611d5d816124b0565b82525050565b6000611d6e82612482565b80845260208401935083602082028501611d8785612475565b60005b84811015611dc0578383038852611da2838351611e16565b9250611dad826124a3565b9150602088019750600181019050611d8a565b508196508694505050505092915050565b611dda816124d0565b82525050565b6000611deb82612498565b808452611dff81602086016020860161251d565b611e0881612550565b602085010191505092915050565b6000611e218261248d565b808452611e3581602086016020860161251d565b611e3e81612550565b602085010191505092915050565b6000601a82527f53657373696f6e206973206e6f7420696e2070726f67726573730000000000006020830152604082019050919050565b6000601e82527f53657373696f6e20737461747573206d7573742062652050524943494e4700006020830152604082019050919050565b6000601e82527f5570646174652073657373696f6e2073746174757320746f20434c4f534500006020830152604082019050919050565b6000602b82527f546869732066756e6374696f6e206f6e6c79207061727469636970616e74206360208301527f616e2065786563757465210000000000000000000000000000000000000000006040830152606082019050919050565b6000601782527f5570646174652073657373696f6e2073756363657373210000000000000000006020830152604082019050919050565b6000601e82527f53657373696f6e20737461747573206d757374206265204352454154454400006020830152604082019050919050565b6000602582527f546869732066756e6374696f6e206f6e6c792061646d696e2063616e2065786560208301527f63757465210000000000000000000000000000000000000000000000000000006040830152606082019050919050565b6000601d82527f5570646174652073657373696f6e2073746174757320746f2053544f500000006020830152604082019050919050565b6000602082527f5570646174652073657373696f6e2073746174757320746f2050524943494e476020830152604082019050919050565b6000601082527f50726963696e67207375636365737321000000000000000000000000000000006020830152604082019050919050565b6000601c82527f53657373696f6e20737461747573206d75737420626520434c4f5345000000006020830152604082019050919050565b6000601b82527f46696e616c207072696365206d757374207365742076616c75652100000000006020830152604082019050919050565b612135816124da565b82525050565b60006020820190506121506000830184611d54565b92915050565b600060408201905061216b6000830185611d54565b6121786020830184611dd1565b9392505050565b60006040820190506121946000830184611d54565b81810360208301526121a581612087565b905092915050565b60006020820190506121c26000830184611dd1565b92915050565b600060c08201905081810360008301526121e28189611de0565b905081810360208301526121f68188611de0565b9050818103604083015261220a8187611d63565b9050612219606083018661212c565b6122266080830185611dd1565b61223360a083018461212c565b979650505050505050565b600060608201905081810360008301526122588185611de0565b9050818103602083015261226c8184611de0565b9050818103604083015261227f81611f4e565b90509392505050565b600060208201905081810360008301526122a181611e4c565b9050919050565b600060208201905081810360008301526122c181611e83565b9050919050565b600060208201905081810360008301526122e181611eba565b9050919050565b6000602082019050818103600083015261230181611ef1565b9050919050565b6000602082019050818103600083015261232181611f85565b9050919050565b6000602082019050818103600083015261234181611fbc565b9050919050565b6000602082019050818103600083015261236181612019565b9050919050565b6000602082019050818103600083015261238181612050565b9050919050565b600060208201905081810360008301526123a1816120be565b9050919050565b600060208201905081810360008301526123c1816120f5565b9050919050565b6000604051905081810181811067ffffffffffffffff821117156123eb57600080fd5b8060405250919050565b600067ffffffffffffffff82111561240c57600080fd5b602082029050602081019050919050565b600067ffffffffffffffff82111561243457600080fd5b601f19601f8301169050602081019050919050565b600067ffffffffffffffff82111561246057600080fd5b601f19601f8301169050602081019050919050565b6000602082019050919050565b600081519050919050565b600081519050919050565b600081519050919050565b6000602082019050919050565b600073ffffffffffffffffffffffffffffffffffffffff82169050919050565b6000819050919050565b6000819050919050565b600073ffffffffffffffffffffffffffffffffffffffff82169050919050565b6000819050919050565b82818337600083830152505050565b60005b8381101561253b578082015181840152602081019050612520565b8381111561254a576000848401525b50505050565b6000601f19601f83011690509190505600a265627a7a72305820786b8d13be2109376c02b715d177d46961c55a7cc411a2908991852e81b6fb906c6578706572696d656e74616cf50037",
  "source": "// SPDX-License-Identifier: MIT\r\npragma solidity ^0.4.26;\r\npragma experimental ABIEncoderV2;\r\nimport \"./lib/UtilityLibrary.sol\";\r\n\r\n// Interface of Main contract to call from Session contract\r\ninterface IMain {\r\n    function addSession(address session) external;\r\n    function getAdmin() external view returns (address);\r\n    function getDeviation(address _account) external view returns (int);\r\n    function setDeviation(address _account, int _deviation) external;\r\n    function incrementNumberOfSession(address _account) external;\r\n    function getNumberOfSession(address _account) external view returns(int);\r\n}\r\n\r\ncontract Session {\r\n    // Variable to hold Main Contract Address when create new Session Contract\r\n    address public mainContract;\r\n    // Variable to hold Main Contract instance to call functions from Main\r\n    IMain MainContract;\r\n\r\n    // TODO: Variables\r\n    enum SESSION_STATUS {CREATED, PRICING, CLOSE, STOP}\r\n\r\n    string private productName;\r\n    string private description;\r\n    string[] private images;\r\n    uint private suggestPrice;\r\n    int private finalPrice;\r\n    SESSION_STATUS private status;\r\n    mapping(address => int) private mapParticipantPricings;\r\n    address[] private participantPricings;\r\n\r\n    using UtilityLibrary for int;\r\n\r\n    constructor(\r\n        address _mainContract,\r\n        string memory _productName,\r\n        string memory _description,\r\n        string[] memory _images\r\n    ) public {\r\n        // Get Main Contract instance\r\n        mainContract = _mainContract;\r\n        MainContract = IMain(_mainContract);\r\n\r\n        // TODO: Init Session contract\r\n        productName = _productName;\r\n        description = _description;\r\n        images = _images;\r\n        suggestPrice = 0;\r\n        finalPrice = 0;\r\n        status = SESSION_STATUS.CREATED;\r\n\r\n        // Call Main Contract function to link current contract.\r\n        MainContract.addSession(address(this));\r\n        emit CreateSession(_productName, _description, \"Create session success!\");\r\n    }\r\n\r\n    //Update session.\r\n    function updateSession(string memory _productName, string memory _description, string[] memory _images) public onlyAdmin {\r\n        productName = _productName;\r\n        description = _description;\r\n        images = _images;\r\n        emit UpdateSession(_productName, _description, \"Update session success!\");\r\n    }\r\n\r\n    // TODO: Functions\r\n    // ..CREATED.. -> PRICING -> CLOSE -> STOP\r\n    // Update session status to PRICING.\r\n    function startSession() public onlyAdmin {\r\n        require(status == SESSION_STATUS.CREATED, \"Session status must be CREATED\");\r\n        status = SESSION_STATUS.PRICING;\r\n        emit UpdateSessionStatus(\"Update session status to PRICING\");\r\n    }\r\n\r\n    // Update session status to CLOSE.\r\n    function closeSession() public onlyAdmin {\r\n        require(status == SESSION_STATUS.PRICING, \"Session status must be PRICING\");\r\n        status = SESSION_STATUS.CLOSE;\r\n        emit UpdateSessionStatus(\"Update session status to CLOSE\");\r\n    }\r\n\r\n    // Update session status to STOP.\r\n    function stopSession() public onlyAdmin {\r\n        require(status == SESSION_STATUS.CLOSE, \"Session status must be CLOSE\");\r\n        status = SESSION_STATUS.STOP;\r\n        emit UpdateSessionStatus(\"Update session status to STOP\");\r\n    }\r\n\r\n    // Participant pricing.\r\n    function pricing(address _account, int _price) public onlyParticipant onlyInProgress {\r\n        mapParticipantPricings[_account] = _price;\r\n\r\n        if (mapParticipantPricings[_account] == 0) {\r\n            // check this work?\r\n            participantPricings.push(_account);\r\n            MainContract.incrementNumberOfSession(_account);\r\n        }\r\n\r\n        emit Pricing(_account, \"Pricing success!\");\r\n    }\r\n\r\n    // Get session detail.\r\n    function getSessionDetail() public view returns(string memory, string memory, string[] memory, uint, int, uint) {\r\n        return (productName, description, images, suggestPrice, finalPrice, uint(status));\r\n    }\r\n\r\n    // Calculate suggest price.\r\n    function calculateSuggestPrice() public onlyAdmin {\r\n        int _suggestPrice = 0;\r\n        int _sumOfPriceWithDeviation = 0;\r\n        int _sumOfDeviation = 0;\r\n\r\n        for (uint i = 0; i < participantPricings.length; i++) {\r\n            // TODO: ko co thi return 0\r\n            int _deviation = MainContract.getDeviation(participantPricings[i]);\r\n            _sumOfPriceWithDeviation += mapParticipantPricings[participantPricings[i]] * (100 - _deviation);\r\n            _sumOfDeviation += _deviation;\r\n        }\r\n\r\n        _suggestPrice = _sumOfPriceWithDeviation / ((100 * int(participantPricings.length)) - _sumOfDeviation);\r\n        suggestPrice = uint(_suggestPrice);\r\n    }\r\n\r\n    // Calculate deviation in session.\r\n    function calculateDeviationInSession(address _account) public view onlyAdmin onlyFinalPriceMustSetValue returns (int) {\r\n        int _subDeviation = (finalPrice - mapParticipantPricings[_account]).abs();\r\n\r\n        return (_subDeviation / finalPrice) * 100;\r\n    }\r\n\r\n    // Calculate deviation.\r\n    function calculateDeviationLatest(address _account) public onlyAdmin onlyFinalPriceMustSetValue {\r\n        int _deviation = MainContract.getDeviation(_account);\r\n        int _subDeviation = (_deviation * MainContract.getNumberOfSession(_account)) + calculateDeviationInSession(_account);\r\n        int _newDeviation = _subDeviation / (_deviation + 1);\r\n        MainContract.setDeviation(_account, _newDeviation);\r\n    }\r\n\r\n    // Modify only status is PRICING.\r\n    modifier onlyInProgress {\r\n        require(status == SESSION_STATUS.PRICING, \"Session is not in progress\");\r\n        _;\r\n    }\r\n\r\n    // Modify to check only admin.\r\n    modifier onlyAdmin() {\r\n        require(msg.sender == MainContract.getAdmin(), \"This function only admin can execute!\");\r\n        _;\r\n    }\r\n\r\n    // Modify to check only participant.\r\n    modifier onlyParticipant() {\r\n        // TODO: viet lai modifier nay\r\n        require(msg.sender != MainContract.getAdmin(), \"This function only participant can execute!\");\r\n        _;\r\n    }\r\n\r\n    // Modify finalPrice must set value.\r\n    modifier onlyFinalPriceMustSetValue() {\r\n        require(finalPrice > 0, \"Final price must set value!\");\r\n        _;\r\n    }\r\n\r\n    // Event create session.\r\n    event CreateSession(string _productName, string _description, string _msg);\r\n\r\n    // Event update session.\r\n    event UpdateSession(string _productName, string _description, string _msg);\r\n\r\n    // Event update session status.\r\n    event UpdateSessionStatus(string _msg);\r\n\r\n    // Event pricing.\r\n    event Pricing(address _account, string _msg);\r\n}\r\n",
  "sourcePath": "C:\\Users\\dtvthe\\study\\blockchain\\fx15127-final-project\\truffle\\contracts\\Session.sol",
  "compiler": {
    "name": "solc",
    "version": "0.4.26+commit.4563c3fc.Emscripten.clang"
  },
  "schemaVersion": "3.4.14",
  "updatedAt": "2023-06-21T15:37:57.232Z",
  "devdoc": {
    "methods": {}
  },
  "userdoc": {
    "methods": {}
  }
}