{
  "contractName": "Session",
  "abi": [
    {
      "constant": true,
      "inputs": [],
      "name": "mainContract",
      "outputs": [
        {
          "name": "",
          "type": "address"
        }
      ],
      "payable": false,
      "stateMutability": "view",
      "type": "function"
    },
    {
      "inputs": [
        {
          "name": "_mainContract",
          "type": "address"
        },
        {
          "name": "_productName",
          "type": "string"
        },
        {
          "name": "_description",
          "type": "string"
        },
        {
          "name": "_images",
          "type": "string[]"
        }
      ],
      "payable": false,
      "stateMutability": "nonpayable",
      "type": "constructor"
    },
    {
      "anonymous": false,
      "inputs": [
        {
          "indexed": false,
          "name": "_productName",
          "type": "string"
        },
        {
          "indexed": false,
          "name": "_description",
          "type": "string"
        },
        {
          "indexed": false,
          "name": "_msg",
          "type": "string"
        }
      ],
      "name": "CreateSession",
      "type": "event"
    },
    {
      "anonymous": false,
      "inputs": [
        {
          "indexed": false,
          "name": "_productName",
          "type": "string"
        },
        {
          "indexed": false,
          "name": "_description",
          "type": "string"
        },
        {
          "indexed": false,
          "name": "_msg",
          "type": "string"
        }
      ],
      "name": "UpdateSession",
      "type": "event"
    },
    {
      "anonymous": false,
      "inputs": [
        {
          "indexed": false,
          "name": "_msg",
          "type": "string"
        }
      ],
      "name": "UpdateSessionStatus",
      "type": "event"
    },
    {
      "anonymous": false,
      "inputs": [
        {
          "indexed": false,
          "name": "_account",
          "type": "address"
        },
        {
          "indexed": false,
          "name": "_msg",
          "type": "string"
        }
      ],
      "name": "Pricing",
      "type": "event"
    },
    {
      "constant": false,
      "inputs": [
        {
          "name": "_productName",
          "type": "string"
        },
        {
          "name": "_description",
          "type": "string"
        },
        {
          "name": "_images",
          "type": "string[]"
        }
      ],
      "name": "updateSession",
      "outputs": [],
      "payable": false,
      "stateMutability": "nonpayable",
      "type": "function"
    },
    {
      "constant": false,
      "inputs": [],
      "name": "startSession",
      "outputs": [],
      "payable": false,
      "stateMutability": "nonpayable",
      "type": "function"
    },
    {
      "constant": true,
      "inputs": [],
      "name": "getParticipantPricings",
      "outputs": [
        {
          "name": "",
          "type": "address[]"
        }
      ],
      "payable": false,
      "stateMutability": "view",
      "type": "function"
    },
    {
      "constant": false,
      "inputs": [
        {
          "name": "_price",
          "type": "int256"
        }
      ],
      "name": "pricing",
      "outputs": [],
      "payable": false,
      "stateMutability": "nonpayable",
      "type": "function"
    },
    {
      "constant": true,
      "inputs": [],
      "name": "getSessionDetail",
      "outputs": [
        {
          "name": "",
          "type": "string"
        },
        {
          "name": "",
          "type": "string"
        },
        {
          "name": "",
          "type": "string[]"
        },
        {
          "name": "",
          "type": "uint256"
        },
        {
          "name": "",
          "type": "int256"
        },
        {
          "name": "",
          "type": "uint256"
        }
      ],
      "payable": false,
      "stateMutability": "view",
      "type": "function"
    },
    {
      "constant": true,
      "inputs": [
        {
          "name": "_paticipant",
          "type": "address"
        }
      ],
      "name": "getParticipantPricingExists",
      "outputs": [
        {
          "name": "",
          "type": "bool"
        }
      ],
      "payable": false,
      "stateMutability": "view",
      "type": "function"
    },
    {
      "constant": false,
      "inputs": [
        {
          "name": "_price",
          "type": "int256"
        }
      ],
      "name": "stopSession",
      "outputs": [],
      "payable": false,
      "stateMutability": "nonpayable",
      "type": "function"
    },
    {
      "constant": true,
      "inputs": [],
      "name": "getPricingByParticipant",
      "outputs": [
        {
          "name": "",
          "type": "int256"
        }
      ],
      "payable": false,
      "stateMutability": "view",
      "type": "function"
    }
  ],
  "bytecode": "0x60806040523480156200001157600080fd5b50604051620029b6380380620029b68339810180604052620000379190810190620006c3565b836000806101000a81548173ffffffffffffffffffffffffffffffffffffffff021916908373ffffffffffffffffffffffffffffffffffffffff16021790555083600160006101000a81548173ffffffffffffffffffffffffffffffffffffffff021916908373ffffffffffffffffffffffffffffffffffffffff1602179055508260029080519060200190620000d09291906200032c565b508160039080519060200190620000e99291906200032c565b50806004908051906020019062000102929190620003b3565b50600060058190555060006006819055506000600760006101000a81548160ff021916908360028111156200013357fe5b0217905550600160009054906101000a900473ffffffffffffffffffffffffffffffffffffffff1673ffffffffffffffffffffffffffffffffffffffff16636e9960c36040518163ffffffff167c0100000000000000000000000000000000000000000000000000000000028152600401602060405180830381600087803b158015620001bf57600080fd5b505af1158015620001d4573d6000803e3d6000fd5b505050506040513d601f19601f82011682018060405250620001fa919081019062000697565b600b60006101000a81548173ffffffffffffffffffffffffffffffffffffffff021916908373ffffffffffffffffffffffffffffffffffffffff160217905550600160009054906101000a900473ffffffffffffffffffffffffffffffffffffffff1673ffffffffffffffffffffffffffffffffffffffff1663f390dd86306040518263ffffffff167c0100000000000000000000000000000000000000000000000000000000028152600401620002b39190620007fe565b600060405180830381600087803b158015620002ce57600080fd5b505af1158015620002e3573d6000803e3d6000fd5b505050507f9fe7cb314c08d72e270589aeb0470bb4335133b90e7dfd6f84ed11661496dd3783836040516200031a9291906200081b565b60405180910390a150505050620009ae565b828054600181600116156101000203166002900490600052602060002090601f016020900481019282601f106200036f57805160ff1916838001178555620003a0565b82800160010185558215620003a0579182015b828111156200039f57825182559160200191906001019062000382565b5b509050620003af91906200041a565b5090565b82805482825590600052602060002090810192821562000407579160200282015b8281111562000406578251829080519060200190620003f592919062000442565b5091602001919060010190620003d4565b5b509050620004169190620004c9565b5090565b6200043f91905b808211156200043b57600081600090555060010162000421565b5090565b90565b828054600181600116156101000203166002900490600052602060002090601f016020900481019282601f106200048557805160ff1916838001178555620004b6565b82800160010185558215620004b6579182015b82811115620004b557825182559160200191906001019062000498565b5b509050620004c591906200041a565b5090565b620004f791905b80821115620004f35760008181620004e99190620004fa565b50600101620004d0565b5090565b90565b50805460018160011615610100020316600290046000825580601f1062000522575062000543565b601f0160209004906000526020600020908101906200054291906200041a565b5b50565b600062000554825162000947565b905092915050565b600082601f83011215156200057057600080fd5b815162000587620005818262000899565b6200086b565b9150818183526020840193506020810190508360005b83811015620005d15781518601620005b68882620005db565b8452602084019350602083019250506001810190506200059d565b5050505092915050565b600082601f8301121515620005ef57600080fd5b8151620006066200060082620008c2565b6200086b565b915080825260208301602083018583830111156200062357600080fd5b6200063083828462000967565b50505092915050565b600082601f83011215156200064d57600080fd5b8151620006646200065e82620008ef565b6200086b565b915080825260208301602083018583830111156200068157600080fd5b6200068e83828462000967565b50505092915050565b600060208284031215620006aa57600080fd5b6000620006ba8482850162000546565b91505092915050565b60008060008060808587031215620006da57600080fd5b6000620006ea8782880162000546565b945050602085015167ffffffffffffffff8111156200070857600080fd5b620007168782880162000639565b935050604085015167ffffffffffffffff8111156200073457600080fd5b620007428782880162000639565b925050606085015167ffffffffffffffff8111156200076057600080fd5b6200076e878288016200055c565b91505092959194509250565b620007858162000927565b82525050565b600062000798826200091c565b808452620007ae81602086016020860162000967565b620007b9816200099d565b602085010191505092915050565b6000601782527f4372656174652073657373696f6e2073756363657373210000000000000000006020830152604082019050919050565b60006020820190506200081560008301846200077a565b92915050565b600060608201905081810360008301526200083781856200078b565b905081810360208301526200084d81846200078b565b905081810360408301526200086281620007c7565b90509392505050565b6000604051905081810181811067ffffffffffffffff821117156200088f57600080fd5b8060405250919050565b600067ffffffffffffffff821115620008b157600080fd5b602082029050602081019050919050565b600067ffffffffffffffff821115620008da57600080fd5b601f19601f8301169050602081019050919050565b600067ffffffffffffffff8211156200090757600080fd5b601f19601f8301169050602081019050919050565b600081519050919050565b600073ffffffffffffffffffffffffffffffffffffffff82169050919050565b600073ffffffffffffffffffffffffffffffffffffffff82169050919050565b60005b83811015620009875780820151818401526020810190506200096a565b8381111562000997576000848401525b50505050565b6000601f19601f8301169050919050565b611ff880620009be6000396000f300608060405260043610610099576000357c0100000000000000000000000000000000000000000000000000000000900463ffffffff1680630c640a101461009e5780630e973501146100c95780632e639ee5146100f25780636c38e4c61461011d5780637542040f1461015a578063893e79ba14610183578063d270e7ab146101ac578063f8cb00bf146101d7578063fe0ae16514610207575b600080fd5b3480156100aa57600080fd5b506100b361021e565b6040516100c09190611c59565b60405180910390f35b3480156100d557600080fd5b506100f060048036036100eb919081019061176a565b61035b565b005b3480156100fe57600080fd5b50610107610470565b6040516101149190611c1c565b60405180910390f35b34801561012957600080fd5b50610144600480360361013f91908101906116ef565b6104fe565b6040516101519190611c3e565b60405180910390f35b34801561016657600080fd5b50610181600480360361017c9190810190611718565b610554565b005b34801561018f57600080fd5b506101aa60048036036101a59190810190611718565b6106a3565b005b3480156101b857600080fd5b506101c1610936565b6040516101ce9190611b9c565b60405180910390f35b3480156101e357600080fd5b506101ec61095b565b6040516101fe96959493929190611c74565b60405180910390f35b34801561021357600080fd5b5061021c610bbb565b005b6000600b60009054906101000a900473ffffffffffffffffffffffffffffffffffffffff1673ffffffffffffffffffffffffffffffffffffffff163373ffffffffffffffffffffffffffffffffffffffff16141515156102b3576040517f08c379a00000000000000000000000000000000000000000000000000000000081526004016102aa90611d54565b60405180910390fd5b60011515600960003373ffffffffffffffffffffffffffffffffffffffff1673ffffffffffffffffffffffffffffffffffffffff16815260200190815260200160002060009054906101000a900460ff161515141561035357600860003373ffffffffffffffffffffffffffffffffffffffff1673ffffffffffffffffffffffffffffffffffffffff168152602001908152602001600020549050610358565b600090505b90565b600b60009054906101000a900473ffffffffffffffffffffffffffffffffffffffff1673ffffffffffffffffffffffffffffffffffffffff163373ffffffffffffffffffffffffffffffffffffffff161415156103ed576040517f08c379a00000000000000000000000000000000000000000000000000000000081526004016103e490611d94565b60405180910390fd5b8260029080519060200190610403929190611398565b50816003908051906020019061041a929190611398565b508060049080519060200190610431929190611418565b507f2a5d6d5b2dec1b940dec7f561cf0b8cd2965d265ed7c371349e1d15979b075ab8383604051610463929190611cea565b60405180910390a1505050565b6060600a8054806020026020016040519081016040528092919081815260200182805480156104f457602002820191906000526020600020905b8160009054906101000a900473ffffffffffffffffffffffffffffffffffffffff1673ffffffffffffffffffffffffffffffffffffffff16815260200190600101908083116104aa575b5050505050905090565b6000600960008373ffffffffffffffffffffffffffffffffffffffff1673ffffffffffffffffffffffffffffffffffffffff16815260200190815260200160002060009054906101000a900460ff169050919050565b600b60009054906101000a900473ffffffffffffffffffffffffffffffffffffffff1673ffffffffffffffffffffffffffffffffffffffff163373ffffffffffffffffffffffffffffffffffffffff161415156105e6576040517f08c379a00000000000000000000000000000000000000000000000000000000081526004016105dd90611d94565b60405180910390fd5b600160028111156105f357fe5b600760009054906101000a900460ff16600281111561060e57fe5b141515610650576040517f08c379a000000000000000000000000000000000000000000000000000000000815260040161064790611d34565b60405180910390fd5b6000600a80549050141561068e57806006819055506002600760006101000a81548160ff0219169083600281111561068457fe5b02179055506106a0565b61069781610d12565b61069f610efd565b5b50565b600b60009054906101000a900473ffffffffffffffffffffffffffffffffffffffff1673ffffffffffffffffffffffffffffffffffffffff163373ffffffffffffffffffffffffffffffffffffffff1614151515610736576040517f08c379a000000000000000000000000000000000000000000000000000000000815260040161072d90611d54565b60405180910390fd5b6001600281111561074357fe5b600760009054906101000a900460ff16600281111561075e57fe5b1415156107a0576040517f08c379a000000000000000000000000000000000000000000000000000000000815260040161079790611d34565b60405180910390fd5b60001515600960003373ffffffffffffffffffffffffffffffffffffffff1673ffffffffffffffffffffffffffffffffffffffff16815260200190815260200160002060009054906101000a900460ff16151514156108b8576001600960003373ffffffffffffffffffffffffffffffffffffffff1673ffffffffffffffffffffffffffffffffffffffff16815260200190815260200160002060006101000a81548160ff021916908315150217905550600a3390806001815401808255809150509060018203906000526020600020016000909192909190916101000a81548173ffffffffffffffffffffffffffffffffffffffff021916908373ffffffffffffffffffffffffffffffffffffffff160217905550505b80600860003373ffffffffffffffffffffffffffffffffffffffff1673ffffffffffffffffffffffffffffffffffffffff168152602001908152602001600020819055507f47650289511cf2cfb9b8b559f6e750022263d3a2db072b47698d32df3ac0b8053360405161092b9190611bee565b60405180910390a150565b6000809054906101000a900473ffffffffffffffffffffffffffffffffffffffff1681565b60608060606000806000600260036004600554600654600760009054906101000a900460ff16600281111561098c57fe5b858054600181600116156101000203166002900480601f016020809104026020016040519081016040528092919081815260200182805460018160011615610100020316600290048015610a215780601f106109f657610100808354040283529160200191610a21565b820191906000526020600020905b815481529060010190602001808311610a0457829003601f168201915b50505050509550848054600181600116156101000203166002900480601f016020809104026020016040519081016040528092919081815260200182805460018160011615610100020316600290048015610abd5780601f10610a9257610100808354040283529160200191610abd565b820191906000526020600020905b815481529060010190602001808311610aa057829003601f168201915b5050505050945083805480602002602001604051908101604052809291908181526020016000905b82821015610ba1578382906000526020600020018054600181600116156101000203166002900480601f016020809104026020016040519081016040528092919081815260200182805460018160011615610100020316600290048015610b8d5780601f10610b6257610100808354040283529160200191610b8d565b820191906000526020600020905b815481529060010190602001808311610b7057829003601f168201915b505050505081526020019060010190610ae5565b505050509350955095509550955095509550909192939495565b600b60009054906101000a900473ffffffffffffffffffffffffffffffffffffffff1673ffffffffffffffffffffffffffffffffffffffff163373ffffffffffffffffffffffffffffffffffffffff16141515610c4d576040517f08c379a0000000000000000000000000000000000000000000000000000000008152600401610c4490611d94565b60405180910390fd5b60006002811115610c5a57fe5b600760009054906101000a900460ff166002811115610c7557fe5b141515610cb7576040517f08c379a0000000000000000000000000000000000000000000000000000000008152600401610cae90611d74565b60405180910390fd5b6001600760006101000a81548160ff02191690836002811115610cd657fe5b02179055507fd084c6ae9c7d3dcbaf7ac844e5d1150bc12c7d070a3ffb34cd54ca01a03c1364604051610d0890611db4565b60405180910390a1565b60008060008060008094506000935060009250600091505b600a80549050821015610ecf57600160009054906101000a900473ffffffffffffffffffffffffffffffffffffffff1673ffffffffffffffffffffffffffffffffffffffff1663a33a08b9600a84815481101515610d8457fe5b9060005260206000200160009054906101000a900473ffffffffffffffffffffffffffffffffffffffff166040518263ffffffff167c0100000000000000000000000000000000000000000000000000000000028152600401610de79190611b9c565b602060405180830381600087803b158015610e0157600080fd5b505af1158015610e15573d6000803e3d6000fd5b505050506040513d601f19601f82011682018060405250610e399190810190611741565b90508060640360086000600a85815481101515610e5257fe5b9060005260206000200160009054906101000a900473ffffffffffffffffffffffffffffffffffffffff1673ffffffffffffffffffffffffffffffffffffffff1673ffffffffffffffffffffffffffffffffffffffff16815260200190815260200160002054028401935080830192508180600101925050610d2a565b82600a805490506064020384811515610ee457fe5b0594508460058190555085600681905550505050505050565b600080600080600080600095505b600a8054905086101561126d57600a86815481101515610f2757fe5b9060005260206000200160009054906101000a900473ffffffffffffffffffffffffffffffffffffffff169450600160009054906101000a900473ffffffffffffffffffffffffffffffffffffffff1673ffffffffffffffffffffffffffffffffffffffff1663a33a08b9866040518263ffffffff167c0100000000000000000000000000000000000000000000000000000000028152600401610fcb9190611b9c565b602060405180830381600087803b158015610fe557600080fd5b505af1158015610ff9573d6000803e3d6000fd5b505050506040513d601f19601f8201168201806040525061101d9190810190611741565b9350600160009054906101000a900473ffffffffffffffffffffffffffffffffffffffff1673ffffffffffffffffffffffffffffffffffffffff1663be330868866040518263ffffffff167c01000000000000000000000000000000000000000000000000000000000281526004016110969190611b9c565b602060405180830381600087803b1580156110b057600080fd5b505af11580156110c4573d6000803e3d6000fd5b505050506040513d601f19601f820116820180604052506110e89190810190611741565b92506110f3856112ce565b838502019150600183018281151561110757fe5b059050600160009054906101000a900473ffffffffffffffffffffffffffffffffffffffff1673ffffffffffffffffffffffffffffffffffffffff1663f24685943087846040518463ffffffff167c010000000000000000000000000000000000000000000000000000000002815260040161118593929190611bb7565b600060405180830381600087803b15801561119f57600080fd5b505af11580156111b3573d6000803e3d6000fd5b50505050600160009054906101000a900473ffffffffffffffffffffffffffffffffffffffff1673ffffffffffffffffffffffffffffffffffffffff1663a6829934866040518263ffffffff167c010000000000000000000000000000000000000000000000000000000002815260040161122e9190611b9c565b600060405180830381600087803b15801561124857600080fd5b505af115801561125c573d6000803e3d6000fd5b505050508580600101965050610f0b565b6002600760006101000a81548160ff0219169083600281111561128c57fe5b02179055507fd084c6ae9c7d3dcbaf7ac844e5d1150bc12c7d070a3ffb34cd54ca01a03c13646040516112be90611dd4565b60405180910390a1505050505050565b600080600061131f600860008673ffffffffffffffffffffffffffffffffffffffff1673ffffffffffffffffffffffffffffffffffffffff168152602001908152602001600020546006540361135b565b91506064600654670de0b6b3a7640000840281151561133a57fe5b05029050670de0b6b3a76400008181151561135157fe5b0592505050919050565b60008082121561138f577fffffffffffffffffffffffffffffffffffffffffffffffffffffffffffffffff82029050611393565b8190505b919050565b828054600181600116156101000203166002900490600052602060002090601f016020900481019282601f106113d957805160ff1916838001178555611407565b82800160010185558215611407579182015b828111156114065782518255916020019190600101906113eb565b5b5090506114149190611478565b5090565b828054828255906000526020600020908101928215611467579160200282015b8281111561146657825182908051906020019061145692919061149d565b5091602001919060010190611438565b5b509050611474919061151d565b5090565b61149a91905b8082111561149657600081600090555060010161147e565b5090565b90565b828054600181600116156101000203166002900490600052602060002090601f016020900481019282601f106114de57805160ff191683800117855561150c565b8280016001018555821561150c579182015b8281111561150b5782518255916020019190600101906114f0565b5b5090506115199190611478565b5090565b61154691905b8082111561154257600081816115399190611549565b50600101611523565b5090565b90565b50805460018160011615610100020316600290046000825580601f1061156f575061158e565b601f01602090049060005260206000209081019061158d9190611478565b5b50565b600061159d8235611f41565b905092915050565b600082601f83011215156115b857600080fd5b81356115cb6115c682611e21565b611df4565b9150818183526020840193506020810190508360005b8381101561161157813586016115f78882611643565b8452602084019350602083019250506001810190506115e1565b5050505092915050565b60006116278235611f61565b905092915050565b600061163b8251611f61565b905092915050565b600082601f830112151561165657600080fd5b813561166961166482611e49565b611df4565b9150808252602083016020830185838301111561168557600080fd5b611690838284611f6b565b50505092915050565b600082601f83011215156116ac57600080fd5b81356116bf6116ba82611e75565b611df4565b915080825260208301602083018583830111156116db57600080fd5b6116e6838284611f6b565b50505092915050565b60006020828403121561170157600080fd5b600061170f84828501611591565b91505092915050565b60006020828403121561172a57600080fd5b60006117388482850161161b565b91505092915050565b60006020828403121561175357600080fd5b60006117618482850161162f565b91505092915050565b60008060006060848603121561177f57600080fd5b600084013567ffffffffffffffff81111561179957600080fd5b6117a586828701611699565b935050602084013567ffffffffffffffff8111156117c257600080fd5b6117ce86828701611699565b925050604084013567ffffffffffffffff8111156117eb57600080fd5b6117f7868287016115a5565b9150509250925092565b61180a81611f01565b82525050565b600061181b82611ebb565b80845260208401935061182d83611ea1565b60005b8281101561185f57611843868351611801565b61184c82611ee7565b9150602086019550600181019050611830565b50849250505092915050565b600061187682611ec6565b8084526020840193508360208202850161188f85611eae565b60005b848110156118c85783830388526118aa83835161192d565b92506118b582611ef4565b9150602088019750600181019050611892565b508196508694505050505092915050565b6118e281611f21565b82525050565b6118f181611f2d565b82525050565b600061190282611edc565b808452611916816020860160208601611f7a565b61191f81611fad565b602085010191505092915050565b600061193882611ed1565b80845261194c816020860160208601611f7a565b61195581611fad565b602085010191505092915050565b6000601a82527f53657373696f6e206973206e6f7420696e2070726f67726573730000000000006020830152604082019050919050565b6000602b82527f546869732066756e6374696f6e206f6e6c79207061727469636970616e74206360208301527f616e2065786563757465210000000000000000000000000000000000000000006040830152606082019050919050565b6000601782527f5570646174652073657373696f6e2073756363657373210000000000000000006020830152604082019050919050565b6000601e82527f53657373696f6e20737461747573206d757374206265204352454154454400006020830152604082019050919050565b6000602582527f546869732066756e6374696f6e206f6e6c792061646d696e2063616e2065786560208301527f63757465210000000000000000000000000000000000000000000000000000006040830152606082019050919050565b6000602082527f5570646174652073657373696f6e2073746174757320746f2050524943494e476020830152604082019050919050565b6000601082527f50726963696e67207375636365737321000000000000000000000000000000006020830152604082019050919050565b6000602b82527f43616c63756c61746520616e64207570646174652073657373696f6e2073746160208301527f74757320746f2053544f500000000000000000000000000000000000000000006040830152606082019050919050565b611b9681611f37565b82525050565b6000602082019050611bb16000830184611801565b92915050565b6000606082019050611bcc6000830186611801565b611bd96020830185611801565b611be660408301846118e8565b949350505050565b6000604082019050611c036000830184611801565b8181036020830152611c1481611af9565b905092915050565b60006020820190508181036000830152611c368184611810565b905092915050565b6000602082019050611c5360008301846118d9565b92915050565b6000602082019050611c6e60008301846118e8565b92915050565b600060c0820190508181036000830152611c8e81896118f7565b90508181036020830152611ca281886118f7565b90508181036040830152611cb6818761186b565b9050611cc56060830186611b8d565b611cd260808301856118e8565b611cdf60a0830184611b8d565b979650505050505050565b60006060820190508181036000830152611d0481856118f7565b90508181036020830152611d1881846118f7565b90508181036040830152611d2b816119f7565b90509392505050565b60006020820190508181036000830152611d4d81611963565b9050919050565b60006020820190508181036000830152611d6d8161199a565b9050919050565b60006020820190508181036000830152611d8d81611a2e565b9050919050565b60006020820190508181036000830152611dad81611a65565b9050919050565b60006020820190508181036000830152611dcd81611ac2565b9050919050565b60006020820190508181036000830152611ded81611b30565b9050919050565b6000604051905081810181811067ffffffffffffffff82111715611e1757600080fd5b8060405250919050565b600067ffffffffffffffff821115611e3857600080fd5b602082029050602081019050919050565b600067ffffffffffffffff821115611e6057600080fd5b601f19601f8301169050602081019050919050565b600067ffffffffffffffff821115611e8c57600080fd5b601f19601f8301169050602081019050919050565b6000602082019050919050565b6000602082019050919050565b600081519050919050565b600081519050919050565b600081519050919050565b600081519050919050565b6000602082019050919050565b6000602082019050919050565b600073ffffffffffffffffffffffffffffffffffffffff82169050919050565b60008115159050919050565b6000819050919050565b6000819050919050565b600073ffffffffffffffffffffffffffffffffffffffff82169050919050565b6000819050919050565b82818337600083830152505050565b60005b83811015611f98578082015181840152602081019050611f7d565b83811115611fa7576000848401525b50505050565b6000601f19601f83011690509190505600a265627a7a7230582056e63141f1cac4608d89dc256f8a40e5b5fbdb8b2a49f21e86a4cb97b310eb586c6578706572696d656e74616cf50037",
  "source": "// SPDX-License-Identifier: MIT\npragma solidity ^0.4.26;\npragma experimental ABIEncoderV2;\nimport \"./lib/UtilityLibrary.sol\";\n\n// Interface of Main contract to call from Session contract\ninterface IMain {\n    function addSession(address session) external;\n    function getAdmin() external view returns (address);\n    function getDeviation(address _account) external view returns (int);\n    function setDeviation(address _session, address _account, int _deviation) external;\n    function incrementNumberOfSession(address _account) external;\n    function getNumberOfSession(address _account) external view returns(int);\n}\n\ncontract Session {\n    // Variable to hold Main Contract Address when create new Session Contract\n    address public mainContract;\n    // Variable to hold Main Contract instance to call functions from Main\n    IMain MainContract;\n\n    // TODO: Variables\n    enum SESSION_STATUS {CREATED, PRICING, STOP}\n\n    string private productName;\n    string private description;\n    string[] private images;\n    uint private suggestPrice;\n    int private finalPrice;\n    SESSION_STATUS private status;\n    mapping(address => int) private mapParticipantPricings;\n    mapping(address => bool) private isParticipantPricingExists;\n    address[] private participantPricings;\n    address private adminAddr;\n\n    using UtilityLibrary for int;\n\n    constructor(\n        address _mainContract,\n        string memory _productName,\n        string memory _description,\n        string[] memory _images\n    ) public {\n        // Get Main Contract instance\n        mainContract = _mainContract;\n        MainContract = IMain(_mainContract);\n\n        // TODO: Init Session contract\n        productName = _productName;\n        description = _description;\n        images = _images;\n        suggestPrice = 0;\n        finalPrice = 0;\n        status = SESSION_STATUS.CREATED;\n        adminAddr = MainContract.getAdmin();\n\n        // Call Main Contract function to link current contract.\n        MainContract.addSession(address(this));\n        emit CreateSession(_productName, _description, \"Create session success!\");\n    }\n\n    //Update session.\n    function updateSession(string memory _productName, string memory _description, string[] memory _images) public onlyAdmin {\n        productName = _productName;\n        description = _description;\n        images = _images;\n        emit UpdateSession(_productName, _description, \"Update session success!\");\n    }\n\n    // TODO: Functions\n    // ..CREATED.. -> PRICING -> STOP\n    // Update session status to PRICING.\n    function startSession() public onlyAdmin {\n        require(status == SESSION_STATUS.CREATED, \"Session status must be CREATED\");\n        status = SESSION_STATUS.PRICING;\n        emit UpdateSessionStatus(\"Update session status to PRICING\");\n    }\n\n    // Get participant pricings.\n    function getParticipantPricings() public view returns (address[] memory) {\n        return participantPricings;\n    }\n\n    // Participant pricing.\n    function pricing(int _price) public onlyParticipant onlyInProgress {\n        if (isParticipantPricingExists[msg.sender] == false) {\n            isParticipantPricingExists[msg.sender] = true;\n            participantPricings.push(msg.sender);\n        }\n\n        mapParticipantPricings[msg.sender] = _price;\n        emit Pricing(msg.sender, \"Pricing success!\");\n    }\n\n    // Get session detail.\n    function getSessionDetail() public view returns(string memory, string memory, string[] memory, uint, int, uint) {\n        return (productName, description, images, suggestPrice, finalPrice, uint(status));\n    }\n\n    // Get Participant pricing exists.\n    function getParticipantPricingExists(address _paticipant) public view returns (bool) {\n        return isParticipantPricingExists[_paticipant];\n    }\n\n    // Calculate suggest price.\n    function calculateSuggestPrice(int _price) private {\n        int _suggestPrice = 0;\n        int _sumOfPriceWithDeviation = 0;\n        int _sumOfDeviation = 0;\n\n        for (uint i = 0; i < participantPricings.length; i++) {\n            int _deviation = MainContract.getDeviation(participantPricings[i]);\n            _sumOfPriceWithDeviation += mapParticipantPricings[participantPricings[i]] * (100 - _deviation);\n            _sumOfDeviation += _deviation;\n        }\n\n        _suggestPrice = _sumOfPriceWithDeviation / ((100 * int(participantPricings.length)) - _sumOfDeviation);\n        suggestPrice = uint(_suggestPrice);\n        finalPrice = _price;\n    }\n\n    // Calculate deviation in session.\n    function calculateDeviationInSession(address _account) private view returns (int) {\n        int _subDeviation = (finalPrice - mapParticipantPricings[_account]).abs();\n        int _subDeviationResult = ((_subDeviation * 10**18) / finalPrice) * 100;\n\n        return _subDeviationResult / 10**18;\n    }\n\n    // Calculate deviation.\n    function calculateDeviationLatestAndStop() private {\n        for (uint i = 0; i < participantPricings.length; i++) {\n            address _account = participantPricings[i];\n            int _deviation = MainContract.getDeviation(_account);\n            int _numberOfSession = MainContract.getNumberOfSession(_account);\n            int _subDeviation = (_deviation * _numberOfSession) + calculateDeviationInSession(_account);\n            int _newDeviation = _subDeviation / (_numberOfSession + 1);\n            MainContract.setDeviation(address(this), _account, _newDeviation);\n            MainContract.incrementNumberOfSession(_account);\n        }\n\n        status = SESSION_STATUS.STOP;\n        emit UpdateSessionStatus(\"Calculate and update session status to STOP\");\n    }\n\n    // Stop session and calculate deviation on each participant.\n    function stopSession(int _price) public onlyAdmin onlyInProgress {\n        if (participantPricings.length == 0) {\n            finalPrice = _price;\n            status = SESSION_STATUS.STOP;\n        } else {\n            calculateSuggestPrice(_price);\n            calculateDeviationLatestAndStop();\n        }\n    }\n\n    // Get participant pricing\n    function getPricingByParticipant() public onlyParticipant view returns(int) {\n        if (isParticipantPricingExists[msg.sender] == true) {\n            return mapParticipantPricings[msg.sender];\n        } else {\n            return 0;\n        }\n    }\n\n    // Modify only status is PRICING.\n    modifier onlyInProgress {\n        require(status == SESSION_STATUS.PRICING, \"Session is not in progress\");\n        _;\n    }\n\n    // Modify to check only admin.\n    modifier onlyAdmin() {\n        require(msg.sender == adminAddr, \"This function only admin can execute!\");\n        _;\n    }\n\n    // Modify to check only participant.\n    modifier onlyParticipant() {\n        require(msg.sender != adminAddr, \"This function only participant can execute!\");\n        _;\n    }\n\n    // Event create session.\n    event CreateSession(string _productName, string _description, string _msg);\n\n    // Event update session.\n    event UpdateSession(string _productName, string _description, string _msg);\n\n    // Event update session status.\n    event UpdateSessionStatus(string _msg);\n\n    // Event pricing.\n    event Pricing(address _account, string _msg);\n}\n",
  "sourcePath": "/Users/damthe/study/blockchain/fx15127-final-project/truffle/contracts/Session.sol",
  "compiler": {
    "name": "solc",
    "version": "0.4.26+commit.4563c3fc.Emscripten.clang"
  },
  "schemaVersion": "3.4.10",
  "updatedAt": "2023-07-07T05:17:54.565Z",
  "devdoc": {
    "methods": {}
  },
  "userdoc": {
    "methods": {}
  }
}