{
	"data": {
		"bytecode": {
			"linkReferences": {},
			"object": "608060405234801561000f575f80fd5b5060405161224938038061224983398101604081905261002e9161005e565b5f80546001600160a81b0319163360ff60a01b191617600160a01b60ff9390931692909202919091179055610085565b5f6020828403121561006e575f80fd5b815160ff8116811461007e575f80fd5b9392505050565b6121b7806100925f395ff3fe608060405234801562000010575f80fd5b506004361062000090575f3560e01c8063b4007700116200005f578063b4007700146200011a578063dfafe10f1462000131578063f390dd861462000148578063f851a44014620001aa575f80fd5b8063195ec9ee14620000945780636e9960c314620000b65780637143059f14620000db578063936312181462000101575b5f80fd5b6200009e620001bd565b604051620000ad9190620009ed565b60405180910390f35b5f546001600160a01b03165b6040516001600160a01b039091168152602001620000ad565b620000f2620000ec36600462000a6d565b6200044c565b604051620000ad919062000a90565b620001186200011236600462000b5f565b620005d5565b005b620001186200012b36600462000c74565b6200067e565b620001186200014236600462000a6d565b62000702565b620001186200015936600462000a6d565b600380546001810182555f919091527fc2575a0e9e593c00f959f8c92f12db2869c3395a3b0502d05e2516446f71f85b0180546001600160a01b0319166001600160a01b0392909216919091179055565b5f54620000c2906001600160a01b031681565b5f546060906001600160a01b03163314620001f55760405162461bcd60e51b8152600401620001ec9062000cec565b60405180910390fd5b6002545f9067ffffffffffffffff81111562000215576200021562000aa4565b6040519080825280602002602001820160405280156200025257816020015b6200023e620008fb565b815260200190600190039081620002345790505b5090505f5b60025460ff82161015620004465760015f60028360ff168154811062000281576200028162000d31565b5f9182526020808320909101546001600160a01b039081168452838201949094526040928301909120825160a081019093528054909316825260018301805492939291840191620002d29062000d45565b80601f0160208091040260200160405190810160405280929190818152602001828054620003009062000d45565b80156200034f5780601f1062000325576101008083540402835291602001916200034f565b820191905f5260205f20905b8154815290600101906020018083116200033157829003601f168201915b505050505081526020016002820180546200036a9062000d45565b80601f0160208091040260200160405190810160405280929190818152602001828054620003989062000d45565b8015620003e75780601f10620003bd57610100808354040283529160200191620003e7565b820191905f5260205f20905b815481529060010190602001808311620003c957829003601f168201915b50505091835250506003820154602082015260049091015460ff90811660409092019190915283518491841690811062000425576200042562000d31565b602002602001018190525080806200043d9062000d7f565b91505062000257565b50905090565b62000456620008fb565b6001600160a01b038083165f90815260016020818152604092839020835160a0810190945280549094168352908301805492939291840191620004999062000d45565b80601f0160208091040260200160405190810160405280929190818152602001828054620004c79062000d45565b8015620005165780601f10620004ec5761010080835404028352916020019162000516565b820191905f5260205f20905b815481529060010190602001808311620004f857829003601f168201915b50505050508152602001600282018054620005319062000d45565b80601f01602080910402602001604051908101604052809291908181526020018280546200055f9062000d45565b8015620005ae5780601f106200058457610100808354040283529160200191620005ae565b820191905f5260205f20905b8154815290600101906020018083116200059057829003601f168201915b50505091835250506003820154602082015260049091015460ff1660409091015292915050565b5f546001600160a01b03163314620006015760405162461bcd60e51b8152600401620001ec9062000cec565b30838383604051620006139062000933565b62000622949392919062000daa565b604051809103905ff0801580156200063c573d5f803e3d5ffd5b50507f51c5e9dfa67879da5fab182fdd91303f7c5d1a38598aefb2216af7339ac32a1383836040516200067192919062000e49565b60405180910390a1505050565b6001600160a01b0383165f90815260016020819052604090912001620006a5838262000ecc565b506001600160a01b0383165f908152600160205260409020600201620006cc828262000ecc565b507f3bc63a1a560da32e0aab62ddb386a3bbfb7ac6d4531d5dd65fb1505a16a784b4838383604051620006719392919062000f95565b5f546001600160a01b031633146200072e5760405162461bcd60e51b8152600401620001ec9062000cec565b5f54600254600160a01b90910460ff1611620007855760405162461bcd60e51b81526020600482015260156024820152744f6e6c79206372656174652031302075736572732160581b6044820152606401620001ec565b6040805160a0810182526001600160a01b038381168083528351602080820186525f8083528186019283528651808301885281815286880152606086018190526080860181905292835260019081905294909120835181546001600160a01b031916931692909217825551919290919082019062000804908262000ecc565b50604082015160028201906200081b908262000ecc565b5060608281015160038301556080928301516004909201805460ff191660ff90931692909217909155600280546001810182555f919091527f405787fa12a823e0f2b7631cc41b3ba8828b3321ca811111fa75cd3aa3bb5ace0180546001600160a01b0319166001600160a01b03851690811790915560408051918252602082018190526018908201527f416464207061727469636970616e742073756363657373210000000000000000918101919091527f7a274ad5ebae6fdc80650d34a4e01c874e099afaca3b6e8c896edc5b9126651b910160405180910390a150565b6040518060a001604052805f6001600160a01b0316815260200160608152602001606081526020015f81526020015f60ff1681525090565b6111a98062000fd983390190565b5f81518084525f5b81811015620009675760208185018101518683018201520162000949565b505f602082860101526020601f19601f83011685010191505092915050565b60018060a01b0381511682525f602082015160a06020850152620009ae60a085018262000941565b905060408301518482036040860152620009c9828262000941565b9150506060830151606085015260ff60808401511660808501528091505092915050565b5f602080830181845280855180835260408601915060408160051b87010192508387015f5b8281101562000a4457603f1988860301845262000a3185835162000986565b9450928501929085019060010162000a12565b5092979650505050505050565b80356001600160a01b038116811462000a68575f80fd5b919050565b5f6020828403121562000a7e575f80fd5b62000a898262000a51565b9392505050565b602081525f62000a89602083018462000986565b634e487b7160e01b5f52604160045260245ffd5b604051601f8201601f1916810167ffffffffffffffff8111828210171562000ae45762000ae462000aa4565b604052919050565b5f82601f83011262000afc575f80fd5b813567ffffffffffffffff81111562000b195762000b1962000aa4565b62000b2e601f8201601f191660200162000ab8565b81815284602083860101111562000b43575f80fd5b816020850160208301375f918101602001919091529392505050565b5f805f6060848603121562000b72575f80fd5b833567ffffffffffffffff8082111562000b8a575f80fd5b62000b988783880162000aec565b945060209150818601358181111562000baf575f80fd5b62000bbd8882890162000aec565b94505060408601358181111562000bd2575f80fd5b8601601f8101881362000be3575f80fd5b80358281111562000bf85762000bf862000aa4565b8060051b62000c0985820162000ab8565b918252828101850191858101908b84111562000c23575f80fd5b86850192505b8383101562000c635782358681111562000c42575f8081fd5b62000c528d898389010162000aec565b835250918601919086019062000c29565b809750505050505050509250925092565b5f805f6060848603121562000c87575f80fd5b62000c928462000a51565b9250602084013567ffffffffffffffff8082111562000caf575f80fd5b62000cbd8783880162000aec565b9350604086013591508082111562000cd3575f80fd5b5062000ce28682870162000aec565b9150509250925092565b60208082526025908201527f546869732066756e6374696f6e206f6e6c792061646d696e2063616e20657865604082015264637574652160d81b606082015260800190565b634e487b7160e01b5f52603260045260245ffd5b600181811c9082168062000d5a57607f821691505b60208210810362000d7957634e487b7160e01b5f52602260045260245ffd5b50919050565b5f60ff821660ff810362000da157634e487b7160e01b5f52601160045260245ffd5b60010192915050565b6001600160a01b0385168152608060208083018290525f9162000dd09084018762000941565b838103604085015262000de4818762000941565b905083810360608501528085518083528383019150838160051b8401018488015f5b8381101562000e3857601f1986840301855262000e2583835162000941565b9487019492509086019060010162000e06565b50909b9a5050505050505050505050565b604081525f62000e5d604083018562000941565b828103602084015262000e71818562000941565b95945050505050565b601f82111562000ec7575f81815260208120601f850160051c8101602086101562000ea25750805b601f850160051c820191505b8181101562000ec35782815560010162000eae565b5050505b505050565b815167ffffffffffffffff81111562000ee95762000ee962000aa4565b62000f018162000efa845462000d45565b8462000e7a565b602080601f83116001811462000f37575f841562000f1f5750858301515b5f19600386901b1c1916600185901b17855562000ec3565b5f85815260208120601f198616915b8281101562000f675788860151825594840194600190910190840162000f46565b508582101562000f8557878501515f19600388901b60f8161c191681555b5050505050600190811b01905550565b6001600160a01b03841681526060602082018190525f9062000fba9083018562000941565b828103604084015262000fce818562000941565b969550505050505056fe608060405234801562000010575f80fd5b50604051620011a9380380620011a98339810160408190526200003391620002a7565b5f80546001600160a01b0386166001600160a01b0319918216811790925560018054909116909117905560026200006b84826200046a565b5060036200007a83826200046a565b5080516200009090600490602084019062000108565b505f60058190556006556007805460ff191690556001546040516379c86ec360e11b81523060048201526001600160a01b039091169063f390dd86906024015f604051808303815f87803b158015620000e7575f80fd5b505af1158015620000fa573d5f803e3d5ffd5b505050505050505062000532565b828054828255905f5260205f2090810192821562000151579160200282015b828111156200015157825182906200014090826200046a565b509160200191906001019062000127565b506200015f92915062000163565b5090565b808211156200015f575f62000179828262000183565b5060010162000163565b5080546200019190620003de565b5f825580601f10620001a1575050565b601f0160209004905f5260205f2090810190620001bf9190620001c2565b50565b5b808211156200015f575f8155600101620001c3565b634e487b7160e01b5f52604160045260245ffd5b604051601f8201601f191681016001600160401b0381118282101715620002175762000217620001d8565b604052919050565b5f82601f8301126200022f575f80fd5b81516001600160401b038111156200024b576200024b620001d8565b602062000261601f8301601f19168201620001ec565b828152858284870101111562000275575f80fd5b5f5b838110156200029457858101830151828201840152820162000277565b505f928101909101919091529392505050565b5f805f8060808587031215620002bb575f80fd5b84516001600160a01b0381168114620002d2575f80fd5b602086810151919550906001600160401b0380821115620002f1575f80fd5b620002ff89838a016200021f565b9550604088015191508082111562000315575f80fd5b6200032389838a016200021f565b9450606088015191508082111562000339575f80fd5b818801915088601f8301126200034d575f80fd5b815181811115620003625762000362620001d8565b8060051b62000373858201620001ec565b918252838101850191858101908c8411156200038d575f80fd5b86860192505b83831015620003cd57825185811115620003ac575f8081fd5b620003bc8e89838a01016200021f565b835250918601919086019062000393565b999c989b5096995050505050505050565b600181811c90821680620003f357607f821691505b6020821081036200041257634e487b7160e01b5f52602260045260245ffd5b50919050565b601f82111562000465575f81815260208120601f850160051c81016020861015620004405750805b601f850160051c820191505b8181101562000461578281556001016200044c565b5050505b505050565b81516001600160401b03811115620004865762000486620001d8565b6200049e81620004978454620003de565b8462000418565b602080601f831160018114620004d4575f8415620004bc5750858301515b5f19600386901b1c1916600185901b17855562000461565b5f85815260208120601f198616915b828110156200050457888601518255948401946001909101908401620004e3565b50858210156200052257878501515f19600388901b60f8161c191681555b5050505050600190811b01905550565b610c6980620005405f395ff3fe608060405234801561000f575f80fd5b5060043610610060575f3560e01c806306f4bcbf146100645780630e9735011461006e578063a7960a2814610081578063d270e7ab14610094578063f8cb00bf146100c3578063fe0ae165146100dc575b5f80fd5b61006c6100e4565b005b61006c61007c366004610860565b6101a8565b61006c61008f366004610975565b61027f565b5f546100a6906001600160a01b031681565b6040516001600160a01b0390911681526020015b60405180910390f35b6100cb610434565b6040516100ba9594939291906109e2565b61006c61063a565b60015f9054906101000a90046001600160a01b03166001600160a01b0316636e9960c36040518163ffffffff1660e01b8152600401602060405180830381865afa158015610134573d5f803e3d5ffd5b505050506040513d601f19601f820116820180604052508101906101589190610a76565b6001600160a01b0316336001600160a01b0316146101915760405162461bcd60e51b815260040161018890610a98565b60405180910390fd5b600780546002919060ff19166001835b0217905550565b60015f9054906101000a90046001600160a01b03166001600160a01b0316636e9960c36040518163ffffffff1660e01b8152600401602060405180830381865afa1580156101f8573d5f803e3d5ffd5b505050506040513d601f19601f8201168201806040525081019061021c9190610a76565b6001600160a01b0316336001600160a01b03161461024c5760405162461bcd60e51b815260040161018890610a98565b60026102588482610b77565b5060036102658382610b77565b5080516102799060049060208401906106f1565b50505050565b60015f9054906101000a90046001600160a01b03166001600160a01b0316636e9960c36040518163ffffffff1660e01b8152600401602060405180830381865afa1580156102cf573d5f803e3d5ffd5b505050506040513d601f19601f820116820180604052508101906102f39190610a76565b6001600160a01b0316330361035e5760405162461bcd60e51b815260206004820152602b60248201527f546869732066756e6374696f6e206f6e6c79207061727469636970616e74206360448201526a616e20657865637574652160a81b6064820152608401610188565b600160075460ff16600281111561037757610377610add565b146103c45760405162461bcd60e51b815260206004820152601a60248201527f53657373696f6e206973206e6f7420696e2070726f67726573730000000000006044820152606401610188565b6001600160a01b0382165f90815260086020526040812082905581900361043057600980546001810182555f919091527f6e1540171b6c0c960b71a7020d9f60077f6af931a8bbf590da0223dacf75c7af0180546001600160a01b0319166001600160a01b0384161790555b5050565b60608060605f8060026003600460055460065484805461045390610af1565b80601f016020809104026020016040519081016040528092919081815260200182805461047f90610af1565b80156104ca5780601f106104a1576101008083540402835291602001916104ca565b820191905f5260205f20905b8154815290600101906020018083116104ad57829003601f168201915b505050505094508380546104dd90610af1565b80601f016020809104026020016040519081016040528092919081815260200182805461050990610af1565b80156105545780601f1061052b57610100808354040283529160200191610554565b820191905f5260205f20905b81548152906001019060200180831161053757829003601f168201915b5050505050935082805480602002602001604051908101604052809291908181526020015f905b82821015610623578382905f5260205f2001805461059890610af1565b80601f01602080910402602001604051908101604052809291908181526020018280546105c490610af1565b801561060f5780601f106105e65761010080835404028352916020019161060f565b820191905f5260205f20905b8154815290600101906020018083116105f257829003601f168201915b50505050508152602001906001019061057b565b505050509250945094509450945094509091929394565b60015f9054906101000a90046001600160a01b03166001600160a01b0316636e9960c36040518163ffffffff1660e01b8152600401602060405180830381865afa15801561068a573d5f803e3d5ffd5b505050506040513d601f19601f820116820180604052508101906106ae9190610a76565b6001600160a01b0316336001600160a01b0316146106de5760405162461bcd60e51b815260040161018890610a98565b600780546001919060ff191682806101a1565b828054828255905f5260205f20908101928215610735579160200282015b8281111561073557825182906107259082610b77565b509160200191906001019061070f565b50610741929150610745565b5090565b80821115610741575f6107588282610761565b50600101610745565b50805461076d90610af1565b5f825580601f1061077c575050565b601f0160209004905f5260205f2090810190610798919061079b565b50565b5b80821115610741575f815560010161079c565b634e487b7160e01b5f52604160045260245ffd5b604051601f8201601f1916810167ffffffffffffffff811182821017156107ec576107ec6107af565b604052919050565b5f82601f830112610803575f80fd5b813567ffffffffffffffff81111561081d5761081d6107af565b610830601f8201601f19166020016107c3565b818152846020838601011115610844575f80fd5b816020850160208301375f918101602001919091529392505050565b5f805f60608486031215610872575f80fd5b833567ffffffffffffffff80821115610889575f80fd5b610895878388016107f4565b94506020915081860135818111156108ab575f80fd5b6108b7888289016107f4565b9450506040860135818111156108cb575f80fd5b8601601f810188136108db575f80fd5b8035828111156108ed576108ed6107af565b8060051b6108fc8582016107c3565b918252828101850191858101908b841115610915575f80fd5b86850192505b8383101561095057823586811115610932575f8081fd5b6109408d89838901016107f4565b835250918601919086019061091b565b809750505050505050509250925092565b6001600160a01b0381168114610798575f80fd5b5f8060408385031215610986575f80fd5b823561099181610961565b946020939093013593505050565b5f81518084525f5b818110156109c3576020818501810151868301820152016109a7565b505f602082860101526020601f19601f83011685010191505092915050565b60a081525f6109f460a083018861099f565b602083820381850152610a07828961099f565b915083820360408501528187518084528284019150828160051b850101838a015f5b83811015610a5757601f19878403018552610a4583835161099f565b94860194925090850190600101610a29565b5050606087019890985250505050608090910191909152509392505050565b5f60208284031215610a86575f80fd5b8151610a9181610961565b9392505050565b60208082526025908201527f546869732066756e6374696f6e206f6e6c792061646d696e2063616e20657865604082015264637574652160d81b606082015260800190565b634e487b7160e01b5f52602160045260245ffd5b600181811c90821680610b0557607f821691505b602082108103610b2357634e487b7160e01b5f52602260045260245ffd5b50919050565b601f821115610b72575f81815260208120601f850160051c81016020861015610b4f5750805b601f850160051c820191505b81811015610b6e57828155600101610b5b565b5050505b505050565b815167ffffffffffffffff811115610b9157610b916107af565b610ba581610b9f8454610af1565b84610b29565b602080601f831160018114610bd8575f8415610bc15750858301515b5f19600386901b1c1916600185901b178555610b6e565b5f85815260208120601f198616915b82811015610c0657888601518255948401946001909101908401610be7565b5085821015610c2357878501515f19600388901b60f8161c191681555b5050505050600190811b0190555056fea26469706673582212205ee775fc203a97492bed68e029626c6b1514b580005fb9613a2d9661995beb2f64736f6c63430008140033a26469706673582212203c4d37bad9b5d463cfc7f14bfa3a56741970ac5b2d867e65cdef9707112cae0564736f6c63430008140033",
			"opcodes": "PUSH1 0x80 PUSH1 0x40 MSTORE CALLVALUE DUP1 ISZERO PUSH2 0xF JUMPI PUSH0 DUP1 REVERT JUMPDEST POP PUSH1 0x40 MLOAD PUSH2 0x2249 CODESIZE SUB DUP1 PUSH2 0x2249 DUP4 CODECOPY DUP2 ADD PUSH1 0x40 DUP2 SWAP1 MSTORE PUSH2 0x2E SWAP2 PUSH2 0x5E JUMP JUMPDEST PUSH0 DUP1 SLOAD PUSH1 0x1 PUSH1 0x1 PUSH1 0xA8 SHL SUB NOT AND CALLER PUSH1 0xFF PUSH1 0xA0 SHL NOT AND OR PUSH1 0x1 PUSH1 0xA0 SHL PUSH1 0xFF SWAP4 SWAP1 SWAP4 AND SWAP3 SWAP1 SWAP3 MUL SWAP2 SWAP1 SWAP2 OR SWAP1 SSTORE PUSH2 0x85 JUMP JUMPDEST PUSH0 PUSH1 0x20 DUP3 DUP5 SUB SLT ISZERO PUSH2 0x6E JUMPI PUSH0 DUP1 REVERT JUMPDEST DUP2 MLOAD PUSH1 0xFF DUP2 AND DUP2 EQ PUSH2 0x7E JUMPI PUSH0 DUP1 REVERT JUMPDEST SWAP4 SWAP3 POP POP POP JUMP JUMPDEST PUSH2 0x21B7 DUP1 PUSH2 0x92 PUSH0 CODECOPY PUSH0 RETURN INVALID PUSH1 0x80 PUSH1 0x40 MSTORE CALLVALUE DUP1 ISZERO PUSH3 0x10 JUMPI PUSH0 DUP1 REVERT JUMPDEST POP PUSH1 0x4 CALLDATASIZE LT PUSH3 0x90 JUMPI PUSH0 CALLDATALOAD PUSH1 0xE0 SHR DUP1 PUSH4 0xB4007700 GT PUSH3 0x5F JUMPI DUP1 PUSH4 0xB4007700 EQ PUSH3 0x11A JUMPI DUP1 PUSH4 0xDFAFE10F EQ PUSH3 0x131 JUMPI DUP1 PUSH4 0xF390DD86 EQ PUSH3 0x148 JUMPI DUP1 PUSH4 0xF851A440 EQ PUSH3 0x1AA JUMPI PUSH0 DUP1 REVERT JUMPDEST DUP1 PUSH4 0x195EC9EE EQ PUSH3 0x94 JUMPI DUP1 PUSH4 0x6E9960C3 EQ PUSH3 0xB6 JUMPI DUP1 PUSH4 0x7143059F EQ PUSH3 0xDB JUMPI DUP1 PUSH4 0x93631218 EQ PUSH3 0x101 JUMPI JUMPDEST PUSH0 DUP1 REVERT JUMPDEST PUSH3 0x9E PUSH3 0x1BD JUMP JUMPDEST PUSH1 0x40 MLOAD PUSH3 0xAD SWAP2 SWAP1 PUSH3 0x9ED JUMP JUMPDEST PUSH1 0x40 MLOAD DUP1 SWAP2 SUB SWAP1 RETURN JUMPDEST PUSH0 SLOAD PUSH1 0x1 PUSH1 0x1 PUSH1 0xA0 SHL SUB AND JUMPDEST PUSH1 0x40 MLOAD PUSH1 0x1 PUSH1 0x1 PUSH1 0xA0 SHL SUB SWAP1 SWAP2 AND DUP2 MSTORE PUSH1 0x20 ADD PUSH3 0xAD JUMP JUMPDEST PUSH3 0xF2 PUSH3 0xEC CALLDATASIZE PUSH1 0x4 PUSH3 0xA6D JUMP JUMPDEST PUSH3 0x44C JUMP JUMPDEST PUSH1 0x40 MLOAD PUSH3 0xAD SWAP2 SWAP1 PUSH3 0xA90 JUMP JUMPDEST PUSH3 0x118 PUSH3 0x112 CALLDATASIZE PUSH1 0x4 PUSH3 0xB5F JUMP JUMPDEST PUSH3 0x5D5 JUMP JUMPDEST STOP JUMPDEST PUSH3 0x118 PUSH3 0x12B CALLDATASIZE PUSH1 0x4 PUSH3 0xC74 JUMP JUMPDEST PUSH3 0x67E JUMP JUMPDEST PUSH3 0x118 PUSH3 0x142 CALLDATASIZE PUSH1 0x4 PUSH3 0xA6D JUMP JUMPDEST PUSH3 0x702 JUMP JUMPDEST PUSH3 0x118 PUSH3 0x159 CALLDATASIZE PUSH1 0x4 PUSH3 0xA6D JUMP JUMPDEST PUSH1 0x3 DUP1 SLOAD PUSH1 0x1 DUP2 ADD DUP3 SSTORE PUSH0 SWAP2 SWAP1 SWAP2 MSTORE PUSH32 0xC2575A0E9E593C00F959F8C92F12DB2869C3395A3B0502D05E2516446F71F85B ADD DUP1 SLOAD PUSH1 0x1 PUSH1 0x1 PUSH1 0xA0 SHL SUB NOT AND PUSH1 0x1 PUSH1 0x1 PUSH1 0xA0 SHL SUB SWAP3 SWAP1 SWAP3 AND SWAP2 SWAP1 SWAP2 OR SWAP1 SSTORE JUMP JUMPDEST PUSH0 SLOAD PUSH3 0xC2 SWAP1 PUSH1 0x1 PUSH1 0x1 PUSH1 0xA0 SHL SUB AND DUP2 JUMP JUMPDEST PUSH0 SLOAD PUSH1 0x60 SWAP1 PUSH1 0x1 PUSH1 0x1 PUSH1 0xA0 SHL SUB AND CALLER EQ PUSH3 0x1F5 JUMPI PUSH1 0x40 MLOAD PUSH3 0x461BCD PUSH1 0xE5 SHL DUP2 MSTORE PUSH1 0x4 ADD PUSH3 0x1EC SWAP1 PUSH3 0xCEC JUMP JUMPDEST PUSH1 0x40 MLOAD DUP1 SWAP2 SUB SWAP1 REVERT JUMPDEST PUSH1 0x2 SLOAD PUSH0 SWAP1 PUSH8 0xFFFFFFFFFFFFFFFF DUP2 GT ISZERO PUSH3 0x215 JUMPI PUSH3 0x215 PUSH3 0xAA4 JUMP JUMPDEST PUSH1 0x40 MLOAD SWAP1 DUP1 DUP3 MSTORE DUP1 PUSH1 0x20 MUL PUSH1 0x20 ADD DUP3 ADD PUSH1 0x40 MSTORE DUP1 ISZERO PUSH3 0x252 JUMPI DUP2 PUSH1 0x20 ADD JUMPDEST PUSH3 0x23E PUSH3 0x8FB JUMP JUMPDEST DUP2 MSTORE PUSH1 0x20 ADD SWAP1 PUSH1 0x1 SWAP1 SUB SWAP1 DUP2 PUSH3 0x234 JUMPI SWAP1 POP JUMPDEST POP SWAP1 POP PUSH0 JUMPDEST PUSH1 0x2 SLOAD PUSH1 0xFF DUP3 AND LT ISZERO PUSH3 0x446 JUMPI PUSH1 0x1 PUSH0 PUSH1 0x2 DUP4 PUSH1 0xFF AND DUP2 SLOAD DUP2 LT PUSH3 0x281 JUMPI PUSH3 0x281 PUSH3 0xD31 JUMP JUMPDEST PUSH0 SWAP2 DUP3 MSTORE PUSH1 0x20 DUP1 DUP4 KECCAK256 SWAP1 SWAP2 ADD SLOAD PUSH1 0x1 PUSH1 0x1 PUSH1 0xA0 SHL SUB SWAP1 DUP2 AND DUP5 MSTORE DUP4 DUP3 ADD SWAP5 SWAP1 SWAP5 MSTORE PUSH1 0x40 SWAP3 DUP4 ADD SWAP1 SWAP2 KECCAK256 DUP3 MLOAD PUSH1 0xA0 DUP2 ADD SWAP1 SWAP4 MSTORE DUP1 SLOAD SWAP1 SWAP4 AND DUP3 MSTORE PUSH1 0x1 DUP4 ADD DUP1 SLOAD SWAP3 SWAP4 SWAP3 SWAP2 DUP5 ADD SWAP2 PUSH3 0x2D2 SWAP1 PUSH3 0xD45 JUMP JUMPDEST DUP1 PUSH1 0x1F ADD PUSH1 0x20 DUP1 SWAP2 DIV MUL PUSH1 0x20 ADD PUSH1 0x40 MLOAD SWAP1 DUP2 ADD PUSH1 0x40 MSTORE DUP1 SWAP3 SWAP2 SWAP1 DUP2 DUP2 MSTORE PUSH1 0x20 ADD DUP3 DUP1 SLOAD PUSH3 0x300 SWAP1 PUSH3 0xD45 JUMP JUMPDEST DUP1 ISZERO PUSH3 0x34F JUMPI DUP1 PUSH1 0x1F LT PUSH3 0x325 JUMPI PUSH2 0x100 DUP1 DUP4 SLOAD DIV MUL DUP4 MSTORE SWAP2 PUSH1 0x20 ADD SWAP2 PUSH3 0x34F JUMP JUMPDEST DUP3 ADD SWAP2 SWAP1 PUSH0 MSTORE PUSH1 0x20 PUSH0 KECCAK256 SWAP1 JUMPDEST DUP2 SLOAD DUP2 MSTORE SWAP1 PUSH1 0x1 ADD SWAP1 PUSH1 0x20 ADD DUP1 DUP4 GT PUSH3 0x331 JUMPI DUP3 SWAP1 SUB PUSH1 0x1F AND DUP3 ADD SWAP2 JUMPDEST POP POP POP POP POP DUP2 MSTORE PUSH1 0x20 ADD PUSH1 0x2 DUP3 ADD DUP1 SLOAD PUSH3 0x36A SWAP1 PUSH3 0xD45 JUMP JUMPDEST DUP1 PUSH1 0x1F ADD PUSH1 0x20 DUP1 SWAP2 DIV MUL PUSH1 0x20 ADD PUSH1 0x40 MLOAD SWAP1 DUP2 ADD PUSH1 0x40 MSTORE DUP1 SWAP3 SWAP2 SWAP1 DUP2 DUP2 MSTORE PUSH1 0x20 ADD DUP3 DUP1 SLOAD PUSH3 0x398 SWAP1 PUSH3 0xD45 JUMP JUMPDEST DUP1 ISZERO PUSH3 0x3E7 JUMPI DUP1 PUSH1 0x1F LT PUSH3 0x3BD JUMPI PUSH2 0x100 DUP1 DUP4 SLOAD DIV MUL DUP4 MSTORE SWAP2 PUSH1 0x20 ADD SWAP2 PUSH3 0x3E7 JUMP JUMPDEST DUP3 ADD SWAP2 SWAP1 PUSH0 MSTORE PUSH1 0x20 PUSH0 KECCAK256 SWAP1 JUMPDEST DUP2 SLOAD DUP2 MSTORE SWAP1 PUSH1 0x1 ADD SWAP1 PUSH1 0x20 ADD DUP1 DUP4 GT PUSH3 0x3C9 JUMPI DUP3 SWAP1 SUB PUSH1 0x1F AND DUP3 ADD SWAP2 JUMPDEST POP POP POP SWAP2 DUP4 MSTORE POP POP PUSH1 0x3 DUP3 ADD SLOAD PUSH1 0x20 DUP3 ADD MSTORE PUSH1 0x4 SWAP1 SWAP2 ADD SLOAD PUSH1 0xFF SWAP1 DUP2 AND PUSH1 0x40 SWAP1 SWAP3 ADD SWAP2 SWAP1 SWAP2 MSTORE DUP4 MLOAD DUP5 SWAP2 DUP5 AND SWAP1 DUP2 LT PUSH3 0x425 JUMPI PUSH3 0x425 PUSH3 0xD31 JUMP JUMPDEST PUSH1 0x20 MUL PUSH1 0x20 ADD ADD DUP2 SWAP1 MSTORE POP DUP1 DUP1 PUSH3 0x43D SWAP1 PUSH3 0xD7F JUMP JUMPDEST SWAP2 POP POP PUSH3 0x257 JUMP JUMPDEST POP SWAP1 POP SWAP1 JUMP JUMPDEST PUSH3 0x456 PUSH3 0x8FB JUMP JUMPDEST PUSH1 0x1 PUSH1 0x1 PUSH1 0xA0 SHL SUB DUP1 DUP4 AND PUSH0 SWAP1 DUP2 MSTORE PUSH1 0x1 PUSH1 0x20 DUP2 DUP2 MSTORE PUSH1 0x40 SWAP3 DUP4 SWAP1 KECCAK256 DUP4 MLOAD PUSH1 0xA0 DUP2 ADD SWAP1 SWAP5 MSTORE DUP1 SLOAD SWAP1 SWAP5 AND DUP4 MSTORE SWAP1 DUP4 ADD DUP1 SLOAD SWAP3 SWAP4 SWAP3 SWAP2 DUP5 ADD SWAP2 PUSH3 0x499 SWAP1 PUSH3 0xD45 JUMP JUMPDEST DUP1 PUSH1 0x1F ADD PUSH1 0x20 DUP1 SWAP2 DIV MUL PUSH1 0x20 ADD PUSH1 0x40 MLOAD SWAP1 DUP2 ADD PUSH1 0x40 MSTORE DUP1 SWAP3 SWAP2 SWAP1 DUP2 DUP2 MSTORE PUSH1 0x20 ADD DUP3 DUP1 SLOAD PUSH3 0x4C7 SWAP1 PUSH3 0xD45 JUMP JUMPDEST DUP1 ISZERO PUSH3 0x516 JUMPI DUP1 PUSH1 0x1F LT PUSH3 0x4EC JUMPI PUSH2 0x100 DUP1 DUP4 SLOAD DIV MUL DUP4 MSTORE SWAP2 PUSH1 0x20 ADD SWAP2 PUSH3 0x516 JUMP JUMPDEST DUP3 ADD SWAP2 SWAP1 PUSH0 MSTORE PUSH1 0x20 PUSH0 KECCAK256 SWAP1 JUMPDEST DUP2 SLOAD DUP2 MSTORE SWAP1 PUSH1 0x1 ADD SWAP1 PUSH1 0x20 ADD DUP1 DUP4 GT PUSH3 0x4F8 JUMPI DUP3 SWAP1 SUB PUSH1 0x1F AND DUP3 ADD SWAP2 JUMPDEST POP POP POP POP POP DUP2 MSTORE PUSH1 0x20 ADD PUSH1 0x2 DUP3 ADD DUP1 SLOAD PUSH3 0x531 SWAP1 PUSH3 0xD45 JUMP JUMPDEST DUP1 PUSH1 0x1F ADD PUSH1 0x20 DUP1 SWAP2 DIV MUL PUSH1 0x20 ADD PUSH1 0x40 MLOAD SWAP1 DUP2 ADD PUSH1 0x40 MSTORE DUP1 SWAP3 SWAP2 SWAP1 DUP2 DUP2 MSTORE PUSH1 0x20 ADD DUP3 DUP1 SLOAD PUSH3 0x55F SWAP1 PUSH3 0xD45 JUMP JUMPDEST DUP1 ISZERO PUSH3 0x5AE JUMPI DUP1 PUSH1 0x1F LT PUSH3 0x584 JUMPI PUSH2 0x100 DUP1 DUP4 SLOAD DIV MUL DUP4 MSTORE SWAP2 PUSH1 0x20 ADD SWAP2 PUSH3 0x5AE JUMP JUMPDEST DUP3 ADD SWAP2 SWAP1 PUSH0 MSTORE PUSH1 0x20 PUSH0 KECCAK256 SWAP1 JUMPDEST DUP2 SLOAD DUP2 MSTORE SWAP1 PUSH1 0x1 ADD SWAP1 PUSH1 0x20 ADD DUP1 DUP4 GT PUSH3 0x590 JUMPI DUP3 SWAP1 SUB PUSH1 0x1F AND DUP3 ADD SWAP2 JUMPDEST POP POP POP SWAP2 DUP4 MSTORE POP POP PUSH1 0x3 DUP3 ADD SLOAD PUSH1 0x20 DUP3 ADD MSTORE PUSH1 0x4 SWAP1 SWAP2 ADD SLOAD PUSH1 0xFF AND PUSH1 0x40 SWAP1 SWAP2 ADD MSTORE SWAP3 SWAP2 POP POP JUMP JUMPDEST PUSH0 SLOAD PUSH1 0x1 PUSH1 0x1 PUSH1 0xA0 SHL SUB AND CALLER EQ PUSH3 0x601 JUMPI PUSH1 0x40 MLOAD PUSH3 0x461BCD PUSH1 0xE5 SHL DUP2 MSTORE PUSH1 0x4 ADD PUSH3 0x1EC SWAP1 PUSH3 0xCEC JUMP JUMPDEST ADDRESS DUP4 DUP4 DUP4 PUSH1 0x40 MLOAD PUSH3 0x613 SWAP1 PUSH3 0x933 JUMP JUMPDEST PUSH3 0x622 SWAP5 SWAP4 SWAP3 SWAP2 SWAP1 PUSH3 0xDAA JUMP JUMPDEST PUSH1 0x40 MLOAD DUP1 SWAP2 SUB SWAP1 PUSH0 CREATE DUP1 ISZERO DUP1 ISZERO PUSH3 0x63C JUMPI RETURNDATASIZE PUSH0 DUP1 RETURNDATACOPY RETURNDATASIZE PUSH0 REVERT JUMPDEST POP POP PUSH32 0x51C5E9DFA67879DA5FAB182FDD91303F7C5D1A38598AEFB2216AF7339AC32A13 DUP4 DUP4 PUSH1 0x40 MLOAD PUSH3 0x671 SWAP3 SWAP2 SWAP1 PUSH3 0xE49 JUMP JUMPDEST PUSH1 0x40 MLOAD DUP1 SWAP2 SUB SWAP1 LOG1 POP POP POP JUMP JUMPDEST PUSH1 0x1 PUSH1 0x1 PUSH1 0xA0 SHL SUB DUP4 AND PUSH0 SWAP1 DUP2 MSTORE PUSH1 0x1 PUSH1 0x20 DUP2 SWAP1 MSTORE PUSH1 0x40 SWAP1 SWAP2 KECCAK256 ADD PUSH3 0x6A5 DUP4 DUP3 PUSH3 0xECC JUMP JUMPDEST POP PUSH1 0x1 PUSH1 0x1 PUSH1 0xA0 SHL SUB DUP4 AND PUSH0 SWAP1 DUP2 MSTORE PUSH1 0x1 PUSH1 0x20 MSTORE PUSH1 0x40 SWAP1 KECCAK256 PUSH1 0x2 ADD PUSH3 0x6CC DUP3 DUP3 PUSH3 0xECC JUMP JUMPDEST POP PUSH32 0x3BC63A1A560DA32E0AAB62DDB386A3BBFB7AC6D4531D5DD65FB1505A16A784B4 DUP4 DUP4 DUP4 PUSH1 0x40 MLOAD PUSH3 0x671 SWAP4 SWAP3 SWAP2 SWAP1 PUSH3 0xF95 JUMP JUMPDEST PUSH0 SLOAD PUSH1 0x1 PUSH1 0x1 PUSH1 0xA0 SHL SUB AND CALLER EQ PUSH3 0x72E JUMPI PUSH1 0x40 MLOAD PUSH3 0x461BCD PUSH1 0xE5 SHL DUP2 MSTORE PUSH1 0x4 ADD PUSH3 0x1EC SWAP1 PUSH3 0xCEC JUMP JUMPDEST PUSH0 SLOAD PUSH1 0x2 SLOAD PUSH1 0x1 PUSH1 0xA0 SHL SWAP1 SWAP2 DIV PUSH1 0xFF AND GT PUSH3 0x785 JUMPI PUSH1 0x40 MLOAD PUSH3 0x461BCD PUSH1 0xE5 SHL DUP2 MSTORE PUSH1 0x20 PUSH1 0x4 DUP3 ADD MSTORE PUSH1 0x15 PUSH1 0x24 DUP3 ADD MSTORE PUSH21 0x4F6E6C792063726561746520313020757365727321 PUSH1 0x58 SHL PUSH1 0x44 DUP3 ADD MSTORE PUSH1 0x64 ADD PUSH3 0x1EC JUMP JUMPDEST PUSH1 0x40 DUP1 MLOAD PUSH1 0xA0 DUP2 ADD DUP3 MSTORE PUSH1 0x1 PUSH1 0x1 PUSH1 0xA0 SHL SUB DUP4 DUP2 AND DUP1 DUP4 MSTORE DUP4 MLOAD PUSH1 0x20 DUP1 DUP3 ADD DUP7 MSTORE PUSH0 DUP1 DUP4 MSTORE DUP2 DUP7 ADD SWAP3 DUP4 MSTORE DUP7 MLOAD DUP1 DUP4 ADD DUP9 MSTORE DUP2 DUP2 MSTORE DUP7 DUP9 ADD MSTORE PUSH1 0x60 DUP7 ADD DUP2 SWAP1 MSTORE PUSH1 0x80 DUP7 ADD DUP2 SWAP1 MSTORE SWAP3 DUP4 MSTORE PUSH1 0x1 SWAP1 DUP2 SWAP1 MSTORE SWAP5 SWAP1 SWAP2 KECCAK256 DUP4 MLOAD DUP2 SLOAD PUSH1 0x1 PUSH1 0x1 PUSH1 0xA0 SHL SUB NOT AND SWAP4 AND SWAP3 SWAP1 SWAP3 OR DUP3 SSTORE MLOAD SWAP2 SWAP3 SWAP1 SWAP2 SWAP1 DUP3 ADD SWAP1 PUSH3 0x804 SWAP1 DUP3 PUSH3 0xECC JUMP JUMPDEST POP PUSH1 0x40 DUP3 ADD MLOAD PUSH1 0x2 DUP3 ADD SWAP1 PUSH3 0x81B SWAP1 DUP3 PUSH3 0xECC JUMP JUMPDEST POP PUSH1 0x60 DUP3 DUP2 ADD MLOAD PUSH1 0x3 DUP4 ADD SSTORE PUSH1 0x80 SWAP3 DUP4 ADD MLOAD PUSH1 0x4 SWAP1 SWAP3 ADD DUP1 SLOAD PUSH1 0xFF NOT AND PUSH1 0xFF SWAP1 SWAP4 AND SWAP3 SWAP1 SWAP3 OR SWAP1 SWAP2 SSTORE PUSH1 0x2 DUP1 SLOAD PUSH1 0x1 DUP2 ADD DUP3 SSTORE PUSH0 SWAP2 SWAP1 SWAP2 MSTORE PUSH32 0x405787FA12A823E0F2B7631CC41B3BA8828B3321CA811111FA75CD3AA3BB5ACE ADD DUP1 SLOAD PUSH1 0x1 PUSH1 0x1 PUSH1 0xA0 SHL SUB NOT AND PUSH1 0x1 PUSH1 0x1 PUSH1 0xA0 SHL SUB DUP6 AND SWAP1 DUP2 OR SWAP1 SWAP2 SSTORE PUSH1 0x40 DUP1 MLOAD SWAP2 DUP3 MSTORE PUSH1 0x20 DUP3 ADD DUP2 SWAP1 MSTORE PUSH1 0x18 SWAP1 DUP3 ADD MSTORE PUSH32 0x416464207061727469636970616E742073756363657373210000000000000000 SWAP2 DUP2 ADD SWAP2 SWAP1 SWAP2 MSTORE PUSH32 0x7A274AD5EBAE6FDC80650D34A4E01C874E099AFACA3B6E8C896EDC5B9126651B SWAP2 ADD PUSH1 0x40 MLOAD DUP1 SWAP2 SUB SWAP1 LOG1 POP JUMP JUMPDEST PUSH1 0x40 MLOAD DUP1 PUSH1 0xA0 ADD PUSH1 0x40 MSTORE DUP1 PUSH0 PUSH1 0x1 PUSH1 0x1 PUSH1 0xA0 SHL SUB AND DUP2 MSTORE PUSH1 0x20 ADD PUSH1 0x60 DUP2 MSTORE PUSH1 0x20 ADD PUSH1 0x60 DUP2 MSTORE PUSH1 0x20 ADD PUSH0 DUP2 MSTORE PUSH1 0x20 ADD PUSH0 PUSH1 0xFF AND DUP2 MSTORE POP SWAP1 JUMP JUMPDEST PUSH2 0x11A9 DUP1 PUSH3 0xFD9 DUP4 CODECOPY ADD SWAP1 JUMP JUMPDEST PUSH0 DUP2 MLOAD DUP1 DUP5 MSTORE PUSH0 JUMPDEST DUP2 DUP2 LT ISZERO PUSH3 0x967 JUMPI PUSH1 0x20 DUP2 DUP6 ADD DUP2 ADD MLOAD DUP7 DUP4 ADD DUP3 ADD MSTORE ADD PUSH3 0x949 JUMP JUMPDEST POP PUSH0 PUSH1 0x20 DUP3 DUP7 ADD ADD MSTORE PUSH1 0x20 PUSH1 0x1F NOT PUSH1 0x1F DUP4 ADD AND DUP6 ADD ADD SWAP2 POP POP SWAP3 SWAP2 POP POP JUMP JUMPDEST PUSH1 0x1 DUP1 PUSH1 0xA0 SHL SUB DUP2 MLOAD AND DUP3 MSTORE PUSH0 PUSH1 0x20 DUP3 ADD MLOAD PUSH1 0xA0 PUSH1 0x20 DUP6 ADD MSTORE PUSH3 0x9AE PUSH1 0xA0 DUP6 ADD DUP3 PUSH3 0x941 JUMP JUMPDEST SWAP1 POP PUSH1 0x40 DUP4 ADD MLOAD DUP5 DUP3 SUB PUSH1 0x40 DUP7 ADD MSTORE PUSH3 0x9C9 DUP3 DUP3 PUSH3 0x941 JUMP JUMPDEST SWAP2 POP POP PUSH1 0x60 DUP4 ADD MLOAD PUSH1 0x60 DUP6 ADD MSTORE PUSH1 0xFF PUSH1 0x80 DUP5 ADD MLOAD AND PUSH1 0x80 DUP6 ADD MSTORE DUP1 SWAP2 POP POP SWAP3 SWAP2 POP POP JUMP JUMPDEST PUSH0 PUSH1 0x20 DUP1 DUP4 ADD DUP2 DUP5 MSTORE DUP1 DUP6 MLOAD DUP1 DUP4 MSTORE PUSH1 0x40 DUP7 ADD SWAP2 POP PUSH1 0x40 DUP2 PUSH1 0x5 SHL DUP8 ADD ADD SWAP3 POP DUP4 DUP8 ADD PUSH0 JUMPDEST DUP3 DUP2 LT ISZERO PUSH3 0xA44 JUMPI PUSH1 0x3F NOT DUP9 DUP7 SUB ADD DUP5 MSTORE PUSH3 0xA31 DUP6 DUP4 MLOAD PUSH3 0x986 JUMP JUMPDEST SWAP5 POP SWAP3 DUP6 ADD SWAP3 SWAP1 DUP6 ADD SWAP1 PUSH1 0x1 ADD PUSH3 0xA12 JUMP JUMPDEST POP SWAP3 SWAP8 SWAP7 POP POP POP POP POP POP POP JUMP JUMPDEST DUP1 CALLDATALOAD PUSH1 0x1 PUSH1 0x1 PUSH1 0xA0 SHL SUB DUP2 AND DUP2 EQ PUSH3 0xA68 JUMPI PUSH0 DUP1 REVERT JUMPDEST SWAP2 SWAP1 POP JUMP JUMPDEST PUSH0 PUSH1 0x20 DUP3 DUP5 SUB SLT ISZERO PUSH3 0xA7E JUMPI PUSH0 DUP1 REVERT JUMPDEST PUSH3 0xA89 DUP3 PUSH3 0xA51 JUMP JUMPDEST SWAP4 SWAP3 POP POP POP JUMP JUMPDEST PUSH1 0x20 DUP2 MSTORE PUSH0 PUSH3 0xA89 PUSH1 0x20 DUP4 ADD DUP5 PUSH3 0x986 JUMP JUMPDEST PUSH4 0x4E487B71 PUSH1 0xE0 SHL PUSH0 MSTORE PUSH1 0x41 PUSH1 0x4 MSTORE PUSH1 0x24 PUSH0 REVERT JUMPDEST PUSH1 0x40 MLOAD PUSH1 0x1F DUP3 ADD PUSH1 0x1F NOT AND DUP2 ADD PUSH8 0xFFFFFFFFFFFFFFFF DUP2 GT DUP3 DUP3 LT OR ISZERO PUSH3 0xAE4 JUMPI PUSH3 0xAE4 PUSH3 0xAA4 JUMP JUMPDEST PUSH1 0x40 MSTORE SWAP2 SWAP1 POP JUMP JUMPDEST PUSH0 DUP3 PUSH1 0x1F DUP4 ADD SLT PUSH3 0xAFC JUMPI PUSH0 DUP1 REVERT JUMPDEST DUP2 CALLDATALOAD PUSH8 0xFFFFFFFFFFFFFFFF DUP2 GT ISZERO PUSH3 0xB19 JUMPI PUSH3 0xB19 PUSH3 0xAA4 JUMP JUMPDEST PUSH3 0xB2E PUSH1 0x1F DUP3 ADD PUSH1 0x1F NOT AND PUSH1 0x20 ADD PUSH3 0xAB8 JUMP JUMPDEST DUP2 DUP2 MSTORE DUP5 PUSH1 0x20 DUP4 DUP7 ADD ADD GT ISZERO PUSH3 0xB43 JUMPI PUSH0 DUP1 REVERT JUMPDEST DUP2 PUSH1 0x20 DUP6 ADD PUSH1 0x20 DUP4 ADD CALLDATACOPY PUSH0 SWAP2 DUP2 ADD PUSH1 0x20 ADD SWAP2 SWAP1 SWAP2 MSTORE SWAP4 SWAP3 POP POP POP JUMP JUMPDEST PUSH0 DUP1 PUSH0 PUSH1 0x60 DUP5 DUP7 SUB SLT ISZERO PUSH3 0xB72 JUMPI PUSH0 DUP1 REVERT JUMPDEST DUP4 CALLDATALOAD PUSH8 0xFFFFFFFFFFFFFFFF DUP1 DUP3 GT ISZERO PUSH3 0xB8A JUMPI PUSH0 DUP1 REVERT JUMPDEST PUSH3 0xB98 DUP8 DUP4 DUP9 ADD PUSH3 0xAEC JUMP JUMPDEST SWAP5 POP PUSH1 0x20 SWAP2 POP DUP2 DUP7 ADD CALLDATALOAD DUP2 DUP2 GT ISZERO PUSH3 0xBAF JUMPI PUSH0 DUP1 REVERT JUMPDEST PUSH3 0xBBD DUP9 DUP3 DUP10 ADD PUSH3 0xAEC JUMP JUMPDEST SWAP5 POP POP PUSH1 0x40 DUP7 ADD CALLDATALOAD DUP2 DUP2 GT ISZERO PUSH3 0xBD2 JUMPI PUSH0 DUP1 REVERT JUMPDEST DUP7 ADD PUSH1 0x1F DUP2 ADD DUP9 SGT PUSH3 0xBE3 JUMPI PUSH0 DUP1 REVERT JUMPDEST DUP1 CALLDATALOAD DUP3 DUP2 GT ISZERO PUSH3 0xBF8 JUMPI PUSH3 0xBF8 PUSH3 0xAA4 JUMP JUMPDEST DUP1 PUSH1 0x5 SHL PUSH3 0xC09 DUP6 DUP3 ADD PUSH3 0xAB8 JUMP JUMPDEST SWAP2 DUP3 MSTORE DUP3 DUP2 ADD DUP6 ADD SWAP2 DUP6 DUP2 ADD SWAP1 DUP12 DUP5 GT ISZERO PUSH3 0xC23 JUMPI PUSH0 DUP1 REVERT JUMPDEST DUP7 DUP6 ADD SWAP3 POP JUMPDEST DUP4 DUP4 LT ISZERO PUSH3 0xC63 JUMPI DUP3 CALLDATALOAD DUP7 DUP2 GT ISZERO PUSH3 0xC42 JUMPI PUSH0 DUP1 DUP2 REVERT JUMPDEST PUSH3 0xC52 DUP14 DUP10 DUP4 DUP10 ADD ADD PUSH3 0xAEC JUMP JUMPDEST DUP4 MSTORE POP SWAP2 DUP7 ADD SWAP2 SWAP1 DUP7 ADD SWAP1 PUSH3 0xC29 JUMP JUMPDEST DUP1 SWAP8 POP POP POP POP POP POP POP POP SWAP3 POP SWAP3 POP SWAP3 JUMP JUMPDEST PUSH0 DUP1 PUSH0 PUSH1 0x60 DUP5 DUP7 SUB SLT ISZERO PUSH3 0xC87 JUMPI PUSH0 DUP1 REVERT JUMPDEST PUSH3 0xC92 DUP5 PUSH3 0xA51 JUMP JUMPDEST SWAP3 POP PUSH1 0x20 DUP5 ADD CALLDATALOAD PUSH8 0xFFFFFFFFFFFFFFFF DUP1 DUP3 GT ISZERO PUSH3 0xCAF JUMPI PUSH0 DUP1 REVERT JUMPDEST PUSH3 0xCBD DUP8 DUP4 DUP9 ADD PUSH3 0xAEC JUMP JUMPDEST SWAP4 POP PUSH1 0x40 DUP7 ADD CALLDATALOAD SWAP2 POP DUP1 DUP3 GT ISZERO PUSH3 0xCD3 JUMPI PUSH0 DUP1 REVERT JUMPDEST POP PUSH3 0xCE2 DUP7 DUP3 DUP8 ADD PUSH3 0xAEC JUMP JUMPDEST SWAP2 POP POP SWAP3 POP SWAP3 POP SWAP3 JUMP JUMPDEST PUSH1 0x20 DUP1 DUP3 MSTORE PUSH1 0x25 SWAP1 DUP3 ADD MSTORE PUSH32 0x546869732066756E6374696F6E206F6E6C792061646D696E2063616E20657865 PUSH1 0x40 DUP3 ADD MSTORE PUSH5 0x6375746521 PUSH1 0xD8 SHL PUSH1 0x60 DUP3 ADD MSTORE PUSH1 0x80 ADD SWAP1 JUMP JUMPDEST PUSH4 0x4E487B71 PUSH1 0xE0 SHL PUSH0 MSTORE PUSH1 0x32 PUSH1 0x4 MSTORE PUSH1 0x24 PUSH0 REVERT JUMPDEST PUSH1 0x1 DUP2 DUP2 SHR SWAP1 DUP3 AND DUP1 PUSH3 0xD5A JUMPI PUSH1 0x7F DUP3 AND SWAP2 POP JUMPDEST PUSH1 0x20 DUP3 LT DUP2 SUB PUSH3 0xD79 JUMPI PUSH4 0x4E487B71 PUSH1 0xE0 SHL PUSH0 MSTORE PUSH1 0x22 PUSH1 0x4 MSTORE PUSH1 0x24 PUSH0 REVERT JUMPDEST POP SWAP2 SWAP1 POP JUMP JUMPDEST PUSH0 PUSH1 0xFF DUP3 AND PUSH1 0xFF DUP2 SUB PUSH3 0xDA1 JUMPI PUSH4 0x4E487B71 PUSH1 0xE0 SHL PUSH0 MSTORE PUSH1 0x11 PUSH1 0x4 MSTORE PUSH1 0x24 PUSH0 REVERT JUMPDEST PUSH1 0x1 ADD SWAP3 SWAP2 POP POP JUMP JUMPDEST PUSH1 0x1 PUSH1 0x1 PUSH1 0xA0 SHL SUB DUP6 AND DUP2 MSTORE PUSH1 0x80 PUSH1 0x20 DUP1 DUP4 ADD DUP3 SWAP1 MSTORE PUSH0 SWAP2 PUSH3 0xDD0 SWAP1 DUP5 ADD DUP8 PUSH3 0x941 JUMP JUMPDEST DUP4 DUP2 SUB PUSH1 0x40 DUP6 ADD MSTORE PUSH3 0xDE4 DUP2 DUP8 PUSH3 0x941 JUMP JUMPDEST SWAP1 POP DUP4 DUP2 SUB PUSH1 0x60 DUP6 ADD MSTORE DUP1 DUP6 MLOAD DUP1 DUP4 MSTORE DUP4 DUP4 ADD SWAP2 POP DUP4 DUP2 PUSH1 0x5 SHL DUP5 ADD ADD DUP5 DUP9 ADD PUSH0 JUMPDEST DUP4 DUP2 LT ISZERO PUSH3 0xE38 JUMPI PUSH1 0x1F NOT DUP7 DUP5 SUB ADD DUP6 MSTORE PUSH3 0xE25 DUP4 DUP4 MLOAD PUSH3 0x941 JUMP JUMPDEST SWAP5 DUP8 ADD SWAP5 SWAP3 POP SWAP1 DUP7 ADD SWAP1 PUSH1 0x1 ADD PUSH3 0xE06 JUMP JUMPDEST POP SWAP1 SWAP12 SWAP11 POP POP POP POP POP POP POP POP POP POP POP JUMP JUMPDEST PUSH1 0x40 DUP2 MSTORE PUSH0 PUSH3 0xE5D PUSH1 0x40 DUP4 ADD DUP6 PUSH3 0x941 JUMP JUMPDEST DUP3 DUP2 SUB PUSH1 0x20 DUP5 ADD MSTORE PUSH3 0xE71 DUP2 DUP6 PUSH3 0x941 JUMP JUMPDEST SWAP6 SWAP5 POP POP POP POP POP JUMP JUMPDEST PUSH1 0x1F DUP3 GT ISZERO PUSH3 0xEC7 JUMPI PUSH0 DUP2 DUP2 MSTORE PUSH1 0x20 DUP2 KECCAK256 PUSH1 0x1F DUP6 ADD PUSH1 0x5 SHR DUP2 ADD PUSH1 0x20 DUP7 LT ISZERO PUSH3 0xEA2 JUMPI POP DUP1 JUMPDEST PUSH1 0x1F DUP6 ADD PUSH1 0x5 SHR DUP3 ADD SWAP2 POP JUMPDEST DUP2 DUP2 LT ISZERO PUSH3 0xEC3 JUMPI DUP3 DUP2 SSTORE PUSH1 0x1 ADD PUSH3 0xEAE JUMP JUMPDEST POP POP POP JUMPDEST POP POP POP JUMP JUMPDEST DUP2 MLOAD PUSH8 0xFFFFFFFFFFFFFFFF DUP2 GT ISZERO PUSH3 0xEE9 JUMPI PUSH3 0xEE9 PUSH3 0xAA4 JUMP JUMPDEST PUSH3 0xF01 DUP2 PUSH3 0xEFA DUP5 SLOAD PUSH3 0xD45 JUMP JUMPDEST DUP5 PUSH3 0xE7A JUMP JUMPDEST PUSH1 0x20 DUP1 PUSH1 0x1F DUP4 GT PUSH1 0x1 DUP2 EQ PUSH3 0xF37 JUMPI PUSH0 DUP5 ISZERO PUSH3 0xF1F JUMPI POP DUP6 DUP4 ADD MLOAD JUMPDEST PUSH0 NOT PUSH1 0x3 DUP7 SWAP1 SHL SHR NOT AND PUSH1 0x1 DUP6 SWAP1 SHL OR DUP6 SSTORE PUSH3 0xEC3 JUMP JUMPDEST PUSH0 DUP6 DUP2 MSTORE PUSH1 0x20 DUP2 KECCAK256 PUSH1 0x1F NOT DUP7 AND SWAP2 JUMPDEST DUP3 DUP2 LT ISZERO PUSH3 0xF67 JUMPI DUP9 DUP7 ADD MLOAD DUP3 SSTORE SWAP5 DUP5 ADD SWAP5 PUSH1 0x1 SWAP1 SWAP2 ADD SWAP1 DUP5 ADD PUSH3 0xF46 JUMP JUMPDEST POP DUP6 DUP3 LT ISZERO PUSH3 0xF85 JUMPI DUP8 DUP6 ADD MLOAD PUSH0 NOT PUSH1 0x3 DUP9 SWAP1 SHL PUSH1 0xF8 AND SHR NOT AND DUP2 SSTORE JUMPDEST POP POP POP POP POP PUSH1 0x1 SWAP1 DUP2 SHL ADD SWAP1 SSTORE POP JUMP JUMPDEST PUSH1 0x1 PUSH1 0x1 PUSH1 0xA0 SHL SUB DUP5 AND DUP2 MSTORE PUSH1 0x60 PUSH1 0x20 DUP3 ADD DUP2 SWAP1 MSTORE PUSH0 SWAP1 PUSH3 0xFBA SWAP1 DUP4 ADD DUP6 PUSH3 0x941 JUMP JUMPDEST DUP3 DUP2 SUB PUSH1 0x40 DUP5 ADD MSTORE PUSH3 0xFCE DUP2 DUP6 PUSH3 0x941 JUMP JUMPDEST SWAP7 SWAP6 POP POP POP POP POP POP JUMP INVALID PUSH1 0x80 PUSH1 0x40 MSTORE CALLVALUE DUP1 ISZERO PUSH3 0x10 JUMPI PUSH0 DUP1 REVERT JUMPDEST POP PUSH1 0x40 MLOAD PUSH3 0x11A9 CODESIZE SUB DUP1 PUSH3 0x11A9 DUP4 CODECOPY DUP2 ADD PUSH1 0x40 DUP2 SWAP1 MSTORE PUSH3 0x33 SWAP2 PUSH3 0x2A7 JUMP JUMPDEST PUSH0 DUP1 SLOAD PUSH1 0x1 PUSH1 0x1 PUSH1 0xA0 SHL SUB DUP7 AND PUSH1 0x1 PUSH1 0x1 PUSH1 0xA0 SHL SUB NOT SWAP2 DUP3 AND DUP2 OR SWAP1 SWAP3 SSTORE PUSH1 0x1 DUP1 SLOAD SWAP1 SWAP2 AND SWAP1 SWAP2 OR SWAP1 SSTORE PUSH1 0x2 PUSH3 0x6B DUP5 DUP3 PUSH3 0x46A JUMP JUMPDEST POP PUSH1 0x3 PUSH3 0x7A DUP4 DUP3 PUSH3 0x46A JUMP JUMPDEST POP DUP1 MLOAD PUSH3 0x90 SWAP1 PUSH1 0x4 SWAP1 PUSH1 0x20 DUP5 ADD SWAP1 PUSH3 0x108 JUMP JUMPDEST POP PUSH0 PUSH1 0x5 DUP2 SWAP1 SSTORE PUSH1 0x6 SSTORE PUSH1 0x7 DUP1 SLOAD PUSH1 0xFF NOT AND SWAP1 SSTORE PUSH1 0x1 SLOAD PUSH1 0x40 MLOAD PUSH4 0x79C86EC3 PUSH1 0xE1 SHL DUP2 MSTORE ADDRESS PUSH1 0x4 DUP3 ADD MSTORE PUSH1 0x1 PUSH1 0x1 PUSH1 0xA0 SHL SUB SWAP1 SWAP2 AND SWAP1 PUSH4 0xF390DD86 SWAP1 PUSH1 0x24 ADD PUSH0 PUSH1 0x40 MLOAD DUP1 DUP4 SUB DUP2 PUSH0 DUP8 DUP1 EXTCODESIZE ISZERO DUP1 ISZERO PUSH3 0xE7 JUMPI PUSH0 DUP1 REVERT JUMPDEST POP GAS CALL ISZERO DUP1 ISZERO PUSH3 0xFA JUMPI RETURNDATASIZE PUSH0 DUP1 RETURNDATACOPY RETURNDATASIZE PUSH0 REVERT JUMPDEST POP POP POP POP POP POP POP POP PUSH3 0x532 JUMP JUMPDEST DUP3 DUP1 SLOAD DUP3 DUP3 SSTORE SWAP1 PUSH0 MSTORE PUSH1 0x20 PUSH0 KECCAK256 SWAP1 DUP2 ADD SWAP3 DUP3 ISZERO PUSH3 0x151 JUMPI SWAP2 PUSH1 0x20 MUL DUP3 ADD JUMPDEST DUP3 DUP2 GT ISZERO PUSH3 0x151 JUMPI DUP3 MLOAD DUP3 SWAP1 PUSH3 0x140 SWAP1 DUP3 PUSH3 0x46A JUMP JUMPDEST POP SWAP2 PUSH1 0x20 ADD SWAP2 SWAP1 PUSH1 0x1 ADD SWAP1 PUSH3 0x127 JUMP JUMPDEST POP PUSH3 0x15F SWAP3 SWAP2 POP PUSH3 0x163 JUMP JUMPDEST POP SWAP1 JUMP JUMPDEST DUP1 DUP3 GT ISZERO PUSH3 0x15F JUMPI PUSH0 PUSH3 0x179 DUP3 DUP3 PUSH3 0x183 JUMP JUMPDEST POP PUSH1 0x1 ADD PUSH3 0x163 JUMP JUMPDEST POP DUP1 SLOAD PUSH3 0x191 SWAP1 PUSH3 0x3DE JUMP JUMPDEST PUSH0 DUP3 SSTORE DUP1 PUSH1 0x1F LT PUSH3 0x1A1 JUMPI POP POP JUMP JUMPDEST PUSH1 0x1F ADD PUSH1 0x20 SWAP1 DIV SWAP1 PUSH0 MSTORE PUSH1 0x20 PUSH0 KECCAK256 SWAP1 DUP2 ADD SWAP1 PUSH3 0x1BF SWAP2 SWAP1 PUSH3 0x1C2 JUMP JUMPDEST POP JUMP JUMPDEST JUMPDEST DUP1 DUP3 GT ISZERO PUSH3 0x15F JUMPI PUSH0 DUP2 SSTORE PUSH1 0x1 ADD PUSH3 0x1C3 JUMP JUMPDEST PUSH4 0x4E487B71 PUSH1 0xE0 SHL PUSH0 MSTORE PUSH1 0x41 PUSH1 0x4 MSTORE PUSH1 0x24 PUSH0 REVERT JUMPDEST PUSH1 0x40 MLOAD PUSH1 0x1F DUP3 ADD PUSH1 0x1F NOT AND DUP2 ADD PUSH1 0x1 PUSH1 0x1 PUSH1 0x40 SHL SUB DUP2 GT DUP3 DUP3 LT OR ISZERO PUSH3 0x217 JUMPI PUSH3 0x217 PUSH3 0x1D8 JUMP JUMPDEST PUSH1 0x40 MSTORE SWAP2 SWAP1 POP JUMP JUMPDEST PUSH0 DUP3 PUSH1 0x1F DUP4 ADD SLT PUSH3 0x22F JUMPI PUSH0 DUP1 REVERT JUMPDEST DUP2 MLOAD PUSH1 0x1 PUSH1 0x1 PUSH1 0x40 SHL SUB DUP2 GT ISZERO PUSH3 0x24B JUMPI PUSH3 0x24B PUSH3 0x1D8 JUMP JUMPDEST PUSH1 0x20 PUSH3 0x261 PUSH1 0x1F DUP4 ADD PUSH1 0x1F NOT AND DUP3 ADD PUSH3 0x1EC JUMP JUMPDEST DUP3 DUP2 MSTORE DUP6 DUP3 DUP5 DUP8 ADD ADD GT ISZERO PUSH3 0x275 JUMPI PUSH0 DUP1 REVERT JUMPDEST PUSH0 JUMPDEST DUP4 DUP2 LT ISZERO PUSH3 0x294 JUMPI DUP6 DUP2 ADD DUP4 ADD MLOAD DUP3 DUP3 ADD DUP5 ADD MSTORE DUP3 ADD PUSH3 0x277 JUMP JUMPDEST POP PUSH0 SWAP3 DUP2 ADD SWAP1 SWAP2 ADD SWAP2 SWAP1 SWAP2 MSTORE SWAP4 SWAP3 POP POP POP JUMP JUMPDEST PUSH0 DUP1 PUSH0 DUP1 PUSH1 0x80 DUP6 DUP8 SUB SLT ISZERO PUSH3 0x2BB JUMPI PUSH0 DUP1 REVERT JUMPDEST DUP5 MLOAD PUSH1 0x1 PUSH1 0x1 PUSH1 0xA0 SHL SUB DUP2 AND DUP2 EQ PUSH3 0x2D2 JUMPI PUSH0 DUP1 REVERT JUMPDEST PUSH1 0x20 DUP7 DUP2 ADD MLOAD SWAP2 SWAP6 POP SWAP1 PUSH1 0x1 PUSH1 0x1 PUSH1 0x40 SHL SUB DUP1 DUP3 GT ISZERO PUSH3 0x2F1 JUMPI PUSH0 DUP1 REVERT JUMPDEST PUSH3 0x2FF DUP10 DUP4 DUP11 ADD PUSH3 0x21F JUMP JUMPDEST SWAP6 POP PUSH1 0x40 DUP9 ADD MLOAD SWAP2 POP DUP1 DUP3 GT ISZERO PUSH3 0x315 JUMPI PUSH0 DUP1 REVERT JUMPDEST PUSH3 0x323 DUP10 DUP4 DUP11 ADD PUSH3 0x21F JUMP JUMPDEST SWAP5 POP PUSH1 0x60 DUP9 ADD MLOAD SWAP2 POP DUP1 DUP3 GT ISZERO PUSH3 0x339 JUMPI PUSH0 DUP1 REVERT JUMPDEST DUP2 DUP9 ADD SWAP2 POP DUP9 PUSH1 0x1F DUP4 ADD SLT PUSH3 0x34D JUMPI PUSH0 DUP1 REVERT JUMPDEST DUP2 MLOAD DUP2 DUP2 GT ISZERO PUSH3 0x362 JUMPI PUSH3 0x362 PUSH3 0x1D8 JUMP JUMPDEST DUP1 PUSH1 0x5 SHL PUSH3 0x373 DUP6 DUP3 ADD PUSH3 0x1EC JUMP JUMPDEST SWAP2 DUP3 MSTORE DUP4 DUP2 ADD DUP6 ADD SWAP2 DUP6 DUP2 ADD SWAP1 DUP13 DUP5 GT ISZERO PUSH3 0x38D JUMPI PUSH0 DUP1 REVERT JUMPDEST DUP7 DUP7 ADD SWAP3 POP JUMPDEST DUP4 DUP4 LT ISZERO PUSH3 0x3CD JUMPI DUP3 MLOAD DUP6 DUP2 GT ISZERO PUSH3 0x3AC JUMPI PUSH0 DUP1 DUP2 REVERT JUMPDEST PUSH3 0x3BC DUP15 DUP10 DUP4 DUP11 ADD ADD PUSH3 0x21F JUMP JUMPDEST DUP4 MSTORE POP SWAP2 DUP7 ADD SWAP2 SWAP1 DUP7 ADD SWAP1 PUSH3 0x393 JUMP JUMPDEST SWAP10 SWAP13 SWAP9 SWAP12 POP SWAP7 SWAP10 POP POP POP POP POP POP POP POP JUMP JUMPDEST PUSH1 0x1 DUP2 DUP2 SHR SWAP1 DUP3 AND DUP1 PUSH3 0x3F3 JUMPI PUSH1 0x7F DUP3 AND SWAP2 POP JUMPDEST PUSH1 0x20 DUP3 LT DUP2 SUB PUSH3 0x412 JUMPI PUSH4 0x4E487B71 PUSH1 0xE0 SHL PUSH0 MSTORE PUSH1 0x22 PUSH1 0x4 MSTORE PUSH1 0x24 PUSH0 REVERT JUMPDEST POP SWAP2 SWAP1 POP JUMP JUMPDEST PUSH1 0x1F DUP3 GT ISZERO PUSH3 0x465 JUMPI PUSH0 DUP2 DUP2 MSTORE PUSH1 0x20 DUP2 KECCAK256 PUSH1 0x1F DUP6 ADD PUSH1 0x5 SHR DUP2 ADD PUSH1 0x20 DUP7 LT ISZERO PUSH3 0x440 JUMPI POP DUP1 JUMPDEST PUSH1 0x1F DUP6 ADD PUSH1 0x5 SHR DUP3 ADD SWAP2 POP JUMPDEST DUP2 DUP2 LT ISZERO PUSH3 0x461 JUMPI DUP3 DUP2 SSTORE PUSH1 0x1 ADD PUSH3 0x44C JUMP JUMPDEST POP POP POP JUMPDEST POP POP POP JUMP JUMPDEST DUP2 MLOAD PUSH1 0x1 PUSH1 0x1 PUSH1 0x40 SHL SUB DUP2 GT ISZERO PUSH3 0x486 JUMPI PUSH3 0x486 PUSH3 0x1D8 JUMP JUMPDEST PUSH3 0x49E DUP2 PUSH3 0x497 DUP5 SLOAD PUSH3 0x3DE JUMP JUMPDEST DUP5 PUSH3 0x418 JUMP JUMPDEST PUSH1 0x20 DUP1 PUSH1 0x1F DUP4 GT PUSH1 0x1 DUP2 EQ PUSH3 0x4D4 JUMPI PUSH0 DUP5 ISZERO PUSH3 0x4BC JUMPI POP DUP6 DUP4 ADD MLOAD JUMPDEST PUSH0 NOT PUSH1 0x3 DUP7 SWAP1 SHL SHR NOT AND PUSH1 0x1 DUP6 SWAP1 SHL OR DUP6 SSTORE PUSH3 0x461 JUMP JUMPDEST PUSH0 DUP6 DUP2 MSTORE PUSH1 0x20 DUP2 KECCAK256 PUSH1 0x1F NOT DUP7 AND SWAP2 JUMPDEST DUP3 DUP2 LT ISZERO PUSH3 0x504 JUMPI DUP9 DUP7 ADD MLOAD DUP3 SSTORE SWAP5 DUP5 ADD SWAP5 PUSH1 0x1 SWAP1 SWAP2 ADD SWAP1 DUP5 ADD PUSH3 0x4E3 JUMP JUMPDEST POP DUP6 DUP3 LT ISZERO PUSH3 0x522 JUMPI DUP8 DUP6 ADD MLOAD PUSH0 NOT PUSH1 0x3 DUP9 SWAP1 SHL PUSH1 0xF8 AND SHR NOT AND DUP2 SSTORE JUMPDEST POP POP POP POP POP PUSH1 0x1 SWAP1 DUP2 SHL ADD SWAP1 SSTORE POP JUMP JUMPDEST PUSH2 0xC69 DUP1 PUSH3 0x540 PUSH0 CODECOPY PUSH0 RETURN INVALID PUSH1 0x80 PUSH1 0x40 MSTORE CALLVALUE DUP1 ISZERO PUSH2 0xF JUMPI PUSH0 DUP1 REVERT JUMPDEST POP PUSH1 0x4 CALLDATASIZE LT PUSH2 0x60 JUMPI PUSH0 CALLDATALOAD PUSH1 0xE0 SHR DUP1 PUSH4 0x6F4BCBF EQ PUSH2 0x64 JUMPI DUP1 PUSH4 0xE973501 EQ PUSH2 0x6E JUMPI DUP1 PUSH4 0xA7960A28 EQ PUSH2 0x81 JUMPI DUP1 PUSH4 0xD270E7AB EQ PUSH2 0x94 JUMPI DUP1 PUSH4 0xF8CB00BF EQ PUSH2 0xC3 JUMPI DUP1 PUSH4 0xFE0AE165 EQ PUSH2 0xDC JUMPI JUMPDEST PUSH0 DUP1 REVERT JUMPDEST PUSH2 0x6C PUSH2 0xE4 JUMP JUMPDEST STOP JUMPDEST PUSH2 0x6C PUSH2 0x7C CALLDATASIZE PUSH1 0x4 PUSH2 0x860 JUMP JUMPDEST PUSH2 0x1A8 JUMP JUMPDEST PUSH2 0x6C PUSH2 0x8F CALLDATASIZE PUSH1 0x4 PUSH2 0x975 JUMP JUMPDEST PUSH2 0x27F JUMP JUMPDEST PUSH0 SLOAD PUSH2 0xA6 SWAP1 PUSH1 0x1 PUSH1 0x1 PUSH1 0xA0 SHL SUB AND DUP2 JUMP JUMPDEST PUSH1 0x40 MLOAD PUSH1 0x1 PUSH1 0x1 PUSH1 0xA0 SHL SUB SWAP1 SWAP2 AND DUP2 MSTORE PUSH1 0x20 ADD JUMPDEST PUSH1 0x40 MLOAD DUP1 SWAP2 SUB SWAP1 RETURN JUMPDEST PUSH2 0xCB PUSH2 0x434 JUMP JUMPDEST PUSH1 0x40 MLOAD PUSH2 0xBA SWAP6 SWAP5 SWAP4 SWAP3 SWAP2 SWAP1 PUSH2 0x9E2 JUMP JUMPDEST PUSH2 0x6C PUSH2 0x63A JUMP JUMPDEST PUSH1 0x1 PUSH0 SWAP1 SLOAD SWAP1 PUSH2 0x100 EXP SWAP1 DIV PUSH1 0x1 PUSH1 0x1 PUSH1 0xA0 SHL SUB AND PUSH1 0x1 PUSH1 0x1 PUSH1 0xA0 SHL SUB AND PUSH4 0x6E9960C3 PUSH1 0x40 MLOAD DUP2 PUSH4 0xFFFFFFFF AND PUSH1 0xE0 SHL DUP2 MSTORE PUSH1 0x4 ADD PUSH1 0x20 PUSH1 0x40 MLOAD DUP1 DUP4 SUB DUP2 DUP7 GAS STATICCALL ISZERO DUP1 ISZERO PUSH2 0x134 JUMPI RETURNDATASIZE PUSH0 DUP1 RETURNDATACOPY RETURNDATASIZE PUSH0 REVERT JUMPDEST POP POP POP POP PUSH1 0x40 MLOAD RETURNDATASIZE PUSH1 0x1F NOT PUSH1 0x1F DUP3 ADD AND DUP3 ADD DUP1 PUSH1 0x40 MSTORE POP DUP2 ADD SWAP1 PUSH2 0x158 SWAP2 SWAP1 PUSH2 0xA76 JUMP JUMPDEST PUSH1 0x1 PUSH1 0x1 PUSH1 0xA0 SHL SUB AND CALLER PUSH1 0x1 PUSH1 0x1 PUSH1 0xA0 SHL SUB AND EQ PUSH2 0x191 JUMPI PUSH1 0x40 MLOAD PUSH3 0x461BCD PUSH1 0xE5 SHL DUP2 MSTORE PUSH1 0x4 ADD PUSH2 0x188 SWAP1 PUSH2 0xA98 JUMP JUMPDEST PUSH1 0x40 MLOAD DUP1 SWAP2 SUB SWAP1 REVERT JUMPDEST PUSH1 0x7 DUP1 SLOAD PUSH1 0x2 SWAP2 SWAP1 PUSH1 0xFF NOT AND PUSH1 0x1 DUP4 JUMPDEST MUL OR SWAP1 SSTORE POP JUMP JUMPDEST PUSH1 0x1 PUSH0 SWAP1 SLOAD SWAP1 PUSH2 0x100 EXP SWAP1 DIV PUSH1 0x1 PUSH1 0x1 PUSH1 0xA0 SHL SUB AND PUSH1 0x1 PUSH1 0x1 PUSH1 0xA0 SHL SUB AND PUSH4 0x6E9960C3 PUSH1 0x40 MLOAD DUP2 PUSH4 0xFFFFFFFF AND PUSH1 0xE0 SHL DUP2 MSTORE PUSH1 0x4 ADD PUSH1 0x20 PUSH1 0x40 MLOAD DUP1 DUP4 SUB DUP2 DUP7 GAS STATICCALL ISZERO DUP1 ISZERO PUSH2 0x1F8 JUMPI RETURNDATASIZE PUSH0 DUP1 RETURNDATACOPY RETURNDATASIZE PUSH0 REVERT JUMPDEST POP POP POP POP PUSH1 0x40 MLOAD RETURNDATASIZE PUSH1 0x1F NOT PUSH1 0x1F DUP3 ADD AND DUP3 ADD DUP1 PUSH1 0x40 MSTORE POP DUP2 ADD SWAP1 PUSH2 0x21C SWAP2 SWAP1 PUSH2 0xA76 JUMP JUMPDEST PUSH1 0x1 PUSH1 0x1 PUSH1 0xA0 SHL SUB AND CALLER PUSH1 0x1 PUSH1 0x1 PUSH1 0xA0 SHL SUB AND EQ PUSH2 0x24C JUMPI PUSH1 0x40 MLOAD PUSH3 0x461BCD PUSH1 0xE5 SHL DUP2 MSTORE PUSH1 0x4 ADD PUSH2 0x188 SWAP1 PUSH2 0xA98 JUMP JUMPDEST PUSH1 0x2 PUSH2 0x258 DUP5 DUP3 PUSH2 0xB77 JUMP JUMPDEST POP PUSH1 0x3 PUSH2 0x265 DUP4 DUP3 PUSH2 0xB77 JUMP JUMPDEST POP DUP1 MLOAD PUSH2 0x279 SWAP1 PUSH1 0x4 SWAP1 PUSH1 0x20 DUP5 ADD SWAP1 PUSH2 0x6F1 JUMP JUMPDEST POP POP POP POP JUMP JUMPDEST PUSH1 0x1 PUSH0 SWAP1 SLOAD SWAP1 PUSH2 0x100 EXP SWAP1 DIV PUSH1 0x1 PUSH1 0x1 PUSH1 0xA0 SHL SUB AND PUSH1 0x1 PUSH1 0x1 PUSH1 0xA0 SHL SUB AND PUSH4 0x6E9960C3 PUSH1 0x40 MLOAD DUP2 PUSH4 0xFFFFFFFF AND PUSH1 0xE0 SHL DUP2 MSTORE PUSH1 0x4 ADD PUSH1 0x20 PUSH1 0x40 MLOAD DUP1 DUP4 SUB DUP2 DUP7 GAS STATICCALL ISZERO DUP1 ISZERO PUSH2 0x2CF JUMPI RETURNDATASIZE PUSH0 DUP1 RETURNDATACOPY RETURNDATASIZE PUSH0 REVERT JUMPDEST POP POP POP POP PUSH1 0x40 MLOAD RETURNDATASIZE PUSH1 0x1F NOT PUSH1 0x1F DUP3 ADD AND DUP3 ADD DUP1 PUSH1 0x40 MSTORE POP DUP2 ADD SWAP1 PUSH2 0x2F3 SWAP2 SWAP1 PUSH2 0xA76 JUMP JUMPDEST PUSH1 0x1 PUSH1 0x1 PUSH1 0xA0 SHL SUB AND CALLER SUB PUSH2 0x35E JUMPI PUSH1 0x40 MLOAD PUSH3 0x461BCD PUSH1 0xE5 SHL DUP2 MSTORE PUSH1 0x20 PUSH1 0x4 DUP3 ADD MSTORE PUSH1 0x2B PUSH1 0x24 DUP3 ADD MSTORE PUSH32 0x546869732066756E6374696F6E206F6E6C79207061727469636970616E742063 PUSH1 0x44 DUP3 ADD MSTORE PUSH11 0x616E206578656375746521 PUSH1 0xA8 SHL PUSH1 0x64 DUP3 ADD MSTORE PUSH1 0x84 ADD PUSH2 0x188 JUMP JUMPDEST PUSH1 0x1 PUSH1 0x7 SLOAD PUSH1 0xFF AND PUSH1 0x2 DUP2 GT ISZERO PUSH2 0x377 JUMPI PUSH2 0x377 PUSH2 0xADD JUMP JUMPDEST EQ PUSH2 0x3C4 JUMPI PUSH1 0x40 MLOAD PUSH3 0x461BCD PUSH1 0xE5 SHL DUP2 MSTORE PUSH1 0x20 PUSH1 0x4 DUP3 ADD MSTORE PUSH1 0x1A PUSH1 0x24 DUP3 ADD MSTORE PUSH32 0x53657373696F6E206973206E6F7420696E2070726F6772657373000000000000 PUSH1 0x44 DUP3 ADD MSTORE PUSH1 0x64 ADD PUSH2 0x188 JUMP JUMPDEST PUSH1 0x1 PUSH1 0x1 PUSH1 0xA0 SHL SUB DUP3 AND PUSH0 SWAP1 DUP2 MSTORE PUSH1 0x8 PUSH1 0x20 MSTORE PUSH1 0x40 DUP2 KECCAK256 DUP3 SWAP1 SSTORE DUP2 SWAP1 SUB PUSH2 0x430 JUMPI PUSH1 0x9 DUP1 SLOAD PUSH1 0x1 DUP2 ADD DUP3 SSTORE PUSH0 SWAP2 SWAP1 SWAP2 MSTORE PUSH32 0x6E1540171B6C0C960B71A7020D9F60077F6AF931A8BBF590DA0223DACF75C7AF ADD DUP1 SLOAD PUSH1 0x1 PUSH1 0x1 PUSH1 0xA0 SHL SUB NOT AND PUSH1 0x1 PUSH1 0x1 PUSH1 0xA0 SHL SUB DUP5 AND OR SWAP1 SSTORE JUMPDEST POP POP JUMP JUMPDEST PUSH1 0x60 DUP1 PUSH1 0x60 PUSH0 DUP1 PUSH1 0x2 PUSH1 0x3 PUSH1 0x4 PUSH1 0x5 SLOAD PUSH1 0x6 SLOAD DUP5 DUP1 SLOAD PUSH2 0x453 SWAP1 PUSH2 0xAF1 JUMP JUMPDEST DUP1 PUSH1 0x1F ADD PUSH1 0x20 DUP1 SWAP2 DIV MUL PUSH1 0x20 ADD PUSH1 0x40 MLOAD SWAP1 DUP2 ADD PUSH1 0x40 MSTORE DUP1 SWAP3 SWAP2 SWAP1 DUP2 DUP2 MSTORE PUSH1 0x20 ADD DUP3 DUP1 SLOAD PUSH2 0x47F SWAP1 PUSH2 0xAF1 JUMP JUMPDEST DUP1 ISZERO PUSH2 0x4CA JUMPI DUP1 PUSH1 0x1F LT PUSH2 0x4A1 JUMPI PUSH2 0x100 DUP1 DUP4 SLOAD DIV MUL DUP4 MSTORE SWAP2 PUSH1 0x20 ADD SWAP2 PUSH2 0x4CA JUMP JUMPDEST DUP3 ADD SWAP2 SWAP1 PUSH0 MSTORE PUSH1 0x20 PUSH0 KECCAK256 SWAP1 JUMPDEST DUP2 SLOAD DUP2 MSTORE SWAP1 PUSH1 0x1 ADD SWAP1 PUSH1 0x20 ADD DUP1 DUP4 GT PUSH2 0x4AD JUMPI DUP3 SWAP1 SUB PUSH1 0x1F AND DUP3 ADD SWAP2 JUMPDEST POP POP POP POP POP SWAP5 POP DUP4 DUP1 SLOAD PUSH2 0x4DD SWAP1 PUSH2 0xAF1 JUMP JUMPDEST DUP1 PUSH1 0x1F ADD PUSH1 0x20 DUP1 SWAP2 DIV MUL PUSH1 0x20 ADD PUSH1 0x40 MLOAD SWAP1 DUP2 ADD PUSH1 0x40 MSTORE DUP1 SWAP3 SWAP2 SWAP1 DUP2 DUP2 MSTORE PUSH1 0x20 ADD DUP3 DUP1 SLOAD PUSH2 0x509 SWAP1 PUSH2 0xAF1 JUMP JUMPDEST DUP1 ISZERO PUSH2 0x554 JUMPI DUP1 PUSH1 0x1F LT PUSH2 0x52B JUMPI PUSH2 0x100 DUP1 DUP4 SLOAD DIV MUL DUP4 MSTORE SWAP2 PUSH1 0x20 ADD SWAP2 PUSH2 0x554 JUMP JUMPDEST DUP3 ADD SWAP2 SWAP1 PUSH0 MSTORE PUSH1 0x20 PUSH0 KECCAK256 SWAP1 JUMPDEST DUP2 SLOAD DUP2 MSTORE SWAP1 PUSH1 0x1 ADD SWAP1 PUSH1 0x20 ADD DUP1 DUP4 GT PUSH2 0x537 JUMPI DUP3 SWAP1 SUB PUSH1 0x1F AND DUP3 ADD SWAP2 JUMPDEST POP POP POP POP POP SWAP4 POP DUP3 DUP1 SLOAD DUP1 PUSH1 0x20 MUL PUSH1 0x20 ADD PUSH1 0x40 MLOAD SWAP1 DUP2 ADD PUSH1 0x40 MSTORE DUP1 SWAP3 SWAP2 SWAP1 DUP2 DUP2 MSTORE PUSH1 0x20 ADD PUSH0 SWAP1 JUMPDEST DUP3 DUP3 LT ISZERO PUSH2 0x623 JUMPI DUP4 DUP3 SWAP1 PUSH0 MSTORE PUSH1 0x20 PUSH0 KECCAK256 ADD DUP1 SLOAD PUSH2 0x598 SWAP1 PUSH2 0xAF1 JUMP JUMPDEST DUP1 PUSH1 0x1F ADD PUSH1 0x20 DUP1 SWAP2 DIV MUL PUSH1 0x20 ADD PUSH1 0x40 MLOAD SWAP1 DUP2 ADD PUSH1 0x40 MSTORE DUP1 SWAP3 SWAP2 SWAP1 DUP2 DUP2 MSTORE PUSH1 0x20 ADD DUP3 DUP1 SLOAD PUSH2 0x5C4 SWAP1 PUSH2 0xAF1 JUMP JUMPDEST DUP1 ISZERO PUSH2 0x60F JUMPI DUP1 PUSH1 0x1F LT PUSH2 0x5E6 JUMPI PUSH2 0x100 DUP1 DUP4 SLOAD DIV MUL DUP4 MSTORE SWAP2 PUSH1 0x20 ADD SWAP2 PUSH2 0x60F JUMP JUMPDEST DUP3 ADD SWAP2 SWAP1 PUSH0 MSTORE PUSH1 0x20 PUSH0 KECCAK256 SWAP1 JUMPDEST DUP2 SLOAD DUP2 MSTORE SWAP1 PUSH1 0x1 ADD SWAP1 PUSH1 0x20 ADD DUP1 DUP4 GT PUSH2 0x5F2 JUMPI DUP3 SWAP1 SUB PUSH1 0x1F AND DUP3 ADD SWAP2 JUMPDEST POP POP POP POP POP DUP2 MSTORE PUSH1 0x20 ADD SWAP1 PUSH1 0x1 ADD SWAP1 PUSH2 0x57B JUMP JUMPDEST POP POP POP POP SWAP3 POP SWAP5 POP SWAP5 POP SWAP5 POP SWAP5 POP SWAP5 POP SWAP1 SWAP2 SWAP3 SWAP4 SWAP5 JUMP JUMPDEST PUSH1 0x1 PUSH0 SWAP1 SLOAD SWAP1 PUSH2 0x100 EXP SWAP1 DIV PUSH1 0x1 PUSH1 0x1 PUSH1 0xA0 SHL SUB AND PUSH1 0x1 PUSH1 0x1 PUSH1 0xA0 SHL SUB AND PUSH4 0x6E9960C3 PUSH1 0x40 MLOAD DUP2 PUSH4 0xFFFFFFFF AND PUSH1 0xE0 SHL DUP2 MSTORE PUSH1 0x4 ADD PUSH1 0x20 PUSH1 0x40 MLOAD DUP1 DUP4 SUB DUP2 DUP7 GAS STATICCALL ISZERO DUP1 ISZERO PUSH2 0x68A JUMPI RETURNDATASIZE PUSH0 DUP1 RETURNDATACOPY RETURNDATASIZE PUSH0 REVERT JUMPDEST POP POP POP POP PUSH1 0x40 MLOAD RETURNDATASIZE PUSH1 0x1F NOT PUSH1 0x1F DUP3 ADD AND DUP3 ADD DUP1 PUSH1 0x40 MSTORE POP DUP2 ADD SWAP1 PUSH2 0x6AE SWAP2 SWAP1 PUSH2 0xA76 JUMP JUMPDEST PUSH1 0x1 PUSH1 0x1 PUSH1 0xA0 SHL SUB AND CALLER PUSH1 0x1 PUSH1 0x1 PUSH1 0xA0 SHL SUB AND EQ PUSH2 0x6DE JUMPI PUSH1 0x40 MLOAD PUSH3 0x461BCD PUSH1 0xE5 SHL DUP2 MSTORE PUSH1 0x4 ADD PUSH2 0x188 SWAP1 PUSH2 0xA98 JUMP JUMPDEST PUSH1 0x7 DUP1 SLOAD PUSH1 0x1 SWAP2 SWAP1 PUSH1 0xFF NOT AND DUP3 DUP1 PUSH2 0x1A1 JUMP JUMPDEST DUP3 DUP1 SLOAD DUP3 DUP3 SSTORE SWAP1 PUSH0 MSTORE PUSH1 0x20 PUSH0 KECCAK256 SWAP1 DUP2 ADD SWAP3 DUP3 ISZERO PUSH2 0x735 JUMPI SWAP2 PUSH1 0x20 MUL DUP3 ADD JUMPDEST DUP3 DUP2 GT ISZERO PUSH2 0x735 JUMPI DUP3 MLOAD DUP3 SWAP1 PUSH2 0x725 SWAP1 DUP3 PUSH2 0xB77 JUMP JUMPDEST POP SWAP2 PUSH1 0x20 ADD SWAP2 SWAP1 PUSH1 0x1 ADD SWAP1 PUSH2 0x70F JUMP JUMPDEST POP PUSH2 0x741 SWAP3 SWAP2 POP PUSH2 0x745 JUMP JUMPDEST POP SWAP1 JUMP JUMPDEST DUP1 DUP3 GT ISZERO PUSH2 0x741 JUMPI PUSH0 PUSH2 0x758 DUP3 DUP3 PUSH2 0x761 JUMP JUMPDEST POP PUSH1 0x1 ADD PUSH2 0x745 JUMP JUMPDEST POP DUP1 SLOAD PUSH2 0x76D SWAP1 PUSH2 0xAF1 JUMP JUMPDEST PUSH0 DUP3 SSTORE DUP1 PUSH1 0x1F LT PUSH2 0x77C JUMPI POP POP JUMP JUMPDEST PUSH1 0x1F ADD PUSH1 0x20 SWAP1 DIV SWAP1 PUSH0 MSTORE PUSH1 0x20 PUSH0 KECCAK256 SWAP1 DUP2 ADD SWAP1 PUSH2 0x798 SWAP2 SWAP1 PUSH2 0x79B JUMP JUMPDEST POP JUMP JUMPDEST JUMPDEST DUP1 DUP3 GT ISZERO PUSH2 0x741 JUMPI PUSH0 DUP2 SSTORE PUSH1 0x1 ADD PUSH2 0x79C JUMP JUMPDEST PUSH4 0x4E487B71 PUSH1 0xE0 SHL PUSH0 MSTORE PUSH1 0x41 PUSH1 0x4 MSTORE PUSH1 0x24 PUSH0 REVERT JUMPDEST PUSH1 0x40 MLOAD PUSH1 0x1F DUP3 ADD PUSH1 0x1F NOT AND DUP2 ADD PUSH8 0xFFFFFFFFFFFFFFFF DUP2 GT DUP3 DUP3 LT OR ISZERO PUSH2 0x7EC JUMPI PUSH2 0x7EC PUSH2 0x7AF JUMP JUMPDEST PUSH1 0x40 MSTORE SWAP2 SWAP1 POP JUMP JUMPDEST PUSH0 DUP3 PUSH1 0x1F DUP4 ADD SLT PUSH2 0x803 JUMPI PUSH0 DUP1 REVERT JUMPDEST DUP2 CALLDATALOAD PUSH8 0xFFFFFFFFFFFFFFFF DUP2 GT ISZERO PUSH2 0x81D JUMPI PUSH2 0x81D PUSH2 0x7AF JUMP JUMPDEST PUSH2 0x830 PUSH1 0x1F DUP3 ADD PUSH1 0x1F NOT AND PUSH1 0x20 ADD PUSH2 0x7C3 JUMP JUMPDEST DUP2 DUP2 MSTORE DUP5 PUSH1 0x20 DUP4 DUP7 ADD ADD GT ISZERO PUSH2 0x844 JUMPI PUSH0 DUP1 REVERT JUMPDEST DUP2 PUSH1 0x20 DUP6 ADD PUSH1 0x20 DUP4 ADD CALLDATACOPY PUSH0 SWAP2 DUP2 ADD PUSH1 0x20 ADD SWAP2 SWAP1 SWAP2 MSTORE SWAP4 SWAP3 POP POP POP JUMP JUMPDEST PUSH0 DUP1 PUSH0 PUSH1 0x60 DUP5 DUP7 SUB SLT ISZERO PUSH2 0x872 JUMPI PUSH0 DUP1 REVERT JUMPDEST DUP4 CALLDATALOAD PUSH8 0xFFFFFFFFFFFFFFFF DUP1 DUP3 GT ISZERO PUSH2 0x889 JUMPI PUSH0 DUP1 REVERT JUMPDEST PUSH2 0x895 DUP8 DUP4 DUP9 ADD PUSH2 0x7F4 JUMP JUMPDEST SWAP5 POP PUSH1 0x20 SWAP2 POP DUP2 DUP7 ADD CALLDATALOAD DUP2 DUP2 GT ISZERO PUSH2 0x8AB JUMPI PUSH0 DUP1 REVERT JUMPDEST PUSH2 0x8B7 DUP9 DUP3 DUP10 ADD PUSH2 0x7F4 JUMP JUMPDEST SWAP5 POP POP PUSH1 0x40 DUP7 ADD CALLDATALOAD DUP2 DUP2 GT ISZERO PUSH2 0x8CB JUMPI PUSH0 DUP1 REVERT JUMPDEST DUP7 ADD PUSH1 0x1F DUP2 ADD DUP9 SGT PUSH2 0x8DB JUMPI PUSH0 DUP1 REVERT JUMPDEST DUP1 CALLDATALOAD DUP3 DUP2 GT ISZERO PUSH2 0x8ED JUMPI PUSH2 0x8ED PUSH2 0x7AF JUMP JUMPDEST DUP1 PUSH1 0x5 SHL PUSH2 0x8FC DUP6 DUP3 ADD PUSH2 0x7C3 JUMP JUMPDEST SWAP2 DUP3 MSTORE DUP3 DUP2 ADD DUP6 ADD SWAP2 DUP6 DUP2 ADD SWAP1 DUP12 DUP5 GT ISZERO PUSH2 0x915 JUMPI PUSH0 DUP1 REVERT JUMPDEST DUP7 DUP6 ADD SWAP3 POP JUMPDEST DUP4 DUP4 LT ISZERO PUSH2 0x950 JUMPI DUP3 CALLDATALOAD DUP7 DUP2 GT ISZERO PUSH2 0x932 JUMPI PUSH0 DUP1 DUP2 REVERT JUMPDEST PUSH2 0x940 DUP14 DUP10 DUP4 DUP10 ADD ADD PUSH2 0x7F4 JUMP JUMPDEST DUP4 MSTORE POP SWAP2 DUP7 ADD SWAP2 SWAP1 DUP7 ADD SWAP1 PUSH2 0x91B JUMP JUMPDEST DUP1 SWAP8 POP POP POP POP POP POP POP POP SWAP3 POP SWAP3 POP SWAP3 JUMP JUMPDEST PUSH1 0x1 PUSH1 0x1 PUSH1 0xA0 SHL SUB DUP2 AND DUP2 EQ PUSH2 0x798 JUMPI PUSH0 DUP1 REVERT JUMPDEST PUSH0 DUP1 PUSH1 0x40 DUP4 DUP6 SUB SLT ISZERO PUSH2 0x986 JUMPI PUSH0 DUP1 REVERT JUMPDEST DUP3 CALLDATALOAD PUSH2 0x991 DUP2 PUSH2 0x961 JUMP JUMPDEST SWAP5 PUSH1 0x20 SWAP4 SWAP1 SWAP4 ADD CALLDATALOAD SWAP4 POP POP POP JUMP JUMPDEST PUSH0 DUP2 MLOAD DUP1 DUP5 MSTORE PUSH0 JUMPDEST DUP2 DUP2 LT ISZERO PUSH2 0x9C3 JUMPI PUSH1 0x20 DUP2 DUP6 ADD DUP2 ADD MLOAD DUP7 DUP4 ADD DUP3 ADD MSTORE ADD PUSH2 0x9A7 JUMP JUMPDEST POP PUSH0 PUSH1 0x20 DUP3 DUP7 ADD ADD MSTORE PUSH1 0x20 PUSH1 0x1F NOT PUSH1 0x1F DUP4 ADD AND DUP6 ADD ADD SWAP2 POP POP SWAP3 SWAP2 POP POP JUMP JUMPDEST PUSH1 0xA0 DUP2 MSTORE PUSH0 PUSH2 0x9F4 PUSH1 0xA0 DUP4 ADD DUP9 PUSH2 0x99F JUMP JUMPDEST PUSH1 0x20 DUP4 DUP3 SUB DUP2 DUP6 ADD MSTORE PUSH2 0xA07 DUP3 DUP10 PUSH2 0x99F JUMP JUMPDEST SWAP2 POP DUP4 DUP3 SUB PUSH1 0x40 DUP6 ADD MSTORE DUP2 DUP8 MLOAD DUP1 DUP5 MSTORE DUP3 DUP5 ADD SWAP2 POP DUP3 DUP2 PUSH1 0x5 SHL DUP6 ADD ADD DUP4 DUP11 ADD PUSH0 JUMPDEST DUP4 DUP2 LT ISZERO PUSH2 0xA57 JUMPI PUSH1 0x1F NOT DUP8 DUP5 SUB ADD DUP6 MSTORE PUSH2 0xA45 DUP4 DUP4 MLOAD PUSH2 0x99F JUMP JUMPDEST SWAP5 DUP7 ADD SWAP5 SWAP3 POP SWAP1 DUP6 ADD SWAP1 PUSH1 0x1 ADD PUSH2 0xA29 JUMP JUMPDEST POP POP PUSH1 0x60 DUP8 ADD SWAP9 SWAP1 SWAP9 MSTORE POP POP POP POP PUSH1 0x80 SWAP1 SWAP2 ADD SWAP2 SWAP1 SWAP2 MSTORE POP SWAP4 SWAP3 POP POP POP JUMP JUMPDEST PUSH0 PUSH1 0x20 DUP3 DUP5 SUB SLT ISZERO PUSH2 0xA86 JUMPI PUSH0 DUP1 REVERT JUMPDEST DUP2 MLOAD PUSH2 0xA91 DUP2 PUSH2 0x961 JUMP JUMPDEST SWAP4 SWAP3 POP POP POP JUMP JUMPDEST PUSH1 0x20 DUP1 DUP3 MSTORE PUSH1 0x25 SWAP1 DUP3 ADD MSTORE PUSH32 0x546869732066756E6374696F6E206F6E6C792061646D696E2063616E20657865 PUSH1 0x40 DUP3 ADD MSTORE PUSH5 0x6375746521 PUSH1 0xD8 SHL PUSH1 0x60 DUP3 ADD MSTORE PUSH1 0x80 ADD SWAP1 JUMP JUMPDEST PUSH4 0x4E487B71 PUSH1 0xE0 SHL PUSH0 MSTORE PUSH1 0x21 PUSH1 0x4 MSTORE PUSH1 0x24 PUSH0 REVERT JUMPDEST PUSH1 0x1 DUP2 DUP2 SHR SWAP1 DUP3 AND DUP1 PUSH2 0xB05 JUMPI PUSH1 0x7F DUP3 AND SWAP2 POP JUMPDEST PUSH1 0x20 DUP3 LT DUP2 SUB PUSH2 0xB23 JUMPI PUSH4 0x4E487B71 PUSH1 0xE0 SHL PUSH0 MSTORE PUSH1 0x22 PUSH1 0x4 MSTORE PUSH1 0x24 PUSH0 REVERT JUMPDEST POP SWAP2 SWAP1 POP JUMP JUMPDEST PUSH1 0x1F DUP3 GT ISZERO PUSH2 0xB72 JUMPI PUSH0 DUP2 DUP2 MSTORE PUSH1 0x20 DUP2 KECCAK256 PUSH1 0x1F DUP6 ADD PUSH1 0x5 SHR DUP2 ADD PUSH1 0x20 DUP7 LT ISZERO PUSH2 0xB4F JUMPI POP DUP1 JUMPDEST PUSH1 0x1F DUP6 ADD PUSH1 0x5 SHR DUP3 ADD SWAP2 POP JUMPDEST DUP2 DUP2 LT ISZERO PUSH2 0xB6E JUMPI DUP3 DUP2 SSTORE PUSH1 0x1 ADD PUSH2 0xB5B JUMP JUMPDEST POP POP POP JUMPDEST POP POP POP JUMP JUMPDEST DUP2 MLOAD PUSH8 0xFFFFFFFFFFFFFFFF DUP2 GT ISZERO PUSH2 0xB91 JUMPI PUSH2 0xB91 PUSH2 0x7AF JUMP JUMPDEST PUSH2 0xBA5 DUP2 PUSH2 0xB9F DUP5 SLOAD PUSH2 0xAF1 JUMP JUMPDEST DUP5 PUSH2 0xB29 JUMP JUMPDEST PUSH1 0x20 DUP1 PUSH1 0x1F DUP4 GT PUSH1 0x1 DUP2 EQ PUSH2 0xBD8 JUMPI PUSH0 DUP5 ISZERO PUSH2 0xBC1 JUMPI POP DUP6 DUP4 ADD MLOAD JUMPDEST PUSH0 NOT PUSH1 0x3 DUP7 SWAP1 SHL SHR NOT AND PUSH1 0x1 DUP6 SWAP1 SHL OR DUP6 SSTORE PUSH2 0xB6E JUMP JUMPDEST PUSH0 DUP6 DUP2 MSTORE PUSH1 0x20 DUP2 KECCAK256 PUSH1 0x1F NOT DUP7 AND SWAP2 JUMPDEST DUP3 DUP2 LT ISZERO PUSH2 0xC06 JUMPI DUP9 DUP7 ADD MLOAD DUP3 SSTORE SWAP5 DUP5 ADD SWAP5 PUSH1 0x1 SWAP1 SWAP2 ADD SWAP1 DUP5 ADD PUSH2 0xBE7 JUMP JUMPDEST POP DUP6 DUP3 LT ISZERO PUSH2 0xC23 JUMPI DUP8 DUP6 ADD MLOAD PUSH0 NOT PUSH1 0x3 DUP9 SWAP1 SHL PUSH1 0xF8 AND SHR NOT AND DUP2 SSTORE JUMPDEST POP POP POP POP POP PUSH1 0x1 SWAP1 DUP2 SHL ADD SWAP1 SSTORE POP JUMP INVALID LOG2 PUSH5 0x6970667358 0x22 SLT KECCAK256 0x5E 0xE7 PUSH22 0xFC203A97492BED68E029626C6B1514B580005FB9613A 0x2D SWAP7 PUSH2 0x995B 0xEB 0x2F PUSH5 0x736F6C6343 STOP ADDMOD EQ STOP CALLER LOG2 PUSH5 0x6970667358 0x22 SLT KECCAK256 EXTCODECOPY 0x4D CALLDATACOPY 0xBA 0xD9 0xB5 0xD4 PUSH4 0xCFC7F14B STATICCALL GASPRICE JUMP PUSH21 0x1970AC5B2D867E65CDEF9707112CAE0564736F6C63 NUMBER STOP ADDMOD EQ STOP CALLER "
		},
		"gasEstimates": {
			"creation": {
				"codeDepositCost": "1726200",
				"executionCost": "infinite",
				"totalCost": "infinite"
			},
			"external": {
				"addParticipant(address)": "infinite",
				"addSession(address)": "48836",
				"admin()": "2401",
				"createSession(string,string,string[])": "infinite",
				"getAdmin()": "2341",
				"getAllParticipants()": "infinite",
				"getParticipant(address)": "infinite",
				"updateParticipant(address,string,string)": "infinite"
			}
		},
		"methodIdentifiers": {
			"addParticipant(address)": "dfafe10f",
			"addSession(address)": "f390dd86",
			"admin()": "f851a440",
			"createSession(string,string,string[])": "93631218",
			"getAdmin()": "6e9960c3",
			"getAllParticipants()": "195ec9ee",
			"getParticipant(address)": "7143059f",
			"updateParticipant(address,string,string)": "b4007700"
		}
	},
	"abi": [
		{
			"inputs": [
				{
					"internalType": "uint8",
					"name": "_maxOfUser",
					"type": "uint8"
				}
			],
			"stateMutability": "nonpayable",
			"type": "constructor"
		},
		{
			"anonymous": false,
			"inputs": [
				{
					"indexed": false,
					"internalType": "address",
					"name": "_account",
					"type": "address"
				},
				{
					"indexed": false,
					"internalType": "string",
					"name": "msg",
					"type": "string"
				}
			],
			"name": "AddParticipant",
			"type": "event"
		},
		{
			"anonymous": false,
			"inputs": [
				{
					"indexed": false,
					"internalType": "string",
					"name": "_productName",
					"type": "string"
				},
				{
					"indexed": false,
					"internalType": "string",
					"name": "_description",
					"type": "string"
				}
			],
			"name": "CreateSession",
			"type": "event"
		},
		{
			"anonymous": false,
			"inputs": [
				{
					"indexed": false,
					"internalType": "address",
					"name": "_account",
					"type": "address"
				},
				{
					"indexed": false,
					"internalType": "string",
					"name": "_fullName",
					"type": "string"
				},
				{
					"indexed": false,
					"internalType": "string",
					"name": "_email",
					"type": "string"
				}
			],
			"name": "UpdateParticipant",
			"type": "event"
		},
		{
			"inputs": [
				{
					"internalType": "address",
					"name": "_account",
					"type": "address"
				}
			],
			"name": "addParticipant",
			"outputs": [],
			"stateMutability": "nonpayable",
			"type": "function"
		},
		{
			"inputs": [
				{
					"internalType": "address",
					"name": "session",
					"type": "address"
				}
			],
			"name": "addSession",
			"outputs": [],
			"stateMutability": "nonpayable",
			"type": "function"
		},
		{
			"inputs": [],
			"name": "admin",
			"outputs": [
				{
					"internalType": "address",
					"name": "",
					"type": "address"
				}
			],
			"stateMutability": "view",
			"type": "function"
		},
		{
			"inputs": [
				{
					"internalType": "string",
					"name": "_productName",
					"type": "string"
				},
				{
					"internalType": "string",
					"name": "_description",
					"type": "string"
				},
				{
					"internalType": "string[]",
					"name": "_images",
					"type": "string[]"
				}
			],
			"name": "createSession",
			"outputs": [],
			"stateMutability": "nonpayable",
			"type": "function"
		},
		{
			"inputs": [],
			"name": "getAdmin",
			"outputs": [
				{
					"internalType": "address",
					"name": "",
					"type": "address"
				}
			],
			"stateMutability": "view",
			"type": "function"
		},
		{
			"inputs": [],
			"name": "getAllParticipants",
			"outputs": [
				{
					"components": [
						{
							"internalType": "address",
							"name": "account",
							"type": "address"
						},
						{
							"internalType": "string",
							"name": "fullName",
							"type": "string"
						},
						{
							"internalType": "string",
							"name": "email",
							"type": "string"
						},
						{
							"internalType": "uint256",
							"name": "numberOfSession",
							"type": "uint256"
						},
						{
							"internalType": "uint8",
							"name": "deviation",
							"type": "uint8"
						}
					],
					"internalType": "struct Main.IParticipant[]",
					"name": "",
					"type": "tuple[]"
				}
			],
			"stateMutability": "view",
			"type": "function"
		},
		{
			"inputs": [
				{
					"internalType": "address",
					"name": "_account",
					"type": "address"
				}
			],
			"name": "getParticipant",
			"outputs": [
				{
					"components": [
						{
							"internalType": "address",
							"name": "account",
							"type": "address"
						},
						{
							"internalType": "string",
							"name": "fullName",
							"type": "string"
						},
						{
							"internalType": "string",
							"name": "email",
							"type": "string"
						},
						{
							"internalType": "uint256",
							"name": "numberOfSession",
							"type": "uint256"
						},
						{
							"internalType": "uint8",
							"name": "deviation",
							"type": "uint8"
						}
					],
					"internalType": "struct Main.IParticipant",
					"name": "",
					"type": "tuple"
				}
			],
			"stateMutability": "view",
			"type": "function"
		},
		{
			"inputs": [
				{
					"internalType": "address",
					"name": "_account",
					"type": "address"
				},
				{
					"internalType": "string",
					"name": "_fullName",
					"type": "string"
				},
				{
					"internalType": "string",
					"name": "_email",
					"type": "string"
				}
			],
			"name": "updateParticipant",
			"outputs": [],
			"stateMutability": "nonpayable",
			"type": "function"
		}
	]
}