{
	"data": {
		"bytecode": {
			"linkReferences": {},
			"object": "608060405234801561000f575f80fd5b5060405161274338038061274383398101604081905261002e9161005e565b5f80546001600160a81b0319163360ff60a01b191617600160a01b60ff9390931692909202919091179055610085565b5f6020828403121561006e575f80fd5b815160ff8116811461007e575f80fd5b9392505050565b6126b1806100925f395ff3fe608060405234801562000010575f80fd5b5060043610620000b4575f3560e01c8063a18e34041162000077578063a18e340414620000da578063b40077001462000157578063d1bce2c7146200016e578063dfafe10f1462000199578063f390dd8614620001b0578063f851a4401462000212575f80fd5b8063195ec9ee14620000b857806354ca06b414620000da5780636e9960c314620000f35780637143059f146200011857806393631218146200013e575b5f80fd5b620000c262000225565b604051620000d1919062000b49565b60405180910390f35b620000e4620004b4565b604051620000d1919062000bad565b5f546001600160a01b03165b6040516001600160a01b039091168152602001620000d1565b6200012f6200012936600462000c17565b62000516565b604051620000d1919062000c3a565b620001556200014f36600462000d3e565b6200069f565b005b620001556200016836600462000e3f565b62000748565b620001856200017f36600462000c17565b620007cc565b604051620000d19695949392919062000f0e565b62000155620001aa36600462000c17565b62000852565b62000155620001c136600462000c17565b600380546001810182555f919091527fc2575a0e9e593c00f959f8c92f12db2869c3395a3b0502d05e2516446f71f85b0180546001600160a01b0319166001600160a01b0392909216919091179055565b5f54620000ff906001600160a01b031681565b5f546060906001600160a01b031633146200025d5760405162461bcd60e51b8152600401620002549062000f6e565b60405180910390fd5b6002545f9067ffffffffffffffff8111156200027d576200027d62000c4e565b604051908082528060200260200182016040528015620002ba57816020015b620002a662000a4b565b8152602001906001900390816200029c5790505b5090505f5b60025460ff82161015620004ae5760015f60028360ff1681548110620002e957620002e962000fb3565b5f9182526020808320909101546001600160a01b039081168452838201949094526040928301909120825160a0810190935280549093168252600183018054929392918401916200033a9062000fc7565b80601f0160208091040260200160405190810160405280929190818152602001828054620003689062000fc7565b8015620003b75780601f106200038d57610100808354040283529160200191620003b7565b820191905f5260205f20905b8154815290600101906020018083116200039957829003601f168201915b50505050508152602001600282018054620003d29062000fc7565b80601f0160208091040260200160405190810160405280929190818152602001828054620004009062000fc7565b80156200044f5780601f1062000425576101008083540402835291602001916200044f565b820191905f5260205f20905b8154815290600101906020018083116200043157829003601f168201915b50505091835250506003820154602082015260049091015460ff9081166040909201919091528351849184169081106200048d576200048d62000fb3565b60200260200101819052508080620004a59062001001565b915050620002bf565b50905090565b606060038054806020026020016040519081016040528092919081815260200182805480156200050c57602002820191905f5260205f20905b81546001600160a01b03168152600190910190602001808311620004ed575b5050505050905090565b6200052062000a4b565b6001600160a01b038083165f90815260016020818152604092839020835160a0810190945280549094168352908301805492939291840191620005639062000fc7565b80601f0160208091040260200160405190810160405280929190818152602001828054620005919062000fc7565b8015620005e05780601f10620005b657610100808354040283529160200191620005e0565b820191905f5260205f20905b815481529060010190602001808311620005c257829003601f168201915b50505050508152602001600282018054620005fb9062000fc7565b80601f0160208091040260200160405190810160405280929190818152602001828054620006299062000fc7565b8015620006785780601f106200064e5761010080835404028352916020019162000678565b820191905f5260205f20905b8154815290600101906020018083116200065a57829003601f168201915b50505091835250506003820154602082015260049091015460ff1660409091015292915050565b5f546001600160a01b03163314620006cb5760405162461bcd60e51b8152600401620002549062000f6e565b30838383604051620006dd9062000a83565b620006ec94939291906200102c565b604051809103905ff08015801562000706573d5f803e3d5ffd5b50507f51c5e9dfa67879da5fab182fdd91303f7c5d1a38598aefb2216af7339ac32a1383836040516200073b92919062001086565b60405180910390a1505050565b6001600160a01b0383165f908152600160208190526040909120016200076f838262001109565b506001600160a01b0383165f90815260016020526040902060020162000796828262001109565b507f3bc63a1a560da32e0aab62ddb386a3bbfb7ac6d4531d5dd65fb1505a16a784b48383836040516200073b93929190620011d2565b60608060605f805f80879050806001600160a01b031663f8cb00bf6040518163ffffffff1660e01b81526004015f60405180830381865afa15801562000814573d5f803e3d5ffd5b505050506040513d5f823e601f3d908101601f191682016040526200083d919081019062001277565b949d939c50919a509850965090945092505050565b5f546001600160a01b031633146200087e5760405162461bcd60e51b8152600401620002549062000f6e565b5f54600254600160a01b90910460ff1611620008d55760405162461bcd60e51b81526020600482015260156024820152744f6e6c79206372656174652031302075736572732160581b604482015260640162000254565b6040805160a0810182526001600160a01b038381168083528351602080820186525f8083528186019283528651808301885281815286880152606086018190526080860181905292835260019081905294909120835181546001600160a01b031916931692909217825551919290919082019062000954908262001109565b50604082015160028201906200096b908262001109565b5060608281015160038301556080928301516004909201805460ff191660ff90931692909217909155600280546001810182555f919091527f405787fa12a823e0f2b7631cc41b3ba8828b3321ca811111fa75cd3aa3bb5ace0180546001600160a01b0319166001600160a01b03851690811790915560408051918252602082018190526018908201527f416464207061727469636970616e742073756363657373210000000000000000918101919091527f7a274ad5ebae6fdc80650d34a4e01c874e099afaca3b6e8c896edc5b9126651b910160405180910390a150565b6040518060a001604052805f6001600160a01b0316815260200160608152602001606081526020015f81526020015f60ff1681525090565b6112d880620013a483390190565b5f5b8381101562000aad57818101518382015260200162000a93565b50505f910152565b5f815180845262000ace81602086016020860162000a91565b601f01601f19169290920160200192915050565b60018060a01b0381511682525f602082015160a0602085015262000b0a60a085018262000ab5565b90506040830151848203604086015262000b25828262000ab5565b9150506060830151606085015260ff60808401511660808501528091505092915050565b5f602080830181845280855180835260408601915060408160051b87010192508387015f5b8281101562000ba057603f1988860301845262000b8d85835162000ae2565b9450928501929085019060010162000b6e565b5092979650505050505050565b602080825282518282018190525f9190848201906040850190845b8181101562000bef5783516001600160a01b03168352928401929184019160010162000bc8565b50909695505050505050565b80356001600160a01b038116811462000c12575f80fd5b919050565b5f6020828403121562000c28575f80fd5b62000c338262000bfb565b9392505050565b602081525f62000c33602083018462000ae2565b634e487b7160e01b5f52604160045260245ffd5b604051601f8201601f1916810167ffffffffffffffff8111828210171562000c8e5762000c8e62000c4e565b604052919050565b5f67ffffffffffffffff82111562000cb25762000cb262000c4e565b50601f01601f191660200190565b5f82601f83011262000cd0575f80fd5b813562000ce762000ce18262000c96565b62000c62565b81815284602083860101111562000cfc575f80fd5b816020850160208301375f918101602001919091529392505050565b5f67ffffffffffffffff82111562000d345762000d3462000c4e565b5060051b60200190565b5f805f6060848603121562000d51575f80fd5b833567ffffffffffffffff8082111562000d69575f80fd5b62000d778783880162000cc0565b945060209150818601358181111562000d8e575f80fd5b62000d9c8882890162000cc0565b94505060408601358181111562000db1575f80fd5b8601601f8101881362000dc2575f80fd5b803562000dd362000ce18262000d18565b81815260059190911b8201840190848101908a83111562000df2575f80fd5b8584015b8381101562000e2e5780358681111562000e0f575f8081fd5b62000e1f8d898389010162000cc0565b84525091860191860162000df6565b508096505050505050509250925092565b5f805f6060848603121562000e52575f80fd5b62000e5d8462000bfb565b9250602084013567ffffffffffffffff8082111562000e7a575f80fd5b62000e888783880162000cc0565b9350604086013591508082111562000e9e575f80fd5b5062000ead8682870162000cc0565b9150509250925092565b5f81518084526020808501808196508360051b810191508286015f5b8581101562000f0157828403895262000eee84835162000ab5565b9885019893509084019060010162000ed3565b5091979650505050505050565b60c081525f62000f2260c083018962000ab5565b828103602084015262000f36818962000ab5565b9050828103604084015262000f4c818862000eb7565b60608401969096525050608081019290925260ff1660a0909101529392505050565b60208082526025908201527f546869732066756e6374696f6e206f6e6c792061646d696e2063616e20657865604082015264637574652160d81b606082015260800190565b634e487b7160e01b5f52603260045260245ffd5b600181811c9082168062000fdc57607f821691505b60208210810362000ffb57634e487b7160e01b5f52602260045260245ffd5b50919050565b5f60ff821660ff81036200102357634e487b7160e01b5f52601160045260245ffd5b60010192915050565b6001600160a01b03851681526080602082018190525f90620010519083018662000ab5565b828103604084015262001065818662000ab5565b905082810360608401526200107b818562000eb7565b979650505050505050565b604081525f6200109a604083018562000ab5565b8281036020840152620010ae818562000ab5565b95945050505050565b601f82111562001104575f81815260208120601f850160051c81016020861015620010df5750805b601f850160051c820191505b818110156200110057828155600101620010eb565b5050505b505050565b815167ffffffffffffffff81111562001126576200112662000c4e565b6200113e8162001137845462000fc7565b84620010b7565b602080601f83116001811462001174575f84156200115c5750858301515b5f19600386901b1c1916600185901b17855562001100565b5f85815260208120601f198616915b82811015620011a45788860151825594840194600190910190840162001183565b5085821015620011c257878501515f19600388901b60f8161c191681555b5050505050600190811b01905550565b6001600160a01b03841681526060602082018190525f90620011f79083018562000ab5565b82810360408401526200120b818562000ab5565b9695505050505050565b5f82601f83011262001225575f80fd5b81516200123662000ce18262000c96565b8181528460208386010111156200124b575f80fd5b6200125e82602083016020870162000a91565b949350505050565b805160ff8116811462000c12575f80fd5b5f805f805f8060c087890312156200128d575f80fd5b865167ffffffffffffffff80821115620012a5575f80fd5b620012b38a838b0162001215565b97506020890151915080821115620012c9575f80fd5b620012d78a838b0162001215565b96506040890151915080821115620012ed575f80fd5b818901915089601f83011262001301575f80fd5b81516200131262000ce18262000d18565b8082825260208201915060208360051b86010192508c83111562001334575f80fd5b602085015b83811015620013725780518581111562001351575f80fd5b620013628f6020838a010162001215565b8452506020928301920162001339565b50809850505050505060608701519250608087015191506200139760a0880162001266565b9050929550929550929556fe608060405234801562000010575f80fd5b50604051620012d8380380620012d88339810160408190526200003391620002a7565b5f80546001600160a01b0386166001600160a01b0319918216811790925560018054909116909117905560026200006b84826200046a565b5060036200007a83826200046a565b5080516200009090600490602084019062000108565b505f60058190556006556007805460ff191690556001546040516379c86ec360e11b81523060048201526001600160a01b039091169063f390dd86906024015f604051808303815f87803b158015620000e7575f80fd5b505af1158015620000fa573d5f803e3d5ffd5b505050505050505062000532565b828054828255905f5260205f2090810192821562000151579160200282015b828111156200015157825182906200014090826200046a565b509160200191906001019062000127565b506200015f92915062000163565b5090565b808211156200015f575f62000179828262000183565b5060010162000163565b5080546200019190620003de565b5f825580601f10620001a1575050565b601f0160209004905f5260205f2090810190620001bf9190620001c2565b50565b5b808211156200015f575f8155600101620001c3565b634e487b7160e01b5f52604160045260245ffd5b604051601f8201601f191681016001600160401b0381118282101715620002175762000217620001d8565b604052919050565b5f82601f8301126200022f575f80fd5b81516001600160401b038111156200024b576200024b620001d8565b602062000261601f8301601f19168201620001ec565b828152858284870101111562000275575f80fd5b5f5b838110156200029457858101830151828201840152820162000277565b505f928101909101919091529392505050565b5f805f8060808587031215620002bb575f80fd5b84516001600160a01b0381168114620002d2575f80fd5b602086810151919550906001600160401b0380821115620002f1575f80fd5b620002ff89838a016200021f565b9550604088015191508082111562000315575f80fd5b6200032389838a016200021f565b9450606088015191508082111562000339575f80fd5b818801915088601f8301126200034d575f80fd5b815181811115620003625762000362620001d8565b8060051b62000373858201620001ec565b918252838101850191858101908c8411156200038d575f80fd5b86860192505b83831015620003cd57825185811115620003ac575f8081fd5b620003bc8e89838a01016200021f565b835250918601919086019062000393565b999c989b5096995050505050505050565b600181811c90821680620003f357607f821691505b6020821081036200041257634e487b7160e01b5f52602260045260245ffd5b50919050565b601f82111562000465575f81815260208120601f850160051c81016020861015620004405750805b601f850160051c820191505b8181101562000461578281556001016200044c565b5050505b505050565b81516001600160401b03811115620004865762000486620001d8565b6200049e81620004978454620003de565b8462000418565b602080601f831160018114620004d4575f8415620004bc5750858301515b5f19600386901b1c1916600185901b17855562000461565b5f85815260208120601f198616915b828110156200050457888601518255948401946001909101908401620004e3565b50858210156200052257878501515f19600388901b60f8161c191681555b5050505050600190811b01905550565b610d9880620005405f395ff3fe608060405234801561000f575f80fd5b506004361061007a575f3560e01c8063a7960a2811610058578063a7960a28146100c1578063d270e7ab146100d4578063f8cb00bf146100fe578063fe0ae16514610118575f80fd5b806306f4bcbf1461007e5780630e97350114610088578063494a0f3b1461009b575b5f80fd5b610086610120565b005b610086610096366004610963565b6101e4565b6100ae6100a9366004610a78565b6102bb565b6040519081526020015b60405180910390f35b6100866100cf366004610a9a565b61035e565b5f546100e6906001600160a01b031681565b6040516001600160a01b0390911681526020016100b8565b610106610513565b6040516100b896959493929190610b07565b61008661073d565b60015f9054906101000a90046001600160a01b03166001600160a01b0316636e9960c36040518163ffffffff1660e01b8152600401602060405180830381865afa158015610170573d5f803e3d5ffd5b505050506040513d601f19601f820116820180604052508101906101949190610bac565b6001600160a01b0316336001600160a01b0316146101cd5760405162461bcd60e51b81526004016101c490610bc7565b60405180910390fd5b600780546002919060ff19166001835b0217905550565b60015f9054906101000a90046001600160a01b03166001600160a01b0316636e9960c36040518163ffffffff1660e01b8152600401602060405180830381865afa158015610234573d5f803e3d5ffd5b505050506040513d601f19601f820116820180604052508101906102589190610bac565b6001600160a01b0316336001600160a01b0316146102885760405162461bcd60e51b81526004016101c490610bc7565b60026102948482610ca6565b5060036102a18382610ca6565b5080516102b59060049060208401906107f4565b50505050565b60015460408051636e9960c360e01b815290515f926001600160a01b031691636e9960c39160048083019260209291908290030181865afa158015610302573d5f803e3d5ffd5b505050506040513d601f19601f820116820180604052508101906103269190610bac565b6001600160a01b0316336001600160a01b0316146103565760405162461bcd60e51b81526004016101c490610bc7565b506001919050565b60015f9054906101000a90046001600160a01b03166001600160a01b0316636e9960c36040518163ffffffff1660e01b8152600401602060405180830381865afa1580156103ae573d5f803e3d5ffd5b505050506040513d601f19601f820116820180604052508101906103d29190610bac565b6001600160a01b0316330361043d5760405162461bcd60e51b815260206004820152602b60248201527f546869732066756e6374696f6e206f6e6c79207061727469636970616e74206360448201526a616e20657865637574652160a81b60648201526084016101c4565b600160075460ff16600281111561045657610456610c0c565b146104a35760405162461bcd60e51b815260206004820152601a60248201527f53657373696f6e206973206e6f7420696e2070726f677265737300000000000060448201526064016101c4565b6001600160a01b0382165f90815260086020526040812082905581900361050f57600980546001810182555f919091527f6e1540171b6c0c960b71a7020d9f60077f6af931a8bbf590da0223dacf75c7af0180546001600160a01b0319166001600160a01b0384161790555b5050565b60608060605f805f60026003600460055460065460075f9054906101000a900460ff16600281111561054757610547610c0c565b85805461055390610c20565b80601f016020809104026020016040519081016040528092919081815260200182805461057f90610c20565b80156105ca5780601f106105a1576101008083540402835291602001916105ca565b820191905f5260205f20905b8154815290600101906020018083116105ad57829003601f168201915b505050505095508480546105dd90610c20565b80601f016020809104026020016040519081016040528092919081815260200182805461060990610c20565b80156106545780601f1061062b57610100808354040283529160200191610654565b820191905f5260205f20905b81548152906001019060200180831161063757829003601f168201915b5050505050945083805480602002602001604051908101604052809291908181526020015f905b82821015610723578382905f5260205f2001805461069890610c20565b80601f01602080910402602001604051908101604052809291908181526020018280546106c490610c20565b801561070f5780601f106106e65761010080835404028352916020019161070f565b820191905f5260205f20905b8154815290600101906020018083116106f257829003601f168201915b50505050508152602001906001019061067b565b505050509350955095509550955095509550909192939495565b60015f9054906101000a90046001600160a01b03166001600160a01b0316636e9960c36040518163ffffffff1660e01b8152600401602060405180830381865afa15801561078d573d5f803e3d5ffd5b505050506040513d601f19601f820116820180604052508101906107b19190610bac565b6001600160a01b0316336001600160a01b0316146107e15760405162461bcd60e51b81526004016101c490610bc7565b600780546001919060ff191682806101dd565b828054828255905f5260205f20908101928215610838579160200282015b8281111561083857825182906108289082610ca6565b5091602001919060010190610812565b50610844929150610848565b5090565b80821115610844575f61085b8282610864565b50600101610848565b50805461087090610c20565b5f825580601f1061087f575050565b601f0160209004905f5260205f209081019061089b919061089e565b50565b5b80821115610844575f815560010161089f565b634e487b7160e01b5f52604160045260245ffd5b604051601f8201601f1916810167ffffffffffffffff811182821017156108ef576108ef6108b2565b604052919050565b5f82601f830112610906575f80fd5b813567ffffffffffffffff811115610920576109206108b2565b610933601f8201601f19166020016108c6565b818152846020838601011115610947575f80fd5b816020850160208301375f918101602001919091529392505050565b5f805f60608486031215610975575f80fd5b833567ffffffffffffffff8082111561098c575f80fd5b610998878388016108f7565b94506020915081860135818111156109ae575f80fd5b6109ba888289016108f7565b9450506040860135818111156109ce575f80fd5b8601601f810188136109de575f80fd5b8035828111156109f0576109f06108b2565b8060051b6109ff8582016108c6565b918252828101850191858101908b841115610a18575f80fd5b86850192505b83831015610a5357823586811115610a35575f8081fd5b610a438d89838901016108f7565b8352509186019190860190610a1e565b809750505050505050509250925092565b6001600160a01b038116811461089b575f80fd5b5f60208284031215610a88575f80fd5b8135610a9381610a64565b9392505050565b5f8060408385031215610aab575f80fd5b8235610ab681610a64565b946020939093013593505050565b5f81518084525f5b81811015610ae857602081850181015186830182015201610acc565b505f602082860101526020601f19601f83011685010191505092915050565b60c081525f610b1960c0830189610ac4565b602083820381850152610b2c828a610ac4565b915083820360408501528188518084528284019150828160051b850101838b015f5b83811015610b7c57601f19878403018552610b6a838351610ac4565b94860194925090850190600101610b4e565b50508095505050505050846060830152836080830152610ba160a083018460ff169052565b979650505050505050565b5f60208284031215610bbc575f80fd5b8151610a9381610a64565b60208082526025908201527f546869732066756e6374696f6e206f6e6c792061646d696e2063616e20657865604082015264637574652160d81b606082015260800190565b634e487b7160e01b5f52602160045260245ffd5b600181811c90821680610c3457607f821691505b602082108103610c5257634e487b7160e01b5f52602260045260245ffd5b50919050565b601f821115610ca1575f81815260208120601f850160051c81016020861015610c7e5750805b601f850160051c820191505b81811015610c9d57828155600101610c8a565b5050505b505050565b815167ffffffffffffffff811115610cc057610cc06108b2565b610cd481610cce8454610c20565b84610c58565b602080601f831160018114610d07575f8415610cf05750858301515b5f19600386901b1c1916600185901b178555610c9d565b5f85815260208120601f198616915b82811015610d3557888601518255948401946001909101908401610d16565b5085821015610d5257878501515f19600388901b60f8161c191681555b5050505050600190811b0190555056fea2646970667358221220161b94ef8b0d6f7bd7e1c05c1425a28ea503c72e5439960c2ad7cc791758507a64736f6c63430008140033a264697066735822122029e58ee518b1b10e32e118bb0874c829c80bed90039ef07850ac240b558f103164736f6c63430008140033",
			"opcodes": "PUSH1 0x80 PUSH1 0x40 MSTORE CALLVALUE DUP1 ISZERO PUSH2 0xF JUMPI PUSH0 DUP1 REVERT JUMPDEST POP PUSH1 0x40 MLOAD PUSH2 0x2743 CODESIZE SUB DUP1 PUSH2 0x2743 DUP4 CODECOPY DUP2 ADD PUSH1 0x40 DUP2 SWAP1 MSTORE PUSH2 0x2E SWAP2 PUSH2 0x5E JUMP JUMPDEST PUSH0 DUP1 SLOAD PUSH1 0x1 PUSH1 0x1 PUSH1 0xA8 SHL SUB NOT AND CALLER PUSH1 0xFF PUSH1 0xA0 SHL NOT AND OR PUSH1 0x1 PUSH1 0xA0 SHL PUSH1 0xFF SWAP4 SWAP1 SWAP4 AND SWAP3 SWAP1 SWAP3 MUL SWAP2 SWAP1 SWAP2 OR SWAP1 SSTORE PUSH2 0x85 JUMP JUMPDEST PUSH0 PUSH1 0x20 DUP3 DUP5 SUB SLT ISZERO PUSH2 0x6E JUMPI PUSH0 DUP1 REVERT JUMPDEST DUP2 MLOAD PUSH1 0xFF DUP2 AND DUP2 EQ PUSH2 0x7E JUMPI PUSH0 DUP1 REVERT JUMPDEST SWAP4 SWAP3 POP POP POP JUMP JUMPDEST PUSH2 0x26B1 DUP1 PUSH2 0x92 PUSH0 CODECOPY PUSH0 RETURN INVALID PUSH1 0x80 PUSH1 0x40 MSTORE CALLVALUE DUP1 ISZERO PUSH3 0x10 JUMPI PUSH0 DUP1 REVERT JUMPDEST POP PUSH1 0x4 CALLDATASIZE LT PUSH3 0xB4 JUMPI PUSH0 CALLDATALOAD PUSH1 0xE0 SHR DUP1 PUSH4 0xA18E3404 GT PUSH3 0x77 JUMPI DUP1 PUSH4 0xA18E3404 EQ PUSH3 0xDA JUMPI DUP1 PUSH4 0xB4007700 EQ PUSH3 0x157 JUMPI DUP1 PUSH4 0xD1BCE2C7 EQ PUSH3 0x16E JUMPI DUP1 PUSH4 0xDFAFE10F EQ PUSH3 0x199 JUMPI DUP1 PUSH4 0xF390DD86 EQ PUSH3 0x1B0 JUMPI DUP1 PUSH4 0xF851A440 EQ PUSH3 0x212 JUMPI PUSH0 DUP1 REVERT JUMPDEST DUP1 PUSH4 0x195EC9EE EQ PUSH3 0xB8 JUMPI DUP1 PUSH4 0x54CA06B4 EQ PUSH3 0xDA JUMPI DUP1 PUSH4 0x6E9960C3 EQ PUSH3 0xF3 JUMPI DUP1 PUSH4 0x7143059F EQ PUSH3 0x118 JUMPI DUP1 PUSH4 0x93631218 EQ PUSH3 0x13E JUMPI JUMPDEST PUSH0 DUP1 REVERT JUMPDEST PUSH3 0xC2 PUSH3 0x225 JUMP JUMPDEST PUSH1 0x40 MLOAD PUSH3 0xD1 SWAP2 SWAP1 PUSH3 0xB49 JUMP JUMPDEST PUSH1 0x40 MLOAD DUP1 SWAP2 SUB SWAP1 RETURN JUMPDEST PUSH3 0xE4 PUSH3 0x4B4 JUMP JUMPDEST PUSH1 0x40 MLOAD PUSH3 0xD1 SWAP2 SWAP1 PUSH3 0xBAD JUMP JUMPDEST PUSH0 SLOAD PUSH1 0x1 PUSH1 0x1 PUSH1 0xA0 SHL SUB AND JUMPDEST PUSH1 0x40 MLOAD PUSH1 0x1 PUSH1 0x1 PUSH1 0xA0 SHL SUB SWAP1 SWAP2 AND DUP2 MSTORE PUSH1 0x20 ADD PUSH3 0xD1 JUMP JUMPDEST PUSH3 0x12F PUSH3 0x129 CALLDATASIZE PUSH1 0x4 PUSH3 0xC17 JUMP JUMPDEST PUSH3 0x516 JUMP JUMPDEST PUSH1 0x40 MLOAD PUSH3 0xD1 SWAP2 SWAP1 PUSH3 0xC3A JUMP JUMPDEST PUSH3 0x155 PUSH3 0x14F CALLDATASIZE PUSH1 0x4 PUSH3 0xD3E JUMP JUMPDEST PUSH3 0x69F JUMP JUMPDEST STOP JUMPDEST PUSH3 0x155 PUSH3 0x168 CALLDATASIZE PUSH1 0x4 PUSH3 0xE3F JUMP JUMPDEST PUSH3 0x748 JUMP JUMPDEST PUSH3 0x185 PUSH3 0x17F CALLDATASIZE PUSH1 0x4 PUSH3 0xC17 JUMP JUMPDEST PUSH3 0x7CC JUMP JUMPDEST PUSH1 0x40 MLOAD PUSH3 0xD1 SWAP7 SWAP6 SWAP5 SWAP4 SWAP3 SWAP2 SWAP1 PUSH3 0xF0E JUMP JUMPDEST PUSH3 0x155 PUSH3 0x1AA CALLDATASIZE PUSH1 0x4 PUSH3 0xC17 JUMP JUMPDEST PUSH3 0x852 JUMP JUMPDEST PUSH3 0x155 PUSH3 0x1C1 CALLDATASIZE PUSH1 0x4 PUSH3 0xC17 JUMP JUMPDEST PUSH1 0x3 DUP1 SLOAD PUSH1 0x1 DUP2 ADD DUP3 SSTORE PUSH0 SWAP2 SWAP1 SWAP2 MSTORE PUSH32 0xC2575A0E9E593C00F959F8C92F12DB2869C3395A3B0502D05E2516446F71F85B ADD DUP1 SLOAD PUSH1 0x1 PUSH1 0x1 PUSH1 0xA0 SHL SUB NOT AND PUSH1 0x1 PUSH1 0x1 PUSH1 0xA0 SHL SUB SWAP3 SWAP1 SWAP3 AND SWAP2 SWAP1 SWAP2 OR SWAP1 SSTORE JUMP JUMPDEST PUSH0 SLOAD PUSH3 0xFF SWAP1 PUSH1 0x1 PUSH1 0x1 PUSH1 0xA0 SHL SUB AND DUP2 JUMP JUMPDEST PUSH0 SLOAD PUSH1 0x60 SWAP1 PUSH1 0x1 PUSH1 0x1 PUSH1 0xA0 SHL SUB AND CALLER EQ PUSH3 0x25D JUMPI PUSH1 0x40 MLOAD PUSH3 0x461BCD PUSH1 0xE5 SHL DUP2 MSTORE PUSH1 0x4 ADD PUSH3 0x254 SWAP1 PUSH3 0xF6E JUMP JUMPDEST PUSH1 0x40 MLOAD DUP1 SWAP2 SUB SWAP1 REVERT JUMPDEST PUSH1 0x2 SLOAD PUSH0 SWAP1 PUSH8 0xFFFFFFFFFFFFFFFF DUP2 GT ISZERO PUSH3 0x27D JUMPI PUSH3 0x27D PUSH3 0xC4E JUMP JUMPDEST PUSH1 0x40 MLOAD SWAP1 DUP1 DUP3 MSTORE DUP1 PUSH1 0x20 MUL PUSH1 0x20 ADD DUP3 ADD PUSH1 0x40 MSTORE DUP1 ISZERO PUSH3 0x2BA JUMPI DUP2 PUSH1 0x20 ADD JUMPDEST PUSH3 0x2A6 PUSH3 0xA4B JUMP JUMPDEST DUP2 MSTORE PUSH1 0x20 ADD SWAP1 PUSH1 0x1 SWAP1 SUB SWAP1 DUP2 PUSH3 0x29C JUMPI SWAP1 POP JUMPDEST POP SWAP1 POP PUSH0 JUMPDEST PUSH1 0x2 SLOAD PUSH1 0xFF DUP3 AND LT ISZERO PUSH3 0x4AE JUMPI PUSH1 0x1 PUSH0 PUSH1 0x2 DUP4 PUSH1 0xFF AND DUP2 SLOAD DUP2 LT PUSH3 0x2E9 JUMPI PUSH3 0x2E9 PUSH3 0xFB3 JUMP JUMPDEST PUSH0 SWAP2 DUP3 MSTORE PUSH1 0x20 DUP1 DUP4 KECCAK256 SWAP1 SWAP2 ADD SLOAD PUSH1 0x1 PUSH1 0x1 PUSH1 0xA0 SHL SUB SWAP1 DUP2 AND DUP5 MSTORE DUP4 DUP3 ADD SWAP5 SWAP1 SWAP5 MSTORE PUSH1 0x40 SWAP3 DUP4 ADD SWAP1 SWAP2 KECCAK256 DUP3 MLOAD PUSH1 0xA0 DUP2 ADD SWAP1 SWAP4 MSTORE DUP1 SLOAD SWAP1 SWAP4 AND DUP3 MSTORE PUSH1 0x1 DUP4 ADD DUP1 SLOAD SWAP3 SWAP4 SWAP3 SWAP2 DUP5 ADD SWAP2 PUSH3 0x33A SWAP1 PUSH3 0xFC7 JUMP JUMPDEST DUP1 PUSH1 0x1F ADD PUSH1 0x20 DUP1 SWAP2 DIV MUL PUSH1 0x20 ADD PUSH1 0x40 MLOAD SWAP1 DUP2 ADD PUSH1 0x40 MSTORE DUP1 SWAP3 SWAP2 SWAP1 DUP2 DUP2 MSTORE PUSH1 0x20 ADD DUP3 DUP1 SLOAD PUSH3 0x368 SWAP1 PUSH3 0xFC7 JUMP JUMPDEST DUP1 ISZERO PUSH3 0x3B7 JUMPI DUP1 PUSH1 0x1F LT PUSH3 0x38D JUMPI PUSH2 0x100 DUP1 DUP4 SLOAD DIV MUL DUP4 MSTORE SWAP2 PUSH1 0x20 ADD SWAP2 PUSH3 0x3B7 JUMP JUMPDEST DUP3 ADD SWAP2 SWAP1 PUSH0 MSTORE PUSH1 0x20 PUSH0 KECCAK256 SWAP1 JUMPDEST DUP2 SLOAD DUP2 MSTORE SWAP1 PUSH1 0x1 ADD SWAP1 PUSH1 0x20 ADD DUP1 DUP4 GT PUSH3 0x399 JUMPI DUP3 SWAP1 SUB PUSH1 0x1F AND DUP3 ADD SWAP2 JUMPDEST POP POP POP POP POP DUP2 MSTORE PUSH1 0x20 ADD PUSH1 0x2 DUP3 ADD DUP1 SLOAD PUSH3 0x3D2 SWAP1 PUSH3 0xFC7 JUMP JUMPDEST DUP1 PUSH1 0x1F ADD PUSH1 0x20 DUP1 SWAP2 DIV MUL PUSH1 0x20 ADD PUSH1 0x40 MLOAD SWAP1 DUP2 ADD PUSH1 0x40 MSTORE DUP1 SWAP3 SWAP2 SWAP1 DUP2 DUP2 MSTORE PUSH1 0x20 ADD DUP3 DUP1 SLOAD PUSH3 0x400 SWAP1 PUSH3 0xFC7 JUMP JUMPDEST DUP1 ISZERO PUSH3 0x44F JUMPI DUP1 PUSH1 0x1F LT PUSH3 0x425 JUMPI PUSH2 0x100 DUP1 DUP4 SLOAD DIV MUL DUP4 MSTORE SWAP2 PUSH1 0x20 ADD SWAP2 PUSH3 0x44F JUMP JUMPDEST DUP3 ADD SWAP2 SWAP1 PUSH0 MSTORE PUSH1 0x20 PUSH0 KECCAK256 SWAP1 JUMPDEST DUP2 SLOAD DUP2 MSTORE SWAP1 PUSH1 0x1 ADD SWAP1 PUSH1 0x20 ADD DUP1 DUP4 GT PUSH3 0x431 JUMPI DUP3 SWAP1 SUB PUSH1 0x1F AND DUP3 ADD SWAP2 JUMPDEST POP POP POP SWAP2 DUP4 MSTORE POP POP PUSH1 0x3 DUP3 ADD SLOAD PUSH1 0x20 DUP3 ADD MSTORE PUSH1 0x4 SWAP1 SWAP2 ADD SLOAD PUSH1 0xFF SWAP1 DUP2 AND PUSH1 0x40 SWAP1 SWAP3 ADD SWAP2 SWAP1 SWAP2 MSTORE DUP4 MLOAD DUP5 SWAP2 DUP5 AND SWAP1 DUP2 LT PUSH3 0x48D JUMPI PUSH3 0x48D PUSH3 0xFB3 JUMP JUMPDEST PUSH1 0x20 MUL PUSH1 0x20 ADD ADD DUP2 SWAP1 MSTORE POP DUP1 DUP1 PUSH3 0x4A5 SWAP1 PUSH3 0x1001 JUMP JUMPDEST SWAP2 POP POP PUSH3 0x2BF JUMP JUMPDEST POP SWAP1 POP SWAP1 JUMP JUMPDEST PUSH1 0x60 PUSH1 0x3 DUP1 SLOAD DUP1 PUSH1 0x20 MUL PUSH1 0x20 ADD PUSH1 0x40 MLOAD SWAP1 DUP2 ADD PUSH1 0x40 MSTORE DUP1 SWAP3 SWAP2 SWAP1 DUP2 DUP2 MSTORE PUSH1 0x20 ADD DUP3 DUP1 SLOAD DUP1 ISZERO PUSH3 0x50C JUMPI PUSH1 0x20 MUL DUP3 ADD SWAP2 SWAP1 PUSH0 MSTORE PUSH1 0x20 PUSH0 KECCAK256 SWAP1 JUMPDEST DUP2 SLOAD PUSH1 0x1 PUSH1 0x1 PUSH1 0xA0 SHL SUB AND DUP2 MSTORE PUSH1 0x1 SWAP1 SWAP2 ADD SWAP1 PUSH1 0x20 ADD DUP1 DUP4 GT PUSH3 0x4ED JUMPI JUMPDEST POP POP POP POP POP SWAP1 POP SWAP1 JUMP JUMPDEST PUSH3 0x520 PUSH3 0xA4B JUMP JUMPDEST PUSH1 0x1 PUSH1 0x1 PUSH1 0xA0 SHL SUB DUP1 DUP4 AND PUSH0 SWAP1 DUP2 MSTORE PUSH1 0x1 PUSH1 0x20 DUP2 DUP2 MSTORE PUSH1 0x40 SWAP3 DUP4 SWAP1 KECCAK256 DUP4 MLOAD PUSH1 0xA0 DUP2 ADD SWAP1 SWAP5 MSTORE DUP1 SLOAD SWAP1 SWAP5 AND DUP4 MSTORE SWAP1 DUP4 ADD DUP1 SLOAD SWAP3 SWAP4 SWAP3 SWAP2 DUP5 ADD SWAP2 PUSH3 0x563 SWAP1 PUSH3 0xFC7 JUMP JUMPDEST DUP1 PUSH1 0x1F ADD PUSH1 0x20 DUP1 SWAP2 DIV MUL PUSH1 0x20 ADD PUSH1 0x40 MLOAD SWAP1 DUP2 ADD PUSH1 0x40 MSTORE DUP1 SWAP3 SWAP2 SWAP1 DUP2 DUP2 MSTORE PUSH1 0x20 ADD DUP3 DUP1 SLOAD PUSH3 0x591 SWAP1 PUSH3 0xFC7 JUMP JUMPDEST DUP1 ISZERO PUSH3 0x5E0 JUMPI DUP1 PUSH1 0x1F LT PUSH3 0x5B6 JUMPI PUSH2 0x100 DUP1 DUP4 SLOAD DIV MUL DUP4 MSTORE SWAP2 PUSH1 0x20 ADD SWAP2 PUSH3 0x5E0 JUMP JUMPDEST DUP3 ADD SWAP2 SWAP1 PUSH0 MSTORE PUSH1 0x20 PUSH0 KECCAK256 SWAP1 JUMPDEST DUP2 SLOAD DUP2 MSTORE SWAP1 PUSH1 0x1 ADD SWAP1 PUSH1 0x20 ADD DUP1 DUP4 GT PUSH3 0x5C2 JUMPI DUP3 SWAP1 SUB PUSH1 0x1F AND DUP3 ADD SWAP2 JUMPDEST POP POP POP POP POP DUP2 MSTORE PUSH1 0x20 ADD PUSH1 0x2 DUP3 ADD DUP1 SLOAD PUSH3 0x5FB SWAP1 PUSH3 0xFC7 JUMP JUMPDEST DUP1 PUSH1 0x1F ADD PUSH1 0x20 DUP1 SWAP2 DIV MUL PUSH1 0x20 ADD PUSH1 0x40 MLOAD SWAP1 DUP2 ADD PUSH1 0x40 MSTORE DUP1 SWAP3 SWAP2 SWAP1 DUP2 DUP2 MSTORE PUSH1 0x20 ADD DUP3 DUP1 SLOAD PUSH3 0x629 SWAP1 PUSH3 0xFC7 JUMP JUMPDEST DUP1 ISZERO PUSH3 0x678 JUMPI DUP1 PUSH1 0x1F LT PUSH3 0x64E JUMPI PUSH2 0x100 DUP1 DUP4 SLOAD DIV MUL DUP4 MSTORE SWAP2 PUSH1 0x20 ADD SWAP2 PUSH3 0x678 JUMP JUMPDEST DUP3 ADD SWAP2 SWAP1 PUSH0 MSTORE PUSH1 0x20 PUSH0 KECCAK256 SWAP1 JUMPDEST DUP2 SLOAD DUP2 MSTORE SWAP1 PUSH1 0x1 ADD SWAP1 PUSH1 0x20 ADD DUP1 DUP4 GT PUSH3 0x65A JUMPI DUP3 SWAP1 SUB PUSH1 0x1F AND DUP3 ADD SWAP2 JUMPDEST POP POP POP SWAP2 DUP4 MSTORE POP POP PUSH1 0x3 DUP3 ADD SLOAD PUSH1 0x20 DUP3 ADD MSTORE PUSH1 0x4 SWAP1 SWAP2 ADD SLOAD PUSH1 0xFF AND PUSH1 0x40 SWAP1 SWAP2 ADD MSTORE SWAP3 SWAP2 POP POP JUMP JUMPDEST PUSH0 SLOAD PUSH1 0x1 PUSH1 0x1 PUSH1 0xA0 SHL SUB AND CALLER EQ PUSH3 0x6CB JUMPI PUSH1 0x40 MLOAD PUSH3 0x461BCD PUSH1 0xE5 SHL DUP2 MSTORE PUSH1 0x4 ADD PUSH3 0x254 SWAP1 PUSH3 0xF6E JUMP JUMPDEST ADDRESS DUP4 DUP4 DUP4 PUSH1 0x40 MLOAD PUSH3 0x6DD SWAP1 PUSH3 0xA83 JUMP JUMPDEST PUSH3 0x6EC SWAP5 SWAP4 SWAP3 SWAP2 SWAP1 PUSH3 0x102C JUMP JUMPDEST PUSH1 0x40 MLOAD DUP1 SWAP2 SUB SWAP1 PUSH0 CREATE DUP1 ISZERO DUP1 ISZERO PUSH3 0x706 JUMPI RETURNDATASIZE PUSH0 DUP1 RETURNDATACOPY RETURNDATASIZE PUSH0 REVERT JUMPDEST POP POP PUSH32 0x51C5E9DFA67879DA5FAB182FDD91303F7C5D1A38598AEFB2216AF7339AC32A13 DUP4 DUP4 PUSH1 0x40 MLOAD PUSH3 0x73B SWAP3 SWAP2 SWAP1 PUSH3 0x1086 JUMP JUMPDEST PUSH1 0x40 MLOAD DUP1 SWAP2 SUB SWAP1 LOG1 POP POP POP JUMP JUMPDEST PUSH1 0x1 PUSH1 0x1 PUSH1 0xA0 SHL SUB DUP4 AND PUSH0 SWAP1 DUP2 MSTORE PUSH1 0x1 PUSH1 0x20 DUP2 SWAP1 MSTORE PUSH1 0x40 SWAP1 SWAP2 KECCAK256 ADD PUSH3 0x76F DUP4 DUP3 PUSH3 0x1109 JUMP JUMPDEST POP PUSH1 0x1 PUSH1 0x1 PUSH1 0xA0 SHL SUB DUP4 AND PUSH0 SWAP1 DUP2 MSTORE PUSH1 0x1 PUSH1 0x20 MSTORE PUSH1 0x40 SWAP1 KECCAK256 PUSH1 0x2 ADD PUSH3 0x796 DUP3 DUP3 PUSH3 0x1109 JUMP JUMPDEST POP PUSH32 0x3BC63A1A560DA32E0AAB62DDB386A3BBFB7AC6D4531D5DD65FB1505A16A784B4 DUP4 DUP4 DUP4 PUSH1 0x40 MLOAD PUSH3 0x73B SWAP4 SWAP3 SWAP2 SWAP1 PUSH3 0x11D2 JUMP JUMPDEST PUSH1 0x60 DUP1 PUSH1 0x60 PUSH0 DUP1 PUSH0 DUP1 DUP8 SWAP1 POP DUP1 PUSH1 0x1 PUSH1 0x1 PUSH1 0xA0 SHL SUB AND PUSH4 0xF8CB00BF PUSH1 0x40 MLOAD DUP2 PUSH4 0xFFFFFFFF AND PUSH1 0xE0 SHL DUP2 MSTORE PUSH1 0x4 ADD PUSH0 PUSH1 0x40 MLOAD DUP1 DUP4 SUB DUP2 DUP7 GAS STATICCALL ISZERO DUP1 ISZERO PUSH3 0x814 JUMPI RETURNDATASIZE PUSH0 DUP1 RETURNDATACOPY RETURNDATASIZE PUSH0 REVERT JUMPDEST POP POP POP POP PUSH1 0x40 MLOAD RETURNDATASIZE PUSH0 DUP3 RETURNDATACOPY PUSH1 0x1F RETURNDATASIZE SWAP1 DUP2 ADD PUSH1 0x1F NOT AND DUP3 ADD PUSH1 0x40 MSTORE PUSH3 0x83D SWAP2 SWAP1 DUP2 ADD SWAP1 PUSH3 0x1277 JUMP JUMPDEST SWAP5 SWAP14 SWAP4 SWAP13 POP SWAP2 SWAP11 POP SWAP9 POP SWAP7 POP SWAP1 SWAP5 POP SWAP3 POP POP POP JUMP JUMPDEST PUSH0 SLOAD PUSH1 0x1 PUSH1 0x1 PUSH1 0xA0 SHL SUB AND CALLER EQ PUSH3 0x87E JUMPI PUSH1 0x40 MLOAD PUSH3 0x461BCD PUSH1 0xE5 SHL DUP2 MSTORE PUSH1 0x4 ADD PUSH3 0x254 SWAP1 PUSH3 0xF6E JUMP JUMPDEST PUSH0 SLOAD PUSH1 0x2 SLOAD PUSH1 0x1 PUSH1 0xA0 SHL SWAP1 SWAP2 DIV PUSH1 0xFF AND GT PUSH3 0x8D5 JUMPI PUSH1 0x40 MLOAD PUSH3 0x461BCD PUSH1 0xE5 SHL DUP2 MSTORE PUSH1 0x20 PUSH1 0x4 DUP3 ADD MSTORE PUSH1 0x15 PUSH1 0x24 DUP3 ADD MSTORE PUSH21 0x4F6E6C792063726561746520313020757365727321 PUSH1 0x58 SHL PUSH1 0x44 DUP3 ADD MSTORE PUSH1 0x64 ADD PUSH3 0x254 JUMP JUMPDEST PUSH1 0x40 DUP1 MLOAD PUSH1 0xA0 DUP2 ADD DUP3 MSTORE PUSH1 0x1 PUSH1 0x1 PUSH1 0xA0 SHL SUB DUP4 DUP2 AND DUP1 DUP4 MSTORE DUP4 MLOAD PUSH1 0x20 DUP1 DUP3 ADD DUP7 MSTORE PUSH0 DUP1 DUP4 MSTORE DUP2 DUP7 ADD SWAP3 DUP4 MSTORE DUP7 MLOAD DUP1 DUP4 ADD DUP9 MSTORE DUP2 DUP2 MSTORE DUP7 DUP9 ADD MSTORE PUSH1 0x60 DUP7 ADD DUP2 SWAP1 MSTORE PUSH1 0x80 DUP7 ADD DUP2 SWAP1 MSTORE SWAP3 DUP4 MSTORE PUSH1 0x1 SWAP1 DUP2 SWAP1 MSTORE SWAP5 SWAP1 SWAP2 KECCAK256 DUP4 MLOAD DUP2 SLOAD PUSH1 0x1 PUSH1 0x1 PUSH1 0xA0 SHL SUB NOT AND SWAP4 AND SWAP3 SWAP1 SWAP3 OR DUP3 SSTORE MLOAD SWAP2 SWAP3 SWAP1 SWAP2 SWAP1 DUP3 ADD SWAP1 PUSH3 0x954 SWAP1 DUP3 PUSH3 0x1109 JUMP JUMPDEST POP PUSH1 0x40 DUP3 ADD MLOAD PUSH1 0x2 DUP3 ADD SWAP1 PUSH3 0x96B SWAP1 DUP3 PUSH3 0x1109 JUMP JUMPDEST POP PUSH1 0x60 DUP3 DUP2 ADD MLOAD PUSH1 0x3 DUP4 ADD SSTORE PUSH1 0x80 SWAP3 DUP4 ADD MLOAD PUSH1 0x4 SWAP1 SWAP3 ADD DUP1 SLOAD PUSH1 0xFF NOT AND PUSH1 0xFF SWAP1 SWAP4 AND SWAP3 SWAP1 SWAP3 OR SWAP1 SWAP2 SSTORE PUSH1 0x2 DUP1 SLOAD PUSH1 0x1 DUP2 ADD DUP3 SSTORE PUSH0 SWAP2 SWAP1 SWAP2 MSTORE PUSH32 0x405787FA12A823E0F2B7631CC41B3BA8828B3321CA811111FA75CD3AA3BB5ACE ADD DUP1 SLOAD PUSH1 0x1 PUSH1 0x1 PUSH1 0xA0 SHL SUB NOT AND PUSH1 0x1 PUSH1 0x1 PUSH1 0xA0 SHL SUB DUP6 AND SWAP1 DUP2 OR SWAP1 SWAP2 SSTORE PUSH1 0x40 DUP1 MLOAD SWAP2 DUP3 MSTORE PUSH1 0x20 DUP3 ADD DUP2 SWAP1 MSTORE PUSH1 0x18 SWAP1 DUP3 ADD MSTORE PUSH32 0x416464207061727469636970616E742073756363657373210000000000000000 SWAP2 DUP2 ADD SWAP2 SWAP1 SWAP2 MSTORE PUSH32 0x7A274AD5EBAE6FDC80650D34A4E01C874E099AFACA3B6E8C896EDC5B9126651B SWAP2 ADD PUSH1 0x40 MLOAD DUP1 SWAP2 SUB SWAP1 LOG1 POP JUMP JUMPDEST PUSH1 0x40 MLOAD DUP1 PUSH1 0xA0 ADD PUSH1 0x40 MSTORE DUP1 PUSH0 PUSH1 0x1 PUSH1 0x1 PUSH1 0xA0 SHL SUB AND DUP2 MSTORE PUSH1 0x20 ADD PUSH1 0x60 DUP2 MSTORE PUSH1 0x20 ADD PUSH1 0x60 DUP2 MSTORE PUSH1 0x20 ADD PUSH0 DUP2 MSTORE PUSH1 0x20 ADD PUSH0 PUSH1 0xFF AND DUP2 MSTORE POP SWAP1 JUMP JUMPDEST PUSH2 0x12D8 DUP1 PUSH3 0x13A4 DUP4 CODECOPY ADD SWAP1 JUMP JUMPDEST PUSH0 JUMPDEST DUP4 DUP2 LT ISZERO PUSH3 0xAAD JUMPI DUP2 DUP2 ADD MLOAD DUP4 DUP3 ADD MSTORE PUSH1 0x20 ADD PUSH3 0xA93 JUMP JUMPDEST POP POP PUSH0 SWAP2 ADD MSTORE JUMP JUMPDEST PUSH0 DUP2 MLOAD DUP1 DUP5 MSTORE PUSH3 0xACE DUP2 PUSH1 0x20 DUP7 ADD PUSH1 0x20 DUP7 ADD PUSH3 0xA91 JUMP JUMPDEST PUSH1 0x1F ADD PUSH1 0x1F NOT AND SWAP3 SWAP1 SWAP3 ADD PUSH1 0x20 ADD SWAP3 SWAP2 POP POP JUMP JUMPDEST PUSH1 0x1 DUP1 PUSH1 0xA0 SHL SUB DUP2 MLOAD AND DUP3 MSTORE PUSH0 PUSH1 0x20 DUP3 ADD MLOAD PUSH1 0xA0 PUSH1 0x20 DUP6 ADD MSTORE PUSH3 0xB0A PUSH1 0xA0 DUP6 ADD DUP3 PUSH3 0xAB5 JUMP JUMPDEST SWAP1 POP PUSH1 0x40 DUP4 ADD MLOAD DUP5 DUP3 SUB PUSH1 0x40 DUP7 ADD MSTORE PUSH3 0xB25 DUP3 DUP3 PUSH3 0xAB5 JUMP JUMPDEST SWAP2 POP POP PUSH1 0x60 DUP4 ADD MLOAD PUSH1 0x60 DUP6 ADD MSTORE PUSH1 0xFF PUSH1 0x80 DUP5 ADD MLOAD AND PUSH1 0x80 DUP6 ADD MSTORE DUP1 SWAP2 POP POP SWAP3 SWAP2 POP POP JUMP JUMPDEST PUSH0 PUSH1 0x20 DUP1 DUP4 ADD DUP2 DUP5 MSTORE DUP1 DUP6 MLOAD DUP1 DUP4 MSTORE PUSH1 0x40 DUP7 ADD SWAP2 POP PUSH1 0x40 DUP2 PUSH1 0x5 SHL DUP8 ADD ADD SWAP3 POP DUP4 DUP8 ADD PUSH0 JUMPDEST DUP3 DUP2 LT ISZERO PUSH3 0xBA0 JUMPI PUSH1 0x3F NOT DUP9 DUP7 SUB ADD DUP5 MSTORE PUSH3 0xB8D DUP6 DUP4 MLOAD PUSH3 0xAE2 JUMP JUMPDEST SWAP5 POP SWAP3 DUP6 ADD SWAP3 SWAP1 DUP6 ADD SWAP1 PUSH1 0x1 ADD PUSH3 0xB6E JUMP JUMPDEST POP SWAP3 SWAP8 SWAP7 POP POP POP POP POP POP POP JUMP JUMPDEST PUSH1 0x20 DUP1 DUP3 MSTORE DUP3 MLOAD DUP3 DUP3 ADD DUP2 SWAP1 MSTORE PUSH0 SWAP2 SWAP1 DUP5 DUP3 ADD SWAP1 PUSH1 0x40 DUP6 ADD SWAP1 DUP5 JUMPDEST DUP2 DUP2 LT ISZERO PUSH3 0xBEF JUMPI DUP4 MLOAD PUSH1 0x1 PUSH1 0x1 PUSH1 0xA0 SHL SUB AND DUP4 MSTORE SWAP3 DUP5 ADD SWAP3 SWAP2 DUP5 ADD SWAP2 PUSH1 0x1 ADD PUSH3 0xBC8 JUMP JUMPDEST POP SWAP1 SWAP7 SWAP6 POP POP POP POP POP POP JUMP JUMPDEST DUP1 CALLDATALOAD PUSH1 0x1 PUSH1 0x1 PUSH1 0xA0 SHL SUB DUP2 AND DUP2 EQ PUSH3 0xC12 JUMPI PUSH0 DUP1 REVERT JUMPDEST SWAP2 SWAP1 POP JUMP JUMPDEST PUSH0 PUSH1 0x20 DUP3 DUP5 SUB SLT ISZERO PUSH3 0xC28 JUMPI PUSH0 DUP1 REVERT JUMPDEST PUSH3 0xC33 DUP3 PUSH3 0xBFB JUMP JUMPDEST SWAP4 SWAP3 POP POP POP JUMP JUMPDEST PUSH1 0x20 DUP2 MSTORE PUSH0 PUSH3 0xC33 PUSH1 0x20 DUP4 ADD DUP5 PUSH3 0xAE2 JUMP JUMPDEST PUSH4 0x4E487B71 PUSH1 0xE0 SHL PUSH0 MSTORE PUSH1 0x41 PUSH1 0x4 MSTORE PUSH1 0x24 PUSH0 REVERT JUMPDEST PUSH1 0x40 MLOAD PUSH1 0x1F DUP3 ADD PUSH1 0x1F NOT AND DUP2 ADD PUSH8 0xFFFFFFFFFFFFFFFF DUP2 GT DUP3 DUP3 LT OR ISZERO PUSH3 0xC8E JUMPI PUSH3 0xC8E PUSH3 0xC4E JUMP JUMPDEST PUSH1 0x40 MSTORE SWAP2 SWAP1 POP JUMP JUMPDEST PUSH0 PUSH8 0xFFFFFFFFFFFFFFFF DUP3 GT ISZERO PUSH3 0xCB2 JUMPI PUSH3 0xCB2 PUSH3 0xC4E JUMP JUMPDEST POP PUSH1 0x1F ADD PUSH1 0x1F NOT AND PUSH1 0x20 ADD SWAP1 JUMP JUMPDEST PUSH0 DUP3 PUSH1 0x1F DUP4 ADD SLT PUSH3 0xCD0 JUMPI PUSH0 DUP1 REVERT JUMPDEST DUP2 CALLDATALOAD PUSH3 0xCE7 PUSH3 0xCE1 DUP3 PUSH3 0xC96 JUMP JUMPDEST PUSH3 0xC62 JUMP JUMPDEST DUP2 DUP2 MSTORE DUP5 PUSH1 0x20 DUP4 DUP7 ADD ADD GT ISZERO PUSH3 0xCFC JUMPI PUSH0 DUP1 REVERT JUMPDEST DUP2 PUSH1 0x20 DUP6 ADD PUSH1 0x20 DUP4 ADD CALLDATACOPY PUSH0 SWAP2 DUP2 ADD PUSH1 0x20 ADD SWAP2 SWAP1 SWAP2 MSTORE SWAP4 SWAP3 POP POP POP JUMP JUMPDEST PUSH0 PUSH8 0xFFFFFFFFFFFFFFFF DUP3 GT ISZERO PUSH3 0xD34 JUMPI PUSH3 0xD34 PUSH3 0xC4E JUMP JUMPDEST POP PUSH1 0x5 SHL PUSH1 0x20 ADD SWAP1 JUMP JUMPDEST PUSH0 DUP1 PUSH0 PUSH1 0x60 DUP5 DUP7 SUB SLT ISZERO PUSH3 0xD51 JUMPI PUSH0 DUP1 REVERT JUMPDEST DUP4 CALLDATALOAD PUSH8 0xFFFFFFFFFFFFFFFF DUP1 DUP3 GT ISZERO PUSH3 0xD69 JUMPI PUSH0 DUP1 REVERT JUMPDEST PUSH3 0xD77 DUP8 DUP4 DUP9 ADD PUSH3 0xCC0 JUMP JUMPDEST SWAP5 POP PUSH1 0x20 SWAP2 POP DUP2 DUP7 ADD CALLDATALOAD DUP2 DUP2 GT ISZERO PUSH3 0xD8E JUMPI PUSH0 DUP1 REVERT JUMPDEST PUSH3 0xD9C DUP9 DUP3 DUP10 ADD PUSH3 0xCC0 JUMP JUMPDEST SWAP5 POP POP PUSH1 0x40 DUP7 ADD CALLDATALOAD DUP2 DUP2 GT ISZERO PUSH3 0xDB1 JUMPI PUSH0 DUP1 REVERT JUMPDEST DUP7 ADD PUSH1 0x1F DUP2 ADD DUP9 SGT PUSH3 0xDC2 JUMPI PUSH0 DUP1 REVERT JUMPDEST DUP1 CALLDATALOAD PUSH3 0xDD3 PUSH3 0xCE1 DUP3 PUSH3 0xD18 JUMP JUMPDEST DUP2 DUP2 MSTORE PUSH1 0x5 SWAP2 SWAP1 SWAP2 SHL DUP3 ADD DUP5 ADD SWAP1 DUP5 DUP2 ADD SWAP1 DUP11 DUP4 GT ISZERO PUSH3 0xDF2 JUMPI PUSH0 DUP1 REVERT JUMPDEST DUP6 DUP5 ADD JUMPDEST DUP4 DUP2 LT ISZERO PUSH3 0xE2E JUMPI DUP1 CALLDATALOAD DUP7 DUP2 GT ISZERO PUSH3 0xE0F JUMPI PUSH0 DUP1 DUP2 REVERT JUMPDEST PUSH3 0xE1F DUP14 DUP10 DUP4 DUP10 ADD ADD PUSH3 0xCC0 JUMP JUMPDEST DUP5 MSTORE POP SWAP2 DUP7 ADD SWAP2 DUP7 ADD PUSH3 0xDF6 JUMP JUMPDEST POP DUP1 SWAP7 POP POP POP POP POP POP POP SWAP3 POP SWAP3 POP SWAP3 JUMP JUMPDEST PUSH0 DUP1 PUSH0 PUSH1 0x60 DUP5 DUP7 SUB SLT ISZERO PUSH3 0xE52 JUMPI PUSH0 DUP1 REVERT JUMPDEST PUSH3 0xE5D DUP5 PUSH3 0xBFB JUMP JUMPDEST SWAP3 POP PUSH1 0x20 DUP5 ADD CALLDATALOAD PUSH8 0xFFFFFFFFFFFFFFFF DUP1 DUP3 GT ISZERO PUSH3 0xE7A JUMPI PUSH0 DUP1 REVERT JUMPDEST PUSH3 0xE88 DUP8 DUP4 DUP9 ADD PUSH3 0xCC0 JUMP JUMPDEST SWAP4 POP PUSH1 0x40 DUP7 ADD CALLDATALOAD SWAP2 POP DUP1 DUP3 GT ISZERO PUSH3 0xE9E JUMPI PUSH0 DUP1 REVERT JUMPDEST POP PUSH3 0xEAD DUP7 DUP3 DUP8 ADD PUSH3 0xCC0 JUMP JUMPDEST SWAP2 POP POP SWAP3 POP SWAP3 POP SWAP3 JUMP JUMPDEST PUSH0 DUP2 MLOAD DUP1 DUP5 MSTORE PUSH1 0x20 DUP1 DUP6 ADD DUP1 DUP2 SWAP7 POP DUP4 PUSH1 0x5 SHL DUP2 ADD SWAP2 POP DUP3 DUP7 ADD PUSH0 JUMPDEST DUP6 DUP2 LT ISZERO PUSH3 0xF01 JUMPI DUP3 DUP5 SUB DUP10 MSTORE PUSH3 0xEEE DUP5 DUP4 MLOAD PUSH3 0xAB5 JUMP JUMPDEST SWAP9 DUP6 ADD SWAP9 SWAP4 POP SWAP1 DUP5 ADD SWAP1 PUSH1 0x1 ADD PUSH3 0xED3 JUMP JUMPDEST POP SWAP2 SWAP8 SWAP7 POP POP POP POP POP POP POP JUMP JUMPDEST PUSH1 0xC0 DUP2 MSTORE PUSH0 PUSH3 0xF22 PUSH1 0xC0 DUP4 ADD DUP10 PUSH3 0xAB5 JUMP JUMPDEST DUP3 DUP2 SUB PUSH1 0x20 DUP5 ADD MSTORE PUSH3 0xF36 DUP2 DUP10 PUSH3 0xAB5 JUMP JUMPDEST SWAP1 POP DUP3 DUP2 SUB PUSH1 0x40 DUP5 ADD MSTORE PUSH3 0xF4C DUP2 DUP9 PUSH3 0xEB7 JUMP JUMPDEST PUSH1 0x60 DUP5 ADD SWAP7 SWAP1 SWAP7 MSTORE POP POP PUSH1 0x80 DUP2 ADD SWAP3 SWAP1 SWAP3 MSTORE PUSH1 0xFF AND PUSH1 0xA0 SWAP1 SWAP2 ADD MSTORE SWAP4 SWAP3 POP POP POP JUMP JUMPDEST PUSH1 0x20 DUP1 DUP3 MSTORE PUSH1 0x25 SWAP1 DUP3 ADD MSTORE PUSH32 0x546869732066756E6374696F6E206F6E6C792061646D696E2063616E20657865 PUSH1 0x40 DUP3 ADD MSTORE PUSH5 0x6375746521 PUSH1 0xD8 SHL PUSH1 0x60 DUP3 ADD MSTORE PUSH1 0x80 ADD SWAP1 JUMP JUMPDEST PUSH4 0x4E487B71 PUSH1 0xE0 SHL PUSH0 MSTORE PUSH1 0x32 PUSH1 0x4 MSTORE PUSH1 0x24 PUSH0 REVERT JUMPDEST PUSH1 0x1 DUP2 DUP2 SHR SWAP1 DUP3 AND DUP1 PUSH3 0xFDC JUMPI PUSH1 0x7F DUP3 AND SWAP2 POP JUMPDEST PUSH1 0x20 DUP3 LT DUP2 SUB PUSH3 0xFFB JUMPI PUSH4 0x4E487B71 PUSH1 0xE0 SHL PUSH0 MSTORE PUSH1 0x22 PUSH1 0x4 MSTORE PUSH1 0x24 PUSH0 REVERT JUMPDEST POP SWAP2 SWAP1 POP JUMP JUMPDEST PUSH0 PUSH1 0xFF DUP3 AND PUSH1 0xFF DUP2 SUB PUSH3 0x1023 JUMPI PUSH4 0x4E487B71 PUSH1 0xE0 SHL PUSH0 MSTORE PUSH1 0x11 PUSH1 0x4 MSTORE PUSH1 0x24 PUSH0 REVERT JUMPDEST PUSH1 0x1 ADD SWAP3 SWAP2 POP POP JUMP JUMPDEST PUSH1 0x1 PUSH1 0x1 PUSH1 0xA0 SHL SUB DUP6 AND DUP2 MSTORE PUSH1 0x80 PUSH1 0x20 DUP3 ADD DUP2 SWAP1 MSTORE PUSH0 SWAP1 PUSH3 0x1051 SWAP1 DUP4 ADD DUP7 PUSH3 0xAB5 JUMP JUMPDEST DUP3 DUP2 SUB PUSH1 0x40 DUP5 ADD MSTORE PUSH3 0x1065 DUP2 DUP7 PUSH3 0xAB5 JUMP JUMPDEST SWAP1 POP DUP3 DUP2 SUB PUSH1 0x60 DUP5 ADD MSTORE PUSH3 0x107B DUP2 DUP6 PUSH3 0xEB7 JUMP JUMPDEST SWAP8 SWAP7 POP POP POP POP POP POP POP JUMP JUMPDEST PUSH1 0x40 DUP2 MSTORE PUSH0 PUSH3 0x109A PUSH1 0x40 DUP4 ADD DUP6 PUSH3 0xAB5 JUMP JUMPDEST DUP3 DUP2 SUB PUSH1 0x20 DUP5 ADD MSTORE PUSH3 0x10AE DUP2 DUP6 PUSH3 0xAB5 JUMP JUMPDEST SWAP6 SWAP5 POP POP POP POP POP JUMP JUMPDEST PUSH1 0x1F DUP3 GT ISZERO PUSH3 0x1104 JUMPI PUSH0 DUP2 DUP2 MSTORE PUSH1 0x20 DUP2 KECCAK256 PUSH1 0x1F DUP6 ADD PUSH1 0x5 SHR DUP2 ADD PUSH1 0x20 DUP7 LT ISZERO PUSH3 0x10DF JUMPI POP DUP1 JUMPDEST PUSH1 0x1F DUP6 ADD PUSH1 0x5 SHR DUP3 ADD SWAP2 POP JUMPDEST DUP2 DUP2 LT ISZERO PUSH3 0x1100 JUMPI DUP3 DUP2 SSTORE PUSH1 0x1 ADD PUSH3 0x10EB JUMP JUMPDEST POP POP POP JUMPDEST POP POP POP JUMP JUMPDEST DUP2 MLOAD PUSH8 0xFFFFFFFFFFFFFFFF DUP2 GT ISZERO PUSH3 0x1126 JUMPI PUSH3 0x1126 PUSH3 0xC4E JUMP JUMPDEST PUSH3 0x113E DUP2 PUSH3 0x1137 DUP5 SLOAD PUSH3 0xFC7 JUMP JUMPDEST DUP5 PUSH3 0x10B7 JUMP JUMPDEST PUSH1 0x20 DUP1 PUSH1 0x1F DUP4 GT PUSH1 0x1 DUP2 EQ PUSH3 0x1174 JUMPI PUSH0 DUP5 ISZERO PUSH3 0x115C JUMPI POP DUP6 DUP4 ADD MLOAD JUMPDEST PUSH0 NOT PUSH1 0x3 DUP7 SWAP1 SHL SHR NOT AND PUSH1 0x1 DUP6 SWAP1 SHL OR DUP6 SSTORE PUSH3 0x1100 JUMP JUMPDEST PUSH0 DUP6 DUP2 MSTORE PUSH1 0x20 DUP2 KECCAK256 PUSH1 0x1F NOT DUP7 AND SWAP2 JUMPDEST DUP3 DUP2 LT ISZERO PUSH3 0x11A4 JUMPI DUP9 DUP7 ADD MLOAD DUP3 SSTORE SWAP5 DUP5 ADD SWAP5 PUSH1 0x1 SWAP1 SWAP2 ADD SWAP1 DUP5 ADD PUSH3 0x1183 JUMP JUMPDEST POP DUP6 DUP3 LT ISZERO PUSH3 0x11C2 JUMPI DUP8 DUP6 ADD MLOAD PUSH0 NOT PUSH1 0x3 DUP9 SWAP1 SHL PUSH1 0xF8 AND SHR NOT AND DUP2 SSTORE JUMPDEST POP POP POP POP POP PUSH1 0x1 SWAP1 DUP2 SHL ADD SWAP1 SSTORE POP JUMP JUMPDEST PUSH1 0x1 PUSH1 0x1 PUSH1 0xA0 SHL SUB DUP5 AND DUP2 MSTORE PUSH1 0x60 PUSH1 0x20 DUP3 ADD DUP2 SWAP1 MSTORE PUSH0 SWAP1 PUSH3 0x11F7 SWAP1 DUP4 ADD DUP6 PUSH3 0xAB5 JUMP JUMPDEST DUP3 DUP2 SUB PUSH1 0x40 DUP5 ADD MSTORE PUSH3 0x120B DUP2 DUP6 PUSH3 0xAB5 JUMP JUMPDEST SWAP7 SWAP6 POP POP POP POP POP POP JUMP JUMPDEST PUSH0 DUP3 PUSH1 0x1F DUP4 ADD SLT PUSH3 0x1225 JUMPI PUSH0 DUP1 REVERT JUMPDEST DUP2 MLOAD PUSH3 0x1236 PUSH3 0xCE1 DUP3 PUSH3 0xC96 JUMP JUMPDEST DUP2 DUP2 MSTORE DUP5 PUSH1 0x20 DUP4 DUP7 ADD ADD GT ISZERO PUSH3 0x124B JUMPI PUSH0 DUP1 REVERT JUMPDEST PUSH3 0x125E DUP3 PUSH1 0x20 DUP4 ADD PUSH1 0x20 DUP8 ADD PUSH3 0xA91 JUMP JUMPDEST SWAP5 SWAP4 POP POP POP POP JUMP JUMPDEST DUP1 MLOAD PUSH1 0xFF DUP2 AND DUP2 EQ PUSH3 0xC12 JUMPI PUSH0 DUP1 REVERT JUMPDEST PUSH0 DUP1 PUSH0 DUP1 PUSH0 DUP1 PUSH1 0xC0 DUP8 DUP10 SUB SLT ISZERO PUSH3 0x128D JUMPI PUSH0 DUP1 REVERT JUMPDEST DUP7 MLOAD PUSH8 0xFFFFFFFFFFFFFFFF DUP1 DUP3 GT ISZERO PUSH3 0x12A5 JUMPI PUSH0 DUP1 REVERT JUMPDEST PUSH3 0x12B3 DUP11 DUP4 DUP12 ADD PUSH3 0x1215 JUMP JUMPDEST SWAP8 POP PUSH1 0x20 DUP10 ADD MLOAD SWAP2 POP DUP1 DUP3 GT ISZERO PUSH3 0x12C9 JUMPI PUSH0 DUP1 REVERT JUMPDEST PUSH3 0x12D7 DUP11 DUP4 DUP12 ADD PUSH3 0x1215 JUMP JUMPDEST SWAP7 POP PUSH1 0x40 DUP10 ADD MLOAD SWAP2 POP DUP1 DUP3 GT ISZERO PUSH3 0x12ED JUMPI PUSH0 DUP1 REVERT JUMPDEST DUP2 DUP10 ADD SWAP2 POP DUP10 PUSH1 0x1F DUP4 ADD SLT PUSH3 0x1301 JUMPI PUSH0 DUP1 REVERT JUMPDEST DUP2 MLOAD PUSH3 0x1312 PUSH3 0xCE1 DUP3 PUSH3 0xD18 JUMP JUMPDEST DUP1 DUP3 DUP3 MSTORE PUSH1 0x20 DUP3 ADD SWAP2 POP PUSH1 0x20 DUP4 PUSH1 0x5 SHL DUP7 ADD ADD SWAP3 POP DUP13 DUP4 GT ISZERO PUSH3 0x1334 JUMPI PUSH0 DUP1 REVERT JUMPDEST PUSH1 0x20 DUP6 ADD JUMPDEST DUP4 DUP2 LT ISZERO PUSH3 0x1372 JUMPI DUP1 MLOAD DUP6 DUP2 GT ISZERO PUSH3 0x1351 JUMPI PUSH0 DUP1 REVERT JUMPDEST PUSH3 0x1362 DUP16 PUSH1 0x20 DUP4 DUP11 ADD ADD PUSH3 0x1215 JUMP JUMPDEST DUP5 MSTORE POP PUSH1 0x20 SWAP3 DUP4 ADD SWAP3 ADD PUSH3 0x1339 JUMP JUMPDEST POP DUP1 SWAP9 POP POP POP POP POP POP PUSH1 0x60 DUP8 ADD MLOAD SWAP3 POP PUSH1 0x80 DUP8 ADD MLOAD SWAP2 POP PUSH3 0x1397 PUSH1 0xA0 DUP9 ADD PUSH3 0x1266 JUMP JUMPDEST SWAP1 POP SWAP3 SWAP6 POP SWAP3 SWAP6 POP SWAP3 SWAP6 JUMP INVALID PUSH1 0x80 PUSH1 0x40 MSTORE CALLVALUE DUP1 ISZERO PUSH3 0x10 JUMPI PUSH0 DUP1 REVERT JUMPDEST POP PUSH1 0x40 MLOAD PUSH3 0x12D8 CODESIZE SUB DUP1 PUSH3 0x12D8 DUP4 CODECOPY DUP2 ADD PUSH1 0x40 DUP2 SWAP1 MSTORE PUSH3 0x33 SWAP2 PUSH3 0x2A7 JUMP JUMPDEST PUSH0 DUP1 SLOAD PUSH1 0x1 PUSH1 0x1 PUSH1 0xA0 SHL SUB DUP7 AND PUSH1 0x1 PUSH1 0x1 PUSH1 0xA0 SHL SUB NOT SWAP2 DUP3 AND DUP2 OR SWAP1 SWAP3 SSTORE PUSH1 0x1 DUP1 SLOAD SWAP1 SWAP2 AND SWAP1 SWAP2 OR SWAP1 SSTORE PUSH1 0x2 PUSH3 0x6B DUP5 DUP3 PUSH3 0x46A JUMP JUMPDEST POP PUSH1 0x3 PUSH3 0x7A DUP4 DUP3 PUSH3 0x46A JUMP JUMPDEST POP DUP1 MLOAD PUSH3 0x90 SWAP1 PUSH1 0x4 SWAP1 PUSH1 0x20 DUP5 ADD SWAP1 PUSH3 0x108 JUMP JUMPDEST POP PUSH0 PUSH1 0x5 DUP2 SWAP1 SSTORE PUSH1 0x6 SSTORE PUSH1 0x7 DUP1 SLOAD PUSH1 0xFF NOT AND SWAP1 SSTORE PUSH1 0x1 SLOAD PUSH1 0x40 MLOAD PUSH4 0x79C86EC3 PUSH1 0xE1 SHL DUP2 MSTORE ADDRESS PUSH1 0x4 DUP3 ADD MSTORE PUSH1 0x1 PUSH1 0x1 PUSH1 0xA0 SHL SUB SWAP1 SWAP2 AND SWAP1 PUSH4 0xF390DD86 SWAP1 PUSH1 0x24 ADD PUSH0 PUSH1 0x40 MLOAD DUP1 DUP4 SUB DUP2 PUSH0 DUP8 DUP1 EXTCODESIZE ISZERO DUP1 ISZERO PUSH3 0xE7 JUMPI PUSH0 DUP1 REVERT JUMPDEST POP GAS CALL ISZERO DUP1 ISZERO PUSH3 0xFA JUMPI RETURNDATASIZE PUSH0 DUP1 RETURNDATACOPY RETURNDATASIZE PUSH0 REVERT JUMPDEST POP POP POP POP POP POP POP POP PUSH3 0x532 JUMP JUMPDEST DUP3 DUP1 SLOAD DUP3 DUP3 SSTORE SWAP1 PUSH0 MSTORE PUSH1 0x20 PUSH0 KECCAK256 SWAP1 DUP2 ADD SWAP3 DUP3 ISZERO PUSH3 0x151 JUMPI SWAP2 PUSH1 0x20 MUL DUP3 ADD JUMPDEST DUP3 DUP2 GT ISZERO PUSH3 0x151 JUMPI DUP3 MLOAD DUP3 SWAP1 PUSH3 0x140 SWAP1 DUP3 PUSH3 0x46A JUMP JUMPDEST POP SWAP2 PUSH1 0x20 ADD SWAP2 SWAP1 PUSH1 0x1 ADD SWAP1 PUSH3 0x127 JUMP JUMPDEST POP PUSH3 0x15F SWAP3 SWAP2 POP PUSH3 0x163 JUMP JUMPDEST POP SWAP1 JUMP JUMPDEST DUP1 DUP3 GT ISZERO PUSH3 0x15F JUMPI PUSH0 PUSH3 0x179 DUP3 DUP3 PUSH3 0x183 JUMP JUMPDEST POP PUSH1 0x1 ADD PUSH3 0x163 JUMP JUMPDEST POP DUP1 SLOAD PUSH3 0x191 SWAP1 PUSH3 0x3DE JUMP JUMPDEST PUSH0 DUP3 SSTORE DUP1 PUSH1 0x1F LT PUSH3 0x1A1 JUMPI POP POP JUMP JUMPDEST PUSH1 0x1F ADD PUSH1 0x20 SWAP1 DIV SWAP1 PUSH0 MSTORE PUSH1 0x20 PUSH0 KECCAK256 SWAP1 DUP2 ADD SWAP1 PUSH3 0x1BF SWAP2 SWAP1 PUSH3 0x1C2 JUMP JUMPDEST POP JUMP JUMPDEST JUMPDEST DUP1 DUP3 GT ISZERO PUSH3 0x15F JUMPI PUSH0 DUP2 SSTORE PUSH1 0x1 ADD PUSH3 0x1C3 JUMP JUMPDEST PUSH4 0x4E487B71 PUSH1 0xE0 SHL PUSH0 MSTORE PUSH1 0x41 PUSH1 0x4 MSTORE PUSH1 0x24 PUSH0 REVERT JUMPDEST PUSH1 0x40 MLOAD PUSH1 0x1F DUP3 ADD PUSH1 0x1F NOT AND DUP2 ADD PUSH1 0x1 PUSH1 0x1 PUSH1 0x40 SHL SUB DUP2 GT DUP3 DUP3 LT OR ISZERO PUSH3 0x217 JUMPI PUSH3 0x217 PUSH3 0x1D8 JUMP JUMPDEST PUSH1 0x40 MSTORE SWAP2 SWAP1 POP JUMP JUMPDEST PUSH0 DUP3 PUSH1 0x1F DUP4 ADD SLT PUSH3 0x22F JUMPI PUSH0 DUP1 REVERT JUMPDEST DUP2 MLOAD PUSH1 0x1 PUSH1 0x1 PUSH1 0x40 SHL SUB DUP2 GT ISZERO PUSH3 0x24B JUMPI PUSH3 0x24B PUSH3 0x1D8 JUMP JUMPDEST PUSH1 0x20 PUSH3 0x261 PUSH1 0x1F DUP4 ADD PUSH1 0x1F NOT AND DUP3 ADD PUSH3 0x1EC JUMP JUMPDEST DUP3 DUP2 MSTORE DUP6 DUP3 DUP5 DUP8 ADD ADD GT ISZERO PUSH3 0x275 JUMPI PUSH0 DUP1 REVERT JUMPDEST PUSH0 JUMPDEST DUP4 DUP2 LT ISZERO PUSH3 0x294 JUMPI DUP6 DUP2 ADD DUP4 ADD MLOAD DUP3 DUP3 ADD DUP5 ADD MSTORE DUP3 ADD PUSH3 0x277 JUMP JUMPDEST POP PUSH0 SWAP3 DUP2 ADD SWAP1 SWAP2 ADD SWAP2 SWAP1 SWAP2 MSTORE SWAP4 SWAP3 POP POP POP JUMP JUMPDEST PUSH0 DUP1 PUSH0 DUP1 PUSH1 0x80 DUP6 DUP8 SUB SLT ISZERO PUSH3 0x2BB JUMPI PUSH0 DUP1 REVERT JUMPDEST DUP5 MLOAD PUSH1 0x1 PUSH1 0x1 PUSH1 0xA0 SHL SUB DUP2 AND DUP2 EQ PUSH3 0x2D2 JUMPI PUSH0 DUP1 REVERT JUMPDEST PUSH1 0x20 DUP7 DUP2 ADD MLOAD SWAP2 SWAP6 POP SWAP1 PUSH1 0x1 PUSH1 0x1 PUSH1 0x40 SHL SUB DUP1 DUP3 GT ISZERO PUSH3 0x2F1 JUMPI PUSH0 DUP1 REVERT JUMPDEST PUSH3 0x2FF DUP10 DUP4 DUP11 ADD PUSH3 0x21F JUMP JUMPDEST SWAP6 POP PUSH1 0x40 DUP9 ADD MLOAD SWAP2 POP DUP1 DUP3 GT ISZERO PUSH3 0x315 JUMPI PUSH0 DUP1 REVERT JUMPDEST PUSH3 0x323 DUP10 DUP4 DUP11 ADD PUSH3 0x21F JUMP JUMPDEST SWAP5 POP PUSH1 0x60 DUP9 ADD MLOAD SWAP2 POP DUP1 DUP3 GT ISZERO PUSH3 0x339 JUMPI PUSH0 DUP1 REVERT JUMPDEST DUP2 DUP9 ADD SWAP2 POP DUP9 PUSH1 0x1F DUP4 ADD SLT PUSH3 0x34D JUMPI PUSH0 DUP1 REVERT JUMPDEST DUP2 MLOAD DUP2 DUP2 GT ISZERO PUSH3 0x362 JUMPI PUSH3 0x362 PUSH3 0x1D8 JUMP JUMPDEST DUP1 PUSH1 0x5 SHL PUSH3 0x373 DUP6 DUP3 ADD PUSH3 0x1EC JUMP JUMPDEST SWAP2 DUP3 MSTORE DUP4 DUP2 ADD DUP6 ADD SWAP2 DUP6 DUP2 ADD SWAP1 DUP13 DUP5 GT ISZERO PUSH3 0x38D JUMPI PUSH0 DUP1 REVERT JUMPDEST DUP7 DUP7 ADD SWAP3 POP JUMPDEST DUP4 DUP4 LT ISZERO PUSH3 0x3CD JUMPI DUP3 MLOAD DUP6 DUP2 GT ISZERO PUSH3 0x3AC JUMPI PUSH0 DUP1 DUP2 REVERT JUMPDEST PUSH3 0x3BC DUP15 DUP10 DUP4 DUP11 ADD ADD PUSH3 0x21F JUMP JUMPDEST DUP4 MSTORE POP SWAP2 DUP7 ADD SWAP2 SWAP1 DUP7 ADD SWAP1 PUSH3 0x393 JUMP JUMPDEST SWAP10 SWAP13 SWAP9 SWAP12 POP SWAP7 SWAP10 POP POP POP POP POP POP POP POP JUMP JUMPDEST PUSH1 0x1 DUP2 DUP2 SHR SWAP1 DUP3 AND DUP1 PUSH3 0x3F3 JUMPI PUSH1 0x7F DUP3 AND SWAP2 POP JUMPDEST PUSH1 0x20 DUP3 LT DUP2 SUB PUSH3 0x412 JUMPI PUSH4 0x4E487B71 PUSH1 0xE0 SHL PUSH0 MSTORE PUSH1 0x22 PUSH1 0x4 MSTORE PUSH1 0x24 PUSH0 REVERT JUMPDEST POP SWAP2 SWAP1 POP JUMP JUMPDEST PUSH1 0x1F DUP3 GT ISZERO PUSH3 0x465 JUMPI PUSH0 DUP2 DUP2 MSTORE PUSH1 0x20 DUP2 KECCAK256 PUSH1 0x1F DUP6 ADD PUSH1 0x5 SHR DUP2 ADD PUSH1 0x20 DUP7 LT ISZERO PUSH3 0x440 JUMPI POP DUP1 JUMPDEST PUSH1 0x1F DUP6 ADD PUSH1 0x5 SHR DUP3 ADD SWAP2 POP JUMPDEST DUP2 DUP2 LT ISZERO PUSH3 0x461 JUMPI DUP3 DUP2 SSTORE PUSH1 0x1 ADD PUSH3 0x44C JUMP JUMPDEST POP POP POP JUMPDEST POP POP POP JUMP JUMPDEST DUP2 MLOAD PUSH1 0x1 PUSH1 0x1 PUSH1 0x40 SHL SUB DUP2 GT ISZERO PUSH3 0x486 JUMPI PUSH3 0x486 PUSH3 0x1D8 JUMP JUMPDEST PUSH3 0x49E DUP2 PUSH3 0x497 DUP5 SLOAD PUSH3 0x3DE JUMP JUMPDEST DUP5 PUSH3 0x418 JUMP JUMPDEST PUSH1 0x20 DUP1 PUSH1 0x1F DUP4 GT PUSH1 0x1 DUP2 EQ PUSH3 0x4D4 JUMPI PUSH0 DUP5 ISZERO PUSH3 0x4BC JUMPI POP DUP6 DUP4 ADD MLOAD JUMPDEST PUSH0 NOT PUSH1 0x3 DUP7 SWAP1 SHL SHR NOT AND PUSH1 0x1 DUP6 SWAP1 SHL OR DUP6 SSTORE PUSH3 0x461 JUMP JUMPDEST PUSH0 DUP6 DUP2 MSTORE PUSH1 0x20 DUP2 KECCAK256 PUSH1 0x1F NOT DUP7 AND SWAP2 JUMPDEST DUP3 DUP2 LT ISZERO PUSH3 0x504 JUMPI DUP9 DUP7 ADD MLOAD DUP3 SSTORE SWAP5 DUP5 ADD SWAP5 PUSH1 0x1 SWAP1 SWAP2 ADD SWAP1 DUP5 ADD PUSH3 0x4E3 JUMP JUMPDEST POP DUP6 DUP3 LT ISZERO PUSH3 0x522 JUMPI DUP8 DUP6 ADD MLOAD PUSH0 NOT PUSH1 0x3 DUP9 SWAP1 SHL PUSH1 0xF8 AND SHR NOT AND DUP2 SSTORE JUMPDEST POP POP POP POP POP PUSH1 0x1 SWAP1 DUP2 SHL ADD SWAP1 SSTORE POP JUMP JUMPDEST PUSH2 0xD98 DUP1 PUSH3 0x540 PUSH0 CODECOPY PUSH0 RETURN INVALID PUSH1 0x80 PUSH1 0x40 MSTORE CALLVALUE DUP1 ISZERO PUSH2 0xF JUMPI PUSH0 DUP1 REVERT JUMPDEST POP PUSH1 0x4 CALLDATASIZE LT PUSH2 0x7A JUMPI PUSH0 CALLDATALOAD PUSH1 0xE0 SHR DUP1 PUSH4 0xA7960A28 GT PUSH2 0x58 JUMPI DUP1 PUSH4 0xA7960A28 EQ PUSH2 0xC1 JUMPI DUP1 PUSH4 0xD270E7AB EQ PUSH2 0xD4 JUMPI DUP1 PUSH4 0xF8CB00BF EQ PUSH2 0xFE JUMPI DUP1 PUSH4 0xFE0AE165 EQ PUSH2 0x118 JUMPI PUSH0 DUP1 REVERT JUMPDEST DUP1 PUSH4 0x6F4BCBF EQ PUSH2 0x7E JUMPI DUP1 PUSH4 0xE973501 EQ PUSH2 0x88 JUMPI DUP1 PUSH4 0x494A0F3B EQ PUSH2 0x9B JUMPI JUMPDEST PUSH0 DUP1 REVERT JUMPDEST PUSH2 0x86 PUSH2 0x120 JUMP JUMPDEST STOP JUMPDEST PUSH2 0x86 PUSH2 0x96 CALLDATASIZE PUSH1 0x4 PUSH2 0x963 JUMP JUMPDEST PUSH2 0x1E4 JUMP JUMPDEST PUSH2 0xAE PUSH2 0xA9 CALLDATASIZE PUSH1 0x4 PUSH2 0xA78 JUMP JUMPDEST PUSH2 0x2BB JUMP JUMPDEST PUSH1 0x40 MLOAD SWAP1 DUP2 MSTORE PUSH1 0x20 ADD JUMPDEST PUSH1 0x40 MLOAD DUP1 SWAP2 SUB SWAP1 RETURN JUMPDEST PUSH2 0x86 PUSH2 0xCF CALLDATASIZE PUSH1 0x4 PUSH2 0xA9A JUMP JUMPDEST PUSH2 0x35E JUMP JUMPDEST PUSH0 SLOAD PUSH2 0xE6 SWAP1 PUSH1 0x1 PUSH1 0x1 PUSH1 0xA0 SHL SUB AND DUP2 JUMP JUMPDEST PUSH1 0x40 MLOAD PUSH1 0x1 PUSH1 0x1 PUSH1 0xA0 SHL SUB SWAP1 SWAP2 AND DUP2 MSTORE PUSH1 0x20 ADD PUSH2 0xB8 JUMP JUMPDEST PUSH2 0x106 PUSH2 0x513 JUMP JUMPDEST PUSH1 0x40 MLOAD PUSH2 0xB8 SWAP7 SWAP6 SWAP5 SWAP4 SWAP3 SWAP2 SWAP1 PUSH2 0xB07 JUMP JUMPDEST PUSH2 0x86 PUSH2 0x73D JUMP JUMPDEST PUSH1 0x1 PUSH0 SWAP1 SLOAD SWAP1 PUSH2 0x100 EXP SWAP1 DIV PUSH1 0x1 PUSH1 0x1 PUSH1 0xA0 SHL SUB AND PUSH1 0x1 PUSH1 0x1 PUSH1 0xA0 SHL SUB AND PUSH4 0x6E9960C3 PUSH1 0x40 MLOAD DUP2 PUSH4 0xFFFFFFFF AND PUSH1 0xE0 SHL DUP2 MSTORE PUSH1 0x4 ADD PUSH1 0x20 PUSH1 0x40 MLOAD DUP1 DUP4 SUB DUP2 DUP7 GAS STATICCALL ISZERO DUP1 ISZERO PUSH2 0x170 JUMPI RETURNDATASIZE PUSH0 DUP1 RETURNDATACOPY RETURNDATASIZE PUSH0 REVERT JUMPDEST POP POP POP POP PUSH1 0x40 MLOAD RETURNDATASIZE PUSH1 0x1F NOT PUSH1 0x1F DUP3 ADD AND DUP3 ADD DUP1 PUSH1 0x40 MSTORE POP DUP2 ADD SWAP1 PUSH2 0x194 SWAP2 SWAP1 PUSH2 0xBAC JUMP JUMPDEST PUSH1 0x1 PUSH1 0x1 PUSH1 0xA0 SHL SUB AND CALLER PUSH1 0x1 PUSH1 0x1 PUSH1 0xA0 SHL SUB AND EQ PUSH2 0x1CD JUMPI PUSH1 0x40 MLOAD PUSH3 0x461BCD PUSH1 0xE5 SHL DUP2 MSTORE PUSH1 0x4 ADD PUSH2 0x1C4 SWAP1 PUSH2 0xBC7 JUMP JUMPDEST PUSH1 0x40 MLOAD DUP1 SWAP2 SUB SWAP1 REVERT JUMPDEST PUSH1 0x7 DUP1 SLOAD PUSH1 0x2 SWAP2 SWAP1 PUSH1 0xFF NOT AND PUSH1 0x1 DUP4 JUMPDEST MUL OR SWAP1 SSTORE POP JUMP JUMPDEST PUSH1 0x1 PUSH0 SWAP1 SLOAD SWAP1 PUSH2 0x100 EXP SWAP1 DIV PUSH1 0x1 PUSH1 0x1 PUSH1 0xA0 SHL SUB AND PUSH1 0x1 PUSH1 0x1 PUSH1 0xA0 SHL SUB AND PUSH4 0x6E9960C3 PUSH1 0x40 MLOAD DUP2 PUSH4 0xFFFFFFFF AND PUSH1 0xE0 SHL DUP2 MSTORE PUSH1 0x4 ADD PUSH1 0x20 PUSH1 0x40 MLOAD DUP1 DUP4 SUB DUP2 DUP7 GAS STATICCALL ISZERO DUP1 ISZERO PUSH2 0x234 JUMPI RETURNDATASIZE PUSH0 DUP1 RETURNDATACOPY RETURNDATASIZE PUSH0 REVERT JUMPDEST POP POP POP POP PUSH1 0x40 MLOAD RETURNDATASIZE PUSH1 0x1F NOT PUSH1 0x1F DUP3 ADD AND DUP3 ADD DUP1 PUSH1 0x40 MSTORE POP DUP2 ADD SWAP1 PUSH2 0x258 SWAP2 SWAP1 PUSH2 0xBAC JUMP JUMPDEST PUSH1 0x1 PUSH1 0x1 PUSH1 0xA0 SHL SUB AND CALLER PUSH1 0x1 PUSH1 0x1 PUSH1 0xA0 SHL SUB AND EQ PUSH2 0x288 JUMPI PUSH1 0x40 MLOAD PUSH3 0x461BCD PUSH1 0xE5 SHL DUP2 MSTORE PUSH1 0x4 ADD PUSH2 0x1C4 SWAP1 PUSH2 0xBC7 JUMP JUMPDEST PUSH1 0x2 PUSH2 0x294 DUP5 DUP3 PUSH2 0xCA6 JUMP JUMPDEST POP PUSH1 0x3 PUSH2 0x2A1 DUP4 DUP3 PUSH2 0xCA6 JUMP JUMPDEST POP DUP1 MLOAD PUSH2 0x2B5 SWAP1 PUSH1 0x4 SWAP1 PUSH1 0x20 DUP5 ADD SWAP1 PUSH2 0x7F4 JUMP JUMPDEST POP POP POP POP JUMP JUMPDEST PUSH1 0x1 SLOAD PUSH1 0x40 DUP1 MLOAD PUSH4 0x6E9960C3 PUSH1 0xE0 SHL DUP2 MSTORE SWAP1 MLOAD PUSH0 SWAP3 PUSH1 0x1 PUSH1 0x1 PUSH1 0xA0 SHL SUB AND SWAP2 PUSH4 0x6E9960C3 SWAP2 PUSH1 0x4 DUP1 DUP4 ADD SWAP3 PUSH1 0x20 SWAP3 SWAP2 SWAP1 DUP3 SWAP1 SUB ADD DUP2 DUP7 GAS STATICCALL ISZERO DUP1 ISZERO PUSH2 0x302 JUMPI RETURNDATASIZE PUSH0 DUP1 RETURNDATACOPY RETURNDATASIZE PUSH0 REVERT JUMPDEST POP POP POP POP PUSH1 0x40 MLOAD RETURNDATASIZE PUSH1 0x1F NOT PUSH1 0x1F DUP3 ADD AND DUP3 ADD DUP1 PUSH1 0x40 MSTORE POP DUP2 ADD SWAP1 PUSH2 0x326 SWAP2 SWAP1 PUSH2 0xBAC JUMP JUMPDEST PUSH1 0x1 PUSH1 0x1 PUSH1 0xA0 SHL SUB AND CALLER PUSH1 0x1 PUSH1 0x1 PUSH1 0xA0 SHL SUB AND EQ PUSH2 0x356 JUMPI PUSH1 0x40 MLOAD PUSH3 0x461BCD PUSH1 0xE5 SHL DUP2 MSTORE PUSH1 0x4 ADD PUSH2 0x1C4 SWAP1 PUSH2 0xBC7 JUMP JUMPDEST POP PUSH1 0x1 SWAP2 SWAP1 POP JUMP JUMPDEST PUSH1 0x1 PUSH0 SWAP1 SLOAD SWAP1 PUSH2 0x100 EXP SWAP1 DIV PUSH1 0x1 PUSH1 0x1 PUSH1 0xA0 SHL SUB AND PUSH1 0x1 PUSH1 0x1 PUSH1 0xA0 SHL SUB AND PUSH4 0x6E9960C3 PUSH1 0x40 MLOAD DUP2 PUSH4 0xFFFFFFFF AND PUSH1 0xE0 SHL DUP2 MSTORE PUSH1 0x4 ADD PUSH1 0x20 PUSH1 0x40 MLOAD DUP1 DUP4 SUB DUP2 DUP7 GAS STATICCALL ISZERO DUP1 ISZERO PUSH2 0x3AE JUMPI RETURNDATASIZE PUSH0 DUP1 RETURNDATACOPY RETURNDATASIZE PUSH0 REVERT JUMPDEST POP POP POP POP PUSH1 0x40 MLOAD RETURNDATASIZE PUSH1 0x1F NOT PUSH1 0x1F DUP3 ADD AND DUP3 ADD DUP1 PUSH1 0x40 MSTORE POP DUP2 ADD SWAP1 PUSH2 0x3D2 SWAP2 SWAP1 PUSH2 0xBAC JUMP JUMPDEST PUSH1 0x1 PUSH1 0x1 PUSH1 0xA0 SHL SUB AND CALLER SUB PUSH2 0x43D JUMPI PUSH1 0x40 MLOAD PUSH3 0x461BCD PUSH1 0xE5 SHL DUP2 MSTORE PUSH1 0x20 PUSH1 0x4 DUP3 ADD MSTORE PUSH1 0x2B PUSH1 0x24 DUP3 ADD MSTORE PUSH32 0x546869732066756E6374696F6E206F6E6C79207061727469636970616E742063 PUSH1 0x44 DUP3 ADD MSTORE PUSH11 0x616E206578656375746521 PUSH1 0xA8 SHL PUSH1 0x64 DUP3 ADD MSTORE PUSH1 0x84 ADD PUSH2 0x1C4 JUMP JUMPDEST PUSH1 0x1 PUSH1 0x7 SLOAD PUSH1 0xFF AND PUSH1 0x2 DUP2 GT ISZERO PUSH2 0x456 JUMPI PUSH2 0x456 PUSH2 0xC0C JUMP JUMPDEST EQ PUSH2 0x4A3 JUMPI PUSH1 0x40 MLOAD PUSH3 0x461BCD PUSH1 0xE5 SHL DUP2 MSTORE PUSH1 0x20 PUSH1 0x4 DUP3 ADD MSTORE PUSH1 0x1A PUSH1 0x24 DUP3 ADD MSTORE PUSH32 0x53657373696F6E206973206E6F7420696E2070726F6772657373000000000000 PUSH1 0x44 DUP3 ADD MSTORE PUSH1 0x64 ADD PUSH2 0x1C4 JUMP JUMPDEST PUSH1 0x1 PUSH1 0x1 PUSH1 0xA0 SHL SUB DUP3 AND PUSH0 SWAP1 DUP2 MSTORE PUSH1 0x8 PUSH1 0x20 MSTORE PUSH1 0x40 DUP2 KECCAK256 DUP3 SWAP1 SSTORE DUP2 SWAP1 SUB PUSH2 0x50F JUMPI PUSH1 0x9 DUP1 SLOAD PUSH1 0x1 DUP2 ADD DUP3 SSTORE PUSH0 SWAP2 SWAP1 SWAP2 MSTORE PUSH32 0x6E1540171B6C0C960B71A7020D9F60077F6AF931A8BBF590DA0223DACF75C7AF ADD DUP1 SLOAD PUSH1 0x1 PUSH1 0x1 PUSH1 0xA0 SHL SUB NOT AND PUSH1 0x1 PUSH1 0x1 PUSH1 0xA0 SHL SUB DUP5 AND OR SWAP1 SSTORE JUMPDEST POP POP JUMP JUMPDEST PUSH1 0x60 DUP1 PUSH1 0x60 PUSH0 DUP1 PUSH0 PUSH1 0x2 PUSH1 0x3 PUSH1 0x4 PUSH1 0x5 SLOAD PUSH1 0x6 SLOAD PUSH1 0x7 PUSH0 SWAP1 SLOAD SWAP1 PUSH2 0x100 EXP SWAP1 DIV PUSH1 0xFF AND PUSH1 0x2 DUP2 GT ISZERO PUSH2 0x547 JUMPI PUSH2 0x547 PUSH2 0xC0C JUMP JUMPDEST DUP6 DUP1 SLOAD PUSH2 0x553 SWAP1 PUSH2 0xC20 JUMP JUMPDEST DUP1 PUSH1 0x1F ADD PUSH1 0x20 DUP1 SWAP2 DIV MUL PUSH1 0x20 ADD PUSH1 0x40 MLOAD SWAP1 DUP2 ADD PUSH1 0x40 MSTORE DUP1 SWAP3 SWAP2 SWAP1 DUP2 DUP2 MSTORE PUSH1 0x20 ADD DUP3 DUP1 SLOAD PUSH2 0x57F SWAP1 PUSH2 0xC20 JUMP JUMPDEST DUP1 ISZERO PUSH2 0x5CA JUMPI DUP1 PUSH1 0x1F LT PUSH2 0x5A1 JUMPI PUSH2 0x100 DUP1 DUP4 SLOAD DIV MUL DUP4 MSTORE SWAP2 PUSH1 0x20 ADD SWAP2 PUSH2 0x5CA JUMP JUMPDEST DUP3 ADD SWAP2 SWAP1 PUSH0 MSTORE PUSH1 0x20 PUSH0 KECCAK256 SWAP1 JUMPDEST DUP2 SLOAD DUP2 MSTORE SWAP1 PUSH1 0x1 ADD SWAP1 PUSH1 0x20 ADD DUP1 DUP4 GT PUSH2 0x5AD JUMPI DUP3 SWAP1 SUB PUSH1 0x1F AND DUP3 ADD SWAP2 JUMPDEST POP POP POP POP POP SWAP6 POP DUP5 DUP1 SLOAD PUSH2 0x5DD SWAP1 PUSH2 0xC20 JUMP JUMPDEST DUP1 PUSH1 0x1F ADD PUSH1 0x20 DUP1 SWAP2 DIV MUL PUSH1 0x20 ADD PUSH1 0x40 MLOAD SWAP1 DUP2 ADD PUSH1 0x40 MSTORE DUP1 SWAP3 SWAP2 SWAP1 DUP2 DUP2 MSTORE PUSH1 0x20 ADD DUP3 DUP1 SLOAD PUSH2 0x609 SWAP1 PUSH2 0xC20 JUMP JUMPDEST DUP1 ISZERO PUSH2 0x654 JUMPI DUP1 PUSH1 0x1F LT PUSH2 0x62B JUMPI PUSH2 0x100 DUP1 DUP4 SLOAD DIV MUL DUP4 MSTORE SWAP2 PUSH1 0x20 ADD SWAP2 PUSH2 0x654 JUMP JUMPDEST DUP3 ADD SWAP2 SWAP1 PUSH0 MSTORE PUSH1 0x20 PUSH0 KECCAK256 SWAP1 JUMPDEST DUP2 SLOAD DUP2 MSTORE SWAP1 PUSH1 0x1 ADD SWAP1 PUSH1 0x20 ADD DUP1 DUP4 GT PUSH2 0x637 JUMPI DUP3 SWAP1 SUB PUSH1 0x1F AND DUP3 ADD SWAP2 JUMPDEST POP POP POP POP POP SWAP5 POP DUP4 DUP1 SLOAD DUP1 PUSH1 0x20 MUL PUSH1 0x20 ADD PUSH1 0x40 MLOAD SWAP1 DUP2 ADD PUSH1 0x40 MSTORE DUP1 SWAP3 SWAP2 SWAP1 DUP2 DUP2 MSTORE PUSH1 0x20 ADD PUSH0 SWAP1 JUMPDEST DUP3 DUP3 LT ISZERO PUSH2 0x723 JUMPI DUP4 DUP3 SWAP1 PUSH0 MSTORE PUSH1 0x20 PUSH0 KECCAK256 ADD DUP1 SLOAD PUSH2 0x698 SWAP1 PUSH2 0xC20 JUMP JUMPDEST DUP1 PUSH1 0x1F ADD PUSH1 0x20 DUP1 SWAP2 DIV MUL PUSH1 0x20 ADD PUSH1 0x40 MLOAD SWAP1 DUP2 ADD PUSH1 0x40 MSTORE DUP1 SWAP3 SWAP2 SWAP1 DUP2 DUP2 MSTORE PUSH1 0x20 ADD DUP3 DUP1 SLOAD PUSH2 0x6C4 SWAP1 PUSH2 0xC20 JUMP JUMPDEST DUP1 ISZERO PUSH2 0x70F JUMPI DUP1 PUSH1 0x1F LT PUSH2 0x6E6 JUMPI PUSH2 0x100 DUP1 DUP4 SLOAD DIV MUL DUP4 MSTORE SWAP2 PUSH1 0x20 ADD SWAP2 PUSH2 0x70F JUMP JUMPDEST DUP3 ADD SWAP2 SWAP1 PUSH0 MSTORE PUSH1 0x20 PUSH0 KECCAK256 SWAP1 JUMPDEST DUP2 SLOAD DUP2 MSTORE SWAP1 PUSH1 0x1 ADD SWAP1 PUSH1 0x20 ADD DUP1 DUP4 GT PUSH2 0x6F2 JUMPI DUP3 SWAP1 SUB PUSH1 0x1F AND DUP3 ADD SWAP2 JUMPDEST POP POP POP POP POP DUP2 MSTORE PUSH1 0x20 ADD SWAP1 PUSH1 0x1 ADD SWAP1 PUSH2 0x67B JUMP JUMPDEST POP POP POP POP SWAP4 POP SWAP6 POP SWAP6 POP SWAP6 POP SWAP6 POP SWAP6 POP SWAP6 POP SWAP1 SWAP2 SWAP3 SWAP4 SWAP5 SWAP6 JUMP JUMPDEST PUSH1 0x1 PUSH0 SWAP1 SLOAD SWAP1 PUSH2 0x100 EXP SWAP1 DIV PUSH1 0x1 PUSH1 0x1 PUSH1 0xA0 SHL SUB AND PUSH1 0x1 PUSH1 0x1 PUSH1 0xA0 SHL SUB AND PUSH4 0x6E9960C3 PUSH1 0x40 MLOAD DUP2 PUSH4 0xFFFFFFFF AND PUSH1 0xE0 SHL DUP2 MSTORE PUSH1 0x4 ADD PUSH1 0x20 PUSH1 0x40 MLOAD DUP1 DUP4 SUB DUP2 DUP7 GAS STATICCALL ISZERO DUP1 ISZERO PUSH2 0x78D JUMPI RETURNDATASIZE PUSH0 DUP1 RETURNDATACOPY RETURNDATASIZE PUSH0 REVERT JUMPDEST POP POP POP POP PUSH1 0x40 MLOAD RETURNDATASIZE PUSH1 0x1F NOT PUSH1 0x1F DUP3 ADD AND DUP3 ADD DUP1 PUSH1 0x40 MSTORE POP DUP2 ADD SWAP1 PUSH2 0x7B1 SWAP2 SWAP1 PUSH2 0xBAC JUMP JUMPDEST PUSH1 0x1 PUSH1 0x1 PUSH1 0xA0 SHL SUB AND CALLER PUSH1 0x1 PUSH1 0x1 PUSH1 0xA0 SHL SUB AND EQ PUSH2 0x7E1 JUMPI PUSH1 0x40 MLOAD PUSH3 0x461BCD PUSH1 0xE5 SHL DUP2 MSTORE PUSH1 0x4 ADD PUSH2 0x1C4 SWAP1 PUSH2 0xBC7 JUMP JUMPDEST PUSH1 0x7 DUP1 SLOAD PUSH1 0x1 SWAP2 SWAP1 PUSH1 0xFF NOT AND DUP3 DUP1 PUSH2 0x1DD JUMP JUMPDEST DUP3 DUP1 SLOAD DUP3 DUP3 SSTORE SWAP1 PUSH0 MSTORE PUSH1 0x20 PUSH0 KECCAK256 SWAP1 DUP2 ADD SWAP3 DUP3 ISZERO PUSH2 0x838 JUMPI SWAP2 PUSH1 0x20 MUL DUP3 ADD JUMPDEST DUP3 DUP2 GT ISZERO PUSH2 0x838 JUMPI DUP3 MLOAD DUP3 SWAP1 PUSH2 0x828 SWAP1 DUP3 PUSH2 0xCA6 JUMP JUMPDEST POP SWAP2 PUSH1 0x20 ADD SWAP2 SWAP1 PUSH1 0x1 ADD SWAP1 PUSH2 0x812 JUMP JUMPDEST POP PUSH2 0x844 SWAP3 SWAP2 POP PUSH2 0x848 JUMP JUMPDEST POP SWAP1 JUMP JUMPDEST DUP1 DUP3 GT ISZERO PUSH2 0x844 JUMPI PUSH0 PUSH2 0x85B DUP3 DUP3 PUSH2 0x864 JUMP JUMPDEST POP PUSH1 0x1 ADD PUSH2 0x848 JUMP JUMPDEST POP DUP1 SLOAD PUSH2 0x870 SWAP1 PUSH2 0xC20 JUMP JUMPDEST PUSH0 DUP3 SSTORE DUP1 PUSH1 0x1F LT PUSH2 0x87F JUMPI POP POP JUMP JUMPDEST PUSH1 0x1F ADD PUSH1 0x20 SWAP1 DIV SWAP1 PUSH0 MSTORE PUSH1 0x20 PUSH0 KECCAK256 SWAP1 DUP2 ADD SWAP1 PUSH2 0x89B SWAP2 SWAP1 PUSH2 0x89E JUMP JUMPDEST POP JUMP JUMPDEST JUMPDEST DUP1 DUP3 GT ISZERO PUSH2 0x844 JUMPI PUSH0 DUP2 SSTORE PUSH1 0x1 ADD PUSH2 0x89F JUMP JUMPDEST PUSH4 0x4E487B71 PUSH1 0xE0 SHL PUSH0 MSTORE PUSH1 0x41 PUSH1 0x4 MSTORE PUSH1 0x24 PUSH0 REVERT JUMPDEST PUSH1 0x40 MLOAD PUSH1 0x1F DUP3 ADD PUSH1 0x1F NOT AND DUP2 ADD PUSH8 0xFFFFFFFFFFFFFFFF DUP2 GT DUP3 DUP3 LT OR ISZERO PUSH2 0x8EF JUMPI PUSH2 0x8EF PUSH2 0x8B2 JUMP JUMPDEST PUSH1 0x40 MSTORE SWAP2 SWAP1 POP JUMP JUMPDEST PUSH0 DUP3 PUSH1 0x1F DUP4 ADD SLT PUSH2 0x906 JUMPI PUSH0 DUP1 REVERT JUMPDEST DUP2 CALLDATALOAD PUSH8 0xFFFFFFFFFFFFFFFF DUP2 GT ISZERO PUSH2 0x920 JUMPI PUSH2 0x920 PUSH2 0x8B2 JUMP JUMPDEST PUSH2 0x933 PUSH1 0x1F DUP3 ADD PUSH1 0x1F NOT AND PUSH1 0x20 ADD PUSH2 0x8C6 JUMP JUMPDEST DUP2 DUP2 MSTORE DUP5 PUSH1 0x20 DUP4 DUP7 ADD ADD GT ISZERO PUSH2 0x947 JUMPI PUSH0 DUP1 REVERT JUMPDEST DUP2 PUSH1 0x20 DUP6 ADD PUSH1 0x20 DUP4 ADD CALLDATACOPY PUSH0 SWAP2 DUP2 ADD PUSH1 0x20 ADD SWAP2 SWAP1 SWAP2 MSTORE SWAP4 SWAP3 POP POP POP JUMP JUMPDEST PUSH0 DUP1 PUSH0 PUSH1 0x60 DUP5 DUP7 SUB SLT ISZERO PUSH2 0x975 JUMPI PUSH0 DUP1 REVERT JUMPDEST DUP4 CALLDATALOAD PUSH8 0xFFFFFFFFFFFFFFFF DUP1 DUP3 GT ISZERO PUSH2 0x98C JUMPI PUSH0 DUP1 REVERT JUMPDEST PUSH2 0x998 DUP8 DUP4 DUP9 ADD PUSH2 0x8F7 JUMP JUMPDEST SWAP5 POP PUSH1 0x20 SWAP2 POP DUP2 DUP7 ADD CALLDATALOAD DUP2 DUP2 GT ISZERO PUSH2 0x9AE JUMPI PUSH0 DUP1 REVERT JUMPDEST PUSH2 0x9BA DUP9 DUP3 DUP10 ADD PUSH2 0x8F7 JUMP JUMPDEST SWAP5 POP POP PUSH1 0x40 DUP7 ADD CALLDATALOAD DUP2 DUP2 GT ISZERO PUSH2 0x9CE JUMPI PUSH0 DUP1 REVERT JUMPDEST DUP7 ADD PUSH1 0x1F DUP2 ADD DUP9 SGT PUSH2 0x9DE JUMPI PUSH0 DUP1 REVERT JUMPDEST DUP1 CALLDATALOAD DUP3 DUP2 GT ISZERO PUSH2 0x9F0 JUMPI PUSH2 0x9F0 PUSH2 0x8B2 JUMP JUMPDEST DUP1 PUSH1 0x5 SHL PUSH2 0x9FF DUP6 DUP3 ADD PUSH2 0x8C6 JUMP JUMPDEST SWAP2 DUP3 MSTORE DUP3 DUP2 ADD DUP6 ADD SWAP2 DUP6 DUP2 ADD SWAP1 DUP12 DUP5 GT ISZERO PUSH2 0xA18 JUMPI PUSH0 DUP1 REVERT JUMPDEST DUP7 DUP6 ADD SWAP3 POP JUMPDEST DUP4 DUP4 LT ISZERO PUSH2 0xA53 JUMPI DUP3 CALLDATALOAD DUP7 DUP2 GT ISZERO PUSH2 0xA35 JUMPI PUSH0 DUP1 DUP2 REVERT JUMPDEST PUSH2 0xA43 DUP14 DUP10 DUP4 DUP10 ADD ADD PUSH2 0x8F7 JUMP JUMPDEST DUP4 MSTORE POP SWAP2 DUP7 ADD SWAP2 SWAP1 DUP7 ADD SWAP1 PUSH2 0xA1E JUMP JUMPDEST DUP1 SWAP8 POP POP POP POP POP POP POP POP SWAP3 POP SWAP3 POP SWAP3 JUMP JUMPDEST PUSH1 0x1 PUSH1 0x1 PUSH1 0xA0 SHL SUB DUP2 AND DUP2 EQ PUSH2 0x89B JUMPI PUSH0 DUP1 REVERT JUMPDEST PUSH0 PUSH1 0x20 DUP3 DUP5 SUB SLT ISZERO PUSH2 0xA88 JUMPI PUSH0 DUP1 REVERT JUMPDEST DUP2 CALLDATALOAD PUSH2 0xA93 DUP2 PUSH2 0xA64 JUMP JUMPDEST SWAP4 SWAP3 POP POP POP JUMP JUMPDEST PUSH0 DUP1 PUSH1 0x40 DUP4 DUP6 SUB SLT ISZERO PUSH2 0xAAB JUMPI PUSH0 DUP1 REVERT JUMPDEST DUP3 CALLDATALOAD PUSH2 0xAB6 DUP2 PUSH2 0xA64 JUMP JUMPDEST SWAP5 PUSH1 0x20 SWAP4 SWAP1 SWAP4 ADD CALLDATALOAD SWAP4 POP POP POP JUMP JUMPDEST PUSH0 DUP2 MLOAD DUP1 DUP5 MSTORE PUSH0 JUMPDEST DUP2 DUP2 LT ISZERO PUSH2 0xAE8 JUMPI PUSH1 0x20 DUP2 DUP6 ADD DUP2 ADD MLOAD DUP7 DUP4 ADD DUP3 ADD MSTORE ADD PUSH2 0xACC JUMP JUMPDEST POP PUSH0 PUSH1 0x20 DUP3 DUP7 ADD ADD MSTORE PUSH1 0x20 PUSH1 0x1F NOT PUSH1 0x1F DUP4 ADD AND DUP6 ADD ADD SWAP2 POP POP SWAP3 SWAP2 POP POP JUMP JUMPDEST PUSH1 0xC0 DUP2 MSTORE PUSH0 PUSH2 0xB19 PUSH1 0xC0 DUP4 ADD DUP10 PUSH2 0xAC4 JUMP JUMPDEST PUSH1 0x20 DUP4 DUP3 SUB DUP2 DUP6 ADD MSTORE PUSH2 0xB2C DUP3 DUP11 PUSH2 0xAC4 JUMP JUMPDEST SWAP2 POP DUP4 DUP3 SUB PUSH1 0x40 DUP6 ADD MSTORE DUP2 DUP9 MLOAD DUP1 DUP5 MSTORE DUP3 DUP5 ADD SWAP2 POP DUP3 DUP2 PUSH1 0x5 SHL DUP6 ADD ADD DUP4 DUP12 ADD PUSH0 JUMPDEST DUP4 DUP2 LT ISZERO PUSH2 0xB7C JUMPI PUSH1 0x1F NOT DUP8 DUP5 SUB ADD DUP6 MSTORE PUSH2 0xB6A DUP4 DUP4 MLOAD PUSH2 0xAC4 JUMP JUMPDEST SWAP5 DUP7 ADD SWAP5 SWAP3 POP SWAP1 DUP6 ADD SWAP1 PUSH1 0x1 ADD PUSH2 0xB4E JUMP JUMPDEST POP POP DUP1 SWAP6 POP POP POP POP POP POP DUP5 PUSH1 0x60 DUP4 ADD MSTORE DUP4 PUSH1 0x80 DUP4 ADD MSTORE PUSH2 0xBA1 PUSH1 0xA0 DUP4 ADD DUP5 PUSH1 0xFF AND SWAP1 MSTORE JUMP JUMPDEST SWAP8 SWAP7 POP POP POP POP POP POP POP JUMP JUMPDEST PUSH0 PUSH1 0x20 DUP3 DUP5 SUB SLT ISZERO PUSH2 0xBBC JUMPI PUSH0 DUP1 REVERT JUMPDEST DUP2 MLOAD PUSH2 0xA93 DUP2 PUSH2 0xA64 JUMP JUMPDEST PUSH1 0x20 DUP1 DUP3 MSTORE PUSH1 0x25 SWAP1 DUP3 ADD MSTORE PUSH32 0x546869732066756E6374696F6E206F6E6C792061646D696E2063616E20657865 PUSH1 0x40 DUP3 ADD MSTORE PUSH5 0x6375746521 PUSH1 0xD8 SHL PUSH1 0x60 DUP3 ADD MSTORE PUSH1 0x80 ADD SWAP1 JUMP JUMPDEST PUSH4 0x4E487B71 PUSH1 0xE0 SHL PUSH0 MSTORE PUSH1 0x21 PUSH1 0x4 MSTORE PUSH1 0x24 PUSH0 REVERT JUMPDEST PUSH1 0x1 DUP2 DUP2 SHR SWAP1 DUP3 AND DUP1 PUSH2 0xC34 JUMPI PUSH1 0x7F DUP3 AND SWAP2 POP JUMPDEST PUSH1 0x20 DUP3 LT DUP2 SUB PUSH2 0xC52 JUMPI PUSH4 0x4E487B71 PUSH1 0xE0 SHL PUSH0 MSTORE PUSH1 0x22 PUSH1 0x4 MSTORE PUSH1 0x24 PUSH0 REVERT JUMPDEST POP SWAP2 SWAP1 POP JUMP JUMPDEST PUSH1 0x1F DUP3 GT ISZERO PUSH2 0xCA1 JUMPI PUSH0 DUP2 DUP2 MSTORE PUSH1 0x20 DUP2 KECCAK256 PUSH1 0x1F DUP6 ADD PUSH1 0x5 SHR DUP2 ADD PUSH1 0x20 DUP7 LT ISZERO PUSH2 0xC7E JUMPI POP DUP1 JUMPDEST PUSH1 0x1F DUP6 ADD PUSH1 0x5 SHR DUP3 ADD SWAP2 POP JUMPDEST DUP2 DUP2 LT ISZERO PUSH2 0xC9D JUMPI DUP3 DUP2 SSTORE PUSH1 0x1 ADD PUSH2 0xC8A JUMP JUMPDEST POP POP POP JUMPDEST POP POP POP JUMP JUMPDEST DUP2 MLOAD PUSH8 0xFFFFFFFFFFFFFFFF DUP2 GT ISZERO PUSH2 0xCC0 JUMPI PUSH2 0xCC0 PUSH2 0x8B2 JUMP JUMPDEST PUSH2 0xCD4 DUP2 PUSH2 0xCCE DUP5 SLOAD PUSH2 0xC20 JUMP JUMPDEST DUP5 PUSH2 0xC58 JUMP JUMPDEST PUSH1 0x20 DUP1 PUSH1 0x1F DUP4 GT PUSH1 0x1 DUP2 EQ PUSH2 0xD07 JUMPI PUSH0 DUP5 ISZERO PUSH2 0xCF0 JUMPI POP DUP6 DUP4 ADD MLOAD JUMPDEST PUSH0 NOT PUSH1 0x3 DUP7 SWAP1 SHL SHR NOT AND PUSH1 0x1 DUP6 SWAP1 SHL OR DUP6 SSTORE PUSH2 0xC9D JUMP JUMPDEST PUSH0 DUP6 DUP2 MSTORE PUSH1 0x20 DUP2 KECCAK256 PUSH1 0x1F NOT DUP7 AND SWAP2 JUMPDEST DUP3 DUP2 LT ISZERO PUSH2 0xD35 JUMPI DUP9 DUP7 ADD MLOAD DUP3 SSTORE SWAP5 DUP5 ADD SWAP5 PUSH1 0x1 SWAP1 SWAP2 ADD SWAP1 DUP5 ADD PUSH2 0xD16 JUMP JUMPDEST POP DUP6 DUP3 LT ISZERO PUSH2 0xD52 JUMPI DUP8 DUP6 ADD MLOAD PUSH0 NOT PUSH1 0x3 DUP9 SWAP1 SHL PUSH1 0xF8 AND SHR NOT AND DUP2 SSTORE JUMPDEST POP POP POP POP POP PUSH1 0x1 SWAP1 DUP2 SHL ADD SWAP1 SSTORE POP JUMP INVALID LOG2 PUSH5 0x6970667358 0x22 SLT KECCAK256 AND SHL SWAP5 0xEF DUP12 0xD PUSH16 0x7BD7E1C05C1425A28EA503C72E543996 0xC 0x2A 0xD7 0xCC PUSH26 0x1758507A64736F6C63430008140033A264697066735822122029 0xE5 DUP15 0xE5 XOR 0xB1 0xB1 0xE ORIGIN 0xE1 XOR 0xBB ADDMOD PUSH21 0xC829C80BED90039EF07850AC240B558F103164736F PUSH13 0x63430008140033000000000000 "
		},
		"gasEstimates": {
			"creation": {
				"codeDepositCost": "1981000",
				"executionCost": "infinite",
				"totalCost": "infinite"
			},
			"external": {
				"addParticipant(address)": "infinite",
				"addSession(address)": "48880",
				"admin()": "2445",
				"createSession(string,string,string[])": "infinite",
				"getAdmin()": "2363",
				"getAllParticipants()": "infinite",
				"getAllSessionAddresses()": "infinite",
				"getAllSessions()": "infinite",
				"getParticipant(address)": "infinite",
				"getSessionDetail(address)": "infinite",
				"updateParticipant(address,string,string)": "infinite"
			}
		},
		"methodIdentifiers": {
			"addParticipant(address)": "dfafe10f",
			"addSession(address)": "f390dd86",
			"admin()": "f851a440",
			"createSession(string,string,string[])": "93631218",
			"getAdmin()": "6e9960c3",
			"getAllParticipants()": "195ec9ee",
			"getAllSessionAddresses()": "a18e3404",
			"getAllSessions()": "54ca06b4",
			"getParticipant(address)": "7143059f",
			"getSessionDetail(address)": "d1bce2c7",
			"updateParticipant(address,string,string)": "b4007700"
		}
	},
	"abi": [
		{
			"inputs": [
				{
					"internalType": "uint8",
					"name": "_maxOfUser",
					"type": "uint8"
				}
			],
			"stateMutability": "nonpayable",
			"type": "constructor"
		},
		{
			"anonymous": false,
			"inputs": [
				{
					"indexed": false,
					"internalType": "address",
					"name": "_account",
					"type": "address"
				},
				{
					"indexed": false,
					"internalType": "string",
					"name": "msg",
					"type": "string"
				}
			],
			"name": "AddParticipant",
			"type": "event"
		},
		{
			"anonymous": false,
			"inputs": [
				{
					"indexed": false,
					"internalType": "string",
					"name": "_productName",
					"type": "string"
				},
				{
					"indexed": false,
					"internalType": "string",
					"name": "_description",
					"type": "string"
				}
			],
			"name": "CreateSession",
			"type": "event"
		},
		{
			"anonymous": false,
			"inputs": [
				{
					"indexed": false,
					"internalType": "address",
					"name": "_account",
					"type": "address"
				},
				{
					"indexed": false,
					"internalType": "string",
					"name": "_fullName",
					"type": "string"
				},
				{
					"indexed": false,
					"internalType": "string",
					"name": "_email",
					"type": "string"
				}
			],
			"name": "UpdateParticipant",
			"type": "event"
		},
		{
			"inputs": [
				{
					"internalType": "address",
					"name": "_account",
					"type": "address"
				}
			],
			"name": "addParticipant",
			"outputs": [],
			"stateMutability": "nonpayable",
			"type": "function"
		},
		{
			"inputs": [
				{
					"internalType": "address",
					"name": "session",
					"type": "address"
				}
			],
			"name": "addSession",
			"outputs": [],
			"stateMutability": "nonpayable",
			"type": "function"
		},
		{
			"inputs": [],
			"name": "admin",
			"outputs": [
				{
					"internalType": "address",
					"name": "",
					"type": "address"
				}
			],
			"stateMutability": "view",
			"type": "function"
		},
		{
			"inputs": [
				{
					"internalType": "string",
					"name": "_productName",
					"type": "string"
				},
				{
					"internalType": "string",
					"name": "_description",
					"type": "string"
				},
				{
					"internalType": "string[]",
					"name": "_images",
					"type": "string[]"
				}
			],
			"name": "createSession",
			"outputs": [],
			"stateMutability": "nonpayable",
			"type": "function"
		},
		{
			"inputs": [],
			"name": "getAdmin",
			"outputs": [
				{
					"internalType": "address",
					"name": "",
					"type": "address"
				}
			],
			"stateMutability": "view",
			"type": "function"
		},
		{
			"inputs": [],
			"name": "getAllParticipants",
			"outputs": [
				{
					"components": [
						{
							"internalType": "address",
							"name": "account",
							"type": "address"
						},
						{
							"internalType": "string",
							"name": "fullName",
							"type": "string"
						},
						{
							"internalType": "string",
							"name": "email",
							"type": "string"
						},
						{
							"internalType": "uint256",
							"name": "numberOfSession",
							"type": "uint256"
						},
						{
							"internalType": "uint8",
							"name": "deviation",
							"type": "uint8"
						}
					],
					"internalType": "struct Main.IParticipant[]",
					"name": "",
					"type": "tuple[]"
				}
			],
			"stateMutability": "view",
			"type": "function"
		},
		{
			"inputs": [],
			"name": "getAllSessionAddresses",
			"outputs": [
				{
					"internalType": "address[]",
					"name": "",
					"type": "address[]"
				}
			],
			"stateMutability": "view",
			"type": "function"
		},
		{
			"inputs": [],
			"name": "getAllSessions",
			"outputs": [
				{
					"internalType": "address[]",
					"name": "",
					"type": "address[]"
				}
			],
			"stateMutability": "view",
			"type": "function"
		},
		{
			"inputs": [
				{
					"internalType": "address",
					"name": "_account",
					"type": "address"
				}
			],
			"name": "getParticipant",
			"outputs": [
				{
					"components": [
						{
							"internalType": "address",
							"name": "account",
							"type": "address"
						},
						{
							"internalType": "string",
							"name": "fullName",
							"type": "string"
						},
						{
							"internalType": "string",
							"name": "email",
							"type": "string"
						},
						{
							"internalType": "uint256",
							"name": "numberOfSession",
							"type": "uint256"
						},
						{
							"internalType": "uint8",
							"name": "deviation",
							"type": "uint8"
						}
					],
					"internalType": "struct Main.IParticipant",
					"name": "",
					"type": "tuple"
				}
			],
			"stateMutability": "view",
			"type": "function"
		},
		{
			"inputs": [
				{
					"internalType": "address",
					"name": "_session",
					"type": "address"
				}
			],
			"name": "getSessionDetail",
			"outputs": [
				{
					"internalType": "string",
					"name": "",
					"type": "string"
				},
				{
					"internalType": "string",
					"name": "",
					"type": "string"
				},
				{
					"internalType": "string[]",
					"name": "",
					"type": "string[]"
				},
				{
					"internalType": "uint256",
					"name": "",
					"type": "uint256"
				},
				{
					"internalType": "uint256",
					"name": "",
					"type": "uint256"
				},
				{
					"internalType": "uint8",
					"name": "",
					"type": "uint8"
				}
			],
			"stateMutability": "view",
			"type": "function"
		},
		{
			"inputs": [
				{
					"internalType": "address",
					"name": "_account",
					"type": "address"
				},
				{
					"internalType": "string",
					"name": "_fullName",
					"type": "string"
				},
				{
					"internalType": "string",
					"name": "_email",
					"type": "string"
				}
			],
			"name": "updateParticipant",
			"outputs": [],
			"stateMutability": "nonpayable",
			"type": "function"
		}
	]
}